{
  "contractName": "LicenseToken",
  "abi": [
    {
      "inputs": [],
      "stateMutability": "nonpayable",
      "type": "constructor"
    },
    {
      "anonymous": false,
      "inputs": [
        {
          "indexed": true,
          "internalType": "address",
          "name": "owner",
          "type": "address"
        },
        {
          "indexed": true,
          "internalType": "address",
          "name": "approved",
          "type": "address"
        },
        {
          "indexed": true,
          "internalType": "uint256",
          "name": "tokenId",
          "type": "uint256"
        }
      ],
      "name": "Approval",
      "type": "event"
    },
    {
      "anonymous": false,
      "inputs": [
        {
          "indexed": true,
          "internalType": "address",
          "name": "owner",
          "type": "address"
        },
        {
          "indexed": true,
          "internalType": "address",
          "name": "operator",
          "type": "address"
        },
        {
          "indexed": false,
          "internalType": "bool",
          "name": "approved",
          "type": "bool"
        }
      ],
      "name": "ApprovalForAll",
      "type": "event"
    },
    {
      "anonymous": false,
      "inputs": [
        {
          "indexed": false,
          "internalType": "uint256",
          "name": "licenseId",
          "type": "uint256"
        }
      ],
      "name": "LicenseActive",
      "type": "event"
    },
    {
      "anonymous": false,
      "inputs": [
        {
          "indexed": false,
          "internalType": "uint256",
          "name": "licenseId",
          "type": "uint256"
        }
      ],
      "name": "LicenseUpdated",
      "type": "event"
    },
    {
      "anonymous": false,
      "inputs": [
        {
          "indexed": true,
          "internalType": "bytes32",
          "name": "role",
          "type": "bytes32"
        },
        {
          "indexed": true,
          "internalType": "bytes32",
          "name": "previousAdminRole",
          "type": "bytes32"
        },
        {
          "indexed": true,
          "internalType": "bytes32",
          "name": "newAdminRole",
          "type": "bytes32"
        }
      ],
      "name": "RoleAdminChanged",
      "type": "event"
    },
    {
      "anonymous": false,
      "inputs": [
        {
          "indexed": true,
          "internalType": "bytes32",
          "name": "role",
          "type": "bytes32"
        },
        {
          "indexed": true,
          "internalType": "address",
          "name": "account",
          "type": "address"
        },
        {
          "indexed": true,
          "internalType": "address",
          "name": "sender",
          "type": "address"
        }
      ],
      "name": "RoleGranted",
      "type": "event"
    },
    {
      "anonymous": false,
      "inputs": [
        {
          "indexed": true,
          "internalType": "bytes32",
          "name": "role",
          "type": "bytes32"
        },
        {
          "indexed": true,
          "internalType": "address",
          "name": "account",
          "type": "address"
        },
        {
          "indexed": true,
          "internalType": "address",
          "name": "sender",
          "type": "address"
        }
      ],
      "name": "RoleRevoked",
      "type": "event"
    },
    {
      "anonymous": false,
      "inputs": [
        {
          "indexed": true,
          "internalType": "address",
          "name": "from",
          "type": "address"
        },
        {
          "indexed": true,
          "internalType": "address",
          "name": "to",
          "type": "address"
        },
        {
          "indexed": true,
          "internalType": "uint256",
          "name": "tokenId",
          "type": "uint256"
        }
      ],
      "name": "Transfer",
      "type": "event"
    },
    {
      "inputs": [],
      "name": "DEFAULT_ADMIN_ROLE",
      "outputs": [
        {
          "internalType": "bytes32",
          "name": "",
          "type": "bytes32"
        }
      ],
      "stateMutability": "view",
      "type": "function",
      "constant": true
    },
    {
      "inputs": [],
      "name": "LICENSE_MANAGER_ROLE",
      "outputs": [
        {
          "internalType": "bytes32",
          "name": "",
          "type": "bytes32"
        }
      ],
      "stateMutability": "view",
      "type": "function",
      "constant": true
    },
    {
      "inputs": [
        {
          "internalType": "address",
          "name": "to",
          "type": "address"
        },
        {
          "internalType": "uint256",
          "name": "tokenId",
          "type": "uint256"
        }
      ],
      "name": "approve",
      "outputs": [],
      "stateMutability": "nonpayable",
      "type": "function"
    },
    {
      "inputs": [
        {
          "internalType": "address",
          "name": "owner",
          "type": "address"
        }
      ],
      "name": "balanceOf",
      "outputs": [
        {
          "internalType": "uint256",
          "name": "",
          "type": "uint256"
        }
      ],
      "stateMutability": "view",
      "type": "function",
      "constant": true
    },
    {
      "inputs": [
        {
          "internalType": "uint256",
          "name": "tokenId",
          "type": "uint256"
        }
      ],
      "name": "getApproved",
      "outputs": [
        {
          "internalType": "address",
          "name": "",
          "type": "address"
        }
      ],
      "stateMutability": "view",
      "type": "function",
      "constant": true
    },
    {
      "inputs": [
        {
          "internalType": "bytes32",
          "name": "role",
          "type": "bytes32"
        }
      ],
      "name": "getRoleAdmin",
      "outputs": [
        {
          "internalType": "bytes32",
          "name": "",
          "type": "bytes32"
        }
      ],
      "stateMutability": "view",
      "type": "function",
      "constant": true
    },
    {
      "inputs": [
        {
          "internalType": "bytes32",
          "name": "role",
          "type": "bytes32"
        },
        {
          "internalType": "address",
          "name": "account",
          "type": "address"
        }
      ],
      "name": "grantRole",
      "outputs": [],
      "stateMutability": "nonpayable",
      "type": "function"
    },
    {
      "inputs": [
        {
          "internalType": "bytes32",
          "name": "role",
          "type": "bytes32"
        },
        {
          "internalType": "address",
          "name": "account",
          "type": "address"
        }
      ],
      "name": "hasRole",
      "outputs": [
        {
          "internalType": "bool",
          "name": "",
          "type": "bool"
        }
      ],
      "stateMutability": "view",
      "type": "function",
      "constant": true
    },
    {
      "inputs": [
        {
          "internalType": "address",
          "name": "owner",
          "type": "address"
        },
        {
          "internalType": "address",
          "name": "operator",
          "type": "address"
        }
      ],
      "name": "isApprovedForAll",
      "outputs": [
        {
          "internalType": "bool",
          "name": "",
          "type": "bool"
        }
      ],
      "stateMutability": "view",
      "type": "function",
      "constant": true
    },
    {
      "inputs": [],
      "name": "name",
      "outputs": [
        {
          "internalType": "string",
          "name": "",
          "type": "string"
        }
      ],
      "stateMutability": "view",
      "type": "function",
      "constant": true
    },
    {
      "inputs": [
        {
          "internalType": "uint256",
          "name": "tokenId",
          "type": "uint256"
        }
      ],
      "name": "ownerOf",
      "outputs": [
        {
          "internalType": "address",
          "name": "",
          "type": "address"
        }
      ],
      "stateMutability": "view",
      "type": "function",
      "constant": true
    },
    {
      "inputs": [
        {
          "internalType": "bytes32",
          "name": "role",
          "type": "bytes32"
        },
        {
          "internalType": "address",
          "name": "account",
          "type": "address"
        }
      ],
      "name": "renounceRole",
      "outputs": [],
      "stateMutability": "nonpayable",
      "type": "function"
    },
    {
      "inputs": [
        {
          "internalType": "bytes32",
          "name": "role",
          "type": "bytes32"
        },
        {
          "internalType": "address",
          "name": "account",
          "type": "address"
        }
      ],
      "name": "revokeRole",
      "outputs": [],
      "stateMutability": "nonpayable",
      "type": "function"
    },
    {
      "inputs": [
        {
          "internalType": "address",
          "name": "from",
          "type": "address"
        },
        {
          "internalType": "address",
          "name": "to",
          "type": "address"
        },
        {
          "internalType": "uint256",
          "name": "tokenId",
          "type": "uint256"
        }
      ],
      "name": "safeTransferFrom",
      "outputs": [],
      "stateMutability": "nonpayable",
      "type": "function"
    },
    {
      "inputs": [
        {
          "internalType": "address",
          "name": "from",
          "type": "address"
        },
        {
          "internalType": "address",
          "name": "to",
          "type": "address"
        },
        {
          "internalType": "uint256",
          "name": "tokenId",
          "type": "uint256"
        },
        {
          "internalType": "bytes",
          "name": "_data",
          "type": "bytes"
        }
      ],
      "name": "safeTransferFrom",
      "outputs": [],
      "stateMutability": "nonpayable",
      "type": "function"
    },
    {
      "inputs": [
        {
          "internalType": "address",
          "name": "operator",
          "type": "address"
        },
        {
          "internalType": "bool",
          "name": "approved",
          "type": "bool"
        }
      ],
      "name": "setApprovalForAll",
      "outputs": [],
      "stateMutability": "nonpayable",
      "type": "function"
    },
    {
      "inputs": [],
      "name": "symbol",
      "outputs": [
        {
          "internalType": "string",
          "name": "",
          "type": "string"
        }
      ],
      "stateMutability": "view",
      "type": "function",
      "constant": true
    },
    {
      "inputs": [
        {
          "internalType": "uint256",
          "name": "index",
          "type": "uint256"
        }
      ],
      "name": "tokenByIndex",
      "outputs": [
        {
          "internalType": "uint256",
          "name": "",
          "type": "uint256"
        }
      ],
      "stateMutability": "view",
      "type": "function",
      "constant": true
    },
    {
      "inputs": [
        {
          "internalType": "address",
          "name": "owner",
          "type": "address"
        },
        {
          "internalType": "uint256",
          "name": "index",
          "type": "uint256"
        }
      ],
      "name": "tokenOfOwnerByIndex",
      "outputs": [
        {
          "internalType": "uint256",
          "name": "",
          "type": "uint256"
        }
      ],
      "stateMutability": "view",
      "type": "function",
      "constant": true
    },
    {
      "inputs": [
        {
          "internalType": "uint256",
          "name": "tokenId",
          "type": "uint256"
        }
      ],
      "name": "tokenURI",
      "outputs": [
        {
          "internalType": "string",
          "name": "",
          "type": "string"
        }
      ],
      "stateMutability": "view",
      "type": "function",
      "constant": true
    },
    {
      "inputs": [],
      "name": "totalSupply",
      "outputs": [
        {
          "internalType": "uint256",
          "name": "",
          "type": "uint256"
        }
      ],
      "stateMutability": "view",
      "type": "function",
      "constant": true
    },
    {
      "inputs": [
        {
          "internalType": "address",
          "name": "from",
          "type": "address"
        },
        {
          "internalType": "address",
          "name": "to",
          "type": "address"
        },
        {
          "internalType": "uint256",
          "name": "tokenId",
          "type": "uint256"
        }
      ],
      "name": "transferFrom",
      "outputs": [],
      "stateMutability": "nonpayable",
      "type": "function"
    },
    {
      "inputs": [
        {
          "internalType": "bytes4",
          "name": "interfaceId",
          "type": "bytes4"
        }
      ],
      "name": "supportsInterface",
      "outputs": [
        {
          "internalType": "bool",
          "name": "",
          "type": "bool"
        }
      ],
      "stateMutability": "view",
      "type": "function",
      "constant": true
    },
    {
      "inputs": [
        {
          "internalType": "address",
          "name": "licenseOwner",
          "type": "address"
        },
        {
          "internalType": "uint256",
          "name": "servicesIdsPool",
          "type": "uint256"
        },
        {
          "internalType": "enum LicenseType",
          "name": "licenseType",
          "type": "uint8"
        },
        {
          "internalType": "uint256",
          "name": "numberOfMonths",
          "type": "uint256"
        }
      ],
      "name": "createLicense",
      "outputs": [
        {
          "internalType": "uint256",
          "name": "",
          "type": "uint256"
        }
      ],
      "stateMutability": "nonpayable",
      "type": "function"
    },
    {
      "inputs": [
        {
          "internalType": "address",
          "name": "licenseOwner",
          "type": "address"
        },
        {
          "internalType": "uint256",
          "name": "licenseId",
          "type": "uint256"
        },
        {
          "internalType": "uint256",
          "name": "servicesIdsPool",
          "type": "uint256"
        },
        {
          "internalType": "enum LicenseType",
          "name": "licenseType",
          "type": "uint8"
        },
        {
          "internalType": "uint256",
          "name": "numberOfMonths",
          "type": "uint256"
        }
      ],
      "name": "resetLicense",
      "outputs": [],
      "stateMutability": "nonpayable",
      "type": "function"
    },
    {
      "inputs": [
        {
          "internalType": "address",
          "name": "licenseOwner",
          "type": "address"
        },
        {
          "internalType": "uint256",
          "name": "licenseId",
          "type": "uint256"
        },
        {
          "internalType": "uint256",
          "name": "servicesIdsPool",
          "type": "uint256"
        },
        {
          "internalType": "uint256",
          "name": "addedMonths",
          "type": "uint256"
        }
      ],
      "name": "updateLicense",
      "outputs": [],
      "stateMutability": "nonpayable",
      "type": "function"
    },
    {
      "inputs": [
        {
          "internalType": "uint256",
          "name": "licenseId",
          "type": "uint256"
        }
      ],
      "name": "burn",
      "outputs": [],
      "stateMutability": "nonpayable",
      "type": "function"
    },
    {
      "inputs": [
        {
          "internalType": "uint256",
          "name": "licenseId",
          "type": "uint256"
        }
      ],
      "name": "activate",
      "outputs": [],
      "stateMutability": "nonpayable",
      "type": "function"
    },
    {
      "inputs": [
        {
          "internalType": "uint256",
          "name": "licenseId",
          "type": "uint256"
        }
      ],
      "name": "isLicenseActive",
      "outputs": [
        {
          "internalType": "bool",
          "name": "",
          "type": "bool"
        }
      ],
      "stateMutability": "view",
      "type": "function",
      "constant": true
    },
    {
      "inputs": [
        {
          "internalType": "uint256",
          "name": "licenseId",
          "type": "uint256"
        }
      ],
      "name": "getLicense",
      "outputs": [
        {
          "components": [
            {
              "internalType": "uint256",
              "name": "registeredOn",
              "type": "uint256"
            },
            {
              "internalType": "uint256",
              "name": "expiresOn",
              "type": "uint256"
            },
            {
              "internalType": "uint256",
              "name": "activeSince",
              "type": "uint256"
            },
            {
              "internalType": "uint256",
              "name": "servicesIdsPool",
              "type": "uint256"
            },
            {
              "internalType": "uint256",
              "name": "numberOfMonths",
              "type": "uint256"
            },
            {
              "internalType": "enum LicenseState",
              "name": "state",
              "type": "uint8"
            },
            {
              "internalType": "enum LicenseType",
              "name": "licenseType",
              "type": "uint8"
            }
          ],
          "internalType": "struct LicenseInfo",
          "name": "",
          "type": "tuple"
        }
      ],
      "stateMutability": "view",
      "type": "function",
      "constant": true
    },
    {
      "inputs": [
        {
          "internalType": "address",
          "name": "user",
          "type": "address"
        },
        {
          "internalType": "uint256",
          "name": "licenseId",
          "type": "uint256"
        },
        {
          "internalType": "uint256",
          "name": "serviceId",
          "type": "uint256"
        }
      ],
      "name": "isUserAllowToUseService",
      "outputs": [
        {
          "internalType": "bool",
          "name": "",
          "type": "bool"
        }
      ],
      "stateMutability": "view",
      "type": "function",
      "constant": true
    }
  ],
  "bytecode": "0x60806040523480156200001157600080fd5b506040518060400160405280600781526020017f4c6963656e7365000000000000000000000000000000000000000000000000008152506040518060400160405280600381526020017f4c5643000000000000000000000000000000000000000000000000000000000081525081600090805190602001906200009692919062000298565b508060019080519060200190620000af92919062000298565b505050620000d66000801b620000ca6200011d60201b60201c565b6200012560201b60201c565b620001177f6906f436fc390f9133ad373774cc38c4aa0356c26e6e60fa181881215f6b80e36200010b6200011d60201b60201c565b6200012560201b60201c565b620003ad565b600033905090565b6200013782826200013b60201b60201c565b5050565b6200014d82826200022d60201b60201c565b62000229576001600a600084815260200190815260200160002060000160008373ffffffffffffffffffffffffffffffffffffffff1673ffffffffffffffffffffffffffffffffffffffff16815260200190815260200160002060006101000a81548160ff021916908315150217905550620001ce6200011d60201b60201c565b73ffffffffffffffffffffffffffffffffffffffff168173ffffffffffffffffffffffffffffffffffffffff16837f2f8788117e7eff1d82e926ec794901d17c78024a50270940304540a733656f0d60405160405180910390a45b5050565b6000600a600084815260200190815260200160002060000160008373ffffffffffffffffffffffffffffffffffffffff1673ffffffffffffffffffffffffffffffffffffffff16815260200190815260200160002060009054906101000a900460ff16905092915050565b828054620002a69062000348565b90600052602060002090601f016020900481019282620002ca576000855562000316565b82601f10620002e557805160ff191683800117855562000316565b8280016001018555821562000316579182015b8281111562000315578251825591602001919060010190620002f8565b5b50905062000325919062000329565b5090565b5b80821115620003445760008160009055506001016200032a565b5090565b600060028204905060018216806200036157607f821691505b602082108114156200037857620003776200037e565b5b50919050565b7f4e487b7100000000000000000000000000000000000000000000000000000000600052602260045260246000fd5b6151a680620003bd6000396000f3fe608060405234801561001057600080fd5b50600436106101e55760003560e01c80636352211e1161010f578063b260c42a116100a2578063c87b56dd11610071578063c87b56dd146105c4578063d547741f146105f4578063e705c2b814610610578063e985e9c514610640576101e5565b8063b260c42a14610540578063b2dd12121461055c578063b88d4fde1461058c578063b99a6085146105a8576101e5565b806395d89b41116100de57806395d89b41146104b8578063a217fddf146104d6578063a22cb465146104f4578063a35e3ba914610510576101e5565b80636352211e146103f857806370a08231146104285780638f032d6e1461045857806391d1485414610488576101e5565b806323efa8221161018757806336568abe1161015657806336568abe1461037457806342842e0e1461039057806342966c68146103ac5780634f6ccce7146103c8576101e5565b806323efa822146102da578063248a9ca3146102f85780632f2ff15d146103285780632f745c5914610344576101e5565b8063095ea7b3116101c3578063095ea7b31461026857806318160ddd1461028457806320d966ca146102a257806323b872dd146102be576101e5565b806301ffc9a7146101ea57806306fdde031461021a578063081812fc14610238575b600080fd5b61020460048036038101906101ff9190613938565b610670565b6040516102119190614026565b60405180910390f35b610222610682565b60405161022f919061405c565b60405180910390f35b610252600480360381019061024d9190613992565b610714565b60405161025f9190613fbf565b60405180910390f35b610282600480360381019061027d91906136c2565b610799565b005b61028c6108b1565b60405161029991906144ed565b60405180910390f35b6102bc60048036038101906102b791906137bc565b6108be565b005b6102d860048036038101906102d391906135ac565b610abf565b005b6102e2610b1f565b6040516102ef9190614041565b60405180910390f35b610312600480360381019061030d91906138cb565b610b43565b60405161031f9190614041565b60405180910390f35b610342600480360381019061033d91906138f8565b610b63565b005b61035e600480360381019061035991906136c2565b610b8c565b60405161036b91906144ed565b60405180910390f35b61038e600480360381019061038991906138f8565b610c31565b005b6103aa60048036038101906103a591906135ac565b610cb4565b005b6103c660048036038101906103c19190613992565b610cd4565b005b6103e260048036038101906103dd9190613992565b610e10565b6040516103ef91906144ed565b60405180910390f35b610412600480360381019061040d9190613992565b610e81565b60405161041f9190613fbf565b60405180910390f35b610442600480360381019061043d919061353f565b610f33565b60405161044f91906144ed565b60405180910390f35b610472600480360381019061046d9190613769565b610feb565b60405161047f9190614026565b60405180910390f35b6104a2600480360381019061049d91906138f8565b6111a5565b6040516104af9190614026565b60405180910390f35b6104c0611210565b6040516104cd919061405c565b60405180910390f35b6104de6112a2565b6040516104eb9190614041565b60405180910390f35b61050e60048036038101906105099190613682565b6112a9565b005b61052a60048036038101906105259190613702565b61142a565b60405161053791906144ed565b60405180910390f35b61055a60048036038101906105559190613992565b61159b565b005b61057660048036038101906105719190613992565b611767565b60405161058391906143be565b60405180910390f35b6105a660048036038101906105a191906135ff565b611889565b005b6105c260048036038101906105bd9190613837565b6118eb565b005b6105de60048036038101906105d99190613992565b611b27565b6040516105eb919061405c565b60405180910390f35b61060e600480360381019061060991906138f8565b611bce565b005b61062a60048036038101906106259190613992565b611bf7565b6040516106379190614026565b60405180910390f35b61065a6004803603810190610655919061356c565b611cd6565b6040516106679190614026565b60405180910390f35b600061067b82611d6a565b9050919050565b606060008054610691906147ea565b80601f01602080910402602001604051908101604052809291908181526020018280546106bd906147ea565b801561070a5780601f106106df5761010080835404028352916020019161070a565b820191906000526020600020905b8154815290600101906020018083116106ed57829003601f168201915b5050505050905090565b600061071f82611de4565b61075e576040517f08c379a00000000000000000000000000000000000000000000000000000000081526004016107559061429e565b60405180910390fd5b6004600083815260200190815260200160002060009054906101000a900473ffffffffffffffffffffffffffffffffffffffff169050919050565b60006107a482610e81565b90508073ffffffffffffffffffffffffffffffffffffffff168373ffffffffffffffffffffffffffffffffffffffff161415610815576040517f08c379a000000000000000000000000000000000000000000000000000000000815260040161080c906142fe565b60405180910390fd5b8073ffffffffffffffffffffffffffffffffffffffff16610834611e50565b73ffffffffffffffffffffffffffffffffffffffff16148061086357506108628161085d611e50565b611cd6565b5b6108a2576040517f08c379a0000000000000000000000000000000000000000000000000000000008152600401610899906141de565b60405180910390fd5b6108ac8383611e58565b505050565b6000600880549050905090565b6108ef7f6906f436fc390f9133ad373774cc38c4aa0356c26e6e60fa181881215f6b80e36108ea611e50565b6111a5565b61092e576040517f08c379a00000000000000000000000000000000000000000000000000000000081526004016109259061433e565b60405180910390fd5b8361093881611de4565b610977576040517f08c379a000000000000000000000000000000000000000000000000000000000815260040161096e9061423e565b60405180910390fd5b8573ffffffffffffffffffffffffffffffffffffffff1661099786610e81565b73ffffffffffffffffffffffffffffffffffffffff16146109ed576040517f08c379a00000000000000000000000000000000000000000000000000000000081526004016109e49061409e565b60405180910390fd5b600c73__LicenseTools__________________________632e28346f9091878787876040518663ffffffff1660e01b8152600401610a2f959493929190614455565b60206040518083038186803b158015610a4757600080fd5b505af4158015610a5b573d6000803e3d6000fd5b505050506040513d601f19601f82011682018060405250810190610a7f919061389e565b507f5fc9d65c833c9a6adf234ab047cdfa02ccf1912b857e3ebab6a5dee69e31437185604051610aaf91906144ed565b60405180910390a1505050505050565b610ad0610aca611e50565b82611f11565b610b0f576040517f08c379a0000000000000000000000000000000000000000000000000000000008152600401610b069061431e565b60405180910390fd5b610b1a838383611fef565b505050565b7f6906f436fc390f9133ad373774cc38c4aa0356c26e6e60fa181881215f6b80e381565b6000600a6000838152602001908152602001600020600101549050919050565b610b6c82610b43565b610b7d81610b78611e50565b61224b565b610b8783836122e8565b505050565b6000610b9783610f33565b8210610bd8576040517f08c379a0000000000000000000000000000000000000000000000000000000008152600401610bcf906140be565b60405180910390fd5b600660008473ffffffffffffffffffffffffffffffffffffffff1673ffffffffffffffffffffffffffffffffffffffff168152602001908152602001600020600083815260200190815260200160002054905092915050565b610c39611e50565b73ffffffffffffffffffffffffffffffffffffffff168173ffffffffffffffffffffffffffffffffffffffff1614610ca6576040517f08c379a0000000000000000000000000000000000000000000000000000000008152600401610c9d9061439e565b60405180910390fd5b610cb082826123c9565b5050565b610ccf83838360405180602001604052806000815250611889565b505050565b80610cde81611de4565b610d1d576040517f08c379a0000000000000000000000000000000000000000000000000000000008152600401610d149061423e565b60405180910390fd5b610d25611e50565b73ffffffffffffffffffffffffffffffffffffffff16610d4483610e81565b73ffffffffffffffffffffffffffffffffffffffff1614610d9a576040517f08c379a0000000000000000000000000000000000000000000000000000000008152600401610d919061409e565b60405180910390fd5b610da3826124ab565b600c600001600083815260200190815260200160002060008082016000905560018201600090556002820160009055600382016000905560048201600090556005820160006101000a81549060ff02191690556005820160016101000a81549060ff021916905550505050565b6000610e1a6108b1565b8210610e5b576040517f08c379a0000000000000000000000000000000000000000000000000000000008152600401610e529061435e565b60405180910390fd5b60088281548110610e6f57610e6e6149b2565b5b90600052602060002001549050919050565b6000806002600084815260200190815260200160002060009054906101000a900473ffffffffffffffffffffffffffffffffffffffff169050600073ffffffffffffffffffffffffffffffffffffffff168173ffffffffffffffffffffffffffffffffffffffff161415610f2a576040517f08c379a0000000000000000000000000000000000000000000000000000000008152600401610f219061421e565b60405180910390fd5b80915050919050565b60008073ffffffffffffffffffffffffffffffffffffffff168273ffffffffffffffffffffffffffffffffffffffff161415610fa4576040517f08c379a0000000000000000000000000000000000000000000000000000000008152600401610f9b906141fe565b60405180910390fd5b600360008373ffffffffffffffffffffffffffffffffffffffff1673ffffffffffffffffffffffffffffffffffffffff168152602001908152602001600020549050919050565b600082610ff781611de4565b611036576040517f08c379a000000000000000000000000000000000000000000000000000000000815260040161102d9061423e565b60405180910390fd5b600c73__LicenseTools__________________________63e6713dc19091866040518363ffffffff1660e01b815260040161107292919061442c565b60206040518083038186803b15801561108a57600080fd5b505af415801561109e573d6000803e3d6000fd5b505050506040513d601f19601f820116820180604052508101906110c2919061389e565b611101576040517f08c379a00000000000000000000000000000000000000000000000000000000081526004016110f89061413e565b60405180910390fd5b600c73__LicenseTools__________________________6346e6bde390918761112988610e81565b88886040518663ffffffff1660e01b815260040161114b9594939291906143d9565b60206040518083038186803b15801561116357600080fd5b505af4158015611177573d6000803e3d6000fd5b505050506040513d601f19601f8201168201806040525081019061119b919061389e565b9150509392505050565b6000600a600084815260200190815260200160002060000160008373ffffffffffffffffffffffffffffffffffffffff1673ffffffffffffffffffffffffffffffffffffffff16815260200190815260200160002060009054906101000a900460ff16905092915050565b60606001805461121f906147ea565b80601f016020809104026020016040519081016040528092919081815260200182805461124b906147ea565b80156112985780601f1061126d57610100808354040283529160200191611298565b820191906000526020600020905b81548152906001019060200180831161127b57829003601f168201915b5050505050905090565b6000801b81565b6112b1611e50565b73ffffffffffffffffffffffffffffffffffffffff168273ffffffffffffffffffffffffffffffffffffffff16141561131f576040517f08c379a00000000000000000000000000000000000000000000000000000000081526004016113169061417e565b60405180910390fd5b806005600061132c611e50565b73ffffffffffffffffffffffffffffffffffffffff1673ffffffffffffffffffffffffffffffffffffffff16815260200190815260200160002060008473ffffffffffffffffffffffffffffffffffffffff1673ffffffffffffffffffffffffffffffffffffffff16815260200190815260200160002060006101000a81548160ff0219169083151502179055508173ffffffffffffffffffffffffffffffffffffffff166113d9611e50565b73ffffffffffffffffffffffffffffffffffffffff167f17307eab39ab6107e8899845ad3d59bd9653f200f220920489ca2b5937696c318360405161141e9190614026565b60405180910390a35050565b600061145d7f6906f436fc390f9133ad373774cc38c4aa0356c26e6e60fa181881215f6b80e3611458611e50565b6111a5565b61149c576040517f08c379a00000000000000000000000000000000000000000000000000000000081526004016114939061433e565b60405180910390fd5b6114a6600b6125bc565b60006114b2600b6125d2565b90506114be86826125e0565b600c73__LicenseTools__________________________632e28346f9091838888886040518663ffffffff1660e01b8152600401611500959493929190614455565b60206040518083038186803b15801561151857600080fd5b505af415801561152c573d6000803e3d6000fd5b505050506040513d601f19601f82011682018060405250810190611550919061389e565b61158f576040517f08c379a00000000000000000000000000000000000000000000000000000000081526004016115869061411e565b60405180910390fd5b80915050949350505050565b806115a581611de4565b6115e4576040517f08c379a00000000000000000000000000000000000000000000000000000000081526004016115db9061423e565b60405180910390fd5b6115ec611e50565b73ffffffffffffffffffffffffffffffffffffffff1661160b83610e81565b73ffffffffffffffffffffffffffffffffffffffff1614611661576040517f08c379a00000000000000000000000000000000000000000000000000000000081526004016116589061425e565b60405180910390fd5b600c73__LicenseTools__________________________6352932dea9091846040518363ffffffff1660e01b815260040161169d92919061442c565b60206040518083038186803b1580156116b557600080fd5b505af41580156116c9573d6000803e3d6000fd5b505050506040513d601f19601f820116820180604052508101906116ed919061389e565b61172c576040517f08c379a00000000000000000000000000000000000000000000000000000000081526004016117239061437e565b60405180910390fd5b7f229aa096fe921d68e2997f81c575e47900571efc1f51545e0f871bb3d447ebae8260405161175b91906144ed565b60405180910390a15050565b61176f6133c6565b8161177981611de4565b6117b8576040517f08c379a00000000000000000000000000000000000000000000000000000000081526004016117af9061423e565b60405180910390fd5b600c60000160008481526020019081526020016000206040518060e001604052908160008201548152602001600182015481526020016002820154815260200160038201548152602001600482015481526020016005820160009054906101000a900460ff1660018111156118305761182f614925565b5b600181111561184257611841614925565b5b81526020016005820160019054906101000a900460ff16600181111561186b5761186a614925565b5b600181111561187d5761187c614925565b5b81525050915050919050565b61189a611894611e50565b83611f11565b6118d9576040517f08c379a00000000000000000000000000000000000000000000000000000000081526004016118d09061431e565b60405180910390fd5b6118e5848484846125fe565b50505050565b61191c7f6906f436fc390f9133ad373774cc38c4aa0356c26e6e60fa181881215f6b80e3611917611e50565b6111a5565b61195b576040517f08c379a00000000000000000000000000000000000000000000000000000000081526004016119529061433e565b60405180910390fd5b8261196581611de4565b6119a4576040517f08c379a000000000000000000000000000000000000000000000000000000000815260040161199b9061423e565b60405180910390fd5b8473ffffffffffffffffffffffffffffffffffffffff166119c485610e81565b73ffffffffffffffffffffffffffffffffffffffff1614611a1a576040517f08c379a0000000000000000000000000000000000000000000000000000000008152600401611a119061409e565b60405180910390fd5b600c73__LicenseTools__________________________6365b8740b90918686866040518563ffffffff1660e01b8152600401611a5a94939291906144a8565b60206040518083038186803b158015611a7257600080fd5b505af4158015611a86573d6000803e3d6000fd5b505050506040513d601f19601f82011682018060405250810190611aaa919061389e565b611ae9576040517f08c379a0000000000000000000000000000000000000000000000000000000008152600401611ae09061419e565b60405180910390fd5b7f5fc9d65c833c9a6adf234ab047cdfa02ccf1912b857e3ebab6a5dee69e31437184604051611b1891906144ed565b60405180910390a15050505050565b6060611b3282611de4565b611b71576040517f08c379a0000000000000000000000000000000000000000000000000000000008152600401611b68906142de565b60405180910390fd5b6000611b7b61265a565b90506000815111611b9b5760405180602001604052806000815250611bc6565b80611ba584612671565b604051602001611bb6929190613f61565b6040516020818303038152906040525b915050919050565b611bd782610b43565b611be881611be3611e50565b61224b565b611bf283836123c9565b505050565b600081611c0381611de4565b611c42576040517f08c379a0000000000000000000000000000000000000000000000000000000008152600401611c399061423e565b60405180910390fd5b600c73__LicenseTools__________________________63e6713dc19091856040518363ffffffff1660e01b8152600401611c7e92919061442c565b60206040518083038186803b158015611c9657600080fd5b505af4158015611caa573d6000803e3d6000fd5b505050506040513d601f19601f82011682018060405250810190611cce919061389e565b915050919050565b6000600560008473ffffffffffffffffffffffffffffffffffffffff1673ffffffffffffffffffffffffffffffffffffffff16815260200190815260200160002060008373ffffffffffffffffffffffffffffffffffffffff1673ffffffffffffffffffffffffffffffffffffffff16815260200190815260200160002060009054906101000a900460ff16905092915050565b60007f7965db0b000000000000000000000000000000000000000000000000000000007bffffffffffffffffffffffffffffffffffffffffffffffffffffffff1916827bffffffffffffffffffffffffffffffffffffffffffffffffffffffff19161480611ddd5750611ddc826127d2565b5b9050919050565b60008073ffffffffffffffffffffffffffffffffffffffff166002600084815260200190815260200160002060009054906101000a900473ffffffffffffffffffffffffffffffffffffffff1673ffffffffffffffffffffffffffffffffffffffff1614159050919050565b600033905090565b816004600083815260200190815260200160002060006101000a81548173ffffffffffffffffffffffffffffffffffffffff021916908373ffffffffffffffffffffffffffffffffffffffff160217905550808273ffffffffffffffffffffffffffffffffffffffff16611ecb83610e81565b73ffffffffffffffffffffffffffffffffffffffff167f8c5be1e5ebec7d5bd14f71427d1e84f3dd0314c0f7b2291e5b200ac8c7c3b92560405160405180910390a45050565b6000611f1c82611de4565b611f5b576040517f08c379a0000000000000000000000000000000000000000000000000000000008152600401611f52906141be565b60405180910390fd5b6000611f6683610e81565b90508073ffffffffffffffffffffffffffffffffffffffff168473ffffffffffffffffffffffffffffffffffffffff161480611fd557508373ffffffffffffffffffffffffffffffffffffffff16611fbd84610714565b73ffffffffffffffffffffffffffffffffffffffff16145b80611fe65750611fe58185611cd6565b5b91505092915050565b8273ffffffffffffffffffffffffffffffffffffffff1661200f82610e81565b73ffffffffffffffffffffffffffffffffffffffff1614612065576040517f08c379a000000000000000000000000000000000000000000000000000000000815260040161205c906142be565b60405180910390fd5b600073ffffffffffffffffffffffffffffffffffffffff168273ffffffffffffffffffffffffffffffffffffffff1614156120d5576040517f08c379a00000000000000000000000000000000000000000000000000000000081526004016120cc9061415e565b60405180910390fd5b6120e083838361284c565b6120eb600082611e58565b6001600360008573ffffffffffffffffffffffffffffffffffffffff1673ffffffffffffffffffffffffffffffffffffffff168152602001908152602001600020600082825461213b9190614682565b925050819055506001600360008473ffffffffffffffffffffffffffffffffffffffff1673ffffffffffffffffffffffffffffffffffffffff168152602001908152602001600020600082825461219291906145a1565b92505081905550816002600083815260200190815260200160002060006101000a81548173ffffffffffffffffffffffffffffffffffffffff021916908373ffffffffffffffffffffffffffffffffffffffff160217905550808273ffffffffffffffffffffffffffffffffffffffff168473ffffffffffffffffffffffffffffffffffffffff167fddf252ad1be2c89b69c2b068fc378daa952ba7f163c4a11628f55a4df523b3ef60405160405180910390a4505050565b61225582826111a5565b6122e45761227a8173ffffffffffffffffffffffffffffffffffffffff166014612960565b6122888360001c6020612960565b604051602001612299929190613f85565b6040516020818303038152906040526040517f08c379a00000000000000000000000000000000000000000000000000000000081526004016122db919061405c565b60405180910390fd5b5050565b6122f282826111a5565b6123c5576001600a600084815260200190815260200160002060000160008373ffffffffffffffffffffffffffffffffffffffff1673ffffffffffffffffffffffffffffffffffffffff16815260200190815260200160002060006101000a81548160ff02191690831515021790555061236a611e50565b73ffffffffffffffffffffffffffffffffffffffff168173ffffffffffffffffffffffffffffffffffffffff16837f2f8788117e7eff1d82e926ec794901d17c78024a50270940304540a733656f0d60405160405180910390a45b5050565b6123d382826111a5565b156124a7576000600a600084815260200190815260200160002060000160008373ffffffffffffffffffffffffffffffffffffffff1673ffffffffffffffffffffffffffffffffffffffff16815260200190815260200160002060006101000a81548160ff02191690831515021790555061244c611e50565b73ffffffffffffffffffffffffffffffffffffffff168173ffffffffffffffffffffffffffffffffffffffff16837ff6391f5c32d9c69d2a47ea670b442974b53935d1edc7fd64eb21e047a839171b60405160405180910390a45b5050565b60006124b682610e81565b90506124c48160008461284c565b6124cf600083611e58565b6001600360008373ffffffffffffffffffffffffffffffffffffffff1673ffffffffffffffffffffffffffffffffffffffff168152602001908152602001600020600082825461251f9190614682565b925050819055506002600083815260200190815260200160002060006101000a81549073ffffffffffffffffffffffffffffffffffffffff021916905581600073ffffffffffffffffffffffffffffffffffffffff168273ffffffffffffffffffffffffffffffffffffffff167fddf252ad1be2c89b69c2b068fc378daa952ba7f163c4a11628f55a4df523b3ef60405160405180910390a45050565b6001816000016000828254019250508190555050565b600081600001549050919050565b6125fa828260405180602001604052806000815250612b9c565b5050565b612609848484611fef565b61261584848484612bf7565b612654576040517f08c379a000000000000000000000000000000000000000000000000000000000815260040161264b906140de565b60405180910390fd5b50505050565b606060405180602001604052806000815250905090565b606060008214156126b9576040518060400160405280600181526020017f300000000000000000000000000000000000000000000000000000000000000081525090506127cd565b600082905060005b600082146126eb5780806126d49061484d565b915050600a826126e491906145f7565b91506126c1565b60008167ffffffffffffffff811115612707576127066149e1565b5b6040519080825280601f01601f1916602001820160405280156127395781602001600182028036833780820191505090505b5090505b600085146127c6576001826127529190614682565b9150600a856127619190614896565b603061276d91906145a1565b60f81b818381518110612783576127826149b2565b5b60200101907effffffffffffffffffffffffffffffffffffffffffffffffffffffffffffff1916908160001a905350600a856127bf91906145f7565b945061273d565b8093505050505b919050565b60007f780e9d63000000000000000000000000000000000000000000000000000000007bffffffffffffffffffffffffffffffffffffffffffffffffffffffff1916827bffffffffffffffffffffffffffffffffffffffffffffffffffffffff19161480612845575061284482612d8e565b5b9050919050565b612857838383612e70565b600073ffffffffffffffffffffffffffffffffffffffff168373ffffffffffffffffffffffffffffffffffffffff16141561289a5761289581612e75565b6128d9565b8173ffffffffffffffffffffffffffffffffffffffff168373ffffffffffffffffffffffffffffffffffffffff16146128d8576128d78382612ebe565b5b5b600073ffffffffffffffffffffffffffffffffffffffff168273ffffffffffffffffffffffffffffffffffffffff16141561291c576129178161302b565b61295b565b8273ffffffffffffffffffffffffffffffffffffffff168273ffffffffffffffffffffffffffffffffffffffff161461295a5761295982826130fc565b5b5b505050565b6060600060028360026129739190614628565b61297d91906145a1565b67ffffffffffffffff811115612996576129956149e1565b5b6040519080825280601f01601f1916602001820160405280156129c85781602001600182028036833780820191505090505b5090507f300000000000000000000000000000000000000000000000000000000000000081600081518110612a00576129ff6149b2565b5b60200101907effffffffffffffffffffffffffffffffffffffffffffffffffffffffffffff1916908160001a9053507f780000000000000000000000000000000000000000000000000000000000000081600181518110612a6457612a636149b2565b5b60200101907effffffffffffffffffffffffffffffffffffffffffffffffffffffffffffff1916908160001a90535060006001846002612aa49190614628565b612aae91906145a1565b90505b6001811115612b4e577f3031323334353637383961626364656600000000000000000000000000000000600f861660108110612af057612aef6149b2565b5b1a60f81b828281518110612b0757612b066149b2565b5b60200101907effffffffffffffffffffffffffffffffffffffffffffffffffffffffffffff1916908160001a905350600485901c945080612b47906147c0565b9050612ab1565b5060008414612b92576040517f08c379a0000000000000000000000000000000000000000000000000000000008152600401612b899061407e565b60405180910390fd5b8091505092915050565b612ba6838361317b565b612bb36000848484612bf7565b612bf2576040517f08c379a0000000000000000000000000000000000000000000000000000000008152600401612be9906140de565b60405180910390fd5b505050565b6000612c188473ffffffffffffffffffffffffffffffffffffffff16613349565b15612d81578373ffffffffffffffffffffffffffffffffffffffff1663150b7a02612c41611e50565b8786866040518563ffffffff1660e01b8152600401612c639493929190613fda565b602060405180830381600087803b158015612c7d57600080fd5b505af1925050508015612cae57506040513d601f19601f82011682018060405250810190612cab9190613965565b60015b612d31573d8060008114612cde576040519150601f19603f3d011682016040523d82523d6000602084013e612ce3565b606091505b50600081511415612d29576040517f08c379a0000000000000000000000000000000000000000000000000000000008152600401612d20906140de565b60405180910390fd5b805181602001fd5b63150b7a0260e01b7bffffffffffffffffffffffffffffffffffffffffffffffffffffffff1916817bffffffffffffffffffffffffffffffffffffffffffffffffffffffff191614915050612d86565b600190505b949350505050565b60007f80ac58cd000000000000000000000000000000000000000000000000000000007bffffffffffffffffffffffffffffffffffffffffffffffffffffffff1916827bffffffffffffffffffffffffffffffffffffffffffffffffffffffff19161480612e5957507f5b5e139f000000000000000000000000000000000000000000000000000000007bffffffffffffffffffffffffffffffffffffffffffffffffffffffff1916827bffffffffffffffffffffffffffffffffffffffffffffffffffffffff1916145b80612e695750612e688261335c565b5b9050919050565b505050565b6008805490506009600083815260200190815260200160002081905550600881908060018154018082558091505060019003906000526020600020016000909190919091505550565b60006001612ecb84610f33565b612ed59190614682565b9050600060076000848152602001908152602001600020549050818114612fba576000600660008673ffffffffffffffffffffffffffffffffffffffff1673ffffffffffffffffffffffffffffffffffffffff168152602001908152602001600020600084815260200190815260200160002054905080600660008773ffffffffffffffffffffffffffffffffffffffff1673ffffffffffffffffffffffffffffffffffffffff168152602001908152602001600020600084815260200190815260200160002081905550816007600083815260200190815260200160002081905550505b6007600084815260200190815260200160002060009055600660008573ffffffffffffffffffffffffffffffffffffffff1673ffffffffffffffffffffffffffffffffffffffff16815260200190815260200160002060008381526020019081526020016000206000905550505050565b6000600160088054905061303f9190614682565b905060006009600084815260200190815260200160002054905060006008838154811061306f5761306e6149b2565b5b906000526020600020015490508060088381548110613091576130906149b2565b5b9060005260206000200181905550816009600083815260200190815260200160002081905550600960008581526020019081526020016000206000905560088054806130e0576130df614983565b5b6001900381819060005260206000200160009055905550505050565b600061310783610f33565b905081600660008573ffffffffffffffffffffffffffffffffffffffff1673ffffffffffffffffffffffffffffffffffffffff168152602001908152602001600020600083815260200190815260200160002081905550806007600084815260200190815260200160002081905550505050565b600073ffffffffffffffffffffffffffffffffffffffff168273ffffffffffffffffffffffffffffffffffffffff1614156131eb576040517f08c379a00000000000000000000000000000000000000000000000000000000081526004016131e29061427e565b60405180910390fd5b6131f481611de4565b15613234576040517f08c379a000000000000000000000000000000000000000000000000000000000815260040161322b906140fe565b60405180910390fd5b6132406000838361284c565b6001600360008473ffffffffffffffffffffffffffffffffffffffff1673ffffffffffffffffffffffffffffffffffffffff168152602001908152602001600020600082825461329091906145a1565b92505081905550816002600083815260200190815260200160002060006101000a81548173ffffffffffffffffffffffffffffffffffffffff021916908373ffffffffffffffffffffffffffffffffffffffff160217905550808273ffffffffffffffffffffffffffffffffffffffff16600073ffffffffffffffffffffffffffffffffffffffff167fddf252ad1be2c89b69c2b068fc378daa952ba7f163c4a11628f55a4df523b3ef60405160405180910390a45050565b600080823b905060008111915050919050565b60007f01ffc9a7000000000000000000000000000000000000000000000000000000007bffffffffffffffffffffffffffffffffffffffffffffffffffffffff1916827bffffffffffffffffffffffffffffffffffffffffffffffffffffffff1916149050919050565b6040518060e0016040528060008152602001600081526020016000815260200160008152602001600081526020016000600181111561340857613407614925565b5b81526020016000600181111561342157613420614925565b5b81525090565b600061343a6134358461452d565b614508565b90508281526020810184848401111561345657613455614a15565b5b61346184828561477e565b509392505050565b600081359050613478816150ed565b92915050565b60008135905061348d81615104565b92915050565b6000815190506134a281615104565b92915050565b6000813590506134b78161511b565b92915050565b6000813590506134cc81615132565b92915050565b6000815190506134e181615132565b92915050565b600082601f8301126134fc576134fb614a10565b5b813561350c848260208601613427565b91505092915050565b60008135905061352481615149565b92915050565b60008135905061353981615159565b92915050565b60006020828403121561355557613554614a1f565b5b600061356384828501613469565b91505092915050565b6000806040838503121561358357613582614a1f565b5b600061359185828601613469565b92505060206135a285828601613469565b9150509250929050565b6000806000606084860312156135c5576135c4614a1f565b5b60006135d386828701613469565b93505060206135e486828701613469565b92505060406135f58682870161352a565b9150509250925092565b6000806000806080858703121561361957613618614a1f565b5b600061362787828801613469565b945050602061363887828801613469565b93505060406136498782880161352a565b925050606085013567ffffffffffffffff81111561366a57613669614a1a565b5b613676878288016134e7565b91505092959194509250565b6000806040838503121561369957613698614a1f565b5b60006136a785828601613469565b92505060206136b88582860161347e565b9150509250929050565b600080604083850312156136d9576136d8614a1f565b5b60006136e785828601613469565b92505060206136f88582860161352a565b9150509250929050565b6000806000806080858703121561371c5761371b614a1f565b5b600061372a87828801613469565b945050602061373b8782880161352a565b935050604061374c87828801613515565b925050606061375d8782880161352a565b91505092959194509250565b60008060006060848603121561378257613781614a1f565b5b600061379086828701613469565b93505060206137a18682870161352a565b92505060406137b28682870161352a565b9150509250925092565b600080600080600060a086880312156137d8576137d7614a1f565b5b60006137e688828901613469565b95505060206137f78882890161352a565b94505060406138088882890161352a565b935050606061381988828901613515565b925050608061382a8882890161352a565b9150509295509295909350565b6000806000806080858703121561385157613850614a1f565b5b600061385f87828801613469565b94505060206138708782880161352a565b93505060406138818782880161352a565b92505060606138928782880161352a565b91505092959194509250565b6000602082840312156138b4576138b3614a1f565b5b60006138c284828501613493565b91505092915050565b6000602082840312156138e1576138e0614a1f565b5b60006138ef848285016134a8565b91505092915050565b6000806040838503121561390f5761390e614a1f565b5b600061391d858286016134a8565b925050602061392e85828601613469565b9150509250929050565b60006020828403121561394e5761394d614a1f565b5b600061395c848285016134bd565b91505092915050565b60006020828403121561397b5761397a614a1f565b5b6000613989848285016134d2565b91505092915050565b6000602082840312156139a8576139a7614a1f565b5b60006139b68482850161352a565b91505092915050565b6139c8816146b6565b82525050565b6139d7816146b6565b82525050565b6139e6816146c8565b82525050565b6139f5816146d4565b82525050565b6000613a068261455e565b613a108185614574565b9350613a2081856020860161478d565b613a2981614a24565b840191505092915050565b613a3d8161475a565b82525050565b613a4c8161476c565b82525050565b613a5b8161476c565b82525050565b6000613a6c82614569565b613a768185614585565b9350613a8681856020860161478d565b613a8f81614a24565b840191505092915050565b6000613aa582614569565b613aaf8185614596565b9350613abf81856020860161478d565b80840191505092915050565b6000613ad8602083614585565b9150613ae382614a35565b602082019050919050565b6000613afb600483614585565b9150613b0682614a5e565b602082019050919050565b6000613b1e602b83614585565b9150613b2982614a87565b604082019050919050565b6000613b41603283614585565b9150613b4c82614ad6565b604082019050919050565b6000613b64601c83614585565b9150613b6f82614b25565b602082019050919050565b6000613b87600683614585565b9150613b9282614b4e565b602082019050919050565b6000613baa600583614585565b9150613bb582614b77565b602082019050919050565b6000613bcd602483614585565b9150613bd882614ba0565b604082019050919050565b6000613bf0601983614585565b9150613bfb82614bef565b602082019050919050565b6000613c13600683614585565b9150613c1e82614c18565b602082019050919050565b6000613c36602c83614585565b9150613c4182614c41565b604082019050919050565b6000613c59603883614585565b9150613c6482614c90565b604082019050919050565b6000613c7c602a83614585565b9150613c8782614cdf565b604082019050919050565b6000613c9f602983614585565b9150613caa82614d2e565b604082019050919050565b6000613cc2600783614585565b9150613ccd82614d7d565b602082019050919050565b6000613ce5600483614585565b9150613cf082614da6565b602082019050919050565b6000613d08602083614585565b9150613d1382614dcf565b602082019050919050565b6000613d2b602c83614585565b9150613d3682614df8565b604082019050919050565b6000613d4e602983614585565b9150613d5982614e47565b604082019050919050565b6000613d71602f83614585565b9150613d7c82614e96565b604082019050919050565b6000613d94602183614585565b9150613d9f82614ee5565b604082019050919050565b6000613db7603183614585565b9150613dc282614f34565b604082019050919050565b6000613dda600683614585565b9150613de582614f83565b602082019050919050565b6000613dfd602c83614585565b9150613e0882614fac565b604082019050919050565b6000613e20601783614596565b9150613e2b82614ffb565b601782019050919050565b6000613e43600383614585565b9150613e4e82615024565b602082019050919050565b6000613e66601183614596565b9150613e718261504d565b601182019050919050565b6000613e89602f83614585565b9150613e9482615076565b604082019050919050565b60e082016000820151613eb56000850182613f34565b506020820151613ec86020850182613f34565b506040820151613edb6040850182613f34565b506060820151613eee6060850182613f34565b506080820151613f016080850182613f34565b5060a0820151613f1460a0850182613a34565b5060c0820151613f2760c0850182613a43565b50505050565b8082525050565b613f3d81614750565b82525050565b613f4c81614750565b82525050565b613f5b81614750565b82525050565b6000613f6d8285613a9a565b9150613f798284613a9a565b91508190509392505050565b6000613f9082613e13565b9150613f9c8285613a9a565b9150613fa782613e59565b9150613fb38284613a9a565b91508190509392505050565b6000602082019050613fd460008301846139bf565b92915050565b6000608082019050613fef60008301876139bf565b613ffc60208301866139bf565b6140096040830185613f43565b818103606083015261401b81846139fb565b905095945050505050565b600060208201905061403b60008301846139dd565b92915050565b600060208201905061405660008301846139ec565b92915050565b600060208201905081810360008301526140768184613a61565b905092915050565b6000602082019050818103600083015261409781613acb565b9050919050565b600060208201905081810360008301526140b781613aee565b9050919050565b600060208201905081810360008301526140d781613b11565b9050919050565b600060208201905081810360008301526140f781613b34565b9050919050565b6000602082019050818103600083015261411781613b57565b9050919050565b6000602082019050818103600083015261413781613b7a565b9050919050565b6000602082019050818103600083015261415781613b9d565b9050919050565b6000602082019050818103600083015261417781613bc0565b9050919050565b6000602082019050818103600083015261419781613be3565b9050919050565b600060208201905081810360008301526141b781613c06565b9050919050565b600060208201905081810360008301526141d781613c29565b9050919050565b600060208201905081810360008301526141f781613c4c565b9050919050565b6000602082019050818103600083015261421781613c6f565b9050919050565b6000602082019050818103600083015261423781613c92565b9050919050565b6000602082019050818103600083015261425781613cb5565b9050919050565b6000602082019050818103600083015261427781613cd8565b9050919050565b6000602082019050818103600083015261429781613cfb565b9050919050565b600060208201905081810360008301526142b781613d1e565b9050919050565b600060208201905081810360008301526142d781613d41565b9050919050565b600060208201905081810360008301526142f781613d64565b9050919050565b6000602082019050818103600083015261431781613d87565b9050919050565b6000602082019050818103600083015261433781613daa565b9050919050565b6000602082019050818103600083015261435781613dcd565b9050919050565b6000602082019050818103600083015261437781613df0565b9050919050565b6000602082019050818103600083015261439781613e36565b9050919050565b600060208201905081810360008301526143b781613e7c565b9050919050565b600060e0820190506143d36000830184613e9f565b92915050565b600060a0820190506143ee6000830188613f2d565b6143fb60208301876139ce565b61440860408301866139ce565b6144156060830185613f52565b6144226080830184613f52565b9695505050505050565b60006040820190506144416000830185613f2d565b61444e6020830184613f52565b9392505050565b600060a08201905061446a6000830188613f2d565b6144776020830187613f52565b6144846040830186613f52565b6144916060830185613a52565b61449e6080830184613f52565b9695505050505050565b60006080820190506144bd6000830187613f2d565b6144ca6020830186613f52565b6144d76040830185613f52565b6144e46060830184613f52565b95945050505050565b60006020820190506145026000830184613f43565b92915050565b6000614512614523565b905061451e828261481c565b919050565b6000604051905090565b600067ffffffffffffffff821115614548576145476149e1565b5b61455182614a24565b9050602081019050919050565b600081519050919050565b600081519050919050565b600082825260208201905092915050565b600082825260208201905092915050565b600081905092915050565b60006145ac82614750565b91506145b783614750565b9250827fffffffffffffffffffffffffffffffffffffffffffffffffffffffffffffffff038211156145ec576145eb6148c7565b5b828201905092915050565b600061460282614750565b915061460d83614750565b92508261461d5761461c6148f6565b5b828204905092915050565b600061463382614750565b915061463e83614750565b9250817fffffffffffffffffffffffffffffffffffffffffffffffffffffffffffffffff0483118215151615614677576146766148c7565b5b828202905092915050565b600061468d82614750565b915061469883614750565b9250828210156146ab576146aa6148c7565b5b828203905092915050565b60006146c182614730565b9050919050565b60008115159050919050565b6000819050919050565b60007fffffffff0000000000000000000000000000000000000000000000000000000082169050919050565b6000819050614718826150c5565b919050565b600081905061472b826150d9565b919050565b600073ffffffffffffffffffffffffffffffffffffffff82169050919050565b6000819050919050565b60006147658261470a565b9050919050565b60006147778261471d565b9050919050565b82818337600083830152505050565b60005b838110156147ab578082015181840152602081019050614790565b838111156147ba576000848401525b50505050565b60006147cb82614750565b915060008214156147df576147de6148c7565b5b600182039050919050565b6000600282049050600182168061480257607f821691505b6020821081141561481657614815614954565b5b50919050565b61482582614a24565b810181811067ffffffffffffffff82111715614844576148436149e1565b5b80604052505050565b600061485882614750565b91507fffffffffffffffffffffffffffffffffffffffffffffffffffffffffffffffff82141561488b5761488a6148c7565b5b600182019050919050565b60006148a182614750565b91506148ac83614750565b9250826148bc576148bb6148f6565b5b828206905092915050565b7f4e487b7100000000000000000000000000000000000000000000000000000000600052601160045260246000fd5b7f4e487b7100000000000000000000000000000000000000000000000000000000600052601260045260246000fd5b7f4e487b7100000000000000000000000000000000000000000000000000000000600052602160045260246000fd5b7f4e487b7100000000000000000000000000000000000000000000000000000000600052602260045260246000fd5b7f4e487b7100000000000000000000000000000000000000000000000000000000600052603160045260246000fd5b7f4e487b7100000000000000000000000000000000000000000000000000000000600052603260045260246000fd5b7f4e487b7100000000000000000000000000000000000000000000000000000000600052604160045260246000fd5b600080fd5b600080fd5b600080fd5b600080fd5b6000601f19601f8301169050919050565b7f537472696e67733a20686578206c656e67746820696e73756666696369656e74600082015250565b7f4f574e4200000000000000000000000000000000000000000000000000000000600082015250565b7f455243373231456e756d657261626c653a206f776e657220696e646578206f7560008201527f74206f6620626f756e6473000000000000000000000000000000000000000000602082015250565b7f4552433732313a207472616e7366657220746f206e6f6e20455243373231526560008201527f63656976657220696d706c656d656e7465720000000000000000000000000000602082015250565b7f4552433732313a20746f6b656e20616c7265616479206d696e74656400000000600082015250565b7f4558494c49430000000000000000000000000000000000000000000000000000600082015250565b7f494e56414c000000000000000000000000000000000000000000000000000000600082015250565b7f4552433732313a207472616e7366657220746f20746865207a65726f2061646460008201527f7265737300000000000000000000000000000000000000000000000000000000602082015250565b7f4552433732313a20617070726f766520746f2063616c6c657200000000000000600082015250565b7f4c49434558500000000000000000000000000000000000000000000000000000600082015250565b7f4552433732313a206f70657261746f7220717565727920666f72206e6f6e657860008201527f697374656e7420746f6b656e0000000000000000000000000000000000000000602082015250565b7f4552433732313a20617070726f76652063616c6c6572206973206e6f74206f7760008201527f6e6572206e6f7220617070726f76656420666f7220616c6c0000000000000000602082015250565b7f4552433732313a2062616c616e636520717565727920666f7220746865207a6560008201527f726f206164647265737300000000000000000000000000000000000000000000602082015250565b7f4552433732313a206f776e657220717565727920666f72206e6f6e657869737460008201527f656e7420746f6b656e0000000000000000000000000000000000000000000000602082015250565b7f4e4f54464e444c00000000000000000000000000000000000000000000000000600082015250565b7f4f574e4100000000000000000000000000000000000000000000000000000000600082015250565b7f4552433732313a206d696e7420746f20746865207a65726f2061646472657373600082015250565b7f4552433732313a20617070726f76656420717565727920666f72206e6f6e657860008201527f697374656e7420746f6b656e0000000000000000000000000000000000000000602082015250565b7f4552433732313a207472616e73666572206f6620746f6b656e2074686174206960008201527f73206e6f74206f776e0000000000000000000000000000000000000000000000602082015250565b7f4552433732314d657461646174613a2055524920717565727920666f72206e6f60008201527f6e6578697374656e7420746f6b656e0000000000000000000000000000000000602082015250565b7f4552433732313a20617070726f76616c20746f2063757272656e74206f776e6560008201527f7200000000000000000000000000000000000000000000000000000000000000602082015250565b7f4552433732313a207472616e736665722063616c6c6572206973206e6f74206f60008201527f776e6572206e6f7220617070726f766564000000000000000000000000000000602082015250565b7f554e415554480000000000000000000000000000000000000000000000000000600082015250565b7f455243373231456e756d657261626c653a20676c6f62616c20696e646578206f60008201527f7574206f6620626f756e64730000000000000000000000000000000000000000602082015250565b7f416363657373436f6e74726f6c3a206163636f756e7420000000000000000000600082015250565b7f4143540000000000000000000000000000000000000000000000000000000000600082015250565b7f206973206d697373696e6720726f6c6520000000000000000000000000000000600082015250565b7f416363657373436f6e74726f6c3a2063616e206f6e6c792072656e6f756e636560008201527f20726f6c657320666f722073656c660000000000000000000000000000000000602082015250565b600281106150d6576150d5614925565b5b50565b600281106150ea576150e9614925565b5b50565b6150f6816146b6565b811461510157600080fd5b50565b61510d816146c8565b811461511857600080fd5b50565b615124816146d4565b811461512f57600080fd5b50565b61513b816146de565b811461514657600080fd5b50565b6002811061515657600080fd5b50565b61516281614750565b811461516d57600080fd5b5056fea2646970667358221220725835f9a3f09303bd49af252d610f82783dc8d438e99d14ff1a3566d5ea093d64736f6c63430008070033",
  "immutableReferences": {},
  "source": "// contracts/GameItem.sol\n// SPDX-License-Identifier: MIT\npragma solidity ^0.8.0;\n\nimport \"@openzeppelin/contracts/token/ERC721/extensions/ERC721Enumerable.sol\";\nimport \"@openzeppelin/contracts/utils/Counters.sol\";\nimport \"@openzeppelin/contracts/access/AccessControl.sol\";\n\nimport \"./LicenseTools.sol\";\n\ncontract LicenseToken is ERC721Enumerable, AccessControl {\n    /**\n    CONSTANTS\n    */\n    bytes32 public constant LICENSE_MANAGER_ROLE =\n        keccak256(\"LICENSE_MANAGER_ROLE\");\n\n    using Counters for Counters.Counter;\n\n    using LicenseTools for LicensesData;\n\n    /**\n    EVENTS\n    */\n\n    /**\n     * @notice event for license activation\n     * @dev Explain to a developer any extra details\n     * @param licenseId license id\n     */\n    event LicenseActive(uint256 licenseId);\n\n    /**\n     * @notice event for license update\n     * @dev Explain to a developer any extra details\n     * @param licenseId license id\n     */\n    event LicenseUpdated(uint256 licenseId);\n\n    //Modifiers\n\n    /**\n     * @notice Modifier\n     * @dev Modifier for License Manager only\n     */\n    modifier onlyLicenseManager() {\n        require(hasRole(LICENSE_MANAGER_ROLE, _msgSender()), \"UNAUTH\");\n        _;\n    }\n\n    /**\n     * @notice Modifier\n     * @dev Modifier for only existing token id\n     */\n    modifier onlyExistedToken(uint256 tokenId) {\n        require(_exists(tokenId), \"NOTFNDL\");\n        _;\n    }\n\n    Counters.Counter private _tokenIds;\n\n    LicensesData licensesData;\n\n    // mapping(uint256 => LicenseInfo) registeredLicenses;\n\n    constructor() ERC721(\"License\", \"LVC\") {\n        _setupRole(DEFAULT_ADMIN_ROLE, _msgSender());\n        _setupRole(LICENSE_MANAGER_ROLE, _msgSender());\n    }\n\n    /**\n     * @notice supportsInterface function\n     * @dev Needed for inherit ECR721 token\n     * @param interfaceId nonce\n     * @return supportsInterface execution\n     */\n    function supportsInterface(bytes4 interfaceId)\n        public\n        view\n        virtual\n        override(ERC721Enumerable, AccessControl)\n        returns (bool)\n    {\n        return super.supportsInterface(interfaceId);\n    }\n\n    /**\n     * @notice Create license\n     * @dev Create new ECR721 token\n     * Requirements:\n     * - the caller must have the `MANAGER_ROLE`.\n     * @param licenseOwner owner address\n     * @param servicesIdsPool license servicesIdsPool\n     * @param licenseOwner owner address\n     * @param numberOfMonths number Of Months\n     * @return the hash of the license\n     */\n    function createLicense(\n        address licenseOwner,\n        uint256 servicesIdsPool,\n        LicenseType licenseType,\n        uint256 numberOfMonths\n    ) public onlyLicenseManager returns (uint256) {\n        _tokenIds.increment();\n\n        uint256 newLicenseId = _tokenIds.current();\n        _safeMint(licenseOwner, newLicenseId);\n        require(\n            licensesData.insert(\n                newLicenseId,\n                servicesIdsPool,\n                licenseType,\n                numberOfMonths\n            ),\n            \"EXILIC\"\n        );\n        return newLicenseId;\n    }\n\n    /**\n     * @notice Reset license\n     * @dev Reset ECR721 token\n     * Requirements:\n     * - the caller must have the `MANAGER_ROLE`.\n     * @param licenseId licenseId\n     * @param servicesIdsPool license servicesIdsPool\n     * @param licenseType owner address\n     * @param numberOfMonths number Of Months\n     */\n    function resetLicense(\n        address licenseOwner,\n        uint256 licenseId,\n        uint256 servicesIdsPool,\n        LicenseType licenseType,\n        uint256 numberOfMonths\n    ) public onlyLicenseManager onlyExistedToken(licenseId) {\n        require(ownerOf(licenseId) == licenseOwner, \"OWNB\");\n        licensesData.insert(\n            licenseId,\n            servicesIdsPool,\n            licenseType,\n            numberOfMonths\n        );\n        emit LicenseUpdated(licenseId);\n    }\n\n    /**\n     * @notice Update license\n     * @dev Update existing ECR721 token\n     * Requirements:\n     * - the caller must have the `MANAGER_ROLE`.\n     * - the token Id must exist.\n     * @param licenseId license Id\n     * @param servicesIdsPool license servicesIdsPool\n     * @param addedMonths number Of Months\n     */\n    function updateLicense(\n        address licenseOwner,\n        uint256 licenseId,\n        uint256 servicesIdsPool,\n        uint256 addedMonths\n    ) public onlyLicenseManager onlyExistedToken(licenseId) {\n        require(ownerOf(licenseId) == licenseOwner, \"OWNB\");\n        require(\n            licensesData.update(licenseId, servicesIdsPool, addedMonths),\n            \"LICEXP\"\n        );\n        emit LicenseUpdated(licenseId);\n    }\n\n    /**\n     * @notice burn license owner can burn licence\n     * @dev Explain to a developer any extra details\n     * @param licenseId license id\n     */\n    function burn(uint256 licenseId) public onlyExistedToken(licenseId) {\n        require(ownerOf(licenseId) == _msgSender(), \"OWNB\");\n        _burn(licenseId);\n        delete licensesData.registeredLicenses[licenseId];\n    }\n\n    /**\n     * @notice Activate license\n     * @dev Explain to a developer any extra details\n     * @param licenseId license id\n     */\n    function activate(uint256 licenseId) public onlyExistedToken(licenseId) {\n        require(ownerOf(licenseId) == _msgSender(), \"OWNA\");\n        require(licensesData.activate(licenseId), \"ACT\");\n        emit LicenseActive(licenseId);\n    }\n\n    /**\n     * @notice check if license is activated\n     * @dev Explain to a developer any extra details\n     * @param licenseId license id\n     * @return true if license is active and not expired\n     */\n    function isLicenseActive(uint256 licenseId)\n        public\n        view\n        onlyExistedToken(licenseId)\n        returns (bool)\n    {\n        return licensesData.isLicenseActive(licenseId);\n    }\n\n    /**\n     * @notice get license\n     * @dev Explain to a developer any extra details\n     * @param licenseId license id\n     * @return LicenseInfo struct\n     */\n    function getLicense(uint256 licenseId)\n        public\n        view\n        onlyExistedToken(licenseId)\n        returns (LicenseInfo memory)\n    {\n        return licensesData.registeredLicenses[licenseId];\n    }\n\n    /**\n     * @notice check if user can user a service form the license id\n     * @dev Explain to a developer any extra details\n     * @param user user address\n     * @param licenseId license id\n     * @param serviceId service id to check\n     * @return LicenseInfo struct\n     */\n    function isUserAllowToUseService(\n        address user,\n        uint256 licenseId,\n        uint256 serviceId\n    ) public view onlyExistedToken(licenseId) returns (bool) {\n        require(licensesData.isLicenseActive(licenseId), \"INVAL\");\n        return\n            licensesData.isUserAllowToUseService(\n                user,\n                ownerOf(licenseId),\n                licenseId,\n                serviceId\n            );\n    }\n}\n",
  "sourcePath": "/home/israel/Documents/cashtween/code/Cryptween-smart-contract-2/contracts/LicenseToken.sol",
  "compiler": {
    "name": "solc",
    "version": "0.8.7+commit.e28d00a7.Emscripten.clang"
  },
  "schemaVersion": "3.4.3",
  "updatedAt": "2022-05-16T21:48:29.360Z",
  "networkType": "ethereum",
  "devdoc": {
    "events": {
      "LicenseActive(uint256)": {
        "details": "Explain to a developer any extra details",
        "params": {
          "licenseId": "license id"
        }
      },
      "LicenseUpdated(uint256)": {
        "details": "Explain to a developer any extra details",
        "params": {
          "licenseId": "license id"
        }
      }
    },
    "kind": "dev",
    "methods": {
      "activate(uint256)": {
        "details": "Explain to a developer any extra details",
        "params": {
          "licenseId": "license id"
        }
      },
      "approve(address,uint256)": {
        "details": "See {IERC721-approve}."
      },
      "balanceOf(address)": {
        "details": "See {IERC721-balanceOf}."
      },
      "burn(uint256)": {
        "details": "Explain to a developer any extra details",
        "params": {
          "licenseId": "license id"
        }
      },
      "createLicense(address,uint256,uint8,uint256)": {
        "details": "Create new ECR721 token Requirements: - the caller must have the `MANAGER_ROLE`.",
        "params": {
          "licenseOwner": "owner address",
          "numberOfMonths": "number Of Months",
          "servicesIdsPool": "license servicesIdsPool"
        },
        "returns": {
          "_0": "the hash of the license"
        }
      },
      "getApproved(uint256)": {
        "details": "See {IERC721-getApproved}."
      },
      "getLicense(uint256)": {
        "details": "Explain to a developer any extra details",
        "params": {
          "licenseId": "license id"
        },
        "returns": {
          "_0": "LicenseInfo struct"
        }
      },
      "getRoleAdmin(bytes32)": {
        "details": "Returns the admin role that controls `role`. See {grantRole} and {revokeRole}. To change a role's admin, use {_setRoleAdmin}."
      },
      "grantRole(bytes32,address)": {
        "details": "Grants `role` to `account`. If `account` had not been already granted `role`, emits a {RoleGranted} event. Requirements: - the caller must have ``role``'s admin role."
      },
      "hasRole(bytes32,address)": {
        "details": "Returns `true` if `account` has been granted `role`."
      },
      "isApprovedForAll(address,address)": {
        "details": "See {IERC721-isApprovedForAll}."
      },
      "isLicenseActive(uint256)": {
        "details": "Explain to a developer any extra details",
        "params": {
          "licenseId": "license id"
        },
        "returns": {
          "_0": "true if license is active and not expired"
        }
      },
      "isUserAllowToUseService(address,uint256,uint256)": {
        "details": "Explain to a developer any extra details",
        "params": {
          "licenseId": "license id",
          "serviceId": "service id to check",
          "user": "user address"
        },
        "returns": {
          "_0": "LicenseInfo struct"
        }
      },
      "name()": {
        "details": "See {IERC721Metadata-name}."
      },
      "ownerOf(uint256)": {
        "details": "See {IERC721-ownerOf}."
      },
      "renounceRole(bytes32,address)": {
        "details": "Revokes `role` from the calling account. Roles are often managed via {grantRole} and {revokeRole}: this function's purpose is to provide a mechanism for accounts to lose their privileges if they are compromised (such as when a trusted device is misplaced). If the calling account had been granted `role`, emits a {RoleRevoked} event. Requirements: - the caller must be `account`."
      },
      "resetLicense(address,uint256,uint256,uint8,uint256)": {
        "details": "Reset ECR721 token Requirements: - the caller must have the `MANAGER_ROLE`.",
        "params": {
          "licenseId": "licenseId",
          "licenseType": "owner address",
          "numberOfMonths": "number Of Months",
          "servicesIdsPool": "license servicesIdsPool"
        }
      },
      "revokeRole(bytes32,address)": {
        "details": "Revokes `role` from `account`. If `account` had been granted `role`, emits a {RoleRevoked} event. Requirements: - the caller must have ``role``'s admin role."
      },
      "safeTransferFrom(address,address,uint256)": {
        "details": "See {IERC721-safeTransferFrom}."
      },
      "safeTransferFrom(address,address,uint256,bytes)": {
        "details": "See {IERC721-safeTransferFrom}."
      },
      "setApprovalForAll(address,bool)": {
        "details": "See {IERC721-setApprovalForAll}."
      },
      "supportsInterface(bytes4)": {
        "details": "Needed for inherit ECR721 token",
        "params": {
          "interfaceId": "nonce"
        },
        "returns": {
          "_0": "supportsInterface execution"
        }
      },
      "symbol()": {
        "details": "See {IERC721Metadata-symbol}."
      },
      "tokenByIndex(uint256)": {
        "details": "See {IERC721Enumerable-tokenByIndex}."
      },
      "tokenOfOwnerByIndex(address,uint256)": {
        "details": "See {IERC721Enumerable-tokenOfOwnerByIndex}."
      },
      "tokenURI(uint256)": {
        "details": "See {IERC721Metadata-tokenURI}."
      },
      "totalSupply()": {
        "details": "See {IERC721Enumerable-totalSupply}."
      },
      "transferFrom(address,address,uint256)": {
        "details": "See {IERC721-transferFrom}."
      },
      "updateLicense(address,uint256,uint256,uint256)": {
        "details": "Update existing ECR721 token Requirements: - the caller must have the `MANAGER_ROLE`. - the token Id must exist.",
        "params": {
          "addedMonths": "number Of Months",
          "licenseId": "license Id",
          "servicesIdsPool": "license servicesIdsPool"
        }
      }
    },
    "version": 1
  },
  "userdoc": {
    "events": {
      "LicenseActive(uint256)": {
        "notice": "event for license activation"
      },
      "LicenseUpdated(uint256)": {
        "notice": "event for license update"
      }
    },
    "kind": "user",
    "methods": {
      "LICENSE_MANAGER_ROLE()": {
        "notice": "CONSTANTS"
      },
      "activate(uint256)": {
        "notice": "Activate license"
      },
      "burn(uint256)": {
        "notice": "burn license owner can burn licence"
      },
      "createLicense(address,uint256,uint8,uint256)": {
        "notice": "Create license"
      },
      "getLicense(uint256)": {
        "notice": "get license"
      },
      "isLicenseActive(uint256)": {
        "notice": "check if license is activated"
      },
      "isUserAllowToUseService(address,uint256,uint256)": {
        "notice": "check if user can user a service form the license id"
      },
      "resetLicense(address,uint256,uint256,uint8,uint256)": {
        "notice": "Reset license"
      },
      "supportsInterface(bytes4)": {
        "notice": "supportsInterface function"
      },
      "updateLicense(address,uint256,uint256,uint256)": {
        "notice": "Update license"
      }
    },
    "version": 1
  }
}