{
  "contractName": "ManagementCenter",
  "abi": [
    {
      "inputs": [
        {
          "internalType": "address",
          "name": "LicenseLVCAddress",
          "type": "address"
        },
        {
          "internalType": "address",
          "name": "ServiceManagerAddress",
          "type": "address"
        }
      ],
      "stateMutability": "nonpayable",
      "type": "constructor"
    },
    {
      "anonymous": false,
      "inputs": [
        {
          "indexed": false,
          "internalType": "address",
          "name": "buyer",
          "type": "address"
        },
        {
          "indexed": false,
          "internalType": "uint256",
          "name": "amountOfETH",
          "type": "uint256"
        },
        {
          "indexed": false,
          "internalType": "uint256",
          "name": "amountOfTokens",
          "type": "uint256"
        }
      ],
      "name": "BuyTokens",
      "type": "event"
    },
    {
      "anonymous": false,
      "inputs": [
        {
          "indexed": false,
          "internalType": "uint256",
          "name": "value",
          "type": "uint256"
        }
      ],
      "name": "ChangeEtherBalance",
      "type": "event"
    },
    {
      "anonymous": false,
      "inputs": [
        {
          "indexed": false,
          "internalType": "uint256",
          "name": "value",
          "type": "uint256"
        }
      ],
      "name": "ManagerTransactionFeedValueChanged",
      "type": "event"
    },
    {
      "anonymous": false,
      "inputs": [
        {
          "indexed": false,
          "internalType": "uint256",
          "name": "licenseId",
          "type": "uint256"
        }
      ],
      "name": "NewPrivateLicenseEmitted",
      "type": "event"
    },
    {
      "anonymous": false,
      "inputs": [
        {
          "indexed": true,
          "internalType": "address",
          "name": "previousOwner",
          "type": "address"
        },
        {
          "indexed": true,
          "internalType": "address",
          "name": "newOwner",
          "type": "address"
        }
      ],
      "name": "OwnershipTransferred",
      "type": "event"
    },
    {
      "anonymous": false,
      "inputs": [
        {
          "indexed": false,
          "internalType": "uint256",
          "name": "licenseId",
          "type": "uint256"
        }
      ],
      "name": "PrivateLicenseUpdated",
      "type": "event"
    },
    {
      "anonymous": false,
      "inputs": [
        {
          "indexed": false,
          "internalType": "string",
          "name": "data",
          "type": "string"
        },
        {
          "indexed": false,
          "internalType": "uint256",
          "name": "updateTime",
          "type": "uint256"
        }
      ],
      "name": "ReadUpdatedData",
      "type": "event"
    },
    {
      "anonymous": false,
      "inputs": [
        {
          "indexed": false,
          "internalType": "address",
          "name": "buyer",
          "type": "address"
        },
        {
          "indexed": false,
          "internalType": "uint256",
          "name": "amountOfETH",
          "type": "uint256"
        }
      ],
      "name": "TokensMinted",
      "type": "event"
    },
    {
      "anonymous": false,
      "inputs": [
        {
          "indexed": false,
          "internalType": "address",
          "name": "contractAddress",
          "type": "address"
        }
      ],
      "name": "UsersContractCreated",
      "type": "event"
    },
    {
      "inputs": [],
      "name": "owner",
      "outputs": [
        {
          "internalType": "address",
          "name": "",
          "type": "address"
        }
      ],
      "stateMutability": "view",
      "type": "function",
      "constant": true
    },
    {
      "inputs": [],
      "name": "renounceOwnership",
      "outputs": [],
      "stateMutability": "nonpayable",
      "type": "function"
    },
    {
      "inputs": [
        {
          "internalType": "address",
          "name": "newOwner",
          "type": "address"
        }
      ],
      "name": "transferOwnership",
      "outputs": [],
      "stateMutability": "nonpayable",
      "type": "function"
    },
    {
      "inputs": [],
      "name": "updateDataCost",
      "outputs": [
        {
          "internalType": "uint256",
          "name": "",
          "type": "uint256"
        }
      ],
      "stateMutability": "view",
      "type": "function",
      "constant": true
    },
    {
      "inputs": [],
      "name": "getLicenseTokenAddress",
      "outputs": [
        {
          "internalType": "address",
          "name": "",
          "type": "address"
        }
      ],
      "stateMutability": "view",
      "type": "function",
      "constant": true
    },
    {
      "inputs": [],
      "name": "getServiceManagerAddress",
      "outputs": [
        {
          "internalType": "address",
          "name": "",
          "type": "address"
        }
      ],
      "stateMutability": "view",
      "type": "function",
      "constant": true
    },
    {
      "inputs": [
        {
          "internalType": "uint256",
          "name": "nonce",
          "type": "uint256"
        },
        {
          "internalType": "bytes",
          "name": "signature",
          "type": "bytes"
        }
      ],
      "name": "register",
      "outputs": [
        {
          "internalType": "address",
          "name": "",
          "type": "address"
        }
      ],
      "stateMutability": "nonpayable",
      "type": "function"
    },
    {
      "inputs": [
        {
          "internalType": "address",
          "name": "userAddress",
          "type": "address"
        }
      ],
      "name": "getUserContractAddress",
      "outputs": [
        {
          "internalType": "address",
          "name": "",
          "type": "address"
        }
      ],
      "stateMutability": "view",
      "type": "function",
      "constant": true
    },
    {
      "inputs": [],
      "name": "withdraw",
      "outputs": [],
      "stateMutability": "nonpayable",
      "type": "function"
    },
    {
      "inputs": [
        {
          "internalType": "uint256",
          "name": "numberOfMonths",
          "type": "uint256"
        },
        {
          "internalType": "uint256[]",
          "name": "serviceIds",
          "type": "uint256[]"
        }
      ],
      "name": "buyLicence",
      "outputs": [],
      "stateMutability": "payable",
      "type": "function",
      "payable": true
    },
    {
      "inputs": [
        {
          "internalType": "uint256",
          "name": "licenseId",
          "type": "uint256"
        },
        {
          "internalType": "uint256",
          "name": "numberOfMonths",
          "type": "uint256"
        },
        {
          "internalType": "uint256[]",
          "name": "serviceIds",
          "type": "uint256[]"
        }
      ],
      "name": "resetLicence",
      "outputs": [],
      "stateMutability": "payable",
      "type": "function",
      "payable": true
    },
    {
      "inputs": [
        {
          "internalType": "uint256",
          "name": "licenseId",
          "type": "uint256"
        },
        {
          "internalType": "uint256",
          "name": "extraNumberOfMonths",
          "type": "uint256"
        },
        {
          "internalType": "uint256[]",
          "name": "extraServiceIds",
          "type": "uint256[]"
        }
      ],
      "name": "updateLicence",
      "outputs": [],
      "stateMutability": "payable",
      "type": "function",
      "payable": true
    }
  ],
  "bytecode": "0x60a06040523480156200001157600080fd5b50604051620069a3380380620069a3833981810160405281019062000037919062000234565b620000576200004b6200014360201b60201c565b6200014b60201b60201c565b60405162000065906200020f565b604051809103906000f08015801562000082573d6000803e3d6000fd5b5073ffffffffffffffffffffffffffffffffffffffff1660808173ffffffffffffffffffffffffffffffffffffffff1660601b8152505081600260006101000a81548173ffffffffffffffffffffffffffffffffffffffff021916908373ffffffffffffffffffffffffffffffffffffffff16021790555080600360006101000a81548173ffffffffffffffffffffffffffffffffffffffff021916908373ffffffffffffffffffffffffffffffffffffffff1602179055505050620002ce565b600033905090565b60008060009054906101000a900473ffffffffffffffffffffffffffffffffffffffff169050816000806101000a81548173ffffffffffffffffffffffffffffffffffffffff021916908373ffffffffffffffffffffffffffffffffffffffff1602179055508173ffffffffffffffffffffffffffffffffffffffff168173ffffffffffffffffffffffffffffffffffffffff167f8be0079c531659141344cd1fd0a4f28419497f9722a3daafe3b4186f6b6457e060405160405180910390a35050565b6138de80620030c583390190565b6000815190506200022e81620002b4565b92915050565b600080604083850312156200024e576200024d620002af565b5b60006200025e858286016200021d565b925050602062000271858286016200021d565b9150509250929050565b600062000288826200028f565b9050919050565b600073ffffffffffffffffffffffffffffffffffffffff82169050919050565b600080fd5b620002bf816200027b565b8114620002cb57600080fd5b50565b60805160601c612dd8620002ed600039600061068c0152612dd86000f3fe6080604052600436106100a75760003560e01c8063a6e497b611610064578063a6e497b614610189578063b738fa26146101c6578063be340cbb146101f1578063c60598a41461020d578063d106402714610229578063f2fde38b14610254576100a7565b80632de44afe146100ac5780633ccfd60b146100d7578063715018a6146100ee578063765718d7146101055780637ec6f972146101425780638da5cb5b1461015e575b600080fd5b3480156100b857600080fd5b506100c161027d565b6040516100ce919061267a565b60405180910390f35b3480156100e357600080fd5b506100ec610283565b005b3480156100fa57600080fd5b506101036103cf565b005b34801561011157600080fd5b5061012c60048036038101906101279190611e56565b610457565b60405161013991906122c9565b60405180910390f35b61015c60048036038101906101579190611eb2565b6108a3565b005b34801561016a57600080fd5b50610173610cba565b60405161018091906122c9565b60405180910390f35b34801561019557600080fd5b506101b060048036038101906101ab9190611d46565b610ce3565b6040516101bd91906122c9565b60405180910390f35b3480156101d257600080fd5b506101db610d4c565b6040516101e891906122c9565b60405180910390f35b61020b60048036038101906102069190611eb2565b610d76565b005b61022760048036038101906102229190611dfa565b61140a565b005b34801561023557600080fd5b5061023e611843565b60405161024b91906122c9565b60405180910390f35b34801561026057600080fd5b5061027b60048036038101906102769190611d46565b61186d565b005b61271081565b61028b611965565b73ffffffffffffffffffffffffffffffffffffffff166102a9610cba565b73ffffffffffffffffffffffffffffffffffffffff16146102ff576040517f08c379a00000000000000000000000000000000000000000000000000000000081526004016102f69061261a565b60405180910390fd5b600047905060008111610347576040517f08c379a000000000000000000000000000000000000000000000000000000000815260040161033e906125fa565b60405180910390fd5b61034f610cba565b73ffffffffffffffffffffffffffffffffffffffff166108fc829081150290604051600060405180830381858888f19350505050158015610394573d6000803e3d6000fd5b507fc18de0b20be63ae63af9d6976f6922250e9c8326892ac350f3be1f7b6e8654f1816040516103c4919061267a565b60405180910390a150565b6103d7611965565b73ffffffffffffffffffffffffffffffffffffffff166103f5610cba565b73ffffffffffffffffffffffffffffffffffffffff161461044b576040517f08c379a00000000000000000000000000000000000000000000000000000000081526004016104429061261a565b60405180910390fd5b610455600061196d565b565b6000610461610cba565b73ffffffffffffffffffffffffffffffffffffffff1661047f611965565b73ffffffffffffffffffffffffffffffffffffffff1614156104d6576040517f08c379a00000000000000000000000000000000000000000000000000000000081526004016104cd9061265a565b60405180910390fd5b600073ffffffffffffffffffffffffffffffffffffffff16600160006104fa611965565b73ffffffffffffffffffffffffffffffffffffffff1673ffffffffffffffffffffffffffffffffffffffff16815260200190815260200160002060009054906101000a900473ffffffffffffffffffffffffffffffffffffffff1673ffffffffffffffffffffffffffffffffffffffff16146105ab576040517f08c379a00000000000000000000000000000000000000000000000000000000081526004016105a2906125da565b60405180910390fd5b6001151573__VerifySignature_______________________633017533f6105d1611965565b3087876040518563ffffffff1660e01b81526004016105f39493929190612337565b60206040518083038186803b15801561060b57600080fd5b505af415801561061f573d6000803e3d6000fd5b505050506040513d601f19601f820116820180604052508101906106439190611d73565b151514610685576040517f08c379a000000000000000000000000000000000000000000000000000000000815260040161067c906124da565b60405180910390fd5b60006106b07f0000000000000000000000000000000000000000000000000000000000000000611a31565b90508073ffffffffffffffffffffffffffffffffffffffff16631459457a306106d7610cba565b6106df611965565b600360009054906101000a900473ffffffffffffffffffffffffffffffffffffffff16600260009054906101000a900473ffffffffffffffffffffffffffffffffffffffff166040518663ffffffff1660e01b81526004016107459594939291906122e4565b600060405180830381600087803b15801561075f57600080fd5b505af1158015610773573d6000803e3d6000fd5b505050508060016000610784611965565b73ffffffffffffffffffffffffffffffffffffffff1673ffffffffffffffffffffffffffffffffffffffff16815260200190815260200160002060006101000a81548173ffffffffffffffffffffffffffffffffffffffff021916908373ffffffffffffffffffffffffffffffffffffffff1602179055507f54196f28fffc9d8a5c4442b3e5e33c92dd63d3213a2805229cad9f4f4ad85a1060016000610829611965565b73ffffffffffffffffffffffffffffffffffffffff1673ffffffffffffffffffffffffffffffffffffffff16815260200190815260200160002060009054906101000a900473ffffffffffffffffffffffffffffffffffffffff1660405161089191906122c9565b60405180910390a18091505092915050565b600073ffffffffffffffffffffffffffffffffffffffff16600160006108c7611965565b73ffffffffffffffffffffffffffffffffffffffff1673ffffffffffffffffffffffffffffffffffffffff16815260200190815260200160002060009054906101000a900473ffffffffffffffffffffffffffffffffffffffff1673ffffffffffffffffffffffffffffffffffffffff161415610979576040517f08c379a00000000000000000000000000000000000000000000000000000000081526004016109709061257a565b60405180910390fd5b60008211801561098a575060008151115b6109c9576040517f08c379a00000000000000000000000000000000000000000000000000000000081526004016109c09061263a565b60405180910390fd5b60003411610a0c576040517f08c379a0000000000000000000000000000000000000000000000000000000008152600401610a03906125ba565b60405180910390fd5b6000600360009054906101000a900473ffffffffffffffffffffffffffffffffffffffff1673ffffffffffffffffffffffffffffffffffffffff16634141a1276000846040518363ffffffff1660e01b8152600401610a6c92919061246c565b60206040518083038186803b158015610a8457600080fd5b505afa158015610a98573d6000803e3d6000fd5b505050506040513d601f19601f82011682018060405250810190610abc9190611dcd565b83610ac79190612883565b905060008111610b0c576040517f08c379a0000000000000000000000000000000000000000000000000000000008152600401610b039061263a565b60405180910390fd5b600073__LicenseTools__________________________6395a5148260006001866040518463ffffffff1660e01b8152600401610b4b9392919061249c565b60206040518083038186803b158015610b6357600080fd5b505af4158015610b77573d6000803e3d6000fd5b505050506040513d601f19601f82011682018060405250810190610b9b9190611dcd565b9050813414610bdf576040517f08c379a0000000000000000000000000000000000000000000000000000000008152600401610bd6906124fa565b60405180910390fd5b600260009054906101000a900473ffffffffffffffffffffffffffffffffffffffff1673ffffffffffffffffffffffffffffffffffffffff166320d966ca610c25611965565b87846001896040518663ffffffff1660e01b8152600401610c4a9594939291906123d4565b600060405180830381600087803b158015610c6457600080fd5b505af1158015610c78573d6000803e3d6000fd5b505050507faba64501a2b303b80e2e844af96c89be94891208d1f683030c532fa613db883a85604051610cab919061267a565b60405180910390a15050505050565b60008060009054906101000a900473ffffffffffffffffffffffffffffffffffffffff16905090565b6000600160008373ffffffffffffffffffffffffffffffffffffffff1673ffffffffffffffffffffffffffffffffffffffff16815260200190815260200160002060009054906101000a900473ffffffffffffffffffffffffffffffffffffffff169050919050565b6000600260009054906101000a900473ffffffffffffffffffffffffffffffffffffffff16905090565b600073ffffffffffffffffffffffffffffffffffffffff1660016000610d9a611965565b73ffffffffffffffffffffffffffffffffffffffff1673ffffffffffffffffffffffffffffffffffffffff16815260200190815260200160002060009054906101000a900473ffffffffffffffffffffffffffffffffffffffff1673ffffffffffffffffffffffffffffffffffffffff161415610e4c576040517f08c379a0000000000000000000000000000000000000000000000000000000008152600401610e439061257a565b60405180910390fd5b6000821180610e5c575060008151115b610e9b576040517f08c379a0000000000000000000000000000000000000000000000000000000008152600401610e929061263a565b60405180910390fd5b6000600260009054906101000a900473ffffffffffffffffffffffffffffffffffffffff1673ffffffffffffffffffffffffffffffffffffffff1663b2dd1212856040518263ffffffff1660e01b8152600401610ef8919061267a565b60e06040518083038186803b158015610f1057600080fd5b505afa158015610f24573d6000803e3d6000fd5b505050506040513d601f19601f82011682018060405250810190610f489190611da0565b905060006001811115610f5e57610f5d612a61565b5b8160a001516001811115610f7557610f74612a61565b5b1480610fb75750428160200151118015610fb65750600180811115610f9d57610f9c612a61565b5b8160a001516001811115610fb457610fb3612a61565b5b145b5b610ff6576040517f08c379a0000000000000000000000000000000000000000000000000000000008152600401610fed9061255a565b60405180910390fd5b6000600360009054906101000a900473ffffffffffffffffffffffffffffffffffffffff1673ffffffffffffffffffffffffffffffffffffffff16634141a1278360600151856040518363ffffffff1660e01b8152600401611059929190612695565b60206040518083038186803b15801561107157600080fd5b505afa158015611085573d6000803e3d6000fd5b505050506040513d601f19601f820116820180604052508101906110a99190611dcd565b905060006001808111156110c0576110bf612a61565b5b8360a0015160018111156110d7576110d6612a61565b5b146110f1578260800151826110ec9190612883565b61111b565b62278d0042846020015161110591906128dd565b836111109190612883565b61111a9190612852565b5b9050600073__LicenseTools__________________________6395a5148285606001516001886040518463ffffffff1660e01b815260040161115f939291906126c5565b60206040518083038186803b15801561117757600080fd5b505af415801561118b573d6000803e3d6000fd5b505050506040513d601f19601f820116820180604052508101906111af9190611dcd565b9050600086600360009054906101000a900473ffffffffffffffffffffffffffffffffffffffff1673ffffffffffffffffffffffffffffffffffffffff166359fdf051846040518263ffffffff1660e01b815260040161120f919061267a565b60206040518083038186803b15801561122757600080fd5b505afa15801561123b573d6000803e3d6000fd5b505050506040513d601f19601f8201168201806040525081019061125f9190611dcd565b6112699190612883565b90506000818461127991906127fc565b9050600081111561132e57803410156112c7576040517f08c379a00000000000000000000000000000000000000000000000000000000081526004016112be9061253a565b60405180910390fd5b600160643483346112d891906128dd565b6112e29190612852565b6112ec9190612883565b111561132d576040517f08c379a0000000000000000000000000000000000000000000000000000000008152600401611324906125ba565b60405180910390fd5b5b600260009054906101000a900473ffffffffffffffffffffffffffffffffffffffff1673ffffffffffffffffffffffffffffffffffffffff1663b99a6085611374611965565b8b868c6040518563ffffffff1660e01b81526004016113969493929190612427565b600060405180830381600087803b1580156113b057600080fd5b505af11580156113c4573d6000803e3d6000fd5b505050507faba64501a2b303b80e2e844af96c89be94891208d1f683030c532fa613db883a896040516113f7919061267a565b60405180910390a1505050505050505050565b600073ffffffffffffffffffffffffffffffffffffffff166001600061142e611965565b73ffffffffffffffffffffffffffffffffffffffff1673ffffffffffffffffffffffffffffffffffffffff16815260200190815260200160002060009054906101000a900473ffffffffffffffffffffffffffffffffffffffff1673ffffffffffffffffffffffffffffffffffffffff1614156114e0576040517f08c379a00000000000000000000000000000000000000000000000000000000081526004016114d79061257a565b60405180910390fd5b6000821180156114f1575060008151115b611530576040517f08c379a00000000000000000000000000000000000000000000000000000000081526004016115279061263a565b60405180910390fd5b60003411611573576040517f08c379a000000000000000000000000000000000000000000000000000000000815260040161156a906125ba565b60405180910390fd5b6000600360009054906101000a900473ffffffffffffffffffffffffffffffffffffffff1673ffffffffffffffffffffffffffffffffffffffff16634141a1276000846040518363ffffffff1660e01b81526004016115d392919061246c565b60206040518083038186803b1580156115eb57600080fd5b505afa1580156115ff573d6000803e3d6000fd5b505050506040513d601f19601f820116820180604052508101906116239190611dcd565b8361162e9190612883565b905060008111611673576040517f08c379a000000000000000000000000000000000000000000000000000000000815260040161166a9061263a565b60405180910390fd5b600073__LicenseTools__________________________6395a5148260006001866040518463ffffffff1660e01b81526004016116b29392919061249c565b60206040518083038186803b1580156116ca57600080fd5b505af41580156116de573d6000803e3d6000fd5b505050506040513d601f19601f820116820180604052508101906117029190611dcd565b9050813414611746576040517f08c379a000000000000000000000000000000000000000000000000000000000815260040161173d906124fa565b60405180910390fd5b6000600260009054906101000a900473ffffffffffffffffffffffffffffffffffffffff1673ffffffffffffffffffffffffffffffffffffffff1663a35e3ba961178e611965565b846001896040518563ffffffff1660e01b81526004016117b1949392919061238f565b602060405180830381600087803b1580156117cb57600080fd5b505af11580156117df573d6000803e3d6000fd5b505050506040513d601f19601f820116820180604052508101906118039190611dcd565b90507f3f17690aaa8e64a55f09b9045321ebce04e0ebe24999ca21ba145448422689b081604051611834919061267a565b60405180910390a15050505050565b6000600360009054906101000a900473ffffffffffffffffffffffffffffffffffffffff16905090565b611875611965565b73ffffffffffffffffffffffffffffffffffffffff16611893610cba565b73ffffffffffffffffffffffffffffffffffffffff16146118e9576040517f08c379a00000000000000000000000000000000000000000000000000000000081526004016118e09061261a565b60405180910390fd5b600073ffffffffffffffffffffffffffffffffffffffff168173ffffffffffffffffffffffffffffffffffffffff161415611959576040517f08c379a00000000000000000000000000000000000000000000000000000000081526004016119509061251a565b60405180910390fd5b6119628161196d565b50565b600033905090565b60008060009054906101000a900473ffffffffffffffffffffffffffffffffffffffff169050816000806101000a81548173ffffffffffffffffffffffffffffffffffffffff021916908373ffffffffffffffffffffffffffffffffffffffff1602179055508173ffffffffffffffffffffffffffffffffffffffff168173ffffffffffffffffffffffffffffffffffffffff167f8be0079c531659141344cd1fd0a4f28419497f9722a3daafe3b4186f6b6457e060405160405180910390a35050565b60006040517f3d602d80600a3d3981f3363d3d373d3d3d363d7300000000000000000000000081528260601b60148201527f5af43d82803e903d91602b57fd5bf3000000000000000000000000000000000060288201526037816000f0915050600073ffffffffffffffffffffffffffffffffffffffff168173ffffffffffffffffffffffffffffffffffffffff161415611b01576040517f08c379a0000000000000000000000000000000000000000000000000000000008152600401611af89061259a565b60405180910390fd5b919050565b6000611b19611b1484612728565b612703565b90508083825260208201905082856020860282011115611b3c57611b3b612ac9565b5b60005b85811015611b6c5781611b528882611d1c565b845260208401935060208301925050600181019050611b3f565b5050509392505050565b6000611b89611b8484612754565b612703565b905082815260208101848484011115611ba557611ba4612ace565b5b611bb0848285612990565b509392505050565b600081359050611bc781612d3d565b92915050565b600082601f830112611be257611be1612abf565b5b8135611bf2848260208601611b06565b91505092915050565b600081519050611c0a81612d54565b92915050565b600082601f830112611c2557611c24612abf565b5b8135611c35848260208601611b76565b91505092915050565b600081519050611c4d81612d6b565b92915050565b600081519050611c6281612d7b565b92915050565b600060e08284031215611c7e57611c7d612ac4565b5b611c8860e0612703565b90506000611c9884828501611d31565b6000830152506020611cac84828501611d31565b6020830152506040611cc084828501611d31565b6040830152506060611cd484828501611d31565b6060830152506080611ce884828501611d31565b60808301525060a0611cfc84828501611c3e565b60a08301525060c0611d1084828501611c53565b60c08301525092915050565b600081359050611d2b81612d8b565b92915050565b600081519050611d4081612d8b565b92915050565b600060208284031215611d5c57611d5b612ad8565b5b6000611d6a84828501611bb8565b91505092915050565b600060208284031215611d8957611d88612ad8565b5b6000611d9784828501611bfb565b91505092915050565b600060e08284031215611db657611db5612ad8565b5b6000611dc484828501611c68565b91505092915050565b600060208284031215611de357611de2612ad8565b5b6000611df184828501611d31565b91505092915050565b60008060408385031215611e1157611e10612ad8565b5b6000611e1f85828601611d1c565b925050602083013567ffffffffffffffff811115611e4057611e3f612ad3565b5b611e4c85828601611bcd565b9150509250929050565b60008060408385031215611e6d57611e6c612ad8565b5b6000611e7b85828601611d1c565b925050602083013567ffffffffffffffff811115611e9c57611e9b612ad3565b5b611ea885828601611c10565b9150509250929050565b600080600060608486031215611ecb57611eca612ad8565b5b6000611ed986828701611d1c565b9350506020611eea86828701611d1c565b925050604084013567ffffffffffffffff811115611f0b57611f0a612ad3565b5b611f1786828701611bcd565b9150509250925092565b6000611f2d838361228d565b60208301905092915050565b6000611f4583836122ba565b60208301905092915050565b611f5a81612911565b82525050565b611f6981612911565b82525050565b6000611f7a82612795565b611f8481856127b8565b9350611f8f83612785565b8060005b83811015611fc0578151611fa78882611f21565b9750611fb2836127ab565b925050600181019050611f93565b5085935050505092915050565b6000611fd882612795565b611fe281856127c9565b9350611fed83612785565b8060005b8381101561201e5781516120058882611f39565b9750612010836127ab565b925050600181019050611ff1565b5085935050505092915050565b61203481612923565b82525050565b6000612045826127a0565b61204f81856127da565b935061205f81856020860161299f565b61206881612add565b840191505092915050565b61207c8161296c565b82525050565b61208b8161297e565b82525050565b61209a8161297e565b82525050565b60006120ad6006836127eb565b91506120b882612aee565b602082019050919050565b60006120d06006836127eb565b91506120db82612b17565b602082019050919050565b60006120f36026836127eb565b91506120fe82612b40565b604082019050919050565b60006121166006836127eb565b915061212182612b8f565b602082019050919050565b60006121396006836127eb565b915061214482612bb8565b602082019050919050565b600061215c6007836127eb565b915061216782612be1565b602082019050919050565b600061217f6016836127eb565b915061218a82612c0a565b602082019050919050565b60006121a26006836127eb565b91506121ad82612c33565b602082019050919050565b60006121c56003836127eb565b91506121d082612c5c565b602082019050919050565b60006121e86006836127eb565b91506121f382612c85565b602082019050919050565b600061220b6020836127eb565b915061221682612cae565b602082019050919050565b600061222e6005836127eb565b915061223982612cd7565b602082019050919050565b60006122516006836127eb565b915061225c82612d00565b602082019050919050565b7f7265676973746572000000000000000000000000000000000000000000000000815250565b61229681612962565b82525050565b6122a581612962565b82525050565b6122b481612962565b82525050565b6122c381612962565b82525050565b60006020820190506122de6000830184611f51565b92915050565b600060a0820190506122f96000830188611f51565b6123066020830187611f51565b6123136040830186611f51565b6123206060830185611f51565b61232d6080830184611f51565b9695505050505050565b600060a08201905061234c6000830187611f60565b6123596020830186611f60565b61236660408301856122ab565b61237260608301612267565b8181036080830152612384818461203a565b905095945050505050565b60006080820190506123a46000830187611f51565b6123b1602083018661229c565b6123be6040830185612073565b6123cb606083018461229c565b95945050505050565b600060a0820190506123e96000830188611f51565b6123f6602083018761229c565b612403604083018661229c565b6124106060830185612073565b61241d608083018461229c565b9695505050505050565b600060808201905061243c6000830187611f51565b612449602083018661229c565b612456604083018561229c565b612463606083018461229c565b95945050505050565b60006040820190506124816000830185612082565b81810360208301526124938184611f6f565b90509392505050565b60006060820190506124b16000830186612091565b6124be602083018561202b565b81810360408301526124d08184611fcd565b9050949350505050565b600060208201905081810360008301526124f3816120a0565b9050919050565b60006020820190508181036000830152612513816120c3565b9050919050565b60006020820190508181036000830152612533816120e6565b9050919050565b6000602082019050818103600083015261255381612109565b9050919050565b600060208201905081810360008301526125738161212c565b9050919050565b600060208201905081810360008301526125938161214f565b9050919050565b600060208201905081810360008301526125b381612172565b9050919050565b600060208201905081810360008301526125d381612195565b9050919050565b600060208201905081810360008301526125f3816121b8565b9050919050565b60006020820190508181036000830152612613816121db565b9050919050565b60006020820190508181036000830152612633816121fe565b9050919050565b6000602082019050818103600083015261265381612221565b9050919050565b6000602082019050818103600083015261267381612244565b9050919050565b600060208201905061268f600083018461229c565b92915050565b60006040820190506126aa600083018561229c565b81810360208301526126bc8184611f6f565b90509392505050565b60006060820190506126da60008301866122ab565b6126e7602083018561202b565b81810360408301526126f98184611fcd565b9050949350505050565b600061270d61271e565b905061271982826129d2565b919050565b6000604051905090565b600067ffffffffffffffff82111561274357612742612a90565b5b602082029050602081019050919050565b600067ffffffffffffffff82111561276f5761276e612a90565b5b61277882612add565b9050602081019050919050565b6000819050602082019050919050565b600081519050919050565b600081519050919050565b6000602082019050919050565b600082825260208201905092915050565b600082825260208201905092915050565b600082825260208201905092915050565b600082825260208201905092915050565b600061280782612962565b915061281283612962565b9250827fffffffffffffffffffffffffffffffffffffffffffffffffffffffffffffffff0382111561284757612846612a03565b5b828201905092915050565b600061285d82612962565b915061286883612962565b92508261287857612877612a32565b5b828204905092915050565b600061288e82612962565b915061289983612962565b9250817fffffffffffffffffffffffffffffffffffffffffffffffffffffffffffffffff04831182151516156128d2576128d1612a03565b5b828202905092915050565b60006128e882612962565b91506128f383612962565b92508282101561290657612905612a03565b5b828203905092915050565b600061291c82612942565b9050919050565b60008115159050919050565b600081905061293d82612d29565b919050565b600073ffffffffffffffffffffffffffffffffffffffff82169050919050565b6000819050919050565b60006129778261292f565b9050919050565b600061298982612962565b9050919050565b82818337600083830152505050565b60005b838110156129bd5780820151818401526020810190506129a2565b838111156129cc576000848401525b50505050565b6129db82612add565b810181811067ffffffffffffffff821117156129fa576129f9612a90565b5b80604052505050565b7f4e487b7100000000000000000000000000000000000000000000000000000000600052601160045260246000fd5b7f4e487b7100000000000000000000000000000000000000000000000000000000600052601260045260246000fd5b7f4e487b7100000000000000000000000000000000000000000000000000000000600052602160045260246000fd5b7f4e487b7100000000000000000000000000000000000000000000000000000000600052604160045260246000fd5b600080fd5b600080fd5b600080fd5b600080fd5b600080fd5b600080fd5b6000601f19601f8301169050919050565b7f4552525349470000000000000000000000000000000000000000000000000000600082015250565b7f455252494e560000000000000000000000000000000000000000000000000000600082015250565b7f4f776e61626c653a206e6577206f776e657220697320746865207a65726f206160008201527f6464726573730000000000000000000000000000000000000000000000000000602082015250565b7f45525256414c0000000000000000000000000000000000000000000000000000600082015250565b7f4c49434558500000000000000000000000000000000000000000000000000000600082015250565b7f4e4f54464e445500000000000000000000000000000000000000000000000000600082015250565b7f455243313136373a20637265617465206661696c656400000000000000000000600082015250565b7f45525242414c0000000000000000000000000000000000000000000000000000600082015250565b7f464e440000000000000000000000000000000000000000000000000000000000600082015250565b7f45525246554e0000000000000000000000000000000000000000000000000000600082015250565b7f4f776e61626c653a2063616c6c6572206973206e6f7420746865206f776e6572600082015250565b7f455252494e000000000000000000000000000000000000000000000000000000600082015250565b7f554e415554480000000000000000000000000000000000000000000000000000600082015250565b60028110612d3a57612d39612a61565b5b50565b612d4681612911565b8114612d5157600080fd5b50565b612d5d81612923565b8114612d6857600080fd5b50565b60028110612d7857600080fd5b50565b60028110612d8857600080fd5b50565b612d9481612962565b8114612d9f57600080fd5b5056fea26469706673582212205f86572e3a753dea0b8706aa6dc2083a42e97c00112ffa9fb275e538a5833e5864736f6c6343000807003360806040526001600f60016101000a81548160ff02191690831515021790555034801561002b57600080fd5b506138a38061003b6000396000f3fe608060405234801561001057600080fd5b50600436106101425760003560e01c806380985282116100b8578063a217fddf1161007c578063a217fddf14610383578063b79c36bd146103a1578063be08fd08146103bd578063d547741f146103d9578063dc654125146103f5578063e4edf8521461041357610142565b806380985282146102f357806387c255e3146102fd57806391d148541461031b57806398012a6b1461034b5780639dd072541461036757610142565b8063248a9ca31161010a578063248a9ca3146102235780632f2ff15d1461025357806336568abe1461026f57806340ad307f1461028b578063524236ce146102a757806359d531c4146102d757610142565b806301ffc9a71461014757806304766a7a146101775780631101ed0a146101a75780631459457a146101d757806314a24952146101f3575b600080fd5b610161600480360381019061015c91906129e7565b61042f565b60405161016e9190612ef1565b60405180910390f35b610191600480360381019061018c9190612665565b6104a9565b60405161019e9190612f0c565b60405180910390f35b6101c160048036038101906101bc919061270d565b6105b1565b6040516101ce9190612ef1565b60405180910390f35b6101f160048036038101906101ec9190612692565b61079c565b005b61020d60048036038101906102089190612a14565b610a06565b60405161021a9190612ecf565b60405180910390f35b61023d6004803603810190610238919061297a565b610b14565b60405161024a9190612f0c565b60405180910390f35b61026d600480360381019061026891906129a7565b610b33565b005b610289600480360381019061028491906129a7565b610b5c565b005b6102a560048036038101906102a09190612760565b610bdf565b005b6102c160048036038101906102bc9190612a41565b610ce6565b6040516102ce9190612ef1565b60405180910390f35b6102f160048036038101906102ec9190612a41565b610dc9565b005b6102fb610e92565b005b610305611071565b60405161031291906130c9565b60405180910390f35b610335600480360381019061033091906129a7565b6110ca565b6040516103429190612ef1565b60405180910390f35b610365600480360381019061036091906127e0565b611134565b005b610381600480360381019061037c9190612920565b61124c565b005b61038b611300565b6040516103989190612f0c565b60405180910390f35b6103bb60048036038101906103b69190612889565b611307565b005b6103d760048036038101906103d291906127a0565b611813565b005b6103f360048036038101906103ee91906129a7565b611b0e565b005b6103fd611b37565b60405161040a91906130c9565b60405180910390f35b61042d60048036038101906104289190612665565b611cb9565b005b60007f7965db0b000000000000000000000000000000000000000000000000000000007bffffffffffffffffffffffffffffffffffffffffffffffffffffffff1916827bffffffffffffffffffffffffffffffffffffffffffffffffffffffff191614806104a257506104a182611d94565b5b9050919050565b6000600f60019054906101000a900460ff166104fa576040517f08c379a00000000000000000000000000000000000000000000000000000000081526004016104f190613029565b60405180910390fd5b61052b7fb19546dff01e856fb3f010c267a7b1c60363cf8a4664e21cc89c26224620214e610526611dfe565b6110ca565b61056a576040517f08c379a000000000000000000000000000000000000000000000000000000000815260040161056190613069565b60405180910390fd5b600760008373ffffffffffffffffffffffffffffffffffffffff1673ffffffffffffffffffffffffffffffffffffffff168152602001908152602001600020549050919050565b6000600f60019054906101000a900460ff16610602576040517f08c379a00000000000000000000000000000000000000000000000000000000081526004016105f990613029565b60405180910390fd5b8373ffffffffffffffffffffffffffffffffffffffff16600160009054906101000a900473ffffffffffffffffffffffffffffffffffffffff1673ffffffffffffffffffffffffffffffffffffffff1614610692576040517f08c379a000000000000000000000000000000000000000000000000000000000815260040161068990612fc9565b60405180910390fd5b61069b82610ce6565b156106a95760019050610795565b6106bd83600a611e0690919063ffffffff16565b6106ca5760009050610795565b73__LicenseTools__________________________63995e9228600660008673ffffffffffffffffffffffffffffffffffffffff1673ffffffffffffffffffffffffffffffffffffffff16815260200190815260200160002054846040518363ffffffff1660e01b81526004016107429291906130e4565b60206040518083038186803b15801561075a57600080fd5b505af415801561076e573d6000803e3d6000fd5b505050506040513d601f19601f82011682018060405250810190610792919061294d565b90505b9392505050565b600f60009054906101000a900460ff16156107ec576040517f08c379a00000000000000000000000000000000000000000000000000000000081526004016107e390613049565b60405180910390fd5b84600260006101000a81548173ffffffffffffffffffffffffffffffffffffffff021916908373ffffffffffffffffffffffffffffffffffffffff16021790555083600360006101000a81548173ffffffffffffffffffffffffffffffffffffffff021916908373ffffffffffffffffffffffffffffffffffffffff16021790555082600160006101000a81548173ffffffffffffffffffffffffffffffffffffffff021916908373ffffffffffffffffffffffffffffffffffffffff1602179055506108fb7fb19546dff01e856fb3f010c267a7b1c60363cf8a4664e21cc89c26224620214e600160009054906101000a900473ffffffffffffffffffffffffffffffffffffffff16611e36565b6109477f241ecf16d79d0f8dbfb92cbc07fe17840425976cf0667f022fe9877caa831b08600260009054906101000a900473ffffffffffffffffffffffffffffffffffffffff16611e36565b81600c60006101000a81548173ffffffffffffffffffffffffffffffffffffffff021916908373ffffffffffffffffffffffffffffffffffffffff16021790555080600d60006101000a81548173ffffffffffffffffffffffffffffffffffffffff021916908373ffffffffffffffffffffffffffffffffffffffff1602179055506001600f60006101000a81548160ff0219169083151502179055506001600f60016101000a81548160ff0219169083151502179055505050505050565b6060600f60019054906101000a900460ff16610a57576040517f08c379a0000000000000000000000000000000000000000000000000000000008152600401610a4e90613029565b60405180910390fd5b610a887fb19546dff01e856fb3f010c267a7b1c60363cf8a4664e21cc89c26224620214e610a83611dfe565b6110ca565b610ac7576040517f08c379a0000000000000000000000000000000000000000000000000000000008152600401610abe90613069565b60405180910390fd5b60006001811115610adb57610ada61347f565b5b826001811115610aee57610aed61347f565b5b14610b0257610afd600a611e44565b610b0d565b610b0c6008611e44565b5b9050919050565b6000806000838152602001908152602001600020600101549050919050565b610b3c82610b14565b610b4d81610b48611dfe565b611e65565b610b578383611f02565b505050565b610b64611dfe565b73ffffffffffffffffffffffffffffffffffffffff168173ffffffffffffffffffffffffffffffffffffffff1614610bd1576040517f08c379a0000000000000000000000000000000000000000000000000000000008152600401610bc8906130a9565b60405180910390fd5b610bdb8282611fe2565b5050565b600f60019054906101000a900460ff16610c2e576040517f08c379a0000000000000000000000000000000000000000000000000000000008152600401610c2590613029565b60405180910390fd5b610c5f7fb19546dff01e856fb3f010c267a7b1c60363cf8a4664e21cc89c26224620214e610c5a611dfe565b6110ca565b610c9e576040517f08c379a0000000000000000000000000000000000000000000000000000000008152600401610c9590613069565b60405180910390fd5b80600760008473ffffffffffffffffffffffffffffffffffffffff1673ffffffffffffffffffffffffffffffffffffffff168152602001908152602001600020819055505050565b6000600f60019054906101000a900460ff16610d37576040517f08c379a0000000000000000000000000000000000000000000000000000000008152600401610d2e90613029565b60405180910390fd5b73__LicenseTools__________________________63995e9228600e54846040518363ffffffff1660e01b8152600401610d729291906130e4565b60206040518083038186803b158015610d8a57600080fd5b505af4158015610d9e573d6000803e3d6000fd5b505050506040513d601f19601f82011682018060405250810190610dc2919061294d565b9050919050565b600f60019054906101000a900460ff16610e18576040517f08c379a0000000000000000000000000000000000000000000000000000000008152600401610e0f90613029565b60405180910390fd5b610e497fb19546dff01e856fb3f010c267a7b1c60363cf8a4664e21cc89c26224620214e610e44611dfe565b6110ca565b610e88576040517f08c379a0000000000000000000000000000000000000000000000000000000008152600401610e7f90613069565b60405180910390fd5b80600e8190555050565b600f60019054906101000a900460ff16610ee1576040517f08c379a0000000000000000000000000000000000000000000000000000000008152600401610ed890613029565b60405180910390fd5b610ee9611dfe565b600160006001811115610eff57610efe61347f565b5b816001811115610f1257610f1161347f565b5b1415610f7057610f2c826008611e0690919063ffffffff16565b610f6b576040517f08c379a0000000000000000000000000000000000000000000000000000000008152600401610f6290613089565b60405180910390fd5b610fc4565b610f8482600a611e0690919063ffffffff16565b610fc3576040517f08c379a0000000000000000000000000000000000000000000000000000000008152600401610fba90613009565b60405180910390fd5b5b610fdf610fcf611dfe565b600a6120c390919063ffffffff16565b50600060066000610fee611dfe565b73ffffffffffffffffffffffffffffffffffffffff1673ffffffffffffffffffffffffffffffffffffffff168152602001908152602001600020819055507f529ecbc3c68c3d2c7bb008ee044e1a240723013a8c3456abaed0d80bcab7eb81611055611dfe565b6000604051611065929190612e7d565b60405180910390a15050565b6000600f60019054906101000a900460ff166110c2576040517f08c379a00000000000000000000000000000000000000000000000000000000081526004016110b990613029565b60405180910390fd5b600e54905090565b600080600084815260200190815260200160002060000160008373ffffffffffffffffffffffffffffffffffffffff1673ffffffffffffffffffffffffffffffffffffffff16815260200190815260200160002060009054906101000a900460ff16905092915050565b600f60019054906101000a900460ff16611183576040517f08c379a000000000000000000000000000000000000000000000000000000000815260040161117a90613029565b60405180910390fd5b6111b47fb19546dff01e856fb3f010c267a7b1c60363cf8a4664e21cc89c26224620214e6111af611dfe565b6110ca565b6111f3576040517f08c379a00000000000000000000000000000000000000000000000000000000081526004016111ea90613069565b60405180910390fd5b81600760008873ffffffffffffffffffffffffffffffffffffffff1673ffffffffffffffffffffffffffffffffffffffff168152602001908152602001600020819055506112448686868685611307565b505050505050565b611254611dfe565b73ffffffffffffffffffffffffffffffffffffffff16600360009054906101000a900473ffffffffffffffffffffffffffffffffffffffff1673ffffffffffffffffffffffffffffffffffffffff16146112e3576040517f08c379a00000000000000000000000000000000000000000000000000000000081526004016112da90613069565b60405180910390fd5b80600f60016101000a81548160ff02191690831515021790555050565b6000801b81565b600f60019054906101000a900460ff16611356576040517f08c379a000000000000000000000000000000000000000000000000000000000815260040161134d90613029565b60405180910390fd5b6113877fb19546dff01e856fb3f010c267a7b1c60363cf8a4664e21cc89c26224620214e611382611dfe565b6110ca565b6113c6576040517f08c379a00000000000000000000000000000000000000000000000000000000081526004016113bd90613069565b60405180910390fd5b600084141561140a576040517f08c379a000000000000000000000000000000000000000000000000000000000815260040161140190612fe9565b60405180910390fd5b6000600181111561141e5761141d61347f565b5b8260018111156114315761143061347f565b5b14156115505783600560008773ffffffffffffffffffffffffffffffffffffffff1673ffffffffffffffffffffffffffffffffffffffff1681526020019081526020016000205414156114b9576040517f08c379a00000000000000000000000000000000000000000000000000000000081526004016114b090612fa9565b60405180910390fd5b6114cd8560086120f390919063ffffffff16565b5083600560008773ffffffffffffffffffffffffffffffffffffffff1673ffffffffffffffffffffffffffffffffffffffff168152602001908152602001600020819055507fcd54d7e6dbadcd67bf2dc5740d6441fea3d13493ee22d7beeae303625a89d4268585604051611543929190612ea6565b60405180910390a161180c565b6001151573__VerifySignature_______________________6365ac0b7e87611577611dfe565b8787600181111561158b5761158a61347f565b5b876040518663ffffffff1660e01b81526004016115ac959493929190612e23565b60206040518083038186803b1580156115c457600080fd5b505af41580156115d8573d6000803e3d6000fd5b505050506040513d601f19601f820116820180604052508101906115fc919061294d565b15151461163e576040517f08c379a000000000000000000000000000000000000000000000000000000000815260040161163590612f69565b60405180910390fd5b826103e84261164d9190613266565b1161168d576040517f08c379a000000000000000000000000000000000000000000000000000000000815260040161168490612fc9565b60405180910390fd5b620697806103e8846103e8426116a39190613266565b6116ad91906132c0565b6116b79190613235565b106116f7576040517f08c379a00000000000000000000000000000000000000000000000000000000081526004016116ee90612f89565b60405180910390fd5b83600660008773ffffffffffffffffffffffffffffffffffffffff1673ffffffffffffffffffffffffffffffffffffffff168152602001908152602001600020541415611779576040517f08c379a000000000000000000000000000000000000000000000000000000000815260040161177090612fa9565b60405180910390fd5b61178d85600a6120f390919063ffffffff16565b5083600660008773ffffffffffffffffffffffffffffffffffffffff1673ffffffffffffffffffffffffffffffffffffffff168152602001908152602001600020819055507f529ecbc3c68c3d2c7bb008ee044e1a240723013a8c3456abaed0d80bcab7eb818585604051611803929190612ea6565b60405180910390a15b5050505050565b600f60019054906101000a900460ff16611862576040517f08c379a000000000000000000000000000000000000000000000000000000000815260040161185990613029565b60405180910390fd5b8181600060018111156118785761187761347f565b5b81600181111561188b5761188a61347f565b5b14156118e9576118a5826008611e0690919063ffffffff16565b6118e4576040517f08c379a00000000000000000000000000000000000000000000000000000000081526004016118db90613089565b60405180910390fd5b61193d565b6118fd82600a611e0690919063ffffffff16565b61193c576040517f08c379a000000000000000000000000000000000000000000000000000000000815260040161193390613009565b60405180910390fd5b5b61196e7fb19546dff01e856fb3f010c267a7b1c60363cf8a4664e21cc89c26224620214e611969611dfe565b6110ca565b6119ad576040517f08c379a00000000000000000000000000000000000000000000000000000000081526004016119a490613069565b60405180910390fd5b600060018111156119c1576119c061347f565b5b8360018111156119d4576119d361347f565b5b1415611a73576119ee8460086120c390919063ffffffff16565b506000600560008673ffffffffffffffffffffffffffffffffffffffff1673ffffffffffffffffffffffffffffffffffffffff168152602001908152602001600020819055507fcd54d7e6dbadcd67bf2dc5740d6441fea3d13493ee22d7beeae303625a89d426846000604051611a66929190612e7d565b60405180910390a1611b08565b611a8784600a6120c390919063ffffffff16565b506000600660008673ffffffffffffffffffffffffffffffffffffffff1673ffffffffffffffffffffffffffffffffffffffff168152602001908152602001600020819055507f529ecbc3c68c3d2c7bb008ee044e1a240723013a8c3456abaed0d80bcab7eb81846000604051611aff929190612e7d565b60405180910390a15b50505050565b611b1782610b14565b611b2881611b23611dfe565b611e65565b611b328383611fe2565b505050565b6000600f60019054906101000a900460ff16611b88576040517f08c379a0000000000000000000000000000000000000000000000000000000008152600401611b7f90613029565b60405180910390fd5b611b90611dfe565b600160006001811115611ba657611ba561347f565b5b816001811115611bb957611bb861347f565b5b1415611c1757611bd3826008611e0690919063ffffffff16565b611c12576040517f08c379a0000000000000000000000000000000000000000000000000000000008152600401611c0990613089565b60405180910390fd5b611c6b565b611c2b82600a611e0690919063ffffffff16565b611c6a576040517f08c379a0000000000000000000000000000000000000000000000000000000008152600401611c6190613009565b60405180910390fd5b5b60066000611c77611dfe565b73ffffffffffffffffffffffffffffffffffffffff1673ffffffffffffffffffffffffffffffffffffffff168152602001908152602001600020549250505090565b611cc1611dfe565b73ffffffffffffffffffffffffffffffffffffffff16600360009054906101000a900473ffffffffffffffffffffffffffffffffffffffff1673ffffffffffffffffffffffffffffffffffffffff1614611d50576040517f08c379a0000000000000000000000000000000000000000000000000000000008152600401611d4790613069565b60405180910390fd5b80600260006101000a81548173ffffffffffffffffffffffffffffffffffffffff021916908373ffffffffffffffffffffffffffffffffffffffff16021790555050565b60007f01ffc9a7000000000000000000000000000000000000000000000000000000007bffffffffffffffffffffffffffffffffffffffffffffffffffffffff1916827bffffffffffffffffffffffffffffffffffffffffffffffffffffffff1916149050919050565b600033905090565b6000611e2e836000018373ffffffffffffffffffffffffffffffffffffffff1660001b612123565b905092915050565b611e408282611f02565b5050565b60606000611e5483600001612146565b905060608190508092505050919050565b611e6f82826110ca565b611efe57611e948173ffffffffffffffffffffffffffffffffffffffff1660146121a2565b611ea28360001c60206121a2565b604051602001611eb3929190612de9565b6040516020818303038152906040526040517f08c379a0000000000000000000000000000000000000000000000000000000008152600401611ef59190612f27565b60405180910390fd5b5050565b611f0c82826110ca565b611fde57600160008084815260200190815260200160002060000160008373ffffffffffffffffffffffffffffffffffffffff1673ffffffffffffffffffffffffffffffffffffffff16815260200190815260200160002060006101000a81548160ff021916908315150217905550611f83611dfe565b73ffffffffffffffffffffffffffffffffffffffff168173ffffffffffffffffffffffffffffffffffffffff16837f2f8788117e7eff1d82e926ec794901d17c78024a50270940304540a733656f0d60405160405180910390a45b5050565b611fec82826110ca565b156120bf57600080600084815260200190815260200160002060000160008373ffffffffffffffffffffffffffffffffffffffff1673ffffffffffffffffffffffffffffffffffffffff16815260200190815260200160002060006101000a81548160ff021916908315150217905550612064611dfe565b73ffffffffffffffffffffffffffffffffffffffff168173ffffffffffffffffffffffffffffffffffffffff16837ff6391f5c32d9c69d2a47ea670b442974b53935d1edc7fd64eb21e047a839171b60405160405180910390a45b5050565b60006120eb836000018373ffffffffffffffffffffffffffffffffffffffff1660001b6123de565b905092915050565b600061211b836000018373ffffffffffffffffffffffffffffffffffffffff1660001b6124f2565b905092915050565b600080836001016000848152602001908152602001600020541415905092915050565b60608160000180548060200260200160405190810160405280929190818152602001828054801561219657602002820191906000526020600020905b815481526020019060010190808311612182575b50505050509050919050565b6060600060028360026121b59190613266565b6121bf91906131df565b67ffffffffffffffff8111156121d8576121d761350c565b5b6040519080825280601f01601f19166020018201604052801561220a5781602001600182028036833780820191505090505b5090507f300000000000000000000000000000000000000000000000000000000000000081600081518110612242576122416134dd565b5b60200101907effffffffffffffffffffffffffffffffffffffffffffffffffffffffffffff1916908160001a9053507f7800000000000000000000000000000000000000000000000000000000000000816001815181106122a6576122a56134dd565b5b60200101907effffffffffffffffffffffffffffffffffffffffffffffffffffffffffffff1916908160001a905350600060018460026122e69190613266565b6122f091906131df565b90505b6001811115612390577f3031323334353637383961626364656600000000000000000000000000000000600f861660108110612332576123316134dd565b5b1a60f81b828281518110612349576123486134dd565b5b60200101907effffffffffffffffffffffffffffffffffffffffffffffffffffffffffffff1916908160001a905350600485901c945080612389906133c6565b90506122f3565b50600084146123d4576040517f08c379a00000000000000000000000000000000000000000000000000000000081526004016123cb90612f49565b60405180910390fd5b8091505092915050565b600080836001016000848152602001908152602001600020549050600081146124e657600060018261241091906132c0565b905060006001866000018054905061242891906132c0565b9050818114612497576000866000018281548110612449576124486134dd565b5b906000526020600020015490508087600001848154811061246d5761246c6134dd565b5b90600052602060002001819055508387600101600083815260200190815260200160002081905550505b856000018054806124ab576124aa6134ae565b5b6001900381819060005260206000200160009055905585600101600086815260200190815260200160002060009055600193505050506124ec565b60009150505b92915050565b60006124fe8383612123565b61255757826000018290806001815401808255809150506001900390600052602060002001600090919091909150558260000180549050836001016000848152602001908152602001600020819055506001905061255c565b600090505b92915050565b600061257561257084613132565b61310d565b90508281526020810184848401111561259157612590613540565b5b61259c848285613384565b509392505050565b6000813590506125b3816137ea565b92915050565b6000813590506125c881613801565b92915050565b6000815190506125dd81613801565b92915050565b6000813590506125f281613818565b92915050565b6000813590506126078161382f565b92915050565b600082601f8301126126225761262161353b565b5b8135612632848260208601612562565b91505092915050565b60008135905061264a81613846565b92915050565b60008135905061265f81613856565b92915050565b60006020828403121561267b5761267a61354a565b5b6000612689848285016125a4565b91505092915050565b600080600080600060a086880312156126ae576126ad61354a565b5b60006126bc888289016125a4565b95505060206126cd888289016125a4565b94505060406126de888289016125a4565b93505060606126ef888289016125a4565b9250506080612700888289016125a4565b9150509295509295909350565b6000806000606084860312156127265761272561354a565b5b6000612734868287016125a4565b9350506020612745868287016125a4565b925050604061275686828701612650565b9150509250925092565b600080604083850312156127775761277661354a565b5b6000612785858286016125a4565b9250506020612796858286016125e3565b9150509250929050565b600080604083850312156127b7576127b661354a565b5b60006127c5858286016125a4565b92505060206127d68582860161263b565b9150509250929050565b60008060008060008060c087890312156127fd576127fc61354a565b5b600061280b89828a016125a4565b965050602061281c89828a01612650565b955050604061282d89828a01612650565b945050606061283e89828a0161263b565b935050608061284f89828a016125e3565b92505060a087013567ffffffffffffffff8111156128705761286f613545565b5b61287c89828a0161260d565b9150509295509295509295565b600080600080600060a086880312156128a5576128a461354a565b5b60006128b3888289016125a4565b95505060206128c488828901612650565b94505060406128d588828901612650565b93505060606128e68882890161263b565b925050608086013567ffffffffffffffff81111561290757612906613545565b5b6129138882890161260d565b9150509295509295909350565b6000602082840312156129365761293561354a565b5b6000612944848285016125b9565b91505092915050565b6000602082840312156129635761296261354a565b5b6000612971848285016125ce565b91505092915050565b6000602082840312156129905761298f61354a565b5b600061299e848285016125e3565b91505092915050565b600080604083850312156129be576129bd61354a565b5b60006129cc858286016125e3565b92505060206129dd858286016125a4565b9150509250929050565b6000602082840312156129fd576129fc61354a565b5b6000612a0b848285016125f8565b91505092915050565b600060208284031215612a2a57612a2961354a565b5b6000612a388482850161263b565b91505092915050565b600060208284031215612a5757612a5661354a565b5b6000612a6584828501612650565b91505092915050565b6000612a7a8383612a86565b60208301905092915050565b612a8f816132f4565b82525050565b612a9e816132f4565b82525050565b612aad816132f4565b82525050565b6000612abe82613173565b612ac881856131a1565b9350612ad383613163565b8060005b83811015612b04578151612aeb8882612a6e565b9750612af683613194565b925050600181019050612ad7565b5085935050505092915050565b612b1a81613306565b82525050565b612b2981613312565b82525050565b6000612b3a8261317e565b612b4481856131b2565b9350612b54818560208601613393565b612b5d8161354f565b840191505092915050565b612b7181613372565b82525050565b6000612b8282613189565b612b8c81856131c3565b9350612b9c818560208601613393565b612ba58161354f565b840191505092915050565b6000612bbb82613189565b612bc581856131d4565b9350612bd5818560208601613393565b80840191505092915050565b6000612bee6020836131c3565b9150612bf982613560565b602082019050919050565b6000612c116006836131c3565b9150612c1c82613589565b602082019050919050565b6000612c346006836131c3565b9150612c3f826135b2565b602082019050919050565b6000612c576006836131c3565b9150612c62826135db565b602082019050919050565b6000612c7a6005836131c3565b9150612c8582613604565b602082019050919050565b6000612c9d6005836131c3565b9150612ca88261362d565b602082019050919050565b6000612cc06006836131c3565b9150612ccb82613656565b602082019050919050565b6000612ce36006836131c3565b9150612cee8261367f565b602082019050919050565b6000612d06602e836131c3565b9150612d11826136a8565b604082019050919050565b6000612d296006836131c3565b9150612d34826136f7565b602082019050919050565b6000612d4c6017836131d4565b9150612d5782613720565b601782019050919050565b6000612d6f6006836131c3565b9150612d7a82613749565b602082019050919050565b6000612d926011836131d4565b9150612d9d82613772565b601182019050919050565b6000612db5602f836131c3565b9150612dc08261379b565b604082019050919050565b612dd481613368565b82525050565b612de381613368565b82525050565b6000612df482612d3f565b9150612e008285612bb0565b9150612e0b82612d85565b9150612e178284612bb0565b91508190509392505050565b600060a082019050612e386000830188612aa4565b612e456020830187612aa4565b612e526040830186612dda565b612e5f6060830185612dda565b8181036080830152612e718184612b2f565b90509695505050505050565b6000604082019050612e926000830185612a95565b612e9f6020830184612b68565b9392505050565b6000604082019050612ebb6000830185612a95565b612ec86020830184612dcb565b9392505050565b60006020820190508181036000830152612ee98184612ab3565b905092915050565b6000602082019050612f066000830184612b11565b92915050565b6000602082019050612f216000830184612b20565b92915050565b60006020820190508181036000830152612f418184612b77565b905092915050565b60006020820190508181036000830152612f6281612be1565b9050919050565b60006020820190508181036000830152612f8281612c04565b9050919050565b60006020820190508181036000830152612fa281612c27565b9050919050565b60006020820190508181036000830152612fc281612c4a565b9050919050565b60006020820190508181036000830152612fe281612c6d565b9050919050565b6000602082019050818103600083015261300281612c90565b9050919050565b6000602082019050818103600083015261302281612cb3565b9050919050565b6000602082019050818103600083015261304281612cd6565b9050919050565b6000602082019050818103600083015261306281612cf9565b9050919050565b6000602082019050818103600083015261308281612d1c565b9050919050565b600060208201905081810360008301526130a281612d62565b9050919050565b600060208201905081810360008301526130c281612da8565b9050919050565b60006020820190506130de6000830184612dcb565b92915050565b60006040820190506130f96000830185612dda565b6131066020830184612dda565b9392505050565b6000613117613128565b905061312382826133f0565b919050565b6000604051905090565b600067ffffffffffffffff82111561314d5761314c61350c565b5b6131568261354f565b9050602081019050919050565b6000819050602082019050919050565b600081519050919050565b600081519050919050565b600081519050919050565b6000602082019050919050565b600082825260208201905092915050565b600082825260208201905092915050565b600082825260208201905092915050565b600081905092915050565b60006131ea82613368565b91506131f583613368565b9250827fffffffffffffffffffffffffffffffffffffffffffffffffffffffffffffffff0382111561322a57613229613421565b5b828201905092915050565b600061324082613368565b915061324b83613368565b92508261325b5761325a613450565b5b828204905092915050565b600061327182613368565b915061327c83613368565b9250817fffffffffffffffffffffffffffffffffffffffffffffffffffffffffffffffff04831182151516156132b5576132b4613421565b5b828202905092915050565b60006132cb82613368565b91506132d683613368565b9250828210156132e9576132e8613421565b5b828203905092915050565b60006132ff82613348565b9050919050565b60008115159050919050565b6000819050919050565b60007fffffffff0000000000000000000000000000000000000000000000000000000082169050919050565b600073ffffffffffffffffffffffffffffffffffffffff82169050919050565b6000819050919050565b600061337d82613368565b9050919050565b82818337600083830152505050565b60005b838110156133b1578082015181840152602081019050613396565b838111156133c0576000848401525b50505050565b60006133d182613368565b915060008214156133e5576133e4613421565b5b600182039050919050565b6133f98261354f565b810181811067ffffffffffffffff821117156134185761341761350c565b5b80604052505050565b7f4e487b7100000000000000000000000000000000000000000000000000000000600052601160045260246000fd5b7f4e487b7100000000000000000000000000000000000000000000000000000000600052601260045260246000fd5b7f4e487b7100000000000000000000000000000000000000000000000000000000600052602160045260246000fd5b7f4e487b7100000000000000000000000000000000000000000000000000000000600052603160045260246000fd5b7f4e487b7100000000000000000000000000000000000000000000000000000000600052603260045260246000fd5b7f4e487b7100000000000000000000000000000000000000000000000000000000600052604160045260246000fd5b600080fd5b600080fd5b600080fd5b600080fd5b6000601f19601f8301169050919050565b7f537472696e67733a20686578206c656e67746820696e73756666696369656e74600082015250565b7f4552525349470000000000000000000000000000000000000000000000000000600082015250565b7f4f4c445245510000000000000000000000000000000000000000000000000000600082015250565b7f4552525045520000000000000000000000000000000000000000000000000000600082015250565b7f4241445251000000000000000000000000000000000000000000000000000000600082015250565b7f4e44504552000000000000000000000000000000000000000000000000000000600082015250565b7f4e4f544657520000000000000000000000000000000000000000000000000000600082015250565b7f494e414354560000000000000000000000000000000000000000000000000000600082015250565b7f436f6e747261637420696e7374616e63652068617320616c726561647920626560008201527f656e20696e697469616c697a6564000000000000000000000000000000000000602082015250565b7f554e415554480000000000000000000000000000000000000000000000000000600082015250565b7f416363657373436f6e74726f6c3a206163636f756e7420000000000000000000600082015250565b7f4e4f544657470000000000000000000000000000000000000000000000000000600082015250565b7f206973206d697373696e6720726f6c6520000000000000000000000000000000600082015250565b7f416363657373436f6e74726f6c3a2063616e206f6e6c792072656e6f756e636560008201527f20726f6c657320666f722073656c660000000000000000000000000000000000602082015250565b6137f3816132f4565b81146137fe57600080fd5b50565b61380a81613306565b811461381557600080fd5b50565b61382181613312565b811461382c57600080fd5b50565b6138388161331c565b811461384357600080fd5b50565b6002811061385357600080fd5b50565b61385f81613368565b811461386a57600080fd5b5056fea2646970667358221220f1950025ebff013cae49c0dbfd779e390f9ca52e37055c861ea38e2ebedf892964736f6c63430008070033",
  "immutableReferences": {
    "4249": [
      {
        "length": 32,
        "start": 1676
      }
    ]
  },
  "source": "// SPDX-License-Identifier: GPL-3.0\npragma solidity >=0.4.25 <0.9.0;\nimport \"@openzeppelin/contracts/access/Ownable.sol\";\nimport \"@openzeppelin/contracts/proxy/Clones.sol\";\nimport \"@openzeppelin/contracts/utils/structs/EnumerableSet.sol\";\n\nimport \"./LicenseToken.sol\";\nimport \"./VerifySignature.sol\";\nimport \"./UserMonitoringCenter.sol\";\nimport \"./ServiceManager.sol\";\n\ncontract ManagementCenter is Ownable {\n    /******************************\n        STATEMENTS\n    ******************************/\n    using EnumerableSet for EnumerableSet.UintSet;\n    /******************************\n        CONSTANTS\n    ******************************/\n    uint256 public constant updateDataCost = 10000;\n\n    /******************************\n        EVENTS\n    ******************************/\n    event ManagerTransactionFeedValueChanged(uint256 value);\n    event UsersContractCreated(address contractAddress);\n    event BuyTokens(address buyer, uint256 amountOfETH, uint256 amountOfTokens);\n    event TokensMinted(address buyer, uint256 amountOfETH);\n    event ChangeEtherBalance(uint256 value);\n    event NewPrivateLicenseEmitted(uint256 licenseId);\n    event PrivateLicenseUpdated(uint256 licenseId);\n    event ReadUpdatedData(string data, uint256 updateTime);\n\n    /***********************ChangeEtherBalance*******\n        VARIABLES\n    ******************************/\n\n    // _users Contract Address set\n    mapping(address => address) _usersContractAddresses;\n\n    address immutable userCenterImplementation;\n\n    // ECR 721 Licence\n    LicenseToken LicenseTokenInstance;\n    // Service Manager\n    ServiceManager ServiceManagerInstance;\n\n    /**\n     * @notice constructor function\n     */\n    constructor(\n        address LicenseLVCAddress,\n        address ServiceManagerAddress\n    ) {\n        userCenterImplementation = address(new UserMonitoringCenter());\n        LicenseTokenInstance = LicenseToken(LicenseLVCAddress);\n        ServiceManagerInstance = ServiceManager(ServiceManagerAddress);\n    }\n\n    //Modifiers\n    modifier onlyRegisteredUsers() {\n        require(_usersContractAddresses[_msgSender()] != address(0), \"NOTFNDU\");\n        _;\n    }\n\n    // GETTERS\n\n    /**\n     * @notice Get the License Token Address\n     */\n    function getLicenseTokenAddress() public view returns (address) {\n        return address(LicenseTokenInstance);\n    }\n\n    /**\n     * @notice Get Service Manager Address\n     */\n    function getServiceManagerAddress() public view returns (address) {\n        return address(ServiceManagerInstance);\n    }\n\n    /**\n     * @notice Verify an address\n     * @param signature signature\n     * @param nonce nonce\n     */\n    function register(uint256 nonce, bytes memory signature)\n        public\n        returns (address)\n    {\n        require(_msgSender() != owner(), \"UNAUTH\");\n        require(_usersContractAddresses[_msgSender()] == address(0), \"FND\");\n        require(\n            VerifySignature.verifyRegistration(\n                _msgSender(),\n                address(this),\n                nonce,\n                \"register\",\n                signature\n            ) == true,\n            \"ERRSIG\"\n        );\n        address clone = Clones.clone(userCenterImplementation);\n        UserMonitoringCenter(clone).initialize(\n            address(this),\n            owner(),\n            _msgSender(),\n            address(ServiceManagerInstance),\n            address(LicenseTokenInstance)\n        );\n        _usersContractAddresses[_msgSender()] = clone;\n        emit UsersContractCreated(_usersContractAddresses[_msgSender()]);\n        return clone;\n    }\n\n    /**\n     * @notice get User Contract Address\n     */\n    function getUserContractAddress(address userAddress) public view returns (address) {\n        return _usersContractAddresses[userAddress];\n    }\n\n    function withdraw() public onlyOwner {\n        uint256 ownerBalance = address(this).balance;\n        require(ownerBalance > 0, \"ERRFUN\");\n        payable(owner()).transfer(ownerBalance);\n        emit ChangeEtherBalance(ownerBalance);\n    }\n\n    /// @notice buy License for a list of services\n    /// @dev Explain to a developer any extra details\n    /// @param numberOfMonths number Of Months for the license\n    /// @param serviceIds list of service Ids\n    function buyLicence(uint256 numberOfMonths, uint256[] memory serviceIds)\n        public\n        payable\n        onlyRegisteredUsers\n    {\n        require(numberOfMonths > 0 && serviceIds.length > 0, \"ERRIN\");\n        require(msg.value > 0, \"ERRBAL\");\n        uint256 paymentValue = numberOfMonths *\n            ServiceManagerInstance.getAddedServicesPricePerMonth(0, serviceIds);\n        require(paymentValue > 0, \"ERRIN\");\n        uint256 permissions = LicenseTools.setIndexesBoolean(\n            0,\n            true,\n            serviceIds\n        );\n        require(msg.value == paymentValue, \"ERRINV\");\n        uint256 newLicenseId = LicenseTokenInstance.createLicense(\n            _msgSender(),\n            permissions,\n            LicenseType.PRIVATE,\n            numberOfMonths\n        );\n        emit NewPrivateLicenseEmitted(newLicenseId);\n    }\n\n    /// @notice buy License for a list of services\n    /// @dev Explain to a developer any extra details\n    /// @param licenseId license Id\n    /// @param numberOfMonths number Of Months for the license\n    /// @param serviceIds list of service Ids\n    function resetLicence(\n        uint256 licenseId,\n        uint256 numberOfMonths,\n        uint256[] memory serviceIds\n    ) public payable onlyRegisteredUsers {\n        require(numberOfMonths > 0 && serviceIds.length > 0, \"ERRIN\");\n        require(msg.value > 0, \"ERRBAL\");\n        uint256 paymentValue = numberOfMonths *\n            ServiceManagerInstance.getAddedServicesPricePerMonth(0, serviceIds);\n        require(paymentValue > 0, \"ERRIN\");\n        uint256 permissions = LicenseTools.setIndexesBoolean(\n            0,\n            true,\n            serviceIds\n        );\n        require(msg.value == paymentValue, \"ERRINV\");\n        LicenseTokenInstance.resetLicense(\n            _msgSender(),\n            licenseId,\n            permissions,\n            LicenseType.PRIVATE,\n            numberOfMonths\n        );\n        emit PrivateLicenseUpdated(licenseId);\n    }\n\n    /**\n     * @notice update Licence\n     * @dev Explain to a developer any extra details\n     * @param licenseId number Of Months for the license\n     * @param extraNumberOfMonths extra Number Of Months\n     * @param extraServiceIds list of service Ids\n     */\n    function updateLicence(\n        uint256 licenseId,\n        uint256 extraNumberOfMonths,\n        uint256[] memory extraServiceIds\n    ) public payable onlyRegisteredUsers {\n        require(extraNumberOfMonths > 0 || extraServiceIds.length > 0, \"ERRIN\");\n        LicenseInfo memory license = LicenseTokenInstance.getLicense(licenseId);\n        require(\n            license.state == LicenseState.INACTIVE ||\n                (license.expiresOn > block.timestamp &&\n                    license.state == LicenseState.ACTIVE),\n            \"LICEXP\"\n        );\n        //payment to add the service to the end of the license expired data\n        uint256 priceForExtraServices = ServiceManagerInstance\n            .getAddedServicesPricePerMonth(\n                license.servicesIdsPool,\n                extraServiceIds\n            );\n        uint256 paymentRemainingLicenseTime = (license.state ==\n            LicenseState.ACTIVE)\n            ? (priceForExtraServices * (license.expiresOn - block.timestamp)) /\n                30 days\n            : priceForExtraServices * license.numberOfMonths;\n        //payment to extend the license with the new services\n        uint256 newServicesIdsPool = LicenseTools.setIndexesBoolean(\n            license.servicesIdsPool,\n            true,\n            extraServiceIds\n        );\n        uint256 paymentValueExtraMonth = ServiceManagerInstance\n            .getServicesIdsPoolPricePerMonth(newServicesIdsPool) *\n            extraNumberOfMonths;\n        uint256 totalPayment = paymentRemainingLicenseTime +\n            paymentValueExtraMonth;\n            if (totalPayment>0)\n            {\n                require(\n                    msg.value >= totalPayment, \"ERRVAL\"\n                );            \n                require(\n                    ((msg.value - totalPayment)/msg.value)*100 <=1,\n                    \"ERRBAL\"\n                );\n            }\n        LicenseTokenInstance.updateLicense(\n            _msgSender(),\n            licenseId,\n            newServicesIdsPool,\n            extraNumberOfMonths\n        );\n        emit PrivateLicenseUpdated(licenseId);\n    }\n}\n",
  "sourcePath": "/home/israel/Documents/cashtween/code/Cryptween-smart-contract-2/contracts/ManagementCenter.sol",
  "compiler": {
    "name": "solc",
    "version": "0.8.7+commit.e28d00a7.Emscripten.clang"
  },
  "schemaVersion": "3.4.3",
  "updatedAt": "2022-04-18T18:08:02.256Z",
  "networkType": "ethereum",
  "devdoc": {
    "kind": "dev",
    "methods": {
      "buyLicence(uint256,uint256[])": {
        "details": "Explain to a developer any extra details",
        "params": {
          "numberOfMonths": "number Of Months for the license",
          "serviceIds": "list of service Ids"
        }
      },
      "owner()": {
        "details": "Returns the address of the current owner."
      },
      "register(uint256,bytes)": {
        "params": {
          "nonce": "nonce",
          "signature": "signature"
        }
      },
      "renounceOwnership()": {
        "details": "Leaves the contract without owner. It will not be possible to call `onlyOwner` functions anymore. Can only be called by the current owner. NOTE: Renouncing ownership will leave the contract without an owner, thereby removing any functionality that is only available to the owner."
      },
      "resetLicence(uint256,uint256,uint256[])": {
        "details": "Explain to a developer any extra details",
        "params": {
          "licenseId": "license Id",
          "numberOfMonths": "number Of Months for the license",
          "serviceIds": "list of service Ids"
        }
      },
      "transferOwnership(address)": {
        "details": "Transfers ownership of the contract to a new account (`newOwner`). Can only be called by the current owner."
      },
      "updateLicence(uint256,uint256,uint256[])": {
        "details": "Explain to a developer any extra details",
        "params": {
          "extraNumberOfMonths": "extra Number Of Months",
          "extraServiceIds": "list of service Ids",
          "licenseId": "number Of Months for the license"
        }
      }
    },
    "version": 1
  },
  "userdoc": {
    "kind": "user",
    "methods": {
      "buyLicence(uint256,uint256[])": {
        "notice": "buy License for a list of services"
      },
      "constructor": {
        "notice": "constructor function"
      },
      "getLicenseTokenAddress()": {
        "notice": "Get the License Token Address"
      },
      "getServiceManagerAddress()": {
        "notice": "Get Service Manager Address"
      },
      "getUserContractAddress(address)": {
        "notice": "get User Contract Address"
      },
      "register(uint256,bytes)": {
        "notice": "Verify an address"
      },
      "resetLicence(uint256,uint256,uint256[])": {
        "notice": "buy License for a list of services"
      },
      "updateLicence(uint256,uint256,uint256[])": {
        "notice": "update Licence"
      }
    },
    "version": 1
  }
}