{
  "contractName": "ManagementCenter",
  "abi": [
    {
      "inputs": [
        {
          "internalType": "address",
          "name": "LicenseLVCAddress",
          "type": "address"
        },
        {
          "internalType": "address",
          "name": "ServiceManagerAddress",
          "type": "address"
        }
      ],
      "stateMutability": "nonpayable",
      "type": "constructor"
    },
    {
      "anonymous": false,
      "inputs": [
        {
          "indexed": false,
          "internalType": "address",
          "name": "buyer",
          "type": "address"
        },
        {
          "indexed": false,
          "internalType": "uint256",
          "name": "amountOfETH",
          "type": "uint256"
        },
        {
          "indexed": false,
          "internalType": "uint256",
          "name": "amountOfTokens",
          "type": "uint256"
        }
      ],
      "name": "BuyTokens",
      "type": "event"
    },
    {
      "anonymous": false,
      "inputs": [
        {
          "indexed": false,
          "internalType": "uint256",
          "name": "value",
          "type": "uint256"
        }
      ],
      "name": "ChangeEtherBalance",
      "type": "event"
    },
    {
      "anonymous": false,
      "inputs": [
        {
          "indexed": false,
          "internalType": "uint256",
          "name": "value",
          "type": "uint256"
        }
      ],
      "name": "ManagerTransactionFeedValueChanged",
      "type": "event"
    },
    {
      "anonymous": false,
      "inputs": [
        {
          "indexed": false,
          "internalType": "uint256",
          "name": "licenseId",
          "type": "uint256"
        }
      ],
      "name": "NewPrivateLicenseEmitted",
      "type": "event"
    },
    {
      "anonymous": false,
      "inputs": [
        {
          "indexed": true,
          "internalType": "address",
          "name": "previousOwner",
          "type": "address"
        },
        {
          "indexed": true,
          "internalType": "address",
          "name": "newOwner",
          "type": "address"
        }
      ],
      "name": "OwnershipTransferred",
      "type": "event"
    },
    {
      "anonymous": false,
      "inputs": [
        {
          "indexed": false,
          "internalType": "uint256",
          "name": "licenseId",
          "type": "uint256"
        }
      ],
      "name": "PrivateLicenseUpdated",
      "type": "event"
    },
    {
      "anonymous": false,
      "inputs": [
        {
          "indexed": false,
          "internalType": "string",
          "name": "data",
          "type": "string"
        },
        {
          "indexed": false,
          "internalType": "uint256",
          "name": "updateTime",
          "type": "uint256"
        }
      ],
      "name": "ReadUpdatedData",
      "type": "event"
    },
    {
      "anonymous": false,
      "inputs": [
        {
          "indexed": false,
          "internalType": "address",
          "name": "buyer",
          "type": "address"
        },
        {
          "indexed": false,
          "internalType": "uint256",
          "name": "amountOfETH",
          "type": "uint256"
        }
      ],
      "name": "TokensMinted",
      "type": "event"
    },
    {
      "anonymous": false,
      "inputs": [
        {
          "indexed": false,
          "internalType": "address",
          "name": "contractAddress",
          "type": "address"
        }
      ],
      "name": "UsersContractCreated",
      "type": "event"
    },
    {
      "inputs": [],
      "name": "owner",
      "outputs": [
        {
          "internalType": "address",
          "name": "",
          "type": "address"
        }
      ],
      "stateMutability": "view",
      "type": "function",
      "constant": true
    },
    {
      "inputs": [],
      "name": "renounceOwnership",
      "outputs": [],
      "stateMutability": "nonpayable",
      "type": "function"
    },
    {
      "inputs": [
        {
          "internalType": "address",
          "name": "newOwner",
          "type": "address"
        }
      ],
      "name": "transferOwnership",
      "outputs": [],
      "stateMutability": "nonpayable",
      "type": "function"
    },
    {
      "inputs": [],
      "name": "updateDataCost",
      "outputs": [
        {
          "internalType": "uint256",
          "name": "",
          "type": "uint256"
        }
      ],
      "stateMutability": "view",
      "type": "function",
      "constant": true
    },
    {
      "inputs": [],
      "name": "getLicenseTokenAddress",
      "outputs": [
        {
          "internalType": "address",
          "name": "",
          "type": "address"
        }
      ],
      "stateMutability": "view",
      "type": "function",
      "constant": true
    },
    {
      "inputs": [],
      "name": "getServiceManagerAddress",
      "outputs": [
        {
          "internalType": "address",
          "name": "",
          "type": "address"
        }
      ],
      "stateMutability": "view",
      "type": "function",
      "constant": true
    },
    {
      "inputs": [
        {
          "internalType": "uint256",
          "name": "nonce",
          "type": "uint256"
        },
        {
          "internalType": "bytes",
          "name": "signature",
          "type": "bytes"
        }
      ],
      "name": "register",
      "outputs": [
        {
          "internalType": "address",
          "name": "",
          "type": "address"
        }
      ],
      "stateMutability": "nonpayable",
      "type": "function"
    },
    {
      "inputs": [
        {
          "internalType": "address",
          "name": "userAddress",
          "type": "address"
        }
      ],
      "name": "getUserContractAddress",
      "outputs": [
        {
          "internalType": "address",
          "name": "",
          "type": "address"
        }
      ],
      "stateMutability": "view",
      "type": "function",
      "constant": true
    },
    {
      "inputs": [],
      "name": "withdraw",
      "outputs": [],
      "stateMutability": "nonpayable",
      "type": "function"
    },
    {
      "inputs": [
        {
          "internalType": "uint256",
          "name": "numberOfMonths",
          "type": "uint256"
        },
        {
          "internalType": "uint256[]",
          "name": "serviceIds",
          "type": "uint256[]"
        }
      ],
      "name": "buyLicence",
      "outputs": [],
      "stateMutability": "payable",
      "type": "function",
      "payable": true
    },
    {
      "inputs": [
        {
          "internalType": "uint256",
          "name": "licenseId",
          "type": "uint256"
        },
        {
          "internalType": "uint256",
          "name": "numberOfMonths",
          "type": "uint256"
        },
        {
          "internalType": "uint256[]",
          "name": "serviceIds",
          "type": "uint256[]"
        }
      ],
      "name": "resetLicence",
      "outputs": [],
      "stateMutability": "payable",
      "type": "function",
      "payable": true
    },
    {
      "inputs": [
        {
          "internalType": "uint256",
          "name": "licenseId",
          "type": "uint256"
        },
        {
          "internalType": "uint256",
          "name": "extraNumberOfMonths",
          "type": "uint256"
        },
        {
          "internalType": "uint256[]",
          "name": "extraServiceIds",
          "type": "uint256[]"
        }
      ],
      "name": "updateLicence",
      "outputs": [],
      "stateMutability": "payable",
      "type": "function",
      "payable": true
    }
  ],
  "bytecode": "0x60a06040523480156200001157600080fd5b5060405162006b2438038062006b24833981810160405281019062000037919062000234565b620000576200004b6200014360201b60201c565b6200014b60201b60201c565b60405162000065906200020f565b604051809103906000f08015801562000082573d6000803e3d6000fd5b5073ffffffffffffffffffffffffffffffffffffffff1660808173ffffffffffffffffffffffffffffffffffffffff1660601b8152505081600260006101000a81548173ffffffffffffffffffffffffffffffffffffffff021916908373ffffffffffffffffffffffffffffffffffffffff16021790555080600360006101000a81548173ffffffffffffffffffffffffffffffffffffffff021916908373ffffffffffffffffffffffffffffffffffffffff1602179055505050620002ce565b600033905090565b60008060009054906101000a900473ffffffffffffffffffffffffffffffffffffffff169050816000806101000a81548173ffffffffffffffffffffffffffffffffffffffff021916908373ffffffffffffffffffffffffffffffffffffffff1602179055508173ffffffffffffffffffffffffffffffffffffffff168173ffffffffffffffffffffffffffffffffffffffff167f8be0079c531659141344cd1fd0a4f28419497f9722a3daafe3b4186f6b6457e060405160405180910390a35050565b613a5f80620030c583390190565b6000815190506200022e81620002b4565b92915050565b600080604083850312156200024e576200024d620002af565b5b60006200025e858286016200021d565b925050602062000271858286016200021d565b9150509250929050565b600062000288826200028f565b9050919050565b600073ffffffffffffffffffffffffffffffffffffffff82169050919050565b600080fd5b620002bf816200027b565b8114620002cb57600080fd5b50565b60805160601c612dd8620002ed600039600061068c0152612dd86000f3fe6080604052600436106100a75760003560e01c8063a6e497b611610064578063a6e497b614610189578063b738fa26146101c6578063be340cbb146101f1578063c60598a41461020d578063d106402714610229578063f2fde38b14610254576100a7565b80632de44afe146100ac5780633ccfd60b146100d7578063715018a6146100ee578063765718d7146101055780637ec6f972146101425780638da5cb5b1461015e575b600080fd5b3480156100b857600080fd5b506100c161027d565b6040516100ce919061267a565b60405180910390f35b3480156100e357600080fd5b506100ec610283565b005b3480156100fa57600080fd5b506101036103cf565b005b34801561011157600080fd5b5061012c60048036038101906101279190611e56565b610457565b60405161013991906122c9565b60405180910390f35b61015c60048036038101906101579190611eb2565b6108a3565b005b34801561016a57600080fd5b50610173610cba565b60405161018091906122c9565b60405180910390f35b34801561019557600080fd5b506101b060048036038101906101ab9190611d46565b610ce3565b6040516101bd91906122c9565b60405180910390f35b3480156101d257600080fd5b506101db610d4c565b6040516101e891906122c9565b60405180910390f35b61020b60048036038101906102069190611eb2565b610d76565b005b61022760048036038101906102229190611dfa565b61140a565b005b34801561023557600080fd5b5061023e611843565b60405161024b91906122c9565b60405180910390f35b34801561026057600080fd5b5061027b60048036038101906102769190611d46565b61186d565b005b61271081565b61028b611965565b73ffffffffffffffffffffffffffffffffffffffff166102a9610cba565b73ffffffffffffffffffffffffffffffffffffffff16146102ff576040517f08c379a00000000000000000000000000000000000000000000000000000000081526004016102f69061261a565b60405180910390fd5b600047905060008111610347576040517f08c379a000000000000000000000000000000000000000000000000000000000815260040161033e906125fa565b60405180910390fd5b61034f610cba565b73ffffffffffffffffffffffffffffffffffffffff166108fc829081150290604051600060405180830381858888f19350505050158015610394573d6000803e3d6000fd5b507fc18de0b20be63ae63af9d6976f6922250e9c8326892ac350f3be1f7b6e8654f1816040516103c4919061267a565b60405180910390a150565b6103d7611965565b73ffffffffffffffffffffffffffffffffffffffff166103f5610cba565b73ffffffffffffffffffffffffffffffffffffffff161461044b576040517f08c379a00000000000000000000000000000000000000000000000000000000081526004016104429061261a565b60405180910390fd5b610455600061196d565b565b6000610461610cba565b73ffffffffffffffffffffffffffffffffffffffff1661047f611965565b73ffffffffffffffffffffffffffffffffffffffff1614156104d6576040517f08c379a00000000000000000000000000000000000000000000000000000000081526004016104cd9061265a565b60405180910390fd5b600073ffffffffffffffffffffffffffffffffffffffff16600160006104fa611965565b73ffffffffffffffffffffffffffffffffffffffff1673ffffffffffffffffffffffffffffffffffffffff16815260200190815260200160002060009054906101000a900473ffffffffffffffffffffffffffffffffffffffff1673ffffffffffffffffffffffffffffffffffffffff16146105ab576040517f08c379a00000000000000000000000000000000000000000000000000000000081526004016105a2906125da565b60405180910390fd5b6001151573__VerifySignature_______________________633017533f6105d1611965565b3087876040518563ffffffff1660e01b81526004016105f39493929190612337565b60206040518083038186803b15801561060b57600080fd5b505af415801561061f573d6000803e3d6000fd5b505050506040513d601f19601f820116820180604052508101906106439190611d73565b151514610685576040517f08c379a000000000000000000000000000000000000000000000000000000000815260040161067c906124da565b60405180910390fd5b60006106b07f0000000000000000000000000000000000000000000000000000000000000000611a31565b90508073ffffffffffffffffffffffffffffffffffffffff16631459457a306106d7610cba565b6106df611965565b600360009054906101000a900473ffffffffffffffffffffffffffffffffffffffff16600260009054906101000a900473ffffffffffffffffffffffffffffffffffffffff166040518663ffffffff1660e01b81526004016107459594939291906122e4565b600060405180830381600087803b15801561075f57600080fd5b505af1158015610773573d6000803e3d6000fd5b505050508060016000610784611965565b73ffffffffffffffffffffffffffffffffffffffff1673ffffffffffffffffffffffffffffffffffffffff16815260200190815260200160002060006101000a81548173ffffffffffffffffffffffffffffffffffffffff021916908373ffffffffffffffffffffffffffffffffffffffff1602179055507f54196f28fffc9d8a5c4442b3e5e33c92dd63d3213a2805229cad9f4f4ad85a1060016000610829611965565b73ffffffffffffffffffffffffffffffffffffffff1673ffffffffffffffffffffffffffffffffffffffff16815260200190815260200160002060009054906101000a900473ffffffffffffffffffffffffffffffffffffffff1660405161089191906122c9565b60405180910390a18091505092915050565b600073ffffffffffffffffffffffffffffffffffffffff16600160006108c7611965565b73ffffffffffffffffffffffffffffffffffffffff1673ffffffffffffffffffffffffffffffffffffffff16815260200190815260200160002060009054906101000a900473ffffffffffffffffffffffffffffffffffffffff1673ffffffffffffffffffffffffffffffffffffffff161415610979576040517f08c379a00000000000000000000000000000000000000000000000000000000081526004016109709061257a565b60405180910390fd5b60008211801561098a575060008151115b6109c9576040517f08c379a00000000000000000000000000000000000000000000000000000000081526004016109c09061263a565b60405180910390fd5b60003411610a0c576040517f08c379a0000000000000000000000000000000000000000000000000000000008152600401610a03906125ba565b60405180910390fd5b6000600360009054906101000a900473ffffffffffffffffffffffffffffffffffffffff1673ffffffffffffffffffffffffffffffffffffffff16634141a1276000846040518363ffffffff1660e01b8152600401610a6c92919061246c565b60206040518083038186803b158015610a8457600080fd5b505afa158015610a98573d6000803e3d6000fd5b505050506040513d601f19601f82011682018060405250810190610abc9190611dcd565b83610ac79190612883565b905060008111610b0c576040517f08c379a0000000000000000000000000000000000000000000000000000000008152600401610b039061263a565b60405180910390fd5b600073__LicenseTools__________________________6395a5148260006001866040518463ffffffff1660e01b8152600401610b4b9392919061249c565b60206040518083038186803b158015610b6357600080fd5b505af4158015610b77573d6000803e3d6000fd5b505050506040513d601f19601f82011682018060405250810190610b9b9190611dcd565b9050813414610bdf576040517f08c379a0000000000000000000000000000000000000000000000000000000008152600401610bd6906124fa565b60405180910390fd5b600260009054906101000a900473ffffffffffffffffffffffffffffffffffffffff1673ffffffffffffffffffffffffffffffffffffffff166320d966ca610c25611965565b87846001896040518663ffffffff1660e01b8152600401610c4a9594939291906123d4565b600060405180830381600087803b158015610c6457600080fd5b505af1158015610c78573d6000803e3d6000fd5b505050507faba64501a2b303b80e2e844af96c89be94891208d1f683030c532fa613db883a85604051610cab919061267a565b60405180910390a15050505050565b60008060009054906101000a900473ffffffffffffffffffffffffffffffffffffffff16905090565b6000600160008373ffffffffffffffffffffffffffffffffffffffff1673ffffffffffffffffffffffffffffffffffffffff16815260200190815260200160002060009054906101000a900473ffffffffffffffffffffffffffffffffffffffff169050919050565b6000600260009054906101000a900473ffffffffffffffffffffffffffffffffffffffff16905090565b600073ffffffffffffffffffffffffffffffffffffffff1660016000610d9a611965565b73ffffffffffffffffffffffffffffffffffffffff1673ffffffffffffffffffffffffffffffffffffffff16815260200190815260200160002060009054906101000a900473ffffffffffffffffffffffffffffffffffffffff1673ffffffffffffffffffffffffffffffffffffffff161415610e4c576040517f08c379a0000000000000000000000000000000000000000000000000000000008152600401610e439061257a565b60405180910390fd5b6000821180610e5c575060008151115b610e9b576040517f08c379a0000000000000000000000000000000000000000000000000000000008152600401610e929061263a565b60405180910390fd5b6000600260009054906101000a900473ffffffffffffffffffffffffffffffffffffffff1673ffffffffffffffffffffffffffffffffffffffff1663b2dd1212856040518263ffffffff1660e01b8152600401610ef8919061267a565b60e06040518083038186803b158015610f1057600080fd5b505afa158015610f24573d6000803e3d6000fd5b505050506040513d601f19601f82011682018060405250810190610f489190611da0565b905060006001811115610f5e57610f5d612a61565b5b8160a001516001811115610f7557610f74612a61565b5b1480610fb75750428160200151118015610fb65750600180811115610f9d57610f9c612a61565b5b8160a001516001811115610fb457610fb3612a61565b5b145b5b610ff6576040517f08c379a0000000000000000000000000000000000000000000000000000000008152600401610fed9061255a565b60405180910390fd5b6000600360009054906101000a900473ffffffffffffffffffffffffffffffffffffffff1673ffffffffffffffffffffffffffffffffffffffff16634141a1278360600151856040518363ffffffff1660e01b8152600401611059929190612695565b60206040518083038186803b15801561107157600080fd5b505afa158015611085573d6000803e3d6000fd5b505050506040513d601f19601f820116820180604052508101906110a99190611dcd565b905060006001808111156110c0576110bf612a61565b5b8360a0015160018111156110d7576110d6612a61565b5b146110f1578260800151826110ec9190612883565b61111b565b62278d0042846020015161110591906128dd565b836111109190612883565b61111a9190612852565b5b9050600073__LicenseTools__________________________6395a5148285606001516001886040518463ffffffff1660e01b815260040161115f939291906126c5565b60206040518083038186803b15801561117757600080fd5b505af415801561118b573d6000803e3d6000fd5b505050506040513d601f19601f820116820180604052508101906111af9190611dcd565b9050600086600360009054906101000a900473ffffffffffffffffffffffffffffffffffffffff1673ffffffffffffffffffffffffffffffffffffffff166359fdf051846040518263ffffffff1660e01b815260040161120f919061267a565b60206040518083038186803b15801561122757600080fd5b505afa15801561123b573d6000803e3d6000fd5b505050506040513d601f19601f8201168201806040525081019061125f9190611dcd565b6112699190612883565b90506000818461127991906127fc565b9050600081111561132e57803410156112c7576040517f08c379a00000000000000000000000000000000000000000000000000000000081526004016112be9061253a565b60405180910390fd5b600160643483346112d891906128dd565b6112e29190612852565b6112ec9190612883565b111561132d576040517f08c379a0000000000000000000000000000000000000000000000000000000008152600401611324906125ba565b60405180910390fd5b5b600260009054906101000a900473ffffffffffffffffffffffffffffffffffffffff1673ffffffffffffffffffffffffffffffffffffffff1663b99a6085611374611965565b8b868c6040518563ffffffff1660e01b81526004016113969493929190612427565b600060405180830381600087803b1580156113b057600080fd5b505af11580156113c4573d6000803e3d6000fd5b505050507faba64501a2b303b80e2e844af96c89be94891208d1f683030c532fa613db883a896040516113f7919061267a565b60405180910390a1505050505050505050565b600073ffffffffffffffffffffffffffffffffffffffff166001600061142e611965565b73ffffffffffffffffffffffffffffffffffffffff1673ffffffffffffffffffffffffffffffffffffffff16815260200190815260200160002060009054906101000a900473ffffffffffffffffffffffffffffffffffffffff1673ffffffffffffffffffffffffffffffffffffffff1614156114e0576040517f08c379a00000000000000000000000000000000000000000000000000000000081526004016114d79061257a565b60405180910390fd5b6000821180156114f1575060008151115b611530576040517f08c379a00000000000000000000000000000000000000000000000000000000081526004016115279061263a565b60405180910390fd5b60003411611573576040517f08c379a000000000000000000000000000000000000000000000000000000000815260040161156a906125ba565b60405180910390fd5b6000600360009054906101000a900473ffffffffffffffffffffffffffffffffffffffff1673ffffffffffffffffffffffffffffffffffffffff16634141a1276000846040518363ffffffff1660e01b81526004016115d392919061246c565b60206040518083038186803b1580156115eb57600080fd5b505afa1580156115ff573d6000803e3d6000fd5b505050506040513d601f19601f820116820180604052508101906116239190611dcd565b8361162e9190612883565b905060008111611673576040517f08c379a000000000000000000000000000000000000000000000000000000000815260040161166a9061263a565b60405180910390fd5b600073__LicenseTools__________________________6395a5148260006001866040518463ffffffff1660e01b81526004016116b29392919061249c565b60206040518083038186803b1580156116ca57600080fd5b505af41580156116de573d6000803e3d6000fd5b505050506040513d601f19601f820116820180604052508101906117029190611dcd565b9050813414611746576040517f08c379a000000000000000000000000000000000000000000000000000000000815260040161173d906124fa565b60405180910390fd5b6000600260009054906101000a900473ffffffffffffffffffffffffffffffffffffffff1673ffffffffffffffffffffffffffffffffffffffff1663a35e3ba961178e611965565b846001896040518563ffffffff1660e01b81526004016117b1949392919061238f565b602060405180830381600087803b1580156117cb57600080fd5b505af11580156117df573d6000803e3d6000fd5b505050506040513d601f19601f820116820180604052508101906118039190611dcd565b90507f3f17690aaa8e64a55f09b9045321ebce04e0ebe24999ca21ba145448422689b081604051611834919061267a565b60405180910390a15050505050565b6000600360009054906101000a900473ffffffffffffffffffffffffffffffffffffffff16905090565b611875611965565b73ffffffffffffffffffffffffffffffffffffffff16611893610cba565b73ffffffffffffffffffffffffffffffffffffffff16146118e9576040517f08c379a00000000000000000000000000000000000000000000000000000000081526004016118e09061261a565b60405180910390fd5b600073ffffffffffffffffffffffffffffffffffffffff168173ffffffffffffffffffffffffffffffffffffffff161415611959576040517f08c379a00000000000000000000000000000000000000000000000000000000081526004016119509061251a565b60405180910390fd5b6119628161196d565b50565b600033905090565b60008060009054906101000a900473ffffffffffffffffffffffffffffffffffffffff169050816000806101000a81548173ffffffffffffffffffffffffffffffffffffffff021916908373ffffffffffffffffffffffffffffffffffffffff1602179055508173ffffffffffffffffffffffffffffffffffffffff168173ffffffffffffffffffffffffffffffffffffffff167f8be0079c531659141344cd1fd0a4f28419497f9722a3daafe3b4186f6b6457e060405160405180910390a35050565b60006040517f3d602d80600a3d3981f3363d3d373d3d3d363d7300000000000000000000000081528260601b60148201527f5af43d82803e903d91602b57fd5bf3000000000000000000000000000000000060288201526037816000f0915050600073ffffffffffffffffffffffffffffffffffffffff168173ffffffffffffffffffffffffffffffffffffffff161415611b01576040517f08c379a0000000000000000000000000000000000000000000000000000000008152600401611af89061259a565b60405180910390fd5b919050565b6000611b19611b1484612728565b612703565b90508083825260208201905082856020860282011115611b3c57611b3b612ac9565b5b60005b85811015611b6c5781611b528882611d1c565b845260208401935060208301925050600181019050611b3f565b5050509392505050565b6000611b89611b8484612754565b612703565b905082815260208101848484011115611ba557611ba4612ace565b5b611bb0848285612990565b509392505050565b600081359050611bc781612d3d565b92915050565b600082601f830112611be257611be1612abf565b5b8135611bf2848260208601611b06565b91505092915050565b600081519050611c0a81612d54565b92915050565b600082601f830112611c2557611c24612abf565b5b8135611c35848260208601611b76565b91505092915050565b600081519050611c4d81612d6b565b92915050565b600081519050611c6281612d7b565b92915050565b600060e08284031215611c7e57611c7d612ac4565b5b611c8860e0612703565b90506000611c9884828501611d31565b6000830152506020611cac84828501611d31565b6020830152506040611cc084828501611d31565b6040830152506060611cd484828501611d31565b6060830152506080611ce884828501611d31565b60808301525060a0611cfc84828501611c3e565b60a08301525060c0611d1084828501611c53565b60c08301525092915050565b600081359050611d2b81612d8b565b92915050565b600081519050611d4081612d8b565b92915050565b600060208284031215611d5c57611d5b612ad8565b5b6000611d6a84828501611bb8565b91505092915050565b600060208284031215611d8957611d88612ad8565b5b6000611d9784828501611bfb565b91505092915050565b600060e08284031215611db657611db5612ad8565b5b6000611dc484828501611c68565b91505092915050565b600060208284031215611de357611de2612ad8565b5b6000611df184828501611d31565b91505092915050565b60008060408385031215611e1157611e10612ad8565b5b6000611e1f85828601611d1c565b925050602083013567ffffffffffffffff811115611e4057611e3f612ad3565b5b611e4c85828601611bcd565b9150509250929050565b60008060408385031215611e6d57611e6c612ad8565b5b6000611e7b85828601611d1c565b925050602083013567ffffffffffffffff811115611e9c57611e9b612ad3565b5b611ea885828601611c10565b9150509250929050565b600080600060608486031215611ecb57611eca612ad8565b5b6000611ed986828701611d1c565b9350506020611eea86828701611d1c565b925050604084013567ffffffffffffffff811115611f0b57611f0a612ad3565b5b611f1786828701611bcd565b9150509250925092565b6000611f2d838361228d565b60208301905092915050565b6000611f4583836122ba565b60208301905092915050565b611f5a81612911565b82525050565b611f6981612911565b82525050565b6000611f7a82612795565b611f8481856127b8565b9350611f8f83612785565b8060005b83811015611fc0578151611fa78882611f21565b9750611fb2836127ab565b925050600181019050611f93565b5085935050505092915050565b6000611fd882612795565b611fe281856127c9565b9350611fed83612785565b8060005b8381101561201e5781516120058882611f39565b9750612010836127ab565b925050600181019050611ff1565b5085935050505092915050565b61203481612923565b82525050565b6000612045826127a0565b61204f81856127da565b935061205f81856020860161299f565b61206881612add565b840191505092915050565b61207c8161296c565b82525050565b61208b8161297e565b82525050565b61209a8161297e565b82525050565b60006120ad6006836127eb565b91506120b882612aee565b602082019050919050565b60006120d06006836127eb565b91506120db82612b17565b602082019050919050565b60006120f36026836127eb565b91506120fe82612b40565b604082019050919050565b60006121166006836127eb565b915061212182612b8f565b602082019050919050565b60006121396006836127eb565b915061214482612bb8565b602082019050919050565b600061215c6007836127eb565b915061216782612be1565b602082019050919050565b600061217f6016836127eb565b915061218a82612c0a565b602082019050919050565b60006121a26006836127eb565b91506121ad82612c33565b602082019050919050565b60006121c56003836127eb565b91506121d082612c5c565b602082019050919050565b60006121e86006836127eb565b91506121f382612c85565b602082019050919050565b600061220b6020836127eb565b915061221682612cae565b602082019050919050565b600061222e6005836127eb565b915061223982612cd7565b602082019050919050565b60006122516006836127eb565b915061225c82612d00565b602082019050919050565b7f7265676973746572000000000000000000000000000000000000000000000000815250565b61229681612962565b82525050565b6122a581612962565b82525050565b6122b481612962565b82525050565b6122c381612962565b82525050565b60006020820190506122de6000830184611f51565b92915050565b600060a0820190506122f96000830188611f51565b6123066020830187611f51565b6123136040830186611f51565b6123206060830185611f51565b61232d6080830184611f51565b9695505050505050565b600060a08201905061234c6000830187611f60565b6123596020830186611f60565b61236660408301856122ab565b61237260608301612267565b8181036080830152612384818461203a565b905095945050505050565b60006080820190506123a46000830187611f51565b6123b1602083018661229c565b6123be6040830185612073565b6123cb606083018461229c565b95945050505050565b600060a0820190506123e96000830188611f51565b6123f6602083018761229c565b612403604083018661229c565b6124106060830185612073565b61241d608083018461229c565b9695505050505050565b600060808201905061243c6000830187611f51565b612449602083018661229c565b612456604083018561229c565b612463606083018461229c565b95945050505050565b60006040820190506124816000830185612082565b81810360208301526124938184611f6f565b90509392505050565b60006060820190506124b16000830186612091565b6124be602083018561202b565b81810360408301526124d08184611fcd565b9050949350505050565b600060208201905081810360008301526124f3816120a0565b9050919050565b60006020820190508181036000830152612513816120c3565b9050919050565b60006020820190508181036000830152612533816120e6565b9050919050565b6000602082019050818103600083015261255381612109565b9050919050565b600060208201905081810360008301526125738161212c565b9050919050565b600060208201905081810360008301526125938161214f565b9050919050565b600060208201905081810360008301526125b381612172565b9050919050565b600060208201905081810360008301526125d381612195565b9050919050565b600060208201905081810360008301526125f3816121b8565b9050919050565b60006020820190508181036000830152612613816121db565b9050919050565b60006020820190508181036000830152612633816121fe565b9050919050565b6000602082019050818103600083015261265381612221565b9050919050565b6000602082019050818103600083015261267381612244565b9050919050565b600060208201905061268f600083018461229c565b92915050565b60006040820190506126aa600083018561229c565b81810360208301526126bc8184611f6f565b90509392505050565b60006060820190506126da60008301866122ab565b6126e7602083018561202b565b81810360408301526126f98184611fcd565b9050949350505050565b600061270d61271e565b905061271982826129d2565b919050565b6000604051905090565b600067ffffffffffffffff82111561274357612742612a90565b5b602082029050602081019050919050565b600067ffffffffffffffff82111561276f5761276e612a90565b5b61277882612add565b9050602081019050919050565b6000819050602082019050919050565b600081519050919050565b600081519050919050565b6000602082019050919050565b600082825260208201905092915050565b600082825260208201905092915050565b600082825260208201905092915050565b600082825260208201905092915050565b600061280782612962565b915061281283612962565b9250827fffffffffffffffffffffffffffffffffffffffffffffffffffffffffffffffff0382111561284757612846612a03565b5b828201905092915050565b600061285d82612962565b915061286883612962565b92508261287857612877612a32565b5b828204905092915050565b600061288e82612962565b915061289983612962565b9250817fffffffffffffffffffffffffffffffffffffffffffffffffffffffffffffffff04831182151516156128d2576128d1612a03565b5b828202905092915050565b60006128e882612962565b91506128f383612962565b92508282101561290657612905612a03565b5b828203905092915050565b600061291c82612942565b9050919050565b60008115159050919050565b600081905061293d82612d29565b919050565b600073ffffffffffffffffffffffffffffffffffffffff82169050919050565b6000819050919050565b60006129778261292f565b9050919050565b600061298982612962565b9050919050565b82818337600083830152505050565b60005b838110156129bd5780820151818401526020810190506129a2565b838111156129cc576000848401525b50505050565b6129db82612add565b810181811067ffffffffffffffff821117156129fa576129f9612a90565b5b80604052505050565b7f4e487b7100000000000000000000000000000000000000000000000000000000600052601160045260246000fd5b7f4e487b7100000000000000000000000000000000000000000000000000000000600052601260045260246000fd5b7f4e487b7100000000000000000000000000000000000000000000000000000000600052602160045260246000fd5b7f4e487b7100000000000000000000000000000000000000000000000000000000600052604160045260246000fd5b600080fd5b600080fd5b600080fd5b600080fd5b600080fd5b600080fd5b6000601f19601f8301169050919050565b7f4552525349470000000000000000000000000000000000000000000000000000600082015250565b7f455252494e560000000000000000000000000000000000000000000000000000600082015250565b7f4f776e61626c653a206e6577206f776e657220697320746865207a65726f206160008201527f6464726573730000000000000000000000000000000000000000000000000000602082015250565b7f45525256414c0000000000000000000000000000000000000000000000000000600082015250565b7f4c49434558500000000000000000000000000000000000000000000000000000600082015250565b7f4e4f54464e445500000000000000000000000000000000000000000000000000600082015250565b7f455243313136373a20637265617465206661696c656400000000000000000000600082015250565b7f45525242414c0000000000000000000000000000000000000000000000000000600082015250565b7f464e440000000000000000000000000000000000000000000000000000000000600082015250565b7f45525246554e0000000000000000000000000000000000000000000000000000600082015250565b7f4f776e61626c653a2063616c6c6572206973206e6f7420746865206f776e6572600082015250565b7f455252494e000000000000000000000000000000000000000000000000000000600082015250565b7f554e415554480000000000000000000000000000000000000000000000000000600082015250565b60028110612d3a57612d39612a61565b5b50565b612d4681612911565b8114612d5157600080fd5b50565b612d5d81612923565b8114612d6857600080fd5b50565b60028110612d7857600080fd5b50565b60028110612d8857600080fd5b50565b612d9481612962565b8114612d9f57600080fd5b5056fea26469706673582212207975fcbc11bb7b25d4f2cd568f4f4e8d75a6178474c63ce03ce5c3c5c8cbc5a564736f6c6343000807003360806040526001600f60016101000a81548160ff02191690831515021790555034801561002b57600080fd5b50613a248061003b6000396000f3fe608060405234801561001057600080fd5b506004361061014d5760003560e01c806359d531c4116100c3578063be08fd081161007c578063be08fd08146103c0578063d547741f146103dc578063dc654125146103f8578063e4edf85214610416578063ea71fc5c14610432578063efaf61031461044e5761014d565b806359d531c414610312578063809852821461032e57806387c255e31461033857806391d14854146103565780639dd0725414610386578063a217fddf146103a25761014d565b80631c6f8e65116101155780631c6f8e651461022e578063248a9ca31461025e5780632f2ff15d1461028e57806336568abe146102aa57806340ad307f146102c6578063524236ce146102e25761014d565b806301ffc9a71461015257806304766a7a146101825780631101ed0a146101b25780631459457a146101e257806314a24952146101fe575b600080fd5b61016c60048036038101906101679190612b68565b61046a565b6040516101799190613072565b60405180910390f35b61019c600480360381019061019791906127bf565b6104e4565b6040516101a9919061308d565b60405180910390f35b6101cc60048036038101906101c79190612867565b6105ec565b6040516101d99190613072565b60405180910390f35b6101fc60048036038101906101f791906127ec565b6107d7565b005b61021860048036038101906102139190612b95565b610a41565b6040516102259190613050565b60405180910390f35b610248600480360381019061024391906128fa565b610b4f565b604051610255919061324a565b60405180910390f35b61027860048036038101906102739190612afb565b610c5d565b604051610285919061308d565b60405180910390f35b6102a860048036038101906102a39190612b28565b610c7c565b005b6102c460048036038101906102bf9190612b28565b610ca5565b005b6102e060048036038101906102db91906128ba565b610d28565b005b6102fc60048036038101906102f79190612bc2565b610e2f565b6040516103099190613072565b60405180910390f35b61032c60048036038101906103279190612bc2565b610f12565b005b610336610fdb565b005b6103406111ba565b60405161034d919061324a565b60405180910390f35b610370600480360381019061036b9190612b28565b611213565b60405161037d9190613072565b60405180910390f35b6103a0600480360381019061039b9190612aa1565b61127d565b005b6103aa611331565b6040516103b7919061308d565b60405180910390f35b6103da60048036038101906103d591906128fa565b611338565b005b6103f660048036038101906103f19190612b28565b611633565b005b61040061165c565b60405161040d919061324a565b60405180910390f35b610430600480360381019061042b91906127bf565b6117de565b005b61044c6004803603810190610447919061293a565b6118b9565b005b610468600480360381019061046391906129e3565b611dd4565b005b60007f7965db0b000000000000000000000000000000000000000000000000000000007bffffffffffffffffffffffffffffffffffffffffffffffffffffffff1916827bffffffffffffffffffffffffffffffffffffffffffffffffffffffff191614806104dd57506104dc82611eee565b5b9050919050565b6000600f60019054906101000a900460ff16610535576040517f08c379a000000000000000000000000000000000000000000000000000000000815260040161052c906131aa565b60405180910390fd5b6105667fb19546dff01e856fb3f010c267a7b1c60363cf8a4664e21cc89c26224620214e610561611f58565b611213565b6105a5576040517f08c379a000000000000000000000000000000000000000000000000000000000815260040161059c906131ea565b60405180910390fd5b600760008373ffffffffffffffffffffffffffffffffffffffff1673ffffffffffffffffffffffffffffffffffffffff168152602001908152602001600020549050919050565b6000600f60019054906101000a900460ff1661063d576040517f08c379a0000000000000000000000000000000000000000000000000000000008152600401610634906131aa565b60405180910390fd5b8373ffffffffffffffffffffffffffffffffffffffff16600160009054906101000a900473ffffffffffffffffffffffffffffffffffffffff1673ffffffffffffffffffffffffffffffffffffffff16146106cd576040517f08c379a00000000000000000000000000000000000000000000000000000000081526004016106c49061314a565b60405180910390fd5b6106d682610e2f565b156106e457600190506107d0565b6106f883600a611f6090919063ffffffff16565b61070557600090506107d0565b73__LicenseTools__________________________63995e9228600660008673ffffffffffffffffffffffffffffffffffffffff1673ffffffffffffffffffffffffffffffffffffffff16815260200190815260200160002054846040518363ffffffff1660e01b815260040161077d929190613265565b60206040518083038186803b15801561079557600080fd5b505af41580156107a9573d6000803e3d6000fd5b505050506040513d601f19601f820116820180604052508101906107cd9190612ace565b90505b9392505050565b600f60009054906101000a900460ff1615610827576040517f08c379a000000000000000000000000000000000000000000000000000000000815260040161081e906131ca565b60405180910390fd5b84600260006101000a81548173ffffffffffffffffffffffffffffffffffffffff021916908373ffffffffffffffffffffffffffffffffffffffff16021790555083600360006101000a81548173ffffffffffffffffffffffffffffffffffffffff021916908373ffffffffffffffffffffffffffffffffffffffff16021790555082600160006101000a81548173ffffffffffffffffffffffffffffffffffffffff021916908373ffffffffffffffffffffffffffffffffffffffff1602179055506109367fb19546dff01e856fb3f010c267a7b1c60363cf8a4664e21cc89c26224620214e600160009054906101000a900473ffffffffffffffffffffffffffffffffffffffff16611f90565b6109827f241ecf16d79d0f8dbfb92cbc07fe17840425976cf0667f022fe9877caa831b08600260009054906101000a900473ffffffffffffffffffffffffffffffffffffffff16611f90565b81600c60006101000a81548173ffffffffffffffffffffffffffffffffffffffff021916908373ffffffffffffffffffffffffffffffffffffffff16021790555080600d60006101000a81548173ffffffffffffffffffffffffffffffffffffffff021916908373ffffffffffffffffffffffffffffffffffffffff1602179055506001600f60006101000a81548160ff0219169083151502179055506001600f60016101000a81548160ff0219169083151502179055505050505050565b6060600f60019054906101000a900460ff16610a92576040517f08c379a0000000000000000000000000000000000000000000000000000000008152600401610a89906131aa565b60405180910390fd5b610ac37fb19546dff01e856fb3f010c267a7b1c60363cf8a4664e21cc89c26224620214e610abe611f58565b611213565b610b02576040517f08c379a0000000000000000000000000000000000000000000000000000000008152600401610af9906131ea565b60405180910390fd5b60006001811115610b1657610b15613600565b5b826001811115610b2957610b28613600565b5b14610b3d57610b38600a611f9e565b610b48565b610b476008611f9e565b5b9050919050565b6000600f60019054906101000a900460ff16610ba0576040517f08c379a0000000000000000000000000000000000000000000000000000000008152600401610b97906131aa565b60405180910390fd5b60006001811115610bb457610bb3613600565b5b826001811115610bc757610bc6613600565b5b1415610c1457600560008473ffffffffffffffffffffffffffffffffffffffff1673ffffffffffffffffffffffffffffffffffffffff168152602001908152602001600020549050610c57565b600660008473ffffffffffffffffffffffffffffffffffffffff1673ffffffffffffffffffffffffffffffffffffffff1681526020019081526020016000205490505b92915050565b6000806000838152602001908152602001600020600101549050919050565b610c8582610c5d565b610c9681610c91611f58565b611fbf565b610ca0838361205c565b505050565b610cad611f58565b73ffffffffffffffffffffffffffffffffffffffff168173ffffffffffffffffffffffffffffffffffffffff1614610d1a576040517f08c379a0000000000000000000000000000000000000000000000000000000008152600401610d119061322a565b60405180910390fd5b610d24828261213c565b5050565b600f60019054906101000a900460ff16610d77576040517f08c379a0000000000000000000000000000000000000000000000000000000008152600401610d6e906131aa565b60405180910390fd5b610da87fb19546dff01e856fb3f010c267a7b1c60363cf8a4664e21cc89c26224620214e610da3611f58565b611213565b610de7576040517f08c379a0000000000000000000000000000000000000000000000000000000008152600401610dde906131ea565b60405180910390fd5b80600760008473ffffffffffffffffffffffffffffffffffffffff1673ffffffffffffffffffffffffffffffffffffffff168152602001908152602001600020819055505050565b6000600f60019054906101000a900460ff16610e80576040517f08c379a0000000000000000000000000000000000000000000000000000000008152600401610e77906131aa565b60405180910390fd5b73__LicenseTools__________________________63995e9228600e54846040518363ffffffff1660e01b8152600401610ebb929190613265565b60206040518083038186803b158015610ed357600080fd5b505af4158015610ee7573d6000803e3d6000fd5b505050506040513d601f19601f82011682018060405250810190610f0b9190612ace565b9050919050565b600f60019054906101000a900460ff16610f61576040517f08c379a0000000000000000000000000000000000000000000000000000000008152600401610f58906131aa565b60405180910390fd5b610f927fb19546dff01e856fb3f010c267a7b1c60363cf8a4664e21cc89c26224620214e610f8d611f58565b611213565b610fd1576040517f08c379a0000000000000000000000000000000000000000000000000000000008152600401610fc8906131ea565b60405180910390fd5b80600e8190555050565b600f60019054906101000a900460ff1661102a576040517f08c379a0000000000000000000000000000000000000000000000000000000008152600401611021906131aa565b60405180910390fd5b611032611f58565b60016000600181111561104857611047613600565b5b81600181111561105b5761105a613600565b5b14156110b957611075826008611f6090919063ffffffff16565b6110b4576040517f08c379a00000000000000000000000000000000000000000000000000000000081526004016110ab9061320a565b60405180910390fd5b61110d565b6110cd82600a611f6090919063ffffffff16565b61110c576040517f08c379a00000000000000000000000000000000000000000000000000000000081526004016111039061318a565b60405180910390fd5b5b611128611118611f58565b600a61221d90919063ffffffff16565b50600060066000611137611f58565b73ffffffffffffffffffffffffffffffffffffffff1673ffffffffffffffffffffffffffffffffffffffff168152602001908152602001600020819055507f529ecbc3c68c3d2c7bb008ee044e1a240723013a8c3456abaed0d80bcab7eb8161119e611f58565b60006040516111ae929190612ffe565b60405180910390a15050565b6000600f60019054906101000a900460ff1661120b576040517f08c379a0000000000000000000000000000000000000000000000000000000008152600401611202906131aa565b60405180910390fd5b600e54905090565b600080600084815260200190815260200160002060000160008373ffffffffffffffffffffffffffffffffffffffff1673ffffffffffffffffffffffffffffffffffffffff16815260200190815260200160002060009054906101000a900460ff16905092915050565b611285611f58565b73ffffffffffffffffffffffffffffffffffffffff16600360009054906101000a900473ffffffffffffffffffffffffffffffffffffffff1673ffffffffffffffffffffffffffffffffffffffff1614611314576040517f08c379a000000000000000000000000000000000000000000000000000000000815260040161130b906131ea565b60405180910390fd5b80600f60016101000a81548160ff02191690831515021790555050565b6000801b81565b600f60019054906101000a900460ff16611387576040517f08c379a000000000000000000000000000000000000000000000000000000000815260040161137e906131aa565b60405180910390fd5b81816000600181111561139d5761139c613600565b5b8160018111156113b0576113af613600565b5b141561140e576113ca826008611f6090919063ffffffff16565b611409576040517f08c379a00000000000000000000000000000000000000000000000000000000081526004016114009061320a565b60405180910390fd5b611462565b61142282600a611f6090919063ffffffff16565b611461576040517f08c379a00000000000000000000000000000000000000000000000000000000081526004016114589061318a565b60405180910390fd5b5b6114937fb19546dff01e856fb3f010c267a7b1c60363cf8a4664e21cc89c26224620214e61148e611f58565b611213565b6114d2576040517f08c379a00000000000000000000000000000000000000000000000000000000081526004016114c9906131ea565b60405180910390fd5b600060018111156114e6576114e5613600565b5b8360018111156114f9576114f8613600565b5b14156115985761151384600861221d90919063ffffffff16565b506000600560008673ffffffffffffffffffffffffffffffffffffffff1673ffffffffffffffffffffffffffffffffffffffff168152602001908152602001600020819055507fcd54d7e6dbadcd67bf2dc5740d6441fea3d13493ee22d7beeae303625a89d42684600060405161158b929190612ffe565b60405180910390a161162d565b6115ac84600a61221d90919063ffffffff16565b506000600660008673ffffffffffffffffffffffffffffffffffffffff1673ffffffffffffffffffffffffffffffffffffffff168152602001908152602001600020819055507f529ecbc3c68c3d2c7bb008ee044e1a240723013a8c3456abaed0d80bcab7eb81846000604051611624929190612ffe565b60405180910390a15b50505050565b61163c82610c5d565b61164d81611648611f58565b611fbf565b611657838361213c565b505050565b6000600f60019054906101000a900460ff166116ad576040517f08c379a00000000000000000000000000000000000000000000000000000000081526004016116a4906131aa565b60405180910390fd5b6116b5611f58565b6001600060018111156116cb576116ca613600565b5b8160018111156116de576116dd613600565b5b141561173c576116f8826008611f6090919063ffffffff16565b611737576040517f08c379a000000000000000000000000000000000000000000000000000000000815260040161172e9061320a565b60405180910390fd5b611790565b61175082600a611f6090919063ffffffff16565b61178f576040517f08c379a00000000000000000000000000000000000000000000000000000000081526004016117869061318a565b60405180910390fd5b5b6006600061179c611f58565b73ffffffffffffffffffffffffffffffffffffffff1673ffffffffffffffffffffffffffffffffffffffff168152602001908152602001600020549250505090565b6117e6611f58565b73ffffffffffffffffffffffffffffffffffffffff16600360009054906101000a900473ffffffffffffffffffffffffffffffffffffffff1673ffffffffffffffffffffffffffffffffffffffff1614611875576040517f08c379a000000000000000000000000000000000000000000000000000000000815260040161186c906131ea565b60405180910390fd5b80600260006101000a81548173ffffffffffffffffffffffffffffffffffffffff021916908373ffffffffffffffffffffffffffffffffffffffff16021790555050565b600f60019054906101000a900460ff16611908576040517f08c379a00000000000000000000000000000000000000000000000000000000081526004016118ff906131aa565b60405180910390fd5b6119397fb19546dff01e856fb3f010c267a7b1c60363cf8a4664e21cc89c26224620214e611934611f58565b611213565b611978576040517f08c379a000000000000000000000000000000000000000000000000000000000815260040161196f906131ea565b60405180910390fd5b60008514156119bc576040517f08c379a00000000000000000000000000000000000000000000000000000000081526004016119b39061316a565b60405180910390fd5b600115158215151415611b71576001151573__VerifySignature_______________________6365ac0b7e886119f0611f58565b88886001811115611a0457611a03613600565b5b876040518663ffffffff1660e01b8152600401611a25959493929190612fa4565b60206040518083038186803b158015611a3d57600080fd5b505af4158015611a51573d6000803e3d6000fd5b505050506040513d601f19601f82011682018060405250810190611a759190612ace565b151514611ab7576040517f08c379a0000000000000000000000000000000000000000000000000000000008152600401611aae906130ea565b60405180910390fd5b836103e842611ac691906133e7565b11611b06576040517f08c379a0000000000000000000000000000000000000000000000000000000008152600401611afd9061314a565b60405180910390fd5b620697806103e8856103e842611b1c91906133e7565b611b269190613441565b611b3091906133b6565b10611b70576040517f08c379a0000000000000000000000000000000000000000000000000000000008152600401611b679061310a565b60405180910390fd5b5b60006001811115611b8557611b84613600565b5b836001811115611b9857611b97613600565b5b1415611cb75784600560008873ffffffffffffffffffffffffffffffffffffffff1673ffffffffffffffffffffffffffffffffffffffff168152602001908152602001600020541415611c20576040517f08c379a0000000000000000000000000000000000000000000000000000000008152600401611c179061312a565b60405180910390fd5b611c3486600861224d90919063ffffffff16565b5084600560008873ffffffffffffffffffffffffffffffffffffffff1673ffffffffffffffffffffffffffffffffffffffff168152602001908152602001600020819055507fcd54d7e6dbadcd67bf2dc5740d6441fea3d13493ee22d7beeae303625a89d4268686604051611caa929190613027565b60405180910390a1611dcc565b84600660008873ffffffffffffffffffffffffffffffffffffffff1673ffffffffffffffffffffffffffffffffffffffff168152602001908152602001600020541415611d39576040517f08c379a0000000000000000000000000000000000000000000000000000000008152600401611d309061312a565b60405180910390fd5b611d4d86600a61224d90919063ffffffff16565b5084600660008873ffffffffffffffffffffffffffffffffffffffff1673ffffffffffffffffffffffffffffffffffffffff168152602001908152602001600020819055507f529ecbc3c68c3d2c7bb008ee044e1a240723013a8c3456abaed0d80bcab7eb818686604051611dc3929190613027565b60405180910390a15b505050505050565b600f60019054906101000a900460ff16611e23576040517f08c379a0000000000000000000000000000000000000000000000000000000008152600401611e1a906131aa565b60405180910390fd5b611e547fb19546dff01e856fb3f010c267a7b1c60363cf8a4664e21cc89c26224620214e611e4f611f58565b611213565b611e93576040517f08c379a0000000000000000000000000000000000000000000000000000000008152600401611e8a906131ea565b60405180910390fd5b82600760008973ffffffffffffffffffffffffffffffffffffffff1673ffffffffffffffffffffffffffffffffffffffff16815260200190815260200160002081905550611ee58787878786866118b9565b50505050505050565b60007f01ffc9a7000000000000000000000000000000000000000000000000000000007bffffffffffffffffffffffffffffffffffffffffffffffffffffffff1916827bffffffffffffffffffffffffffffffffffffffffffffffffffffffff1916149050919050565b600033905090565b6000611f88836000018373ffffffffffffffffffffffffffffffffffffffff1660001b61227d565b905092915050565b611f9a828261205c565b5050565b60606000611fae836000016122a0565b905060608190508092505050919050565b611fc98282611213565b61205857611fee8173ffffffffffffffffffffffffffffffffffffffff1660146122fc565b611ffc8360001c60206122fc565b60405160200161200d929190612f6a565b6040516020818303038152906040526040517f08c379a000000000000000000000000000000000000000000000000000000000815260040161204f91906130a8565b60405180910390fd5b5050565b6120668282611213565b61213857600160008084815260200190815260200160002060000160008373ffffffffffffffffffffffffffffffffffffffff1673ffffffffffffffffffffffffffffffffffffffff16815260200190815260200160002060006101000a81548160ff0219169083151502179055506120dd611f58565b73ffffffffffffffffffffffffffffffffffffffff168173ffffffffffffffffffffffffffffffffffffffff16837f2f8788117e7eff1d82e926ec794901d17c78024a50270940304540a733656f0d60405160405180910390a45b5050565b6121468282611213565b1561221957600080600084815260200190815260200160002060000160008373ffffffffffffffffffffffffffffffffffffffff1673ffffffffffffffffffffffffffffffffffffffff16815260200190815260200160002060006101000a81548160ff0219169083151502179055506121be611f58565b73ffffffffffffffffffffffffffffffffffffffff168173ffffffffffffffffffffffffffffffffffffffff16837ff6391f5c32d9c69d2a47ea670b442974b53935d1edc7fd64eb21e047a839171b60405160405180910390a45b5050565b6000612245836000018373ffffffffffffffffffffffffffffffffffffffff1660001b612538565b905092915050565b6000612275836000018373ffffffffffffffffffffffffffffffffffffffff1660001b61264c565b905092915050565b600080836001016000848152602001908152602001600020541415905092915050565b6060816000018054806020026020016040519081016040528092919081815260200182805480156122f057602002820191906000526020600020905b8154815260200190600101908083116122dc575b50505050509050919050565b60606000600283600261230f91906133e7565b6123199190613360565b67ffffffffffffffff8111156123325761233161368d565b5b6040519080825280601f01601f1916602001820160405280156123645781602001600182028036833780820191505090505b5090507f30000000000000000000000000000000000000000000000000000000000000008160008151811061239c5761239b61365e565b5b60200101907effffffffffffffffffffffffffffffffffffffffffffffffffffffffffffff1916908160001a9053507f780000000000000000000000000000000000000000000000000000000000000081600181518110612400576123ff61365e565b5b60200101907effffffffffffffffffffffffffffffffffffffffffffffffffffffffffffff1916908160001a9053506000600184600261244091906133e7565b61244a9190613360565b90505b60018111156124ea577f3031323334353637383961626364656600000000000000000000000000000000600f86166010811061248c5761248b61365e565b5b1a60f81b8282815181106124a3576124a261365e565b5b60200101907effffffffffffffffffffffffffffffffffffffffffffffffffffffffffffff1916908160001a905350600485901c9450806124e390613547565b905061244d565b506000841461252e576040517f08c379a0000000000000000000000000000000000000000000000000000000008152600401612525906130ca565b60405180910390fd5b8091505092915050565b6000808360010160008481526020019081526020016000205490506000811461264057600060018261256a9190613441565b90506000600186600001805490506125829190613441565b90508181146125f15760008660000182815481106125a3576125a261365e565b5b90600052602060002001549050808760000184815481106125c7576125c661365e565b5b90600052602060002001819055508387600101600083815260200190815260200160002081905550505b856000018054806126055761260461362f565b5b600190038181906000526020600020016000905590558560010160008681526020019081526020016000206000905560019350505050612646565b60009150505b92915050565b6000612658838361227d565b6126b15782600001829080600181540180825580915050600190039060005260206000200160009091909190915055826000018054905083600101600084815260200190815260200160002081905550600190506126b6565b600090505b92915050565b60006126cf6126ca846132b3565b61328e565b9050828152602081018484840111156126eb576126ea6136c1565b5b6126f6848285613505565b509392505050565b60008135905061270d8161396b565b92915050565b60008135905061272281613982565b92915050565b60008151905061273781613982565b92915050565b60008135905061274c81613999565b92915050565b600081359050612761816139b0565b92915050565b600082601f83011261277c5761277b6136bc565b5b813561278c8482602086016126bc565b91505092915050565b6000813590506127a4816139c7565b92915050565b6000813590506127b9816139d7565b92915050565b6000602082840312156127d5576127d46136cb565b5b60006127e3848285016126fe565b91505092915050565b600080600080600060a08688031215612808576128076136cb565b5b6000612816888289016126fe565b9550506020612827888289016126fe565b9450506040612838888289016126fe565b9350506060612849888289016126fe565b925050608061285a888289016126fe565b9150509295509295909350565b6000806000606084860312156128805761287f6136cb565b5b600061288e868287016126fe565b935050602061289f868287016126fe565b92505060406128b0868287016127aa565b9150509250925092565b600080604083850312156128d1576128d06136cb565b5b60006128df858286016126fe565b92505060206128f08582860161273d565b9150509250929050565b60008060408385031215612911576129106136cb565b5b600061291f858286016126fe565b925050602061293085828601612795565b9150509250929050565b60008060008060008060c08789031215612957576129566136cb565b5b600061296589828a016126fe565b965050602061297689828a016127aa565b955050604061298789828a016127aa565b945050606061299889828a01612795565b93505060806129a989828a01612713565b92505060a087013567ffffffffffffffff8111156129ca576129c96136c6565b5b6129d689828a01612767565b9150509295509295509295565b600080600080600080600060e0888a031215612a0257612a016136cb565b5b6000612a108a828b016126fe565b9750506020612a218a828b016127aa565b9650506040612a328a828b016127aa565b9550506060612a438a828b01612795565b9450506080612a548a828b0161273d565b93505060a0612a658a828b01612713565b92505060c088013567ffffffffffffffff811115612a8657612a856136c6565b5b612a928a828b01612767565b91505092959891949750929550565b600060208284031215612ab757612ab66136cb565b5b6000612ac584828501612713565b91505092915050565b600060208284031215612ae457612ae36136cb565b5b6000612af284828501612728565b91505092915050565b600060208284031215612b1157612b106136cb565b5b6000612b1f8482850161273d565b91505092915050565b60008060408385031215612b3f57612b3e6136cb565b5b6000612b4d8582860161273d565b9250506020612b5e858286016126fe565b9150509250929050565b600060208284031215612b7e57612b7d6136cb565b5b6000612b8c84828501612752565b91505092915050565b600060208284031215612bab57612baa6136cb565b5b6000612bb984828501612795565b91505092915050565b600060208284031215612bd857612bd76136cb565b5b6000612be6848285016127aa565b91505092915050565b6000612bfb8383612c07565b60208301905092915050565b612c1081613475565b82525050565b612c1f81613475565b82525050565b612c2e81613475565b82525050565b6000612c3f826132f4565b612c498185613322565b9350612c54836132e4565b8060005b83811015612c85578151612c6c8882612bef565b9750612c7783613315565b925050600181019050612c58565b5085935050505092915050565b612c9b81613487565b82525050565b612caa81613493565b82525050565b6000612cbb826132ff565b612cc58185613333565b9350612cd5818560208601613514565b612cde816136d0565b840191505092915050565b612cf2816134f3565b82525050565b6000612d038261330a565b612d0d8185613344565b9350612d1d818560208601613514565b612d26816136d0565b840191505092915050565b6000612d3c8261330a565b612d468185613355565b9350612d56818560208601613514565b80840191505092915050565b6000612d6f602083613344565b9150612d7a826136e1565b602082019050919050565b6000612d92600683613344565b9150612d9d8261370a565b602082019050919050565b6000612db5600683613344565b9150612dc082613733565b602082019050919050565b6000612dd8600683613344565b9150612de38261375c565b602082019050919050565b6000612dfb600583613344565b9150612e0682613785565b602082019050919050565b6000612e1e600583613344565b9150612e29826137ae565b602082019050919050565b6000612e41600683613344565b9150612e4c826137d7565b602082019050919050565b6000612e64600683613344565b9150612e6f82613800565b602082019050919050565b6000612e87602e83613344565b9150612e9282613829565b604082019050919050565b6000612eaa600683613344565b9150612eb582613878565b602082019050919050565b6000612ecd601783613355565b9150612ed8826138a1565b601782019050919050565b6000612ef0600683613344565b9150612efb826138ca565b602082019050919050565b6000612f13601183613355565b9150612f1e826138f3565b601182019050919050565b6000612f36602f83613344565b9150612f418261391c565b604082019050919050565b612f55816134e9565b82525050565b612f64816134e9565b82525050565b6000612f7582612ec0565b9150612f818285612d31565b9150612f8c82612f06565b9150612f988284612d31565b91508190509392505050565b600060a082019050612fb96000830188612c25565b612fc66020830187612c25565b612fd36040830186612f5b565b612fe06060830185612f5b565b8181036080830152612ff28184612cb0565b90509695505050505050565b60006040820190506130136000830185612c16565b6130206020830184612ce9565b9392505050565b600060408201905061303c6000830185612c16565b6130496020830184612f4c565b9392505050565b6000602082019050818103600083015261306a8184612c34565b905092915050565b60006020820190506130876000830184612c92565b92915050565b60006020820190506130a26000830184612ca1565b92915050565b600060208201905081810360008301526130c28184612cf8565b905092915050565b600060208201905081810360008301526130e381612d62565b9050919050565b6000602082019050818103600083015261310381612d85565b9050919050565b6000602082019050818103600083015261312381612da8565b9050919050565b6000602082019050818103600083015261314381612dcb565b9050919050565b6000602082019050818103600083015261316381612dee565b9050919050565b6000602082019050818103600083015261318381612e11565b9050919050565b600060208201905081810360008301526131a381612e34565b9050919050565b600060208201905081810360008301526131c381612e57565b9050919050565b600060208201905081810360008301526131e381612e7a565b9050919050565b6000602082019050818103600083015261320381612e9d565b9050919050565b6000602082019050818103600083015261322381612ee3565b9050919050565b6000602082019050818103600083015261324381612f29565b9050919050565b600060208201905061325f6000830184612f4c565b92915050565b600060408201905061327a6000830185612f5b565b6132876020830184612f5b565b9392505050565b60006132986132a9565b90506132a48282613571565b919050565b6000604051905090565b600067ffffffffffffffff8211156132ce576132cd61368d565b5b6132d7826136d0565b9050602081019050919050565b6000819050602082019050919050565b600081519050919050565b600081519050919050565b600081519050919050565b6000602082019050919050565b600082825260208201905092915050565b600082825260208201905092915050565b600082825260208201905092915050565b600081905092915050565b600061336b826134e9565b9150613376836134e9565b9250827fffffffffffffffffffffffffffffffffffffffffffffffffffffffffffffffff038211156133ab576133aa6135a2565b5b828201905092915050565b60006133c1826134e9565b91506133cc836134e9565b9250826133dc576133db6135d1565b5b828204905092915050565b60006133f2826134e9565b91506133fd836134e9565b9250817fffffffffffffffffffffffffffffffffffffffffffffffffffffffffffffffff0483118215151615613436576134356135a2565b5b828202905092915050565b600061344c826134e9565b9150613457836134e9565b92508282101561346a576134696135a2565b5b828203905092915050565b6000613480826134c9565b9050919050565b60008115159050919050565b6000819050919050565b60007fffffffff0000000000000000000000000000000000000000000000000000000082169050919050565b600073ffffffffffffffffffffffffffffffffffffffff82169050919050565b6000819050919050565b60006134fe826134e9565b9050919050565b82818337600083830152505050565b60005b83811015613532578082015181840152602081019050613517565b83811115613541576000848401525b50505050565b6000613552826134e9565b91506000821415613566576135656135a2565b5b600182039050919050565b61357a826136d0565b810181811067ffffffffffffffff821117156135995761359861368d565b5b80604052505050565b7f4e487b7100000000000000000000000000000000000000000000000000000000600052601160045260246000fd5b7f4e487b7100000000000000000000000000000000000000000000000000000000600052601260045260246000fd5b7f4e487b7100000000000000000000000000000000000000000000000000000000600052602160045260246000fd5b7f4e487b7100000000000000000000000000000000000000000000000000000000600052603160045260246000fd5b7f4e487b7100000000000000000000000000000000000000000000000000000000600052603260045260246000fd5b7f4e487b7100000000000000000000000000000000000000000000000000000000600052604160045260246000fd5b600080fd5b600080fd5b600080fd5b600080fd5b6000601f19601f8301169050919050565b7f537472696e67733a20686578206c656e67746820696e73756666696369656e74600082015250565b7f4552525349470000000000000000000000000000000000000000000000000000600082015250565b7f4f4c445245510000000000000000000000000000000000000000000000000000600082015250565b7f4552525045520000000000000000000000000000000000000000000000000000600082015250565b7f4241445251000000000000000000000000000000000000000000000000000000600082015250565b7f4e44504552000000000000000000000000000000000000000000000000000000600082015250565b7f4e4f544657520000000000000000000000000000000000000000000000000000600082015250565b7f494e414354560000000000000000000000000000000000000000000000000000600082015250565b7f436f6e747261637420696e7374616e63652068617320616c726561647920626560008201527f656e20696e697469616c697a6564000000000000000000000000000000000000602082015250565b7f554e415554480000000000000000000000000000000000000000000000000000600082015250565b7f416363657373436f6e74726f6c3a206163636f756e7420000000000000000000600082015250565b7f4e4f544657470000000000000000000000000000000000000000000000000000600082015250565b7f206973206d697373696e6720726f6c6520000000000000000000000000000000600082015250565b7f416363657373436f6e74726f6c3a2063616e206f6e6c792072656e6f756e636560008201527f20726f6c657320666f722073656c660000000000000000000000000000000000602082015250565b61397481613475565b811461397f57600080fd5b50565b61398b81613487565b811461399657600080fd5b50565b6139a281613493565b81146139ad57600080fd5b50565b6139b98161349d565b81146139c457600080fd5b50565b600281106139d457600080fd5b50565b6139e0816134e9565b81146139eb57600080fd5b5056fea26469706673582212207eaad48a9428f1e7890b2ac14d91a8802c29755048f589d7b36e019cfe4906d664736f6c63430008070033",
  "immutableReferences": {
    "4249": [
      {
        "length": 32,
        "start": 1676
      }
    ]
  },
  "source": "// SPDX-License-Identifier: GPL-3.0\r\npragma solidity >=0.4.25 <0.9.0;\r\nimport \"@openzeppelin/contracts/access/Ownable.sol\";\r\nimport \"@openzeppelin/contracts/proxy/Clones.sol\";\r\nimport \"@openzeppelin/contracts/utils/structs/EnumerableSet.sol\";\r\n\r\nimport \"./LicenseToken.sol\";\r\nimport \"./VerifySignature.sol\";\r\nimport \"./UserMonitoringCenter.sol\";\r\nimport \"./ServiceManager.sol\";\r\n\r\ncontract ManagementCenter is Ownable {\r\n    /******************************\r\n        STATEMENTS\r\n    ******************************/\r\n    using EnumerableSet for EnumerableSet.UintSet;\r\n    /******************************\r\n        CONSTANTS\r\n    ******************************/\r\n    uint256 public constant updateDataCost = 10000;\r\n\r\n    /******************************\r\n        EVENTS\r\n    ******************************/\r\n    event ManagerTransactionFeedValueChanged(uint256 value);\r\n    event UsersContractCreated(address contractAddress);\r\n    event BuyTokens(address buyer, uint256 amountOfETH, uint256 amountOfTokens);\r\n    event TokensMinted(address buyer, uint256 amountOfETH);\r\n    event ChangeEtherBalance(uint256 value);\r\n    event NewPrivateLicenseEmitted(uint256 licenseId);\r\n    event PrivateLicenseUpdated(uint256 licenseId);\r\n    event ReadUpdatedData(string data, uint256 updateTime);\r\n\r\n    /***********************ChangeEtherBalance*******\r\n        VARIABLES\r\n    ******************************/\r\n\r\n    // _users Contract Address set\r\n    mapping(address => address) _usersContractAddresses;\r\n\r\n    address immutable userCenterImplementation;\r\n\r\n    // ECR 721 Licence\r\n    LicenseToken LicenseTokenInstance;\r\n    // Service Manager\r\n    ServiceManager ServiceManagerInstance;\r\n\r\n    /**\r\n     * @notice constructor function\r\n     */\r\n    constructor(\r\n        address LicenseLVCAddress,\r\n        address ServiceManagerAddress\r\n    ) {\r\n        userCenterImplementation = address(new UserMonitoringCenter());\r\n        LicenseTokenInstance = LicenseToken(LicenseLVCAddress);\r\n        ServiceManagerInstance = ServiceManager(ServiceManagerAddress);\r\n    }\r\n\r\n    //Modifiers\r\n    modifier onlyRegisteredUsers() {\r\n        require(_usersContractAddresses[_msgSender()] != address(0), \"NOTFNDU\");\r\n        _;\r\n    }\r\n\r\n    // GETTERS\r\n\r\n    /**\r\n     * @notice Get the License Token Address\r\n     */\r\n    function getLicenseTokenAddress() public view returns (address) {\r\n        return address(LicenseTokenInstance);\r\n    }\r\n\r\n    /**\r\n     * @notice Get Service Manager Address\r\n     */\r\n    function getServiceManagerAddress() public view returns (address) {\r\n        return address(ServiceManagerInstance);\r\n    }\r\n\r\n    /**\r\n     * @notice Verify an address\r\n     * @param signature signature\r\n     * @param nonce nonce\r\n     */\r\n    function register(uint256 nonce, bytes memory signature)\r\n        public\r\n        returns (address)\r\n    {\r\n        require(_msgSender() != owner(), \"UNAUTH\");\r\n        require(_usersContractAddresses[_msgSender()] == address(0), \"FND\");\r\n        require(\r\n            VerifySignature.verifyRegistration(\r\n                _msgSender(),\r\n                address(this),\r\n                nonce,\r\n                \"register\",\r\n                signature\r\n            ) == true,\r\n            \"ERRSIG\"\r\n        );\r\n        address clone = Clones.clone(userCenterImplementation);\r\n        UserMonitoringCenter(clone).initialize(\r\n            address(this),\r\n            owner(),\r\n            _msgSender(),\r\n            address(ServiceManagerInstance),\r\n            address(LicenseTokenInstance)\r\n        );\r\n        _usersContractAddresses[_msgSender()] = clone;\r\n        emit UsersContractCreated(_usersContractAddresses[_msgSender()]);\r\n        return clone;\r\n    }\r\n\r\n    /**\r\n     * @notice get User Contract Address\r\n     */\r\n    function getUserContractAddress(address userAddress) public view returns (address) {\r\n        return _usersContractAddresses[userAddress];\r\n    }\r\n\r\n    function withdraw() public onlyOwner {\r\n        uint256 ownerBalance = address(this).balance;\r\n        require(ownerBalance > 0, \"ERRFUN\");\r\n        payable(owner()).transfer(ownerBalance);\r\n        emit ChangeEtherBalance(ownerBalance);\r\n    }\r\n\r\n    /// @notice buy License for a list of services\r\n    /// @dev Explain to a developer any extra details\r\n    /// @param numberOfMonths number Of Months for the license\r\n    /// @param serviceIds list of service Ids\r\n    function buyLicence(uint256 numberOfMonths, uint256[] memory serviceIds)\r\n        public\r\n        payable\r\n        onlyRegisteredUsers\r\n    {\r\n        require(numberOfMonths > 0 && serviceIds.length > 0, \"ERRIN\");\r\n        require(msg.value > 0, \"ERRBAL\");\r\n        uint256 paymentValue = numberOfMonths *\r\n            ServiceManagerInstance.getAddedServicesPricePerMonth(0, serviceIds);\r\n        require(paymentValue > 0, \"ERRIN\");\r\n        uint256 permissions = LicenseTools.setIndexesBoolean(\r\n            0,\r\n            true,\r\n            serviceIds\r\n        );\r\n        require(msg.value == paymentValue, \"ERRINV\");\r\n        uint256 newLicenseId = LicenseTokenInstance.createLicense(\r\n            _msgSender(),\r\n            permissions,\r\n            LicenseType.PRIVATE,\r\n            numberOfMonths\r\n        );\r\n        emit NewPrivateLicenseEmitted(newLicenseId);\r\n    }\r\n\r\n    /// @notice buy License for a list of services\r\n    /// @dev Explain to a developer any extra details\r\n    /// @param licenseId license Id\r\n    /// @param numberOfMonths number Of Months for the license\r\n    /// @param serviceIds list of service Ids\r\n    function resetLicence(\r\n        uint256 licenseId,\r\n        uint256 numberOfMonths,\r\n        uint256[] memory serviceIds\r\n    ) public payable onlyRegisteredUsers {\r\n        require(numberOfMonths > 0 && serviceIds.length > 0, \"ERRIN\");\r\n        require(msg.value > 0, \"ERRBAL\");\r\n        uint256 paymentValue = numberOfMonths *\r\n            ServiceManagerInstance.getAddedServicesPricePerMonth(0, serviceIds);\r\n        require(paymentValue > 0, \"ERRIN\");\r\n        uint256 permissions = LicenseTools.setIndexesBoolean(\r\n            0,\r\n            true,\r\n            serviceIds\r\n        );\r\n        require(msg.value == paymentValue, \"ERRINV\");\r\n        LicenseTokenInstance.resetLicense(\r\n            _msgSender(),\r\n            licenseId,\r\n            permissions,\r\n            LicenseType.PRIVATE,\r\n            numberOfMonths\r\n        );\r\n        emit PrivateLicenseUpdated(licenseId);\r\n    }\r\n\r\n    /**\r\n     * @notice update Licence\r\n     * @dev Explain to a developer any extra details\r\n     * @param licenseId number Of Months for the license\r\n     * @param extraNumberOfMonths extra Number Of Months\r\n     * @param extraServiceIds list of service Ids\r\n     */\r\n    function updateLicence(\r\n        uint256 licenseId,\r\n        uint256 extraNumberOfMonths,\r\n        uint256[] memory extraServiceIds\r\n    ) public payable onlyRegisteredUsers {\r\n        require(extraNumberOfMonths > 0 || extraServiceIds.length > 0, \"ERRIN\");\r\n        LicenseInfo memory license = LicenseTokenInstance.getLicense(licenseId);\r\n        require(\r\n            license.state == LicenseState.INACTIVE ||\r\n                (license.expiresOn > block.timestamp &&\r\n                    license.state == LicenseState.ACTIVE),\r\n            \"LICEXP\"\r\n        );\r\n        //payment to add the service to the end of the license expired data\r\n        uint256 priceForExtraServices = ServiceManagerInstance\r\n            .getAddedServicesPricePerMonth(\r\n                license.servicesIdsPool,\r\n                extraServiceIds\r\n            );\r\n        uint256 paymentRemainingLicenseTime = (license.state ==\r\n            LicenseState.ACTIVE)\r\n            ? (priceForExtraServices * (license.expiresOn - block.timestamp)) /\r\n                30 days\r\n            : priceForExtraServices * license.numberOfMonths;\r\n        //payment to extend the license with the new services\r\n        uint256 newServicesIdsPool = LicenseTools.setIndexesBoolean(\r\n            license.servicesIdsPool,\r\n            true,\r\n            extraServiceIds\r\n        );\r\n        uint256 paymentValueExtraMonth = ServiceManagerInstance\r\n            .getServicesIdsPoolPricePerMonth(newServicesIdsPool) *\r\n            extraNumberOfMonths;\r\n        uint256 totalPayment = paymentRemainingLicenseTime +\r\n            paymentValueExtraMonth;\r\n            if (totalPayment>0)\r\n            {\r\n                require(\r\n                    msg.value >= totalPayment, \"ERRVAL\"\r\n                );            \r\n                require(\r\n                    ((msg.value - totalPayment)/msg.value)*100 <=1,\r\n                    \"ERRBAL\"\r\n                );\r\n            }\r\n        LicenseTokenInstance.updateLicense(\r\n            _msgSender(),\r\n            licenseId,\r\n            newServicesIdsPool,\r\n            extraNumberOfMonths\r\n        );\r\n        emit PrivateLicenseUpdated(licenseId);\r\n    }\r\n}\r\n",
  "sourcePath": "C:\\Users\\israel\\Documents\\codes\\dev\\cryptween\\smart-contract-2\\contracts\\ManagementCenter.sol",
  "compiler": {
    "name": "solc",
    "version": "0.8.7+commit.e28d00a7.Emscripten.clang"
  },
  "schemaVersion": "3.4.3",
  "updatedAt": "2023-04-07T14:00:17.125Z",
  "networkType": "ethereum",
  "devdoc": {
    "kind": "dev",
    "methods": {
      "buyLicence(uint256,uint256[])": {
        "details": "Explain to a developer any extra details",
        "params": {
          "numberOfMonths": "number Of Months for the license",
          "serviceIds": "list of service Ids"
        }
      },
      "owner()": {
        "details": "Returns the address of the current owner."
      },
      "register(uint256,bytes)": {
        "params": {
          "nonce": "nonce",
          "signature": "signature"
        }
      },
      "renounceOwnership()": {
        "details": "Leaves the contract without owner. It will not be possible to call `onlyOwner` functions anymore. Can only be called by the current owner. NOTE: Renouncing ownership will leave the contract without an owner, thereby removing any functionality that is only available to the owner."
      },
      "resetLicence(uint256,uint256,uint256[])": {
        "details": "Explain to a developer any extra details",
        "params": {
          "licenseId": "license Id",
          "numberOfMonths": "number Of Months for the license",
          "serviceIds": "list of service Ids"
        }
      },
      "transferOwnership(address)": {
        "details": "Transfers ownership of the contract to a new account (`newOwner`). Can only be called by the current owner."
      },
      "updateLicence(uint256,uint256,uint256[])": {
        "details": "Explain to a developer any extra details",
        "params": {
          "extraNumberOfMonths": "extra Number Of Months",
          "extraServiceIds": "list of service Ids",
          "licenseId": "number Of Months for the license"
        }
      }
    },
    "version": 1
  },
  "userdoc": {
    "kind": "user",
    "methods": {
      "buyLicence(uint256,uint256[])": {
        "notice": "buy License for a list of services"
      },
      "constructor": {
        "notice": "constructor function"
      },
      "getLicenseTokenAddress()": {
        "notice": "Get the License Token Address"
      },
      "getServiceManagerAddress()": {
        "notice": "Get Service Manager Address"
      },
      "getUserContractAddress(address)": {
        "notice": "get User Contract Address"
      },
      "register(uint256,bytes)": {
        "notice": "Verify an address"
      },
      "resetLicence(uint256,uint256,uint256[])": {
        "notice": "buy License for a list of services"
      },
      "updateLicence(uint256,uint256,uint256[])": {
        "notice": "update Licence"
      }
    },
    "version": 1
  }
}