{
  "contractName": "ServiceManager",
  "abi": [
    {
      "inputs": [],
      "stateMutability": "nonpayable",
      "type": "constructor"
    },
    {
      "anonymous": false,
      "inputs": [
        {
          "indexed": true,
          "internalType": "address",
          "name": "previousOwner",
          "type": "address"
        },
        {
          "indexed": true,
          "internalType": "address",
          "name": "newOwner",
          "type": "address"
        }
      ],
      "name": "OwnershipTransferred",
      "type": "event"
    },
    {
      "anonymous": false,
      "inputs": [
        {
          "indexed": true,
          "internalType": "bytes32",
          "name": "role",
          "type": "bytes32"
        },
        {
          "indexed": true,
          "internalType": "bytes32",
          "name": "previousAdminRole",
          "type": "bytes32"
        },
        {
          "indexed": true,
          "internalType": "bytes32",
          "name": "newAdminRole",
          "type": "bytes32"
        }
      ],
      "name": "RoleAdminChanged",
      "type": "event"
    },
    {
      "anonymous": false,
      "inputs": [
        {
          "indexed": true,
          "internalType": "bytes32",
          "name": "role",
          "type": "bytes32"
        },
        {
          "indexed": true,
          "internalType": "address",
          "name": "account",
          "type": "address"
        },
        {
          "indexed": true,
          "internalType": "address",
          "name": "sender",
          "type": "address"
        }
      ],
      "name": "RoleGranted",
      "type": "event"
    },
    {
      "anonymous": false,
      "inputs": [
        {
          "indexed": true,
          "internalType": "bytes32",
          "name": "role",
          "type": "bytes32"
        },
        {
          "indexed": true,
          "internalType": "address",
          "name": "account",
          "type": "address"
        },
        {
          "indexed": true,
          "internalType": "address",
          "name": "sender",
          "type": "address"
        }
      ],
      "name": "RoleRevoked",
      "type": "event"
    },
    {
      "anonymous": false,
      "inputs": [
        {
          "indexed": false,
          "internalType": "uint256",
          "name": "id",
          "type": "uint256"
        }
      ],
      "name": "serviceAdded",
      "type": "event"
    },
    {
      "anonymous": false,
      "inputs": [
        {
          "indexed": false,
          "internalType": "uint256",
          "name": "id",
          "type": "uint256"
        }
      ],
      "name": "serviceRemoved",
      "type": "event"
    },
    {
      "anonymous": false,
      "inputs": [
        {
          "indexed": false,
          "internalType": "uint256",
          "name": "id",
          "type": "uint256"
        }
      ],
      "name": "serviceUpdated",
      "type": "event"
    },
    {
      "inputs": [],
      "name": "DEFAULT_ADMIN_ROLE",
      "outputs": [
        {
          "internalType": "bytes32",
          "name": "",
          "type": "bytes32"
        }
      ],
      "stateMutability": "view",
      "type": "function",
      "constant": true
    },
    {
      "inputs": [],
      "name": "SERVICE_MANAGER_ROLE",
      "outputs": [
        {
          "internalType": "bytes32",
          "name": "",
          "type": "bytes32"
        }
      ],
      "stateMutability": "view",
      "type": "function",
      "constant": true
    },
    {
      "inputs": [
        {
          "internalType": "bytes32",
          "name": "role",
          "type": "bytes32"
        }
      ],
      "name": "getRoleAdmin",
      "outputs": [
        {
          "internalType": "bytes32",
          "name": "",
          "type": "bytes32"
        }
      ],
      "stateMutability": "view",
      "type": "function",
      "constant": true
    },
    {
      "inputs": [
        {
          "internalType": "bytes32",
          "name": "role",
          "type": "bytes32"
        },
        {
          "internalType": "uint256",
          "name": "index",
          "type": "uint256"
        }
      ],
      "name": "getRoleMember",
      "outputs": [
        {
          "internalType": "address",
          "name": "",
          "type": "address"
        }
      ],
      "stateMutability": "view",
      "type": "function",
      "constant": true
    },
    {
      "inputs": [
        {
          "internalType": "bytes32",
          "name": "role",
          "type": "bytes32"
        }
      ],
      "name": "getRoleMemberCount",
      "outputs": [
        {
          "internalType": "uint256",
          "name": "",
          "type": "uint256"
        }
      ],
      "stateMutability": "view",
      "type": "function",
      "constant": true
    },
    {
      "inputs": [
        {
          "internalType": "bytes32",
          "name": "role",
          "type": "bytes32"
        },
        {
          "internalType": "address",
          "name": "account",
          "type": "address"
        }
      ],
      "name": "grantRole",
      "outputs": [],
      "stateMutability": "nonpayable",
      "type": "function"
    },
    {
      "inputs": [
        {
          "internalType": "bytes32",
          "name": "role",
          "type": "bytes32"
        },
        {
          "internalType": "address",
          "name": "account",
          "type": "address"
        }
      ],
      "name": "hasRole",
      "outputs": [
        {
          "internalType": "bool",
          "name": "",
          "type": "bool"
        }
      ],
      "stateMutability": "view",
      "type": "function",
      "constant": true
    },
    {
      "inputs": [],
      "name": "owner",
      "outputs": [
        {
          "internalType": "address",
          "name": "",
          "type": "address"
        }
      ],
      "stateMutability": "view",
      "type": "function",
      "constant": true
    },
    {
      "inputs": [],
      "name": "renounceOwnership",
      "outputs": [],
      "stateMutability": "nonpayable",
      "type": "function"
    },
    {
      "inputs": [
        {
          "internalType": "bytes32",
          "name": "role",
          "type": "bytes32"
        },
        {
          "internalType": "address",
          "name": "account",
          "type": "address"
        }
      ],
      "name": "renounceRole",
      "outputs": [],
      "stateMutability": "nonpayable",
      "type": "function"
    },
    {
      "inputs": [
        {
          "internalType": "bytes32",
          "name": "role",
          "type": "bytes32"
        },
        {
          "internalType": "address",
          "name": "account",
          "type": "address"
        }
      ],
      "name": "revokeRole",
      "outputs": [],
      "stateMutability": "nonpayable",
      "type": "function"
    },
    {
      "inputs": [
        {
          "internalType": "bytes4",
          "name": "interfaceId",
          "type": "bytes4"
        }
      ],
      "name": "supportsInterface",
      "outputs": [
        {
          "internalType": "bool",
          "name": "",
          "type": "bool"
        }
      ],
      "stateMutability": "view",
      "type": "function",
      "constant": true
    },
    {
      "inputs": [
        {
          "internalType": "address",
          "name": "newOwner",
          "type": "address"
        }
      ],
      "name": "transferOwnership",
      "outputs": [],
      "stateMutability": "nonpayable",
      "type": "function"
    },
    {
      "inputs": [
        {
          "internalType": "uint256",
          "name": "serviceId",
          "type": "uint256"
        },
        {
          "internalType": "uint256",
          "name": "oneMonthLicencePrice",
          "type": "uint256"
        },
        {
          "internalType": "enum ServiceType",
          "name": "serviceType",
          "type": "uint8"
        },
        {
          "internalType": "bytes32",
          "name": "name",
          "type": "bytes32"
        },
        {
          "internalType": "string",
          "name": "description",
          "type": "string"
        }
      ],
      "name": "registerService",
      "outputs": [],
      "stateMutability": "nonpayable",
      "type": "function"
    },
    {
      "inputs": [
        {
          "internalType": "uint256",
          "name": "serviceId",
          "type": "uint256"
        },
        {
          "internalType": "uint256",
          "name": "oneMonthLicencePrice",
          "type": "uint256"
        }
      ],
      "name": "updateService",
      "outputs": [],
      "stateMutability": "nonpayable",
      "type": "function"
    },
    {
      "inputs": [
        {
          "internalType": "uint256",
          "name": "serviceId",
          "type": "uint256"
        }
      ],
      "name": "removeService",
      "outputs": [],
      "stateMutability": "nonpayable",
      "type": "function"
    },
    {
      "inputs": [],
      "name": "getAllServiceIds",
      "outputs": [
        {
          "internalType": "uint256[]",
          "name": "",
          "type": "uint256[]"
        }
      ],
      "stateMutability": "view",
      "type": "function",
      "constant": true
    },
    {
      "inputs": [
        {
          "internalType": "uint256",
          "name": "id",
          "type": "uint256"
        }
      ],
      "name": "getService",
      "outputs": [
        {
          "components": [
            {
              "internalType": "uint256",
              "name": "serviceId",
              "type": "uint256"
            },
            {
              "internalType": "uint256",
              "name": "oneMonthLicencePrice",
              "type": "uint256"
            },
            {
              "internalType": "enum ServiceType",
              "name": "serviceType",
              "type": "uint8"
            },
            {
              "internalType": "bytes32",
              "name": "name",
              "type": "bytes32"
            },
            {
              "internalType": "string",
              "name": "description",
              "type": "string"
            }
          ],
          "internalType": "struct ServiceInfo",
          "name": "",
          "type": "tuple"
        }
      ],
      "stateMutability": "view",
      "type": "function",
      "constant": true
    },
    {
      "inputs": [
        {
          "internalType": "uint256",
          "name": "servicesIdsPool",
          "type": "uint256"
        },
        {
          "internalType": "uint256[]",
          "name": "serviceIds",
          "type": "uint256[]"
        }
      ],
      "name": "getAddedServicesPricePerMonth",
      "outputs": [
        {
          "internalType": "uint256",
          "name": "sum",
          "type": "uint256"
        }
      ],
      "stateMutability": "view",
      "type": "function",
      "constant": true
    },
    {
      "inputs": [
        {
          "internalType": "uint256",
          "name": "servicesIdsPool",
          "type": "uint256"
        }
      ],
      "name": "getServicesIdsPoolPricePerMonth",
      "outputs": [
        {
          "internalType": "uint256",
          "name": "sum",
          "type": "uint256"
        }
      ],
      "stateMutability": "view",
      "type": "function",
      "constant": true
    }
  ],
  "bytecode": "0x60806040523480156200001157600080fd5b5062000032620000266200009d60201b60201c565b620000a560201b60201c565b620000566000801b6200004a6200009d60201b60201c565b6200016960201b60201c565b620000977f09717ac20005278352439ebfe1b489a0fa1eccb8e4f93830ef8886bb58ec7bc56200008b6200009d60201b60201c565b6200016960201b60201c565b620003f8565b600033905090565b60008060009054906101000a900473ffffffffffffffffffffffffffffffffffffffff169050816000806101000a81548173ffffffffffffffffffffffffffffffffffffffff021916908373ffffffffffffffffffffffffffffffffffffffff1602179055508173ffffffffffffffffffffffffffffffffffffffff168173ffffffffffffffffffffffffffffffffffffffff167f8be0079c531659141344cd1fd0a4f28419497f9722a3daafe3b4186f6b6457e060405160405180910390a35050565b620001808282620001b160201b6200103c1760201c565b620001ac8160026000858152602001908152602001600020620001c760201b6200104a1790919060201c565b505050565b620001c38282620001ff60201b60201c565b5050565b6000620001f7836000018373ffffffffffffffffffffffffffffffffffffffff1660001b620002f060201b60201c565b905092915050565b6200021182826200036a60201b60201c565b620002ec57600180600084815260200190815260200160002060000160008373ffffffffffffffffffffffffffffffffffffffff1673ffffffffffffffffffffffffffffffffffffffff16815260200190815260200160002060006101000a81548160ff021916908315150217905550620002916200009d60201b60201c565b73ffffffffffffffffffffffffffffffffffffffff168173ffffffffffffffffffffffffffffffffffffffff16837f2f8788117e7eff1d82e926ec794901d17c78024a50270940304540a733656f0d60405160405180910390a45b5050565b6000620003048383620003d560201b60201c565b6200035f57826000018290806001815401808255809150506001900390600052602060002001600090919091909150558260000180549050836001016000848152602001908152602001600020819055506001905062000364565b600090505b92915050565b60006001600084815260200190815260200160002060000160008373ffffffffffffffffffffffffffffffffffffffff1673ffffffffffffffffffffffffffffffffffffffff16815260200190815260200160002060009054906101000a900460ff16905092915050565b600080836001016000848152602001908152602001600020541415905092915050565b612dd280620004086000396000f3fe608060405234801561001057600080fd5b506004361061012c5760003560e01c806391d14854116100ad578063d547741f11610071578063d547741f14610355578063e68276ce14610371578063ef0e239b1461038d578063f2fde38b146103bd578063f7262afc146103d95761012c565b806391d148541461029d5780639b66b139146102cd578063a217fddf146102e9578063c979e8a714610307578063ca15c873146103255761012c565b80634b91075f116100f45780634b91075f146101f957806359fdf05114610215578063715018a6146102455780638da5cb5b1461024f5780639010d07c1461026d5761012c565b806301ffc9a714610131578063248a9ca3146101615780632f2ff15d1461019157806336568abe146101ad5780634141a127146101c9575b600080fd5b61014b60048036038101906101469190611e90565b6103f7565b604051610158919061241c565b60405180910390f35b61017b60048036038101906101769190611de3565b610471565b6040516101889190612437565b60405180910390f35b6101ab60048036038101906101a69190611e10565b610491565b005b6101c760048036038101906101c29190611e10565b6104c5565b005b6101e360048036038101906101de9190611eea565b6104f9565b6040516101f091906125b6565b60405180910390f35b610213600480360381019061020e9190611f46565b61068b565b005b61022f600480360381019061022a9190611ebd565b6107c1565b60405161023c91906125b6565b60405180910390f35b61024d6108bf565b005b610257610947565b60405161026491906123df565b60405180910390f35b61028760048036038101906102829190611e50565b610970565b60405161029491906123df565b60405180910390f35b6102b760048036038101906102b29190611e10565b61099f565b6040516102c4919061241c565b60405180910390f35b6102e760048036038101906102e29190611ebd565b610a0a565b005b6102f1610b70565b6040516102fe9190612437565b60405180910390f35b61030f610b77565b60405161031c9190612437565b60405180910390f35b61033f600480360381019061033a9190611de3565b610b9b565b60405161034c91906125b6565b60405180910390f35b61036f600480360381019061036a9190611e10565b610bbf565b005b61038b60048036038101906103869190611f86565b610bf3565b005b6103a760048036038101906103a29190611ebd565b610dc6565b6040516103b49190612594565b60405180910390f35b6103d760048036038101906103d29190611d89565b610f33565b005b6103e161102b565b6040516103ee91906123fa565b60405180910390f35b60007f5a05180f000000000000000000000000000000000000000000000000000000007bffffffffffffffffffffffffffffffffffffffffffffffffffffffff1916827bffffffffffffffffffffffffffffffffffffffffffffffffffffffff1916148061046a57506104698261107a565b5b9050919050565b600060016000838152602001908152602001600020600101549050919050565b61049b82826110f4565b6104c0816002600085815260200190815260200160002061104a90919063ffffffff16565b505050565b6104cf828261111d565b6104f481600260008581526020019081526020016000206111a090919063ffffffff16565b505050565b600060ff82511115610540576040517f08c379a000000000000000000000000000000000000000000000000000000000815260040161053790612534565b60405180910390fd5b60005b825181101561068457600083828151811061056157610560612a48565b5b6020026020010151905061057f8160046111d090919063ffffffff16565b6105be576040517f08c379a00000000000000000000000000000000000000000000000000000000081526004016105b5906124b4565b60405180910390fd5b73__LicenseTools__________________________63995e922886836040518363ffffffff1660e01b81526004016105f79291906125d1565b60206040518083038186803b15801561060f57600080fd5b505af4158015610623573d6000803e3d6000fd5b505050506040513d601f19601f820116820180604052508101906106479190611db6565b6106705760036000828152602001908152602001600020600101548361066d91906126ed565b92505b50808061067c90612943565b915050610543565b5092915050565b6106bc7f09717ac20005278352439ebfe1b489a0fa1eccb8e4f93830ef8886bb58ec7bc56106b76111ea565b61099f565b6106fb576040517f08c379a00000000000000000000000000000000000000000000000000000000081526004016106f290612514565b60405180910390fd5b816107108160046111d090919063ffffffff16565b61074f576040517f08c379a0000000000000000000000000000000000000000000000000000000008152600401610746906124b4565b60405180910390fd5b8260036000858152602001908152602001600020600001819055508160036000858152602001908152602001600020600101819055507fbe47c7a73e9987645e9dfd7ad96ae06038499bd80349f42ae0d3f248147a6d63836040516107b491906125b6565b60405180910390a1505050565b600080600090505b6107d360046111f2565b8110156108b95760006107f082600461120790919063ffffffff16565b905073__LicenseTools__________________________63995e922885836040518363ffffffff1660e01b815260040161082b9291906125d1565b60206040518083038186803b15801561084357600080fd5b505af4158015610857573d6000803e3d6000fd5b505050506040513d601f19601f8201168201806040525081019061087b9190611db6565b156108a5576003600082815260200190815260200160002060010154836108a291906126ed565b92505b5080806108b190612943565b9150506107c9565b50919050565b6108c76111ea565b73ffffffffffffffffffffffffffffffffffffffff166108e5610947565b73ffffffffffffffffffffffffffffffffffffffff161461093b576040517f08c379a0000000000000000000000000000000000000000000000000000000008152600401610932906124f4565b60405180910390fd5b6109456000611221565b565b60008060009054906101000a900473ffffffffffffffffffffffffffffffffffffffff16905090565b600061099782600260008681526020019081526020016000206112e590919063ffffffff16565b905092915050565b60006001600084815260200190815260200160002060000160008373ffffffffffffffffffffffffffffffffffffffff1673ffffffffffffffffffffffffffffffffffffffff16815260200190815260200160002060009054906101000a900460ff16905092915050565b610a3b7f09717ac20005278352439ebfe1b489a0fa1eccb8e4f93830ef8886bb58ec7bc5610a366111ea565b61099f565b610a7a576040517f08c379a0000000000000000000000000000000000000000000000000000000008152600401610a7190612514565b60405180910390fd5b80610a8f8160046111d090919063ffffffff16565b610ace576040517f08c379a0000000000000000000000000000000000000000000000000000000008152600401610ac5906124b4565b60405180910390fd5b610ae28260046112ff90919063ffffffff16565b506003600083815260200190815260200160002060008082016000905560018201600090556002820160006101000a81549060ff02191690556003820160009055600482016000610b339190611ad6565b50507fa19e6ca0490521729aff248310cbf581a6fe2311eb507789baa2a448418cb6d182604051610b6491906125b6565b60405180910390a15050565b6000801b81565b7f09717ac20005278352439ebfe1b489a0fa1eccb8e4f93830ef8886bb58ec7bc581565b6000610bb860026000848152602001908152602001600020611319565b9050919050565b610bc9828261132e565b610bee81600260008581526020019081526020016000206111a090919063ffffffff16565b505050565b610c247f09717ac20005278352439ebfe1b489a0fa1eccb8e4f93830ef8886bb58ec7bc5610c1f6111ea565b61099f565b610c63576040517f08c379a0000000000000000000000000000000000000000000000000000000008152600401610c5a90612514565b60405180910390fd5b60ff851115610ca7576040517f08c379a0000000000000000000000000000000000000000000000000000000008152600401610c9e906124d4565b60405180910390fd5b610cbb8560046111d090919063ffffffff16565b15610cfb576040517f08c379a0000000000000000000000000000000000000000000000000000000008152600401610cf290612554565b60405180910390fd5b610d0f85600461135790919063ffffffff16565b506000600360008781526020019081526020016000209050858160000181905550848160010181905550838160020160006101000a81548160ff02191690836001811115610d6057610d5f6129bb565b5b021790555082816003018190555081816004019080519060200190610d86929190611b16565b507f0667f1ff84f263e937dd6dad3f916fa5e39ef2f47ce7f39f8eafc4a41019019c86604051610db691906125b6565b60405180910390a1505050505050565b610dce611b9c565b81610de38160046111d090919063ffffffff16565b610e22576040517f08c379a0000000000000000000000000000000000000000000000000000000008152600401610e19906124b4565b60405180910390fd5b600360008481526020019081526020016000206040518060a001604052908160008201548152602001600182015481526020016002820160009054906101000a900460ff166001811115610e7957610e786129bb565b5b6001811115610e8b57610e8a6129bb565b5b815260200160038201548152602001600482018054610ea9906128e0565b80601f0160208091040260200160405190810160405280929190818152602001828054610ed5906128e0565b8015610f225780601f10610ef757610100808354040283529160200191610f22565b820191906000526020600020905b815481529060010190602001808311610f0557829003601f168201915b505050505081525050915050919050565b610f3b6111ea565b73ffffffffffffffffffffffffffffffffffffffff16610f59610947565b73ffffffffffffffffffffffffffffffffffffffff1614610faf576040517f08c379a0000000000000000000000000000000000000000000000000000000008152600401610fa6906124f4565b60405180910390fd5b600073ffffffffffffffffffffffffffffffffffffffff168173ffffffffffffffffffffffffffffffffffffffff16141561101f576040517f08c379a000000000000000000000000000000000000000000000000000000000815260040161101690612494565b60405180910390fd5b61102881611221565b50565b60606110376004611371565b905090565b6110468282611392565b5050565b6000611072836000018373ffffffffffffffffffffffffffffffffffffffff1660001b611472565b905092915050565b60007f7965db0b000000000000000000000000000000000000000000000000000000007bffffffffffffffffffffffffffffffffffffffffffffffffffffffff1916827bffffffffffffffffffffffffffffffffffffffffffffffffffffffff191614806110ed57506110ec826114e2565b5b9050919050565b6110fd82610471565b61110e816111096111ea565b61154c565b6111188383611392565b505050565b6111256111ea565b73ffffffffffffffffffffffffffffffffffffffff168173ffffffffffffffffffffffffffffffffffffffff1614611192576040517f08c379a000000000000000000000000000000000000000000000000000000000815260040161118990612574565b60405180910390fd5b61119c82826115e9565b5050565b60006111c8836000018373ffffffffffffffffffffffffffffffffffffffff1660001b6116cb565b905092915050565b60006111e2836000018360001b6117df565b905092915050565b600033905090565b600061120082600001611802565b9050919050565b60006112168360000183611813565b60001c905092915050565b60008060009054906101000a900473ffffffffffffffffffffffffffffffffffffffff169050816000806101000a81548173ffffffffffffffffffffffffffffffffffffffff021916908373ffffffffffffffffffffffffffffffffffffffff1602179055508173ffffffffffffffffffffffffffffffffffffffff168173ffffffffffffffffffffffffffffffffffffffff167f8be0079c531659141344cd1fd0a4f28419497f9722a3daafe3b4186f6b6457e060405160405180910390a35050565b60006112f48360000183611813565b60001c905092915050565b6000611311836000018360001b6116cb565b905092915050565b600061132782600001611802565b9050919050565b61133782610471565b611348816113436111ea565b61154c565b61135283836115e9565b505050565b6000611369836000018360001b611472565b905092915050565b606060006113818360000161183e565b905060608190508092505050919050565b61139c828261099f565b61146e57600180600084815260200190815260200160002060000160008373ffffffffffffffffffffffffffffffffffffffff1673ffffffffffffffffffffffffffffffffffffffff16815260200190815260200160002060006101000a81548160ff0219169083151502179055506114136111ea565b73ffffffffffffffffffffffffffffffffffffffff168173ffffffffffffffffffffffffffffffffffffffff16837f2f8788117e7eff1d82e926ec794901d17c78024a50270940304540a733656f0d60405160405180910390a45b5050565b600061147e83836117df565b6114d75782600001829080600181540180825580915050600190039060005260206000200160009091909190915055826000018054905083600101600084815260200190815260200160002081905550600190506114dc565b600090505b92915050565b60007f01ffc9a7000000000000000000000000000000000000000000000000000000007bffffffffffffffffffffffffffffffffffffffffffffffffffffffff1916827bffffffffffffffffffffffffffffffffffffffffffffffffffffffff1916149050919050565b611556828261099f565b6115e55761157b8173ffffffffffffffffffffffffffffffffffffffff16601461189a565b6115898360001c602061189a565b60405160200161159a9291906123a5565b6040516020818303038152906040526040517f08c379a00000000000000000000000000000000000000000000000000000000081526004016115dc9190612452565b60405180910390fd5b5050565b6115f3828261099f565b156116c75760006001600084815260200190815260200160002060000160008373ffffffffffffffffffffffffffffffffffffffff1673ffffffffffffffffffffffffffffffffffffffff16815260200190815260200160002060006101000a81548160ff02191690831515021790555061166c6111ea565b73ffffffffffffffffffffffffffffffffffffffff168173ffffffffffffffffffffffffffffffffffffffff16837ff6391f5c32d9c69d2a47ea670b442974b53935d1edc7fd64eb21e047a839171b60405160405180910390a45b5050565b600080836001016000848152602001908152602001600020549050600081146117d35760006001826116fd919061279d565b9050600060018660000180549050611715919061279d565b905081811461178457600086600001828154811061173657611735612a48565b5b906000526020600020015490508087600001848154811061175a57611759612a48565b5b90600052602060002001819055508387600101600083815260200190815260200160002081905550505b8560000180548061179857611797612a19565b5b6001900381819060005260206000200160009055905585600101600086815260200190815260200160002060009055600193505050506117d9565b60009150505b92915050565b600080836001016000848152602001908152602001600020541415905092915050565b600081600001805490509050919050565b600082600001828154811061182b5761182a612a48565b5b9060005260206000200154905092915050565b60608160000180548060200260200160405190810160405280929190818152602001828054801561188e57602002820191906000526020600020905b81548152602001906001019080831161187a575b50505050509050919050565b6060600060028360026118ad9190612743565b6118b791906126ed565b67ffffffffffffffff8111156118d0576118cf612a77565b5b6040519080825280601f01601f1916602001820160405280156119025781602001600182028036833780820191505090505b5090507f30000000000000000000000000000000000000000000000000000000000000008160008151811061193a57611939612a48565b5b60200101907effffffffffffffffffffffffffffffffffffffffffffffffffffffffffffff1916908160001a9053507f78000000000000000000000000000000000000000000000000000000000000008160018151811061199e5761199d612a48565b5b60200101907effffffffffffffffffffffffffffffffffffffffffffffffffffffffffffff1916908160001a905350600060018460026119de9190612743565b6119e891906126ed565b90505b6001811115611a88577f3031323334353637383961626364656600000000000000000000000000000000600f861660108110611a2a57611a29612a48565b5b1a60f81b828281518110611a4157611a40612a48565b5b60200101907effffffffffffffffffffffffffffffffffffffffffffffffffffffffffffff1916908160001a905350600485901c945080611a81906128b6565b90506119eb565b5060008414611acc576040517f08c379a0000000000000000000000000000000000000000000000000000000008152600401611ac390612474565b60405180910390fd5b8091505092915050565b508054611ae2906128e0565b6000825580601f10611af45750611b13565b601f016020900490600052602060002090810190611b129190611be0565b5b50565b828054611b22906128e0565b90600052602060002090601f016020900481019282611b445760008555611b8b565b82601f10611b5d57805160ff1916838001178555611b8b565b82800160010185558215611b8b579182015b82811115611b8a578251825591602001919060010190611b6f565b5b509050611b989190611be0565b5090565b6040518060a00160405280600081526020016000815260200160006001811115611bc957611bc86129bb565b5b815260200160008019168152602001606081525090565b5b80821115611bf9576000816000905550600101611be1565b5090565b6000611c10611c0b8461261f565b6125fa565b90508083825260208201905082856020860282011115611c3357611c32612aab565b5b60005b85811015611c635781611c498882611d74565b845260208401935060208301925050600181019050611c36565b5050509392505050565b6000611c80611c7b8461264b565b6125fa565b905082815260208101848484011115611c9c57611c9b612ab0565b5b611ca7848285612874565b509392505050565b600081359050611cbe81612d19565b92915050565b600082601f830112611cd957611cd8612aa6565b5b8135611ce9848260208601611bfd565b91505092915050565b600081519050611d0181612d30565b92915050565b600081359050611d1681612d47565b92915050565b600081359050611d2b81612d5e565b92915050565b600081359050611d4081612d75565b92915050565b600082601f830112611d5b57611d5a612aa6565b5b8135611d6b848260208601611c6d565b91505092915050565b600081359050611d8381612d85565b92915050565b600060208284031215611d9f57611d9e612aba565b5b6000611dad84828501611caf565b91505092915050565b600060208284031215611dcc57611dcb612aba565b5b6000611dda84828501611cf2565b91505092915050565b600060208284031215611df957611df8612aba565b5b6000611e0784828501611d07565b91505092915050565b60008060408385031215611e2757611e26612aba565b5b6000611e3585828601611d07565b9250506020611e4685828601611caf565b9150509250929050565b60008060408385031215611e6757611e66612aba565b5b6000611e7585828601611d07565b9250506020611e8685828601611d74565b9150509250929050565b600060208284031215611ea657611ea5612aba565b5b6000611eb484828501611d1c565b91505092915050565b600060208284031215611ed357611ed2612aba565b5b6000611ee184828501611d74565b91505092915050565b60008060408385031215611f0157611f00612aba565b5b6000611f0f85828601611d74565b925050602083013567ffffffffffffffff811115611f3057611f2f612ab5565b5b611f3c85828601611cc4565b9150509250929050565b60008060408385031215611f5d57611f5c612aba565b5b6000611f6b85828601611d74565b9250506020611f7c85828601611d74565b9150509250929050565b600080600080600060a08688031215611fa257611fa1612aba565b5b6000611fb088828901611d74565b9550506020611fc188828901611d74565b9450506040611fd288828901611d31565b9350506060611fe388828901611d07565b925050608086013567ffffffffffffffff81111561200457612003612ab5565b5b61201088828901611d46565b9150509295509295909350565b60006120298383612378565b60208301905092915050565b61203e816127d1565b82525050565b600061204f8261268c565b61205981856126af565b93506120648361267c565b8060005b8381101561209557815161207c888261201d565b9750612087836126a2565b925050600181019050612068565b5085935050505092915050565b6120ab816127e3565b82525050565b6120ba816127ef565b82525050565b6120c9816127ef565b82525050565b6120d881612862565b82525050565b60006120e982612697565b6120f381856126c0565b9350612103818560208601612883565b61210c81612abf565b840191505092915050565b600061212282612697565b61212c81856126d1565b935061213c818560208601612883565b61214581612abf565b840191505092915050565b600061215b82612697565b61216581856126e2565b9350612175818560208601612883565b80840191505092915050565b600061218e6020836126d1565b915061219982612ad0565b602082019050919050565b60006121b16026836126d1565b91506121bc82612af9565b604082019050919050565b60006121d46007836126d1565b91506121df82612b48565b602082019050919050565b60006121f76017836126d1565b915061220282612b71565b602082019050919050565b600061221a6020836126d1565b915061222582612b9a565b602082019050919050565b600061223d602a836126d1565b915061224882612bc3565b604082019050919050565b60006122606013836126d1565b915061226b82612c12565b602082019050919050565b60006122836017836126e2565b915061228e82612c3b565b601782019050919050565b60006122a6600b836126d1565b91506122b182612c64565b602082019050919050565b60006122c96011836126e2565b91506122d482612c8d565b601182019050919050565b60006122ec602f836126d1565b91506122f782612cb6565b604082019050919050565b600060a08301600083015161231a6000860182612378565b50602083015161232d6020860182612378565b50604083015161234060408601826120cf565b50606083015161235360608601826120b1565b506080830151848203608086015261236b82826120de565b9150508091505092915050565b61238181612858565b82525050565b61239081612858565b82525050565b61239f81612858565b82525050565b60006123b082612276565b91506123bc8285612150565b91506123c7826122bc565b91506123d38284612150565b91508190509392505050565b60006020820190506123f46000830184612035565b92915050565b600060208201905081810360008301526124148184612044565b905092915050565b600060208201905061243160008301846120a2565b92915050565b600060208201905061244c60008301846120c0565b92915050565b6000602082019050818103600083015261246c8184612117565b905092915050565b6000602082019050818103600083015261248d81612181565b9050919050565b600060208201905081810360008301526124ad816121a4565b9050919050565b600060208201905081810360008301526124cd816121c7565b9050919050565b600060208201905081810360008301526124ed816121ea565b9050919050565b6000602082019050818103600083015261250d8161220d565b9050919050565b6000602082019050818103600083015261252d81612230565b9050919050565b6000602082019050818103600083015261254d81612253565b9050919050565b6000602082019050818103600083015261256d81612299565b9050919050565b6000602082019050818103600083015261258d816122df565b9050919050565b600060208201905081810360008301526125ae8184612302565b905092915050565b60006020820190506125cb6000830184612387565b92915050565b60006040820190506125e66000830185612396565b6125f36020830184612396565b9392505050565b6000612604612615565b90506126108282612912565b919050565b6000604051905090565b600067ffffffffffffffff82111561263a57612639612a77565b5b602082029050602081019050919050565b600067ffffffffffffffff82111561266657612665612a77565b5b61266f82612abf565b9050602081019050919050565b6000819050602082019050919050565b600081519050919050565b600081519050919050565b6000602082019050919050565b600082825260208201905092915050565b600082825260208201905092915050565b600082825260208201905092915050565b600081905092915050565b60006126f882612858565b915061270383612858565b9250827fffffffffffffffffffffffffffffffffffffffffffffffffffffffffffffffff038211156127385761273761298c565b5b828201905092915050565b600061274e82612858565b915061275983612858565b9250817fffffffffffffffffffffffffffffffffffffffffffffffffffffffffffffffff04831182151516156127925761279161298c565b5b828202905092915050565b60006127a882612858565b91506127b383612858565b9250828210156127c6576127c561298c565b5b828203905092915050565b60006127dc82612838565b9050919050565b60008115159050919050565b6000819050919050565b60007fffffffff0000000000000000000000000000000000000000000000000000000082169050919050565b600081905061283382612d05565b919050565b600073ffffffffffffffffffffffffffffffffffffffff82169050919050565b6000819050919050565b600061286d82612825565b9050919050565b82818337600083830152505050565b60005b838110156128a1578082015181840152602081019050612886565b838111156128b0576000848401525b50505050565b60006128c182612858565b915060008214156128d5576128d461298c565b5b600182039050919050565b600060028204905060018216806128f857607f821691505b6020821081141561290c5761290b6129ea565b5b50919050565b61291b82612abf565b810181811067ffffffffffffffff8211171561293a57612939612a77565b5b80604052505050565b600061294e82612858565b91507fffffffffffffffffffffffffffffffffffffffffffffffffffffffffffffffff8214156129815761298061298c565b5b600182019050919050565b7f4e487b7100000000000000000000000000000000000000000000000000000000600052601160045260246000fd5b7f4e487b7100000000000000000000000000000000000000000000000000000000600052602160045260246000fd5b7f4e487b7100000000000000000000000000000000000000000000000000000000600052602260045260246000fd5b7f4e487b7100000000000000000000000000000000000000000000000000000000600052603160045260246000fd5b7f4e487b7100000000000000000000000000000000000000000000000000000000600052603260045260246000fd5b7f4e487b7100000000000000000000000000000000000000000000000000000000600052604160045260246000fd5b600080fd5b600080fd5b600080fd5b600080fd5b600080fd5b6000601f19601f8301169050919050565b7f537472696e67733a20686578206c656e67746820696e73756666696369656e74600082015250565b7f4f776e61626c653a206e6577206f776e657220697320746865207a65726f206160008201527f6464726573730000000000000000000000000000000000000000000000000000602082015250565b7f4e4f54464e445300000000000000000000000000000000000000000000000000600082015250565b7f53657276696365206964206f7574206f662072616e6765000000000000000000600082015250565b7f4f776e61626c653a2063616c6c6572206973206e6f7420746865206f776e6572600082015250565b7f556e617574686f72697a652e204d757374206861732073657276696365204d6160008201527f6e6167657220726f6c6500000000000000000000000000000000000000000000602082015250565b7f6c6973742072616e6765206f766572666c6f7700000000000000000000000000600082015250565b7f416363657373436f6e74726f6c3a206163636f756e7420000000000000000000600082015250565b7f464e442073657276696365000000000000000000000000000000000000000000600082015250565b7f206973206d697373696e6720726f6c6520000000000000000000000000000000600082015250565b7f416363657373436f6e74726f6c3a2063616e206f6e6c792072656e6f756e636560008201527f20726f6c657320666f722073656c660000000000000000000000000000000000602082015250565b60028110612d1657612d156129bb565b5b50565b612d22816127d1565b8114612d2d57600080fd5b50565b612d39816127e3565b8114612d4457600080fd5b50565b612d50816127ef565b8114612d5b57600080fd5b50565b612d67816127f9565b8114612d7257600080fd5b50565b60028110612d8257600080fd5b50565b612d8e81612858565b8114612d9957600080fd5b5056fea2646970667358221220c4bb4a5dffeff4f8da15f2934ab7f474d939602f8c512a1722219da39ea9789164736f6c63430008070033",
  "immutableReferences": {},
  "source": "// SPDX-License-Identifier: MIT\npragma solidity ^0.8.7;\nimport \"@openzeppelin/contracts/utils/structs/EnumerableSet.sol\";\nimport \"@openzeppelin/contracts/access/Ownable.sol\";\nimport \"@openzeppelin/contracts/access/AccessControlEnumerable.sol\";\n\nimport \"./LicenseTools.sol\";\n\nenum ServiceType {\n    READ,\n    WRITE\n}\n\nstruct ServiceInfo {\n    uint256 serviceId;\n    uint256 oneMonthLicencePrice;\n    // uint256 reading10000PartsFeed; //percert using 10000 as base. Ex 138 means 1.38%\n    // uint256 readingPeriodSeconds;\n    // uint256 minimalWeiFeed;\n    ServiceType serviceType;\n    bytes32 name;\n    string description;\n}\n\nuint256 constant MAX_NUMBER_OF_SERVICES = 255;\nuint256 constant SERVICE_PERCENT_BASE = 10000;\n\ncontract ServiceManager is Ownable, AccessControlEnumerable {\n    /**\n    CONSTANTS\n    */\n    bytes32 public constant SERVICE_MANAGER_ROLE =\n        keccak256(\"SERVICE_MANAGER_ROLE\");\n\n    using EnumerableSet for EnumerableSet.UintSet;\n\n    /******************************\n        EVENTS\n    ******************************/\n\n    event serviceAdded(uint256 id);\n    event serviceUpdated(uint256 id);\n    event serviceRemoved(uint256 id);\n\n    //Modifiers\n    modifier onlyRegisteredServices(uint256 serviceId) {\n        require(registeredIds.contains(serviceId), \"NOTFNDS\");\n        _;\n    }\n\n    modifier onlyServiceManager() {\n        require(\n            hasRole(SERVICE_MANAGER_ROLE, _msgSender()),\n            \"Unauthorize. Must has service Manager role\"\n        );\n        _;\n    }\n\n    // Services\n    mapping(uint256 => ServiceInfo) registeredServices;\n    // List of Id for quick\n    EnumerableSet.UintSet registeredIds;\n\n    constructor() {\n        _setupRole(DEFAULT_ADMIN_ROLE, _msgSender());\n        _setupRole(SERVICE_MANAGER_ROLE, _msgSender());\n    }\n\n    /**\n     * @notice register service\n     * @param serviceId service Id\n     * @param serviceType service Type\n     * @param name service short name\n     * @param description service description\n     */\n    function registerService(\n        uint256 serviceId,\n        uint256 oneMonthLicencePrice,\n        ServiceType serviceType,\n        bytes32 name,\n        string memory description\n    )\n        public\n        onlyServiceManager\n    {\n        require(serviceId <= MAX_NUMBER_OF_SERVICES, \"Service id out of range\");\n        require(\n            !registeredIds.contains(serviceId),\n            \"FND service\"\n        );\n        registeredIds.add(serviceId);\n        ServiceInfo storage serviceInfo = registeredServices[serviceId];\n        serviceInfo.serviceId = serviceId;\n        serviceInfo.oneMonthLicencePrice = oneMonthLicencePrice;\n        serviceInfo.serviceType = serviceType;\n        serviceInfo.name = name;\n        serviceInfo.description = description;\n        emit serviceAdded(serviceId);\n    }\n\n    /**\n     * @notice Update service\n     * @param serviceId service Id\n     */\n    function updateService(\n        uint256 serviceId,\n        uint256 oneMonthLicencePrice\n    )\n        public\n        onlyServiceManager\n        onlyRegisteredServices(serviceId)\n    {\n        registeredServices[serviceId].serviceId = serviceId;\n        registeredServices[serviceId]\n            .oneMonthLicencePrice = oneMonthLicencePrice;\n        emit serviceUpdated(serviceId);\n    }\n\n    /**\n     * @notice remove service\n     * @param serviceId service Id\n     */\n    function removeService(uint256 serviceId)\n        public\n        onlyServiceManager\n        onlyRegisteredServices(serviceId)\n    {\n        registeredIds.remove(serviceId);\n        delete registeredServices[serviceId];\n        emit serviceRemoved(serviceId);\n    }\n\n    /**\n    * @notice get all services Ids.\n    * Return the entire set in an array\n    //\n    // WARNING\tThis operation will copy the entire storage to memory,\n    // which can be quite expensive. This is designed to mostly be used by view\n    // accessors that are queried without any gas fees.\n    // Developers should keep in mind that this function\n    // has an unbounded cost, and using it as part of a state-changing\n    // function may render the function uncallable if the set grows to a\n    // point where copying to memory consumes too much gas to fit in a block.\n    */\n    function getAllServiceIds() public view returns (uint256[] memory) {\n        return registeredIds.values();\n    }\n\n    /**\n     * @notice get service by id.\n     * Return the entire set in an array\n     * @param id service id\n     */\n    function getService(uint256 id)\n        public\n        view\n        onlyRegisteredServices(id)\n        returns (ServiceInfo memory)\n    {\n        return registeredServices[id];\n    }\n\n    /**\n     * @notice get Extra Services Price Per Month\n     * Return the sum of all services\n     * @param servicesIdsPool current servicesIdsPool\n     * @param serviceIds service id\n     * @return sum service list price per month\n     */\n    function getAddedServicesPricePerMonth(\n        uint256 servicesIdsPool,\n        uint256[] memory serviceIds\n    ) public view returns (uint256 sum) {\n        require(\n            (serviceIds.length <= MAX_NUMBER_OF_SERVICES),\n            \"list range overflow\"\n        );\n        for (uint256 index = 0; index < serviceIds.length; index++) {\n            uint256 serviceId = serviceIds[index];\n            require(registeredIds.contains(serviceId), \"NOTFNDS\");\n            if (!LicenseTools.getBoolean(servicesIdsPool, serviceId))\n                sum += registeredServices[serviceId].oneMonthLicencePrice;\n        }\n    }\n\n    /**\n     * @notice get the total Price Per Month for all services in the servicesIdsPool\n     * Return the sum of all services\n     * @param servicesIdsPool current servicesIdsPool of services\n     * @return sum service list price per month\n     */\n    function getServicesIdsPoolPricePerMonth(\n        uint256 servicesIdsPool\n    ) public view returns (uint256 sum) {\n\n        for (uint256 index = 0; index < registeredIds.length() ; index++) {\n            uint serviceId = registeredIds.at(index);\n            if (LicenseTools.getBoolean(servicesIdsPool, serviceId))\n                sum += registeredServices[serviceId].oneMonthLicencePrice;\n        }\n    }    \n}\n",
  "sourcePath": "/home/israel/Documents/cashtween/code/Cryptween-smart-contract-2/contracts/ServiceManager.sol",
  "compiler": {
    "name": "solc",
    "version": "0.8.7+commit.e28d00a7.Emscripten.clang"
  },
  "schemaVersion": "3.4.3",
  "updatedAt": "2022-04-18T18:08:02.527Z",
  "networkType": "ethereum",
  "devdoc": {
    "kind": "dev",
    "methods": {
      "getAddedServicesPricePerMonth(uint256,uint256[])": {
        "params": {
          "serviceIds": "service id",
          "servicesIdsPool": "current servicesIdsPool"
        },
        "returns": {
          "sum": "service list price per month"
        }
      },
      "getRoleAdmin(bytes32)": {
        "details": "Returns the admin role that controls `role`. See {grantRole} and {revokeRole}. To change a role's admin, use {_setRoleAdmin}."
      },
      "getRoleMember(bytes32,uint256)": {
        "details": "Returns one of the accounts that have `role`. `index` must be a value between 0 and {getRoleMemberCount}, non-inclusive. Role bearers are not sorted in any particular way, and their ordering may change at any point. WARNING: When using {getRoleMember} and {getRoleMemberCount}, make sure you perform all queries on the same block. See the following https://forum.openzeppelin.com/t/iterating-over-elements-on-enumerableset-in-openzeppelin-contracts/2296[forum post] for more information."
      },
      "getRoleMemberCount(bytes32)": {
        "details": "Returns the number of accounts that have `role`. Can be used together with {getRoleMember} to enumerate all bearers of a role."
      },
      "getService(uint256)": {
        "params": {
          "id": "service id"
        }
      },
      "getServicesIdsPoolPricePerMonth(uint256)": {
        "params": {
          "servicesIdsPool": "current servicesIdsPool of services"
        },
        "returns": {
          "sum": "service list price per month"
        }
      },
      "grantRole(bytes32,address)": {
        "details": "Overload {grantRole} to track enumerable memberships"
      },
      "hasRole(bytes32,address)": {
        "details": "Returns `true` if `account` has been granted `role`."
      },
      "owner()": {
        "details": "Returns the address of the current owner."
      },
      "registerService(uint256,uint256,uint8,bytes32,string)": {
        "params": {
          "description": "service description",
          "name": "service short name",
          "serviceId": "service Id",
          "serviceType": "service Type"
        }
      },
      "removeService(uint256)": {
        "params": {
          "serviceId": "service Id"
        }
      },
      "renounceOwnership()": {
        "details": "Leaves the contract without owner. It will not be possible to call `onlyOwner` functions anymore. Can only be called by the current owner. NOTE: Renouncing ownership will leave the contract without an owner, thereby removing any functionality that is only available to the owner."
      },
      "renounceRole(bytes32,address)": {
        "details": "Overload {renounceRole} to track enumerable memberships"
      },
      "revokeRole(bytes32,address)": {
        "details": "Overload {revokeRole} to track enumerable memberships"
      },
      "supportsInterface(bytes4)": {
        "details": "See {IERC165-supportsInterface}."
      },
      "transferOwnership(address)": {
        "details": "Transfers ownership of the contract to a new account (`newOwner`). Can only be called by the current owner."
      },
      "updateService(uint256,uint256)": {
        "params": {
          "serviceId": "service Id"
        }
      }
    },
    "version": 1
  },
  "userdoc": {
    "kind": "user",
    "methods": {
      "SERVICE_MANAGER_ROLE()": {
        "notice": "CONSTANTS"
      },
      "getAddedServicesPricePerMonth(uint256,uint256[])": {
        "notice": "get Extra Services Price Per Month Return the sum of all services"
      },
      "getAllServiceIds()": {
        "notice": "get all services Ids. Return the entire set in an array // // WARNING\tThis operation will copy the entire storage to memory, // which can be quite expensive. This is designed to mostly be used by view // accessors that are queried without any gas fees. // Developers should keep in mind that this function // has an unbounded cost, and using it as part of a state-changing // function may render the function uncallable if the set grows to a // point where copying to memory consumes too much gas to fit in a block."
      },
      "getService(uint256)": {
        "notice": "get service by id. Return the entire set in an array"
      },
      "getServicesIdsPoolPricePerMonth(uint256)": {
        "notice": "get the total Price Per Month for all services in the servicesIdsPool Return the sum of all services"
      },
      "registerService(uint256,uint256,uint8,bytes32,string)": {
        "notice": "register service"
      },
      "removeService(uint256)": {
        "notice": "remove service"
      },
      "updateService(uint256,uint256)": {
        "notice": "Update service"
      }
    },
    "version": 1
  }
}