{
  "contractName": "UserMonitoringCenter",
  "abi": [
    {
      "anonymous": false,
      "inputs": [
        {
          "indexed": false,
          "internalType": "uint256",
          "name": "updateTime",
          "type": "uint256"
        }
      ],
      "name": "DataUpdated",
      "type": "event"
    },
    {
      "anonymous": false,
      "inputs": [
        {
          "indexed": false,
          "internalType": "address",
          "name": "user",
          "type": "address"
        },
        {
          "indexed": false,
          "internalType": "uint256",
          "name": "permissions",
          "type": "uint256"
        }
      ],
      "name": "FollowerUserPermissionSettled",
      "type": "event"
    },
    {
      "anonymous": false,
      "inputs": [
        {
          "indexed": false,
          "internalType": "address",
          "name": "user",
          "type": "address"
        },
        {
          "indexed": false,
          "internalType": "uint256",
          "name": "permissions",
          "type": "uint256"
        }
      ],
      "name": "FollowinUserPermissionSettled",
      "type": "event"
    },
    {
      "anonymous": false,
      "inputs": [
        {
          "indexed": true,
          "internalType": "bytes32",
          "name": "role",
          "type": "bytes32"
        },
        {
          "indexed": true,
          "internalType": "bytes32",
          "name": "previousAdminRole",
          "type": "bytes32"
        },
        {
          "indexed": true,
          "internalType": "bytes32",
          "name": "newAdminRole",
          "type": "bytes32"
        }
      ],
      "name": "RoleAdminChanged",
      "type": "event"
    },
    {
      "anonymous": false,
      "inputs": [
        {
          "indexed": true,
          "internalType": "bytes32",
          "name": "role",
          "type": "bytes32"
        },
        {
          "indexed": true,
          "internalType": "address",
          "name": "account",
          "type": "address"
        },
        {
          "indexed": true,
          "internalType": "address",
          "name": "sender",
          "type": "address"
        }
      ],
      "name": "RoleGranted",
      "type": "event"
    },
    {
      "anonymous": false,
      "inputs": [
        {
          "indexed": true,
          "internalType": "bytes32",
          "name": "role",
          "type": "bytes32"
        },
        {
          "indexed": true,
          "internalType": "address",
          "name": "account",
          "type": "address"
        },
        {
          "indexed": true,
          "internalType": "address",
          "name": "sender",
          "type": "address"
        }
      ],
      "name": "RoleRevoked",
      "type": "event"
    },
    {
      "inputs": [],
      "name": "DEFAULT_ADMIN_ROLE",
      "outputs": [
        {
          "internalType": "bytes32",
          "name": "",
          "type": "bytes32"
        }
      ],
      "stateMutability": "view",
      "type": "function"
    },
    {
      "inputs": [
        {
          "internalType": "bytes32",
          "name": "role",
          "type": "bytes32"
        }
      ],
      "name": "getRoleAdmin",
      "outputs": [
        {
          "internalType": "bytes32",
          "name": "",
          "type": "bytes32"
        }
      ],
      "stateMutability": "view",
      "type": "function"
    },
    {
      "inputs": [
        {
          "internalType": "bytes32",
          "name": "role",
          "type": "bytes32"
        },
        {
          "internalType": "address",
          "name": "account",
          "type": "address"
        }
      ],
      "name": "grantRole",
      "outputs": [],
      "stateMutability": "nonpayable",
      "type": "function"
    },
    {
      "inputs": [
        {
          "internalType": "bytes32",
          "name": "role",
          "type": "bytes32"
        },
        {
          "internalType": "address",
          "name": "account",
          "type": "address"
        }
      ],
      "name": "hasRole",
      "outputs": [
        {
          "internalType": "bool",
          "name": "",
          "type": "bool"
        }
      ],
      "stateMutability": "view",
      "type": "function"
    },
    {
      "inputs": [
        {
          "internalType": "bytes32",
          "name": "role",
          "type": "bytes32"
        },
        {
          "internalType": "address",
          "name": "account",
          "type": "address"
        }
      ],
      "name": "renounceRole",
      "outputs": [],
      "stateMutability": "nonpayable",
      "type": "function"
    },
    {
      "inputs": [
        {
          "internalType": "bytes32",
          "name": "role",
          "type": "bytes32"
        },
        {
          "internalType": "address",
          "name": "account",
          "type": "address"
        }
      ],
      "name": "revokeRole",
      "outputs": [],
      "stateMutability": "nonpayable",
      "type": "function"
    },
    {
      "inputs": [
        {
          "internalType": "bytes4",
          "name": "interfaceId",
          "type": "bytes4"
        }
      ],
      "name": "supportsInterface",
      "outputs": [
        {
          "internalType": "bool",
          "name": "",
          "type": "bool"
        }
      ],
      "stateMutability": "view",
      "type": "function"
    },
    {
      "inputs": [
        {
          "internalType": "address",
          "name": "managementCenterAddress",
          "type": "address"
        },
        {
          "internalType": "address",
          "name": "managementCenterOwnerAddress",
          "type": "address"
        },
        {
          "internalType": "address",
          "name": "userAddress",
          "type": "address"
        },
        {
          "internalType": "address",
          "name": "serviceManagerAddress",
          "type": "address"
        },
        {
          "internalType": "address",
          "name": "licenseTokenAddress",
          "type": "address"
        }
      ],
      "name": "initialize",
      "outputs": [],
      "stateMutability": "nonpayable",
      "type": "function"
    },
    {
      "inputs": [
        {
          "internalType": "address",
          "name": "newManagementCenterAddress",
          "type": "address"
        }
      ],
      "name": "transferManagement",
      "outputs": [],
      "stateMutability": "nonpayable",
      "type": "function"
    },
    {
      "inputs": [
        {
          "internalType": "bool",
          "name": "isActive",
          "type": "bool"
        }
      ],
      "name": "setActivity",
      "outputs": [],
      "stateMutability": "nonpayable",
      "type": "function"
    },
    {
      "inputs": [
        {
          "internalType": "address",
          "name": "recipient",
          "type": "address"
        },
        {
          "internalType": "uint256",
          "name": "permissions",
          "type": "uint256"
        },
        {
          "internalType": "uint256",
          "name": "nonce",
          "type": "uint256"
        },
        {
          "internalType": "enum UserMonitoringCenter.UserType",
          "name": "userType",
          "type": "uint8"
        },
        {
          "internalType": "bytes32",
          "name": "nickname",
          "type": "bytes32"
        },
        {
          "internalType": "bytes",
          "name": "signature",
          "type": "bytes"
        }
      ],
      "name": "setUserPermissionsAndNickname",
      "outputs": [],
      "stateMutability": "nonpayable",
      "type": "function"
    },
    {
      "inputs": [
        {
          "internalType": "address",
          "name": "recipient",
          "type": "address"
        },
        {
          "internalType": "uint256",
          "name": "permissions",
          "type": "uint256"
        },
        {
          "internalType": "uint256",
          "name": "nonce",
          "type": "uint256"
        },
        {
          "internalType": "enum UserMonitoringCenter.UserType",
          "name": "userType",
          "type": "uint8"
        },
        {
          "internalType": "bytes",
          "name": "signature",
          "type": "bytes"
        }
      ],
      "name": "setUserPermissions",
      "outputs": [],
      "stateMutability": "nonpayable",
      "type": "function"
    },
    {
      "inputs": [
        {
          "internalType": "enum UserMonitoringCenter.UserType",
          "name": "userType",
          "type": "uint8"
        }
      ],
      "name": "getAllUsers",
      "outputs": [
        {
          "internalType": "address[]",
          "name": "",
          "type": "address[]"
        }
      ],
      "stateMutability": "view",
      "type": "function"
    },
    {
      "inputs": [
        {
          "internalType": "address",
          "name": "user",
          "type": "address"
        },
        {
          "internalType": "enum UserMonitoringCenter.UserType",
          "name": "userType",
          "type": "uint8"
        }
      ],
      "name": "removeUsers",
      "outputs": [],
      "stateMutability": "nonpayable",
      "type": "function"
    },
    {
      "inputs": [],
      "name": "followerUserSelfRemove",
      "outputs": [],
      "stateMutability": "nonpayable",
      "type": "function"
    },
    {
      "inputs": [],
      "name": "followerUserGetOwnPermissions",
      "outputs": [
        {
          "internalType": "uint256",
          "name": "",
          "type": "uint256"
        }
      ],
      "stateMutability": "view",
      "type": "function"
    },
    {
      "inputs": [
        {
          "internalType": "uint256",
          "name": "openReadingPool",
          "type": "uint256"
        }
      ],
      "name": "setOpenReadingServicePool",
      "outputs": [],
      "stateMutability": "nonpayable",
      "type": "function"
    },
    {
      "inputs": [],
      "name": "getOpenReadingServicePool",
      "outputs": [
        {
          "internalType": "uint256",
          "name": "",
          "type": "uint256"
        }
      ],
      "stateMutability": "view",
      "type": "function"
    },
    {
      "inputs": [
        {
          "internalType": "uint256",
          "name": "serviceId",
          "type": "uint256"
        }
      ],
      "name": "isOpenReadingService",
      "outputs": [
        {
          "internalType": "bool",
          "name": "",
          "type": "bool"
        }
      ],
      "stateMutability": "view",
      "type": "function"
    },
    {
      "inputs": [
        {
          "internalType": "address",
          "name": "user",
          "type": "address"
        },
        {
          "internalType": "address",
          "name": "follower",
          "type": "address"
        },
        {
          "internalType": "uint256",
          "name": "serviceId",
          "type": "uint256"
        }
      ],
      "name": "isFollowerAllowed",
      "outputs": [
        {
          "internalType": "bool",
          "name": "",
          "type": "bool"
        }
      ],
      "stateMutability": "view",
      "type": "function"
    },
    {
      "inputs": [
        {
          "internalType": "address",
          "name": "user",
          "type": "address"
        },
        {
          "internalType": "bytes32",
          "name": "nickname",
          "type": "bytes32"
        }
      ],
      "name": "setUserNickname",
      "outputs": [],
      "stateMutability": "nonpayable",
      "type": "function"
    },
    {
      "inputs": [
        {
          "internalType": "address",
          "name": "user",
          "type": "address"
        }
      ],
      "name": "getUserNickname",
      "outputs": [
        {
          "internalType": "bytes32",
          "name": "",
          "type": "bytes32"
        }
      ],
      "stateMutability": "view",
      "type": "function"
    }
  ],
  "bytecode": "0x60806040526001600f60016101000a81548160ff02191690831515021790555034801561002b57600080fd5b506138a38061003b6000396000f3fe608060405234801561001057600080fd5b50600436106101425760003560e01c806380985282116100b8578063a217fddf1161007c578063a217fddf14610383578063b79c36bd146103a1578063be08fd08146103bd578063d547741f146103d9578063dc654125146103f5578063e4edf8521461041357610142565b806380985282146102f357806387c255e3146102fd57806391d148541461031b57806398012a6b1461034b5780639dd072541461036757610142565b8063248a9ca31161010a578063248a9ca3146102235780632f2ff15d1461025357806336568abe1461026f57806340ad307f1461028b578063524236ce146102a757806359d531c4146102d757610142565b806301ffc9a71461014757806304766a7a146101775780631101ed0a146101a75780631459457a146101d757806314a24952146101f3575b600080fd5b610161600480360381019061015c91906129e7565b61042f565b60405161016e9190612ef1565b60405180910390f35b610191600480360381019061018c9190612665565b6104a9565b60405161019e9190612f0c565b60405180910390f35b6101c160048036038101906101bc919061270d565b6105b1565b6040516101ce9190612ef1565b60405180910390f35b6101f160048036038101906101ec9190612692565b61079c565b005b61020d60048036038101906102089190612a14565b610a06565b60405161021a9190612ecf565b60405180910390f35b61023d6004803603810190610238919061297a565b610b14565b60405161024a9190612f0c565b60405180910390f35b61026d600480360381019061026891906129a7565b610b33565b005b610289600480360381019061028491906129a7565b610b5c565b005b6102a560048036038101906102a09190612760565b610bdf565b005b6102c160048036038101906102bc9190612a41565b610ce6565b6040516102ce9190612ef1565b60405180910390f35b6102f160048036038101906102ec9190612a41565b610dc9565b005b6102fb610e92565b005b610305611071565b60405161031291906130c9565b60405180910390f35b610335600480360381019061033091906129a7565b6110ca565b6040516103429190612ef1565b60405180910390f35b610365600480360381019061036091906127e0565b611134565b005b610381600480360381019061037c9190612920565b61124c565b005b61038b611300565b6040516103989190612f0c565b60405180910390f35b6103bb60048036038101906103b69190612889565b611307565b005b6103d760048036038101906103d291906127a0565b611813565b005b6103f360048036038101906103ee91906129a7565b611b0e565b005b6103fd611b37565b60405161040a91906130c9565b60405180910390f35b61042d60048036038101906104289190612665565b611cb9565b005b60007f7965db0b000000000000000000000000000000000000000000000000000000007bffffffffffffffffffffffffffffffffffffffffffffffffffffffff1916827bffffffffffffffffffffffffffffffffffffffffffffffffffffffff191614806104a257506104a182611d94565b5b9050919050565b6000600f60019054906101000a900460ff166104fa576040517f08c379a00000000000000000000000000000000000000000000000000000000081526004016104f190613029565b60405180910390fd5b61052b7fb19546dff01e856fb3f010c267a7b1c60363cf8a4664e21cc89c26224620214e610526611dfe565b6110ca565b61056a576040517f08c379a000000000000000000000000000000000000000000000000000000000815260040161056190613069565b60405180910390fd5b600760008373ffffffffffffffffffffffffffffffffffffffff1673ffffffffffffffffffffffffffffffffffffffff168152602001908152602001600020549050919050565b6000600f60019054906101000a900460ff16610602576040517f08c379a00000000000000000000000000000000000000000000000000000000081526004016105f990613029565b60405180910390fd5b8373ffffffffffffffffffffffffffffffffffffffff16600160009054906101000a900473ffffffffffffffffffffffffffffffffffffffff1673ffffffffffffffffffffffffffffffffffffffff1614610692576040517f08c379a000000000000000000000000000000000000000000000000000000000815260040161068990612fc9565b60405180910390fd5b61069b82610ce6565b156106a95760019050610795565b6106bd83600a611e0690919063ffffffff16565b6106ca5760009050610795565b73__LicenseTools__________________________63995e9228600660008673ffffffffffffffffffffffffffffffffffffffff1673ffffffffffffffffffffffffffffffffffffffff16815260200190815260200160002054846040518363ffffffff1660e01b81526004016107429291906130e4565b60206040518083038186803b15801561075a57600080fd5b505af415801561076e573d6000803e3d6000fd5b505050506040513d601f19601f82011682018060405250810190610792919061294d565b90505b9392505050565b600f60009054906101000a900460ff16156107ec576040517f08c379a00000000000000000000000000000000000000000000000000000000081526004016107e390613049565b60405180910390fd5b84600260006101000a81548173ffffffffffffffffffffffffffffffffffffffff021916908373ffffffffffffffffffffffffffffffffffffffff16021790555083600360006101000a81548173ffffffffffffffffffffffffffffffffffffffff021916908373ffffffffffffffffffffffffffffffffffffffff16021790555082600160006101000a81548173ffffffffffffffffffffffffffffffffffffffff021916908373ffffffffffffffffffffffffffffffffffffffff1602179055506108fb7fb19546dff01e856fb3f010c267a7b1c60363cf8a4664e21cc89c26224620214e600160009054906101000a900473ffffffffffffffffffffffffffffffffffffffff16611e36565b6109477f241ecf16d79d0f8dbfb92cbc07fe17840425976cf0667f022fe9877caa831b08600260009054906101000a900473ffffffffffffffffffffffffffffffffffffffff16611e36565b81600c60006101000a81548173ffffffffffffffffffffffffffffffffffffffff021916908373ffffffffffffffffffffffffffffffffffffffff16021790555080600d60006101000a81548173ffffffffffffffffffffffffffffffffffffffff021916908373ffffffffffffffffffffffffffffffffffffffff1602179055506001600f60006101000a81548160ff0219169083151502179055506001600f60016101000a81548160ff0219169083151502179055505050505050565b6060600f60019054906101000a900460ff16610a57576040517f08c379a0000000000000000000000000000000000000000000000000000000008152600401610a4e90613029565b60405180910390fd5b610a887fb19546dff01e856fb3f010c267a7b1c60363cf8a4664e21cc89c26224620214e610a83611dfe565b6110ca565b610ac7576040517f08c379a0000000000000000000000000000000000000000000000000000000008152600401610abe90613069565b60405180910390fd5b60006001811115610adb57610ada61347f565b5b826001811115610aee57610aed61347f565b5b14610b0257610afd600a611e44565b610b0d565b610b0c6008611e44565b5b9050919050565b6000806000838152602001908152602001600020600101549050919050565b610b3c82610b14565b610b4d81610b48611dfe565b611e65565b610b578383611f02565b505050565b610b64611dfe565b73ffffffffffffffffffffffffffffffffffffffff168173ffffffffffffffffffffffffffffffffffffffff1614610bd1576040517f08c379a0000000000000000000000000000000000000000000000000000000008152600401610bc8906130a9565b60405180910390fd5b610bdb8282611fe2565b5050565b600f60019054906101000a900460ff16610c2e576040517f08c379a0000000000000000000000000000000000000000000000000000000008152600401610c2590613029565b60405180910390fd5b610c5f7fb19546dff01e856fb3f010c267a7b1c60363cf8a4664e21cc89c26224620214e610c5a611dfe565b6110ca565b610c9e576040517f08c379a0000000000000000000000000000000000000000000000000000000008152600401610c9590613069565b60405180910390fd5b80600760008473ffffffffffffffffffffffffffffffffffffffff1673ffffffffffffffffffffffffffffffffffffffff168152602001908152602001600020819055505050565b6000600f60019054906101000a900460ff16610d37576040517f08c379a0000000000000000000000000000000000000000000000000000000008152600401610d2e90613029565b60405180910390fd5b73__LicenseTools__________________________63995e9228600e54846040518363ffffffff1660e01b8152600401610d729291906130e4565b60206040518083038186803b158015610d8a57600080fd5b505af4158015610d9e573d6000803e3d6000fd5b505050506040513d601f19601f82011682018060405250810190610dc2919061294d565b9050919050565b600f60019054906101000a900460ff16610e18576040517f08c379a0000000000000000000000000000000000000000000000000000000008152600401610e0f90613029565b60405180910390fd5b610e497fb19546dff01e856fb3f010c267a7b1c60363cf8a4664e21cc89c26224620214e610e44611dfe565b6110ca565b610e88576040517f08c379a0000000000000000000000000000000000000000000000000000000008152600401610e7f90613069565b60405180910390fd5b80600e8190555050565b600f60019054906101000a900460ff16610ee1576040517f08c379a0000000000000000000000000000000000000000000000000000000008152600401610ed890613029565b60405180910390fd5b610ee9611dfe565b600160006001811115610eff57610efe61347f565b5b816001811115610f1257610f1161347f565b5b1415610f7057610f2c826008611e0690919063ffffffff16565b610f6b576040517f08c379a0000000000000000000000000000000000000000000000000000000008152600401610f6290613089565b60405180910390fd5b610fc4565b610f8482600a611e0690919063ffffffff16565b610fc3576040517f08c379a0000000000000000000000000000000000000000000000000000000008152600401610fba90613009565b60405180910390fd5b5b610fdf610fcf611dfe565b600a6120c390919063ffffffff16565b50600060066000610fee611dfe565b73ffffffffffffffffffffffffffffffffffffffff1673ffffffffffffffffffffffffffffffffffffffff168152602001908152602001600020819055507f529ecbc3c68c3d2c7bb008ee044e1a240723013a8c3456abaed0d80bcab7eb81611055611dfe565b6000604051611065929190612e7d565b60405180910390a15050565b6000600f60019054906101000a900460ff166110c2576040517f08c379a00000000000000000000000000000000000000000000000000000000081526004016110b990613029565b60405180910390fd5b600e54905090565b600080600084815260200190815260200160002060000160008373ffffffffffffffffffffffffffffffffffffffff1673ffffffffffffffffffffffffffffffffffffffff16815260200190815260200160002060009054906101000a900460ff16905092915050565b600f60019054906101000a900460ff16611183576040517f08c379a000000000000000000000000000000000000000000000000000000000815260040161117a90613029565b60405180910390fd5b6111b47fb19546dff01e856fb3f010c267a7b1c60363cf8a4664e21cc89c26224620214e6111af611dfe565b6110ca565b6111f3576040517f08c379a00000000000000000000000000000000000000000000000000000000081526004016111ea90613069565b60405180910390fd5b81600760008873ffffffffffffffffffffffffffffffffffffffff1673ffffffffffffffffffffffffffffffffffffffff168152602001908152602001600020819055506112448686868685611307565b505050505050565b611254611dfe565b73ffffffffffffffffffffffffffffffffffffffff16600360009054906101000a900473ffffffffffffffffffffffffffffffffffffffff1673ffffffffffffffffffffffffffffffffffffffff16146112e3576040517f08c379a00000000000000000000000000000000000000000000000000000000081526004016112da90613069565b60405180910390fd5b80600f60016101000a81548160ff02191690831515021790555050565b6000801b81565b600f60019054906101000a900460ff16611356576040517f08c379a000000000000000000000000000000000000000000000000000000000815260040161134d90613029565b60405180910390fd5b6113877fb19546dff01e856fb3f010c267a7b1c60363cf8a4664e21cc89c26224620214e611382611dfe565b6110ca565b6113c6576040517f08c379a00000000000000000000000000000000000000000000000000000000081526004016113bd90613069565b60405180910390fd5b600084141561140a576040517f08c379a000000000000000000000000000000000000000000000000000000000815260040161140190612fe9565b60405180910390fd5b6000600181111561141e5761141d61347f565b5b8260018111156114315761143061347f565b5b14156115505783600560008773ffffffffffffffffffffffffffffffffffffffff1673ffffffffffffffffffffffffffffffffffffffff1681526020019081526020016000205414156114b9576040517f08c379a00000000000000000000000000000000000000000000000000000000081526004016114b090612fa9565b60405180910390fd5b6114cd8560086120f390919063ffffffff16565b5083600560008773ffffffffffffffffffffffffffffffffffffffff1673ffffffffffffffffffffffffffffffffffffffff168152602001908152602001600020819055507fcd54d7e6dbadcd67bf2dc5740d6441fea3d13493ee22d7beeae303625a89d4268585604051611543929190612ea6565b60405180910390a161180c565b6001151573__VerifySignature_______________________6365ac0b7e87611577611dfe565b8787600181111561158b5761158a61347f565b5b876040518663ffffffff1660e01b81526004016115ac959493929190612e23565b60206040518083038186803b1580156115c457600080fd5b505af41580156115d8573d6000803e3d6000fd5b505050506040513d601f19601f820116820180604052508101906115fc919061294d565b15151461163e576040517f08c379a000000000000000000000000000000000000000000000000000000000815260040161163590612f69565b60405180910390fd5b826103e84261164d9190613266565b1161168d576040517f08c379a000000000000000000000000000000000000000000000000000000000815260040161168490612fc9565b60405180910390fd5b620697806103e8846103e8426116a39190613266565b6116ad91906132c0565b6116b79190613235565b106116f7576040517f08c379a00000000000000000000000000000000000000000000000000000000081526004016116ee90612f89565b60405180910390fd5b83600660008773ffffffffffffffffffffffffffffffffffffffff1673ffffffffffffffffffffffffffffffffffffffff168152602001908152602001600020541415611779576040517f08c379a000000000000000000000000000000000000000000000000000000000815260040161177090612fa9565b60405180910390fd5b61178d85600a6120f390919063ffffffff16565b5083600660008773ffffffffffffffffffffffffffffffffffffffff1673ffffffffffffffffffffffffffffffffffffffff168152602001908152602001600020819055507f529ecbc3c68c3d2c7bb008ee044e1a240723013a8c3456abaed0d80bcab7eb818585604051611803929190612ea6565b60405180910390a15b5050505050565b600f60019054906101000a900460ff16611862576040517f08c379a000000000000000000000000000000000000000000000000000000000815260040161185990613029565b60405180910390fd5b8181600060018111156118785761187761347f565b5b81600181111561188b5761188a61347f565b5b14156118e9576118a5826008611e0690919063ffffffff16565b6118e4576040517f08c379a00000000000000000000000000000000000000000000000000000000081526004016118db90613089565b60405180910390fd5b61193d565b6118fd82600a611e0690919063ffffffff16565b61193c576040517f08c379a000000000000000000000000000000000000000000000000000000000815260040161193390613009565b60405180910390fd5b5b61196e7fb19546dff01e856fb3f010c267a7b1c60363cf8a4664e21cc89c26224620214e611969611dfe565b6110ca565b6119ad576040517f08c379a00000000000000000000000000000000000000000000000000000000081526004016119a490613069565b60405180910390fd5b600060018111156119c1576119c061347f565b5b8360018111156119d4576119d361347f565b5b1415611a73576119ee8460086120c390919063ffffffff16565b506000600560008673ffffffffffffffffffffffffffffffffffffffff1673ffffffffffffffffffffffffffffffffffffffff168152602001908152602001600020819055507fcd54d7e6dbadcd67bf2dc5740d6441fea3d13493ee22d7beeae303625a89d426846000604051611a66929190612e7d565b60405180910390a1611b08565b611a8784600a6120c390919063ffffffff16565b506000600660008673ffffffffffffffffffffffffffffffffffffffff1673ffffffffffffffffffffffffffffffffffffffff168152602001908152602001600020819055507f529ecbc3c68c3d2c7bb008ee044e1a240723013a8c3456abaed0d80bcab7eb81846000604051611aff929190612e7d565b60405180910390a15b50505050565b611b1782610b14565b611b2881611b23611dfe565b611e65565b611b328383611fe2565b505050565b6000600f60019054906101000a900460ff16611b88576040517f08c379a0000000000000000000000000000000000000000000000000000000008152600401611b7f90613029565b60405180910390fd5b611b90611dfe565b600160006001811115611ba657611ba561347f565b5b816001811115611bb957611bb861347f565b5b1415611c1757611bd3826008611e0690919063ffffffff16565b611c12576040517f08c379a0000000000000000000000000000000000000000000000000000000008152600401611c0990613089565b60405180910390fd5b611c6b565b611c2b82600a611e0690919063ffffffff16565b611c6a576040517f08c379a0000000000000000000000000000000000000000000000000000000008152600401611c6190613009565b60405180910390fd5b5b60066000611c77611dfe565b73ffffffffffffffffffffffffffffffffffffffff1673ffffffffffffffffffffffffffffffffffffffff168152602001908152602001600020549250505090565b611cc1611dfe565b73ffffffffffffffffffffffffffffffffffffffff16600360009054906101000a900473ffffffffffffffffffffffffffffffffffffffff1673ffffffffffffffffffffffffffffffffffffffff1614611d50576040517f08c379a0000000000000000000000000000000000000000000000000000000008152600401611d4790613069565b60405180910390fd5b80600260006101000a81548173ffffffffffffffffffffffffffffffffffffffff021916908373ffffffffffffffffffffffffffffffffffffffff16021790555050565b60007f01ffc9a7000000000000000000000000000000000000000000000000000000007bffffffffffffffffffffffffffffffffffffffffffffffffffffffff1916827bffffffffffffffffffffffffffffffffffffffffffffffffffffffff1916149050919050565b600033905090565b6000611e2e836000018373ffffffffffffffffffffffffffffffffffffffff1660001b612123565b905092915050565b611e408282611f02565b5050565b60606000611e5483600001612146565b905060608190508092505050919050565b611e6f82826110ca565b611efe57611e948173ffffffffffffffffffffffffffffffffffffffff1660146121a2565b611ea28360001c60206121a2565b604051602001611eb3929190612de9565b6040516020818303038152906040526040517f08c379a0000000000000000000000000000000000000000000000000000000008152600401611ef59190612f27565b60405180910390fd5b5050565b611f0c82826110ca565b611fde57600160008084815260200190815260200160002060000160008373ffffffffffffffffffffffffffffffffffffffff1673ffffffffffffffffffffffffffffffffffffffff16815260200190815260200160002060006101000a81548160ff021916908315150217905550611f83611dfe565b73ffffffffffffffffffffffffffffffffffffffff168173ffffffffffffffffffffffffffffffffffffffff16837f2f8788117e7eff1d82e926ec794901d17c78024a50270940304540a733656f0d60405160405180910390a45b5050565b611fec82826110ca565b156120bf57600080600084815260200190815260200160002060000160008373ffffffffffffffffffffffffffffffffffffffff1673ffffffffffffffffffffffffffffffffffffffff16815260200190815260200160002060006101000a81548160ff021916908315150217905550612064611dfe565b73ffffffffffffffffffffffffffffffffffffffff168173ffffffffffffffffffffffffffffffffffffffff16837ff6391f5c32d9c69d2a47ea670b442974b53935d1edc7fd64eb21e047a839171b60405160405180910390a45b5050565b60006120eb836000018373ffffffffffffffffffffffffffffffffffffffff1660001b6123de565b905092915050565b600061211b836000018373ffffffffffffffffffffffffffffffffffffffff1660001b6124f2565b905092915050565b600080836001016000848152602001908152602001600020541415905092915050565b60608160000180548060200260200160405190810160405280929190818152602001828054801561219657602002820191906000526020600020905b815481526020019060010190808311612182575b50505050509050919050565b6060600060028360026121b59190613266565b6121bf91906131df565b67ffffffffffffffff8111156121d8576121d761350c565b5b6040519080825280601f01601f19166020018201604052801561220a5781602001600182028036833780820191505090505b5090507f300000000000000000000000000000000000000000000000000000000000000081600081518110612242576122416134dd565b5b60200101907effffffffffffffffffffffffffffffffffffffffffffffffffffffffffffff1916908160001a9053507f7800000000000000000000000000000000000000000000000000000000000000816001815181106122a6576122a56134dd565b5b60200101907effffffffffffffffffffffffffffffffffffffffffffffffffffffffffffff1916908160001a905350600060018460026122e69190613266565b6122f091906131df565b90505b6001811115612390577f3031323334353637383961626364656600000000000000000000000000000000600f861660108110612332576123316134dd565b5b1a60f81b828281518110612349576123486134dd565b5b60200101907effffffffffffffffffffffffffffffffffffffffffffffffffffffffffffff1916908160001a905350600485901c945080612389906133c6565b90506122f3565b50600084146123d4576040517f08c379a00000000000000000000000000000000000000000000000000000000081526004016123cb90612f49565b60405180910390fd5b8091505092915050565b600080836001016000848152602001908152602001600020549050600081146124e657600060018261241091906132c0565b905060006001866000018054905061242891906132c0565b9050818114612497576000866000018281548110612449576124486134dd565b5b906000526020600020015490508087600001848154811061246d5761246c6134dd565b5b90600052602060002001819055508387600101600083815260200190815260200160002081905550505b856000018054806124ab576124aa6134ae565b5b6001900381819060005260206000200160009055905585600101600086815260200190815260200160002060009055600193505050506124ec565b60009150505b92915050565b60006124fe8383612123565b61255757826000018290806001815401808255809150506001900390600052602060002001600090919091909150558260000180549050836001016000848152602001908152602001600020819055506001905061255c565b600090505b92915050565b600061257561257084613132565b61310d565b90508281526020810184848401111561259157612590613540565b5b61259c848285613384565b509392505050565b6000813590506125b3816137ea565b92915050565b6000813590506125c881613801565b92915050565b6000815190506125dd81613801565b92915050565b6000813590506125f281613818565b92915050565b6000813590506126078161382f565b92915050565b600082601f8301126126225761262161353b565b5b8135612632848260208601612562565b91505092915050565b60008135905061264a81613846565b92915050565b60008135905061265f81613856565b92915050565b60006020828403121561267b5761267a61354a565b5b6000612689848285016125a4565b91505092915050565b600080600080600060a086880312156126ae576126ad61354a565b5b60006126bc888289016125a4565b95505060206126cd888289016125a4565b94505060406126de888289016125a4565b93505060606126ef888289016125a4565b9250506080612700888289016125a4565b9150509295509295909350565b6000806000606084860312156127265761272561354a565b5b6000612734868287016125a4565b9350506020612745868287016125a4565b925050604061275686828701612650565b9150509250925092565b600080604083850312156127775761277661354a565b5b6000612785858286016125a4565b9250506020612796858286016125e3565b9150509250929050565b600080604083850312156127b7576127b661354a565b5b60006127c5858286016125a4565b92505060206127d68582860161263b565b9150509250929050565b60008060008060008060c087890312156127fd576127fc61354a565b5b600061280b89828a016125a4565b965050602061281c89828a01612650565b955050604061282d89828a01612650565b945050606061283e89828a0161263b565b935050608061284f89828a016125e3565b92505060a087013567ffffffffffffffff8111156128705761286f613545565b5b61287c89828a0161260d565b9150509295509295509295565b600080600080600060a086880312156128a5576128a461354a565b5b60006128b3888289016125a4565b95505060206128c488828901612650565b94505060406128d588828901612650565b93505060606128e68882890161263b565b925050608086013567ffffffffffffffff81111561290757612906613545565b5b6129138882890161260d565b9150509295509295909350565b6000602082840312156129365761293561354a565b5b6000612944848285016125b9565b91505092915050565b6000602082840312156129635761296261354a565b5b6000612971848285016125ce565b91505092915050565b6000602082840312156129905761298f61354a565b5b600061299e848285016125e3565b91505092915050565b600080604083850312156129be576129bd61354a565b5b60006129cc858286016125e3565b92505060206129dd858286016125a4565b9150509250929050565b6000602082840312156129fd576129fc61354a565b5b6000612a0b848285016125f8565b91505092915050565b600060208284031215612a2a57612a2961354a565b5b6000612a388482850161263b565b91505092915050565b600060208284031215612a5757612a5661354a565b5b6000612a6584828501612650565b91505092915050565b6000612a7a8383612a86565b60208301905092915050565b612a8f816132f4565b82525050565b612a9e816132f4565b82525050565b612aad816132f4565b82525050565b6000612abe82613173565b612ac881856131a1565b9350612ad383613163565b8060005b83811015612b04578151612aeb8882612a6e565b9750612af683613194565b925050600181019050612ad7565b5085935050505092915050565b612b1a81613306565b82525050565b612b2981613312565b82525050565b6000612b3a8261317e565b612b4481856131b2565b9350612b54818560208601613393565b612b5d8161354f565b840191505092915050565b612b7181613372565b82525050565b6000612b8282613189565b612b8c81856131c3565b9350612b9c818560208601613393565b612ba58161354f565b840191505092915050565b6000612bbb82613189565b612bc581856131d4565b9350612bd5818560208601613393565b80840191505092915050565b6000612bee6020836131c3565b9150612bf982613560565b602082019050919050565b6000612c116006836131c3565b9150612c1c82613589565b602082019050919050565b6000612c346006836131c3565b9150612c3f826135b2565b602082019050919050565b6000612c576006836131c3565b9150612c62826135db565b602082019050919050565b6000612c7a6005836131c3565b9150612c8582613604565b602082019050919050565b6000612c9d6005836131c3565b9150612ca88261362d565b602082019050919050565b6000612cc06006836131c3565b9150612ccb82613656565b602082019050919050565b6000612ce36006836131c3565b9150612cee8261367f565b602082019050919050565b6000612d06602e836131c3565b9150612d11826136a8565b604082019050919050565b6000612d296006836131c3565b9150612d34826136f7565b602082019050919050565b6000612d4c6017836131d4565b9150612d5782613720565b601782019050919050565b6000612d6f6006836131c3565b9150612d7a82613749565b602082019050919050565b6000612d926011836131d4565b9150612d9d82613772565b601182019050919050565b6000612db5602f836131c3565b9150612dc08261379b565b604082019050919050565b612dd481613368565b82525050565b612de381613368565b82525050565b6000612df482612d3f565b9150612e008285612bb0565b9150612e0b82612d85565b9150612e178284612bb0565b91508190509392505050565b600060a082019050612e386000830188612aa4565b612e456020830187612aa4565b612e526040830186612dda565b612e5f6060830185612dda565b8181036080830152612e718184612b2f565b90509695505050505050565b6000604082019050612e926000830185612a95565b612e9f6020830184612b68565b9392505050565b6000604082019050612ebb6000830185612a95565b612ec86020830184612dcb565b9392505050565b60006020820190508181036000830152612ee98184612ab3565b905092915050565b6000602082019050612f066000830184612b11565b92915050565b6000602082019050612f216000830184612b20565b92915050565b60006020820190508181036000830152612f418184612b77565b905092915050565b60006020820190508181036000830152612f6281612be1565b9050919050565b60006020820190508181036000830152612f8281612c04565b9050919050565b60006020820190508181036000830152612fa281612c27565b9050919050565b60006020820190508181036000830152612fc281612c4a565b9050919050565b60006020820190508181036000830152612fe281612c6d565b9050919050565b6000602082019050818103600083015261300281612c90565b9050919050565b6000602082019050818103600083015261302281612cb3565b9050919050565b6000602082019050818103600083015261304281612cd6565b9050919050565b6000602082019050818103600083015261306281612cf9565b9050919050565b6000602082019050818103600083015261308281612d1c565b9050919050565b600060208201905081810360008301526130a281612d62565b9050919050565b600060208201905081810360008301526130c281612da8565b9050919050565b60006020820190506130de6000830184612dcb565b92915050565b60006040820190506130f96000830185612dda565b6131066020830184612dda565b9392505050565b6000613117613128565b905061312382826133f0565b919050565b6000604051905090565b600067ffffffffffffffff82111561314d5761314c61350c565b5b6131568261354f565b9050602081019050919050565b6000819050602082019050919050565b600081519050919050565b600081519050919050565b600081519050919050565b6000602082019050919050565b600082825260208201905092915050565b600082825260208201905092915050565b600082825260208201905092915050565b600081905092915050565b60006131ea82613368565b91506131f583613368565b9250827fffffffffffffffffffffffffffffffffffffffffffffffffffffffffffffffff0382111561322a57613229613421565b5b828201905092915050565b600061324082613368565b915061324b83613368565b92508261325b5761325a613450565b5b828204905092915050565b600061327182613368565b915061327c83613368565b9250817fffffffffffffffffffffffffffffffffffffffffffffffffffffffffffffffff04831182151516156132b5576132b4613421565b5b828202905092915050565b60006132cb82613368565b91506132d683613368565b9250828210156132e9576132e8613421565b5b828203905092915050565b60006132ff82613348565b9050919050565b60008115159050919050565b6000819050919050565b60007fffffffff0000000000000000000000000000000000000000000000000000000082169050919050565b600073ffffffffffffffffffffffffffffffffffffffff82169050919050565b6000819050919050565b600061337d82613368565b9050919050565b82818337600083830152505050565b60005b838110156133b1578082015181840152602081019050613396565b838111156133c0576000848401525b50505050565b60006133d182613368565b915060008214156133e5576133e4613421565b5b600182039050919050565b6133f98261354f565b810181811067ffffffffffffffff821117156134185761341761350c565b5b80604052505050565b7f4e487b7100000000000000000000000000000000000000000000000000000000600052601160045260246000fd5b7f4e487b7100000000000000000000000000000000000000000000000000000000600052601260045260246000fd5b7f4e487b7100000000000000000000000000000000000000000000000000000000600052602160045260246000fd5b7f4e487b7100000000000000000000000000000000000000000000000000000000600052603160045260246000fd5b7f4e487b7100000000000000000000000000000000000000000000000000000000600052603260045260246000fd5b7f4e487b7100000000000000000000000000000000000000000000000000000000600052604160045260246000fd5b600080fd5b600080fd5b600080fd5b600080fd5b6000601f19601f8301169050919050565b7f537472696e67733a20686578206c656e67746820696e73756666696369656e74600082015250565b7f4552525349470000000000000000000000000000000000000000000000000000600082015250565b7f4f4c445245510000000000000000000000000000000000000000000000000000600082015250565b7f4552525045520000000000000000000000000000000000000000000000000000600082015250565b7f4241445251000000000000000000000000000000000000000000000000000000600082015250565b7f4e44504552000000000000000000000000000000000000000000000000000000600082015250565b7f4e4f544657520000000000000000000000000000000000000000000000000000600082015250565b7f494e414354560000000000000000000000000000000000000000000000000000600082015250565b7f436f6e747261637420696e7374616e63652068617320616c726561647920626560008201527f656e20696e697469616c697a6564000000000000000000000000000000000000602082015250565b7f554e415554480000000000000000000000000000000000000000000000000000600082015250565b7f416363657373436f6e74726f6c3a206163636f756e7420000000000000000000600082015250565b7f4e4f544657470000000000000000000000000000000000000000000000000000600082015250565b7f206973206d697373696e6720726f6c6520000000000000000000000000000000600082015250565b7f416363657373436f6e74726f6c3a2063616e206f6e6c792072656e6f756e636560008201527f20726f6c657320666f722073656c660000000000000000000000000000000000602082015250565b6137f3816132f4565b81146137fe57600080fd5b50565b61380a81613306565b811461381557600080fd5b50565b61382181613312565b811461382c57600080fd5b50565b6138388161331c565b811461384357600080fd5b50565b6002811061385357600080fd5b50565b61385f81613368565b811461386a57600080fd5b5056fea2646970667358221220f1950025ebff013cae49c0dbfd779e390f9ca52e37055c861ea38e2ebedf892964736f6c63430008070033",
  "immutableReferences": {},
  "source": "// SPDX-License-Identifier: GPL-3.0\npragma solidity >=0.4.25 <0.9.0;\nimport \"@openzeppelin/contracts/access/AccessControl.sol\";\nimport \"@openzeppelin/contracts/utils/structs/EnumerableSet.sol\";\n\nimport \"./VerifySignature.sol\";\nimport \"./LicenseTools.sol\";\nimport \"./LicenseToken.sol\";\nimport \"./ServiceManager.sol\";\nimport \"./ManagementCenter.sol\";\n\ncontract UserMonitoringCenter is AccessControl {\n    using EnumerableSet for EnumerableSet.AddressSet;\n\n    struct UpdatedData {\n        string dataHash; // string\n        uint256 updateTime; // updated time\n        uint256 totalEquity;\n    }\n    //CONSTANTS\n    uint256 constant numberOfPeriodsGap = 3;\n\n    /******************************\n        EVENTS\n    ******************************/\n\n    event DataUpdated(uint256 updateTime);\n    event FollowinUserPermissionSettled(address user, uint256 permissions);\n    event FollowerUserPermissionSettled(address user, uint256 permissions);\n\n    /******************************\n        VARIABLES\n    ******************************/\n\n    bytes32 constant OWNER_ROLE = keccak256(\"OWNER_ROLE\");\n    bytes32 constant MANAGER_ROLE = keccak256(\"MANAGER_ROLE\");\n    uint256 constant _updatedDataTimeWindows = 5 minutes;\n\n    // manager of the contract\n    address private _owner;\n    // manager address\n    address private _manager;\n\n    // manager owner address\n    address private _managerOwner;\n\n    // stores the updated `data` of the user.\n    mapping(uint256 => UpdatedData) _updatedDataByService;\n\n    // Declare a set state variable of address following\n    mapping(address => uint256) _followingUsersPermissions;\n\n    // Declare a set state variable of address followers\n    mapping(address => uint256) _followersUsersPermissions;\n\n    // Declare a set state variable of address followers\n    mapping(address => bytes32) _nicknames;\n\n    // Declare a set state variable of address of followin gUsers\n    EnumerableSet.AddressSet _followingUsers;\n\n    // Declare a set state variable of address of followers users\n    EnumerableSet.AddressSet _followersUsers;\n\n    //Service Manager\n    ServiceManager serviceManagerInstance;\n    //License Manager\n    LicenseToken licenseTokenInstance;\n\n    uint256 private _openReadingPool;\n\n    bool private initialized;\n    bool _isActive = true;\n    enum UserType {\n        FOLLOWING,\n        FOLLOWER\n    }\n\n    //Modifiers\n    //  * @param userType true(FOLLOWING), false(FOLLOWERS)\n    modifier onlyFollowingOrFollowerUsers(address user, UserType userType) {\n        if (userType == UserType.FOLLOWING) {\n            require(_followingUsers.contains(user), \"NOTFWG\");\n        } else {\n            require(_followersUsers.contains(user), \"NOTFWR\");\n        }\n        _;\n    }\n\n    modifier checkActive() {\n        require(_isActive, \"INACTV\");\n        _;\n    }\n\n    /**\n     * @notice initialize function\n     * @param managementCenterAddress manager Transaction Feed\n     * @param userAddress user address\n     * @param managementCenterOwnerAddress  owner of the management center\n     * @param serviceManagerAddress  service Manager Address\n     * @param licenseTokenAddress license Token Address\n     */\n    function initialize(\n        address managementCenterAddress,\n        address managementCenterOwnerAddress,\n        address userAddress,\n        address serviceManagerAddress,\n        address licenseTokenAddress\n    ) public {\n        require(!initialized, \"Contract instance has already been initialized\");\n        _manager = managementCenterAddress;\n        _managerOwner = managementCenterOwnerAddress;\n        _owner = userAddress;\n        _setupRole(OWNER_ROLE, _owner);\n        _setupRole(MANAGER_ROLE, _manager);\n        serviceManagerInstance = ServiceManager(serviceManagerAddress);\n        licenseTokenInstance = LicenseToken(licenseTokenAddress);\n        initialized = true;\n        _isActive = true;\n    }\n\n    /**\n     * @notice change manager\n     * @dev function is created in case of management center replacement\n     * @param newManagementCenterAddress manager Transaction Feed\n     */\n    function transferManagement(address newManagementCenterAddress) public {\n        require(\n            // Only manager's owner can change manager\n            _managerOwner == _msgSender(),\n            \"UNAUTH\"\n        );\n        _manager = newManagementCenterAddress;\n    }\n\n    /**\n     * @notice change manager\n     * @dev function is created in case of management center replacement\n     * @param isActive isActive variable\n     */\n    function setActivity(bool isActive) public {\n        require(\n            // Only manager's owner can change manager\n            _managerOwner == _msgSender(),\n            \"UNAUTH\"\n        );\n        _isActive = isActive;\n    }\n\n    /**\n     * @notice Set user permissions for an address\n     * @param recipient added address\n     * @param userType FOLLOWING, FOLLOWERS\n     * @param permissions permissions added with\n     * @param nonce nonce\n     * @param nickname nickname\n     * @param signature signature\n     */\n    function setUserPermissionsAndNickname(\n        address recipient,\n        uint256 permissions,\n        uint256 nonce,\n        UserType userType,\n        bytes32 nickname,\n        bytes memory signature\n    ) public checkActive {\n        require(hasRole(OWNER_ROLE, _msgSender()), \"UNAUTH\");\n        _nicknames[recipient] = nickname;\n        return\n            setUserPermissions(\n                recipient,\n                permissions,\n                nonce,\n                userType,\n                signature\n            );\n    }\n\n    /**\n     * @notice Set user permissions for an address\n     * @param recipient added address\n     * @param userType FOLLOWING, FOLLOWERS\n     * @param permissions permissions added with\n     * @param nonce nonce\n     * @param signature signature\n     */\n    function setUserPermissions(\n        address recipient,\n        uint256 permissions,\n        uint256 nonce,\n        UserType userType,\n        bytes memory signature\n    ) public checkActive {\n        require(hasRole(OWNER_ROLE, _msgSender()), \"UNAUTH\");\n        require(permissions != 0, \"NDPER\");\n        if (userType == UserType.FOLLOWING) {\n            require(\n                _followingUsersPermissions[recipient] != permissions,\n                \"ERRPER\"\n            );\n            _followingUsers.add(recipient);\n            _followingUsersPermissions[recipient] = permissions;\n            emit FollowinUserPermissionSettled(recipient, permissions);\n        } else {\n            require(\n                VerifySignature.verifyPermissionRequest(\n                    recipient,\n                    _msgSender(),\n                    nonce,\n                    uint256(userType),\n                    signature\n                ) == true,\n                \"ERRSIG\"\n            );\n            require(block.timestamp * 1000 > nonce, \"BADRQ\");\n            require((block.timestamp * 1000 - nonce) / 1000 < 5 days, \"OLDREQ\");\n            require(\n                _followersUsersPermissions[recipient] != permissions,\n                \"ERRPER\"\n            );\n            _followersUsers.add(recipient);\n            _followersUsersPermissions[recipient] = permissions;\n            emit FollowerUserPermissionSettled(recipient, permissions);\n        }\n    }\n\n    /**\n    * @notice get all users FOLLOWING or FOLLOWERS for the address.\n    * @param userType true(FOLLOWING), false(FOLLOWERS)\n    * Return the entire set in an array\n    //\n    // WARNING\tThis operation will copy the entire storage to memory,\n    // which can be quite expensive. This is designed to mostly be used by view\n    // accessors that are queried without any gas fees.\n    // Developers should keep in mind that this function\n    // has an unbounded cost, and using it as part of a state-changing\n    // function may render the function uncallable if the set grows to a\n    // point where copying to memory consumes too much gas to fit in a block.\n    */\n    function getAllUsers(UserType userType)\n        public\n        view\n        checkActive\n        returns (address[] memory)\n    {\n        require(hasRole(OWNER_ROLE, _msgSender()), \"UNAUTH\");\n        return\n            userType == UserType.FOLLOWING\n                ? _followingUsers.values()\n                : _followersUsers.values();\n    }\n\n    /**\n     * @notice Remove follower.\n     * @param user foolowe user to be removed\n     * @param userType FOLLOWING), FOLLOWERS)\n     * the user can remove itself\n     */\n    function removeUsers(address user, UserType userType)\n        public\n        checkActive\n        onlyFollowingOrFollowerUsers(user, userType)\n    {\n        require(hasRole(OWNER_ROLE, _msgSender()), \"UNAUTH\");\n        if (userType == UserType.FOLLOWING) {\n            _followingUsers.remove(user);\n            _followingUsersPermissions[user] = 0;\n            emit FollowinUserPermissionSettled(user, 0);\n        } else {\n            _followersUsers.remove(user);\n            _followersUsersPermissions[user] = 0;\n            emit FollowerUserPermissionSettled(user, 0);\n        }\n    }\n\n    /**\n     * @notice self Remove viewer. If user dont want to follow the current user,\n     * the user can remove itself\n     */\n    function followerUserSelfRemove()\n        public\n        checkActive\n        onlyFollowingOrFollowerUsers(_msgSender(), UserType.FOLLOWER)\n    {\n        _followersUsers.remove(_msgSender());\n        _followersUsersPermissions[_msgSender()] = 0;\n        emit FollowerUserPermissionSettled(_msgSender(), 0);\n    }\n\n    /**\n     * @notice follower User Get Own Permissions\n     */\n    function followerUserGetOwnPermissions()\n        public\n        view\n        checkActive\n        onlyFollowingOrFollowerUsers(_msgSender(), UserType.FOLLOWER)\n        returns (uint256)\n    {\n        return _followersUsersPermissions[_msgSender()];\n    }\n\n    /**\n     * @notice set open reading services pool\n     * @param openReadingPool open Reading Status\n     */\n    function setOpenReadingServicePool(uint256 openReadingPool)\n        public\n        checkActive\n    {\n        require(hasRole(OWNER_ROLE, _msgSender()), \"UNAUTH\");\n        _openReadingPool = openReadingPool;\n    }\n\n    /**\n     * @notice get open reading services pool\n     */\n    function getOpenReadingServicePool()\n        public\n        view\n        checkActive\n        returns (uint256)\n    {\n        return _openReadingPool;\n    }\n\n    /**\n     * @notice get open reading\n     * @param serviceId service\n     * @return openReadingStatus\n     */\n    function isOpenReadingService(uint256 serviceId)\n        public\n        view\n        checkActive\n        returns (bool)\n    {\n        return LicenseTools.getBoolean(_openReadingPool, serviceId);\n    }\n\n    /**\n     * @dev get data function from viewres\n     * @param user the function follower\n     * @param follower the function follower\n     * @param serviceId the service id of the wanted hash\n     */\n    function isFollowerAllowed(\n        address user,\n        address follower,\n        uint256 serviceId\n    ) public view checkActive returns (bool) {\n        require(_owner == user, \"BADRQ\");\n        if (isOpenReadingService(serviceId)) {\n            return true;\n        } else {\n            if (!_followersUsers.contains(follower)) return false;\n            // require the viewer are allowed to get data for the required service\n            return\n                LicenseTools.getBoolean(\n                    _followersUsersPermissions[follower],\n                    serviceId\n                );\n        }\n    }\n\n    /**\n     * @notice set user nickname\n     * @param user user\n     * @param nickname nickname\n     */\n    function setUserNickname(address user, bytes32 nickname)\n        public\n        checkActive\n    {\n        require(hasRole(OWNER_ROLE, _msgSender()), \"UNAUTH\");\n        _nicknames[user] = nickname;\n    }\n\n    /**\n     * @notice get user nickname\n     * @param user user\n     */\n    function getUserNickname(address user)\n        public\n        view\n        checkActive\n        returns (bytes32)\n    {\n        require(hasRole(OWNER_ROLE, _msgSender()), \"UNAUTH\");\n        return _nicknames[user];\n    }\n}\n",
  "sourcePath": "/home/israel/Documents/cashtween/code/Cryptween-smart-contract-2/contracts/UserMonitoringCenter.sol",
  "compiler": {
    "name": "solc",
    "version": "0.8.7+commit.e28d00a7.Emscripten.clang"
  },
  "schemaVersion": "3.4.3",
  "updatedAt": "2022-04-18T18:08:02.414Z",
  "networkType": "ethereum",
  "devdoc": {
    "kind": "dev",
    "methods": {
      "getAllUsers(uint8)": {
        "params": {
          "userType": "true(FOLLOWING), false(FOLLOWERS) Return the entire set in an array // // WARNING\tThis operation will copy the entire storage to memory, // which can be quite expensive. This is designed to mostly be used by view // accessors that are queried without any gas fees. // Developers should keep in mind that this function // has an unbounded cost, and using it as part of a state-changing // function may render the function uncallable if the set grows to a // point where copying to memory consumes too much gas to fit in a block."
        }
      },
      "getRoleAdmin(bytes32)": {
        "details": "Returns the admin role that controls `role`. See {grantRole} and {revokeRole}. To change a role's admin, use {_setRoleAdmin}."
      },
      "getUserNickname(address)": {
        "params": {
          "user": "user"
        }
      },
      "grantRole(bytes32,address)": {
        "details": "Grants `role` to `account`. If `account` had not been already granted `role`, emits a {RoleGranted} event. Requirements: - the caller must have ``role``'s admin role."
      },
      "hasRole(bytes32,address)": {
        "details": "Returns `true` if `account` has been granted `role`."
      },
      "initialize(address,address,address,address,address)": {
        "params": {
          "licenseTokenAddress": "license Token Address",
          "managementCenterAddress": "manager Transaction Feed",
          "managementCenterOwnerAddress": "owner of the management center",
          "serviceManagerAddress": "service Manager Address",
          "userAddress": "user address"
        }
      },
      "isFollowerAllowed(address,address,uint256)": {
        "details": "get data function from viewres",
        "params": {
          "follower": "the function follower",
          "serviceId": "the service id of the wanted hash",
          "user": "the function follower"
        }
      },
      "isOpenReadingService(uint256)": {
        "params": {
          "serviceId": "service"
        },
        "returns": {
          "_0": "openReadingStatus"
        }
      },
      "removeUsers(address,uint8)": {
        "params": {
          "user": "foolowe user to be removed",
          "userType": "FOLLOWING), FOLLOWERS) the user can remove itself"
        }
      },
      "renounceRole(bytes32,address)": {
        "details": "Revokes `role` from the calling account. Roles are often managed via {grantRole} and {revokeRole}: this function's purpose is to provide a mechanism for accounts to lose their privileges if they are compromised (such as when a trusted device is misplaced). If the calling account had been granted `role`, emits a {RoleRevoked} event. Requirements: - the caller must be `account`."
      },
      "revokeRole(bytes32,address)": {
        "details": "Revokes `role` from `account`. If `account` had been granted `role`, emits a {RoleRevoked} event. Requirements: - the caller must have ``role``'s admin role."
      },
      "setActivity(bool)": {
        "details": "function is created in case of management center replacement",
        "params": {
          "isActive": "isActive variable"
        }
      },
      "setOpenReadingServicePool(uint256)": {
        "params": {
          "openReadingPool": "open Reading Status"
        }
      },
      "setUserNickname(address,bytes32)": {
        "params": {
          "nickname": "nickname",
          "user": "user"
        }
      },
      "setUserPermissions(address,uint256,uint256,uint8,bytes)": {
        "params": {
          "nonce": "nonce",
          "permissions": "permissions added with",
          "recipient": "added address",
          "signature": "signature",
          "userType": "FOLLOWING, FOLLOWERS"
        }
      },
      "setUserPermissionsAndNickname(address,uint256,uint256,uint8,bytes32,bytes)": {
        "params": {
          "nickname": "nickname",
          "nonce": "nonce",
          "permissions": "permissions added with",
          "recipient": "added address",
          "signature": "signature",
          "userType": "FOLLOWING, FOLLOWERS"
        }
      },
      "supportsInterface(bytes4)": {
        "details": "See {IERC165-supportsInterface}."
      },
      "transferManagement(address)": {
        "details": "function is created in case of management center replacement",
        "params": {
          "newManagementCenterAddress": "manager Transaction Feed"
        }
      }
    },
    "version": 1
  },
  "userdoc": {
    "kind": "user",
    "methods": {
      "followerUserGetOwnPermissions()": {
        "notice": "follower User Get Own Permissions"
      },
      "followerUserSelfRemove()": {
        "notice": "self Remove viewer. If user dont want to follow the current user, the user can remove itself"
      },
      "getAllUsers(uint8)": {
        "notice": "get all users FOLLOWING or FOLLOWERS for the address."
      },
      "getOpenReadingServicePool()": {
        "notice": "get open reading services pool"
      },
      "getUserNickname(address)": {
        "notice": "get user nickname"
      },
      "initialize(address,address,address,address,address)": {
        "notice": "initialize function"
      },
      "isOpenReadingService(uint256)": {
        "notice": "get open reading"
      },
      "removeUsers(address,uint8)": {
        "notice": "Remove follower."
      },
      "setActivity(bool)": {
        "notice": "change manager"
      },
      "setOpenReadingServicePool(uint256)": {
        "notice": "set open reading services pool"
      },
      "setUserNickname(address,bytes32)": {
        "notice": "set user nickname"
      },
      "setUserPermissions(address,uint256,uint256,uint8,bytes)": {
        "notice": "Set user permissions for an address"
      },
      "setUserPermissionsAndNickname(address,uint256,uint256,uint8,bytes32,bytes)": {
        "notice": "Set user permissions for an address"
      },
      "transferManagement(address)": {
        "notice": "change manager"
      }
    },
    "version": 1
  }
}