{
  "contractName": "UserMonitoringCenter",
  "abi": [
    {
      "anonymous": false,
      "inputs": [
        {
          "indexed": false,
          "internalType": "uint256",
          "name": "updateTime",
          "type": "uint256"
        }
      ],
      "name": "DataUpdated",
      "type": "event"
    },
    {
      "anonymous": false,
      "inputs": [
        {
          "indexed": false,
          "internalType": "address",
          "name": "user",
          "type": "address"
        },
        {
          "indexed": false,
          "internalType": "uint256",
          "name": "permissions",
          "type": "uint256"
        }
      ],
      "name": "FollowerUserPermissionSettled",
      "type": "event"
    },
    {
      "anonymous": false,
      "inputs": [
        {
          "indexed": false,
          "internalType": "address",
          "name": "user",
          "type": "address"
        },
        {
          "indexed": false,
          "internalType": "uint256",
          "name": "permissions",
          "type": "uint256"
        }
      ],
      "name": "FollowinUserPermissionSettled",
      "type": "event"
    },
    {
      "anonymous": false,
      "inputs": [
        {
          "indexed": true,
          "internalType": "bytes32",
          "name": "role",
          "type": "bytes32"
        },
        {
          "indexed": true,
          "internalType": "bytes32",
          "name": "previousAdminRole",
          "type": "bytes32"
        },
        {
          "indexed": true,
          "internalType": "bytes32",
          "name": "newAdminRole",
          "type": "bytes32"
        }
      ],
      "name": "RoleAdminChanged",
      "type": "event"
    },
    {
      "anonymous": false,
      "inputs": [
        {
          "indexed": true,
          "internalType": "bytes32",
          "name": "role",
          "type": "bytes32"
        },
        {
          "indexed": true,
          "internalType": "address",
          "name": "account",
          "type": "address"
        },
        {
          "indexed": true,
          "internalType": "address",
          "name": "sender",
          "type": "address"
        }
      ],
      "name": "RoleGranted",
      "type": "event"
    },
    {
      "anonymous": false,
      "inputs": [
        {
          "indexed": true,
          "internalType": "bytes32",
          "name": "role",
          "type": "bytes32"
        },
        {
          "indexed": true,
          "internalType": "address",
          "name": "account",
          "type": "address"
        },
        {
          "indexed": true,
          "internalType": "address",
          "name": "sender",
          "type": "address"
        }
      ],
      "name": "RoleRevoked",
      "type": "event"
    },
    {
      "inputs": [],
      "name": "DEFAULT_ADMIN_ROLE",
      "outputs": [
        {
          "internalType": "bytes32",
          "name": "",
          "type": "bytes32"
        }
      ],
      "stateMutability": "view",
      "type": "function"
    },
    {
      "inputs": [
        {
          "internalType": "bytes32",
          "name": "role",
          "type": "bytes32"
        }
      ],
      "name": "getRoleAdmin",
      "outputs": [
        {
          "internalType": "bytes32",
          "name": "",
          "type": "bytes32"
        }
      ],
      "stateMutability": "view",
      "type": "function"
    },
    {
      "inputs": [
        {
          "internalType": "bytes32",
          "name": "role",
          "type": "bytes32"
        },
        {
          "internalType": "address",
          "name": "account",
          "type": "address"
        }
      ],
      "name": "grantRole",
      "outputs": [],
      "stateMutability": "nonpayable",
      "type": "function"
    },
    {
      "inputs": [
        {
          "internalType": "bytes32",
          "name": "role",
          "type": "bytes32"
        },
        {
          "internalType": "address",
          "name": "account",
          "type": "address"
        }
      ],
      "name": "hasRole",
      "outputs": [
        {
          "internalType": "bool",
          "name": "",
          "type": "bool"
        }
      ],
      "stateMutability": "view",
      "type": "function"
    },
    {
      "inputs": [
        {
          "internalType": "bytes32",
          "name": "role",
          "type": "bytes32"
        },
        {
          "internalType": "address",
          "name": "account",
          "type": "address"
        }
      ],
      "name": "renounceRole",
      "outputs": [],
      "stateMutability": "nonpayable",
      "type": "function"
    },
    {
      "inputs": [
        {
          "internalType": "bytes32",
          "name": "role",
          "type": "bytes32"
        },
        {
          "internalType": "address",
          "name": "account",
          "type": "address"
        }
      ],
      "name": "revokeRole",
      "outputs": [],
      "stateMutability": "nonpayable",
      "type": "function"
    },
    {
      "inputs": [
        {
          "internalType": "bytes4",
          "name": "interfaceId",
          "type": "bytes4"
        }
      ],
      "name": "supportsInterface",
      "outputs": [
        {
          "internalType": "bool",
          "name": "",
          "type": "bool"
        }
      ],
      "stateMutability": "view",
      "type": "function"
    },
    {
      "inputs": [
        {
          "internalType": "address",
          "name": "managementCenterAddress",
          "type": "address"
        },
        {
          "internalType": "address",
          "name": "managementCenterOwnerAddress",
          "type": "address"
        },
        {
          "internalType": "address",
          "name": "userAddress",
          "type": "address"
        },
        {
          "internalType": "address",
          "name": "serviceManagerAddress",
          "type": "address"
        },
        {
          "internalType": "address",
          "name": "licenseTokenAddress",
          "type": "address"
        }
      ],
      "name": "initialize",
      "outputs": [],
      "stateMutability": "nonpayable",
      "type": "function"
    },
    {
      "inputs": [
        {
          "internalType": "address",
          "name": "newManagementCenterAddress",
          "type": "address"
        }
      ],
      "name": "transferManagement",
      "outputs": [],
      "stateMutability": "nonpayable",
      "type": "function"
    },
    {
      "inputs": [
        {
          "internalType": "bool",
          "name": "isActive",
          "type": "bool"
        }
      ],
      "name": "setActivity",
      "outputs": [],
      "stateMutability": "nonpayable",
      "type": "function"
    },
    {
      "inputs": [
        {
          "internalType": "address",
          "name": "recipient",
          "type": "address"
        },
        {
          "internalType": "uint256",
          "name": "permissions",
          "type": "uint256"
        },
        {
          "internalType": "uint256",
          "name": "nonce",
          "type": "uint256"
        },
        {
          "internalType": "enum UserMonitoringCenter.UserType",
          "name": "userType",
          "type": "uint8"
        },
        {
          "internalType": "bytes32",
          "name": "nickname",
          "type": "bytes32"
        },
        {
          "internalType": "bytes",
          "name": "signature",
          "type": "bytes"
        }
      ],
      "name": "setUserPermissionsAndNickname",
      "outputs": [],
      "stateMutability": "nonpayable",
      "type": "function"
    },
    {
      "inputs": [
        {
          "internalType": "address",
          "name": "recipient",
          "type": "address"
        },
        {
          "internalType": "uint256",
          "name": "permissions",
          "type": "uint256"
        },
        {
          "internalType": "uint256",
          "name": "nonce",
          "type": "uint256"
        },
        {
          "internalType": "enum UserMonitoringCenter.UserType",
          "name": "userType",
          "type": "uint8"
        },
        {
          "internalType": "bytes",
          "name": "signature",
          "type": "bytes"
        }
      ],
      "name": "setUserPermissions",
      "outputs": [],
      "stateMutability": "nonpayable",
      "type": "function"
    },
    {
      "inputs": [
        {
          "internalType": "enum UserMonitoringCenter.UserType",
          "name": "userType",
          "type": "uint8"
        }
      ],
      "name": "getAllUsers",
      "outputs": [
        {
          "internalType": "address[]",
          "name": "",
          "type": "address[]"
        }
      ],
      "stateMutability": "view",
      "type": "function"
    },
    {
      "inputs": [
        {
          "internalType": "address",
          "name": "user",
          "type": "address"
        },
        {
          "internalType": "enum UserMonitoringCenter.UserType",
          "name": "userType",
          "type": "uint8"
        }
      ],
      "name": "removeUsers",
      "outputs": [],
      "stateMutability": "nonpayable",
      "type": "function"
    },
    {
      "inputs": [
        {
          "internalType": "address",
          "name": "user",
          "type": "address"
        },
        {
          "internalType": "enum UserMonitoringCenter.UserType",
          "name": "userType",
          "type": "uint8"
        }
      ],
      "name": "getUserPermissions",
      "outputs": [
        {
          "internalType": "uint256",
          "name": "",
          "type": "uint256"
        }
      ],
      "stateMutability": "view",
      "type": "function"
    },
    {
      "inputs": [],
      "name": "followerUserSelfRemove",
      "outputs": [],
      "stateMutability": "nonpayable",
      "type": "function"
    },
    {
      "inputs": [],
      "name": "followerUserGetOwnPermissions",
      "outputs": [
        {
          "internalType": "uint256",
          "name": "",
          "type": "uint256"
        }
      ],
      "stateMutability": "view",
      "type": "function"
    },
    {
      "inputs": [
        {
          "internalType": "uint256",
          "name": "openReadingPool",
          "type": "uint256"
        }
      ],
      "name": "setOpenReadingServicePool",
      "outputs": [],
      "stateMutability": "nonpayable",
      "type": "function"
    },
    {
      "inputs": [],
      "name": "getOpenReadingServicePool",
      "outputs": [
        {
          "internalType": "uint256",
          "name": "",
          "type": "uint256"
        }
      ],
      "stateMutability": "view",
      "type": "function"
    },
    {
      "inputs": [
        {
          "internalType": "uint256",
          "name": "serviceId",
          "type": "uint256"
        }
      ],
      "name": "isOpenReadingService",
      "outputs": [
        {
          "internalType": "bool",
          "name": "",
          "type": "bool"
        }
      ],
      "stateMutability": "view",
      "type": "function"
    },
    {
      "inputs": [
        {
          "internalType": "address",
          "name": "user",
          "type": "address"
        },
        {
          "internalType": "address",
          "name": "follower",
          "type": "address"
        },
        {
          "internalType": "uint256",
          "name": "serviceId",
          "type": "uint256"
        }
      ],
      "name": "isFollowerAllowed",
      "outputs": [
        {
          "internalType": "bool",
          "name": "",
          "type": "bool"
        }
      ],
      "stateMutability": "view",
      "type": "function"
    },
    {
      "inputs": [
        {
          "internalType": "address",
          "name": "user",
          "type": "address"
        },
        {
          "internalType": "bytes32",
          "name": "nickname",
          "type": "bytes32"
        }
      ],
      "name": "setUserNickname",
      "outputs": [],
      "stateMutability": "nonpayable",
      "type": "function"
    },
    {
      "inputs": [
        {
          "internalType": "address",
          "name": "user",
          "type": "address"
        }
      ],
      "name": "getUserNickname",
      "outputs": [
        {
          "internalType": "bytes32",
          "name": "",
          "type": "bytes32"
        }
      ],
      "stateMutability": "view",
      "type": "function"
    }
  ],
  "bytecode": "0x60806040526001600f60016101000a81548160ff02191690831515021790555034801561002b57600080fd5b50613aa58061003b6000396000f3fe608060405234801561001057600080fd5b506004361061014d5760003560e01c806359d531c4116100c3578063a217fddf1161007c578063a217fddf146103be578063b79c36bd146103dc578063be08fd08146103f8578063d547741f14610414578063dc65412514610430578063e4edf8521461044e5761014d565b806359d531c414610312578063809852821461032e57806387c255e31461033857806391d148541461035657806398012a6b146103865780639dd07254146103a25761014d565b80631c6f8e65116101155780631c6f8e651461022e578063248a9ca31461025e5780632f2ff15d1461028e57806336568abe146102aa57806340ad307f146102c6578063524236ce146102e25761014d565b806301ffc9a71461015257806304766a7a146101825780631101ed0a146101b25780631459457a146101e257806314a24952146101fe575b600080fd5b61016c60048036038101906101679190612be9565b61046a565b60405161017991906130f3565b60405180910390f35b61019c60048036038101906101979190612867565b6104e4565b6040516101a9919061310e565b60405180910390f35b6101cc60048036038101906101c7919061290f565b6105ec565b6040516101d991906130f3565b60405180910390f35b6101fc60048036038101906101f79190612894565b6107d7565b005b61021860048036038101906102139190612c16565b610a41565b60405161022591906130d1565b60405180910390f35b610248600480360381019061024391906129a2565b610b4f565b60405161025591906132cb565b60405180910390f35b61027860048036038101906102739190612b7c565b610ccd565b604051610285919061310e565b60405180910390f35b6102a860048036038101906102a39190612ba9565b610cec565b005b6102c460048036038101906102bf9190612ba9565b610d15565b005b6102e060048036038101906102db9190612962565b610d98565b005b6102fc60048036038101906102f79190612c43565b610e9f565b60405161030991906130f3565b60405180910390f35b61032c60048036038101906103279190612c43565b610f82565b005b61033661104b565b005b61034061122a565b60405161034d91906132cb565b60405180910390f35b610370600480360381019061036b9190612ba9565b611283565b60405161037d91906130f3565b60405180910390f35b6103a0600480360381019061039b91906129e2565b6112ed565b005b6103bc60048036038101906103b79190612b22565b611405565b005b6103c66114b9565b6040516103d3919061310e565b60405180910390f35b6103f660048036038101906103f19190612a8b565b6114c0565b005b610412600480360381019061040d91906129a2565b611a15565b005b61042e60048036038101906104299190612ba9565b611d10565b005b610438611d39565b60405161044591906132cb565b60405180910390f35b61046860048036038101906104639190612867565b611ebb565b005b60007f7965db0b000000000000000000000000000000000000000000000000000000007bffffffffffffffffffffffffffffffffffffffffffffffffffffffff1916827bffffffffffffffffffffffffffffffffffffffffffffffffffffffff191614806104dd57506104dc82611f96565b5b9050919050565b6000600f60019054906101000a900460ff16610535576040517f08c379a000000000000000000000000000000000000000000000000000000000815260040161052c9061322b565b60405180910390fd5b6105667fb19546dff01e856fb3f010c267a7b1c60363cf8a4664e21cc89c26224620214e610561612000565b611283565b6105a5576040517f08c379a000000000000000000000000000000000000000000000000000000000815260040161059c9061326b565b60405180910390fd5b600760008373ffffffffffffffffffffffffffffffffffffffff1673ffffffffffffffffffffffffffffffffffffffff168152602001908152602001600020549050919050565b6000600f60019054906101000a900460ff1661063d576040517f08c379a00000000000000000000000000000000000000000000000000000000081526004016106349061322b565b60405180910390fd5b8373ffffffffffffffffffffffffffffffffffffffff16600160009054906101000a900473ffffffffffffffffffffffffffffffffffffffff1673ffffffffffffffffffffffffffffffffffffffff16146106cd576040517f08c379a00000000000000000000000000000000000000000000000000000000081526004016106c4906131cb565b60405180910390fd5b6106d682610e9f565b156106e457600190506107d0565b6106f883600a61200890919063ffffffff16565b61070557600090506107d0565b73__LicenseTools__________________________63995e9228600660008673ffffffffffffffffffffffffffffffffffffffff1673ffffffffffffffffffffffffffffffffffffffff16815260200190815260200160002054846040518363ffffffff1660e01b815260040161077d9291906132e6565b60206040518083038186803b15801561079557600080fd5b505af41580156107a9573d6000803e3d6000fd5b505050506040513d601f19601f820116820180604052508101906107cd9190612b4f565b90505b9392505050565b600f60009054906101000a900460ff1615610827576040517f08c379a000000000000000000000000000000000000000000000000000000000815260040161081e9061324b565b60405180910390fd5b84600260006101000a81548173ffffffffffffffffffffffffffffffffffffffff021916908373ffffffffffffffffffffffffffffffffffffffff16021790555083600360006101000a81548173ffffffffffffffffffffffffffffffffffffffff021916908373ffffffffffffffffffffffffffffffffffffffff16021790555082600160006101000a81548173ffffffffffffffffffffffffffffffffffffffff021916908373ffffffffffffffffffffffffffffffffffffffff1602179055506109367fb19546dff01e856fb3f010c267a7b1c60363cf8a4664e21cc89c26224620214e600160009054906101000a900473ffffffffffffffffffffffffffffffffffffffff16612038565b6109827f241ecf16d79d0f8dbfb92cbc07fe17840425976cf0667f022fe9877caa831b08600260009054906101000a900473ffffffffffffffffffffffffffffffffffffffff16612038565b81600c60006101000a81548173ffffffffffffffffffffffffffffffffffffffff021916908373ffffffffffffffffffffffffffffffffffffffff16021790555080600d60006101000a81548173ffffffffffffffffffffffffffffffffffffffff021916908373ffffffffffffffffffffffffffffffffffffffff1602179055506001600f60006101000a81548160ff0219169083151502179055506001600f60016101000a81548160ff0219169083151502179055505050505050565b6060600f60019054906101000a900460ff16610a92576040517f08c379a0000000000000000000000000000000000000000000000000000000008152600401610a899061322b565b60405180910390fd5b610ac37fb19546dff01e856fb3f010c267a7b1c60363cf8a4664e21cc89c26224620214e610abe612000565b611283565b610b02576040517f08c379a0000000000000000000000000000000000000000000000000000000008152600401610af99061326b565b60405180910390fd5b60006001811115610b1657610b15613681565b5b826001811115610b2957610b28613681565b5b14610b3d57610b38600a612046565b610b48565b610b476008612046565b5b9050919050565b6000600f60019054906101000a900460ff16610ba0576040517f08c379a0000000000000000000000000000000000000000000000000000000008152600401610b979061322b565b60405180910390fd5b610bd17fb19546dff01e856fb3f010c267a7b1c60363cf8a4664e21cc89c26224620214e610bcc612000565b611283565b610c10576040517f08c379a0000000000000000000000000000000000000000000000000000000008152600401610c079061326b565b60405180910390fd5b60006001811115610c2457610c23613681565b5b826001811115610c3757610c36613681565b5b1415610c8457600560008473ffffffffffffffffffffffffffffffffffffffff1673ffffffffffffffffffffffffffffffffffffffff168152602001908152602001600020549050610cc7565b600660008473ffffffffffffffffffffffffffffffffffffffff1673ffffffffffffffffffffffffffffffffffffffff1681526020019081526020016000205490505b92915050565b6000806000838152602001908152602001600020600101549050919050565b610cf582610ccd565b610d0681610d01612000565b612067565b610d108383612104565b505050565b610d1d612000565b73ffffffffffffffffffffffffffffffffffffffff168173ffffffffffffffffffffffffffffffffffffffff1614610d8a576040517f08c379a0000000000000000000000000000000000000000000000000000000008152600401610d81906132ab565b60405180910390fd5b610d9482826121e4565b5050565b600f60019054906101000a900460ff16610de7576040517f08c379a0000000000000000000000000000000000000000000000000000000008152600401610dde9061322b565b60405180910390fd5b610e187fb19546dff01e856fb3f010c267a7b1c60363cf8a4664e21cc89c26224620214e610e13612000565b611283565b610e57576040517f08c379a0000000000000000000000000000000000000000000000000000000008152600401610e4e9061326b565b60405180910390fd5b80600760008473ffffffffffffffffffffffffffffffffffffffff1673ffffffffffffffffffffffffffffffffffffffff168152602001908152602001600020819055505050565b6000600f60019054906101000a900460ff16610ef0576040517f08c379a0000000000000000000000000000000000000000000000000000000008152600401610ee79061322b565b60405180910390fd5b73__LicenseTools__________________________63995e9228600e54846040518363ffffffff1660e01b8152600401610f2b9291906132e6565b60206040518083038186803b158015610f4357600080fd5b505af4158015610f57573d6000803e3d6000fd5b505050506040513d601f19601f82011682018060405250810190610f7b9190612b4f565b9050919050565b600f60019054906101000a900460ff16610fd1576040517f08c379a0000000000000000000000000000000000000000000000000000000008152600401610fc89061322b565b60405180910390fd5b6110027fb19546dff01e856fb3f010c267a7b1c60363cf8a4664e21cc89c26224620214e610ffd612000565b611283565b611041576040517f08c379a00000000000000000000000000000000000000000000000000000000081526004016110389061326b565b60405180910390fd5b80600e8190555050565b600f60019054906101000a900460ff1661109a576040517f08c379a00000000000000000000000000000000000000000000000000000000081526004016110919061322b565b60405180910390fd5b6110a2612000565b6001600060018111156110b8576110b7613681565b5b8160018111156110cb576110ca613681565b5b1415611129576110e582600861200890919063ffffffff16565b611124576040517f08c379a000000000000000000000000000000000000000000000000000000000815260040161111b9061328b565b60405180910390fd5b61117d565b61113d82600a61200890919063ffffffff16565b61117c576040517f08c379a00000000000000000000000000000000000000000000000000000000081526004016111739061320b565b60405180910390fd5b5b611198611188612000565b600a6122c590919063ffffffff16565b506000600660006111a7612000565b73ffffffffffffffffffffffffffffffffffffffff1673ffffffffffffffffffffffffffffffffffffffff168152602001908152602001600020819055507f529ecbc3c68c3d2c7bb008ee044e1a240723013a8c3456abaed0d80bcab7eb8161120e612000565b600060405161121e92919061307f565b60405180910390a15050565b6000600f60019054906101000a900460ff1661127b576040517f08c379a00000000000000000000000000000000000000000000000000000000081526004016112729061322b565b60405180910390fd5b600e54905090565b600080600084815260200190815260200160002060000160008373ffffffffffffffffffffffffffffffffffffffff1673ffffffffffffffffffffffffffffffffffffffff16815260200190815260200160002060009054906101000a900460ff16905092915050565b600f60019054906101000a900460ff1661133c576040517f08c379a00000000000000000000000000000000000000000000000000000000081526004016113339061322b565b60405180910390fd5b61136d7fb19546dff01e856fb3f010c267a7b1c60363cf8a4664e21cc89c26224620214e611368612000565b611283565b6113ac576040517f08c379a00000000000000000000000000000000000000000000000000000000081526004016113a39061326b565b60405180910390fd5b81600760008873ffffffffffffffffffffffffffffffffffffffff1673ffffffffffffffffffffffffffffffffffffffff168152602001908152602001600020819055506113fd86868686856114c0565b505050505050565b61140d612000565b73ffffffffffffffffffffffffffffffffffffffff16600360009054906101000a900473ffffffffffffffffffffffffffffffffffffffff1673ffffffffffffffffffffffffffffffffffffffff161461149c576040517f08c379a00000000000000000000000000000000000000000000000000000000081526004016114939061326b565b60405180910390fd5b80600f60016101000a81548160ff02191690831515021790555050565b6000801b81565b600f60019054906101000a900460ff1661150f576040517f08c379a00000000000000000000000000000000000000000000000000000000081526004016115069061322b565b60405180910390fd5b6115407fb19546dff01e856fb3f010c267a7b1c60363cf8a4664e21cc89c26224620214e61153b612000565b611283565b61157f576040517f08c379a00000000000000000000000000000000000000000000000000000000081526004016115769061326b565b60405180910390fd5b60008414156115c3576040517f08c379a00000000000000000000000000000000000000000000000000000000081526004016115ba906131eb565b60405180910390fd5b600060018111156115d7576115d6613681565b5b8260018111156115ea576115e9613681565b5b14156117095783600560008773ffffffffffffffffffffffffffffffffffffffff1673ffffffffffffffffffffffffffffffffffffffff168152602001908152602001600020541415611672576040517f08c379a0000000000000000000000000000000000000000000000000000000008152600401611669906131ab565b60405180910390fd5b6116868560086122f590919063ffffffff16565b5083600560008773ffffffffffffffffffffffffffffffffffffffff1673ffffffffffffffffffffffffffffffffffffffff168152602001908152602001600020819055507fcd54d7e6dbadcd67bf2dc5740d6441fea3d13493ee22d7beeae303625a89d42685856040516116fc9291906130a8565b60405180910390a1611a0e565b6000600660008773ffffffffffffffffffffffffffffffffffffffff1673ffffffffffffffffffffffffffffffffffffffff1681526020019081526020016000205414156118f9576001151573__VerifySignature_______________________6365ac0b7e87611778612000565b8787600181111561178c5761178b613681565b5b876040518663ffffffff1660e01b81526004016117ad959493929190613025565b60206040518083038186803b1580156117c557600080fd5b505af41580156117d9573d6000803e3d6000fd5b505050506040513d601f19601f820116820180604052508101906117fd9190612b4f565b15151461183f576040517f08c379a00000000000000000000000000000000000000000000000000000000081526004016118369061316b565b60405180910390fd5b826103e84261184e9190613468565b1161188e576040517f08c379a0000000000000000000000000000000000000000000000000000000008152600401611885906131cb565b60405180910390fd5b620697806103e8846103e8426118a49190613468565b6118ae91906134c2565b6118b89190613437565b106118f8576040517f08c379a00000000000000000000000000000000000000000000000000000000081526004016118ef9061318b565b60405180910390fd5b5b83600660008773ffffffffffffffffffffffffffffffffffffffff1673ffffffffffffffffffffffffffffffffffffffff16815260200190815260200160002054141561197b576040517f08c379a0000000000000000000000000000000000000000000000000000000008152600401611972906131ab565b60405180910390fd5b61198f85600a6122f590919063ffffffff16565b5083600660008773ffffffffffffffffffffffffffffffffffffffff1673ffffffffffffffffffffffffffffffffffffffff168152602001908152602001600020819055507f529ecbc3c68c3d2c7bb008ee044e1a240723013a8c3456abaed0d80bcab7eb818585604051611a059291906130a8565b60405180910390a15b5050505050565b600f60019054906101000a900460ff16611a64576040517f08c379a0000000000000000000000000000000000000000000000000000000008152600401611a5b9061322b565b60405180910390fd5b818160006001811115611a7a57611a79613681565b5b816001811115611a8d57611a8c613681565b5b1415611aeb57611aa782600861200890919063ffffffff16565b611ae6576040517f08c379a0000000000000000000000000000000000000000000000000000000008152600401611add9061328b565b60405180910390fd5b611b3f565b611aff82600a61200890919063ffffffff16565b611b3e576040517f08c379a0000000000000000000000000000000000000000000000000000000008152600401611b359061320b565b60405180910390fd5b5b611b707fb19546dff01e856fb3f010c267a7b1c60363cf8a4664e21cc89c26224620214e611b6b612000565b611283565b611baf576040517f08c379a0000000000000000000000000000000000000000000000000000000008152600401611ba69061326b565b60405180910390fd5b60006001811115611bc357611bc2613681565b5b836001811115611bd657611bd5613681565b5b1415611c7557611bf08460086122c590919063ffffffff16565b506000600560008673ffffffffffffffffffffffffffffffffffffffff1673ffffffffffffffffffffffffffffffffffffffff168152602001908152602001600020819055507fcd54d7e6dbadcd67bf2dc5740d6441fea3d13493ee22d7beeae303625a89d426846000604051611c6892919061307f565b60405180910390a1611d0a565b611c8984600a6122c590919063ffffffff16565b506000600660008673ffffffffffffffffffffffffffffffffffffffff1673ffffffffffffffffffffffffffffffffffffffff168152602001908152602001600020819055507f529ecbc3c68c3d2c7bb008ee044e1a240723013a8c3456abaed0d80bcab7eb81846000604051611d0192919061307f565b60405180910390a15b50505050565b611d1982610ccd565b611d2a81611d25612000565b612067565b611d3483836121e4565b505050565b6000600f60019054906101000a900460ff16611d8a576040517f08c379a0000000000000000000000000000000000000000000000000000000008152600401611d819061322b565b60405180910390fd5b611d92612000565b600160006001811115611da857611da7613681565b5b816001811115611dbb57611dba613681565b5b1415611e1957611dd582600861200890919063ffffffff16565b611e14576040517f08c379a0000000000000000000000000000000000000000000000000000000008152600401611e0b9061328b565b60405180910390fd5b611e6d565b611e2d82600a61200890919063ffffffff16565b611e6c576040517f08c379a0000000000000000000000000000000000000000000000000000000008152600401611e639061320b565b60405180910390fd5b5b60066000611e79612000565b73ffffffffffffffffffffffffffffffffffffffff1673ffffffffffffffffffffffffffffffffffffffff168152602001908152602001600020549250505090565b611ec3612000565b73ffffffffffffffffffffffffffffffffffffffff16600360009054906101000a900473ffffffffffffffffffffffffffffffffffffffff1673ffffffffffffffffffffffffffffffffffffffff1614611f52576040517f08c379a0000000000000000000000000000000000000000000000000000000008152600401611f499061326b565b60405180910390fd5b80600260006101000a81548173ffffffffffffffffffffffffffffffffffffffff021916908373ffffffffffffffffffffffffffffffffffffffff16021790555050565b60007f01ffc9a7000000000000000000000000000000000000000000000000000000007bffffffffffffffffffffffffffffffffffffffffffffffffffffffff1916827bffffffffffffffffffffffffffffffffffffffffffffffffffffffff1916149050919050565b600033905090565b6000612030836000018373ffffffffffffffffffffffffffffffffffffffff1660001b612325565b905092915050565b6120428282612104565b5050565b6060600061205683600001612348565b905060608190508092505050919050565b6120718282611283565b612100576120968173ffffffffffffffffffffffffffffffffffffffff1660146123a4565b6120a48360001c60206123a4565b6040516020016120b5929190612feb565b6040516020818303038152906040526040517f08c379a00000000000000000000000000000000000000000000000000000000081526004016120f79190613129565b60405180910390fd5b5050565b61210e8282611283565b6121e057600160008084815260200190815260200160002060000160008373ffffffffffffffffffffffffffffffffffffffff1673ffffffffffffffffffffffffffffffffffffffff16815260200190815260200160002060006101000a81548160ff021916908315150217905550612185612000565b73ffffffffffffffffffffffffffffffffffffffff168173ffffffffffffffffffffffffffffffffffffffff16837f2f8788117e7eff1d82e926ec794901d17c78024a50270940304540a733656f0d60405160405180910390a45b5050565b6121ee8282611283565b156122c157600080600084815260200190815260200160002060000160008373ffffffffffffffffffffffffffffffffffffffff1673ffffffffffffffffffffffffffffffffffffffff16815260200190815260200160002060006101000a81548160ff021916908315150217905550612266612000565b73ffffffffffffffffffffffffffffffffffffffff168173ffffffffffffffffffffffffffffffffffffffff16837ff6391f5c32d9c69d2a47ea670b442974b53935d1edc7fd64eb21e047a839171b60405160405180910390a45b5050565b60006122ed836000018373ffffffffffffffffffffffffffffffffffffffff1660001b6125e0565b905092915050565b600061231d836000018373ffffffffffffffffffffffffffffffffffffffff1660001b6126f4565b905092915050565b600080836001016000848152602001908152602001600020541415905092915050565b60608160000180548060200260200160405190810160405280929190818152602001828054801561239857602002820191906000526020600020905b815481526020019060010190808311612384575b50505050509050919050565b6060600060028360026123b79190613468565b6123c191906133e1565b67ffffffffffffffff8111156123da576123d961370e565b5b6040519080825280601f01601f19166020018201604052801561240c5781602001600182028036833780820191505090505b5090507f300000000000000000000000000000000000000000000000000000000000000081600081518110612444576124436136df565b5b60200101907effffffffffffffffffffffffffffffffffffffffffffffffffffffffffffff1916908160001a9053507f7800000000000000000000000000000000000000000000000000000000000000816001815181106124a8576124a76136df565b5b60200101907effffffffffffffffffffffffffffffffffffffffffffffffffffffffffffff1916908160001a905350600060018460026124e89190613468565b6124f291906133e1565b90505b6001811115612592577f3031323334353637383961626364656600000000000000000000000000000000600f861660108110612534576125336136df565b5b1a60f81b82828151811061254b5761254a6136df565b5b60200101907effffffffffffffffffffffffffffffffffffffffffffffffffffffffffffff1916908160001a905350600485901c94508061258b906135c8565b90506124f5565b50600084146125d6576040517f08c379a00000000000000000000000000000000000000000000000000000000081526004016125cd9061314b565b60405180910390fd5b8091505092915050565b600080836001016000848152602001908152602001600020549050600081146126e857600060018261261291906134c2565b905060006001866000018054905061262a91906134c2565b905081811461269957600086600001828154811061264b5761264a6136df565b5b906000526020600020015490508087600001848154811061266f5761266e6136df565b5b90600052602060002001819055508387600101600083815260200190815260200160002081905550505b856000018054806126ad576126ac6136b0565b5b6001900381819060005260206000200160009055905585600101600086815260200190815260200160002060009055600193505050506126ee565b60009150505b92915050565b60006127008383612325565b61275957826000018290806001815401808255809150506001900390600052602060002001600090919091909150558260000180549050836001016000848152602001908152602001600020819055506001905061275e565b600090505b92915050565b600061277761277284613334565b61330f565b90508281526020810184848401111561279357612792613742565b5b61279e848285613586565b509392505050565b6000813590506127b5816139ec565b92915050565b6000813590506127ca81613a03565b92915050565b6000815190506127df81613a03565b92915050565b6000813590506127f481613a1a565b92915050565b60008135905061280981613a31565b92915050565b600082601f8301126128245761282361373d565b5b8135612834848260208601612764565b91505092915050565b60008135905061284c81613a48565b92915050565b60008135905061286181613a58565b92915050565b60006020828403121561287d5761287c61374c565b5b600061288b848285016127a6565b91505092915050565b600080600080600060a086880312156128b0576128af61374c565b5b60006128be888289016127a6565b95505060206128cf888289016127a6565b94505060406128e0888289016127a6565b93505060606128f1888289016127a6565b9250506080612902888289016127a6565b9150509295509295909350565b6000806000606084860312156129285761292761374c565b5b6000612936868287016127a6565b9350506020612947868287016127a6565b925050604061295886828701612852565b9150509250925092565b600080604083850312156129795761297861374c565b5b6000612987858286016127a6565b9250506020612998858286016127e5565b9150509250929050565b600080604083850312156129b9576129b861374c565b5b60006129c7858286016127a6565b92505060206129d88582860161283d565b9150509250929050565b60008060008060008060c087890312156129ff576129fe61374c565b5b6000612a0d89828a016127a6565b9650506020612a1e89828a01612852565b9550506040612a2f89828a01612852565b9450506060612a4089828a0161283d565b9350506080612a5189828a016127e5565b92505060a087013567ffffffffffffffff811115612a7257612a71613747565b5b612a7e89828a0161280f565b9150509295509295509295565b600080600080600060a08688031215612aa757612aa661374c565b5b6000612ab5888289016127a6565b9550506020612ac688828901612852565b9450506040612ad788828901612852565b9350506060612ae88882890161283d565b925050608086013567ffffffffffffffff811115612b0957612b08613747565b5b612b158882890161280f565b9150509295509295909350565b600060208284031215612b3857612b3761374c565b5b6000612b46848285016127bb565b91505092915050565b600060208284031215612b6557612b6461374c565b5b6000612b73848285016127d0565b91505092915050565b600060208284031215612b9257612b9161374c565b5b6000612ba0848285016127e5565b91505092915050565b60008060408385031215612bc057612bbf61374c565b5b6000612bce858286016127e5565b9250506020612bdf858286016127a6565b9150509250929050565b600060208284031215612bff57612bfe61374c565b5b6000612c0d848285016127fa565b91505092915050565b600060208284031215612c2c57612c2b61374c565b5b6000612c3a8482850161283d565b91505092915050565b600060208284031215612c5957612c5861374c565b5b6000612c6784828501612852565b91505092915050565b6000612c7c8383612c88565b60208301905092915050565b612c91816134f6565b82525050565b612ca0816134f6565b82525050565b612caf816134f6565b82525050565b6000612cc082613375565b612cca81856133a3565b9350612cd583613365565b8060005b83811015612d06578151612ced8882612c70565b9750612cf883613396565b925050600181019050612cd9565b5085935050505092915050565b612d1c81613508565b82525050565b612d2b81613514565b82525050565b6000612d3c82613380565b612d4681856133b4565b9350612d56818560208601613595565b612d5f81613751565b840191505092915050565b612d7381613574565b82525050565b6000612d848261338b565b612d8e81856133c5565b9350612d9e818560208601613595565b612da781613751565b840191505092915050565b6000612dbd8261338b565b612dc781856133d6565b9350612dd7818560208601613595565b80840191505092915050565b6000612df06020836133c5565b9150612dfb82613762565b602082019050919050565b6000612e136006836133c5565b9150612e1e8261378b565b602082019050919050565b6000612e366006836133c5565b9150612e41826137b4565b602082019050919050565b6000612e596006836133c5565b9150612e64826137dd565b602082019050919050565b6000612e7c6005836133c5565b9150612e8782613806565b602082019050919050565b6000612e9f6005836133c5565b9150612eaa8261382f565b602082019050919050565b6000612ec26006836133c5565b9150612ecd82613858565b602082019050919050565b6000612ee56006836133c5565b9150612ef082613881565b602082019050919050565b6000612f08602e836133c5565b9150612f13826138aa565b604082019050919050565b6000612f2b6006836133c5565b9150612f36826138f9565b602082019050919050565b6000612f4e6017836133d6565b9150612f5982613922565b601782019050919050565b6000612f716006836133c5565b9150612f7c8261394b565b602082019050919050565b6000612f946011836133d6565b9150612f9f82613974565b601182019050919050565b6000612fb7602f836133c5565b9150612fc28261399d565b604082019050919050565b612fd68161356a565b82525050565b612fe58161356a565b82525050565b6000612ff682612f41565b91506130028285612db2565b915061300d82612f87565b91506130198284612db2565b91508190509392505050565b600060a08201905061303a6000830188612ca6565b6130476020830187612ca6565b6130546040830186612fdc565b6130616060830185612fdc565b81810360808301526130738184612d31565b90509695505050505050565b60006040820190506130946000830185612c97565b6130a16020830184612d6a565b9392505050565b60006040820190506130bd6000830185612c97565b6130ca6020830184612fcd565b9392505050565b600060208201905081810360008301526130eb8184612cb5565b905092915050565b60006020820190506131086000830184612d13565b92915050565b60006020820190506131236000830184612d22565b92915050565b600060208201905081810360008301526131438184612d79565b905092915050565b6000602082019050818103600083015261316481612de3565b9050919050565b6000602082019050818103600083015261318481612e06565b9050919050565b600060208201905081810360008301526131a481612e29565b9050919050565b600060208201905081810360008301526131c481612e4c565b9050919050565b600060208201905081810360008301526131e481612e6f565b9050919050565b6000602082019050818103600083015261320481612e92565b9050919050565b6000602082019050818103600083015261322481612eb5565b9050919050565b6000602082019050818103600083015261324481612ed8565b9050919050565b6000602082019050818103600083015261326481612efb565b9050919050565b6000602082019050818103600083015261328481612f1e565b9050919050565b600060208201905081810360008301526132a481612f64565b9050919050565b600060208201905081810360008301526132c481612faa565b9050919050565b60006020820190506132e06000830184612fcd565b92915050565b60006040820190506132fb6000830185612fdc565b6133086020830184612fdc565b9392505050565b600061331961332a565b905061332582826135f2565b919050565b6000604051905090565b600067ffffffffffffffff82111561334f5761334e61370e565b5b61335882613751565b9050602081019050919050565b6000819050602082019050919050565b600081519050919050565b600081519050919050565b600081519050919050565b6000602082019050919050565b600082825260208201905092915050565b600082825260208201905092915050565b600082825260208201905092915050565b600081905092915050565b60006133ec8261356a565b91506133f78361356a565b9250827fffffffffffffffffffffffffffffffffffffffffffffffffffffffffffffffff0382111561342c5761342b613623565b5b828201905092915050565b60006134428261356a565b915061344d8361356a565b92508261345d5761345c613652565b5b828204905092915050565b60006134738261356a565b915061347e8361356a565b9250817fffffffffffffffffffffffffffffffffffffffffffffffffffffffffffffffff04831182151516156134b7576134b6613623565b5b828202905092915050565b60006134cd8261356a565b91506134d88361356a565b9250828210156134eb576134ea613623565b5b828203905092915050565b60006135018261354a565b9050919050565b60008115159050919050565b6000819050919050565b60007fffffffff0000000000000000000000000000000000000000000000000000000082169050919050565b600073ffffffffffffffffffffffffffffffffffffffff82169050919050565b6000819050919050565b600061357f8261356a565b9050919050565b82818337600083830152505050565b60005b838110156135b3578082015181840152602081019050613598565b838111156135c2576000848401525b50505050565b60006135d38261356a565b915060008214156135e7576135e6613623565b5b600182039050919050565b6135fb82613751565b810181811067ffffffffffffffff8211171561361a5761361961370e565b5b80604052505050565b7f4e487b7100000000000000000000000000000000000000000000000000000000600052601160045260246000fd5b7f4e487b7100000000000000000000000000000000000000000000000000000000600052601260045260246000fd5b7f4e487b7100000000000000000000000000000000000000000000000000000000600052602160045260246000fd5b7f4e487b7100000000000000000000000000000000000000000000000000000000600052603160045260246000fd5b7f4e487b7100000000000000000000000000000000000000000000000000000000600052603260045260246000fd5b7f4e487b7100000000000000000000000000000000000000000000000000000000600052604160045260246000fd5b600080fd5b600080fd5b600080fd5b600080fd5b6000601f19601f8301169050919050565b7f537472696e67733a20686578206c656e67746820696e73756666696369656e74600082015250565b7f4552525349470000000000000000000000000000000000000000000000000000600082015250565b7f4f4c445245510000000000000000000000000000000000000000000000000000600082015250565b7f4552525045520000000000000000000000000000000000000000000000000000600082015250565b7f4241445251000000000000000000000000000000000000000000000000000000600082015250565b7f4e44504552000000000000000000000000000000000000000000000000000000600082015250565b7f4e4f544657520000000000000000000000000000000000000000000000000000600082015250565b7f494e414354560000000000000000000000000000000000000000000000000000600082015250565b7f436f6e747261637420696e7374616e63652068617320616c726561647920626560008201527f656e20696e697469616c697a6564000000000000000000000000000000000000602082015250565b7f554e415554480000000000000000000000000000000000000000000000000000600082015250565b7f416363657373436f6e74726f6c3a206163636f756e7420000000000000000000600082015250565b7f4e4f544657470000000000000000000000000000000000000000000000000000600082015250565b7f206973206d697373696e6720726f6c6520000000000000000000000000000000600082015250565b7f416363657373436f6e74726f6c3a2063616e206f6e6c792072656e6f756e636560008201527f20726f6c657320666f722073656c660000000000000000000000000000000000602082015250565b6139f5816134f6565b8114613a0057600080fd5b50565b613a0c81613508565b8114613a1757600080fd5b50565b613a2381613514565b8114613a2e57600080fd5b50565b613a3a8161351e565b8114613a4557600080fd5b50565b60028110613a5557600080fd5b50565b613a618161356a565b8114613a6c57600080fd5b5056fea264697066735822122068d41df2d934b5b2c9600dee95ab4d8b4d11c3249ec4e3f81834ddf4284e2ea964736f6c63430008070033",
  "immutableReferences": {},
  "source": "// SPDX-License-Identifier: GPL-3.0\npragma solidity >=0.4.25 <0.9.0;\nimport \"@openzeppelin/contracts/access/AccessControl.sol\";\nimport \"@openzeppelin/contracts/utils/structs/EnumerableSet.sol\";\n\nimport \"./VerifySignature.sol\";\nimport \"./LicenseTools.sol\";\nimport \"./LicenseToken.sol\";\nimport \"./ServiceManager.sol\";\nimport \"./ManagementCenter.sol\";\n\ncontract UserMonitoringCenter is AccessControl {\n    using EnumerableSet for EnumerableSet.AddressSet;\n\n    struct UpdatedData {\n        string dataHash; // string\n        uint256 updateTime; // updated time\n        uint256 totalEquity;\n    }\n    //CONSTANTS\n    uint256 constant numberOfPeriodsGap = 3;\n\n    /******************************\n        EVENTS\n    ******************************/\n\n    event DataUpdated(uint256 updateTime);\n    event FollowinUserPermissionSettled(address user, uint256 permissions);\n    event FollowerUserPermissionSettled(address user, uint256 permissions);\n\n    /******************************\n        VARIABLES\n    ******************************/\n\n    bytes32 constant OWNER_ROLE = keccak256(\"OWNER_ROLE\");\n    bytes32 constant MANAGER_ROLE = keccak256(\"MANAGER_ROLE\");\n    uint256 constant _updatedDataTimeWindows = 5 minutes;\n\n    // manager of the contract\n    address private _owner;\n    // manager address\n    address private _manager;\n\n    // manager owner address\n    address private _managerOwner;\n\n    // stores the updated `data` of the user.\n    mapping(uint256 => UpdatedData) _updatedDataByService;\n\n    // Declare a set state variable of address following\n    mapping(address => uint256) _followingUsersPermissions;\n\n    // Declare a set state variable of address followers\n    mapping(address => uint256) _followersUsersPermissions;\n\n    // Declare a set state variable of address followers\n    mapping(address => bytes32) _nicknames;\n\n    // Declare a set state variable of address of followin gUsers\n    EnumerableSet.AddressSet _followingUsers;\n\n    // Declare a set state variable of address of followers users\n    EnumerableSet.AddressSet _followersUsers;\n\n    //Service Manager\n    ServiceManager serviceManagerInstance;\n    //License Manager\n    LicenseToken licenseTokenInstance;\n\n    uint256 private _openReadingPool;\n\n    bool private initialized;\n    bool _isActive = true;\n    enum UserType {\n        FOLLOWING,\n        FOLLOWER\n    }\n\n    //Modifiers\n    //  * @param userType true(FOLLOWING), false(FOLLOWERS)\n    modifier onlyFollowingOrFollowerUsers(address user, UserType userType) {\n        if (userType == UserType.FOLLOWING) {\n            require(_followingUsers.contains(user), \"NOTFWG\");\n        } else {\n            require(_followersUsers.contains(user), \"NOTFWR\");\n        }\n        _;\n    }\n\n    modifier checkActive() {\n        require(_isActive, \"INACTV\");\n        _;\n    }\n\n    /**\n     * @notice initialize function\n     * @param managementCenterAddress manager Transaction Feed\n     * @param userAddress user address\n     * @param managementCenterOwnerAddress  owner of the management center\n     * @param serviceManagerAddress  service Manager Address\n     * @param licenseTokenAddress license Token Address\n     */\n    function initialize(\n        address managementCenterAddress,\n        address managementCenterOwnerAddress,\n        address userAddress,\n        address serviceManagerAddress,\n        address licenseTokenAddress\n    ) public {\n        require(!initialized, \"Contract instance has already been initialized\");\n        _manager = managementCenterAddress;\n        _managerOwner = managementCenterOwnerAddress;\n        _owner = userAddress;\n        _setupRole(OWNER_ROLE, _owner);\n        _setupRole(MANAGER_ROLE, _manager);\n        serviceManagerInstance = ServiceManager(serviceManagerAddress);\n        licenseTokenInstance = LicenseToken(licenseTokenAddress);\n        initialized = true;\n        _isActive = true;\n    }\n\n    /**\n     * @notice change manager\n     * @dev function is created in case of management center replacement\n     * @param newManagementCenterAddress manager Transaction Feed\n     */\n    function transferManagement(address newManagementCenterAddress) public {\n        require(\n            // Only manager's owner can change manager\n            _managerOwner == _msgSender(),\n            \"UNAUTH\"\n        );\n        _manager = newManagementCenterAddress;\n    }\n\n    /**\n     * @notice change manager\n     * @dev function is created in case of management center replacement\n     * @param isActive isActive variable\n     */\n    function setActivity(bool isActive) public {\n        require(\n            // Only manager's owner can change manager\n            _managerOwner == _msgSender(),\n            \"UNAUTH\"\n        );\n        _isActive = isActive;\n    }\n\n    /**\n     * @notice Set user permissions for an address\n     * @param recipient added address\n     * @param userType FOLLOWING, FOLLOWERS\n     * @param permissions permissions added with\n     * @param nonce nonce\n     * @param nickname nickname\n     * @param signature signature\n     */\n    function setUserPermissionsAndNickname(\n        address recipient,\n        uint256 permissions,\n        uint256 nonce,\n        UserType userType,\n        bytes32 nickname,\n        bytes memory signature\n    ) public checkActive {\n        require(hasRole(OWNER_ROLE, _msgSender()), \"UNAUTH\");\n        _nicknames[recipient] = nickname;\n        return\n            setUserPermissions(\n                recipient,\n                permissions,\n                nonce,\n                userType,\n                signature\n            );\n    }\n\n    /**\n     * @notice Set user permissions for an address\n     * @param recipient added address\n     * @param userType FOLLOWING, FOLLOWERS\n     * @param permissions permissions added with\n     * @param nonce nonce\n     * @param signature signature\n     */\n    function setUserPermissions(\n        address recipient,\n        uint256 permissions,\n        uint256 nonce,\n        UserType userType,\n        bytes memory signature\n    ) public checkActive {\n        require(hasRole(OWNER_ROLE, _msgSender()), \"UNAUTH\");\n        require(permissions != 0, \"NDPER\");\n        if (userType == UserType.FOLLOWING) {\n            require(\n                _followingUsersPermissions[recipient] != permissions,\n                \"ERRPER\"\n            );\n            _followingUsers.add(recipient);\n            _followingUsersPermissions[recipient] = permissions;\n            emit FollowinUserPermissionSettled(recipient, permissions);\n        } else {\n            if (_followersUsersPermissions[recipient] == 0) {\n                require(\n                    VerifySignature.verifyPermissionRequest(\n                        recipient,\n                        _msgSender(),\n                        nonce,\n                        uint256(userType),\n                        signature\n                    ) == true,\n                    \"ERRSIG\"\n                );\n                require(block.timestamp * 1000 > nonce, \"BADRQ\");\n                require(\n                    (block.timestamp * 1000 - nonce) / 1000 < 5 days,\n                    \"OLDREQ\"\n                );\n            }\n            require(\n                _followersUsersPermissions[recipient] != permissions,\n                \"ERRPER\"\n            );\n            _followersUsers.add(recipient);\n            _followersUsersPermissions[recipient] = permissions;\n            emit FollowerUserPermissionSettled(recipient, permissions);\n        }\n    }\n\n    /**\n    * @notice get all users FOLLOWING or FOLLOWERS for the address.\n    * @param userType true(FOLLOWING), false(FOLLOWERS)\n    * Return the entire set in an array\n    //\n    // WARNING\tThis operation will copy the entire storage to memory,\n    // which can be quite expensive. This is designed to mostly be used by view\n    // accessors that are queried without any gas fees.\n    // Developers should keep in mind that this function\n    // has an unbounded cost, and using it as part of a state-changing\n    // function may render the function uncallable if the set grows to a\n    // point where copying to memory consumes too much gas to fit in a block.\n    */\n    function getAllUsers(UserType userType)\n        public\n        view\n        checkActive\n        returns (address[] memory)\n    {\n        require(hasRole(OWNER_ROLE, _msgSender()), \"UNAUTH\");\n        return\n            userType == UserType.FOLLOWING\n                ? _followingUsers.values()\n                : _followersUsers.values();\n    }\n\n    /**\n     * @notice Remove follower.\n     * @param user foolowe user to be removed\n     * @param userType FOLLOWING), FOLLOWERS)\n     * the user can remove itself\n     */\n    function removeUsers(address user, UserType userType)\n        public\n        checkActive\n        onlyFollowingOrFollowerUsers(user, userType)\n    {\n        require(hasRole(OWNER_ROLE, _msgSender()), \"UNAUTH\");\n        if (userType == UserType.FOLLOWING) {\n            _followingUsers.remove(user);\n            _followingUsersPermissions[user] = 0;\n            emit FollowinUserPermissionSettled(user, 0);\n        } else {\n            _followersUsers.remove(user);\n            _followersUsersPermissions[user] = 0;\n            emit FollowerUserPermissionSettled(user, 0);\n        }\n    }\n\n    /**\n     * @notice get open reading services pool\n     */\n    function getUserPermissions(address user, UserType userType)\n        public\n        view\n        checkActive\n        returns (uint256)\n    {\n        require(hasRole(OWNER_ROLE, _msgSender()), \"UNAUTH\");\n        if (userType == UserType.FOLLOWING)\n            return _followingUsersPermissions[user];\n        else return _followersUsersPermissions[user];\n    }\n\n    /**\n     * @notice self Remove viewer. If user dont want to follow the current user,\n     * the user can remove itself\n     */\n    function followerUserSelfRemove()\n        public\n        checkActive\n        onlyFollowingOrFollowerUsers(_msgSender(), UserType.FOLLOWER)\n    {\n        _followersUsers.remove(_msgSender());\n        _followersUsersPermissions[_msgSender()] = 0;\n        emit FollowerUserPermissionSettled(_msgSender(), 0);\n    }\n\n    /**\n     * @notice follower User Get Own Permissions\n     */\n    function followerUserGetOwnPermissions()\n        public\n        view\n        checkActive\n        onlyFollowingOrFollowerUsers(_msgSender(), UserType.FOLLOWER)\n        returns (uint256)\n    {\n        return _followersUsersPermissions[_msgSender()];\n    }\n\n    /**\n     * @notice set open reading services pool\n     * @param openReadingPool open Reading Status\n     */\n    function setOpenReadingServicePool(uint256 openReadingPool)\n        public\n        checkActive\n    {\n        require(hasRole(OWNER_ROLE, _msgSender()), \"UNAUTH\");\n        _openReadingPool = openReadingPool;\n    }\n\n    /**\n     * @notice get open reading services pool\n     */\n    function getOpenReadingServicePool()\n        public\n        view\n        checkActive\n        returns (uint256)\n    {\n        return _openReadingPool;\n    }\n\n    /**\n     * @notice get open reading\n     * @param serviceId service\n     * @return openReadingStatus\n     */\n    function isOpenReadingService(uint256 serviceId)\n        public\n        view\n        checkActive\n        returns (bool)\n    {\n        return LicenseTools.getBoolean(_openReadingPool, serviceId);\n    }\n\n    /**\n     * @dev get data function from viewres\n     * @param user the function follower\n     * @param follower the function follower\n     * @param serviceId the service id of the wanted hash\n     */\n    function isFollowerAllowed(\n        address user,\n        address follower,\n        uint256 serviceId\n    ) public view checkActive returns (bool) {\n        require(_owner == user, \"BADRQ\");\n        if (isOpenReadingService(serviceId)) {\n            return true;\n        } else {\n            if (!_followersUsers.contains(follower)) return false;\n            // require the viewer are allowed to get data for the required service\n            return\n                LicenseTools.getBoolean(\n                    _followersUsersPermissions[follower],\n                    serviceId\n                );\n        }\n    }\n\n    /**\n     * @notice set user nickname\n     * @param user user\n     * @param nickname nickname\n     */\n    function setUserNickname(address user, bytes32 nickname)\n        public\n        checkActive\n    {\n        require(hasRole(OWNER_ROLE, _msgSender()), \"UNAUTH\");\n        _nicknames[user] = nickname;\n    }\n\n    /**\n     * @notice get user nickname\n     * @param user user\n     */\n    function getUserNickname(address user)\n        public\n        view\n        checkActive\n        returns (bytes32)\n    {\n        require(hasRole(OWNER_ROLE, _msgSender()), \"UNAUTH\");\n        return _nicknames[user];\n    }\n}\n",
  "sourcePath": "/home/israel/Documents/cashtween/code/Cryptween-smart-contract-2/contracts/UserMonitoringCenter.sol",
  "compiler": {
    "name": "solc",
    "version": "0.8.7+commit.e28d00a7.Emscripten.clang"
  },
  "schemaVersion": "3.4.3",
  "updatedAt": "2022-05-16T21:48:29.330Z",
  "networkType": "ethereum",
  "devdoc": {
    "kind": "dev",
    "methods": {
      "getAllUsers(uint8)": {
        "params": {
          "userType": "true(FOLLOWING), false(FOLLOWERS) Return the entire set in an array // // WARNING\tThis operation will copy the entire storage to memory, // which can be quite expensive. This is designed to mostly be used by view // accessors that are queried without any gas fees. // Developers should keep in mind that this function // has an unbounded cost, and using it as part of a state-changing // function may render the function uncallable if the set grows to a // point where copying to memory consumes too much gas to fit in a block."
        }
      },
      "getRoleAdmin(bytes32)": {
        "details": "Returns the admin role that controls `role`. See {grantRole} and {revokeRole}. To change a role's admin, use {_setRoleAdmin}."
      },
      "getUserNickname(address)": {
        "params": {
          "user": "user"
        }
      },
      "grantRole(bytes32,address)": {
        "details": "Grants `role` to `account`. If `account` had not been already granted `role`, emits a {RoleGranted} event. Requirements: - the caller must have ``role``'s admin role."
      },
      "hasRole(bytes32,address)": {
        "details": "Returns `true` if `account` has been granted `role`."
      },
      "initialize(address,address,address,address,address)": {
        "params": {
          "licenseTokenAddress": "license Token Address",
          "managementCenterAddress": "manager Transaction Feed",
          "managementCenterOwnerAddress": "owner of the management center",
          "serviceManagerAddress": "service Manager Address",
          "userAddress": "user address"
        }
      },
      "isFollowerAllowed(address,address,uint256)": {
        "details": "get data function from viewres",
        "params": {
          "follower": "the function follower",
          "serviceId": "the service id of the wanted hash",
          "user": "the function follower"
        }
      },
      "isOpenReadingService(uint256)": {
        "params": {
          "serviceId": "service"
        },
        "returns": {
          "_0": "openReadingStatus"
        }
      },
      "removeUsers(address,uint8)": {
        "params": {
          "user": "foolowe user to be removed",
          "userType": "FOLLOWING), FOLLOWERS) the user can remove itself"
        }
      },
      "renounceRole(bytes32,address)": {
        "details": "Revokes `role` from the calling account. Roles are often managed via {grantRole} and {revokeRole}: this function's purpose is to provide a mechanism for accounts to lose their privileges if they are compromised (such as when a trusted device is misplaced). If the calling account had been granted `role`, emits a {RoleRevoked} event. Requirements: - the caller must be `account`."
      },
      "revokeRole(bytes32,address)": {
        "details": "Revokes `role` from `account`. If `account` had been granted `role`, emits a {RoleRevoked} event. Requirements: - the caller must have ``role``'s admin role."
      },
      "setActivity(bool)": {
        "details": "function is created in case of management center replacement",
        "params": {
          "isActive": "isActive variable"
        }
      },
      "setOpenReadingServicePool(uint256)": {
        "params": {
          "openReadingPool": "open Reading Status"
        }
      },
      "setUserNickname(address,bytes32)": {
        "params": {
          "nickname": "nickname",
          "user": "user"
        }
      },
      "setUserPermissions(address,uint256,uint256,uint8,bytes)": {
        "params": {
          "nonce": "nonce",
          "permissions": "permissions added with",
          "recipient": "added address",
          "signature": "signature",
          "userType": "FOLLOWING, FOLLOWERS"
        }
      },
      "setUserPermissionsAndNickname(address,uint256,uint256,uint8,bytes32,bytes)": {
        "params": {
          "nickname": "nickname",
          "nonce": "nonce",
          "permissions": "permissions added with",
          "recipient": "added address",
          "signature": "signature",
          "userType": "FOLLOWING, FOLLOWERS"
        }
      },
      "supportsInterface(bytes4)": {
        "details": "See {IERC165-supportsInterface}."
      },
      "transferManagement(address)": {
        "details": "function is created in case of management center replacement",
        "params": {
          "newManagementCenterAddress": "manager Transaction Feed"
        }
      }
    },
    "version": 1
  },
  "userdoc": {
    "kind": "user",
    "methods": {
      "followerUserGetOwnPermissions()": {
        "notice": "follower User Get Own Permissions"
      },
      "followerUserSelfRemove()": {
        "notice": "self Remove viewer. If user dont want to follow the current user, the user can remove itself"
      },
      "getAllUsers(uint8)": {
        "notice": "get all users FOLLOWING or FOLLOWERS for the address."
      },
      "getOpenReadingServicePool()": {
        "notice": "get open reading services pool"
      },
      "getUserNickname(address)": {
        "notice": "get user nickname"
      },
      "getUserPermissions(address,uint8)": {
        "notice": "get open reading services pool"
      },
      "initialize(address,address,address,address,address)": {
        "notice": "initialize function"
      },
      "isOpenReadingService(uint256)": {
        "notice": "get open reading"
      },
      "removeUsers(address,uint8)": {
        "notice": "Remove follower."
      },
      "setActivity(bool)": {
        "notice": "change manager"
      },
      "setOpenReadingServicePool(uint256)": {
        "notice": "set open reading services pool"
      },
      "setUserNickname(address,bytes32)": {
        "notice": "set user nickname"
      },
      "setUserPermissions(address,uint256,uint256,uint8,bytes)": {
        "notice": "Set user permissions for an address"
      },
      "setUserPermissionsAndNickname(address,uint256,uint256,uint8,bytes32,bytes)": {
        "notice": "Set user permissions for an address"
      },
      "transferManagement(address)": {
        "notice": "change manager"
      }
    },
    "version": 1
  }
}