{
  "contractName": "UserMonitoringCenter",
  "abi": [
    {
      "anonymous": false,
      "inputs": [
        {
          "indexed": false,
          "internalType": "uint256",
          "name": "updateTime",
          "type": "uint256"
        }
      ],
      "name": "DataUpdated",
      "type": "event"
    },
    {
      "anonymous": false,
      "inputs": [
        {
          "indexed": false,
          "internalType": "address",
          "name": "user",
          "type": "address"
        },
        {
          "indexed": false,
          "internalType": "uint256",
          "name": "permissions",
          "type": "uint256"
        }
      ],
      "name": "FollowerUserPermissionSettled",
      "type": "event"
    },
    {
      "anonymous": false,
      "inputs": [
        {
          "indexed": false,
          "internalType": "address",
          "name": "user",
          "type": "address"
        },
        {
          "indexed": false,
          "internalType": "uint256",
          "name": "permissions",
          "type": "uint256"
        }
      ],
      "name": "FollowinUserPermissionSettled",
      "type": "event"
    },
    {
      "anonymous": false,
      "inputs": [
        {
          "indexed": true,
          "internalType": "bytes32",
          "name": "role",
          "type": "bytes32"
        },
        {
          "indexed": true,
          "internalType": "bytes32",
          "name": "previousAdminRole",
          "type": "bytes32"
        },
        {
          "indexed": true,
          "internalType": "bytes32",
          "name": "newAdminRole",
          "type": "bytes32"
        }
      ],
      "name": "RoleAdminChanged",
      "type": "event"
    },
    {
      "anonymous": false,
      "inputs": [
        {
          "indexed": true,
          "internalType": "bytes32",
          "name": "role",
          "type": "bytes32"
        },
        {
          "indexed": true,
          "internalType": "address",
          "name": "account",
          "type": "address"
        },
        {
          "indexed": true,
          "internalType": "address",
          "name": "sender",
          "type": "address"
        }
      ],
      "name": "RoleGranted",
      "type": "event"
    },
    {
      "anonymous": false,
      "inputs": [
        {
          "indexed": true,
          "internalType": "bytes32",
          "name": "role",
          "type": "bytes32"
        },
        {
          "indexed": true,
          "internalType": "address",
          "name": "account",
          "type": "address"
        },
        {
          "indexed": true,
          "internalType": "address",
          "name": "sender",
          "type": "address"
        }
      ],
      "name": "RoleRevoked",
      "type": "event"
    },
    {
      "inputs": [],
      "name": "DEFAULT_ADMIN_ROLE",
      "outputs": [
        {
          "internalType": "bytes32",
          "name": "",
          "type": "bytes32"
        }
      ],
      "stateMutability": "view",
      "type": "function"
    },
    {
      "inputs": [
        {
          "internalType": "bytes32",
          "name": "role",
          "type": "bytes32"
        }
      ],
      "name": "getRoleAdmin",
      "outputs": [
        {
          "internalType": "bytes32",
          "name": "",
          "type": "bytes32"
        }
      ],
      "stateMutability": "view",
      "type": "function"
    },
    {
      "inputs": [
        {
          "internalType": "bytes32",
          "name": "role",
          "type": "bytes32"
        },
        {
          "internalType": "address",
          "name": "account",
          "type": "address"
        }
      ],
      "name": "grantRole",
      "outputs": [],
      "stateMutability": "nonpayable",
      "type": "function"
    },
    {
      "inputs": [
        {
          "internalType": "bytes32",
          "name": "role",
          "type": "bytes32"
        },
        {
          "internalType": "address",
          "name": "account",
          "type": "address"
        }
      ],
      "name": "hasRole",
      "outputs": [
        {
          "internalType": "bool",
          "name": "",
          "type": "bool"
        }
      ],
      "stateMutability": "view",
      "type": "function"
    },
    {
      "inputs": [
        {
          "internalType": "bytes32",
          "name": "role",
          "type": "bytes32"
        },
        {
          "internalType": "address",
          "name": "account",
          "type": "address"
        }
      ],
      "name": "renounceRole",
      "outputs": [],
      "stateMutability": "nonpayable",
      "type": "function"
    },
    {
      "inputs": [
        {
          "internalType": "bytes32",
          "name": "role",
          "type": "bytes32"
        },
        {
          "internalType": "address",
          "name": "account",
          "type": "address"
        }
      ],
      "name": "revokeRole",
      "outputs": [],
      "stateMutability": "nonpayable",
      "type": "function"
    },
    {
      "inputs": [
        {
          "internalType": "bytes4",
          "name": "interfaceId",
          "type": "bytes4"
        }
      ],
      "name": "supportsInterface",
      "outputs": [
        {
          "internalType": "bool",
          "name": "",
          "type": "bool"
        }
      ],
      "stateMutability": "view",
      "type": "function"
    },
    {
      "inputs": [
        {
          "internalType": "address",
          "name": "managementCenterAddress",
          "type": "address"
        },
        {
          "internalType": "address",
          "name": "managementCenterOwnerAddress",
          "type": "address"
        },
        {
          "internalType": "address",
          "name": "userAddress",
          "type": "address"
        },
        {
          "internalType": "address",
          "name": "serviceManagerAddress",
          "type": "address"
        },
        {
          "internalType": "address",
          "name": "licenseTokenAddress",
          "type": "address"
        }
      ],
      "name": "initialize",
      "outputs": [],
      "stateMutability": "nonpayable",
      "type": "function"
    },
    {
      "inputs": [
        {
          "internalType": "address",
          "name": "newManagementCenterAddress",
          "type": "address"
        }
      ],
      "name": "transferManagement",
      "outputs": [],
      "stateMutability": "nonpayable",
      "type": "function"
    },
    {
      "inputs": [
        {
          "internalType": "bool",
          "name": "isActive",
          "type": "bool"
        }
      ],
      "name": "setActivity",
      "outputs": [],
      "stateMutability": "nonpayable",
      "type": "function"
    },
    {
      "inputs": [
        {
          "internalType": "address",
          "name": "recipient",
          "type": "address"
        },
        {
          "internalType": "uint256",
          "name": "permissions",
          "type": "uint256"
        },
        {
          "internalType": "uint256",
          "name": "nonce",
          "type": "uint256"
        },
        {
          "internalType": "enum UserMonitoringCenter.UserType",
          "name": "userType",
          "type": "uint8"
        },
        {
          "internalType": "bytes32",
          "name": "nickname",
          "type": "bytes32"
        },
        {
          "internalType": "bool",
          "name": "checkSignature",
          "type": "bool"
        },
        {
          "internalType": "bytes",
          "name": "signature",
          "type": "bytes"
        }
      ],
      "name": "setUserPermissionsAndNickname",
      "outputs": [],
      "stateMutability": "nonpayable",
      "type": "function"
    },
    {
      "inputs": [
        {
          "internalType": "address",
          "name": "recipient",
          "type": "address"
        },
        {
          "internalType": "uint256",
          "name": "permissions",
          "type": "uint256"
        },
        {
          "internalType": "uint256",
          "name": "nonce",
          "type": "uint256"
        },
        {
          "internalType": "enum UserMonitoringCenter.UserType",
          "name": "userType",
          "type": "uint8"
        },
        {
          "internalType": "bool",
          "name": "checkSignature",
          "type": "bool"
        },
        {
          "internalType": "bytes",
          "name": "signature",
          "type": "bytes"
        }
      ],
      "name": "setUserPermissions",
      "outputs": [],
      "stateMutability": "nonpayable",
      "type": "function"
    },
    {
      "inputs": [
        {
          "internalType": "enum UserMonitoringCenter.UserType",
          "name": "userType",
          "type": "uint8"
        }
      ],
      "name": "getAllUsers",
      "outputs": [
        {
          "internalType": "address[]",
          "name": "",
          "type": "address[]"
        }
      ],
      "stateMutability": "view",
      "type": "function"
    },
    {
      "inputs": [
        {
          "internalType": "address",
          "name": "user",
          "type": "address"
        },
        {
          "internalType": "enum UserMonitoringCenter.UserType",
          "name": "userType",
          "type": "uint8"
        }
      ],
      "name": "removeUsers",
      "outputs": [],
      "stateMutability": "nonpayable",
      "type": "function"
    },
    {
      "inputs": [
        {
          "internalType": "address",
          "name": "user",
          "type": "address"
        },
        {
          "internalType": "enum UserMonitoringCenter.UserType",
          "name": "userType",
          "type": "uint8"
        }
      ],
      "name": "getUserPermissions",
      "outputs": [
        {
          "internalType": "uint256",
          "name": "",
          "type": "uint256"
        }
      ],
      "stateMutability": "view",
      "type": "function"
    },
    {
      "inputs": [],
      "name": "followerUserSelfRemove",
      "outputs": [],
      "stateMutability": "nonpayable",
      "type": "function"
    },
    {
      "inputs": [],
      "name": "followerUserGetOwnPermissions",
      "outputs": [
        {
          "internalType": "uint256",
          "name": "",
          "type": "uint256"
        }
      ],
      "stateMutability": "view",
      "type": "function"
    },
    {
      "inputs": [
        {
          "internalType": "uint256",
          "name": "openReadingPool",
          "type": "uint256"
        }
      ],
      "name": "setOpenReadingServicePool",
      "outputs": [],
      "stateMutability": "nonpayable",
      "type": "function"
    },
    {
      "inputs": [],
      "name": "getOpenReadingServicePool",
      "outputs": [
        {
          "internalType": "uint256",
          "name": "",
          "type": "uint256"
        }
      ],
      "stateMutability": "view",
      "type": "function"
    },
    {
      "inputs": [
        {
          "internalType": "uint256",
          "name": "serviceId",
          "type": "uint256"
        }
      ],
      "name": "isOpenReadingService",
      "outputs": [
        {
          "internalType": "bool",
          "name": "",
          "type": "bool"
        }
      ],
      "stateMutability": "view",
      "type": "function"
    },
    {
      "inputs": [
        {
          "internalType": "address",
          "name": "user",
          "type": "address"
        },
        {
          "internalType": "address",
          "name": "follower",
          "type": "address"
        },
        {
          "internalType": "uint256",
          "name": "serviceId",
          "type": "uint256"
        }
      ],
      "name": "isFollowerAllowed",
      "outputs": [
        {
          "internalType": "bool",
          "name": "",
          "type": "bool"
        }
      ],
      "stateMutability": "view",
      "type": "function"
    },
    {
      "inputs": [
        {
          "internalType": "address",
          "name": "user",
          "type": "address"
        },
        {
          "internalType": "bytes32",
          "name": "nickname",
          "type": "bytes32"
        }
      ],
      "name": "setUserNickname",
      "outputs": [],
      "stateMutability": "nonpayable",
      "type": "function"
    },
    {
      "inputs": [
        {
          "internalType": "address",
          "name": "user",
          "type": "address"
        }
      ],
      "name": "getUserNickname",
      "outputs": [
        {
          "internalType": "bytes32",
          "name": "",
          "type": "bytes32"
        }
      ],
      "stateMutability": "view",
      "type": "function"
    }
  ],
  "bytecode": "0x60806040526001600f60016101000a81548160ff02191690831515021790555034801561002b57600080fd5b50613a248061003b6000396000f3fe608060405234801561001057600080fd5b506004361061014d5760003560e01c806359d531c4116100c3578063be08fd081161007c578063be08fd08146103c0578063d547741f146103dc578063dc654125146103f8578063e4edf85214610416578063ea71fc5c14610432578063efaf61031461044e5761014d565b806359d531c414610312578063809852821461032e57806387c255e31461033857806391d14854146103565780639dd0725414610386578063a217fddf146103a25761014d565b80631c6f8e65116101155780631c6f8e651461022e578063248a9ca31461025e5780632f2ff15d1461028e57806336568abe146102aa57806340ad307f146102c6578063524236ce146102e25761014d565b806301ffc9a71461015257806304766a7a146101825780631101ed0a146101b25780631459457a146101e257806314a24952146101fe575b600080fd5b61016c60048036038101906101679190612b68565b61046a565b6040516101799190613072565b60405180910390f35b61019c600480360381019061019791906127bf565b6104e4565b6040516101a9919061308d565b60405180910390f35b6101cc60048036038101906101c79190612867565b6105ec565b6040516101d99190613072565b60405180910390f35b6101fc60048036038101906101f791906127ec565b6107d7565b005b61021860048036038101906102139190612b95565b610a41565b6040516102259190613050565b60405180910390f35b610248600480360381019061024391906128fa565b610b4f565b604051610255919061324a565b60405180910390f35b61027860048036038101906102739190612afb565b610c5d565b604051610285919061308d565b60405180910390f35b6102a860048036038101906102a39190612b28565b610c7c565b005b6102c460048036038101906102bf9190612b28565b610ca5565b005b6102e060048036038101906102db91906128ba565b610d28565b005b6102fc60048036038101906102f79190612bc2565b610e2f565b6040516103099190613072565b60405180910390f35b61032c60048036038101906103279190612bc2565b610f12565b005b610336610fdb565b005b6103406111ba565b60405161034d919061324a565b60405180910390f35b610370600480360381019061036b9190612b28565b611213565b60405161037d9190613072565b60405180910390f35b6103a0600480360381019061039b9190612aa1565b61127d565b005b6103aa611331565b6040516103b7919061308d565b60405180910390f35b6103da60048036038101906103d591906128fa565b611338565b005b6103f660048036038101906103f19190612b28565b611633565b005b61040061165c565b60405161040d919061324a565b60405180910390f35b610430600480360381019061042b91906127bf565b6117de565b005b61044c6004803603810190610447919061293a565b6118b9565b005b610468600480360381019061046391906129e3565b611dd4565b005b60007f7965db0b000000000000000000000000000000000000000000000000000000007bffffffffffffffffffffffffffffffffffffffffffffffffffffffff1916827bffffffffffffffffffffffffffffffffffffffffffffffffffffffff191614806104dd57506104dc82611eee565b5b9050919050565b6000600f60019054906101000a900460ff16610535576040517f08c379a000000000000000000000000000000000000000000000000000000000815260040161052c906131aa565b60405180910390fd5b6105667fb19546dff01e856fb3f010c267a7b1c60363cf8a4664e21cc89c26224620214e610561611f58565b611213565b6105a5576040517f08c379a000000000000000000000000000000000000000000000000000000000815260040161059c906131ea565b60405180910390fd5b600760008373ffffffffffffffffffffffffffffffffffffffff1673ffffffffffffffffffffffffffffffffffffffff168152602001908152602001600020549050919050565b6000600f60019054906101000a900460ff1661063d576040517f08c379a0000000000000000000000000000000000000000000000000000000008152600401610634906131aa565b60405180910390fd5b8373ffffffffffffffffffffffffffffffffffffffff16600160009054906101000a900473ffffffffffffffffffffffffffffffffffffffff1673ffffffffffffffffffffffffffffffffffffffff16146106cd576040517f08c379a00000000000000000000000000000000000000000000000000000000081526004016106c49061314a565b60405180910390fd5b6106d682610e2f565b156106e457600190506107d0565b6106f883600a611f6090919063ffffffff16565b61070557600090506107d0565b73__LicenseTools__________________________63995e9228600660008673ffffffffffffffffffffffffffffffffffffffff1673ffffffffffffffffffffffffffffffffffffffff16815260200190815260200160002054846040518363ffffffff1660e01b815260040161077d929190613265565b60206040518083038186803b15801561079557600080fd5b505af41580156107a9573d6000803e3d6000fd5b505050506040513d601f19601f820116820180604052508101906107cd9190612ace565b90505b9392505050565b600f60009054906101000a900460ff1615610827576040517f08c379a000000000000000000000000000000000000000000000000000000000815260040161081e906131ca565b60405180910390fd5b84600260006101000a81548173ffffffffffffffffffffffffffffffffffffffff021916908373ffffffffffffffffffffffffffffffffffffffff16021790555083600360006101000a81548173ffffffffffffffffffffffffffffffffffffffff021916908373ffffffffffffffffffffffffffffffffffffffff16021790555082600160006101000a81548173ffffffffffffffffffffffffffffffffffffffff021916908373ffffffffffffffffffffffffffffffffffffffff1602179055506109367fb19546dff01e856fb3f010c267a7b1c60363cf8a4664e21cc89c26224620214e600160009054906101000a900473ffffffffffffffffffffffffffffffffffffffff16611f90565b6109827f241ecf16d79d0f8dbfb92cbc07fe17840425976cf0667f022fe9877caa831b08600260009054906101000a900473ffffffffffffffffffffffffffffffffffffffff16611f90565b81600c60006101000a81548173ffffffffffffffffffffffffffffffffffffffff021916908373ffffffffffffffffffffffffffffffffffffffff16021790555080600d60006101000a81548173ffffffffffffffffffffffffffffffffffffffff021916908373ffffffffffffffffffffffffffffffffffffffff1602179055506001600f60006101000a81548160ff0219169083151502179055506001600f60016101000a81548160ff0219169083151502179055505050505050565b6060600f60019054906101000a900460ff16610a92576040517f08c379a0000000000000000000000000000000000000000000000000000000008152600401610a89906131aa565b60405180910390fd5b610ac37fb19546dff01e856fb3f010c267a7b1c60363cf8a4664e21cc89c26224620214e610abe611f58565b611213565b610b02576040517f08c379a0000000000000000000000000000000000000000000000000000000008152600401610af9906131ea565b60405180910390fd5b60006001811115610b1657610b15613600565b5b826001811115610b2957610b28613600565b5b14610b3d57610b38600a611f9e565b610b48565b610b476008611f9e565b5b9050919050565b6000600f60019054906101000a900460ff16610ba0576040517f08c379a0000000000000000000000000000000000000000000000000000000008152600401610b97906131aa565b60405180910390fd5b60006001811115610bb457610bb3613600565b5b826001811115610bc757610bc6613600565b5b1415610c1457600560008473ffffffffffffffffffffffffffffffffffffffff1673ffffffffffffffffffffffffffffffffffffffff168152602001908152602001600020549050610c57565b600660008473ffffffffffffffffffffffffffffffffffffffff1673ffffffffffffffffffffffffffffffffffffffff1681526020019081526020016000205490505b92915050565b6000806000838152602001908152602001600020600101549050919050565b610c8582610c5d565b610c9681610c91611f58565b611fbf565b610ca0838361205c565b505050565b610cad611f58565b73ffffffffffffffffffffffffffffffffffffffff168173ffffffffffffffffffffffffffffffffffffffff1614610d1a576040517f08c379a0000000000000000000000000000000000000000000000000000000008152600401610d119061322a565b60405180910390fd5b610d24828261213c565b5050565b600f60019054906101000a900460ff16610d77576040517f08c379a0000000000000000000000000000000000000000000000000000000008152600401610d6e906131aa565b60405180910390fd5b610da87fb19546dff01e856fb3f010c267a7b1c60363cf8a4664e21cc89c26224620214e610da3611f58565b611213565b610de7576040517f08c379a0000000000000000000000000000000000000000000000000000000008152600401610dde906131ea565b60405180910390fd5b80600760008473ffffffffffffffffffffffffffffffffffffffff1673ffffffffffffffffffffffffffffffffffffffff168152602001908152602001600020819055505050565b6000600f60019054906101000a900460ff16610e80576040517f08c379a0000000000000000000000000000000000000000000000000000000008152600401610e77906131aa565b60405180910390fd5b73__LicenseTools__________________________63995e9228600e54846040518363ffffffff1660e01b8152600401610ebb929190613265565b60206040518083038186803b158015610ed357600080fd5b505af4158015610ee7573d6000803e3d6000fd5b505050506040513d601f19601f82011682018060405250810190610f0b9190612ace565b9050919050565b600f60019054906101000a900460ff16610f61576040517f08c379a0000000000000000000000000000000000000000000000000000000008152600401610f58906131aa565b60405180910390fd5b610f927fb19546dff01e856fb3f010c267a7b1c60363cf8a4664e21cc89c26224620214e610f8d611f58565b611213565b610fd1576040517f08c379a0000000000000000000000000000000000000000000000000000000008152600401610fc8906131ea565b60405180910390fd5b80600e8190555050565b600f60019054906101000a900460ff1661102a576040517f08c379a0000000000000000000000000000000000000000000000000000000008152600401611021906131aa565b60405180910390fd5b611032611f58565b60016000600181111561104857611047613600565b5b81600181111561105b5761105a613600565b5b14156110b957611075826008611f6090919063ffffffff16565b6110b4576040517f08c379a00000000000000000000000000000000000000000000000000000000081526004016110ab9061320a565b60405180910390fd5b61110d565b6110cd82600a611f6090919063ffffffff16565b61110c576040517f08c379a00000000000000000000000000000000000000000000000000000000081526004016111039061318a565b60405180910390fd5b5b611128611118611f58565b600a61221d90919063ffffffff16565b50600060066000611137611f58565b73ffffffffffffffffffffffffffffffffffffffff1673ffffffffffffffffffffffffffffffffffffffff168152602001908152602001600020819055507f529ecbc3c68c3d2c7bb008ee044e1a240723013a8c3456abaed0d80bcab7eb8161119e611f58565b60006040516111ae929190612ffe565b60405180910390a15050565b6000600f60019054906101000a900460ff1661120b576040517f08c379a0000000000000000000000000000000000000000000000000000000008152600401611202906131aa565b60405180910390fd5b600e54905090565b600080600084815260200190815260200160002060000160008373ffffffffffffffffffffffffffffffffffffffff1673ffffffffffffffffffffffffffffffffffffffff16815260200190815260200160002060009054906101000a900460ff16905092915050565b611285611f58565b73ffffffffffffffffffffffffffffffffffffffff16600360009054906101000a900473ffffffffffffffffffffffffffffffffffffffff1673ffffffffffffffffffffffffffffffffffffffff1614611314576040517f08c379a000000000000000000000000000000000000000000000000000000000815260040161130b906131ea565b60405180910390fd5b80600f60016101000a81548160ff02191690831515021790555050565b6000801b81565b600f60019054906101000a900460ff16611387576040517f08c379a000000000000000000000000000000000000000000000000000000000815260040161137e906131aa565b60405180910390fd5b81816000600181111561139d5761139c613600565b5b8160018111156113b0576113af613600565b5b141561140e576113ca826008611f6090919063ffffffff16565b611409576040517f08c379a00000000000000000000000000000000000000000000000000000000081526004016114009061320a565b60405180910390fd5b611462565b61142282600a611f6090919063ffffffff16565b611461576040517f08c379a00000000000000000000000000000000000000000000000000000000081526004016114589061318a565b60405180910390fd5b5b6114937fb19546dff01e856fb3f010c267a7b1c60363cf8a4664e21cc89c26224620214e61148e611f58565b611213565b6114d2576040517f08c379a00000000000000000000000000000000000000000000000000000000081526004016114c9906131ea565b60405180910390fd5b600060018111156114e6576114e5613600565b5b8360018111156114f9576114f8613600565b5b14156115985761151384600861221d90919063ffffffff16565b506000600560008673ffffffffffffffffffffffffffffffffffffffff1673ffffffffffffffffffffffffffffffffffffffff168152602001908152602001600020819055507fcd54d7e6dbadcd67bf2dc5740d6441fea3d13493ee22d7beeae303625a89d42684600060405161158b929190612ffe565b60405180910390a161162d565b6115ac84600a61221d90919063ffffffff16565b506000600660008673ffffffffffffffffffffffffffffffffffffffff1673ffffffffffffffffffffffffffffffffffffffff168152602001908152602001600020819055507f529ecbc3c68c3d2c7bb008ee044e1a240723013a8c3456abaed0d80bcab7eb81846000604051611624929190612ffe565b60405180910390a15b50505050565b61163c82610c5d565b61164d81611648611f58565b611fbf565b611657838361213c565b505050565b6000600f60019054906101000a900460ff166116ad576040517f08c379a00000000000000000000000000000000000000000000000000000000081526004016116a4906131aa565b60405180910390fd5b6116b5611f58565b6001600060018111156116cb576116ca613600565b5b8160018111156116de576116dd613600565b5b141561173c576116f8826008611f6090919063ffffffff16565b611737576040517f08c379a000000000000000000000000000000000000000000000000000000000815260040161172e9061320a565b60405180910390fd5b611790565b61175082600a611f6090919063ffffffff16565b61178f576040517f08c379a00000000000000000000000000000000000000000000000000000000081526004016117869061318a565b60405180910390fd5b5b6006600061179c611f58565b73ffffffffffffffffffffffffffffffffffffffff1673ffffffffffffffffffffffffffffffffffffffff168152602001908152602001600020549250505090565b6117e6611f58565b73ffffffffffffffffffffffffffffffffffffffff16600360009054906101000a900473ffffffffffffffffffffffffffffffffffffffff1673ffffffffffffffffffffffffffffffffffffffff1614611875576040517f08c379a000000000000000000000000000000000000000000000000000000000815260040161186c906131ea565b60405180910390fd5b80600260006101000a81548173ffffffffffffffffffffffffffffffffffffffff021916908373ffffffffffffffffffffffffffffffffffffffff16021790555050565b600f60019054906101000a900460ff16611908576040517f08c379a00000000000000000000000000000000000000000000000000000000081526004016118ff906131aa565b60405180910390fd5b6119397fb19546dff01e856fb3f010c267a7b1c60363cf8a4664e21cc89c26224620214e611934611f58565b611213565b611978576040517f08c379a000000000000000000000000000000000000000000000000000000000815260040161196f906131ea565b60405180910390fd5b60008514156119bc576040517f08c379a00000000000000000000000000000000000000000000000000000000081526004016119b39061316a565b60405180910390fd5b600115158215151415611b71576001151573__VerifySignature_______________________6365ac0b7e886119f0611f58565b88886001811115611a0457611a03613600565b5b876040518663ffffffff1660e01b8152600401611a25959493929190612fa4565b60206040518083038186803b158015611a3d57600080fd5b505af4158015611a51573d6000803e3d6000fd5b505050506040513d601f19601f82011682018060405250810190611a759190612ace565b151514611ab7576040517f08c379a0000000000000000000000000000000000000000000000000000000008152600401611aae906130ea565b60405180910390fd5b836103e842611ac691906133e7565b11611b06576040517f08c379a0000000000000000000000000000000000000000000000000000000008152600401611afd9061314a565b60405180910390fd5b620697806103e8856103e842611b1c91906133e7565b611b269190613441565b611b3091906133b6565b10611b70576040517f08c379a0000000000000000000000000000000000000000000000000000000008152600401611b679061310a565b60405180910390fd5b5b60006001811115611b8557611b84613600565b5b836001811115611b9857611b97613600565b5b1415611cb75784600560008873ffffffffffffffffffffffffffffffffffffffff1673ffffffffffffffffffffffffffffffffffffffff168152602001908152602001600020541415611c20576040517f08c379a0000000000000000000000000000000000000000000000000000000008152600401611c179061312a565b60405180910390fd5b611c3486600861224d90919063ffffffff16565b5084600560008873ffffffffffffffffffffffffffffffffffffffff1673ffffffffffffffffffffffffffffffffffffffff168152602001908152602001600020819055507fcd54d7e6dbadcd67bf2dc5740d6441fea3d13493ee22d7beeae303625a89d4268686604051611caa929190613027565b60405180910390a1611dcc565b84600660008873ffffffffffffffffffffffffffffffffffffffff1673ffffffffffffffffffffffffffffffffffffffff168152602001908152602001600020541415611d39576040517f08c379a0000000000000000000000000000000000000000000000000000000008152600401611d309061312a565b60405180910390fd5b611d4d86600a61224d90919063ffffffff16565b5084600660008873ffffffffffffffffffffffffffffffffffffffff1673ffffffffffffffffffffffffffffffffffffffff168152602001908152602001600020819055507f529ecbc3c68c3d2c7bb008ee044e1a240723013a8c3456abaed0d80bcab7eb818686604051611dc3929190613027565b60405180910390a15b505050505050565b600f60019054906101000a900460ff16611e23576040517f08c379a0000000000000000000000000000000000000000000000000000000008152600401611e1a906131aa565b60405180910390fd5b611e547fb19546dff01e856fb3f010c267a7b1c60363cf8a4664e21cc89c26224620214e611e4f611f58565b611213565b611e93576040517f08c379a0000000000000000000000000000000000000000000000000000000008152600401611e8a906131ea565b60405180910390fd5b82600760008973ffffffffffffffffffffffffffffffffffffffff1673ffffffffffffffffffffffffffffffffffffffff16815260200190815260200160002081905550611ee58787878786866118b9565b50505050505050565b60007f01ffc9a7000000000000000000000000000000000000000000000000000000007bffffffffffffffffffffffffffffffffffffffffffffffffffffffff1916827bffffffffffffffffffffffffffffffffffffffffffffffffffffffff1916149050919050565b600033905090565b6000611f88836000018373ffffffffffffffffffffffffffffffffffffffff1660001b61227d565b905092915050565b611f9a828261205c565b5050565b60606000611fae836000016122a0565b905060608190508092505050919050565b611fc98282611213565b61205857611fee8173ffffffffffffffffffffffffffffffffffffffff1660146122fc565b611ffc8360001c60206122fc565b60405160200161200d929190612f6a565b6040516020818303038152906040526040517f08c379a000000000000000000000000000000000000000000000000000000000815260040161204f91906130a8565b60405180910390fd5b5050565b6120668282611213565b61213857600160008084815260200190815260200160002060000160008373ffffffffffffffffffffffffffffffffffffffff1673ffffffffffffffffffffffffffffffffffffffff16815260200190815260200160002060006101000a81548160ff0219169083151502179055506120dd611f58565b73ffffffffffffffffffffffffffffffffffffffff168173ffffffffffffffffffffffffffffffffffffffff16837f2f8788117e7eff1d82e926ec794901d17c78024a50270940304540a733656f0d60405160405180910390a45b5050565b6121468282611213565b1561221957600080600084815260200190815260200160002060000160008373ffffffffffffffffffffffffffffffffffffffff1673ffffffffffffffffffffffffffffffffffffffff16815260200190815260200160002060006101000a81548160ff0219169083151502179055506121be611f58565b73ffffffffffffffffffffffffffffffffffffffff168173ffffffffffffffffffffffffffffffffffffffff16837ff6391f5c32d9c69d2a47ea670b442974b53935d1edc7fd64eb21e047a839171b60405160405180910390a45b5050565b6000612245836000018373ffffffffffffffffffffffffffffffffffffffff1660001b612538565b905092915050565b6000612275836000018373ffffffffffffffffffffffffffffffffffffffff1660001b61264c565b905092915050565b600080836001016000848152602001908152602001600020541415905092915050565b6060816000018054806020026020016040519081016040528092919081815260200182805480156122f057602002820191906000526020600020905b8154815260200190600101908083116122dc575b50505050509050919050565b60606000600283600261230f91906133e7565b6123199190613360565b67ffffffffffffffff8111156123325761233161368d565b5b6040519080825280601f01601f1916602001820160405280156123645781602001600182028036833780820191505090505b5090507f30000000000000000000000000000000000000000000000000000000000000008160008151811061239c5761239b61365e565b5b60200101907effffffffffffffffffffffffffffffffffffffffffffffffffffffffffffff1916908160001a9053507f780000000000000000000000000000000000000000000000000000000000000081600181518110612400576123ff61365e565b5b60200101907effffffffffffffffffffffffffffffffffffffffffffffffffffffffffffff1916908160001a9053506000600184600261244091906133e7565b61244a9190613360565b90505b60018111156124ea577f3031323334353637383961626364656600000000000000000000000000000000600f86166010811061248c5761248b61365e565b5b1a60f81b8282815181106124a3576124a261365e565b5b60200101907effffffffffffffffffffffffffffffffffffffffffffffffffffffffffffff1916908160001a905350600485901c9450806124e390613547565b905061244d565b506000841461252e576040517f08c379a0000000000000000000000000000000000000000000000000000000008152600401612525906130ca565b60405180910390fd5b8091505092915050565b6000808360010160008481526020019081526020016000205490506000811461264057600060018261256a9190613441565b90506000600186600001805490506125829190613441565b90508181146125f15760008660000182815481106125a3576125a261365e565b5b90600052602060002001549050808760000184815481106125c7576125c661365e565b5b90600052602060002001819055508387600101600083815260200190815260200160002081905550505b856000018054806126055761260461362f565b5b600190038181906000526020600020016000905590558560010160008681526020019081526020016000206000905560019350505050612646565b60009150505b92915050565b6000612658838361227d565b6126b15782600001829080600181540180825580915050600190039060005260206000200160009091909190915055826000018054905083600101600084815260200190815260200160002081905550600190506126b6565b600090505b92915050565b60006126cf6126ca846132b3565b61328e565b9050828152602081018484840111156126eb576126ea6136c1565b5b6126f6848285613505565b509392505050565b60008135905061270d8161396b565b92915050565b60008135905061272281613982565b92915050565b60008151905061273781613982565b92915050565b60008135905061274c81613999565b92915050565b600081359050612761816139b0565b92915050565b600082601f83011261277c5761277b6136bc565b5b813561278c8482602086016126bc565b91505092915050565b6000813590506127a4816139c7565b92915050565b6000813590506127b9816139d7565b92915050565b6000602082840312156127d5576127d46136cb565b5b60006127e3848285016126fe565b91505092915050565b600080600080600060a08688031215612808576128076136cb565b5b6000612816888289016126fe565b9550506020612827888289016126fe565b9450506040612838888289016126fe565b9350506060612849888289016126fe565b925050608061285a888289016126fe565b9150509295509295909350565b6000806000606084860312156128805761287f6136cb565b5b600061288e868287016126fe565b935050602061289f868287016126fe565b92505060406128b0868287016127aa565b9150509250925092565b600080604083850312156128d1576128d06136cb565b5b60006128df858286016126fe565b92505060206128f08582860161273d565b9150509250929050565b60008060408385031215612911576129106136cb565b5b600061291f858286016126fe565b925050602061293085828601612795565b9150509250929050565b60008060008060008060c08789031215612957576129566136cb565b5b600061296589828a016126fe565b965050602061297689828a016127aa565b955050604061298789828a016127aa565b945050606061299889828a01612795565b93505060806129a989828a01612713565b92505060a087013567ffffffffffffffff8111156129ca576129c96136c6565b5b6129d689828a01612767565b9150509295509295509295565b600080600080600080600060e0888a031215612a0257612a016136cb565b5b6000612a108a828b016126fe565b9750506020612a218a828b016127aa565b9650506040612a328a828b016127aa565b9550506060612a438a828b01612795565b9450506080612a548a828b0161273d565b93505060a0612a658a828b01612713565b92505060c088013567ffffffffffffffff811115612a8657612a856136c6565b5b612a928a828b01612767565b91505092959891949750929550565b600060208284031215612ab757612ab66136cb565b5b6000612ac584828501612713565b91505092915050565b600060208284031215612ae457612ae36136cb565b5b6000612af284828501612728565b91505092915050565b600060208284031215612b1157612b106136cb565b5b6000612b1f8482850161273d565b91505092915050565b60008060408385031215612b3f57612b3e6136cb565b5b6000612b4d8582860161273d565b9250506020612b5e858286016126fe565b9150509250929050565b600060208284031215612b7e57612b7d6136cb565b5b6000612b8c84828501612752565b91505092915050565b600060208284031215612bab57612baa6136cb565b5b6000612bb984828501612795565b91505092915050565b600060208284031215612bd857612bd76136cb565b5b6000612be6848285016127aa565b91505092915050565b6000612bfb8383612c07565b60208301905092915050565b612c1081613475565b82525050565b612c1f81613475565b82525050565b612c2e81613475565b82525050565b6000612c3f826132f4565b612c498185613322565b9350612c54836132e4565b8060005b83811015612c85578151612c6c8882612bef565b9750612c7783613315565b925050600181019050612c58565b5085935050505092915050565b612c9b81613487565b82525050565b612caa81613493565b82525050565b6000612cbb826132ff565b612cc58185613333565b9350612cd5818560208601613514565b612cde816136d0565b840191505092915050565b612cf2816134f3565b82525050565b6000612d038261330a565b612d0d8185613344565b9350612d1d818560208601613514565b612d26816136d0565b840191505092915050565b6000612d3c8261330a565b612d468185613355565b9350612d56818560208601613514565b80840191505092915050565b6000612d6f602083613344565b9150612d7a826136e1565b602082019050919050565b6000612d92600683613344565b9150612d9d8261370a565b602082019050919050565b6000612db5600683613344565b9150612dc082613733565b602082019050919050565b6000612dd8600683613344565b9150612de38261375c565b602082019050919050565b6000612dfb600583613344565b9150612e0682613785565b602082019050919050565b6000612e1e600583613344565b9150612e29826137ae565b602082019050919050565b6000612e41600683613344565b9150612e4c826137d7565b602082019050919050565b6000612e64600683613344565b9150612e6f82613800565b602082019050919050565b6000612e87602e83613344565b9150612e9282613829565b604082019050919050565b6000612eaa600683613344565b9150612eb582613878565b602082019050919050565b6000612ecd601783613355565b9150612ed8826138a1565b601782019050919050565b6000612ef0600683613344565b9150612efb826138ca565b602082019050919050565b6000612f13601183613355565b9150612f1e826138f3565b601182019050919050565b6000612f36602f83613344565b9150612f418261391c565b604082019050919050565b612f55816134e9565b82525050565b612f64816134e9565b82525050565b6000612f7582612ec0565b9150612f818285612d31565b9150612f8c82612f06565b9150612f988284612d31565b91508190509392505050565b600060a082019050612fb96000830188612c25565b612fc66020830187612c25565b612fd36040830186612f5b565b612fe06060830185612f5b565b8181036080830152612ff28184612cb0565b90509695505050505050565b60006040820190506130136000830185612c16565b6130206020830184612ce9565b9392505050565b600060408201905061303c6000830185612c16565b6130496020830184612f4c565b9392505050565b6000602082019050818103600083015261306a8184612c34565b905092915050565b60006020820190506130876000830184612c92565b92915050565b60006020820190506130a26000830184612ca1565b92915050565b600060208201905081810360008301526130c28184612cf8565b905092915050565b600060208201905081810360008301526130e381612d62565b9050919050565b6000602082019050818103600083015261310381612d85565b9050919050565b6000602082019050818103600083015261312381612da8565b9050919050565b6000602082019050818103600083015261314381612dcb565b9050919050565b6000602082019050818103600083015261316381612dee565b9050919050565b6000602082019050818103600083015261318381612e11565b9050919050565b600060208201905081810360008301526131a381612e34565b9050919050565b600060208201905081810360008301526131c381612e57565b9050919050565b600060208201905081810360008301526131e381612e7a565b9050919050565b6000602082019050818103600083015261320381612e9d565b9050919050565b6000602082019050818103600083015261322381612ee3565b9050919050565b6000602082019050818103600083015261324381612f29565b9050919050565b600060208201905061325f6000830184612f4c565b92915050565b600060408201905061327a6000830185612f5b565b6132876020830184612f5b565b9392505050565b60006132986132a9565b90506132a48282613571565b919050565b6000604051905090565b600067ffffffffffffffff8211156132ce576132cd61368d565b5b6132d7826136d0565b9050602081019050919050565b6000819050602082019050919050565b600081519050919050565b600081519050919050565b600081519050919050565b6000602082019050919050565b600082825260208201905092915050565b600082825260208201905092915050565b600082825260208201905092915050565b600081905092915050565b600061336b826134e9565b9150613376836134e9565b9250827fffffffffffffffffffffffffffffffffffffffffffffffffffffffffffffffff038211156133ab576133aa6135a2565b5b828201905092915050565b60006133c1826134e9565b91506133cc836134e9565b9250826133dc576133db6135d1565b5b828204905092915050565b60006133f2826134e9565b91506133fd836134e9565b9250817fffffffffffffffffffffffffffffffffffffffffffffffffffffffffffffffff0483118215151615613436576134356135a2565b5b828202905092915050565b600061344c826134e9565b9150613457836134e9565b92508282101561346a576134696135a2565b5b828203905092915050565b6000613480826134c9565b9050919050565b60008115159050919050565b6000819050919050565b60007fffffffff0000000000000000000000000000000000000000000000000000000082169050919050565b600073ffffffffffffffffffffffffffffffffffffffff82169050919050565b6000819050919050565b60006134fe826134e9565b9050919050565b82818337600083830152505050565b60005b83811015613532578082015181840152602081019050613517565b83811115613541576000848401525b50505050565b6000613552826134e9565b91506000821415613566576135656135a2565b5b600182039050919050565b61357a826136d0565b810181811067ffffffffffffffff821117156135995761359861368d565b5b80604052505050565b7f4e487b7100000000000000000000000000000000000000000000000000000000600052601160045260246000fd5b7f4e487b7100000000000000000000000000000000000000000000000000000000600052601260045260246000fd5b7f4e487b7100000000000000000000000000000000000000000000000000000000600052602160045260246000fd5b7f4e487b7100000000000000000000000000000000000000000000000000000000600052603160045260246000fd5b7f4e487b7100000000000000000000000000000000000000000000000000000000600052603260045260246000fd5b7f4e487b7100000000000000000000000000000000000000000000000000000000600052604160045260246000fd5b600080fd5b600080fd5b600080fd5b600080fd5b6000601f19601f8301169050919050565b7f537472696e67733a20686578206c656e67746820696e73756666696369656e74600082015250565b7f4552525349470000000000000000000000000000000000000000000000000000600082015250565b7f4f4c445245510000000000000000000000000000000000000000000000000000600082015250565b7f4552525045520000000000000000000000000000000000000000000000000000600082015250565b7f4241445251000000000000000000000000000000000000000000000000000000600082015250565b7f4e44504552000000000000000000000000000000000000000000000000000000600082015250565b7f4e4f544657520000000000000000000000000000000000000000000000000000600082015250565b7f494e414354560000000000000000000000000000000000000000000000000000600082015250565b7f436f6e747261637420696e7374616e63652068617320616c726561647920626560008201527f656e20696e697469616c697a6564000000000000000000000000000000000000602082015250565b7f554e415554480000000000000000000000000000000000000000000000000000600082015250565b7f416363657373436f6e74726f6c3a206163636f756e7420000000000000000000600082015250565b7f4e4f544657470000000000000000000000000000000000000000000000000000600082015250565b7f206973206d697373696e6720726f6c6520000000000000000000000000000000600082015250565b7f416363657373436f6e74726f6c3a2063616e206f6e6c792072656e6f756e636560008201527f20726f6c657320666f722073656c660000000000000000000000000000000000602082015250565b61397481613475565b811461397f57600080fd5b50565b61398b81613487565b811461399657600080fd5b50565b6139a281613493565b81146139ad57600080fd5b50565b6139b98161349d565b81146139c457600080fd5b50565b600281106139d457600080fd5b50565b6139e0816134e9565b81146139eb57600080fd5b5056fea2646970667358221220ef24ad61a9c3a631d4581feb078267dfaec055063a03918ae7488d0cc35d274664736f6c63430008070033",
  "immutableReferences": {},
  "source": "// SPDX-License-Identifier: GPL-3.0\npragma solidity >=0.4.25 <0.9.0;\nimport \"@openzeppelin/contracts/access/AccessControl.sol\";\nimport \"@openzeppelin/contracts/utils/structs/EnumerableSet.sol\";\n\nimport \"./VerifySignature.sol\";\nimport \"./LicenseTools.sol\";\nimport \"./LicenseToken.sol\";\nimport \"./ServiceManager.sol\";\nimport \"./ManagementCenter.sol\";\n\ncontract UserMonitoringCenter is AccessControl {\n    using EnumerableSet for EnumerableSet.AddressSet;\n\n    struct UpdatedData {\n        string dataHash; // string\n        uint256 updateTime; // updated time\n        uint256 totalEquity;\n    }\n    //CONSTANTS\n    uint256 constant numberOfPeriodsGap = 3;\n\n    /******************************\n        EVENTS\n    ******************************/\n\n    event DataUpdated(uint256 updateTime);\n    event FollowinUserPermissionSettled(address user, uint256 permissions);\n    event FollowerUserPermissionSettled(address user, uint256 permissions);\n\n    /******************************\n        VARIABLES\n    ******************************/\n\n    bytes32 constant OWNER_ROLE = keccak256(\"OWNER_ROLE\");\n    bytes32 constant MANAGER_ROLE = keccak256(\"MANAGER_ROLE\");\n    uint256 constant _updatedDataTimeWindows = 5 minutes;\n\n    // manager of the contract\n    address private _owner;\n    // manager address\n    address private _manager;\n\n    // manager owner address\n    address private _managerOwner;\n\n    // stores the updated `data` of the user.\n    mapping(uint256 => UpdatedData) _updatedDataByService;\n\n    // Declare a set state variable of address following\n    mapping(address => uint256) _followingUsersPermissions;\n\n    // Declare a set state variable of address followers\n    mapping(address => uint256) _followersUsersPermissions;\n\n    // Declare a set state variable of address followers\n    mapping(address => bytes32) _nicknames;\n\n    // Declare a set state variable of address of followin gUsers\n    EnumerableSet.AddressSet _followingUsers;\n\n    // Declare a set state variable of address of followers users\n    EnumerableSet.AddressSet _followersUsers;\n\n    //Service Manager\n    ServiceManager serviceManagerInstance;\n    //License Manager\n    LicenseToken licenseTokenInstance;\n\n    uint256 private _openReadingPool;\n\n    bool private initialized;\n    bool _isActive = true;\n    enum UserType {\n        FOLLOWING,\n        FOLLOWER\n    }\n\n    //Modifiers\n    //  * @param userType true(FOLLOWING), false(FOLLOWERS)\n    modifier onlyFollowingOrFollowerUsers(address user, UserType userType) {\n        if (userType == UserType.FOLLOWING) {\n            require(_followingUsers.contains(user), \"NOTFWG\");\n        } else {\n            require(_followersUsers.contains(user), \"NOTFWR\");\n        }\n        _;\n    }\n\n    modifier checkActive() {\n        require(_isActive, \"INACTV\");\n        _;\n    }\n\n    /**\n     * @notice initialize function\n     * @param managementCenterAddress manager Transaction Feed\n     * @param userAddress user address\n     * @param managementCenterOwnerAddress  owner of the management center\n     * @param serviceManagerAddress  service Manager Address\n     * @param licenseTokenAddress license Token Address\n     */\n    function initialize(\n        address managementCenterAddress,\n        address managementCenterOwnerAddress,\n        address userAddress,\n        address serviceManagerAddress,\n        address licenseTokenAddress\n    ) public {\n        require(!initialized, \"Contract instance has already been initialized\");\n        _manager = managementCenterAddress;\n        _managerOwner = managementCenterOwnerAddress;\n        _owner = userAddress;\n        _setupRole(OWNER_ROLE, _owner);\n        _setupRole(MANAGER_ROLE, _manager);\n        serviceManagerInstance = ServiceManager(serviceManagerAddress);\n        licenseTokenInstance = LicenseToken(licenseTokenAddress);\n        initialized = true;\n        _isActive = true;\n    }\n\n    /**\n     * @notice change manager\n     * @dev function is created in case of management center replacement\n     * @param newManagementCenterAddress manager Transaction Feed\n     */\n    function transferManagement(address newManagementCenterAddress) public {\n        require(\n            // Only manager's owner can change manager\n            _managerOwner == _msgSender(),\n            \"UNAUTH\"\n        );\n        _manager = newManagementCenterAddress;\n    }\n\n    /**\n     * @notice change manager\n     * @dev function is created in case of management center replacement\n     * @param isActive isActive variable\n     */\n    function setActivity(bool isActive) public {\n        require(\n            // Only manager's owner can change manager\n            _managerOwner == _msgSender(),\n            \"UNAUTH\"\n        );\n        _isActive = isActive;\n    }\n\n    /**\n     * @notice Set user permissions for an address\n     * @param recipient added address\n     * @param userType FOLLOWING, FOLLOWERS\n     * @param permissions permissions added with\n     * @param nonce nonce\n     * @param nickname nickname\n     * @param signature signature\n     */\n    function setUserPermissionsAndNickname(\n        address recipient,\n        uint256 permissions,\n        uint256 nonce,\n        UserType userType,\n        bytes32 nickname,\n        bool checkSignature,\n        bytes memory signature\n    ) public checkActive {\n        require(hasRole(OWNER_ROLE, _msgSender()), \"UNAUTH\");\n        _nicknames[recipient] = nickname;\n        return\n            setUserPermissions(\n                recipient,\n                permissions,\n                nonce,\n                userType,\n                checkSignature,\n                signature\n            );\n    }\n\n    /**\n     * @notice Set user permissions for an address\n     * @param recipient added address\n     * @param userType FOLLOWING, FOLLOWERS\n     * @param permissions permissions added with\n     * @param nonce nonce\n     * @param signature signature\n     */\n    function setUserPermissions(\n        address recipient,\n        uint256 permissions,\n        uint256 nonce,\n        UserType userType,\n        bool checkSignature,\n        bytes memory signature\n    ) public checkActive {\n        require(hasRole(OWNER_ROLE, _msgSender()), \"UNAUTH\");\n        require(permissions != 0, \"NDPER\");\n        if (checkSignature == true) {\n            require(\n                VerifySignature.verifyPermissionRequest(\n                    recipient,\n                    _msgSender(),\n                    nonce,\n                    uint256(userType),\n                    signature\n                ) == true,\n                \"ERRSIG\"\n            );\n            require(block.timestamp * 1000 > nonce, \"BADRQ\");\n            require(\n                (block.timestamp * 1000 - nonce) / 1000 < 5 days,\n                \"OLDREQ\"\n            );\n        }        \n        if (userType == UserType.FOLLOWING) {\n            require(\n                _followingUsersPermissions[recipient] != permissions,\n                \"ERRPER\"\n            );\n            _followingUsers.add(recipient);\n            _followingUsersPermissions[recipient] = permissions;\n            emit FollowinUserPermissionSettled(recipient, permissions);\n        } else {\n            require(\n                _followersUsersPermissions[recipient] != permissions,\n                \"ERRPER\"\n            );\n            _followersUsers.add(recipient);\n            _followersUsersPermissions[recipient] = permissions;\n            emit FollowerUserPermissionSettled(recipient, permissions);\n        }\n    }\n\n    /**\n    * @notice get all users FOLLOWING or FOLLOWERS for the address.\n    * @param userType true(FOLLOWING), false(FOLLOWERS)\n    * Return the entire set in an array\n    //\n    // WARNING\tThis operation will copy the entire storage to memory,\n    // which can be quite expensive. This is designed to mostly be used by view\n    // accessors that are queried without any gas fees.\n    // Developers should keep in mind that this function\n    // has an unbounded cost, and using it as part of a state-changing\n    // function may render the function uncallable if the set grows to a\n    // point where copying to memory consumes too much gas to fit in a block.\n    */\n    function getAllUsers(UserType userType)\n        public\n        view\n        checkActive\n        returns (address[] memory)\n    {\n        require(hasRole(OWNER_ROLE, _msgSender()), \"UNAUTH\");\n        return\n            userType == UserType.FOLLOWING\n                ? _followingUsers.values()\n                : _followersUsers.values();\n    }\n\n    /**\n     * @notice Remove follower.\n     * @param user foolowe user to be removed\n     * @param userType FOLLOWING), FOLLOWERS)\n     * the user can remove itself\n     */\n    function removeUsers(address user, UserType userType)\n        public\n        checkActive\n        onlyFollowingOrFollowerUsers(user, userType)\n    {\n        require(hasRole(OWNER_ROLE, _msgSender()), \"UNAUTH\");\n        if (userType == UserType.FOLLOWING) {\n            _followingUsers.remove(user);\n            _followingUsersPermissions[user] = 0;\n            emit FollowinUserPermissionSettled(user, 0);\n        } else {\n            _followersUsers.remove(user);\n            _followersUsersPermissions[user] = 0;\n            emit FollowerUserPermissionSettled(user, 0);\n        }\n    }\n\n    /**\n     * @notice get open reading services pool\n     */\n    function getUserPermissions(address user, UserType userType)\n        public\n        view\n        checkActive\n        returns (uint256)\n    {\n        if (userType == UserType.FOLLOWING)\n            return _followingUsersPermissions[user];\n        else return _followersUsersPermissions[user];\n    }\n\n    /**\n     * @notice self Remove viewer. If user dont want to follow the current user,\n     * the user can remove itself\n     */\n    function followerUserSelfRemove()\n        public\n        checkActive\n        onlyFollowingOrFollowerUsers(_msgSender(), UserType.FOLLOWER)\n    {\n        _followersUsers.remove(_msgSender());\n        _followersUsersPermissions[_msgSender()] = 0;\n        emit FollowerUserPermissionSettled(_msgSender(), 0);\n    }\n\n    /**\n     * @notice follower User Get Own Permissions\n     */\n    function followerUserGetOwnPermissions()\n        public\n        view\n        checkActive\n        onlyFollowingOrFollowerUsers(_msgSender(), UserType.FOLLOWER)\n        returns (uint256)\n    {\n        return _followersUsersPermissions[_msgSender()];\n    }\n\n    /**\n     * @notice set open reading services pool\n     * @param openReadingPool open Reading Status\n     */\n    function setOpenReadingServicePool(uint256 openReadingPool)\n        public\n        checkActive\n    {\n        require(hasRole(OWNER_ROLE, _msgSender()), \"UNAUTH\");\n        _openReadingPool = openReadingPool;\n    }\n\n    /**\n     * @notice get open reading services pool\n     */\n    function getOpenReadingServicePool()\n        public\n        view\n        checkActive\n        returns (uint256)\n    {\n        return _openReadingPool;\n    }\n\n    /**\n     * @notice get open reading\n     * @param serviceId service\n     * @return openReadingStatus\n     */\n    function isOpenReadingService(uint256 serviceId)\n        public\n        view\n        checkActive\n        returns (bool)\n    {\n        return LicenseTools.getBoolean(_openReadingPool, serviceId);\n    }\n\n    /**\n     * @dev get data function from viewres\n     * @param user the function follower\n     * @param follower the function follower\n     * @param serviceId the service id of the wanted hash\n     */\n    function isFollowerAllowed(\n        address user,\n        address follower,\n        uint256 serviceId\n    ) public view checkActive returns (bool) {\n        require(_owner == user, \"BADRQ\");\n        if (isOpenReadingService(serviceId)) {\n            return true;\n        } else {\n            if (!_followersUsers.contains(follower)) return false;\n            // require the viewer are allowed to get data for the required service\n            return\n                LicenseTools.getBoolean(\n                    _followersUsersPermissions[follower],\n                    serviceId\n                );\n        }\n    }\n\n    /**\n     * @notice set user nickname\n     * @param user user\n     * @param nickname nickname\n     */\n    function setUserNickname(address user, bytes32 nickname)\n        public\n        checkActive\n    {\n        require(hasRole(OWNER_ROLE, _msgSender()), \"UNAUTH\");\n        _nicknames[user] = nickname;\n    }\n\n    /**\n     * @notice get user nickname\n     * @param user user\n     */\n    function getUserNickname(address user)\n        public\n        view\n        checkActive\n        returns (bytes32)\n    {\n        require(hasRole(OWNER_ROLE, _msgSender()), \"UNAUTH\");\n        return _nicknames[user];\n    }\n}\n",
  "sourcePath": "/home/israel/Documents/cashtween/code/Cryptween-smart-contract-2/contracts/UserMonitoringCenter.sol",
  "compiler": {
    "name": "solc",
    "version": "0.8.7+commit.e28d00a7.Emscripten.clang"
  },
  "schemaVersion": "3.4.3",
  "updatedAt": "2022-10-25T15:55:01.718Z",
  "networkType": "ethereum",
  "devdoc": {
    "kind": "dev",
    "methods": {
      "getAllUsers(uint8)": {
        "params": {
          "userType": "true(FOLLOWING), false(FOLLOWERS) Return the entire set in an array // // WARNING\tThis operation will copy the entire storage to memory, // which can be quite expensive. This is designed to mostly be used by view // accessors that are queried without any gas fees. // Developers should keep in mind that this function // has an unbounded cost, and using it as part of a state-changing // function may render the function uncallable if the set grows to a // point where copying to memory consumes too much gas to fit in a block."
        }
      },
      "getRoleAdmin(bytes32)": {
        "details": "Returns the admin role that controls `role`. See {grantRole} and {revokeRole}. To change a role's admin, use {_setRoleAdmin}."
      },
      "getUserNickname(address)": {
        "params": {
          "user": "user"
        }
      },
      "grantRole(bytes32,address)": {
        "details": "Grants `role` to `account`. If `account` had not been already granted `role`, emits a {RoleGranted} event. Requirements: - the caller must have ``role``'s admin role."
      },
      "hasRole(bytes32,address)": {
        "details": "Returns `true` if `account` has been granted `role`."
      },
      "initialize(address,address,address,address,address)": {
        "params": {
          "licenseTokenAddress": "license Token Address",
          "managementCenterAddress": "manager Transaction Feed",
          "managementCenterOwnerAddress": "owner of the management center",
          "serviceManagerAddress": "service Manager Address",
          "userAddress": "user address"
        }
      },
      "isFollowerAllowed(address,address,uint256)": {
        "details": "get data function from viewres",
        "params": {
          "follower": "the function follower",
          "serviceId": "the service id of the wanted hash",
          "user": "the function follower"
        }
      },
      "isOpenReadingService(uint256)": {
        "params": {
          "serviceId": "service"
        },
        "returns": {
          "_0": "openReadingStatus"
        }
      },
      "removeUsers(address,uint8)": {
        "params": {
          "user": "foolowe user to be removed",
          "userType": "FOLLOWING), FOLLOWERS) the user can remove itself"
        }
      },
      "renounceRole(bytes32,address)": {
        "details": "Revokes `role` from the calling account. Roles are often managed via {grantRole} and {revokeRole}: this function's purpose is to provide a mechanism for accounts to lose their privileges if they are compromised (such as when a trusted device is misplaced). If the calling account had been granted `role`, emits a {RoleRevoked} event. Requirements: - the caller must be `account`."
      },
      "revokeRole(bytes32,address)": {
        "details": "Revokes `role` from `account`. If `account` had been granted `role`, emits a {RoleRevoked} event. Requirements: - the caller must have ``role``'s admin role."
      },
      "setActivity(bool)": {
        "details": "function is created in case of management center replacement",
        "params": {
          "isActive": "isActive variable"
        }
      },
      "setOpenReadingServicePool(uint256)": {
        "params": {
          "openReadingPool": "open Reading Status"
        }
      },
      "setUserNickname(address,bytes32)": {
        "params": {
          "nickname": "nickname",
          "user": "user"
        }
      },
      "setUserPermissions(address,uint256,uint256,uint8,bool,bytes)": {
        "params": {
          "nonce": "nonce",
          "permissions": "permissions added with",
          "recipient": "added address",
          "signature": "signature",
          "userType": "FOLLOWING, FOLLOWERS"
        }
      },
      "setUserPermissionsAndNickname(address,uint256,uint256,uint8,bytes32,bool,bytes)": {
        "params": {
          "nickname": "nickname",
          "nonce": "nonce",
          "permissions": "permissions added with",
          "recipient": "added address",
          "signature": "signature",
          "userType": "FOLLOWING, FOLLOWERS"
        }
      },
      "supportsInterface(bytes4)": {
        "details": "See {IERC165-supportsInterface}."
      },
      "transferManagement(address)": {
        "details": "function is created in case of management center replacement",
        "params": {
          "newManagementCenterAddress": "manager Transaction Feed"
        }
      }
    },
    "version": 1
  },
  "userdoc": {
    "kind": "user",
    "methods": {
      "followerUserGetOwnPermissions()": {
        "notice": "follower User Get Own Permissions"
      },
      "followerUserSelfRemove()": {
        "notice": "self Remove viewer. If user dont want to follow the current user, the user can remove itself"
      },
      "getAllUsers(uint8)": {
        "notice": "get all users FOLLOWING or FOLLOWERS for the address."
      },
      "getOpenReadingServicePool()": {
        "notice": "get open reading services pool"
      },
      "getUserNickname(address)": {
        "notice": "get user nickname"
      },
      "getUserPermissions(address,uint8)": {
        "notice": "get open reading services pool"
      },
      "initialize(address,address,address,address,address)": {
        "notice": "initialize function"
      },
      "isOpenReadingService(uint256)": {
        "notice": "get open reading"
      },
      "removeUsers(address,uint8)": {
        "notice": "Remove follower."
      },
      "setActivity(bool)": {
        "notice": "change manager"
      },
      "setOpenReadingServicePool(uint256)": {
        "notice": "set open reading services pool"
      },
      "setUserNickname(address,bytes32)": {
        "notice": "set user nickname"
      },
      "setUserPermissions(address,uint256,uint256,uint8,bool,bytes)": {
        "notice": "Set user permissions for an address"
      },
      "setUserPermissionsAndNickname(address,uint256,uint256,uint8,bytes32,bool,bytes)": {
        "notice": "Set user permissions for an address"
      },
      "transferManagement(address)": {
        "notice": "change manager"
      }
    },
    "version": 1
  }
}