{
  "contractName": "VerifySignature",
  "abi": [
    {
      "inputs": [
        {
          "internalType": "bytes32",
          "name": "_messageHash",
          "type": "bytes32"
        }
      ],
      "name": "getEthSignedMessageHash",
      "outputs": [
        {
          "internalType": "bytes32",
          "name": "",
          "type": "bytes32"
        }
      ],
      "stateMutability": "pure",
      "type": "function",
      "constant": true
    },
    {
      "inputs": [
        {
          "internalType": "address",
          "name": "signer",
          "type": "address"
        },
        {
          "internalType": "address",
          "name": "contractAddress",
          "type": "address"
        },
        {
          "internalType": "uint256",
          "name": "nonce",
          "type": "uint256"
        },
        {
          "internalType": "bytes32",
          "name": "message",
          "type": "bytes32"
        },
        {
          "internalType": "bytes",
          "name": "signature",
          "type": "bytes"
        }
      ],
      "name": "verifyRegistration",
      "outputs": [
        {
          "internalType": "bool",
          "name": "",
          "type": "bool"
        }
      ],
      "stateMutability": "pure",
      "type": "function",
      "constant": true
    },
    {
      "inputs": [
        {
          "internalType": "address",
          "name": "signer",
          "type": "address"
        },
        {
          "internalType": "address",
          "name": "recipient",
          "type": "address"
        },
        {
          "internalType": "uint256",
          "name": "nonce",
          "type": "uint256"
        },
        {
          "internalType": "uint256",
          "name": "userType",
          "type": "uint256"
        },
        {
          "internalType": "bytes",
          "name": "signature",
          "type": "bytes"
        }
      ],
      "name": "verifyPermissionRequest",
      "outputs": [
        {
          "internalType": "bool",
          "name": "",
          "type": "bool"
        }
      ],
      "stateMutability": "pure",
      "type": "function",
      "constant": true
    },
    {
      "inputs": [
        {
          "internalType": "bytes32",
          "name": "_ethSignedMessageHash",
          "type": "bytes32"
        },
        {
          "internalType": "bytes",
          "name": "_signature",
          "type": "bytes"
        }
      ],
      "name": "recoverSigner",
      "outputs": [
        {
          "internalType": "address",
          "name": "",
          "type": "address"
        }
      ],
      "stateMutability": "pure",
      "type": "function",
      "constant": true
    },
    {
      "inputs": [
        {
          "internalType": "bytes",
          "name": "sig",
          "type": "bytes"
        }
      ],
      "name": "splitSignature",
      "outputs": [
        {
          "internalType": "bytes32",
          "name": "r",
          "type": "bytes32"
        },
        {
          "internalType": "bytes32",
          "name": "s",
          "type": "bytes32"
        },
        {
          "internalType": "uint8",
          "name": "v",
          "type": "uint8"
        }
      ],
      "stateMutability": "pure",
      "type": "function",
      "constant": true
    }
  ],
  "bytecode": "0x610c6f610053600b82828239805160001a607314610046577f4e487b7100000000000000000000000000000000000000000000000000000000600052600060045260246000fd5b30600052607381538281f3fe73000000000000000000000000000000000000000030146080604052600436106100615760003560e01c80633017533f1461006657806365ac0b7e1461009657806397aba7f9146100c6578063a7bb5803146100f6578063fa54080114610128575b600080fd5b610080600480360381019061007b9190610492565b610158565b60405161008d9190610877565b60405180910390f35b6100b060048036038101906100ab9190610529565b6101e2565b6040516100bd9190610877565b60405180910390f35b6100e060048036038101906100db91906105ed565b61026c565b6040516100ed919061085c565b60405180910390f35b610110600480360381019061010b9190610649565b61032f565b60405161011f939291906108ad565b60405180910390f35b610142600480360381019061013d91906105c0565b6103b3565b60405161014f9190610892565b60405180910390f35b60008085858589604051602001610172949392919061079a565b6040516020818303038152906040528051906020012090506000610195826103b3565b905060006101a3828661026c565b90508873ffffffffffffffffffffffffffffffffffffffff168173ffffffffffffffffffffffffffffffffffffffff1614935050505095945050505050565b600080848787866040516020016101fc949392919061080e565b604051602081830303815290604052805190602001209050600061021f826103b3565b9050600061022d828661026c565b90508873ffffffffffffffffffffffffffffffffffffffff168173ffffffffffffffffffffffffffffffffffffffff1614935050505095945050505050565b60008060008061027b8561032f565b925092509250601b8160ff1614806102965750601c8160ff16145b6102d5576040517f08c379a00000000000000000000000000000000000000000000000000000000081526004016102cc90610929565b60405180910390fd5b600186828585604051600081526020016040526040516102f894939291906108e4565b6020604051602081039080840390855afa15801561031a573d6000803e3d6000fd5b50505060206040510351935050505092915050565b60008060006041845114610378576040517f08c379a000000000000000000000000000000000000000000000000000000000815260040161036f90610949565b60405180910390fd5b6020840151925060408401519150606084015160001a9050601b8160ff1610156103ac57601b816103a991906109db565b90505b9193909250565b6000816040516020016103c691906107e8565b604051602081830303815290604052805190602001209050919050565b60006103f66103f18461098e565b610969565b90508281526020810184848401111561041257610411610b4c565b5b61041d848285610a71565b509392505050565b60008135905061043481610bf4565b92915050565b60008135905061044981610c0b565b92915050565b600082601f83011261046457610463610b47565b5b81356104748482602086016103e3565b91505092915050565b60008135905061048c81610c22565b92915050565b600080600080600060a086880312156104ae576104ad610b56565b5b60006104bc88828901610425565b95505060206104cd88828901610425565b94505060406104de8882890161047d565b93505060606104ef8882890161043a565b925050608086013567ffffffffffffffff8111156105105761050f610b51565b5b61051c8882890161044f565b9150509295509295909350565b600080600080600060a0868803121561054557610544610b56565b5b600061055388828901610425565b955050602061056488828901610425565b94505060406105758882890161047d565b93505060606105868882890161047d565b925050608086013567ffffffffffffffff8111156105a7576105a6610b51565b5b6105b38882890161044f565b9150509295509295909350565b6000602082840312156105d6576105d5610b56565b5b60006105e48482850161043a565b91505092915050565b6000806040838503121561060457610603610b56565b5b60006106128582860161043a565b925050602083013567ffffffffffffffff81111561063357610632610b51565b5b61063f8582860161044f565b9150509250929050565b60006020828403121561065f5761065e610b56565b5b600082013567ffffffffffffffff81111561067d5761067c610b51565b5b6106898482850161044f565b91505092915050565b61069b81610a12565b82525050565b6106b26106ad82610a12565b610ab1565b82525050565b6106c181610a24565b82525050565b6106d081610a30565b82525050565b6106df81610a30565b82525050565b6106f66106f182610a30565b610ac3565b82525050565b6000610709601c836109d0565b915061071482610b79565b601c82019050919050565b600061072c600f836109bf565b915061073782610ba2565b602082019050919050565b600061074f6018836109bf565b915061075a82610bcb565b602082019050919050565b61077661077182610a5a565b610adf565b82525050565b61078581610a64565b82525050565b61079481610a64565b82525050565b60006107a682876106a1565b6014820191506107b68286610765565b6020820191506107c682856106e5565b6020820191506107d682846106a1565b60148201915081905095945050505050565b60006107f3826106fc565b91506107ff82846106e5565b60208201915081905092915050565b600061081a8287610765565b60208201915061082a82866106a1565b60148201915061083a82856106a1565b60148201915061084a8284610765565b60208201915081905095945050505050565b60006020820190506108716000830184610692565b92915050565b600060208201905061088c60008301846106b8565b92915050565b60006020820190506108a760008301846106d6565b92915050565b60006060820190506108c260008301866106d6565b6108cf60208301856106d6565b6108dc604083018461078b565b949350505050565b60006080820190506108f960008301876106c7565b610906602083018661077c565b61091360408301856106c7565b61092060608301846106c7565b95945050505050565b600060208201905081810360008301526109428161071f565b9050919050565b6000602082019050818103600083015261096281610742565b9050919050565b6000610973610984565b905061097f8282610a80565b919050565b6000604051905090565b600067ffffffffffffffff8211156109a9576109a8610b18565b5b6109b282610b5b565b9050602081019050919050565b600082825260208201905092915050565b600081905092915050565b60006109e682610a64565b91506109f183610a64565b92508260ff03821115610a0757610a06610ae9565b5b828201905092915050565b6000610a1d82610a3a565b9050919050565b60008115159050919050565b6000819050919050565b600073ffffffffffffffffffffffffffffffffffffffff82169050919050565b6000819050919050565b600060ff82169050919050565b82818337600083830152505050565b610a8982610b5b565b810181811067ffffffffffffffff82111715610aa857610aa7610b18565b5b80604052505050565b6000610abc82610acd565b9050919050565b6000819050919050565b6000610ad882610b6c565b9050919050565b6000819050919050565b7f4e487b7100000000000000000000000000000000000000000000000000000000600052601160045260246000fd5b7f4e487b7100000000000000000000000000000000000000000000000000000000600052604160045260246000fd5b600080fd5b600080fd5b600080fd5b600080fd5b6000601f19601f8301169050919050565b60008160601b9050919050565b7f19457468657265756d205369676e6564204d6573736167653a0a333200000000600082015250565b7f57726f6e67205369676e61747572650000000000000000000000000000000000600082015250565b7f696e76616c6964207369676e6174757265206c656e6774680000000000000000600082015250565b610bfd81610a12565b8114610c0857600080fd5b50565b610c1481610a30565b8114610c1f57600080fd5b50565b610c2b81610a5a565b8114610c3657600080fd5b5056fea2646970667358221220766ca27b9f724d7c3e59d5a951fcad1fe69c7f09a5e1208a4790f808c5f6f49664736f6c63430008070033",
  "immutableReferences": {},
  "source": "// SPDX-License-Identifier: MIT\r\npragma solidity ^0.8.3;\r\n\r\n/* Signature Verification\r\n\r\nHow to Sign and Verify\r\n# Signing\r\n1. Create message to sign\r\n2. Hash the message\r\n3. Sign the hash (off chain, keep your private key secret)\r\n\r\n# Verify\r\n1. Recreate hash from the original message\r\n2. Recover signer from signature and hash\r\n3. Compare recovered signer to claimed signer\r\n*/\r\n\r\nlibrary VerifySignature {\r\n    /* 1. Unlock MetaMask account\r\n    ethereum.enable()\r\n    */\r\n\r\n    /* 2. Get message hash to sign\r\n    getMessageHash(\r\n        0x14723A09ACff6D2A60DcdF7aA4AFf308FDDC160C,\r\n        123,\r\n        \"coffee and donuts\",\r\n        1\r\n    )\r\n    hash = \"0xcf36ac4f97dc10d91fc2cbb20d718e94a8cbfe0f82eaedc6a4aa38946fb797cd\"\r\n    */\r\n\r\n    /******************************\r\n        EVENTS\r\n    ******************************/\r\n\r\n    /* 3. Sign message hash\r\n    # using browser\r\n    account = \"copy paste account of signer here\"\r\n    ethereum.request({ method: \"personal_sign\", params: [account, hash]}).then(console.log)\r\n\r\n    # using web3\r\n    web3.personal.sign(hash, web3.eth.defaultAccount, console.log)\r\n\r\n    Signature will be different for different accounts\r\n    0x993dab3dd91f5c6dc28e17439be475478f5635c92a56e17e82349d3fb2f166196f466c0b4e0c146f285204f0dcb13e5ae67bc33f4b888ec32dfe0a063e8f3f781b\r\n    */\r\n    function getEthSignedMessageHash(bytes32 _messageHash)\r\n        public\r\n        pure\r\n        returns (bytes32)\r\n    {\r\n        /*\r\n        Signature is produced by signing a keccak256 hash with the following format:\r\n        \"\\x19Ethereum Signed Message\\n\" + len(msg) + msg\r\n        */\r\n        return\r\n            keccak256(\r\n                abi.encodePacked(\r\n                    \"\\x19Ethereum Signed Message:\\n32\",\r\n                    _messageHash\r\n                )\r\n            );\r\n    }\r\n\r\n    /* 4. Verify Registration\r\n    signer = 0xB273216C05A8c0D4F0a4Dd0d7Bae1D2EfFE636dd\r\n    contract = 0x14723A09ACff6D2A60DcdF7aA4AFf308FDDC160C\r\n    message = \"register\"\r\n    nonce = Date.now()\r\n    signature =\r\n        0x993dab3dd91f5c6dc28e17439be475478f5635c92a56e17e82349d3fb2f166196f466c0b4e0c146f285204f0dcb13e5ae67bc33f4b888ec32dfe0a063e8f3f781b\r\n    */\r\n\r\n    function verifyRegistration(\r\n        address signer,\r\n        address contractAddress,\r\n        uint256 nonce,\r\n        bytes32 message,\r\n        bytes memory signature\r\n    ) public pure returns (bool) {\r\n        bytes32 messageHash = keccak256(abi.encodePacked(contractAddress, nonce, message, signer));\r\n        bytes32 ethSignedMessageHash = getEthSignedMessageHash(messageHash);\r\n        address sigAddress = recoverSigner(ethSignedMessageHash, signature);\r\n        return sigAddress == signer;\r\n    }    \r\n\r\n   \r\n    function verifyPermissionRequest(\r\n        address signer,\r\n        address recipient,\r\n        uint256 nonce,\r\n        uint256 userType,\r\n        bytes memory signature\r\n    ) public pure returns (bool) {\r\n        bytes32 messageHash = keccak256(abi.encodePacked(nonce, signer, recipient, userType));\r\n        bytes32 ethSignedMessageHash = getEthSignedMessageHash(messageHash);\r\n        address sigAddress = recoverSigner(ethSignedMessageHash, signature);\r\n        return sigAddress == signer;\r\n    }    \r\n\r\n    function recoverSigner(\r\n        bytes32 _ethSignedMessageHash,\r\n        bytes memory _signature\r\n    ) public pure returns (address) {\r\n        (bytes32 r, bytes32 s, uint8 v) = splitSignature(_signature);\r\n        require(v == 27 || v == 28, 'Wrong Signature');\r\n\r\n        return ecrecover(_ethSignedMessageHash, v, r, s);\r\n    }\r\n\r\n    function splitSignature(bytes memory sig)\r\n        public\r\n        pure\r\n        returns (\r\n            bytes32 r,\r\n            bytes32 s,\r\n            uint8 v\r\n        )\r\n    {\r\n        require(sig.length == 65, \"invalid signature length\");\r\n\r\n        assembly {\r\n            /*\r\n            First 32 bytes stores the length of the signature\r\n\r\n            add(sig, 32) = pointer of sig + 32\r\n            effectively, skips first 32 bytes of signature\r\n\r\n            mload(p) loads next 32 bytes starting at the memory address p into memory\r\n            */\r\n\r\n            // first 32 bytes, after the length prefix\r\n            r := mload(add(sig, 32))\r\n            // second 32 bytes\r\n            s := mload(add(sig, 64))\r\n            // final byte (first byte of the next 32 bytes)\r\n            v := byte(0, mload(add(sig, 96)))\r\n        }\r\n        if (v < 27) v += 27;\r\n        // implicitly return (r, s, v)\r\n    }\r\n}\r\n",
  "sourcePath": "C:\\Users\\israel\\Documents\\codes\\dev\\cryptween\\smart-contract-2\\contracts\\VerifySignature.sol",
  "compiler": {
    "name": "solc",
    "version": "0.8.7+commit.e28d00a7.Emscripten.clang"
  },
  "schemaVersion": "3.4.3",
  "updatedAt": "2023-04-07T14:00:17.138Z",
  "networkType": "ethereum",
  "devdoc": {
    "kind": "dev",
    "methods": {},
    "version": 1
  },
  "userdoc": {
    "kind": "user",
    "methods": {},
    "version": 1
  }
}