{
  "contractName": "BlockchainManager",
  "abi": [
    {
      "inputs": [],
      "stateMutability": "nonpayable",
      "type": "constructor"
    },
    {
      "anonymous": false,
      "inputs": [
        {
          "indexed": true,
          "internalType": "address",
          "name": "previousOwner",
          "type": "address"
        },
        {
          "indexed": true,
          "internalType": "address",
          "name": "newOwner",
          "type": "address"
        }
      ],
      "name": "OwnershipTransferred",
      "type": "event"
    },
    {
      "anonymous": false,
      "inputs": [
        {
          "indexed": true,
          "internalType": "bytes32",
          "name": "role",
          "type": "bytes32"
        },
        {
          "indexed": true,
          "internalType": "bytes32",
          "name": "previousAdminRole",
          "type": "bytes32"
        },
        {
          "indexed": true,
          "internalType": "bytes32",
          "name": "newAdminRole",
          "type": "bytes32"
        }
      ],
      "name": "RoleAdminChanged",
      "type": "event"
    },
    {
      "anonymous": false,
      "inputs": [
        {
          "indexed": true,
          "internalType": "bytes32",
          "name": "role",
          "type": "bytes32"
        },
        {
          "indexed": true,
          "internalType": "address",
          "name": "account",
          "type": "address"
        },
        {
          "indexed": true,
          "internalType": "address",
          "name": "sender",
          "type": "address"
        }
      ],
      "name": "RoleGranted",
      "type": "event"
    },
    {
      "anonymous": false,
      "inputs": [
        {
          "indexed": true,
          "internalType": "bytes32",
          "name": "role",
          "type": "bytes32"
        },
        {
          "indexed": true,
          "internalType": "address",
          "name": "account",
          "type": "address"
        },
        {
          "indexed": true,
          "internalType": "address",
          "name": "sender",
          "type": "address"
        }
      ],
      "name": "RoleRevoked",
      "type": "event"
    },
    {
      "anonymous": false,
      "inputs": [
        {
          "indexed": false,
          "internalType": "uint256",
          "name": "id",
          "type": "uint256"
        }
      ],
      "name": "blockchainAdded",
      "type": "event"
    },
    {
      "anonymous": false,
      "inputs": [
        {
          "indexed": false,
          "internalType": "uint256",
          "name": "id",
          "type": "uint256"
        }
      ],
      "name": "blockchainRemoved",
      "type": "event"
    },
    {
      "inputs": [],
      "name": "BLOCKCHAIN_MANAGER_ROLE",
      "outputs": [
        {
          "internalType": "bytes32",
          "name": "",
          "type": "bytes32"
        }
      ],
      "stateMutability": "view",
      "type": "function",
      "constant": true
    },
    {
      "inputs": [],
      "name": "DEFAULT_ADMIN_ROLE",
      "outputs": [
        {
          "internalType": "bytes32",
          "name": "",
          "type": "bytes32"
        }
      ],
      "stateMutability": "view",
      "type": "function",
      "constant": true
    },
    {
      "inputs": [
        {
          "internalType": "bytes32",
          "name": "role",
          "type": "bytes32"
        }
      ],
      "name": "getRoleAdmin",
      "outputs": [
        {
          "internalType": "bytes32",
          "name": "",
          "type": "bytes32"
        }
      ],
      "stateMutability": "view",
      "type": "function",
      "constant": true
    },
    {
      "inputs": [
        {
          "internalType": "bytes32",
          "name": "role",
          "type": "bytes32"
        },
        {
          "internalType": "uint256",
          "name": "index",
          "type": "uint256"
        }
      ],
      "name": "getRoleMember",
      "outputs": [
        {
          "internalType": "address",
          "name": "",
          "type": "address"
        }
      ],
      "stateMutability": "view",
      "type": "function",
      "constant": true
    },
    {
      "inputs": [
        {
          "internalType": "bytes32",
          "name": "role",
          "type": "bytes32"
        }
      ],
      "name": "getRoleMemberCount",
      "outputs": [
        {
          "internalType": "uint256",
          "name": "",
          "type": "uint256"
        }
      ],
      "stateMutability": "view",
      "type": "function",
      "constant": true
    },
    {
      "inputs": [
        {
          "internalType": "bytes32",
          "name": "role",
          "type": "bytes32"
        },
        {
          "internalType": "address",
          "name": "account",
          "type": "address"
        }
      ],
      "name": "grantRole",
      "outputs": [],
      "stateMutability": "nonpayable",
      "type": "function"
    },
    {
      "inputs": [
        {
          "internalType": "bytes32",
          "name": "role",
          "type": "bytes32"
        },
        {
          "internalType": "address",
          "name": "account",
          "type": "address"
        }
      ],
      "name": "hasRole",
      "outputs": [
        {
          "internalType": "bool",
          "name": "",
          "type": "bool"
        }
      ],
      "stateMutability": "view",
      "type": "function",
      "constant": true
    },
    {
      "inputs": [],
      "name": "owner",
      "outputs": [
        {
          "internalType": "address",
          "name": "",
          "type": "address"
        }
      ],
      "stateMutability": "view",
      "type": "function",
      "constant": true
    },
    {
      "inputs": [],
      "name": "renounceOwnership",
      "outputs": [],
      "stateMutability": "nonpayable",
      "type": "function"
    },
    {
      "inputs": [
        {
          "internalType": "bytes32",
          "name": "role",
          "type": "bytes32"
        },
        {
          "internalType": "address",
          "name": "account",
          "type": "address"
        }
      ],
      "name": "renounceRole",
      "outputs": [],
      "stateMutability": "nonpayable",
      "type": "function"
    },
    {
      "inputs": [
        {
          "internalType": "bytes32",
          "name": "role",
          "type": "bytes32"
        },
        {
          "internalType": "address",
          "name": "account",
          "type": "address"
        }
      ],
      "name": "revokeRole",
      "outputs": [],
      "stateMutability": "nonpayable",
      "type": "function"
    },
    {
      "inputs": [
        {
          "internalType": "bytes4",
          "name": "interfaceId",
          "type": "bytes4"
        }
      ],
      "name": "supportsInterface",
      "outputs": [
        {
          "internalType": "bool",
          "name": "",
          "type": "bool"
        }
      ],
      "stateMutability": "view",
      "type": "function",
      "constant": true
    },
    {
      "inputs": [
        {
          "internalType": "address",
          "name": "newOwner",
          "type": "address"
        }
      ],
      "name": "transferOwnership",
      "outputs": [],
      "stateMutability": "nonpayable",
      "type": "function"
    },
    {
      "inputs": [
        {
          "internalType": "uint256",
          "name": "blockchainId",
          "type": "uint256"
        },
        {
          "internalType": "bytes32",
          "name": "name",
          "type": "bytes32"
        }
      ],
      "name": "registerBlockchain",
      "outputs": [],
      "stateMutability": "nonpayable",
      "type": "function"
    },
    {
      "inputs": [
        {
          "internalType": "uint256",
          "name": "blockchainId",
          "type": "uint256"
        }
      ],
      "name": "removeBlockchain",
      "outputs": [],
      "stateMutability": "nonpayable",
      "type": "function"
    },
    {
      "inputs": [],
      "name": "getAllBlockchainIds",
      "outputs": [
        {
          "internalType": "uint256[]",
          "name": "",
          "type": "uint256[]"
        }
      ],
      "stateMutability": "view",
      "type": "function",
      "constant": true
    },
    {
      "inputs": [
        {
          "internalType": "uint256",
          "name": "id",
          "type": "uint256"
        }
      ],
      "name": "getBlockchain",
      "outputs": [
        {
          "components": [
            {
              "internalType": "uint256",
              "name": "blockchainId",
              "type": "uint256"
            },
            {
              "internalType": "bytes32",
              "name": "name",
              "type": "bytes32"
            }
          ],
          "internalType": "struct BlockchainInfo",
          "name": "",
          "type": "tuple"
        }
      ],
      "stateMutability": "view",
      "type": "function",
      "constant": true
    },
    {
      "inputs": [
        {
          "internalType": "uint256",
          "name": "id",
          "type": "uint256"
        }
      ],
      "name": "existBlockchain",
      "outputs": [
        {
          "internalType": "bool",
          "name": "",
          "type": "bool"
        }
      ],
      "stateMutability": "view",
      "type": "function",
      "constant": true
    }
  ],
  "bytecode": "0x60806040523480156200001157600080fd5b5062000032620000266200009d60201b60201c565b620000a560201b60201c565b620000566000801b6200004a6200009d60201b60201c565b6200016960201b60201c565b620000977fe6942e54af0b80aaf367c0a79cb00c2be22d30a043b443743d05dde2d69b7bbf6200008b6200009d60201b60201c565b6200016960201b60201c565b620003f8565b600033905090565b60008060009054906101000a900473ffffffffffffffffffffffffffffffffffffffff169050816000806101000a81548173ffffffffffffffffffffffffffffffffffffffff021916908373ffffffffffffffffffffffffffffffffffffffff1602179055508173ffffffffffffffffffffffffffffffffffffffff168173ffffffffffffffffffffffffffffffffffffffff167f8be0079c531659141344cd1fd0a4f28419497f9722a3daafe3b4186f6b6457e060405160405180910390a35050565b6200017b82826200017f60201b60201c565b5050565b620001968282620001c760201b62000a1e1760201c565b620001c28160026000858152602001908152602001600020620002b860201b62000afe1790919060201c565b505050565b620001d98282620002f060201b60201c565b620002b457600180600084815260200190815260200160002060000160008373ffffffffffffffffffffffffffffffffffffffff1673ffffffffffffffffffffffffffffffffffffffff16815260200190815260200160002060006101000a81548160ff021916908315150217905550620002596200009d60201b60201c565b73ffffffffffffffffffffffffffffffffffffffff168173ffffffffffffffffffffffffffffffffffffffff16837f2f8788117e7eff1d82e926ec794901d17c78024a50270940304540a733656f0d60405160405180910390a45b5050565b6000620002e8836000018373ffffffffffffffffffffffffffffffffffffffff1660001b6200035b60201b60201c565b905092915050565b60006001600084815260200190815260200160002060000160008373ffffffffffffffffffffffffffffffffffffffff1673ffffffffffffffffffffffffffffffffffffffff16815260200190815260200160002060009054906101000a900460ff16905092915050565b60006200036f8383620003d560201b60201c565b620003ca578260000182908060018154018082558091505060019003906000526020600020016000909190919091505582600001805490508360010160008481526020019081526020016000208190555060019050620003cf565b600090505b92915050565b600080836001016000848152602001908152602001600020541415905092915050565b6120f580620004086000396000f3fe608060405234801561001057600080fd5b50600436106101165760003560e01c8063880e6517116100a2578063a10a72a011610071578063a10a72a0146102f1578063a217fddf1461030f578063ca15c8731461032d578063d547741f1461035d578063f2fde38b1461037957610116565b8063880e6517146102435780638da5cb5b146102735780639010d07c1461029157806391d14854146102c157610116565b80632f2ff15d116100e95780632f2ff15d146101c757806336568abe146101e35780634535a754146101ff5780634af8a2041461021b578063715018a61461023957610116565b806301ffc9a71461011b57806322c5957f1461014b578063248a9ca31461017b5780632889d2c1146101ab575b600080fd5b61013560048036038101906101309190611600565b610395565b60405161014291906119d8565b60405180910390f35b6101656004803603810190610160919061162d565b61040f565b6040516101729190611b30565b60405180910390f35b61019560048036038101906101909190611553565b6104a5565b6040516101a291906119f3565b60405180910390f35b6101c560048036038101906101c0919061165a565b6104c5565b005b6101e160048036038101906101dc9190611580565b610647565b005b6101fd60048036038101906101f89190611580565b610668565b005b6102196004803603810190610214919061162d565b6106eb565b005b610223610825565b60405161023091906119f3565b60405180910390f35b610241610849565b005b61025d6004803603810190610258919061162d565b61085d565b60405161026a91906119d8565b60405180910390f35b61027b61087a565b604051610288919061199b565b60405180910390f35b6102ab60048036038101906102a691906115c0565b6108a3565b6040516102b8919061199b565b60405180910390f35b6102db60048036038101906102d69190611580565b6108d2565b6040516102e891906119d8565b60405180910390f35b6102f961093d565b60405161030691906119b6565b60405180910390f35b61031761094e565b60405161032491906119f3565b60405180910390f35b61034760048036038101906103429190611553565b610955565b6040516103549190611b4b565b60405180910390f35b61037760048036038101906103729190611580565b610979565b005b610393600480360381019061038e9190611526565b61099a565b005b60007f5a05180f000000000000000000000000000000000000000000000000000000007bffffffffffffffffffffffffffffffffffffffffffffffffffffffff1916827bffffffffffffffffffffffffffffffffffffffffffffffffffffffff19161480610408575061040782610b2e565b5b9050919050565b6104176114b5565b8161042c816004610ba890919063ffffffff16565b61046b576040517f08c379a000000000000000000000000000000000000000000000000000000000815260040161046290611a90565b60405180910390fd5b6003600084815260200190815260200160002060405180604001604052908160008201548152602001600182015481525050915050919050565b600060016000838152602001908152602001600020600101549050919050565b6104f67fe6942e54af0b80aaf367c0a79cb00c2be22d30a043b443743d05dde2d69b7bbf6104f1610bc2565b6108d2565b610535576040517f08c379a000000000000000000000000000000000000000000000000000000000815260040161052c90611a50565b60405180910390fd5b60ff821115610579576040517f08c379a000000000000000000000000000000000000000000000000000000000815260040161057090611af0565b60405180910390fd5b61058d826004610ba890919063ffffffff16565b156105cd576040517f08c379a00000000000000000000000000000000000000000000000000000000081526004016105c490611ab0565b60405180910390fd5b6105e1826004610bca90919063ffffffff16565b5060006003600084815260200190815260200160002090508281600001819055508181600101819055507f9482bc32be4facdbb5d39923fab85e87dfb115c82b70bd3b4bad0479ba57b09f8360405161063a9190611b4b565b60405180910390a1505050565b610650826104a5565b61065981610be4565b6106638383610bf8565b505050565b610670610bc2565b73ffffffffffffffffffffffffffffffffffffffff168173ffffffffffffffffffffffffffffffffffffffff16146106dd576040517f08c379a00000000000000000000000000000000000000000000000000000000081526004016106d490611b10565b60405180910390fd5b6106e78282610c2c565b5050565b61071c7fe6942e54af0b80aaf367c0a79cb00c2be22d30a043b443743d05dde2d69b7bbf610717610bc2565b6108d2565b61075b576040517f08c379a000000000000000000000000000000000000000000000000000000000815260040161075290611a50565b60405180910390fd5b80610770816004610ba890919063ffffffff16565b6107af576040517f08c379a00000000000000000000000000000000000000000000000000000000081526004016107a690611a90565b60405180910390fd5b6107c3826004610c6090919063ffffffff16565b5060036000838152602001908152602001600020600080820160009055600182016000905550507fb9737dac0ebc0b0a21a5af404813f412380127d653847e262224ef792b4098fe826040516108199190611b4b565b60405180910390a15050565b7fe6942e54af0b80aaf367c0a79cb00c2be22d30a043b443743d05dde2d69b7bbf81565b610851610c7a565b61085b6000610cf8565b565b6000610873826004610ba890919063ffffffff16565b9050919050565b60008060009054906101000a900473ffffffffffffffffffffffffffffffffffffffff16905090565b60006108ca8260026000868152602001908152602001600020610dbc90919063ffffffff16565b905092915050565b60006001600084815260200190815260200160002060000160008373ffffffffffffffffffffffffffffffffffffffff1673ffffffffffffffffffffffffffffffffffffffff16815260200190815260200160002060009054906101000a900460ff16905092915050565b60606109496004610dd6565b905090565b6000801b81565b600061097260026000848152602001908152602001600020610df7565b9050919050565b610982826104a5565b61098b81610be4565b6109958383610c2c565b505050565b6109a2610c7a565b600073ffffffffffffffffffffffffffffffffffffffff168173ffffffffffffffffffffffffffffffffffffffff161415610a12576040517f08c379a0000000000000000000000000000000000000000000000000000000008152600401610a0990611a70565b60405180910390fd5b610a1b81610cf8565b50565b610a2882826108d2565b610afa57600180600084815260200190815260200160002060000160008373ffffffffffffffffffffffffffffffffffffffff1673ffffffffffffffffffffffffffffffffffffffff16815260200190815260200160002060006101000a81548160ff021916908315150217905550610a9f610bc2565b73ffffffffffffffffffffffffffffffffffffffff168173ffffffffffffffffffffffffffffffffffffffff16837f2f8788117e7eff1d82e926ec794901d17c78024a50270940304540a733656f0d60405160405180910390a45b5050565b6000610b26836000018373ffffffffffffffffffffffffffffffffffffffff1660001b610e0c565b905092915050565b60007f7965db0b000000000000000000000000000000000000000000000000000000007bffffffffffffffffffffffffffffffffffffffffffffffffffffffff1916827bffffffffffffffffffffffffffffffffffffffffffffffffffffffff19161480610ba15750610ba082610e7c565b5b9050919050565b6000610bba836000018360001b610ee6565b905092915050565b600033905090565b6000610bdc836000018360001b610e0c565b905092915050565b610bf581610bf0610bc2565b610f09565b50565b610c028282610a1e565b610c278160026000858152602001908152602001600020610afe90919063ffffffff16565b505050565b610c368282610f8e565b610c5b816002600085815260200190815260200160002061107090919063ffffffff16565b505050565b6000610c72836000018360001b6110a0565b905092915050565b610c82610bc2565b73ffffffffffffffffffffffffffffffffffffffff16610ca061087a565b73ffffffffffffffffffffffffffffffffffffffff1614610cf6576040517f08c379a0000000000000000000000000000000000000000000000000000000008152600401610ced90611ad0565b60405180910390fd5b565b60008060009054906101000a900473ffffffffffffffffffffffffffffffffffffffff169050816000806101000a81548173ffffffffffffffffffffffffffffffffffffffff021916908373ffffffffffffffffffffffffffffffffffffffff1602179055508173ffffffffffffffffffffffffffffffffffffffff168173ffffffffffffffffffffffffffffffffffffffff167f8be0079c531659141344cd1fd0a4f28419497f9722a3daafe3b4186f6b6457e060405160405180910390a35050565b6000610dcb83600001836111b4565b60001c905092915050565b60606000610de6836000016111df565b905060608190508092505050919050565b6000610e058260000161123b565b9050919050565b6000610e188383610ee6565b610e71578260000182908060018154018082558091505060019003906000526020600020016000909190919091505582600001805490508360010160008481526020019081526020016000208190555060019050610e76565b600090505b92915050565b60007f01ffc9a7000000000000000000000000000000000000000000000000000000007bffffffffffffffffffffffffffffffffffffffffffffffffffffffff1916827bffffffffffffffffffffffffffffffffffffffffffffffffffffffff1916149050919050565b600080836001016000848152602001908152602001600020541415905092915050565b610f1382826108d2565b610f8a57610f208161124c565b610f2e8360001c6020611279565b604051602001610f3f929190611961565b6040516020818303038152906040526040517f08c379a0000000000000000000000000000000000000000000000000000000008152600401610f819190611a0e565b60405180910390fd5b5050565b610f9882826108d2565b1561106c5760006001600084815260200190815260200160002060000160008373ffffffffffffffffffffffffffffffffffffffff1673ffffffffffffffffffffffffffffffffffffffff16815260200190815260200160002060006101000a81548160ff021916908315150217905550611011610bc2565b73ffffffffffffffffffffffffffffffffffffffff168173ffffffffffffffffffffffffffffffffffffffff16837ff6391f5c32d9c69d2a47ea670b442974b53935d1edc7fd64eb21e047a839171b60405160405180910390a45b5050565b6000611098836000018373ffffffffffffffffffffffffffffffffffffffff1660001b6110a0565b905092915050565b600080836001016000848152602001908152602001600020549050600081146111a85760006001826110d29190611c76565b90506000600186600001805490506110ea9190611c76565b905081811461115957600086600001828154811061110b5761110a611de3565b5b906000526020600020015490508087600001848154811061112f5761112e611de3565b5b90600052602060002001819055508387600101600083815260200190815260200160002081905550505b8560000180548061116d5761116c611db4565b5b6001900381819060005260206000200160009055905585600101600086815260200190815260200160002060009055600193505050506111ae565b60009150505b92915050565b60008260000182815481106111cc576111cb611de3565b5b9060005260206000200154905092915050565b60608160000180548060200260200160405190810160405280929190818152602001828054801561122f57602002820191906000526020600020905b81548152602001906001019080831161121b575b50505050509050919050565b600081600001805490509050919050565b60606112728273ffffffffffffffffffffffffffffffffffffffff16601460ff16611279565b9050919050565b60606000600283600261128c9190611c1c565b6112969190611bc6565b67ffffffffffffffff8111156112af576112ae611e12565b5b6040519080825280601f01601f1916602001820160405280156112e15781602001600182028036833780820191505090505b5090507f30000000000000000000000000000000000000000000000000000000000000008160008151811061131957611318611de3565b5b60200101907effffffffffffffffffffffffffffffffffffffffffffffffffffffffffffff1916908160001a9053507f78000000000000000000000000000000000000000000000000000000000000008160018151811061137d5761137c611de3565b5b60200101907effffffffffffffffffffffffffffffffffffffffffffffffffffffffffffff1916908160001a905350600060018460026113bd9190611c1c565b6113c79190611bc6565b90505b6001811115611467577f3031323334353637383961626364656600000000000000000000000000000000600f86166010811061140957611408611de3565b5b1a60f81b8282815181106114205761141f611de3565b5b60200101907effffffffffffffffffffffffffffffffffffffffffffffffffffffffffffff1916908160001a905350600485901c94508061146090611d5b565b90506113ca565b50600084146114ab576040517f08c379a00000000000000000000000000000000000000000000000000000000081526004016114a290611a30565b60405180910390fd5b8091505092915050565b604051806040016040528060008152602001600080191681525090565b6000813590506114e181612063565b92915050565b6000813590506114f68161207a565b92915050565b60008135905061150b81612091565b92915050565b600081359050611520816120a8565b92915050565b60006020828403121561153c5761153b611e41565b5b600061154a848285016114d2565b91505092915050565b60006020828403121561156957611568611e41565b5b6000611577848285016114e7565b91505092915050565b6000806040838503121561159757611596611e41565b5b60006115a5858286016114e7565b92505060206115b6858286016114d2565b9150509250929050565b600080604083850312156115d7576115d6611e41565b5b60006115e5858286016114e7565b92505060206115f685828601611511565b9150509250929050565b60006020828403121561161657611615611e41565b5b6000611624848285016114fc565b91505092915050565b60006020828403121561164357611642611e41565b5b600061165184828501611511565b91505092915050565b6000806040838503121561167157611670611e41565b5b600061167f85828601611511565b9250506020611690858286016114e7565b9150509250929050565b60006116a68383611943565b60208301905092915050565b6116bb81611caa565b82525050565b60006116cc82611b76565b6116d68185611b99565b93506116e183611b66565b8060005b838110156117125781516116f9888261169a565b975061170483611b8c565b9250506001810190506116e5565b5085935050505092915050565b61172881611cbc565b82525050565b61173781611cc8565b82525050565b61174681611cc8565b82525050565b600061175782611b81565b6117618185611baa565b9350611771818560208601611d28565b61177a81611e46565b840191505092915050565b600061179082611b81565b61179a8185611bbb565b93506117aa818560208601611d28565b80840191505092915050565b60006117c3602083611baa565b91506117ce82611e57565b602082019050919050565b60006117e6602d83611baa565b91506117f182611e80565b604082019050919050565b6000611809602683611baa565b915061181482611ecf565b604082019050919050565b600061182c600783611baa565b915061183782611f1e565b602082019050919050565b600061184f600383611baa565b915061185a82611f47565b602082019050919050565b6000611872602083611baa565b915061187d82611f70565b602082019050919050565b6000611895600583611baa565b91506118a082611f99565b602082019050919050565b60006118b8601783611bbb565b91506118c382611fc2565b601782019050919050565b60006118db601183611bbb565b91506118e682611feb565b601182019050919050565b60006118fe602f83611baa565b915061190982612014565b604082019050919050565b60408201600082015161192a6000850182611943565b50602082015161193d602085018261172e565b50505050565b61194c81611d1e565b82525050565b61195b81611d1e565b82525050565b600061196c826118ab565b91506119788285611785565b9150611983826118ce565b915061198f8284611785565b91508190509392505050565b60006020820190506119b060008301846116b2565b92915050565b600060208201905081810360008301526119d081846116c1565b905092915050565b60006020820190506119ed600083018461171f565b92915050565b6000602082019050611a08600083018461173d565b92915050565b60006020820190508181036000830152611a28818461174c565b905092915050565b60006020820190508181036000830152611a49816117b6565b9050919050565b60006020820190508181036000830152611a69816117d9565b9050919050565b60006020820190508181036000830152611a89816117fc565b9050919050565b60006020820190508181036000830152611aa98161181f565b9050919050565b60006020820190508181036000830152611ac981611842565b9050919050565b60006020820190508181036000830152611ae981611865565b9050919050565b60006020820190508181036000830152611b0981611888565b9050919050565b60006020820190508181036000830152611b29816118f1565b9050919050565b6000604082019050611b456000830184611914565b92915050565b6000602082019050611b606000830184611952565b92915050565b6000819050602082019050919050565b600081519050919050565b600081519050919050565b6000602082019050919050565b600082825260208201905092915050565b600082825260208201905092915050565b600081905092915050565b6000611bd182611d1e565b9150611bdc83611d1e565b9250827fffffffffffffffffffffffffffffffffffffffffffffffffffffffffffffffff03821115611c1157611c10611d85565b5b828201905092915050565b6000611c2782611d1e565b9150611c3283611d1e565b9250817fffffffffffffffffffffffffffffffffffffffffffffffffffffffffffffffff0483118215151615611c6b57611c6a611d85565b5b828202905092915050565b6000611c8182611d1e565b9150611c8c83611d1e565b925082821015611c9f57611c9e611d85565b5b828203905092915050565b6000611cb582611cfe565b9050919050565b60008115159050919050565b6000819050919050565b60007fffffffff0000000000000000000000000000000000000000000000000000000082169050919050565b600073ffffffffffffffffffffffffffffffffffffffff82169050919050565b6000819050919050565b60005b83811015611d46578082015181840152602081019050611d2b565b83811115611d55576000848401525b50505050565b6000611d6682611d1e565b91506000821415611d7a57611d79611d85565b5b600182039050919050565b7f4e487b7100000000000000000000000000000000000000000000000000000000600052601160045260246000fd5b7f4e487b7100000000000000000000000000000000000000000000000000000000600052603160045260246000fd5b7f4e487b7100000000000000000000000000000000000000000000000000000000600052603260045260246000fd5b7f4e487b7100000000000000000000000000000000000000000000000000000000600052604160045260246000fd5b600080fd5b6000601f19601f8301169050919050565b7f537472696e67733a20686578206c656e67746820696e73756666696369656e74600082015250565b7f556e617574686f72697a652e204d7573742068617320626c6f636b636861696e60008201527f204d616e6167657220726f6c6500000000000000000000000000000000000000602082015250565b7f4f776e61626c653a206e6577206f776e657220697320746865207a65726f206160008201527f6464726573730000000000000000000000000000000000000000000000000000602082015250565b7f4e4f54464e445300000000000000000000000000000000000000000000000000600082015250565b7f464e440000000000000000000000000000000000000000000000000000000000600082015250565b7f4f776e61626c653a2063616c6c6572206973206e6f7420746865206f776e6572600082015250565b7f4f55545247000000000000000000000000000000000000000000000000000000600082015250565b7f416363657373436f6e74726f6c3a206163636f756e7420000000000000000000600082015250565b7f206973206d697373696e6720726f6c6520000000000000000000000000000000600082015250565b7f416363657373436f6e74726f6c3a2063616e206f6e6c792072656e6f756e636560008201527f20726f6c657320666f722073656c660000000000000000000000000000000000602082015250565b61206c81611caa565b811461207757600080fd5b50565b61208381611cc8565b811461208e57600080fd5b50565b61209a81611cd2565b81146120a557600080fd5b50565b6120b181611d1e565b81146120bc57600080fd5b5056fea26469706673582212201bd75be24772f0c5382d595153d4e9696f4cc170cdfb28cdbd0f332333164f6564736f6c63430008070033",
  "immutableReferences": {},
  "source": "// SPDX-License-Identifier: MIT\r\npragma solidity ^0.8.7;\r\nimport \"@openzeppelin/contracts/utils/structs/EnumerableSet.sol\";\r\nimport \"@openzeppelin/contracts/access/Ownable.sol\";\r\nimport \"@openzeppelin/contracts/access/AccessControlEnumerable.sol\";\r\n\r\n\r\nstruct BlockchainInfo {\r\n    uint256 blockchainId;\r\n    bytes32 name;\r\n}\r\n\r\nuint256 constant MAX_NUMBER_OF_BLOCKCHAINS = 255;\r\n\r\ncontract BlockchainManager is Ownable, AccessControlEnumerable {\r\n    /**\r\n    CONSTANTS\r\n    */\r\n    bytes32 public constant BLOCKCHAIN_MANAGER_ROLE =\r\n        keccak256(\"BLOCKCHAIN_MANAGER_ROLE\");\r\n\r\n    using EnumerableSet for EnumerableSet.UintSet;\r\n\r\n    /******************************\r\n        EVENTS\r\n    ******************************/\r\n\r\n    event blockchainAdded(uint256 id);\r\n    event blockchainRemoved(uint256 id);\r\n\r\n    //Modifiers\r\n    modifier onlyRegisteredBlockchains(uint256 blockchainId) {\r\n        require(registeredIds.contains(blockchainId), \"NOTFNDS\");\r\n        _;\r\n    }\r\n\r\n    modifier onlyBlockchainManager() {\r\n        require(\r\n            hasRole(BLOCKCHAIN_MANAGER_ROLE, _msgSender()),\r\n            \"Unauthorize. Must has blockchain Manager role\"\r\n        );\r\n        _;\r\n    }\r\n\r\n    // Blockchains\r\n    mapping(uint256 => BlockchainInfo) registeredBlockchains;\r\n    // List of Id for quick\r\n    EnumerableSet.UintSet registeredIds;\r\n\r\n    constructor() {\r\n        _setupRole(DEFAULT_ADMIN_ROLE, _msgSender());\r\n        _setupRole(BLOCKCHAIN_MANAGER_ROLE, _msgSender());\r\n    }\r\n\r\n    /**\r\n     * @notice register blockchain\r\n     * @param blockchainId blockchain Id\r\n     * @param name blockchain short name\r\n     */\r\n    function registerBlockchain(\r\n        uint256 blockchainId,\r\n        bytes32 name\r\n    )\r\n        public\r\n        onlyBlockchainManager\r\n    {\r\n        require(blockchainId <= MAX_NUMBER_OF_BLOCKCHAINS, \"OUTRG\");\r\n        require(\r\n            !registeredIds.contains(blockchainId),\r\n            \"FND\"\r\n        );\r\n        registeredIds.add(blockchainId);\r\n        BlockchainInfo storage blockchainInfo = registeredBlockchains[blockchainId];\r\n        blockchainInfo.blockchainId = blockchainId;\r\n        blockchainInfo.name = name;\r\n        emit blockchainAdded(blockchainId);\r\n    }\r\n\r\n     /**\r\n     * @notice remove blockchain\r\n     * @param blockchainId blockchain Id\r\n     */\r\n    function removeBlockchain(uint256 blockchainId)\r\n        public\r\n        onlyBlockchainManager\r\n        onlyRegisteredBlockchains(blockchainId)\r\n    {\r\n        registeredIds.remove(blockchainId);\r\n        delete registeredBlockchains[blockchainId];\r\n        emit blockchainRemoved(blockchainId);\r\n    }\r\n\r\n    /**\r\n    * @notice get all blockchains Ids.\r\n    * Return the entire set in an array\r\n    //\r\n    // WARNING\tThis operation will copy the entire storage to memory,\r\n    // which can be quite expensive. This is designed to mostly be used by view\r\n    // accessors that are queried without any gas fees.\r\n    // Developers should keep in mind that this function\r\n    // has an unbounded cost, and using it as part of a state-changing\r\n    // function may render the function uncallable if the set grows to a\r\n    // point where copying to memory consumes too much gas to fit in a block.\r\n    */\r\n    function getAllBlockchainIds() public view returns (uint256[] memory) {\r\n        return registeredIds.values();\r\n    }\r\n\r\n    /**\r\n     * @notice get blockchain by id.\r\n     * Return the entire set in an array\r\n     * @param id blockchain id\r\n     */\r\n    function getBlockchain(uint256 id)\r\n        public\r\n        view\r\n        onlyRegisteredBlockchains(id)\r\n        returns (BlockchainInfo memory)\r\n    {\r\n        return registeredBlockchains[id];\r\n    }\r\n\r\n    /**\r\n     * @notice verify id.\r\n     * if the blockchain exist\r\n     * @param id blockchain id\r\n     */\r\n    function existBlockchain(uint id)\r\n        public\r\n        view\r\n        returns (bool)\r\n    {\r\n        return registeredIds.contains(id);\r\n    }    \r\n }\r\n",
  "sourcePath": "C:\\Users\\israel\\Documents\\codes\\dev\\cryptween\\smart-contract-3\\contracts\\BlockchainManager.sol",
  "compiler": {
    "name": "solc",
    "version": "0.8.7+commit.e28d00a7.Emscripten.clang"
  },
  "schemaVersion": "3.4.13",
  "updatedAt": "2023-06-12T20:26:48.501Z",
  "networkType": "ethereum",
  "devdoc": {
    "kind": "dev",
    "methods": {
      "existBlockchain(uint256)": {
        "params": {
          "id": "blockchain id"
        }
      },
      "getBlockchain(uint256)": {
        "params": {
          "id": "blockchain id"
        }
      },
      "getRoleAdmin(bytes32)": {
        "details": "Returns the admin role that controls `role`. See {grantRole} and {revokeRole}. To change a role's admin, use {_setRoleAdmin}."
      },
      "getRoleMember(bytes32,uint256)": {
        "details": "Returns one of the accounts that have `role`. `index` must be a value between 0 and {getRoleMemberCount}, non-inclusive. Role bearers are not sorted in any particular way, and their ordering may change at any point. WARNING: When using {getRoleMember} and {getRoleMemberCount}, make sure you perform all queries on the same block. See the following https://forum.openzeppelin.com/t/iterating-over-elements-on-enumerableset-in-openzeppelin-contracts/2296[forum post] for more information."
      },
      "getRoleMemberCount(bytes32)": {
        "details": "Returns the number of accounts that have `role`. Can be used together with {getRoleMember} to enumerate all bearers of a role."
      },
      "grantRole(bytes32,address)": {
        "details": "Grants `role` to `account`. If `account` had not been already granted `role`, emits a {RoleGranted} event. Requirements: - the caller must have ``role``'s admin role. May emit a {RoleGranted} event."
      },
      "hasRole(bytes32,address)": {
        "details": "Returns `true` if `account` has been granted `role`."
      },
      "owner()": {
        "details": "Returns the address of the current owner."
      },
      "registerBlockchain(uint256,bytes32)": {
        "params": {
          "blockchainId": "blockchain Id",
          "name": "blockchain short name"
        }
      },
      "removeBlockchain(uint256)": {
        "params": {
          "blockchainId": "blockchain Id"
        }
      },
      "renounceOwnership()": {
        "details": "Leaves the contract without owner. It will not be possible to call `onlyOwner` functions anymore. Can only be called by the current owner. NOTE: Renouncing ownership will leave the contract without an owner, thereby removing any functionality that is only available to the owner."
      },
      "renounceRole(bytes32,address)": {
        "details": "Revokes `role` from the calling account. Roles are often managed via {grantRole} and {revokeRole}: this function's purpose is to provide a mechanism for accounts to lose their privileges if they are compromised (such as when a trusted device is misplaced). If the calling account had been revoked `role`, emits a {RoleRevoked} event. Requirements: - the caller must be `account`. May emit a {RoleRevoked} event."
      },
      "revokeRole(bytes32,address)": {
        "details": "Revokes `role` from `account`. If `account` had been granted `role`, emits a {RoleRevoked} event. Requirements: - the caller must have ``role``'s admin role. May emit a {RoleRevoked} event."
      },
      "supportsInterface(bytes4)": {
        "details": "See {IERC165-supportsInterface}."
      },
      "transferOwnership(address)": {
        "details": "Transfers ownership of the contract to a new account (`newOwner`). Can only be called by the current owner."
      }
    },
    "version": 1
  },
  "userdoc": {
    "kind": "user",
    "methods": {
      "BLOCKCHAIN_MANAGER_ROLE()": {
        "notice": "CONSTANTS"
      },
      "existBlockchain(uint256)": {
        "notice": "verify id. if the blockchain exist"
      },
      "getAllBlockchainIds()": {
        "notice": "get all blockchains Ids. Return the entire set in an array // // WARNING\tThis operation will copy the entire storage to memory, // which can be quite expensive. This is designed to mostly be used by view // accessors that are queried without any gas fees. // Developers should keep in mind that this function // has an unbounded cost, and using it as part of a state-changing // function may render the function uncallable if the set grows to a // point where copying to memory consumes too much gas to fit in a block."
      },
      "getBlockchain(uint256)": {
        "notice": "get blockchain by id. Return the entire set in an array"
      },
      "registerBlockchain(uint256,bytes32)": {
        "notice": "register blockchain"
      },
      "removeBlockchain(uint256)": {
        "notice": "remove blockchain"
      }
    },
    "version": 1
  }
}