{
  "contractName": "LicenseTools",
  "abi": [
    {
      "inputs": [
        {
          "internalType": "uint256",
          "name": "_packedBools",
          "type": "uint256"
        },
        {
          "internalType": "uint256",
          "name": "_boolNumber",
          "type": "uint256"
        }
      ],
      "name": "getBoolean",
      "outputs": [
        {
          "internalType": "bool",
          "name": "",
          "type": "bool"
        }
      ],
      "stateMutability": "pure",
      "type": "function",
      "constant": true
    },
    {
      "inputs": [
        {
          "internalType": "uint256",
          "name": "_packedBools",
          "type": "uint256"
        },
        {
          "internalType": "uint256",
          "name": "_boolNumber",
          "type": "uint256"
        },
        {
          "internalType": "bool",
          "name": "_value",
          "type": "bool"
        }
      ],
      "name": "setBoolean",
      "outputs": [
        {
          "internalType": "uint256",
          "name": "",
          "type": "uint256"
        }
      ],
      "stateMutability": "pure",
      "type": "function",
      "constant": true
    },
    {
      "inputs": [
        {
          "internalType": "uint256",
          "name": "_packedBools",
          "type": "uint256"
        },
        {
          "internalType": "bool",
          "name": "_value",
          "type": "bool"
        },
        {
          "internalType": "uint256[]",
          "name": "_boolNumbers",
          "type": "uint256[]"
        }
      ],
      "name": "setIndexesBoolean",
      "outputs": [
        {
          "internalType": "uint256",
          "name": "",
          "type": "uint256"
        }
      ],
      "stateMutability": "pure",
      "type": "function",
      "constant": true
    }
  ],
  "bytecode": "0x61107d610053600b82828239805160001a607314610046577f4e487b7100000000000000000000000000000000000000000000000000000000600052600060045260246000fd5b30600052607381538281f3fe73000000000000000000000000000000000000000030146080604052600436106100925760003560e01c806395a514821161006557806395a514821461017e578063995e9228146101ae578063e0f98955146101de578063e6713dc11461020e57610092565b80632e28346f1461009757806346e6bde3146100d457806352932dea1461010457806365b8740b14610141575b600080fd5b8180156100a357600080fd5b506100be60048036038101906100b99190610a78565b61023e565b6040516100cb9190610c9d565b60405180910390f35b6100ee60048036038101906100e991906109bd565b610361565b6040516100fb9190610c9d565b60405180910390f35b81801561011057600080fd5b5061012b60048036038101906101269190610a38565b610423565b6040516101389190610c9d565b60405180910390f35b81801561014d57600080fd5b5061016860048036038101906101639190610af3565b610535565b6040516101759190610c9d565b60405180910390f35b61019860048036038101906101939190610b5a565b6106ee565b6040516101a59190610cd8565b60405180910390f35b6101c860048036038101906101c39190610bc9565b610765565b6040516101d59190610c9d565b60405180910390f35b6101f860048036038101906101f39190610c09565b6107d1565b6040516102059190610cd8565b60405180910390f35b61022860048036038101906102239190610a38565b61083d565b6040516102359190610c9d565b60405180910390f35b60004286600001600087815260200190815260200160002060000181905550600086600001600087815260200190815260200160002060050160006101000a81548160ff0219169083600181111561029957610298610f00565b5b021790555083866000016000878152602001908152602001600020600301819055508286600001600087815260200190815260200160002060050160016101000a81548160ff021916908360018111156102f6576102f5610f00565b5b021790555081866000016000878152602001908152602001600020600401819055506000866000016000878152602001908152602001600020600101819055506000866000016000878152602001908152602001600020600201819055506001905095945050505050565b600060018081111561037657610375610f00565b5b86600001600085815260200190815260200160002060050160019054906101000a900460ff1660018111156103ae576103ad610f00565b5b1480156103e757508373ffffffffffffffffffffffffffffffffffffffff168573ffffffffffffffffffffffffffffffffffffffff1614155b156103f5576000905061041a565b6104178660000160008581526020019081526020016000206003015483610765565b90505b95945050505050565b600080600181111561043857610437610f00565b5b83600001600084815260200190815260200160002060050160009054906101000a900460ff1660018111156104705761046f610f00565b5b1461047e576000905061052f565b600183600001600084815260200190815260200160002060050160006101000a81548160ff021916908360018111156104ba576104b9610f00565b5b021790555062278d00836000016000848152602001908152602001600020600401546104e69190610dab565b426104f19190610d55565b836000016000848152602001908152602001600020600101819055504283600001600084815260200190815260200160002060020181905550600190505b92915050565b600080600181111561054a57610549610f00565b5b85600001600086815260200190815260200160002060050160009054906101000a900460ff16600181111561058257610581610f00565b5b14806105f9575042856000016000868152602001908152602001600020600101541180156105f857506001808111156105be576105bd610f00565b5b85600001600086815260200190815260200160002060050160009054906101000a900460ff1660018111156105f6576105f5610f00565b5b145b5b61060657600090506106e6565b828560000160008681526020019081526020016000206003018190555081856000016000868152602001908152602001600020600401600082825461064b9190610d55565b9250508190555060018081111561066557610664610f00565b5b85600001600086815260200190815260200160002060050160009054906101000a900460ff16600181111561069d5761069c610f00565b5b14156106e15762278d00826106b29190610dab565b85600001600086815260200190815260200160002060010160008282546106d99190610d55565b925050819055505b600190505b949350505050565b600080825111801561070e5750600160ff6107099190610d55565b825111155b1561075b5760005b8251811015610759576107448584838151811061073657610735610f2f565b5b6020026020010151866107d1565b9450808061075190610e88565b915050610716565b505b8390509392505050565b600060ff8211156107ab576040517f08c379a00000000000000000000000000000000000000000000000000000000081526004016107a290610cb8565b60405180910390fd5b600060018385901c169050600181146107c55760006107c8565b60015b91505092915050565b600060ff831115610817576040517f08c379a000000000000000000000000000000000000000000000000000000000815260040161080e90610cb8565b60405180910390fd5b811561082b57826001901b84179050610836565b826001901b19841690505b9392505050565b600042836000016000848152602001908152602001600020600101541180156108ae575060018081111561087457610873610f00565b5b83600001600084815260200190815260200160002060050160009054906101000a900460ff1660018111156108ac576108ab610f00565b5b145b905092915050565b60006108c96108c484610d18565b610cf3565b905080838252602082019050828560208602820111156108ec576108eb610f92565b5b60005b8581101561091c578161090288826109a8565b8452602084019350602083019250506001810190506108ef565b5050509392505050565b60008135905061093581610fdb565b92915050565b600082601f8301126109505761094f610f8d565b5b81356109608482602086016108b6565b91505092915050565b60008135905061097881610ff2565b92915050565b60008135905061098d81611009565b92915050565b6000813590506109a281611019565b92915050565b6000813590506109b781611030565b92915050565b600080600080600060a086880312156109d9576109d8610f9c565b5b60006109e788828901610993565b95505060206109f888828901610926565b9450506040610a0988828901610926565b9350506060610a1a888289016109a8565b9250506080610a2b888289016109a8565b9150509295509295909350565b60008060408385031215610a4f57610a4e610f9c565b5b6000610a5d85828601610993565b9250506020610a6e858286016109a8565b9150509250929050565b600080600080600060a08688031215610a9457610a93610f9c565b5b6000610aa288828901610993565b9550506020610ab3888289016109a8565b9450506040610ac4888289016109a8565b9350506060610ad58882890161097e565b9250506080610ae6888289016109a8565b9150509295509295909350565b60008060008060808587031215610b0d57610b0c610f9c565b5b6000610b1b87828801610993565b9450506020610b2c878288016109a8565b9350506040610b3d878288016109a8565b9250506060610b4e878288016109a8565b91505092959194509250565b600080600060608486031215610b7357610b72610f9c565b5b6000610b81868287016109a8565b9350506020610b9286828701610969565b925050604084013567ffffffffffffffff811115610bb357610bb2610f97565b5b610bbf8682870161093b565b9150509250925092565b60008060408385031215610be057610bdf610f9c565b5b6000610bee858286016109a8565b9250506020610bff858286016109a8565b9150509250929050565b600080600060608486031215610c2257610c21610f9c565b5b6000610c30868287016109a8565b9350506020610c41868287016109a8565b9250506040610c5286828701610969565b9150509250925092565b610c6581610e17565b82525050565b6000610c78601a83610d44565b9150610c8382610fb2565b602082019050919050565b610c9781610e4d565b82525050565b6000602082019050610cb26000830184610c5c565b92915050565b60006020820190508181036000830152610cd181610c6b565b9050919050565b6000602082019050610ced6000830184610c8e565b92915050565b6000610cfd610d0e565b9050610d098282610e57565b919050565b6000604051905090565b600067ffffffffffffffff821115610d3357610d32610f5e565b5b602082029050602081019050919050565b600082825260208201905092915050565b6000610d6082610e4d565b9150610d6b83610e4d565b9250827fffffffffffffffffffffffffffffffffffffffffffffffffffffffffffffffff03821115610da057610d9f610ed1565b5b828201905092915050565b6000610db682610e4d565b9150610dc183610e4d565b9250817fffffffffffffffffffffffffffffffffffffffffffffffffffffffffffffffff0483118215151615610dfa57610df9610ed1565b5b828202905092915050565b6000610e1082610e2d565b9050919050565b60008115159050919050565b6000819050919050565b600073ffffffffffffffffffffffffffffffffffffffff82169050919050565b6000819050919050565b610e6082610fa1565b810181811067ffffffffffffffff82111715610e7f57610e7e610f5e565b5b80604052505050565b6000610e9382610e4d565b91507fffffffffffffffffffffffffffffffffffffffffffffffffffffffffffffffff821415610ec657610ec5610ed1565b5b600182019050919050565b7f4e487b7100000000000000000000000000000000000000000000000000000000600052601160045260246000fd5b7f4e487b7100000000000000000000000000000000000000000000000000000000600052602160045260246000fd5b7f4e487b7100000000000000000000000000000000000000000000000000000000600052603260045260246000fd5b7f4e487b7100000000000000000000000000000000000000000000000000000000600052604160045260246000fd5b600080fd5b600080fd5b600080fd5b600080fd5b6000601f19601f8301169050919050565b7f626f6f6c65616e20696e646578206f7574206f662072616e6765000000000000600082015250565b610fe481610e05565b8114610fef57600080fd5b50565b610ffb81610e17565b811461100657600080fd5b50565b6002811061101657600080fd5b50565b61102281610e23565b811461102d57600080fd5b50565b61103981610e4d565b811461104457600080fd5b5056fea26469706673582212203641aa8ccacdf01aff828c2708667ba0d79a0c3e01a82eb98d28a5b32f1c79c664736f6c63430008070033",
  "immutableReferences": {},
  "source": "// SPDX-License-Identifier: MIT\r\npragma solidity ^0.8.3;\r\nuint256 constant MAX_NUMBER_FOR_INDEXES = 255;\r\n\r\nenum LicenseType {\r\n    PUBLIC,\r\n    PRIVATE\r\n}\r\nenum LicenseState {\r\n    INACTIVE,\r\n    ACTIVE\r\n}\r\n\r\nstruct LicenseInfo {\r\n    uint256 registeredOn;\r\n    uint256 expiresOn;\r\n    uint256 activeSince;\r\n    uint256 servicesIdsPool;\r\n    uint256 numberOfMonths;\r\n    LicenseState state;\r\n    LicenseType licenseType;\r\n}\r\n\r\nstruct LicensesData {\r\n    mapping(uint256 => LicenseInfo) registeredLicenses;\r\n}\r\n\r\nlibrary LicenseTools {\r\n    function getBoolean(uint256 _packedBools, uint256 _boolNumber)\r\n        public\r\n        pure\r\n        returns (bool)\r\n    {\r\n        require(\r\n            _boolNumber <= MAX_NUMBER_FOR_INDEXES,\r\n            \"boolean index out of range\"\r\n        );\r\n        uint256 flag = (_packedBools >> _boolNumber) & uint256(1);\r\n        return (flag == 1 ? true : false);\r\n    }\r\n\r\n    function setBoolean(\r\n        uint256 _packedBools,\r\n        uint256 _boolNumber,\r\n        bool _value\r\n    ) public pure returns (uint256) {\r\n        require(\r\n            _boolNumber <= MAX_NUMBER_FOR_INDEXES,\r\n            \"boolean index out of range\"\r\n        );\r\n        if (_value) return _packedBools | (uint256(1) << _boolNumber);\r\n        else return _packedBools & ~(uint256(1) << _boolNumber);\r\n    }\r\n\r\n    function setIndexesBoolean(\r\n        uint256 _packedBools,\r\n        bool _value,\r\n        uint256[] memory _boolNumbers\r\n    ) public pure returns (uint256) {\r\n        if (\r\n            (_boolNumbers.length > 0) &&\r\n            (_boolNumbers.length <= MAX_NUMBER_FOR_INDEXES + 1)\r\n        ) {\r\n            for (uint256 index = 0; index < _boolNumbers.length; index++) {\r\n                _packedBools = setBoolean(\r\n                    _packedBools,\r\n                    _boolNumbers[index],\r\n                    _value\r\n                );\r\n            }\r\n        }\r\n        return _packedBools;\r\n    }\r\n\r\n    function insert(\r\n        LicensesData storage self,\r\n        uint256 licenseId,\r\n        uint256 servicesIdsPool,\r\n        LicenseType licenseType,\r\n        uint256 numberOfMonths\r\n    ) public returns (bool) {\r\n        // if (self.registeredLicenses[licenseId].registeredOn != 0) return false; // already there\r\n        self.registeredLicenses[licenseId].registeredOn = block.timestamp;\r\n        self.registeredLicenses[licenseId].state = LicenseState.INACTIVE;\r\n        self.registeredLicenses[licenseId].servicesIdsPool = servicesIdsPool;\r\n        self.registeredLicenses[licenseId].licenseType = licenseType;\r\n        self.registeredLicenses[licenseId].numberOfMonths = numberOfMonths;\r\n        self.registeredLicenses[licenseId].expiresOn = 0;\r\n        self.registeredLicenses[licenseId].activeSince = 0;\r\n        return true;\r\n    }\r\n\r\n    function update(\r\n        LicensesData storage self,\r\n        uint256 licenseId,\r\n        uint256 servicesIdsPool,\r\n        uint256 addedMonths\r\n    ) public returns (bool) {\r\n        if (\r\n            !(self.registeredLicenses[licenseId].state ==\r\n                LicenseState.INACTIVE ||\r\n                (self.registeredLicenses[licenseId].expiresOn >\r\n                    block.timestamp &&\r\n                    self.registeredLicenses[licenseId].state ==\r\n                    LicenseState.ACTIVE))\r\n        ) return false;\r\n        self.registeredLicenses[licenseId].servicesIdsPool = servicesIdsPool;\r\n        self.registeredLicenses[licenseId].numberOfMonths += addedMonths;\r\n        if (self.registeredLicenses[licenseId].state == LicenseState.ACTIVE)\r\n            self.registeredLicenses[licenseId].expiresOn +=\r\n                addedMonths *\r\n                30 days;\r\n        return true;\r\n    }\r\n\r\n    function activate(LicensesData storage self, uint256 licenseId)\r\n        public\r\n        returns (bool)\r\n    {\r\n        if (self.registeredLicenses[licenseId].state != LicenseState.INACTIVE)\r\n            return false;\r\n\r\n        self.registeredLicenses[licenseId].state = LicenseState.ACTIVE;\r\n        self.registeredLicenses[licenseId].expiresOn =\r\n            block.timestamp +\r\n            self.registeredLicenses[licenseId].numberOfMonths *\r\n            30 days;\r\n        self.registeredLicenses[licenseId].activeSince = block.timestamp;\r\n        return true;\r\n    }\r\n\r\n    function isLicenseActive(LicensesData storage self, uint256 licenseId)\r\n        public\r\n        view\r\n        returns (bool)\r\n    {\r\n        return (self.registeredLicenses[licenseId].expiresOn > block.timestamp &&\r\n            self.registeredLicenses[licenseId].state == LicenseState.ACTIVE);\r\n    }    \r\n\r\n    /**\r\n     * @notice check if user can user a service form the license id\r\n     * @dev Explain to a developer any extra details\r\n     * @param self library\r\n     * @param user user address\r\n     * @param licenseId license id\r\n     * @param serviceId service id to check\r\n     * @return LicenseInfo struct\r\n     */\r\n    function isUserAllowToUseService(\r\n        LicensesData storage self,\r\n        address owner,\r\n        address user,\r\n        uint256 licenseId,\r\n        uint256 serviceId\r\n    ) public view returns (bool) {\r\n        if (\r\n            self.registeredLicenses[licenseId].licenseType ==\r\n            LicenseType.PRIVATE &&\r\n            owner != user\r\n        ) return false;\r\n        return\r\n            getBoolean(\r\n                self.registeredLicenses[licenseId].servicesIdsPool,\r\n                serviceId\r\n            );        \r\n    }    \r\n}\r\n",
  "sourcePath": "C:\\Users\\israel\\Documents\\codes\\dev\\cryptween\\smart-contract-3\\contracts\\LicenseTools.sol",
  "compiler": {
    "name": "solc",
    "version": "0.8.7+commit.e28d00a7.Emscripten.clang"
  },
  "schemaVersion": "3.4.13",
  "updatedAt": "2023-06-12T20:26:48.442Z",
  "networkType": "ethereum",
  "devdoc": {
    "kind": "dev",
    "methods": {
      "isUserAllowToUseService(LicensesData storage,address,address,uint256,uint256)": {
        "details": "Explain to a developer any extra details",
        "params": {
          "licenseId": "license id",
          "self": "library",
          "serviceId": "service id to check",
          "user": "user address"
        },
        "returns": {
          "_0": "LicenseInfo struct"
        }
      }
    },
    "version": 1
  },
  "userdoc": {
    "kind": "user",
    "methods": {
      "isUserAllowToUseService(LicensesData storage,address,address,uint256,uint256)": {
        "notice": "check if user can user a service form the license id"
      }
    },
    "version": 1
  }
}