{
  "contractName": "ServiceManager",
  "abi": [
    {
      "inputs": [],
      "stateMutability": "nonpayable",
      "type": "constructor"
    },
    {
      "anonymous": false,
      "inputs": [
        {
          "indexed": true,
          "internalType": "address",
          "name": "previousOwner",
          "type": "address"
        },
        {
          "indexed": true,
          "internalType": "address",
          "name": "newOwner",
          "type": "address"
        }
      ],
      "name": "OwnershipTransferred",
      "type": "event"
    },
    {
      "anonymous": false,
      "inputs": [
        {
          "indexed": true,
          "internalType": "bytes32",
          "name": "role",
          "type": "bytes32"
        },
        {
          "indexed": true,
          "internalType": "bytes32",
          "name": "previousAdminRole",
          "type": "bytes32"
        },
        {
          "indexed": true,
          "internalType": "bytes32",
          "name": "newAdminRole",
          "type": "bytes32"
        }
      ],
      "name": "RoleAdminChanged",
      "type": "event"
    },
    {
      "anonymous": false,
      "inputs": [
        {
          "indexed": true,
          "internalType": "bytes32",
          "name": "role",
          "type": "bytes32"
        },
        {
          "indexed": true,
          "internalType": "address",
          "name": "account",
          "type": "address"
        },
        {
          "indexed": true,
          "internalType": "address",
          "name": "sender",
          "type": "address"
        }
      ],
      "name": "RoleGranted",
      "type": "event"
    },
    {
      "anonymous": false,
      "inputs": [
        {
          "indexed": true,
          "internalType": "bytes32",
          "name": "role",
          "type": "bytes32"
        },
        {
          "indexed": true,
          "internalType": "address",
          "name": "account",
          "type": "address"
        },
        {
          "indexed": true,
          "internalType": "address",
          "name": "sender",
          "type": "address"
        }
      ],
      "name": "RoleRevoked",
      "type": "event"
    },
    {
      "anonymous": false,
      "inputs": [
        {
          "indexed": false,
          "internalType": "uint256",
          "name": "id",
          "type": "uint256"
        }
      ],
      "name": "serviceAdded",
      "type": "event"
    },
    {
      "anonymous": false,
      "inputs": [
        {
          "indexed": false,
          "internalType": "uint256",
          "name": "id",
          "type": "uint256"
        }
      ],
      "name": "serviceRemoved",
      "type": "event"
    },
    {
      "anonymous": false,
      "inputs": [
        {
          "indexed": false,
          "internalType": "uint256",
          "name": "id",
          "type": "uint256"
        }
      ],
      "name": "serviceUpdated",
      "type": "event"
    },
    {
      "inputs": [],
      "name": "DEFAULT_ADMIN_ROLE",
      "outputs": [
        {
          "internalType": "bytes32",
          "name": "",
          "type": "bytes32"
        }
      ],
      "stateMutability": "view",
      "type": "function",
      "constant": true
    },
    {
      "inputs": [],
      "name": "SERVICE_MANAGER_ROLE",
      "outputs": [
        {
          "internalType": "bytes32",
          "name": "",
          "type": "bytes32"
        }
      ],
      "stateMutability": "view",
      "type": "function",
      "constant": true
    },
    {
      "inputs": [
        {
          "internalType": "bytes32",
          "name": "role",
          "type": "bytes32"
        }
      ],
      "name": "getRoleAdmin",
      "outputs": [
        {
          "internalType": "bytes32",
          "name": "",
          "type": "bytes32"
        }
      ],
      "stateMutability": "view",
      "type": "function",
      "constant": true
    },
    {
      "inputs": [
        {
          "internalType": "bytes32",
          "name": "role",
          "type": "bytes32"
        },
        {
          "internalType": "uint256",
          "name": "index",
          "type": "uint256"
        }
      ],
      "name": "getRoleMember",
      "outputs": [
        {
          "internalType": "address",
          "name": "",
          "type": "address"
        }
      ],
      "stateMutability": "view",
      "type": "function",
      "constant": true
    },
    {
      "inputs": [
        {
          "internalType": "bytes32",
          "name": "role",
          "type": "bytes32"
        }
      ],
      "name": "getRoleMemberCount",
      "outputs": [
        {
          "internalType": "uint256",
          "name": "",
          "type": "uint256"
        }
      ],
      "stateMutability": "view",
      "type": "function",
      "constant": true
    },
    {
      "inputs": [
        {
          "internalType": "bytes32",
          "name": "role",
          "type": "bytes32"
        },
        {
          "internalType": "address",
          "name": "account",
          "type": "address"
        }
      ],
      "name": "grantRole",
      "outputs": [],
      "stateMutability": "nonpayable",
      "type": "function"
    },
    {
      "inputs": [
        {
          "internalType": "bytes32",
          "name": "role",
          "type": "bytes32"
        },
        {
          "internalType": "address",
          "name": "account",
          "type": "address"
        }
      ],
      "name": "hasRole",
      "outputs": [
        {
          "internalType": "bool",
          "name": "",
          "type": "bool"
        }
      ],
      "stateMutability": "view",
      "type": "function",
      "constant": true
    },
    {
      "inputs": [],
      "name": "owner",
      "outputs": [
        {
          "internalType": "address",
          "name": "",
          "type": "address"
        }
      ],
      "stateMutability": "view",
      "type": "function",
      "constant": true
    },
    {
      "inputs": [],
      "name": "renounceOwnership",
      "outputs": [],
      "stateMutability": "nonpayable",
      "type": "function"
    },
    {
      "inputs": [
        {
          "internalType": "bytes32",
          "name": "role",
          "type": "bytes32"
        },
        {
          "internalType": "address",
          "name": "account",
          "type": "address"
        }
      ],
      "name": "renounceRole",
      "outputs": [],
      "stateMutability": "nonpayable",
      "type": "function"
    },
    {
      "inputs": [
        {
          "internalType": "bytes32",
          "name": "role",
          "type": "bytes32"
        },
        {
          "internalType": "address",
          "name": "account",
          "type": "address"
        }
      ],
      "name": "revokeRole",
      "outputs": [],
      "stateMutability": "nonpayable",
      "type": "function"
    },
    {
      "inputs": [
        {
          "internalType": "bytes4",
          "name": "interfaceId",
          "type": "bytes4"
        }
      ],
      "name": "supportsInterface",
      "outputs": [
        {
          "internalType": "bool",
          "name": "",
          "type": "bool"
        }
      ],
      "stateMutability": "view",
      "type": "function",
      "constant": true
    },
    {
      "inputs": [
        {
          "internalType": "address",
          "name": "newOwner",
          "type": "address"
        }
      ],
      "name": "transferOwnership",
      "outputs": [],
      "stateMutability": "nonpayable",
      "type": "function"
    },
    {
      "inputs": [
        {
          "internalType": "uint256",
          "name": "serviceId",
          "type": "uint256"
        },
        {
          "internalType": "uint256",
          "name": "oneMonthLicencePrice",
          "type": "uint256"
        },
        {
          "internalType": "enum ServiceType",
          "name": "serviceType",
          "type": "uint8"
        },
        {
          "internalType": "bytes32",
          "name": "name",
          "type": "bytes32"
        },
        {
          "internalType": "string",
          "name": "description",
          "type": "string"
        }
      ],
      "name": "registerService",
      "outputs": [],
      "stateMutability": "nonpayable",
      "type": "function"
    },
    {
      "inputs": [
        {
          "internalType": "uint256",
          "name": "serviceId",
          "type": "uint256"
        },
        {
          "internalType": "uint256",
          "name": "oneMonthLicencePrice",
          "type": "uint256"
        }
      ],
      "name": "updateService",
      "outputs": [],
      "stateMutability": "nonpayable",
      "type": "function"
    },
    {
      "inputs": [
        {
          "internalType": "uint256",
          "name": "serviceId",
          "type": "uint256"
        }
      ],
      "name": "removeService",
      "outputs": [],
      "stateMutability": "nonpayable",
      "type": "function"
    },
    {
      "inputs": [],
      "name": "getAllServiceIds",
      "outputs": [
        {
          "internalType": "uint256[]",
          "name": "",
          "type": "uint256[]"
        }
      ],
      "stateMutability": "view",
      "type": "function",
      "constant": true
    },
    {
      "inputs": [
        {
          "internalType": "uint256",
          "name": "id",
          "type": "uint256"
        }
      ],
      "name": "getService",
      "outputs": [
        {
          "components": [
            {
              "internalType": "uint256",
              "name": "serviceId",
              "type": "uint256"
            },
            {
              "internalType": "uint256",
              "name": "oneMonthLicencePrice",
              "type": "uint256"
            },
            {
              "internalType": "enum ServiceType",
              "name": "serviceType",
              "type": "uint8"
            },
            {
              "internalType": "bytes32",
              "name": "name",
              "type": "bytes32"
            },
            {
              "internalType": "string",
              "name": "description",
              "type": "string"
            }
          ],
          "internalType": "struct ServiceInfo",
          "name": "",
          "type": "tuple"
        }
      ],
      "stateMutability": "view",
      "type": "function",
      "constant": true
    },
    {
      "inputs": [
        {
          "internalType": "uint256",
          "name": "servicesIdsPool",
          "type": "uint256"
        },
        {
          "internalType": "uint256[]",
          "name": "serviceIds",
          "type": "uint256[]"
        }
      ],
      "name": "getAddedServicesPricePerMonth",
      "outputs": [
        {
          "internalType": "uint256",
          "name": "sum",
          "type": "uint256"
        }
      ],
      "stateMutability": "view",
      "type": "function",
      "constant": true
    },
    {
      "inputs": [
        {
          "internalType": "uint256",
          "name": "servicesIdsPool",
          "type": "uint256"
        }
      ],
      "name": "getServicesIdsPoolPricePerMonth",
      "outputs": [
        {
          "internalType": "uint256",
          "name": "sum",
          "type": "uint256"
        }
      ],
      "stateMutability": "view",
      "type": "function",
      "constant": true
    }
  ],
  "bytecode": "0x60806040523480156200001157600080fd5b5062000032620000266200009d60201b60201c565b620000a560201b60201c565b620000566000801b6200004a6200009d60201b60201c565b6200016960201b60201c565b620000977f09717ac20005278352439ebfe1b489a0fa1eccb8e4f93830ef8886bb58ec7bc56200008b6200009d60201b60201c565b6200016960201b60201c565b620003f8565b600033905090565b60008060009054906101000a900473ffffffffffffffffffffffffffffffffffffffff169050816000806101000a81548173ffffffffffffffffffffffffffffffffffffffff021916908373ffffffffffffffffffffffffffffffffffffffff1602179055508173ffffffffffffffffffffffffffffffffffffffff168173ffffffffffffffffffffffffffffffffffffffff167f8be0079c531659141344cd1fd0a4f28419497f9722a3daafe3b4186f6b6457e060405160405180910390a35050565b6200017b82826200017f60201b60201c565b5050565b620001968282620001c760201b62000f7d1760201c565b620001c28160026000858152602001908152602001600020620002b860201b6200105d1790919060201c565b505050565b620001d98282620002f060201b60201c565b620002b457600180600084815260200190815260200160002060000160008373ffffffffffffffffffffffffffffffffffffffff1673ffffffffffffffffffffffffffffffffffffffff16815260200190815260200160002060006101000a81548160ff021916908315150217905550620002596200009d60201b60201c565b73ffffffffffffffffffffffffffffffffffffffff168173ffffffffffffffffffffffffffffffffffffffff16837f2f8788117e7eff1d82e926ec794901d17c78024a50270940304540a733656f0d60405160405180910390a45b5050565b6000620002e8836000018373ffffffffffffffffffffffffffffffffffffffff1660001b6200035b60201b60201c565b905092915050565b60006001600084815260200190815260200160002060000160008373ffffffffffffffffffffffffffffffffffffffff1673ffffffffffffffffffffffffffffffffffffffff16815260200190815260200160002060009054906101000a900460ff16905092915050565b60006200036f8383620003d560201b60201c565b620003ca578260000182908060018154018082558091505060019003906000526020600020016000909190919091505582600001805490508360010160008481526020019081526020016000208190555060019050620003cf565b600090505b92915050565b600080836001016000848152602001908152602001600020541415905092915050565b612cd380620004086000396000f3fe608060405234801561001057600080fd5b506004361061012c5760003560e01c806391d14854116100ad578063d547741f11610071578063d547741f14610355578063e68276ce14610371578063ef0e239b1461038d578063f2fde38b146103bd578063f7262afc146103d95761012c565b806391d148541461029d5780639b66b139146102cd578063a217fddf146102e9578063c979e8a714610307578063ca15c873146103255761012c565b80634b91075f116100f45780634b91075f146101f957806359fdf05114610215578063715018a6146102455780638da5cb5b1461024f5780639010d07c1461026d5761012c565b806301ffc9a714610131578063248a9ca3146101615780632f2ff15d1461019157806336568abe146101ad5780634141a127146101c9575b600080fd5b61014b60048036038101906101469190611dfd565b6103f7565b6040516101589190612366565b60405180910390f35b61017b60048036038101906101769190611d50565b610471565b6040516101889190612381565b60405180910390f35b6101ab60048036038101906101a69190611d7d565b610491565b005b6101c760048036038101906101c29190611d7d565b6104b2565b005b6101e360048036038101906101de9190611e57565b610535565b6040516101f091906124e0565b60405180910390f35b610213600480360381019061020e9190611eb3565b6106c7565b005b61022f600480360381019061022a9190611e2a565b6107fd565b60405161023c91906124e0565b60405180910390f35b61024d6108fb565b005b61025761090f565b6040516102649190612329565b60405180910390f35b61028760048036038101906102829190611dbd565b610938565b6040516102949190612329565b60405180910390f35b6102b760048036038101906102b29190611d7d565b610967565b6040516102c49190612366565b60405180910390f35b6102e760048036038101906102e29190611e2a565b6109d2565b005b6102f1610b38565b6040516102fe9190612381565b60405180910390f35b61030f610b3f565b60405161031c9190612381565b60405180910390f35b61033f600480360381019061033a9190611d50565b610b63565b60405161034c91906124e0565b60405180910390f35b61036f600480360381019061036a9190611d7d565b610b87565b005b61038b60048036038101906103869190611ef3565b610ba8565b005b6103a760048036038101906103a29190611e2a565b610d7b565b6040516103b491906124be565b60405180910390f35b6103d760048036038101906103d29190611cf6565b610ee8565b005b6103e1610f6c565b6040516103ee9190612344565b60405180910390f35b60007f5a05180f000000000000000000000000000000000000000000000000000000007bffffffffffffffffffffffffffffffffffffffffffffffffffffffff1916827bffffffffffffffffffffffffffffffffffffffffffffffffffffffff1916148061046a57506104698261108d565b5b9050919050565b600060016000838152602001908152602001600020600101549050919050565b61049a82610471565b6104a381611107565b6104ad838361111b565b505050565b6104ba61114f565b73ffffffffffffffffffffffffffffffffffffffff168173ffffffffffffffffffffffffffffffffffffffff1614610527576040517f08c379a000000000000000000000000000000000000000000000000000000000815260040161051e9061249e565b60405180910390fd5b6105318282611157565b5050565b600060ff8251111561057c576040517f08c379a00000000000000000000000000000000000000000000000000000000081526004016105739061245e565b60405180910390fd5b60005b82518110156106c057600083828151811061059d5761059c612972565b5b602002602001015190506105bb81600461118b90919063ffffffff16565b6105fa576040517f08c379a00000000000000000000000000000000000000000000000000000000081526004016105f1906123fe565b60405180910390fd5b73__LicenseTools__________________________63995e922886836040518363ffffffff1660e01b81526004016106339291906124fb565b60206040518083038186803b15801561064b57600080fd5b505af415801561065f573d6000803e3d6000fd5b505050506040513d601f19601f820116820180604052508101906106839190611d23565b6106ac576003600082815260200190815260200160002060010154836106a99190612617565b92505b5080806106b89061286d565b91505061057f565b5092915050565b6106f87f09717ac20005278352439ebfe1b489a0fa1eccb8e4f93830ef8886bb58ec7bc56106f361114f565b610967565b610737576040517f08c379a000000000000000000000000000000000000000000000000000000000815260040161072e9061247e565b60405180910390fd5b8161074c81600461118b90919063ffffffff16565b61078b576040517f08c379a0000000000000000000000000000000000000000000000000000000008152600401610782906123fe565b60405180910390fd5b8260036000858152602001908152602001600020600001819055508160036000858152602001908152602001600020600101819055507fbe47c7a73e9987645e9dfd7ad96ae06038499bd80349f42ae0d3f248147a6d63836040516107f091906124e0565b60405180910390a1505050565b600080600090505b61080f60046111a5565b8110156108f557600061082c8260046111ba90919063ffffffff16565b905073__LicenseTools__________________________63995e922885836040518363ffffffff1660e01b81526004016108679291906124fb565b60206040518083038186803b15801561087f57600080fd5b505af4158015610893573d6000803e3d6000fd5b505050506040513d601f19601f820116820180604052508101906108b79190611d23565b156108e1576003600082815260200190815260200160002060010154836108de9190612617565b92505b5080806108ed9061286d565b915050610805565b50919050565b6109036111d4565b61090d6000611252565b565b60008060009054906101000a900473ffffffffffffffffffffffffffffffffffffffff16905090565b600061095f826002600086815260200190815260200160002061131690919063ffffffff16565b905092915050565b60006001600084815260200190815260200160002060000160008373ffffffffffffffffffffffffffffffffffffffff1673ffffffffffffffffffffffffffffffffffffffff16815260200190815260200160002060009054906101000a900460ff16905092915050565b610a037f09717ac20005278352439ebfe1b489a0fa1eccb8e4f93830ef8886bb58ec7bc56109fe61114f565b610967565b610a42576040517f08c379a0000000000000000000000000000000000000000000000000000000008152600401610a399061247e565b60405180910390fd5b80610a5781600461118b90919063ffffffff16565b610a96576040517f08c379a0000000000000000000000000000000000000000000000000000000008152600401610a8d906123fe565b60405180910390fd5b610aaa82600461133090919063ffffffff16565b506003600083815260200190815260200160002060008082016000905560018201600090556002820160006101000a81549060ff02191690556003820160009055600482016000610afb9190611a43565b50507fa19e6ca0490521729aff248310cbf581a6fe2311eb507789baa2a448418cb6d182604051610b2c91906124e0565b60405180910390a15050565b6000801b81565b7f09717ac20005278352439ebfe1b489a0fa1eccb8e4f93830ef8886bb58ec7bc581565b6000610b806002600084815260200190815260200160002061134a565b9050919050565b610b9082610471565b610b9981611107565b610ba38383611157565b505050565b610bd97f09717ac20005278352439ebfe1b489a0fa1eccb8e4f93830ef8886bb58ec7bc5610bd461114f565b610967565b610c18576040517f08c379a0000000000000000000000000000000000000000000000000000000008152600401610c0f9061247e565b60405180910390fd5b60ff851115610c5c576040517f08c379a0000000000000000000000000000000000000000000000000000000008152600401610c539061245e565b60405180910390fd5b610c7085600461118b90919063ffffffff16565b15610cb0576040517f08c379a0000000000000000000000000000000000000000000000000000000008152600401610ca79061241e565b60405180910390fd5b610cc485600461135f90919063ffffffff16565b506000600360008781526020019081526020016000209050858160000181905550848160010181905550838160020160006101000a81548160ff02191690836001811115610d1557610d146128e5565b5b021790555082816003018190555081816004019080519060200190610d3b929190611a83565b507f0667f1ff84f263e937dd6dad3f916fa5e39ef2f47ce7f39f8eafc4a41019019c86604051610d6b91906124e0565b60405180910390a1505050505050565b610d83611b09565b81610d9881600461118b90919063ffffffff16565b610dd7576040517f08c379a0000000000000000000000000000000000000000000000000000000008152600401610dce906123fe565b60405180910390fd5b600360008481526020019081526020016000206040518060a001604052908160008201548152602001600182015481526020016002820160009054906101000a900460ff166001811115610e2e57610e2d6128e5565b5b6001811115610e4057610e3f6128e5565b5b815260200160038201548152602001600482018054610e5e9061280a565b80601f0160208091040260200160405190810160405280929190818152602001828054610e8a9061280a565b8015610ed75780601f10610eac57610100808354040283529160200191610ed7565b820191906000526020600020905b815481529060010190602001808311610eba57829003601f168201915b505050505081525050915050919050565b610ef06111d4565b600073ffffffffffffffffffffffffffffffffffffffff168173ffffffffffffffffffffffffffffffffffffffff161415610f60576040517f08c379a0000000000000000000000000000000000000000000000000000000008152600401610f57906123de565b60405180910390fd5b610f6981611252565b50565b6060610f786004611379565b905090565b610f878282610967565b61105957600180600084815260200190815260200160002060000160008373ffffffffffffffffffffffffffffffffffffffff1673ffffffffffffffffffffffffffffffffffffffff16815260200190815260200160002060006101000a81548160ff021916908315150217905550610ffe61114f565b73ffffffffffffffffffffffffffffffffffffffff168173ffffffffffffffffffffffffffffffffffffffff16837f2f8788117e7eff1d82e926ec794901d17c78024a50270940304540a733656f0d60405160405180910390a45b5050565b6000611085836000018373ffffffffffffffffffffffffffffffffffffffff1660001b61139a565b905092915050565b60007f7965db0b000000000000000000000000000000000000000000000000000000007bffffffffffffffffffffffffffffffffffffffffffffffffffffffff1916827bffffffffffffffffffffffffffffffffffffffffffffffffffffffff1916148061110057506110ff8261140a565b5b9050919050565b6111188161111361114f565b611474565b50565b6111258282610f7d565b61114a816002600085815260200190815260200160002061105d90919063ffffffff16565b505050565b600033905090565b61116182826114f9565b61118681600260008581526020019081526020016000206115db90919063ffffffff16565b505050565b600061119d836000018360001b61160b565b905092915050565b60006111b38260000161162e565b9050919050565b60006111c9836000018361163f565b60001c905092915050565b6111dc61114f565b73ffffffffffffffffffffffffffffffffffffffff166111fa61090f565b73ffffffffffffffffffffffffffffffffffffffff1614611250576040517f08c379a00000000000000000000000000000000000000000000000000000000081526004016112479061243e565b60405180910390fd5b565b60008060009054906101000a900473ffffffffffffffffffffffffffffffffffffffff169050816000806101000a81548173ffffffffffffffffffffffffffffffffffffffff021916908373ffffffffffffffffffffffffffffffffffffffff1602179055508173ffffffffffffffffffffffffffffffffffffffff168173ffffffffffffffffffffffffffffffffffffffff167f8be0079c531659141344cd1fd0a4f28419497f9722a3daafe3b4186f6b6457e060405160405180910390a35050565b6000611325836000018361163f565b60001c905092915050565b6000611342836000018360001b61166a565b905092915050565b60006113588260000161162e565b9050919050565b6000611371836000018360001b61139a565b905092915050565b606060006113898360000161177e565b905060608190508092505050919050565b60006113a6838361160b565b6113ff578260000182908060018154018082558091505060019003906000526020600020016000909190919091505582600001805490508360010160008481526020019081526020016000208190555060019050611404565b600090505b92915050565b60007f01ffc9a7000000000000000000000000000000000000000000000000000000007bffffffffffffffffffffffffffffffffffffffffffffffffffffffff1916827bffffffffffffffffffffffffffffffffffffffffffffffffffffffff1916149050919050565b61147e8282610967565b6114f55761148b816117da565b6114998360001c6020611807565b6040516020016114aa9291906122ef565b6040516020818303038152906040526040517f08c379a00000000000000000000000000000000000000000000000000000000081526004016114ec919061239c565b60405180910390fd5b5050565b6115038282610967565b156115d75760006001600084815260200190815260200160002060000160008373ffffffffffffffffffffffffffffffffffffffff1673ffffffffffffffffffffffffffffffffffffffff16815260200190815260200160002060006101000a81548160ff02191690831515021790555061157c61114f565b73ffffffffffffffffffffffffffffffffffffffff168173ffffffffffffffffffffffffffffffffffffffff16837ff6391f5c32d9c69d2a47ea670b442974b53935d1edc7fd64eb21e047a839171b60405160405180910390a45b5050565b6000611603836000018373ffffffffffffffffffffffffffffffffffffffff1660001b61166a565b905092915050565b600080836001016000848152602001908152602001600020541415905092915050565b600081600001805490509050919050565b600082600001828154811061165757611656612972565b5b9060005260206000200154905092915050565b6000808360010160008481526020019081526020016000205490506000811461177257600060018261169c91906126c7565b90506000600186600001805490506116b491906126c7565b90508181146117235760008660000182815481106116d5576116d4612972565b5b90600052602060002001549050808760000184815481106116f9576116f8612972565b5b90600052602060002001819055508387600101600083815260200190815260200160002081905550505b8560000180548061173757611736612943565b5b600190038181906000526020600020016000905590558560010160008681526020019081526020016000206000905560019350505050611778565b60009150505b92915050565b6060816000018054806020026020016040519081016040528092919081815260200182805480156117ce57602002820191906000526020600020905b8154815260200190600101908083116117ba575b50505050509050919050565b60606118008273ffffffffffffffffffffffffffffffffffffffff16601460ff16611807565b9050919050565b60606000600283600261181a919061266d565b6118249190612617565b67ffffffffffffffff81111561183d5761183c6129a1565b5b6040519080825280601f01601f19166020018201604052801561186f5781602001600182028036833780820191505090505b5090507f3000000000000000000000000000000000000000000000000000000000000000816000815181106118a7576118a6612972565b5b60200101907effffffffffffffffffffffffffffffffffffffffffffffffffffffffffffff1916908160001a9053507f78000000000000000000000000000000000000000000000000000000000000008160018151811061190b5761190a612972565b5b60200101907effffffffffffffffffffffffffffffffffffffffffffffffffffffffffffff1916908160001a9053506000600184600261194b919061266d565b6119559190612617565b90505b60018111156119f5577f3031323334353637383961626364656600000000000000000000000000000000600f86166010811061199757611996612972565b5b1a60f81b8282815181106119ae576119ad612972565b5b60200101907effffffffffffffffffffffffffffffffffffffffffffffffffffffffffffff1916908160001a905350600485901c9450806119ee906127e0565b9050611958565b5060008414611a39576040517f08c379a0000000000000000000000000000000000000000000000000000000008152600401611a30906123be565b60405180910390fd5b8091505092915050565b508054611a4f9061280a565b6000825580601f10611a615750611a80565b601f016020900490600052602060002090810190611a7f9190611b4d565b5b50565b828054611a8f9061280a565b90600052602060002090601f016020900481019282611ab15760008555611af8565b82601f10611aca57805160ff1916838001178555611af8565b82800160010185558215611af8579182015b82811115611af7578251825591602001919060010190611adc565b5b509050611b059190611b4d565b5090565b6040518060a00160405280600081526020016000815260200160006001811115611b3657611b356128e5565b5b815260200160008019168152602001606081525090565b5b80821115611b66576000816000905550600101611b4e565b5090565b6000611b7d611b7884612549565b612524565b90508083825260208201905082856020860282011115611ba057611b9f6129d5565b5b60005b85811015611bd05781611bb68882611ce1565b845260208401935060208301925050600181019050611ba3565b5050509392505050565b6000611bed611be884612575565b612524565b905082815260208101848484011115611c0957611c086129da565b5b611c1484828561279e565b509392505050565b600081359050611c2b81612c1a565b92915050565b600082601f830112611c4657611c456129d0565b5b8135611c56848260208601611b6a565b91505092915050565b600081519050611c6e81612c31565b92915050565b600081359050611c8381612c48565b92915050565b600081359050611c9881612c5f565b92915050565b600081359050611cad81612c76565b92915050565b600082601f830112611cc857611cc76129d0565b5b8135611cd8848260208601611bda565b91505092915050565b600081359050611cf081612c86565b92915050565b600060208284031215611d0c57611d0b6129e4565b5b6000611d1a84828501611c1c565b91505092915050565b600060208284031215611d3957611d386129e4565b5b6000611d4784828501611c5f565b91505092915050565b600060208284031215611d6657611d656129e4565b5b6000611d7484828501611c74565b91505092915050565b60008060408385031215611d9457611d936129e4565b5b6000611da285828601611c74565b9250506020611db385828601611c1c565b9150509250929050565b60008060408385031215611dd457611dd36129e4565b5b6000611de285828601611c74565b9250506020611df385828601611ce1565b9150509250929050565b600060208284031215611e1357611e126129e4565b5b6000611e2184828501611c89565b91505092915050565b600060208284031215611e4057611e3f6129e4565b5b6000611e4e84828501611ce1565b91505092915050565b60008060408385031215611e6e57611e6d6129e4565b5b6000611e7c85828601611ce1565b925050602083013567ffffffffffffffff811115611e9d57611e9c6129df565b5b611ea985828601611c31565b9150509250929050565b60008060408385031215611eca57611ec96129e4565b5b6000611ed885828601611ce1565b9250506020611ee985828601611ce1565b9150509250929050565b600080600080600060a08688031215611f0f57611f0e6129e4565b5b6000611f1d88828901611ce1565b9550506020611f2e88828901611ce1565b9450506040611f3f88828901611c9e565b9350506060611f5088828901611c74565b925050608086013567ffffffffffffffff811115611f7157611f706129df565b5b611f7d88828901611cb3565b9150509295509295909350565b6000611f9683836122c2565b60208301905092915050565b611fab816126fb565b82525050565b6000611fbc826125b6565b611fc681856125d9565b9350611fd1836125a6565b8060005b83811015612002578151611fe98882611f8a565b9750611ff4836125cc565b925050600181019050611fd5565b5085935050505092915050565b6120188161270d565b82525050565b61202781612719565b82525050565b61203681612719565b82525050565b6120458161278c565b82525050565b6000612056826125c1565b61206081856125ea565b93506120708185602086016127ad565b612079816129e9565b840191505092915050565b600061208f826125c1565b61209981856125fb565b93506120a98185602086016127ad565b6120b2816129e9565b840191505092915050565b60006120c8826125c1565b6120d2818561260c565b93506120e28185602086016127ad565b80840191505092915050565b60006120fb6020836125fb565b9150612106826129fa565b602082019050919050565b600061211e6026836125fb565b915061212982612a23565b604082019050919050565b60006121416007836125fb565b915061214c82612a72565b602082019050919050565b60006121646003836125fb565b915061216f82612a9b565b602082019050919050565b60006121876020836125fb565b915061219282612ac4565b602082019050919050565b60006121aa6005836125fb565b91506121b582612aed565b602082019050919050565b60006121cd602a836125fb565b91506121d882612b16565b604082019050919050565b60006121f060178361260c565b91506121fb82612b65565b601782019050919050565b600061221360118361260c565b915061221e82612b8e565b601182019050919050565b6000612236602f836125fb565b915061224182612bb7565b604082019050919050565b600060a08301600083015161226460008601826122c2565b50602083015161227760208601826122c2565b50604083015161228a604086018261203c565b50606083015161229d606086018261201e565b50608083015184820360808601526122b5828261204b565b9150508091505092915050565b6122cb81612782565b82525050565b6122da81612782565b82525050565b6122e981612782565b82525050565b60006122fa826121e3565b915061230682856120bd565b915061231182612206565b915061231d82846120bd565b91508190509392505050565b600060208201905061233e6000830184611fa2565b92915050565b6000602082019050818103600083015261235e8184611fb1565b905092915050565b600060208201905061237b600083018461200f565b92915050565b6000602082019050612396600083018461202d565b92915050565b600060208201905081810360008301526123b68184612084565b905092915050565b600060208201905081810360008301526123d7816120ee565b9050919050565b600060208201905081810360008301526123f781612111565b9050919050565b6000602082019050818103600083015261241781612134565b9050919050565b6000602082019050818103600083015261243781612157565b9050919050565b600060208201905081810360008301526124578161217a565b9050919050565b600060208201905081810360008301526124778161219d565b9050919050565b60006020820190508181036000830152612497816121c0565b9050919050565b600060208201905081810360008301526124b781612229565b9050919050565b600060208201905081810360008301526124d8818461224c565b905092915050565b60006020820190506124f560008301846122d1565b92915050565b600060408201905061251060008301856122e0565b61251d60208301846122e0565b9392505050565b600061252e61253f565b905061253a828261283c565b919050565b6000604051905090565b600067ffffffffffffffff821115612564576125636129a1565b5b602082029050602081019050919050565b600067ffffffffffffffff8211156125905761258f6129a1565b5b612599826129e9565b9050602081019050919050565b6000819050602082019050919050565b600081519050919050565b600081519050919050565b6000602082019050919050565b600082825260208201905092915050565b600082825260208201905092915050565b600082825260208201905092915050565b600081905092915050565b600061262282612782565b915061262d83612782565b9250827fffffffffffffffffffffffffffffffffffffffffffffffffffffffffffffffff03821115612662576126616128b6565b5b828201905092915050565b600061267882612782565b915061268383612782565b9250817fffffffffffffffffffffffffffffffffffffffffffffffffffffffffffffffff04831182151516156126bc576126bb6128b6565b5b828202905092915050565b60006126d282612782565b91506126dd83612782565b9250828210156126f0576126ef6128b6565b5b828203905092915050565b600061270682612762565b9050919050565b60008115159050919050565b6000819050919050565b60007fffffffff0000000000000000000000000000000000000000000000000000000082169050919050565b600081905061275d82612c06565b919050565b600073ffffffffffffffffffffffffffffffffffffffff82169050919050565b6000819050919050565b60006127978261274f565b9050919050565b82818337600083830152505050565b60005b838110156127cb5780820151818401526020810190506127b0565b838111156127da576000848401525b50505050565b60006127eb82612782565b915060008214156127ff576127fe6128b6565b5b600182039050919050565b6000600282049050600182168061282257607f821691505b6020821081141561283657612835612914565b5b50919050565b612845826129e9565b810181811067ffffffffffffffff82111715612864576128636129a1565b5b80604052505050565b600061287882612782565b91507fffffffffffffffffffffffffffffffffffffffffffffffffffffffffffffffff8214156128ab576128aa6128b6565b5b600182019050919050565b7f4e487b7100000000000000000000000000000000000000000000000000000000600052601160045260246000fd5b7f4e487b7100000000000000000000000000000000000000000000000000000000600052602160045260246000fd5b7f4e487b7100000000000000000000000000000000000000000000000000000000600052602260045260246000fd5b7f4e487b7100000000000000000000000000000000000000000000000000000000600052603160045260246000fd5b7f4e487b7100000000000000000000000000000000000000000000000000000000600052603260045260246000fd5b7f4e487b7100000000000000000000000000000000000000000000000000000000600052604160045260246000fd5b600080fd5b600080fd5b600080fd5b600080fd5b600080fd5b6000601f19601f8301169050919050565b7f537472696e67733a20686578206c656e67746820696e73756666696369656e74600082015250565b7f4f776e61626c653a206e6577206f776e657220697320746865207a65726f206160008201527f6464726573730000000000000000000000000000000000000000000000000000602082015250565b7f4e4f54464e445300000000000000000000000000000000000000000000000000600082015250565b7f464e440000000000000000000000000000000000000000000000000000000000600082015250565b7f4f776e61626c653a2063616c6c6572206973206e6f7420746865206f776e6572600082015250565b7f4f55545247000000000000000000000000000000000000000000000000000000600082015250565b7f556e617574686f72697a652e204d757374206861732073657276696365204d6160008201527f6e6167657220726f6c6500000000000000000000000000000000000000000000602082015250565b7f416363657373436f6e74726f6c3a206163636f756e7420000000000000000000600082015250565b7f206973206d697373696e6720726f6c6520000000000000000000000000000000600082015250565b7f416363657373436f6e74726f6c3a2063616e206f6e6c792072656e6f756e636560008201527f20726f6c657320666f722073656c660000000000000000000000000000000000602082015250565b60028110612c1757612c166128e5565b5b50565b612c23816126fb565b8114612c2e57600080fd5b50565b612c3a8161270d565b8114612c4557600080fd5b50565b612c5181612719565b8114612c5c57600080fd5b50565b612c6881612723565b8114612c7357600080fd5b50565b60028110612c8357600080fd5b50565b612c8f81612782565b8114612c9a57600080fd5b5056fea2646970667358221220299c5bfa746f1df9d289a0a3ce3c9f8f6d5d37a815c8f447eae5ac555b1b3f8e64736f6c63430008070033",
  "immutableReferences": {},
  "source": "// SPDX-License-Identifier: MIT\r\npragma solidity ^0.8.7;\r\nimport \"@openzeppelin/contracts/utils/structs/EnumerableSet.sol\";\r\nimport \"@openzeppelin/contracts/access/Ownable.sol\";\r\nimport \"@openzeppelin/contracts/access/AccessControlEnumerable.sol\";\r\n\r\nimport \"./LicenseTools.sol\";\r\n\r\nenum ServiceType {\r\n    READ,\r\n    WRITE\r\n}\r\n\r\nstruct ServiceInfo {\r\n    uint256 serviceId;\r\n    uint256 oneMonthLicencePrice;\r\n    // uint256 reading10000PartsFeed; //percert using 10000 as base. Ex 138 means 1.38%\r\n    // uint256 readingPeriodSeconds;\r\n    // uint256 minimalWeiFeed;\r\n    ServiceType serviceType;\r\n    bytes32 name;\r\n    string description;\r\n}\r\n\r\nuint256 constant MAX_NUMBER_OF_SERVICES = 255;\r\nuint256 constant SERVICE_PERCENT_BASE = 10000;\r\n\r\ncontract ServiceManager is Ownable, AccessControlEnumerable {\r\n    /**\r\n    CONSTANTS\r\n    */\r\n    bytes32 public constant SERVICE_MANAGER_ROLE =\r\n        keccak256(\"SERVICE_MANAGER_ROLE\");\r\n\r\n    using EnumerableSet for EnumerableSet.UintSet;\r\n\r\n    /******************************\r\n        EVENTS\r\n    ******************************/\r\n\r\n    event serviceAdded(uint256 id);\r\n    event serviceUpdated(uint256 id);\r\n    event serviceRemoved(uint256 id);\r\n\r\n    //Modifiers\r\n    modifier onlyRegisteredServices(uint256 serviceId) {\r\n        require(registeredIds.contains(serviceId), \"NOTFNDS\");\r\n        _;\r\n    }\r\n\r\n    modifier onlyServiceManager() {\r\n        require(\r\n            hasRole(SERVICE_MANAGER_ROLE, _msgSender()),\r\n            \"Unauthorize. Must has service Manager role\"\r\n        );\r\n        _;\r\n    }\r\n\r\n    // Services\r\n    mapping(uint256 => ServiceInfo) registeredServices;\r\n    // List of Id for quick\r\n    EnumerableSet.UintSet registeredIds;\r\n\r\n    constructor() {\r\n        _setupRole(DEFAULT_ADMIN_ROLE, _msgSender());\r\n        _setupRole(SERVICE_MANAGER_ROLE, _msgSender());\r\n    }\r\n\r\n    /**\r\n     * @notice register service\r\n     * @param serviceId service Id\r\n     * @param serviceType service Type\r\n     * @param name service short name\r\n     * @param description service description\r\n     */\r\n    function registerService(\r\n        uint256 serviceId,\r\n        uint256 oneMonthLicencePrice,\r\n        ServiceType serviceType,\r\n        bytes32 name,\r\n        string memory description\r\n    )\r\n        public\r\n        onlyServiceManager\r\n    {\r\n        require(serviceId <= MAX_NUMBER_OF_SERVICES, \"OUTRG\");\r\n        require(\r\n            !registeredIds.contains(serviceId),\r\n            \"FND\"\r\n        );\r\n        registeredIds.add(serviceId);\r\n        ServiceInfo storage serviceInfo = registeredServices[serviceId];\r\n        serviceInfo.serviceId = serviceId;\r\n        serviceInfo.oneMonthLicencePrice = oneMonthLicencePrice;\r\n        serviceInfo.serviceType = serviceType;\r\n        serviceInfo.name = name;\r\n        serviceInfo.description = description;\r\n        emit serviceAdded(serviceId);\r\n    }\r\n\r\n    /**\r\n     * @notice Update service\r\n     * @param serviceId service Id\r\n     */\r\n    function updateService(\r\n        uint256 serviceId,\r\n        uint256 oneMonthLicencePrice\r\n    )\r\n        public\r\n        onlyServiceManager\r\n        onlyRegisteredServices(serviceId)\r\n    {\r\n        registeredServices[serviceId].serviceId = serviceId;\r\n        registeredServices[serviceId]\r\n            .oneMonthLicencePrice = oneMonthLicencePrice;\r\n        emit serviceUpdated(serviceId);\r\n    }\r\n\r\n    /**\r\n     * @notice remove service\r\n     * @param serviceId service Id\r\n     */\r\n    function removeService(uint256 serviceId)\r\n        public\r\n        onlyServiceManager\r\n        onlyRegisteredServices(serviceId)\r\n    {\r\n        registeredIds.remove(serviceId);\r\n        delete registeredServices[serviceId];\r\n        emit serviceRemoved(serviceId);\r\n    }\r\n\r\n    /**\r\n    * @notice get all services Ids.\r\n    * Return the entire set in an array\r\n    //\r\n    // WARNING\tThis operation will copy the entire storage to memory,\r\n    // which can be quite expensive. This is designed to mostly be used by view\r\n    // accessors that are queried without any gas fees.\r\n    // Developers should keep in mind that this function\r\n    // has an unbounded cost, and using it as part of a state-changing\r\n    // function may render the function uncallable if the set grows to a\r\n    // point where copying to memory consumes too much gas to fit in a block.\r\n    */\r\n    function getAllServiceIds() public view returns (uint256[] memory) {\r\n        return registeredIds.values();\r\n    }\r\n\r\n    /**\r\n     * @notice get service by id.\r\n     * Return the entire set in an array\r\n     * @param id service id\r\n     */\r\n    function getService(uint256 id)\r\n        public\r\n        view\r\n        onlyRegisteredServices(id)\r\n        returns (ServiceInfo memory)\r\n    {\r\n        return registeredServices[id];\r\n    }\r\n\r\n    /**\r\n     * @notice get Extra Services Price Per Month\r\n     * Return the sum of all services\r\n     * @param servicesIdsPool current servicesIdsPool\r\n     * @param serviceIds service id\r\n     * @return sum service list price per month\r\n     */\r\n    function getAddedServicesPricePerMonth(\r\n        uint256 servicesIdsPool,\r\n        uint256[] memory serviceIds\r\n    ) public view returns (uint256 sum) {\r\n        require(\r\n            (serviceIds.length <= MAX_NUMBER_OF_SERVICES),\r\n            \"OUTRG\"\r\n        );\r\n        for (uint256 index = 0; index < serviceIds.length; index++) {\r\n            uint256 serviceId = serviceIds[index];\r\n            require(registeredIds.contains(serviceId), \"NOTFNDS\");\r\n            if (!LicenseTools.getBoolean(servicesIdsPool, serviceId))\r\n                sum += registeredServices[serviceId].oneMonthLicencePrice;\r\n        }\r\n    }\r\n\r\n    /**\r\n     * @notice get the total Price Per Month for all services in the servicesIdsPool\r\n     * Return the sum of all services\r\n     * @param servicesIdsPool current servicesIdsPool of services\r\n     * @return sum service list price per month\r\n     */\r\n    function getServicesIdsPoolPricePerMonth(\r\n        uint256 servicesIdsPool\r\n    ) public view returns (uint256 sum) {\r\n\r\n        for (uint256 index = 0; index < registeredIds.length() ; index++) {\r\n            uint serviceId = registeredIds.at(index);\r\n            if (LicenseTools.getBoolean(servicesIdsPool, serviceId))\r\n                sum += registeredServices[serviceId].oneMonthLicencePrice;\r\n        }\r\n    }    \r\n}\r\n",
  "sourcePath": "C:\\Users\\israel\\Documents\\codes\\dev\\cryptween\\smart-contract-3\\contracts\\ServiceManager.sol",
  "compiler": {
    "name": "solc",
    "version": "0.8.7+commit.e28d00a7.Emscripten.clang"
  },
  "schemaVersion": "3.4.13",
  "updatedAt": "2023-06-12T20:26:48.484Z",
  "networkType": "ethereum",
  "devdoc": {
    "kind": "dev",
    "methods": {
      "getAddedServicesPricePerMonth(uint256,uint256[])": {
        "params": {
          "serviceIds": "service id",
          "servicesIdsPool": "current servicesIdsPool"
        },
        "returns": {
          "sum": "service list price per month"
        }
      },
      "getRoleAdmin(bytes32)": {
        "details": "Returns the admin role that controls `role`. See {grantRole} and {revokeRole}. To change a role's admin, use {_setRoleAdmin}."
      },
      "getRoleMember(bytes32,uint256)": {
        "details": "Returns one of the accounts that have `role`. `index` must be a value between 0 and {getRoleMemberCount}, non-inclusive. Role bearers are not sorted in any particular way, and their ordering may change at any point. WARNING: When using {getRoleMember} and {getRoleMemberCount}, make sure you perform all queries on the same block. See the following https://forum.openzeppelin.com/t/iterating-over-elements-on-enumerableset-in-openzeppelin-contracts/2296[forum post] for more information."
      },
      "getRoleMemberCount(bytes32)": {
        "details": "Returns the number of accounts that have `role`. Can be used together with {getRoleMember} to enumerate all bearers of a role."
      },
      "getService(uint256)": {
        "params": {
          "id": "service id"
        }
      },
      "getServicesIdsPoolPricePerMonth(uint256)": {
        "params": {
          "servicesIdsPool": "current servicesIdsPool of services"
        },
        "returns": {
          "sum": "service list price per month"
        }
      },
      "grantRole(bytes32,address)": {
        "details": "Grants `role` to `account`. If `account` had not been already granted `role`, emits a {RoleGranted} event. Requirements: - the caller must have ``role``'s admin role. May emit a {RoleGranted} event."
      },
      "hasRole(bytes32,address)": {
        "details": "Returns `true` if `account` has been granted `role`."
      },
      "owner()": {
        "details": "Returns the address of the current owner."
      },
      "registerService(uint256,uint256,uint8,bytes32,string)": {
        "params": {
          "description": "service description",
          "name": "service short name",
          "serviceId": "service Id",
          "serviceType": "service Type"
        }
      },
      "removeService(uint256)": {
        "params": {
          "serviceId": "service Id"
        }
      },
      "renounceOwnership()": {
        "details": "Leaves the contract without owner. It will not be possible to call `onlyOwner` functions anymore. Can only be called by the current owner. NOTE: Renouncing ownership will leave the contract without an owner, thereby removing any functionality that is only available to the owner."
      },
      "renounceRole(bytes32,address)": {
        "details": "Revokes `role` from the calling account. Roles are often managed via {grantRole} and {revokeRole}: this function's purpose is to provide a mechanism for accounts to lose their privileges if they are compromised (such as when a trusted device is misplaced). If the calling account had been revoked `role`, emits a {RoleRevoked} event. Requirements: - the caller must be `account`. May emit a {RoleRevoked} event."
      },
      "revokeRole(bytes32,address)": {
        "details": "Revokes `role` from `account`. If `account` had been granted `role`, emits a {RoleRevoked} event. Requirements: - the caller must have ``role``'s admin role. May emit a {RoleRevoked} event."
      },
      "supportsInterface(bytes4)": {
        "details": "See {IERC165-supportsInterface}."
      },
      "transferOwnership(address)": {
        "details": "Transfers ownership of the contract to a new account (`newOwner`). Can only be called by the current owner."
      },
      "updateService(uint256,uint256)": {
        "params": {
          "serviceId": "service Id"
        }
      }
    },
    "version": 1
  },
  "userdoc": {
    "kind": "user",
    "methods": {
      "SERVICE_MANAGER_ROLE()": {
        "notice": "CONSTANTS"
      },
      "getAddedServicesPricePerMonth(uint256,uint256[])": {
        "notice": "get Extra Services Price Per Month Return the sum of all services"
      },
      "getAllServiceIds()": {
        "notice": "get all services Ids. Return the entire set in an array // // WARNING\tThis operation will copy the entire storage to memory, // which can be quite expensive. This is designed to mostly be used by view // accessors that are queried without any gas fees. // Developers should keep in mind that this function // has an unbounded cost, and using it as part of a state-changing // function may render the function uncallable if the set grows to a // point where copying to memory consumes too much gas to fit in a block."
      },
      "getService(uint256)": {
        "notice": "get service by id. Return the entire set in an array"
      },
      "getServicesIdsPoolPricePerMonth(uint256)": {
        "notice": "get the total Price Per Month for all services in the servicesIdsPool Return the sum of all services"
      },
      "registerService(uint256,uint256,uint8,bytes32,string)": {
        "notice": "register service"
      },
      "removeService(uint256)": {
        "notice": "remove service"
      },
      "updateService(uint256,uint256)": {
        "notice": "Update service"
      }
    },
    "version": 1
  }
}