{
  "contractName": "UserMonitoringCenter",
  "abi": [
    {
      "anonymous": false,
      "inputs": [
        {
          "indexed": false,
          "internalType": "address",
          "name": "contractAddress",
          "type": "address"
        }
      ],
      "name": "BlockchainUsersContractCreated",
      "type": "event"
    },
    {
      "anonymous": false,
      "inputs": [
        {
          "indexed": true,
          "internalType": "bytes32",
          "name": "role",
          "type": "bytes32"
        },
        {
          "indexed": true,
          "internalType": "bytes32",
          "name": "previousAdminRole",
          "type": "bytes32"
        },
        {
          "indexed": true,
          "internalType": "bytes32",
          "name": "newAdminRole",
          "type": "bytes32"
        }
      ],
      "name": "RoleAdminChanged",
      "type": "event"
    },
    {
      "anonymous": false,
      "inputs": [
        {
          "indexed": true,
          "internalType": "bytes32",
          "name": "role",
          "type": "bytes32"
        },
        {
          "indexed": true,
          "internalType": "address",
          "name": "account",
          "type": "address"
        },
        {
          "indexed": true,
          "internalType": "address",
          "name": "sender",
          "type": "address"
        }
      ],
      "name": "RoleGranted",
      "type": "event"
    },
    {
      "anonymous": false,
      "inputs": [
        {
          "indexed": true,
          "internalType": "bytes32",
          "name": "role",
          "type": "bytes32"
        },
        {
          "indexed": true,
          "internalType": "address",
          "name": "account",
          "type": "address"
        },
        {
          "indexed": true,
          "internalType": "address",
          "name": "sender",
          "type": "address"
        }
      ],
      "name": "RoleRevoked",
      "type": "event"
    },
    {
      "inputs": [],
      "name": "DEFAULT_ADMIN_ROLE",
      "outputs": [
        {
          "internalType": "bytes32",
          "name": "",
          "type": "bytes32"
        }
      ],
      "stateMutability": "view",
      "type": "function"
    },
    {
      "inputs": [
        {
          "internalType": "bytes32",
          "name": "role",
          "type": "bytes32"
        }
      ],
      "name": "getRoleAdmin",
      "outputs": [
        {
          "internalType": "bytes32",
          "name": "",
          "type": "bytes32"
        }
      ],
      "stateMutability": "view",
      "type": "function"
    },
    {
      "inputs": [
        {
          "internalType": "bytes32",
          "name": "role",
          "type": "bytes32"
        },
        {
          "internalType": "address",
          "name": "account",
          "type": "address"
        }
      ],
      "name": "grantRole",
      "outputs": [],
      "stateMutability": "nonpayable",
      "type": "function"
    },
    {
      "inputs": [
        {
          "internalType": "bytes32",
          "name": "role",
          "type": "bytes32"
        },
        {
          "internalType": "address",
          "name": "account",
          "type": "address"
        }
      ],
      "name": "hasRole",
      "outputs": [
        {
          "internalType": "bool",
          "name": "",
          "type": "bool"
        }
      ],
      "stateMutability": "view",
      "type": "function"
    },
    {
      "inputs": [
        {
          "internalType": "bytes32",
          "name": "role",
          "type": "bytes32"
        },
        {
          "internalType": "address",
          "name": "account",
          "type": "address"
        }
      ],
      "name": "renounceRole",
      "outputs": [],
      "stateMutability": "nonpayable",
      "type": "function"
    },
    {
      "inputs": [
        {
          "internalType": "bytes32",
          "name": "role",
          "type": "bytes32"
        },
        {
          "internalType": "address",
          "name": "account",
          "type": "address"
        }
      ],
      "name": "revokeRole",
      "outputs": [],
      "stateMutability": "nonpayable",
      "type": "function"
    },
    {
      "inputs": [
        {
          "internalType": "bytes4",
          "name": "interfaceId",
          "type": "bytes4"
        }
      ],
      "name": "supportsInterface",
      "outputs": [
        {
          "internalType": "bool",
          "name": "",
          "type": "bool"
        }
      ],
      "stateMutability": "view",
      "type": "function"
    },
    {
      "inputs": [
        {
          "internalType": "address",
          "name": "managementCenterOwnerAddress",
          "type": "address"
        },
        {
          "internalType": "address",
          "name": "userAddress",
          "type": "address"
        },
        {
          "internalType": "address",
          "name": "serviceManagerAddress",
          "type": "address"
        },
        {
          "internalType": "address",
          "name": "licenseTokenAddress",
          "type": "address"
        },
        {
          "internalType": "address",
          "name": "blockchainManagerAddress",
          "type": "address"
        }
      ],
      "name": "initialize",
      "outputs": [],
      "stateMutability": "nonpayable",
      "type": "function"
    },
    {
      "inputs": [
        {
          "internalType": "address",
          "name": "newManagementCenterAddress",
          "type": "address"
        }
      ],
      "name": "transferManagement",
      "outputs": [],
      "stateMutability": "nonpayable",
      "type": "function"
    },
    {
      "inputs": [
        {
          "internalType": "bool",
          "name": "isActive",
          "type": "bool"
        }
      ],
      "name": "setActivity",
      "outputs": [],
      "stateMutability": "nonpayable",
      "type": "function"
    },
    {
      "inputs": [
        {
          "internalType": "uint256",
          "name": "openReadingPool",
          "type": "uint256"
        }
      ],
      "name": "setOpenReadingServicePool",
      "outputs": [],
      "stateMutability": "nonpayable",
      "type": "function"
    },
    {
      "inputs": [],
      "name": "getOpenReadingServicePool",
      "outputs": [
        {
          "internalType": "uint256",
          "name": "",
          "type": "uint256"
        }
      ],
      "stateMutability": "view",
      "type": "function"
    },
    {
      "inputs": [
        {
          "internalType": "uint256",
          "name": "serviceId",
          "type": "uint256"
        }
      ],
      "name": "isOpenReadingService",
      "outputs": [
        {
          "internalType": "bool",
          "name": "",
          "type": "bool"
        }
      ],
      "stateMutability": "view",
      "type": "function"
    },
    {
      "inputs": [
        {
          "internalType": "uint256",
          "name": "blockchainId",
          "type": "uint256"
        }
      ],
      "name": "registerBlockchain",
      "outputs": [
        {
          "internalType": "address",
          "name": "",
          "type": "address"
        }
      ],
      "stateMutability": "nonpayable",
      "type": "function"
    },
    {
      "inputs": [
        {
          "internalType": "uint256",
          "name": "blockchainId",
          "type": "uint256"
        }
      ],
      "name": "getBlockchainManagerContractAddress",
      "outputs": [
        {
          "internalType": "address",
          "name": "",
          "type": "address"
        }
      ],
      "stateMutability": "view",
      "type": "function"
    },
    {
      "inputs": [],
      "name": "getAllRegisteredBlockchainIds",
      "outputs": [
        {
          "internalType": "uint256[]",
          "name": "",
          "type": "uint256[]"
        }
      ],
      "stateMutability": "view",
      "type": "function"
    }
  ],
  "bytecode": "0x60806040526001600d60016101000a81548160ff02191690831515021790555034801561002b57600080fd5b50615c758061003b6000396000f3fe608060405234801561001057600080fd5b50600436106101005760003560e01c806391d1485411610097578063d547741f11610066578063d547741f146102ab578063e4edf852146102c7578063ea1a83b6146102e3578063fb95f29b1461031357610100565b806391d1485414610223578063938cab56146102535780639dd0725414610271578063a217fddf1461028d57610100565b806336568abe116100d357806336568abe1461019d578063524236ce146101b957806359d531c4146101e957806387c255e31461020557610100565b806301ffc9a7146101055780631459457a14610135578063248a9ca3146101515780632f2ff15d14610181575b600080fd5b61011f600480360381019061011a91906119cb565b610343565b60405161012c9190611d95565b60405180910390f35b61014f600480360381019061014a9190611889565b6103bd565b005b61016b6004803603810190610166919061195e565b610712565b6040516101789190611db0565b60405180910390f35b61019b6004803603810190610196919061198b565b610731565b005b6101b760048036038101906101b2919061198b565b610752565b005b6101d360048036038101906101ce91906119f8565b6107d5565b6040516101e09190611d95565b60405180910390f35b61020360048036038101906101fe91906119f8565b6108b8565b005b61020d610981565b60405161021a9190611eed565b60405180910390f35b61023d6004803603810190610238919061198b565b6109da565b60405161024a9190611d95565b60405180910390f35b61025b610a44565b6040516102689190611d73565b60405180910390f35b61028b60048036038101906102869190611904565b610aa4565b005b610295610b31565b6040516102a29190611db0565b60405180910390f35b6102c560048036038101906102c0919061198b565b610b38565b005b6102e160048036038101906102dc919061185c565b610b59565b005b6102fd60048036038101906102f891906119f8565b610c34565b60405161030a9190611cf7565b60405180910390f35b61032d600480360381019061032891906119f8565b61106c565b60405161033a9190611cf7565b60405180910390f35b60007f7965db0b000000000000000000000000000000000000000000000000000000007bffffffffffffffffffffffffffffffffffffffffffffffffffffffff1916827bffffffffffffffffffffffffffffffffffffffffffffffffffffffff191614806103b657506103b5826110a9565b5b9050919050565b600d60009054906101000a900460ff161561040d576040517f08c379a000000000000000000000000000000000000000000000000000000000815260040161040490611e8d565b60405180910390fd5b84600260006101000a81548173ffffffffffffffffffffffffffffffffffffffff021916908373ffffffffffffffffffffffffffffffffffffffff16021790555083600160006101000a81548173ffffffffffffffffffffffffffffffffffffffff021916908373ffffffffffffffffffffffffffffffffffffffff1602179055506104db7fb19546dff01e856fb3f010c267a7b1c60363cf8a4664e21cc89c26224620214e600160009054906101000a900473ffffffffffffffffffffffffffffffffffffffff16611113565b6105277f241ecf16d79d0f8dbfb92cbc07fe17840425976cf0667f022fe9877caa831b08600260009054906101000a900473ffffffffffffffffffffffffffffffffffffffff16611113565b82600760006101000a81548173ffffffffffffffffffffffffffffffffffffffff021916908373ffffffffffffffffffffffffffffffffffffffff16021790555081600860006101000a81548173ffffffffffffffffffffffffffffffffffffffff021916908373ffffffffffffffffffffffffffffffffffffffff16021790555080600960006101000a81548173ffffffffffffffffffffffffffffffffffffffff021916908373ffffffffffffffffffffffffffffffffffffffff16021790555081600a60006101000a81548173ffffffffffffffffffffffffffffffffffffffff021916908373ffffffffffffffffffffffffffffffffffffffff16021790555080600b60006101000a81548173ffffffffffffffffffffffffffffffffffffffff021916908373ffffffffffffffffffffffffffffffffffffffff160217905550604051610678906117d1565b604051809103906000f080158015610694573d6000803e3d6000fd5b50600660006101000a81548173ffffffffffffffffffffffffffffffffffffffff021916908373ffffffffffffffffffffffffffffffffffffffff1602179055506001600d60006101000a81548160ff0219169083151502179055506001600d60016101000a81548160ff0219169083151502179055505050505050565b6000806000838152602001908152602001600020600101549050919050565b61073a82610712565b61074381611121565b61074d8383611135565b505050565b61075a611215565b73ffffffffffffffffffffffffffffffffffffffff168173ffffffffffffffffffffffffffffffffffffffff16146107c7576040517f08c379a00000000000000000000000000000000000000000000000000000000081526004016107be90611ecd565b60405180910390fd5b6107d1828261121d565b5050565b6000600d60019054906101000a900460ff16610826576040517f08c379a000000000000000000000000000000000000000000000000000000000815260040161081d90611e6d565b60405180910390fd5b73__LicenseTools__________________________63995e9228600c54846040518363ffffffff1660e01b8152600401610861929190611f08565b60206040518083038186803b15801561087957600080fd5b505af415801561088d573d6000803e3d6000fd5b505050506040513d601f19601f820116820180604052508101906108b19190611931565b9050919050565b600d60019054906101000a900460ff16610907576040517f08c379a00000000000000000000000000000000000000000000000000000000081526004016108fe90611e6d565b60405180910390fd5b6109387fb19546dff01e856fb3f010c267a7b1c60363cf8a4664e21cc89c26224620214e610933611215565b6109da565b610977576040517f08c379a000000000000000000000000000000000000000000000000000000000815260040161096e90611ead565b60405180910390fd5b80600c8190555050565b6000600d60019054906101000a900460ff166109d2576040517f08c379a00000000000000000000000000000000000000000000000000000000081526004016109c990611e6d565b60405180910390fd5b600c54905090565b600080600084815260200190815260200160002060000160008373ffffffffffffffffffffffffffffffffffffffff1673ffffffffffffffffffffffffffffffffffffffff16815260200190815260200160002060009054906101000a900460ff16905092915050565b6060600d60019054906101000a900460ff16610a95576040517f08c379a0000000000000000000000000000000000000000000000000000000008152600401610a8c90611e6d565b60405180910390fd5b610a9f60046112fe565b905090565b610ad57f241ecf16d79d0f8dbfb92cbc07fe17840425976cf0667f022fe9877caa831b08610ad0611215565b6109da565b610b14576040517f08c379a0000000000000000000000000000000000000000000000000000000008152600401610b0b90611ead565b60405180910390fd5b80600d60016101000a81548160ff02191690831515021790555050565b6000801b81565b610b4182610712565b610b4a81611121565b610b54838361121d565b505050565b610b61611215565b73ffffffffffffffffffffffffffffffffffffffff16600260009054906101000a900473ffffffffffffffffffffffffffffffffffffffff1673ffffffffffffffffffffffffffffffffffffffff1614610bf0576040517f08c379a0000000000000000000000000000000000000000000000000000000008152600401610be790611ead565b60405180910390fd5b80600260006101000a81548173ffffffffffffffffffffffffffffffffffffffff021916908373ffffffffffffffffffffffffffffffffffffffff16021790555050565b6000600d60019054906101000a900460ff16610c85576040517f08c379a0000000000000000000000000000000000000000000000000000000008152600401610c7c90611e6d565b60405180910390fd5b610cb67fb19546dff01e856fb3f010c267a7b1c60363cf8a4664e21cc89c26224620214e610cb1611215565b6109da565b610cf5576040517f08c379a0000000000000000000000000000000000000000000000000000000008152600401610cec90611ead565b60405180910390fd5b600b60009054906101000a900473ffffffffffffffffffffffffffffffffffffffff1673ffffffffffffffffffffffffffffffffffffffff1663880e6517836040518263ffffffff1660e01b8152600401610d509190611eed565b60206040518083038186803b158015610d6857600080fd5b505afa158015610d7c573d6000803e3d6000fd5b505050506040513d601f19601f82011682018060405250810190610da09190611931565b610ddf576040517f08c379a0000000000000000000000000000000000000000000000000000000008152600401610dd690611e0d565b60405180910390fd5b600073ffffffffffffffffffffffffffffffffffffffff166003600084815260200190815260200160002060009054906101000a900473ffffffffffffffffffffffffffffffffffffffff1673ffffffffffffffffffffffffffffffffffffffff1614610e81576040517f08c379a0000000000000000000000000000000000000000000000000000000008152600401610e7890611e4d565b60405180910390fd5b6000610eae600660009054906101000a900473ffffffffffffffffffffffffffffffffffffffff1661131f565b90508073ffffffffffffffffffffffffffffffffffffffff166395b6ef0c30600260009054906101000a900473ffffffffffffffffffffffffffffffffffffffff16610ef8611215565b600760009054906101000a900473ffffffffffffffffffffffffffffffffffffffff16600860009054906101000a900473ffffffffffffffffffffffffffffffffffffffff16896040518763ffffffff1660e01b8152600401610f6096959493929190611d12565b600060405180830381600087803b158015610f7a57600080fd5b505af1158015610f8e573d6000803e3d6000fd5b50505050806003600085815260200190815260200160002060006101000a81548173ffffffffffffffffffffffffffffffffffffffff021916908373ffffffffffffffffffffffffffffffffffffffff160217905550610ff88360046113da90919063ffffffff16565b507fb64e1cafe0dc1585a2368725516d63a879161435fdca44c704a5d975a8b34fb16003600085815260200190815260200160002060009054906101000a900473ffffffffffffffffffffffffffffffffffffffff1660405161105b9190611cf7565b60405180910390a180915050919050565b60006003600083815260200190815260200160002060009054906101000a900473ffffffffffffffffffffffffffffffffffffffff169050919050565b60007f01ffc9a7000000000000000000000000000000000000000000000000000000007bffffffffffffffffffffffffffffffffffffffffffffffffffffffff1916827bffffffffffffffffffffffffffffffffffffffffffffffffffffffff1916149050919050565b61111d8282611135565b5050565b6111328161112d611215565b6113f4565b50565b61113f82826109da565b61121157600160008084815260200190815260200160002060000160008373ffffffffffffffffffffffffffffffffffffffff1673ffffffffffffffffffffffffffffffffffffffff16815260200190815260200160002060006101000a81548160ff0219169083151502179055506111b6611215565b73ffffffffffffffffffffffffffffffffffffffff168173ffffffffffffffffffffffffffffffffffffffff16837f2f8788117e7eff1d82e926ec794901d17c78024a50270940304540a733656f0d60405160405180910390a45b5050565b600033905090565b61122782826109da565b156112fa57600080600084815260200190815260200160002060000160008373ffffffffffffffffffffffffffffffffffffffff1673ffffffffffffffffffffffffffffffffffffffff16815260200190815260200160002060006101000a81548160ff02191690831515021790555061129f611215565b73ffffffffffffffffffffffffffffffffffffffff168173ffffffffffffffffffffffffffffffffffffffff16837ff6391f5c32d9c69d2a47ea670b442974b53935d1edc7fd64eb21e047a839171b60405160405180910390a45b5050565b6060600061130e83600001611479565b905060608190508092505050919050565b6000763d602d80600a3d3981f3363d3d373d3d3d363d730000008260601b60e81c176000526e5af43d82803e903d91602b57fd5bf38260781b17602052603760096000f09050600073ffffffffffffffffffffffffffffffffffffffff168173ffffffffffffffffffffffffffffffffffffffff1614156113d5576040517f08c379a00000000000000000000000000000000000000000000000000000000081526004016113cc90611e2d565b60405180910390fd5b919050565b60006113ec836000018360001b6114d5565b905092915050565b6113fe82826109da565b6114755761140b81611545565b6114198360001c6020611572565b60405160200161142a929190611cbd565b6040516020818303038152906040526040517f08c379a000000000000000000000000000000000000000000000000000000000815260040161146c9190611dcb565b60405180910390fd5b5050565b6060816000018054806020026020016040519081016040528092919081815260200182805480156114c957602002820191906000526020600020905b8154815260200190600101908083116114b5575b50505050509050919050565b60006114e183836117ae565b61153a57826000018290806001815401808255809150506001900390600052602060002001600090919091909150558260000180549050836001016000848152602001908152602001600020819055506001905061153f565b600090505b92915050565b606061156b8273ffffffffffffffffffffffffffffffffffffffff16601460ff16611572565b9050919050565b6060600060028360026115859190611fe7565b61158f9190611f91565b67ffffffffffffffff8111156115a8576115a761217a565b5b6040519080825280601f01601f1916602001820160405280156115da5781602001600182028036833780820191505090505b5090507f3000000000000000000000000000000000000000000000000000000000000000816000815181106116125761161161214b565b5b60200101907effffffffffffffffffffffffffffffffffffffffffffffffffffffffffffff1916908160001a9053507f7800000000000000000000000000000000000000000000000000000000000000816001815181106116765761167561214b565b5b60200101907effffffffffffffffffffffffffffffffffffffffffffffffffffffffffffff1916908160001a905350600060018460026116b69190611fe7565b6116c09190611f91565b90505b6001811115611760577f3031323334353637383961626364656600000000000000000000000000000000600f8616601081106117025761170161214b565b5b1a60f81b8282815181106117195761171861214b565b5b60200101907effffffffffffffffffffffffffffffffffffffffffffffffffffffffffffff1916908160001a905350600485901c945080611759906120f2565b90506116c3565b50600084146117a4576040517f08c379a000000000000000000000000000000000000000000000000000000000815260040161179b90611ded565b60405180910390fd5b8091505092915050565b600080836001016000848152602001908152602001600020541415905092915050565b6138278061241983390190565b6000813590506117ed816123a5565b92915050565b600081359050611802816123bc565b92915050565b600081519050611817816123bc565b92915050565b60008135905061182c816123d3565b92915050565b600081359050611841816123ea565b92915050565b60008135905061185681612401565b92915050565b600060208284031215611872576118716121a9565b5b6000611880848285016117de565b91505092915050565b600080600080600060a086880312156118a5576118a46121a9565b5b60006118b3888289016117de565b95505060206118c4888289016117de565b94505060406118d5888289016117de565b93505060606118e6888289016117de565b92505060806118f7888289016117de565b9150509295509295909350565b60006020828403121561191a576119196121a9565b5b6000611928848285016117f3565b91505092915050565b600060208284031215611947576119466121a9565b5b600061195584828501611808565b91505092915050565b600060208284031215611974576119736121a9565b5b60006119828482850161181d565b91505092915050565b600080604083850312156119a2576119a16121a9565b5b60006119b08582860161181d565b92505060206119c1858286016117de565b9150509250929050565b6000602082840312156119e1576119e06121a9565b5b60006119ef84828501611832565b91505092915050565b600060208284031215611a0e57611a0d6121a9565b5b6000611a1c84828501611847565b91505092915050565b6000611a318383611c90565b60208301905092915050565b611a4681612041565b82525050565b6000611a5782611f41565b611a618185611f64565b9350611a6c83611f31565b8060005b83811015611a9d578151611a848882611a25565b9750611a8f83611f57565b925050600181019050611a70565b5085935050505092915050565b611ab381612053565b82525050565b611ac28161205f565b82525050565b6000611ad382611f4c565b611add8185611f75565b9350611aed8185602086016120bf565b611af6816121ae565b840191505092915050565b6000611b0c82611f4c565b611b168185611f86565b9350611b268185602086016120bf565b80840191505092915050565b6000611b3f602083611f75565b9150611b4a826121bf565b602082019050919050565b6000611b62600683611f75565b9150611b6d826121e8565b602082019050919050565b6000611b85601683611f75565b9150611b9082612211565b602082019050919050565b6000611ba8600383611f75565b9150611bb38261223a565b602082019050919050565b6000611bcb600683611f75565b9150611bd682612263565b602082019050919050565b6000611bee602e83611f75565b9150611bf98261228c565b604082019050919050565b6000611c11600683611f75565b9150611c1c826122db565b602082019050919050565b6000611c34601783611f86565b9150611c3f82612304565b601782019050919050565b6000611c57601183611f86565b9150611c628261232d565b601182019050919050565b6000611c7a602f83611f75565b9150611c8582612356565b604082019050919050565b611c99816120b5565b82525050565b611ca8816120b5565b82525050565b611cb7816120b5565b82525050565b6000611cc882611c27565b9150611cd48285611b01565b9150611cdf82611c4a565b9150611ceb8284611b01565b91508190509392505050565b6000602082019050611d0c6000830184611a3d565b92915050565b600060c082019050611d276000830189611a3d565b611d346020830188611a3d565b611d416040830187611a3d565b611d4e6060830186611a3d565b611d5b6080830185611a3d565b611d6860a0830184611c9f565b979650505050505050565b60006020820190508181036000830152611d8d8184611a4c565b905092915050565b6000602082019050611daa6000830184611aaa565b92915050565b6000602082019050611dc56000830184611ab9565b92915050565b60006020820190508181036000830152611de58184611ac8565b905092915050565b60006020820190508181036000830152611e0681611b32565b9050919050565b60006020820190508181036000830152611e2681611b55565b9050919050565b60006020820190508181036000830152611e4681611b78565b9050919050565b60006020820190508181036000830152611e6681611b9b565b9050919050565b60006020820190508181036000830152611e8681611bbe565b9050919050565b60006020820190508181036000830152611ea681611be1565b9050919050565b60006020820190508181036000830152611ec681611c04565b9050919050565b60006020820190508181036000830152611ee681611c6d565b9050919050565b6000602082019050611f026000830184611c9f565b92915050565b6000604082019050611f1d6000830185611cae565b611f2a6020830184611cae565b9392505050565b6000819050602082019050919050565b600081519050919050565b600081519050919050565b6000602082019050919050565b600082825260208201905092915050565b600082825260208201905092915050565b600081905092915050565b6000611f9c826120b5565b9150611fa7836120b5565b9250827fffffffffffffffffffffffffffffffffffffffffffffffffffffffffffffffff03821115611fdc57611fdb61211c565b5b828201905092915050565b6000611ff2826120b5565b9150611ffd836120b5565b9250817fffffffffffffffffffffffffffffffffffffffffffffffffffffffffffffffff04831182151516156120365761203561211c565b5b828202905092915050565b600061204c82612095565b9050919050565b60008115159050919050565b6000819050919050565b60007fffffffff0000000000000000000000000000000000000000000000000000000082169050919050565b600073ffffffffffffffffffffffffffffffffffffffff82169050919050565b6000819050919050565b60005b838110156120dd5780820151818401526020810190506120c2565b838111156120ec576000848401525b50505050565b60006120fd826120b5565b915060008214156121115761211061211c565b5b600182039050919050565b7f4e487b7100000000000000000000000000000000000000000000000000000000600052601160045260246000fd5b7f4e487b7100000000000000000000000000000000000000000000000000000000600052603260045260246000fd5b7f4e487b7100000000000000000000000000000000000000000000000000000000600052604160045260246000fd5b600080fd5b6000601f19601f8301169050919050565b7f537472696e67733a20686578206c656e67746820696e73756666696369656e74600082015250565b7f55464e44424b0000000000000000000000000000000000000000000000000000600082015250565b7f455243313136373a20637265617465206661696c656400000000000000000000600082015250565b7f464e440000000000000000000000000000000000000000000000000000000000600082015250565b7f494e414354560000000000000000000000000000000000000000000000000000600082015250565b7f436f6e747261637420696e7374616e63652068617320616c726561647920626560008201527f656e20696e697469616c697a6564000000000000000000000000000000000000602082015250565b7f554e415554480000000000000000000000000000000000000000000000000000600082015250565b7f416363657373436f6e74726f6c3a206163636f756e7420000000000000000000600082015250565b7f206973206d697373696e6720726f6c6520000000000000000000000000000000600082015250565b7f416363657373436f6e74726f6c3a2063616e206f6e6c792072656e6f756e636560008201527f20726f6c657320666f722073656c660000000000000000000000000000000000602082015250565b6123ae81612041565b81146123b957600080fd5b50565b6123c581612053565b81146123d057600080fd5b50565b6123dc8161205f565b81146123e757600080fd5b50565b6123f381612069565b81146123fe57600080fd5b50565b61240a816120b5565b811461241557600080fd5b5056fe60806040526001600f60156101000a81548160ff02191690831515021790555034801561002b57600080fd5b506137ec8061003b6000396000f3fe608060405234801561001057600080fd5b50600436106101585760003560e01c806391d14854116100c3578063dc6541251161007c578063dc654125146103d1578063e417c870146103ef578063e4edf8521461040b578063ebb0079614610427578063fc4bfce714610457578063fd0b1f1a1461047557610158565b806391d148541461031357806395b6ef0c146103435780639dd072541461035f578063a217fddf1461037b578063be08fd0814610399578063d547741f146103b557610158565b8063248a9ca311610115578063248a9ca3146102695780632f2ff15d1461029957806335f60daa146102b557806336568abe146102d157806340ad307f146102ed578063809852821461030957610158565b806301a3e29d1461015d57806301ffc9a71461017957806304766a7a146101a95780631101ed0a146101d957806314a24952146102095780631c6f8e6514610239575b600080fd5b610177600480360381019061017291906129e4565b610491565b005b610193600480360381019061018e9190612b9f565b6105a5565b6040516101a09190612fd2565b60405180910390f35b6101c360048036038101906101be91906127b1565b61061f565b6040516101d09190612fed565b60405180910390f35b6101f360048036038101906101ee919061286b565b610727565b6040516102009190612fd2565b60405180910390f35b610223600480360381019061021e9190612bcc565b6109b4565b6040516102309190612fb0565b60405180910390f35b610253600480360381019061024e9190612951565b610ac2565b6040516102609190613185565b60405180910390f35b610283600480360381019061027e9190612b32565b610bd0565b6040516102909190612fed565b60405180910390f35b6102b360048036038101906102ae9190612b5f565b610bef565b005b6102cf60048036038101906102ca9190612991565b610c10565b005b6102eb60048036038101906102e69190612b5f565b610f73565b005b610307600480360381019061030291906128be565b610ff6565b005b6103116110fd565b005b61032d60048036038101906103289190612b5f565b6112dc565b60405161033a9190612fd2565b60405180910390f35b61035d600480360381019061035891906127de565b611346565b005b61037960048036038101906103749190612ad8565b6115f9565b005b610383611686565b6040516103909190612fed565b60405180910390f35b6103b360048036038101906103ae9190612951565b61168d565b005b6103cf60048036038101906103ca9190612b5f565b611988565b005b6103d96119a9565b6040516103e69190613185565b60405180910390f35b610409600480360381019061040491906128fe565b611b2b565b005b610425600480360381019061042091906127b1565b611c45565b005b610441600480360381019061043c91906127b1565b611d20565b60405161044e919061316a565b60405180910390f35b61045f611ddc565b60405161046c9190613185565b60405180910390f35b61048f600480360381019061048a9190612a4b565b611de6565b005b600f60159054906101000a900460ff166104e0576040517f08c379a00000000000000000000000000000000000000000000000000000000081526004016104d7906130ca565b60405180910390fd5b6105117fb19546dff01e856fb3f010c267a7b1c60363cf8a4664e21cc89c26224620214e61050c611f07565b6112dc565b610550576040517f08c379a00000000000000000000000000000000000000000000000000000000081526004016105479061310a565b60405180910390fd5b80600760008673ffffffffffffffffffffffffffffffffffffffff1673ffffffffffffffffffffffffffffffffffffffff1681526020019081526020016000208190555061059f848484610c10565b50505050565b60007f7965db0b000000000000000000000000000000000000000000000000000000007bffffffffffffffffffffffffffffffffffffffffffffffffffffffff1916827bffffffffffffffffffffffffffffffffffffffffffffffffffffffff19161480610618575061061782611f0f565b5b9050919050565b6000600f60159054906101000a900460ff16610670576040517f08c379a0000000000000000000000000000000000000000000000000000000008152600401610667906130ca565b60405180910390fd5b6106a17fb19546dff01e856fb3f010c267a7b1c60363cf8a4664e21cc89c26224620214e61069c611f07565b6112dc565b6106e0576040517f08c379a00000000000000000000000000000000000000000000000000000000081526004016106d79061310a565b60405180910390fd5b600760008373ffffffffffffffffffffffffffffffffffffffff1673ffffffffffffffffffffffffffffffffffffffff168152602001908152602001600020549050919050565b6000600f60159054906101000a900460ff16610778576040517f08c379a000000000000000000000000000000000000000000000000000000000815260040161076f906130ca565b60405180910390fd5b8373ffffffffffffffffffffffffffffffffffffffff16600260009054906101000a900473ffffffffffffffffffffffffffffffffffffffff1673ffffffffffffffffffffffffffffffffffffffff1614610808576040517f08c379a00000000000000000000000000000000000000000000000000000000081526004016107ff9061306a565b60405180910390fd5b600d60009054906101000a900473ffffffffffffffffffffffffffffffffffffffff1673ffffffffffffffffffffffffffffffffffffffff1663524236ce836040518263ffffffff1660e01b81526004016108639190613185565b60206040518083038186803b15801561087b57600080fd5b505afa15801561088f573d6000803e3d6000fd5b505050506040513d601f19601f820116820180604052508101906108b39190612b05565b156108c157600190506109ad565b6108d583600b611f7990919063ffffffff16565b6108e257600090506109ad565b73__LicenseTools__________________________63995e9228600660008673ffffffffffffffffffffffffffffffffffffffff1673ffffffffffffffffffffffffffffffffffffffff16815260200190815260200160002054846040518363ffffffff1660e01b815260040161095a9291906131a0565b60206040518083038186803b15801561097257600080fd5b505af4158015610986573d6000803e3d6000fd5b505050506040513d601f19601f820116820180604052508101906109aa9190612b05565b90505b9392505050565b6060600f60159054906101000a900460ff16610a05576040517f08c379a00000000000000000000000000000000000000000000000000000000081526004016109fc906130ca565b60405180910390fd5b610a367fb19546dff01e856fb3f010c267a7b1c60363cf8a4664e21cc89c26224620214e610a31611f07565b6112dc565b610a75576040517f08c379a0000000000000000000000000000000000000000000000000000000008152600401610a6c9061310a565b60405180910390fd5b60006001811115610a8957610a88613429565b5b826001811115610a9c57610a9b613429565b5b14610ab057610aab600b611fa9565b610abb565b610aba6009611fa9565b5b9050919050565b6000600f60159054906101000a900460ff16610b13576040517f08c379a0000000000000000000000000000000000000000000000000000000008152600401610b0a906130ca565b60405180910390fd5b60006001811115610b2757610b26613429565b5b826001811115610b3a57610b39613429565b5b1415610b8757600560008473ffffffffffffffffffffffffffffffffffffffff1673ffffffffffffffffffffffffffffffffffffffff168152602001908152602001600020549050610bca565b600660008473ffffffffffffffffffffffffffffffffffffffff1673ffffffffffffffffffffffffffffffffffffffff1681526020019081526020016000205490505b92915050565b6000806000838152602001908152602001600020600101549050919050565b610bf882610bd0565b610c0181611fca565b610c0b8383611fde565b505050565b600f60159054906101000a900460ff16610c5f576040517f08c379a0000000000000000000000000000000000000000000000000000000008152600401610c56906130ca565b60405180910390fd5b610c907fb19546dff01e856fb3f010c267a7b1c60363cf8a4664e21cc89c26224620214e610c8b611f07565b6112dc565b610ccf576040517f08c379a0000000000000000000000000000000000000000000000000000000008152600401610cc69061310a565b60405180910390fd5b6000821415610d13576040517f08c379a0000000000000000000000000000000000000000000000000000000008152600401610d0a9061308a565b60405180910390fd5b60006001811115610d2757610d26613429565b5b816001811115610d3a57610d39613429565b5b1415610e595781600560008573ffffffffffffffffffffffffffffffffffffffff1673ffffffffffffffffffffffffffffffffffffffff168152602001908152602001600020541415610dc2576040517f08c379a0000000000000000000000000000000000000000000000000000000008152600401610db99061304a565b60405180910390fd5b610dd68360096120be90919063ffffffff16565b5081600560008573ffffffffffffffffffffffffffffffffffffffff1673ffffffffffffffffffffffffffffffffffffffff168152602001908152602001600020819055507fcd54d7e6dbadcd67bf2dc5740d6441fea3d13493ee22d7beeae303625a89d4268383604051610e4c929190612f87565b60405180910390a1610f6e565b81600660008573ffffffffffffffffffffffffffffffffffffffff1673ffffffffffffffffffffffffffffffffffffffff168152602001908152602001600020541415610edb576040517f08c379a0000000000000000000000000000000000000000000000000000000008152600401610ed29061304a565b60405180910390fd5b610eef83600b6120be90919063ffffffff16565b5081600660008573ffffffffffffffffffffffffffffffffffffffff1673ffffffffffffffffffffffffffffffffffffffff168152602001908152602001600020819055507f529ecbc3c68c3d2c7bb008ee044e1a240723013a8c3456abaed0d80bcab7eb818383604051610f65929190612f87565b60405180910390a15b505050565b610f7b611f07565b73ffffffffffffffffffffffffffffffffffffffff168173ffffffffffffffffffffffffffffffffffffffff1614610fe8576040517f08c379a0000000000000000000000000000000000000000000000000000000008152600401610fdf9061314a565b60405180910390fd5b610ff282826120ee565b5050565b600f60159054906101000a900460ff16611045576040517f08c379a000000000000000000000000000000000000000000000000000000000815260040161103c906130ca565b60405180910390fd5b6110767fb19546dff01e856fb3f010c267a7b1c60363cf8a4664e21cc89c26224620214e611071611f07565b6112dc565b6110b5576040517f08c379a00000000000000000000000000000000000000000000000000000000081526004016110ac9061310a565b60405180910390fd5b80600760008473ffffffffffffffffffffffffffffffffffffffff1673ffffffffffffffffffffffffffffffffffffffff168152602001908152602001600020819055505050565b600f60159054906101000a900460ff1661114c576040517f08c379a0000000000000000000000000000000000000000000000000000000008152600401611143906130ca565b60405180910390fd5b611154611f07565b60016000600181111561116a57611169613429565b5b81600181111561117d5761117c613429565b5b14156111db57611197826009611f7990919063ffffffff16565b6111d6576040517f08c379a00000000000000000000000000000000000000000000000000000000081526004016111cd9061312a565b60405180910390fd5b61122f565b6111ef82600b611f7990919063ffffffff16565b61122e576040517f08c379a0000000000000000000000000000000000000000000000000000000008152600401611225906130aa565b60405180910390fd5b5b61124a61123a611f07565b600b6121cf90919063ffffffff16565b50600060066000611259611f07565b73ffffffffffffffffffffffffffffffffffffffff1673ffffffffffffffffffffffffffffffffffffffff168152602001908152602001600020819055507f529ecbc3c68c3d2c7bb008ee044e1a240723013a8c3456abaed0d80bcab7eb816112c0611f07565b60006040516112d0929190612f5e565b60405180910390a15050565b600080600084815260200190815260200160002060000160008373ffffffffffffffffffffffffffffffffffffffff1673ffffffffffffffffffffffffffffffffffffffff16815260200190815260200160002060009054906101000a900460ff16905092915050565b600f60149054906101000a900460ff1615611396576040517f08c379a000000000000000000000000000000000000000000000000000000000815260040161138d906130ea565b60405180910390fd5b85600460006101000a81548173ffffffffffffffffffffffffffffffffffffffff021916908373ffffffffffffffffffffffffffffffffffffffff16021790555084600360006101000a81548173ffffffffffffffffffffffffffffffffffffffff021916908373ffffffffffffffffffffffffffffffffffffffff16021790555083600260006101000a81548173ffffffffffffffffffffffffffffffffffffffff021916908373ffffffffffffffffffffffffffffffffffffffff1602179055506114a57fb19546dff01e856fb3f010c267a7b1c60363cf8a4664e21cc89c26224620214e600260009054906101000a900473ffffffffffffffffffffffffffffffffffffffff166121ff565b6114f17f241ecf16d79d0f8dbfb92cbc07fe17840425976cf0667f022fe9877caa831b08600360009054906101000a900473ffffffffffffffffffffffffffffffffffffffff166121ff565b82600e60006101000a81548173ffffffffffffffffffffffffffffffffffffffff021916908373ffffffffffffffffffffffffffffffffffffffff16021790555081600f60006101000a81548173ffffffffffffffffffffffffffffffffffffffff021916908373ffffffffffffffffffffffffffffffffffffffff16021790555085600d60006101000a81548173ffffffffffffffffffffffffffffffffffffffff021916908373ffffffffffffffffffffffffffffffffffffffff160217905550806001819055506001600f60146101000a81548160ff0219169083151502179055506001600f60156101000a81548160ff021916908315150217905550505050505050565b61162a7f241ecf16d79d0f8dbfb92cbc07fe17840425976cf0667f022fe9877caa831b08611625611f07565b6112dc565b611669576040517f08c379a00000000000000000000000000000000000000000000000000000000081526004016116609061310a565b60405180910390fd5b80600f60156101000a81548160ff02191690831515021790555050565b6000801b81565b600f60159054906101000a900460ff166116dc576040517f08c379a00000000000000000000000000000000000000000000000000000000081526004016116d3906130ca565b60405180910390fd5b8181600060018111156116f2576116f1613429565b5b81600181111561170557611704613429565b5b14156117635761171f826009611f7990919063ffffffff16565b61175e576040517f08c379a00000000000000000000000000000000000000000000000000000000081526004016117559061312a565b60405180910390fd5b6117b7565b61177782600b611f7990919063ffffffff16565b6117b6576040517f08c379a00000000000000000000000000000000000000000000000000000000081526004016117ad906130aa565b60405180910390fd5b5b6117e87fb19546dff01e856fb3f010c267a7b1c60363cf8a4664e21cc89c26224620214e6117e3611f07565b6112dc565b611827576040517f08c379a000000000000000000000000000000000000000000000000000000000815260040161181e9061310a565b60405180910390fd5b6000600181111561183b5761183a613429565b5b83600181111561184e5761184d613429565b5b14156118ed576118688460096121cf90919063ffffffff16565b506000600560008673ffffffffffffffffffffffffffffffffffffffff1673ffffffffffffffffffffffffffffffffffffffff168152602001908152602001600020819055507fcd54d7e6dbadcd67bf2dc5740d6441fea3d13493ee22d7beeae303625a89d4268460006040516118e0929190612f5e565b60405180910390a1611982565b61190184600b6121cf90919063ffffffff16565b506000600660008673ffffffffffffffffffffffffffffffffffffffff1673ffffffffffffffffffffffffffffffffffffffff168152602001908152602001600020819055507f529ecbc3c68c3d2c7bb008ee044e1a240723013a8c3456abaed0d80bcab7eb81846000604051611979929190612f5e565b60405180910390a15b50505050565b61199182610bd0565b61199a81611fca565b6119a483836120ee565b505050565b6000600f60159054906101000a900460ff166119fa576040517f08c379a00000000000000000000000000000000000000000000000000000000081526004016119f1906130ca565b60405180910390fd5b611a02611f07565b600160006001811115611a1857611a17613429565b5b816001811115611a2b57611a2a613429565b5b1415611a8957611a45826009611f7990919063ffffffff16565b611a84576040517f08c379a0000000000000000000000000000000000000000000000000000000008152600401611a7b9061312a565b60405180910390fd5b611add565b611a9d82600b611f7990919063ffffffff16565b611adc576040517f08c379a0000000000000000000000000000000000000000000000000000000008152600401611ad3906130aa565b60405180910390fd5b5b60066000611ae9611f07565b73ffffffffffffffffffffffffffffffffffffffff1673ffffffffffffffffffffffffffffffffffffffff168152602001908152602001600020549250505090565b600f60159054906101000a900460ff16611b7a576040517f08c379a0000000000000000000000000000000000000000000000000000000008152600401611b71906130ca565b60405180910390fd5b611bab7fb19546dff01e856fb3f010c267a7b1c60363cf8a4664e21cc89c26224620214e611ba6611f07565b6112dc565b611bea576040517f08c379a0000000000000000000000000000000000000000000000000000000008152600401611be19061310a565b60405180910390fd5b6000600860008573ffffffffffffffffffffffffffffffffffffffff1673ffffffffffffffffffffffffffffffffffffffff168152602001908152602001600020905082816000018190555081816001018190555050505050565b611c4d611f07565b73ffffffffffffffffffffffffffffffffffffffff16600360009054906101000a900473ffffffffffffffffffffffffffffffffffffffff1673ffffffffffffffffffffffffffffffffffffffff1614611cdc576040517f08c379a0000000000000000000000000000000000000000000000000000000008152600401611cd39061310a565b60405180910390fd5b80600360006101000a81548173ffffffffffffffffffffffffffffffffffffffff021916908373ffffffffffffffffffffffffffffffffffffffff16021790555050565b611d286126fe565b600f60159054906101000a900460ff16611d77576040517f08c379a0000000000000000000000000000000000000000000000000000000008152600401611d6e906130ca565b60405180910390fd5b600860008373ffffffffffffffffffffffffffffffffffffffff1673ffffffffffffffffffffffffffffffffffffffff168152602001908152602001600020604051806040016040529081600082015481526020016001820154815250509050919050565b6000600154905090565b600f60159054906101000a900460ff16611e35576040517f08c379a0000000000000000000000000000000000000000000000000000000008152600401611e2c906130ca565b60405180910390fd5b611e667fb19546dff01e856fb3f010c267a7b1c60363cf8a4664e21cc89c26224620214e611e61611f07565b6112dc565b611ea5576040517f08c379a0000000000000000000000000000000000000000000000000000000008152600401611e9c9061310a565b60405180910390fd5b82600760008873ffffffffffffffffffffffffffffffffffffffff1673ffffffffffffffffffffffffffffffffffffffff16815260200190815260200160002081905550611ef4868383611b2b565b611eff868686610c10565b505050505050565b600033905090565b60007f01ffc9a7000000000000000000000000000000000000000000000000000000007bffffffffffffffffffffffffffffffffffffffffffffffffffffffff1916827bffffffffffffffffffffffffffffffffffffffffffffffffffffffff1916149050919050565b6000611fa1836000018373ffffffffffffffffffffffffffffffffffffffff1660001b61220d565b905092915050565b60606000611fb983600001612230565b905060608190508092505050919050565b611fdb81611fd6611f07565b61228c565b50565b611fe882826112dc565b6120ba57600160008084815260200190815260200160002060000160008373ffffffffffffffffffffffffffffffffffffffff1673ffffffffffffffffffffffffffffffffffffffff16815260200190815260200160002060006101000a81548160ff02191690831515021790555061205f611f07565b73ffffffffffffffffffffffffffffffffffffffff168173ffffffffffffffffffffffffffffffffffffffff16837f2f8788117e7eff1d82e926ec794901d17c78024a50270940304540a733656f0d60405160405180910390a45b5050565b60006120e6836000018373ffffffffffffffffffffffffffffffffffffffff1660001b612311565b905092915050565b6120f882826112dc565b156121cb57600080600084815260200190815260200160002060000160008373ffffffffffffffffffffffffffffffffffffffff1673ffffffffffffffffffffffffffffffffffffffff16815260200190815260200160002060006101000a81548160ff021916908315150217905550612170611f07565b73ffffffffffffffffffffffffffffffffffffffff168173ffffffffffffffffffffffffffffffffffffffff16837ff6391f5c32d9c69d2a47ea670b442974b53935d1edc7fd64eb21e047a839171b60405160405180910390a45b5050565b60006121f7836000018373ffffffffffffffffffffffffffffffffffffffff1660001b612381565b905092915050565b6122098282611fde565b5050565b600080836001016000848152602001908152602001600020541415905092915050565b60608160000180548060200260200160405190810160405280929190818152602001828054801561228057602002820191906000526020600020905b81548152602001906001019080831161226c575b50505050509050919050565b61229682826112dc565b61230d576122a381612495565b6122b18360001c60206124c2565b6040516020016122c2929190612f24565b6040516020818303038152906040526040517f08c379a00000000000000000000000000000000000000000000000000000000081526004016123049190613008565b60405180910390fd5b5050565b600061231d838361220d565b61237657826000018290806001815401808255809150506001900390600052602060002001600090919091909150558260000180549050836001016000848152602001908152602001600020819055506001905061237b565b600090505b92915050565b600080836001016000848152602001908152602001600020549050600081146124895760006001826123b391906132d9565b90506000600186600001805490506123cb91906132d9565b905081811461243a5760008660000182815481106123ec576123eb613487565b5b90600052602060002001549050808760000184815481106124105761240f613487565b5b90600052602060002001819055508387600101600083815260200190815260200160002081905550505b8560000180548061244e5761244d613458565b5b60019003818190600052602060002001600090559055856001016000868152602001908152602001600020600090556001935050505061248f565b60009150505b92915050565b60606124bb8273ffffffffffffffffffffffffffffffffffffffff16601460ff166124c2565b9050919050565b6060600060028360026124d5919061327f565b6124df9190613229565b67ffffffffffffffff8111156124f8576124f76134b6565b5b6040519080825280601f01601f19166020018201604052801561252a5781602001600182028036833780820191505090505b5090507f30000000000000000000000000000000000000000000000000000000000000008160008151811061256257612561613487565b5b60200101907effffffffffffffffffffffffffffffffffffffffffffffffffffffffffffff1916908160001a9053507f7800000000000000000000000000000000000000000000000000000000000000816001815181106125c6576125c5613487565b5b60200101907effffffffffffffffffffffffffffffffffffffffffffffffffffffffffffff1916908160001a90535060006001846002612606919061327f565b6126109190613229565b90505b60018111156126b0577f3031323334353637383961626364656600000000000000000000000000000000600f86166010811061265257612651613487565b5b1a60f81b82828151811061266957612668613487565b5b60200101907effffffffffffffffffffffffffffffffffffffffffffffffffffffffffffff1916908160001a905350600485901c9450806126a9906133d0565b9050612613565b50600084146126f4576040517f08c379a00000000000000000000000000000000000000000000000000000000081526004016126eb9061302a565b60405180910390fd5b8091505092915050565b604051806040016040528060008019168152602001600080191681525090565b60008135905061272d81613733565b92915050565b6000813590506127428161374a565b92915050565b6000815190506127578161374a565b92915050565b60008135905061276c81613761565b92915050565b60008135905061278181613778565b92915050565b6000813590506127968161378f565b92915050565b6000813590506127ab8161379f565b92915050565b6000602082840312156127c7576127c66134e5565b5b60006127d58482850161271e565b91505092915050565b60008060008060008060c087890312156127fb576127fa6134e5565b5b600061280989828a0161271e565b965050602061281a89828a0161271e565b955050604061282b89828a0161271e565b945050606061283c89828a0161271e565b935050608061284d89828a0161271e565b92505060a061285e89828a0161279c565b9150509295509295509295565b600080600060608486031215612884576128836134e5565b5b60006128928682870161271e565b93505060206128a38682870161271e565b92505060406128b48682870161279c565b9150509250925092565b600080604083850312156128d5576128d46134e5565b5b60006128e38582860161271e565b92505060206128f48582860161275d565b9150509250929050565b600080600060608486031215612917576129166134e5565b5b60006129258682870161271e565b93505060206129368682870161275d565b92505060406129478682870161275d565b9150509250925092565b60008060408385031215612968576129676134e5565b5b60006129768582860161271e565b925050602061298785828601612787565b9150509250929050565b6000806000606084860312156129aa576129a96134e5565b5b60006129b88682870161271e565b93505060206129c98682870161279c565b92505060406129da86828701612787565b9150509250925092565b600080600080608085870312156129fe576129fd6134e5565b5b6000612a0c8782880161271e565b9450506020612a1d8782880161279c565b9350506040612a2e87828801612787565b9250506060612a3f8782880161275d565b91505092959194509250565b60008060008060008060c08789031215612a6857612a676134e5565b5b6000612a7689828a0161271e565b9650506020612a8789828a0161279c565b9550506040612a9889828a01612787565b9450506060612aa989828a0161275d565b9350506080612aba89828a0161275d565b92505060a0612acb89828a0161275d565b9150509295509295509295565b600060208284031215612aee57612aed6134e5565b5b6000612afc84828501612733565b91505092915050565b600060208284031215612b1b57612b1a6134e5565b5b6000612b2984828501612748565b91505092915050565b600060208284031215612b4857612b476134e5565b5b6000612b568482850161275d565b91505092915050565b60008060408385031215612b7657612b756134e5565b5b6000612b848582860161275d565b9250506020612b958582860161271e565b9150509250929050565b600060208284031215612bb557612bb46134e5565b5b6000612bc384828501612772565b91505092915050565b600060208284031215612be257612be16134e5565b5b6000612bf084828501612787565b91505092915050565b6000612c058383612c11565b60208301905092915050565b612c1a8161330d565b82525050565b612c298161330d565b82525050565b6000612c3a826131d9565b612c4481856131fc565b9350612c4f836131c9565b8060005b83811015612c80578151612c678882612bf9565b9750612c72836131ef565b925050600181019050612c53565b5085935050505092915050565b612c968161331f565b82525050565b612ca58161332b565b82525050565b612cb48161332b565b82525050565b612cc38161338b565b82525050565b6000612cd4826131e4565b612cde818561320d565b9350612cee81856020860161339d565b612cf7816134ea565b840191505092915050565b6000612d0d826131e4565b612d17818561321e565b9350612d2781856020860161339d565b80840191505092915050565b6000612d4060208361320d565b9150612d4b826134fb565b602082019050919050565b6000612d6360068361320d565b9150612d6e82613524565b602082019050919050565b6000612d8660058361320d565b9150612d918261354d565b602082019050919050565b6000612da960058361320d565b9150612db482613576565b602082019050919050565b6000612dcc60068361320d565b9150612dd78261359f565b602082019050919050565b6000612def60068361320d565b9150612dfa826135c8565b602082019050919050565b6000612e12602e8361320d565b9150612e1d826135f1565b604082019050919050565b6000612e3560068361320d565b9150612e4082613640565b602082019050919050565b6000612e5860178361321e565b9150612e6382613669565b601782019050919050565b6000612e7b60068361320d565b9150612e8682613692565b602082019050919050565b6000612e9e60118361321e565b9150612ea9826136bb565b601182019050919050565b6000612ec1602f8361320d565b9150612ecc826136e4565b604082019050919050565b604082016000820151612eed6000850182612c9c565b506020820151612f006020850182612c9c565b50505050565b612f0f81613381565b82525050565b612f1e81613381565b82525050565b6000612f2f82612e4b565b9150612f3b8285612d02565b9150612f4682612e91565b9150612f528284612d02565b91508190509392505050565b6000604082019050612f736000830185612c20565b612f806020830184612cba565b9392505050565b6000604082019050612f9c6000830185612c20565b612fa96020830184612f06565b9392505050565b60006020820190508181036000830152612fca8184612c2f565b905092915050565b6000602082019050612fe76000830184612c8d565b92915050565b60006020820190506130026000830184612cab565b92915050565b600060208201905081810360008301526130228184612cc9565b905092915050565b6000602082019050818103600083015261304381612d33565b9050919050565b6000602082019050818103600083015261306381612d56565b9050919050565b6000602082019050818103600083015261308381612d79565b9050919050565b600060208201905081810360008301526130a381612d9c565b9050919050565b600060208201905081810360008301526130c381612dbf565b9050919050565b600060208201905081810360008301526130e381612de2565b9050919050565b6000602082019050818103600083015261310381612e05565b9050919050565b6000602082019050818103600083015261312381612e28565b9050919050565b6000602082019050818103600083015261314381612e6e565b9050919050565b6000602082019050818103600083015261316381612eb4565b9050919050565b600060408201905061317f6000830184612ed7565b92915050565b600060208201905061319a6000830184612f06565b92915050565b60006040820190506131b56000830185612f15565b6131c26020830184612f15565b9392505050565b6000819050602082019050919050565b600081519050919050565b600081519050919050565b6000602082019050919050565b600082825260208201905092915050565b600082825260208201905092915050565b600081905092915050565b600061323482613381565b915061323f83613381565b9250827fffffffffffffffffffffffffffffffffffffffffffffffffffffffffffffffff03821115613274576132736133fa565b5b828201905092915050565b600061328a82613381565b915061329583613381565b9250817fffffffffffffffffffffffffffffffffffffffffffffffffffffffffffffffff04831182151516156132ce576132cd6133fa565b5b828202905092915050565b60006132e482613381565b91506132ef83613381565b925082821015613302576133016133fa565b5b828203905092915050565b600061331882613361565b9050919050565b60008115159050919050565b6000819050919050565b60007fffffffff0000000000000000000000000000000000000000000000000000000082169050919050565b600073ffffffffffffffffffffffffffffffffffffffff82169050919050565b6000819050919050565b600061339682613381565b9050919050565b60005b838110156133bb5780820151818401526020810190506133a0565b838111156133ca576000848401525b50505050565b60006133db82613381565b915060008214156133ef576133ee6133fa565b5b600182039050919050565b7f4e487b7100000000000000000000000000000000000000000000000000000000600052601160045260246000fd5b7f4e487b7100000000000000000000000000000000000000000000000000000000600052602160045260246000fd5b7f4e487b7100000000000000000000000000000000000000000000000000000000600052603160045260246000fd5b7f4e487b7100000000000000000000000000000000000000000000000000000000600052603260045260246000fd5b7f4e487b7100000000000000000000000000000000000000000000000000000000600052604160045260246000fd5b600080fd5b6000601f19601f8301169050919050565b7f537472696e67733a20686578206c656e67746820696e73756666696369656e74600082015250565b7f4552525045520000000000000000000000000000000000000000000000000000600082015250565b7f4241445251000000000000000000000000000000000000000000000000000000600082015250565b7f4e44504552000000000000000000000000000000000000000000000000000000600082015250565b7f4e4f544657520000000000000000000000000000000000000000000000000000600082015250565b7f494e414354560000000000000000000000000000000000000000000000000000600082015250565b7f436f6e747261637420696e7374616e63652068617320616c726561647920626560008201527f656e20696e697469616c697a6564000000000000000000000000000000000000602082015250565b7f554e415554480000000000000000000000000000000000000000000000000000600082015250565b7f416363657373436f6e74726f6c3a206163636f756e7420000000000000000000600082015250565b7f4e4f544657470000000000000000000000000000000000000000000000000000600082015250565b7f206973206d697373696e6720726f6c6520000000000000000000000000000000600082015250565b7f416363657373436f6e74726f6c3a2063616e206f6e6c792072656e6f756e636560008201527f20726f6c657320666f722073656c660000000000000000000000000000000000602082015250565b61373c8161330d565b811461374757600080fd5b50565b6137538161331f565b811461375e57600080fd5b50565b61376a8161332b565b811461377557600080fd5b50565b61378181613335565b811461378c57600080fd5b50565b6002811061379c57600080fd5b50565b6137a881613381565b81146137b357600080fd5b5056fea2646970667358221220c3d4a358027cddd2e8e87199c8b1109e4a4ea19e1e3e541ff379c7b4b99e15df64736f6c63430008070033a264697066735822122090cf83d6f70acad2917ac1c37ce403e567401f87a719ca9066fa8423527f80dd64736f6c63430008070033",
  "immutableReferences": {},
  "source": "// SPDX-License-Identifier: GPL-3.0\npragma solidity >=0.4.25 <0.9.0;\nimport \"@openzeppelin/contracts/access/AccessControl.sol\";\nimport \"@openzeppelin/contracts/proxy/Clones.sol\";\nimport \"@openzeppelin/contracts/utils/structs/EnumerableSet.sol\";\n\nimport \"./LicenseTools.sol\";\nimport \"./LicenseToken.sol\";\nimport \"./ServiceManager.sol\";\nimport \"./BlockchainManager.sol\";\nimport \"./BlockchainUserCenter.sol\";\n\ncontract UserMonitoringCenter is AccessControl {\n    using EnumerableSet for EnumerableSet.UintSet;\n\n    /******************************\n        EVENTS\n    ******************************/\n    event BlockchainUsersContractCreated(address contractAddress);\n\n \n    /******************************\n        VARIABLES\n    ******************************/\n\n    bytes32 constant OWNER_ROLE = keccak256(\"OWNER_ROLE\");\n    bytes32 constant MANAGER_ROLE = keccak256(\"MANAGER_ROLE\");\n\n    // manager of the contract\n    address private _owner;\n    // manager owner address\n    address private _managerOwner;\n\n\n    // _users Contract Address set\n    mapping(uint => address) _blockchainUsersContractAddresses;\n\n    // Declare a set state variable of registered blockchains ids\n    EnumerableSet.UintSet _blockchainIds;\n\n    address blockchainUserCenterImplementation;\n\n    //Service Manager\n    address serviceManagerInstanceAdd;\n    //License Manager\n    address licenseTokenInstanceAdd;\n    //License Manager\n    address blockchainInstanceAdd;\n    \n    //License Manager\n    LicenseToken licenseTokenInstance;\n    //blockchain Manager\n    BlockchainManager blockchainManagerInstance;\n\n    uint256 private _openReadingPool;\n\n    bool private initialized;\n    bool _isActive = true;\n\n    modifier checkActive() {\n        require(_isActive, \"INACTV\");\n        _;\n    }\n\n    /**\n     * @notice initialize function\n     * @param userAddress user address\n     * @param managementCenterOwnerAddress  owner of the management center\n     * @param serviceManagerAddress  service Manager Address\n     * @param licenseTokenAddress license Token Address\n     * @param blockchainManagerAddress license Token Address\n     */\n    function initialize(\n        address managementCenterOwnerAddress,\n        address userAddress,\n        address serviceManagerAddress,\n        address licenseTokenAddress,\n        address blockchainManagerAddress\n    ) public {\n        require(!initialized, \"Contract instance has already been initialized\");\n        _managerOwner = managementCenterOwnerAddress;\n        _owner = userAddress;\n        _setupRole(OWNER_ROLE, _owner);\n        _setupRole(MANAGER_ROLE, _managerOwner);\n        serviceManagerInstanceAdd = serviceManagerAddress;\n        licenseTokenInstanceAdd = licenseTokenAddress;\n        blockchainInstanceAdd = blockchainManagerAddress;\n        licenseTokenInstance = LicenseToken(licenseTokenAddress);\n        blockchainManagerInstance = BlockchainManager(blockchainManagerAddress);\n        blockchainUserCenterImplementation = address(new BlockchainUserCenter());\n        initialized = true;\n        _isActive = true;\n    }\n\n    /**\n     * @notice change manager\n     * @dev function is created in case of management center replacement\n     * @param newManagementCenterAddress manager Transaction Feed\n     */\n    function transferManagement(address newManagementCenterAddress) public {\n        require(\n            // Only manager's owner can change manager\n            _managerOwner == _msgSender(),\n            \"UNAUTH\"\n        );\n        _managerOwner = newManagementCenterAddress;\n    }    \n\n    /**\n     * @notice change manager\n     * @dev function is created in case of management center replacement\n     * @param isActive isActive variable\n     */\n    function setActivity(bool isActive) public {\n        require(hasRole(MANAGER_ROLE, _msgSender()),\n            \"UNAUTH\"\n        );\n        _isActive = isActive;\n    }\n\n\n    /**\n     * @notice set open reading services pool\n     * @param openReadingPool open Reading Status\n     */\n    function setOpenReadingServicePool(uint256 openReadingPool)\n        public\n        checkActive\n    {\n        require(hasRole(OWNER_ROLE, _msgSender()), \"UNAUTH\");\n        _openReadingPool = openReadingPool;\n    }\n\n    /**\n     * @notice get open reading services pool\n     */\n    function getOpenReadingServicePool()\n        public\n        view\n        checkActive\n        returns (uint256)\n    {\n        return _openReadingPool;\n    }\n\n    /**\n     * @notice get open reading\n     * @param serviceId service\n     * @return openReadingStatus\n     */\n    function isOpenReadingService(uint256 serviceId)\n        public\n        view\n        checkActive\n        returns (bool)\n    {\n        return LicenseTools.getBoolean(_openReadingPool, serviceId);\n    }\n\n\n    /**\n     * @notice Verify an address\n     * @param blockchainId blockchain Id\n     */\n    function registerBlockchain(uint blockchainId)\n        public\n        checkActive\n        returns (address)\n    {\n        require(hasRole(OWNER_ROLE, _msgSender()), \"UNAUTH\");\n        require(blockchainManagerInstance.existBlockchain(blockchainId) , \"UFNDBK\");\n        require(_blockchainUsersContractAddresses[blockchainId] == address(0), \"FND\");\n        address clone = Clones.clone(blockchainUserCenterImplementation);\n        BlockchainUserCenter(clone).initialize(\n            address(this),\n            _managerOwner,\n            _msgSender(),\n            serviceManagerInstanceAdd,\n            licenseTokenInstanceAdd,\n            blockchainId\n        );\n        _blockchainUsersContractAddresses[blockchainId] = clone;\n        _blockchainIds.add(blockchainId);\n        emit BlockchainUsersContractCreated(_blockchainUsersContractAddresses[blockchainId]);\n        return clone;\n    }    \n\n\n    /**\n     * @notice get User Contract Address\n     */\n    function getBlockchainManagerContractAddress(uint blockchainId) public view returns (address) {\n        return _blockchainUsersContractAddresses[blockchainId];\n    }\n\n    /**\n    * @notice get all blockchain contracts.\n    * Return the entire set in an array\n    //\n    // WARNING\tThis operation will copy the entire storage to memory,\n    // which can be quite expensive. This is designed to mostly be used by view\n    // accessors that are queried without any gas fees.\n    // Developers should keep in mind that this function\n    // has an unbounded cost, and using it as part of a state-changing\n    // function may render the function uncallable if the set grows to a\n    // point where copying to memory consumes too much gas to fit in a block.\n    */\n    function getAllRegisteredBlockchainIds()\n        public\n        view\n        checkActive\n        returns (uint[] memory)\n    {\n        return _blockchainIds.values();\n    }    \n\n}\n",
  "sourcePath": "/home/israel/Documents/cashtween/code/smart-contract-3/contracts/UserMonitoringCenter.sol",
  "compiler": {
    "name": "solc",
    "version": "0.8.7+commit.e28d00a7.Emscripten.clang"
  },
  "schemaVersion": "3.4.13",
  "updatedAt": "2023-06-16T12:58:13.322Z",
  "networkType": "ethereum",
  "devdoc": {
    "kind": "dev",
    "methods": {
      "getRoleAdmin(bytes32)": {
        "details": "Returns the admin role that controls `role`. See {grantRole} and {revokeRole}. To change a role's admin, use {_setRoleAdmin}."
      },
      "grantRole(bytes32,address)": {
        "details": "Grants `role` to `account`. If `account` had not been already granted `role`, emits a {RoleGranted} event. Requirements: - the caller must have ``role``'s admin role. May emit a {RoleGranted} event."
      },
      "hasRole(bytes32,address)": {
        "details": "Returns `true` if `account` has been granted `role`."
      },
      "initialize(address,address,address,address,address)": {
        "params": {
          "blockchainManagerAddress": "license Token Address",
          "licenseTokenAddress": "license Token Address",
          "managementCenterOwnerAddress": "owner of the management center",
          "serviceManagerAddress": "service Manager Address",
          "userAddress": "user address"
        }
      },
      "isOpenReadingService(uint256)": {
        "params": {
          "serviceId": "service"
        },
        "returns": {
          "_0": "openReadingStatus"
        }
      },
      "registerBlockchain(uint256)": {
        "params": {
          "blockchainId": "blockchain Id"
        }
      },
      "renounceRole(bytes32,address)": {
        "details": "Revokes `role` from the calling account. Roles are often managed via {grantRole} and {revokeRole}: this function's purpose is to provide a mechanism for accounts to lose their privileges if they are compromised (such as when a trusted device is misplaced). If the calling account had been revoked `role`, emits a {RoleRevoked} event. Requirements: - the caller must be `account`. May emit a {RoleRevoked} event."
      },
      "revokeRole(bytes32,address)": {
        "details": "Revokes `role` from `account`. If `account` had been granted `role`, emits a {RoleRevoked} event. Requirements: - the caller must have ``role``'s admin role. May emit a {RoleRevoked} event."
      },
      "setActivity(bool)": {
        "details": "function is created in case of management center replacement",
        "params": {
          "isActive": "isActive variable"
        }
      },
      "setOpenReadingServicePool(uint256)": {
        "params": {
          "openReadingPool": "open Reading Status"
        }
      },
      "supportsInterface(bytes4)": {
        "details": "See {IERC165-supportsInterface}."
      },
      "transferManagement(address)": {
        "details": "function is created in case of management center replacement",
        "params": {
          "newManagementCenterAddress": "manager Transaction Feed"
        }
      }
    },
    "version": 1
  },
  "userdoc": {
    "kind": "user",
    "methods": {
      "getAllRegisteredBlockchainIds()": {
        "notice": "get all blockchain contracts. Return the entire set in an array // // WARNING\tThis operation will copy the entire storage to memory, // which can be quite expensive. This is designed to mostly be used by view // accessors that are queried without any gas fees. // Developers should keep in mind that this function // has an unbounded cost, and using it as part of a state-changing // function may render the function uncallable if the set grows to a // point where copying to memory consumes too much gas to fit in a block."
      },
      "getBlockchainManagerContractAddress(uint256)": {
        "notice": "get User Contract Address"
      },
      "getOpenReadingServicePool()": {
        "notice": "get open reading services pool"
      },
      "initialize(address,address,address,address,address)": {
        "notice": "initialize function"
      },
      "isOpenReadingService(uint256)": {
        "notice": "get open reading"
      },
      "registerBlockchain(uint256)": {
        "notice": "Verify an address"
      },
      "setActivity(bool)": {
        "notice": "change manager"
      },
      "setOpenReadingServicePool(uint256)": {
        "notice": "set open reading services pool"
      },
      "transferManagement(address)": {
        "notice": "change manager"
      }
    },
    "version": 1
  }
}