{
  "contractName": "BlockchainUserCenter",
  "abi": [
    {
      "anonymous": false,
      "inputs": [
        {
          "indexed": false,
          "internalType": "address",
          "name": "user",
          "type": "address"
        },
        {
          "indexed": false,
          "internalType": "uint256",
          "name": "permissions",
          "type": "uint256"
        }
      ],
      "name": "FollowerUserPermissionSettled",
      "type": "event"
    },
    {
      "anonymous": false,
      "inputs": [
        {
          "indexed": false,
          "internalType": "address",
          "name": "user",
          "type": "address"
        },
        {
          "indexed": false,
          "internalType": "uint256",
          "name": "permissions",
          "type": "uint256"
        }
      ],
      "name": "FollowinUserPermissionSettled",
      "type": "event"
    },
    {
      "anonymous": false,
      "inputs": [
        {
          "indexed": true,
          "internalType": "bytes32",
          "name": "role",
          "type": "bytes32"
        },
        {
          "indexed": true,
          "internalType": "bytes32",
          "name": "previousAdminRole",
          "type": "bytes32"
        },
        {
          "indexed": true,
          "internalType": "bytes32",
          "name": "newAdminRole",
          "type": "bytes32"
        }
      ],
      "name": "RoleAdminChanged",
      "type": "event"
    },
    {
      "anonymous": false,
      "inputs": [
        {
          "indexed": true,
          "internalType": "bytes32",
          "name": "role",
          "type": "bytes32"
        },
        {
          "indexed": true,
          "internalType": "address",
          "name": "account",
          "type": "address"
        },
        {
          "indexed": true,
          "internalType": "address",
          "name": "sender",
          "type": "address"
        }
      ],
      "name": "RoleGranted",
      "type": "event"
    },
    {
      "anonymous": false,
      "inputs": [
        {
          "indexed": true,
          "internalType": "bytes32",
          "name": "role",
          "type": "bytes32"
        },
        {
          "indexed": true,
          "internalType": "address",
          "name": "account",
          "type": "address"
        },
        {
          "indexed": true,
          "internalType": "address",
          "name": "sender",
          "type": "address"
        }
      ],
      "name": "RoleRevoked",
      "type": "event"
    },
    {
      "inputs": [],
      "name": "DEFAULT_ADMIN_ROLE",
      "outputs": [
        {
          "internalType": "bytes32",
          "name": "",
          "type": "bytes32"
        }
      ],
      "stateMutability": "view",
      "type": "function"
    },
    {
      "inputs": [
        {
          "internalType": "bytes32",
          "name": "role",
          "type": "bytes32"
        }
      ],
      "name": "getRoleAdmin",
      "outputs": [
        {
          "internalType": "bytes32",
          "name": "",
          "type": "bytes32"
        }
      ],
      "stateMutability": "view",
      "type": "function"
    },
    {
      "inputs": [
        {
          "internalType": "bytes32",
          "name": "role",
          "type": "bytes32"
        },
        {
          "internalType": "address",
          "name": "account",
          "type": "address"
        }
      ],
      "name": "grantRole",
      "outputs": [],
      "stateMutability": "nonpayable",
      "type": "function"
    },
    {
      "inputs": [
        {
          "internalType": "bytes32",
          "name": "role",
          "type": "bytes32"
        },
        {
          "internalType": "address",
          "name": "account",
          "type": "address"
        }
      ],
      "name": "hasRole",
      "outputs": [
        {
          "internalType": "bool",
          "name": "",
          "type": "bool"
        }
      ],
      "stateMutability": "view",
      "type": "function"
    },
    {
      "inputs": [
        {
          "internalType": "bytes32",
          "name": "role",
          "type": "bytes32"
        },
        {
          "internalType": "address",
          "name": "account",
          "type": "address"
        }
      ],
      "name": "renounceRole",
      "outputs": [],
      "stateMutability": "nonpayable",
      "type": "function"
    },
    {
      "inputs": [
        {
          "internalType": "bytes32",
          "name": "role",
          "type": "bytes32"
        },
        {
          "internalType": "address",
          "name": "account",
          "type": "address"
        }
      ],
      "name": "revokeRole",
      "outputs": [],
      "stateMutability": "nonpayable",
      "type": "function"
    },
    {
      "inputs": [
        {
          "internalType": "bytes4",
          "name": "interfaceId",
          "type": "bytes4"
        }
      ],
      "name": "supportsInterface",
      "outputs": [
        {
          "internalType": "bool",
          "name": "",
          "type": "bool"
        }
      ],
      "stateMutability": "view",
      "type": "function"
    },
    {
      "inputs": [],
      "name": "getBlockchainId",
      "outputs": [
        {
          "internalType": "uint256",
          "name": "",
          "type": "uint256"
        }
      ],
      "stateMutability": "view",
      "type": "function"
    },
    {
      "inputs": [
        {
          "internalType": "address",
          "name": "userMonitoringCenterAddress",
          "type": "address"
        },
        {
          "internalType": "address",
          "name": "managerOwnerAddress",
          "type": "address"
        },
        {
          "internalType": "address",
          "name": "userAddress",
          "type": "address"
        },
        {
          "internalType": "address",
          "name": "serviceManagerAddress",
          "type": "address"
        },
        {
          "internalType": "address",
          "name": "licenseTokenAddress",
          "type": "address"
        },
        {
          "internalType": "uint256",
          "name": "blockchainId",
          "type": "uint256"
        }
      ],
      "name": "initialize",
      "outputs": [],
      "stateMutability": "nonpayable",
      "type": "function"
    },
    {
      "inputs": [
        {
          "internalType": "address",
          "name": "newManagementCenterAddress",
          "type": "address"
        }
      ],
      "name": "transferManagement",
      "outputs": [],
      "stateMutability": "nonpayable",
      "type": "function"
    },
    {
      "inputs": [
        {
          "internalType": "bool",
          "name": "isActive",
          "type": "bool"
        }
      ],
      "name": "setActivity",
      "outputs": [],
      "stateMutability": "nonpayable",
      "type": "function"
    },
    {
      "inputs": [
        {
          "internalType": "address",
          "name": "recipient",
          "type": "address"
        },
        {
          "internalType": "uint256",
          "name": "permissions",
          "type": "uint256"
        },
        {
          "internalType": "enum BlockchainUserCenter.UserType",
          "name": "userType",
          "type": "uint8"
        },
        {
          "internalType": "bytes32",
          "name": "nickname",
          "type": "bytes32"
        },
        {
          "internalType": "bytes32",
          "name": "info1",
          "type": "bytes32"
        },
        {
          "internalType": "bytes32",
          "name": "info2",
          "type": "bytes32"
        }
      ],
      "name": "setUserPermissionsNicknameAndInfo",
      "outputs": [],
      "stateMutability": "nonpayable",
      "type": "function"
    },
    {
      "inputs": [
        {
          "internalType": "address",
          "name": "recipient",
          "type": "address"
        },
        {
          "internalType": "uint256",
          "name": "permissions",
          "type": "uint256"
        },
        {
          "internalType": "enum BlockchainUserCenter.UserType",
          "name": "userType",
          "type": "uint8"
        },
        {
          "internalType": "bytes32",
          "name": "nickname",
          "type": "bytes32"
        }
      ],
      "name": "setUserPermissionsAndNickname",
      "outputs": [],
      "stateMutability": "nonpayable",
      "type": "function"
    },
    {
      "inputs": [
        {
          "internalType": "address",
          "name": "recipient",
          "type": "address"
        },
        {
          "internalType": "uint256",
          "name": "permissions",
          "type": "uint256"
        },
        {
          "internalType": "enum BlockchainUserCenter.UserType",
          "name": "userType",
          "type": "uint8"
        }
      ],
      "name": "setUserPermissions",
      "outputs": [],
      "stateMutability": "nonpayable",
      "type": "function"
    },
    {
      "inputs": [
        {
          "internalType": "enum BlockchainUserCenter.UserType",
          "name": "userType",
          "type": "uint8"
        }
      ],
      "name": "getAllUsers",
      "outputs": [
        {
          "internalType": "address[]",
          "name": "",
          "type": "address[]"
        }
      ],
      "stateMutability": "view",
      "type": "function"
    },
    {
      "inputs": [
        {
          "internalType": "address",
          "name": "user",
          "type": "address"
        },
        {
          "internalType": "enum BlockchainUserCenter.UserType",
          "name": "userType",
          "type": "uint8"
        }
      ],
      "name": "removeUsers",
      "outputs": [],
      "stateMutability": "nonpayable",
      "type": "function"
    },
    {
      "inputs": [
        {
          "internalType": "address",
          "name": "user",
          "type": "address"
        },
        {
          "internalType": "enum BlockchainUserCenter.UserType",
          "name": "userType",
          "type": "uint8"
        }
      ],
      "name": "getUserPermissions",
      "outputs": [
        {
          "internalType": "uint256",
          "name": "",
          "type": "uint256"
        }
      ],
      "stateMutability": "view",
      "type": "function"
    },
    {
      "inputs": [],
      "name": "followerUserSelfRemove",
      "outputs": [],
      "stateMutability": "nonpayable",
      "type": "function"
    },
    {
      "inputs": [],
      "name": "followerUserGetOwnPermissions",
      "outputs": [
        {
          "internalType": "uint256",
          "name": "",
          "type": "uint256"
        }
      ],
      "stateMutability": "view",
      "type": "function"
    },
    {
      "inputs": [
        {
          "internalType": "address",
          "name": "user",
          "type": "address"
        },
        {
          "internalType": "address",
          "name": "follower",
          "type": "address"
        },
        {
          "internalType": "uint256",
          "name": "serviceId",
          "type": "uint256"
        }
      ],
      "name": "isFollowerAllowed",
      "outputs": [
        {
          "internalType": "bool",
          "name": "",
          "type": "bool"
        }
      ],
      "stateMutability": "view",
      "type": "function"
    },
    {
      "inputs": [
        {
          "internalType": "address",
          "name": "user",
          "type": "address"
        },
        {
          "internalType": "bytes32",
          "name": "nickname",
          "type": "bytes32"
        }
      ],
      "name": "setUserNickname",
      "outputs": [],
      "stateMutability": "nonpayable",
      "type": "function"
    },
    {
      "inputs": [
        {
          "internalType": "address",
          "name": "user",
          "type": "address"
        }
      ],
      "name": "getUserNickname",
      "outputs": [
        {
          "internalType": "bytes32",
          "name": "",
          "type": "bytes32"
        }
      ],
      "stateMutability": "view",
      "type": "function"
    },
    {
      "inputs": [
        {
          "internalType": "address",
          "name": "user",
          "type": "address"
        },
        {
          "internalType": "bytes32",
          "name": "info1",
          "type": "bytes32"
        },
        {
          "internalType": "bytes32",
          "name": "info2",
          "type": "bytes32"
        }
      ],
      "name": "setAddressInfo",
      "outputs": [],
      "stateMutability": "nonpayable",
      "type": "function"
    },
    {
      "inputs": [
        {
          "internalType": "address",
          "name": "user",
          "type": "address"
        }
      ],
      "name": "getAddressInfo",
      "outputs": [
        {
          "components": [
            {
              "internalType": "bytes32",
              "name": "info1",
              "type": "bytes32"
            },
            {
              "internalType": "bytes32",
              "name": "info2",
              "type": "bytes32"
            }
          ],
          "internalType": "struct AddressInfo",
          "name": "",
          "type": "tuple"
        }
      ],
      "stateMutability": "view",
      "type": "function"
    }
  ],
  "bytecode": "0x60806040526001600f60156101000a81548160ff02191690831515021790555034801561002b57600080fd5b506137ec8061003b6000396000f3fe608060405234801561001057600080fd5b50600436106101585760003560e01c806391d14854116100c3578063dc6541251161007c578063dc654125146103d1578063e417c870146103ef578063e4edf8521461040b578063ebb0079614610427578063fc4bfce714610457578063fd0b1f1a1461047557610158565b806391d148541461031357806395b6ef0c146103435780639dd072541461035f578063a217fddf1461037b578063be08fd0814610399578063d547741f146103b557610158565b8063248a9ca311610115578063248a9ca3146102695780632f2ff15d1461029957806335f60daa146102b557806336568abe146102d157806340ad307f146102ed578063809852821461030957610158565b806301a3e29d1461015d57806301ffc9a71461017957806304766a7a146101a95780631101ed0a146101d957806314a24952146102095780631c6f8e6514610239575b600080fd5b610177600480360381019061017291906129e4565b610491565b005b610193600480360381019061018e9190612b9f565b6105a5565b6040516101a09190612fd2565b60405180910390f35b6101c360048036038101906101be91906127b1565b61061f565b6040516101d09190612fed565b60405180910390f35b6101f360048036038101906101ee919061286b565b610727565b6040516102009190612fd2565b60405180910390f35b610223600480360381019061021e9190612bcc565b6109b4565b6040516102309190612fb0565b60405180910390f35b610253600480360381019061024e9190612951565b610ac2565b6040516102609190613185565b60405180910390f35b610283600480360381019061027e9190612b32565b610bd0565b6040516102909190612fed565b60405180910390f35b6102b360048036038101906102ae9190612b5f565b610bef565b005b6102cf60048036038101906102ca9190612991565b610c10565b005b6102eb60048036038101906102e69190612b5f565b610f73565b005b610307600480360381019061030291906128be565b610ff6565b005b6103116110fd565b005b61032d60048036038101906103289190612b5f565b6112dc565b60405161033a9190612fd2565b60405180910390f35b61035d600480360381019061035891906127de565b611346565b005b61037960048036038101906103749190612ad8565b6115f9565b005b610383611686565b6040516103909190612fed565b60405180910390f35b6103b360048036038101906103ae9190612951565b61168d565b005b6103cf60048036038101906103ca9190612b5f565b611988565b005b6103d96119a9565b6040516103e69190613185565b60405180910390f35b610409600480360381019061040491906128fe565b611b2b565b005b610425600480360381019061042091906127b1565b611c45565b005b610441600480360381019061043c91906127b1565b611d20565b60405161044e919061316a565b60405180910390f35b61045f611ddc565b60405161046c9190613185565b60405180910390f35b61048f600480360381019061048a9190612a4b565b611de6565b005b600f60159054906101000a900460ff166104e0576040517f08c379a00000000000000000000000000000000000000000000000000000000081526004016104d7906130ca565b60405180910390fd5b6105117fb19546dff01e856fb3f010c267a7b1c60363cf8a4664e21cc89c26224620214e61050c611f07565b6112dc565b610550576040517f08c379a00000000000000000000000000000000000000000000000000000000081526004016105479061310a565b60405180910390fd5b80600760008673ffffffffffffffffffffffffffffffffffffffff1673ffffffffffffffffffffffffffffffffffffffff1681526020019081526020016000208190555061059f848484610c10565b50505050565b60007f7965db0b000000000000000000000000000000000000000000000000000000007bffffffffffffffffffffffffffffffffffffffffffffffffffffffff1916827bffffffffffffffffffffffffffffffffffffffffffffffffffffffff19161480610618575061061782611f0f565b5b9050919050565b6000600f60159054906101000a900460ff16610670576040517f08c379a0000000000000000000000000000000000000000000000000000000008152600401610667906130ca565b60405180910390fd5b6106a17fb19546dff01e856fb3f010c267a7b1c60363cf8a4664e21cc89c26224620214e61069c611f07565b6112dc565b6106e0576040517f08c379a00000000000000000000000000000000000000000000000000000000081526004016106d79061310a565b60405180910390fd5b600760008373ffffffffffffffffffffffffffffffffffffffff1673ffffffffffffffffffffffffffffffffffffffff168152602001908152602001600020549050919050565b6000600f60159054906101000a900460ff16610778576040517f08c379a000000000000000000000000000000000000000000000000000000000815260040161076f906130ca565b60405180910390fd5b8373ffffffffffffffffffffffffffffffffffffffff16600260009054906101000a900473ffffffffffffffffffffffffffffffffffffffff1673ffffffffffffffffffffffffffffffffffffffff1614610808576040517f08c379a00000000000000000000000000000000000000000000000000000000081526004016107ff9061306a565b60405180910390fd5b600d60009054906101000a900473ffffffffffffffffffffffffffffffffffffffff1673ffffffffffffffffffffffffffffffffffffffff1663524236ce836040518263ffffffff1660e01b81526004016108639190613185565b60206040518083038186803b15801561087b57600080fd5b505afa15801561088f573d6000803e3d6000fd5b505050506040513d601f19601f820116820180604052508101906108b39190612b05565b156108c157600190506109ad565b6108d583600b611f7990919063ffffffff16565b6108e257600090506109ad565b73__LicenseTools__________________________63995e9228600660008673ffffffffffffffffffffffffffffffffffffffff1673ffffffffffffffffffffffffffffffffffffffff16815260200190815260200160002054846040518363ffffffff1660e01b815260040161095a9291906131a0565b60206040518083038186803b15801561097257600080fd5b505af4158015610986573d6000803e3d6000fd5b505050506040513d601f19601f820116820180604052508101906109aa9190612b05565b90505b9392505050565b6060600f60159054906101000a900460ff16610a05576040517f08c379a00000000000000000000000000000000000000000000000000000000081526004016109fc906130ca565b60405180910390fd5b610a367fb19546dff01e856fb3f010c267a7b1c60363cf8a4664e21cc89c26224620214e610a31611f07565b6112dc565b610a75576040517f08c379a0000000000000000000000000000000000000000000000000000000008152600401610a6c9061310a565b60405180910390fd5b60006001811115610a8957610a88613429565b5b826001811115610a9c57610a9b613429565b5b14610ab057610aab600b611fa9565b610abb565b610aba6009611fa9565b5b9050919050565b6000600f60159054906101000a900460ff16610b13576040517f08c379a0000000000000000000000000000000000000000000000000000000008152600401610b0a906130ca565b60405180910390fd5b60006001811115610b2757610b26613429565b5b826001811115610b3a57610b39613429565b5b1415610b8757600560008473ffffffffffffffffffffffffffffffffffffffff1673ffffffffffffffffffffffffffffffffffffffff168152602001908152602001600020549050610bca565b600660008473ffffffffffffffffffffffffffffffffffffffff1673ffffffffffffffffffffffffffffffffffffffff1681526020019081526020016000205490505b92915050565b6000806000838152602001908152602001600020600101549050919050565b610bf882610bd0565b610c0181611fca565b610c0b8383611fde565b505050565b600f60159054906101000a900460ff16610c5f576040517f08c379a0000000000000000000000000000000000000000000000000000000008152600401610c56906130ca565b60405180910390fd5b610c907fb19546dff01e856fb3f010c267a7b1c60363cf8a4664e21cc89c26224620214e610c8b611f07565b6112dc565b610ccf576040517f08c379a0000000000000000000000000000000000000000000000000000000008152600401610cc69061310a565b60405180910390fd5b6000821415610d13576040517f08c379a0000000000000000000000000000000000000000000000000000000008152600401610d0a9061308a565b60405180910390fd5b60006001811115610d2757610d26613429565b5b816001811115610d3a57610d39613429565b5b1415610e595781600560008573ffffffffffffffffffffffffffffffffffffffff1673ffffffffffffffffffffffffffffffffffffffff168152602001908152602001600020541415610dc2576040517f08c379a0000000000000000000000000000000000000000000000000000000008152600401610db99061304a565b60405180910390fd5b610dd68360096120be90919063ffffffff16565b5081600560008573ffffffffffffffffffffffffffffffffffffffff1673ffffffffffffffffffffffffffffffffffffffff168152602001908152602001600020819055507fcd54d7e6dbadcd67bf2dc5740d6441fea3d13493ee22d7beeae303625a89d4268383604051610e4c929190612f87565b60405180910390a1610f6e565b81600660008573ffffffffffffffffffffffffffffffffffffffff1673ffffffffffffffffffffffffffffffffffffffff168152602001908152602001600020541415610edb576040517f08c379a0000000000000000000000000000000000000000000000000000000008152600401610ed29061304a565b60405180910390fd5b610eef83600b6120be90919063ffffffff16565b5081600660008573ffffffffffffffffffffffffffffffffffffffff1673ffffffffffffffffffffffffffffffffffffffff168152602001908152602001600020819055507f529ecbc3c68c3d2c7bb008ee044e1a240723013a8c3456abaed0d80bcab7eb818383604051610f65929190612f87565b60405180910390a15b505050565b610f7b611f07565b73ffffffffffffffffffffffffffffffffffffffff168173ffffffffffffffffffffffffffffffffffffffff1614610fe8576040517f08c379a0000000000000000000000000000000000000000000000000000000008152600401610fdf9061314a565b60405180910390fd5b610ff282826120ee565b5050565b600f60159054906101000a900460ff16611045576040517f08c379a000000000000000000000000000000000000000000000000000000000815260040161103c906130ca565b60405180910390fd5b6110767fb19546dff01e856fb3f010c267a7b1c60363cf8a4664e21cc89c26224620214e611071611f07565b6112dc565b6110b5576040517f08c379a00000000000000000000000000000000000000000000000000000000081526004016110ac9061310a565b60405180910390fd5b80600760008473ffffffffffffffffffffffffffffffffffffffff1673ffffffffffffffffffffffffffffffffffffffff168152602001908152602001600020819055505050565b600f60159054906101000a900460ff1661114c576040517f08c379a0000000000000000000000000000000000000000000000000000000008152600401611143906130ca565b60405180910390fd5b611154611f07565b60016000600181111561116a57611169613429565b5b81600181111561117d5761117c613429565b5b14156111db57611197826009611f7990919063ffffffff16565b6111d6576040517f08c379a00000000000000000000000000000000000000000000000000000000081526004016111cd9061312a565b60405180910390fd5b61122f565b6111ef82600b611f7990919063ffffffff16565b61122e576040517f08c379a0000000000000000000000000000000000000000000000000000000008152600401611225906130aa565b60405180910390fd5b5b61124a61123a611f07565b600b6121cf90919063ffffffff16565b50600060066000611259611f07565b73ffffffffffffffffffffffffffffffffffffffff1673ffffffffffffffffffffffffffffffffffffffff168152602001908152602001600020819055507f529ecbc3c68c3d2c7bb008ee044e1a240723013a8c3456abaed0d80bcab7eb816112c0611f07565b60006040516112d0929190612f5e565b60405180910390a15050565b600080600084815260200190815260200160002060000160008373ffffffffffffffffffffffffffffffffffffffff1673ffffffffffffffffffffffffffffffffffffffff16815260200190815260200160002060009054906101000a900460ff16905092915050565b600f60149054906101000a900460ff1615611396576040517f08c379a000000000000000000000000000000000000000000000000000000000815260040161138d906130ea565b60405180910390fd5b85600460006101000a81548173ffffffffffffffffffffffffffffffffffffffff021916908373ffffffffffffffffffffffffffffffffffffffff16021790555084600360006101000a81548173ffffffffffffffffffffffffffffffffffffffff021916908373ffffffffffffffffffffffffffffffffffffffff16021790555083600260006101000a81548173ffffffffffffffffffffffffffffffffffffffff021916908373ffffffffffffffffffffffffffffffffffffffff1602179055506114a57fb19546dff01e856fb3f010c267a7b1c60363cf8a4664e21cc89c26224620214e600260009054906101000a900473ffffffffffffffffffffffffffffffffffffffff166121ff565b6114f17f241ecf16d79d0f8dbfb92cbc07fe17840425976cf0667f022fe9877caa831b08600360009054906101000a900473ffffffffffffffffffffffffffffffffffffffff166121ff565b82600e60006101000a81548173ffffffffffffffffffffffffffffffffffffffff021916908373ffffffffffffffffffffffffffffffffffffffff16021790555081600f60006101000a81548173ffffffffffffffffffffffffffffffffffffffff021916908373ffffffffffffffffffffffffffffffffffffffff16021790555085600d60006101000a81548173ffffffffffffffffffffffffffffffffffffffff021916908373ffffffffffffffffffffffffffffffffffffffff160217905550806001819055506001600f60146101000a81548160ff0219169083151502179055506001600f60156101000a81548160ff021916908315150217905550505050505050565b61162a7f241ecf16d79d0f8dbfb92cbc07fe17840425976cf0667f022fe9877caa831b08611625611f07565b6112dc565b611669576040517f08c379a00000000000000000000000000000000000000000000000000000000081526004016116609061310a565b60405180910390fd5b80600f60156101000a81548160ff02191690831515021790555050565b6000801b81565b600f60159054906101000a900460ff166116dc576040517f08c379a00000000000000000000000000000000000000000000000000000000081526004016116d3906130ca565b60405180910390fd5b8181600060018111156116f2576116f1613429565b5b81600181111561170557611704613429565b5b14156117635761171f826009611f7990919063ffffffff16565b61175e576040517f08c379a00000000000000000000000000000000000000000000000000000000081526004016117559061312a565b60405180910390fd5b6117b7565b61177782600b611f7990919063ffffffff16565b6117b6576040517f08c379a00000000000000000000000000000000000000000000000000000000081526004016117ad906130aa565b60405180910390fd5b5b6117e87fb19546dff01e856fb3f010c267a7b1c60363cf8a4664e21cc89c26224620214e6117e3611f07565b6112dc565b611827576040517f08c379a000000000000000000000000000000000000000000000000000000000815260040161181e9061310a565b60405180910390fd5b6000600181111561183b5761183a613429565b5b83600181111561184e5761184d613429565b5b14156118ed576118688460096121cf90919063ffffffff16565b506000600560008673ffffffffffffffffffffffffffffffffffffffff1673ffffffffffffffffffffffffffffffffffffffff168152602001908152602001600020819055507fcd54d7e6dbadcd67bf2dc5740d6441fea3d13493ee22d7beeae303625a89d4268460006040516118e0929190612f5e565b60405180910390a1611982565b61190184600b6121cf90919063ffffffff16565b506000600660008673ffffffffffffffffffffffffffffffffffffffff1673ffffffffffffffffffffffffffffffffffffffff168152602001908152602001600020819055507f529ecbc3c68c3d2c7bb008ee044e1a240723013a8c3456abaed0d80bcab7eb81846000604051611979929190612f5e565b60405180910390a15b50505050565b61199182610bd0565b61199a81611fca565b6119a483836120ee565b505050565b6000600f60159054906101000a900460ff166119fa576040517f08c379a00000000000000000000000000000000000000000000000000000000081526004016119f1906130ca565b60405180910390fd5b611a02611f07565b600160006001811115611a1857611a17613429565b5b816001811115611a2b57611a2a613429565b5b1415611a8957611a45826009611f7990919063ffffffff16565b611a84576040517f08c379a0000000000000000000000000000000000000000000000000000000008152600401611a7b9061312a565b60405180910390fd5b611add565b611a9d82600b611f7990919063ffffffff16565b611adc576040517f08c379a0000000000000000000000000000000000000000000000000000000008152600401611ad3906130aa565b60405180910390fd5b5b60066000611ae9611f07565b73ffffffffffffffffffffffffffffffffffffffff1673ffffffffffffffffffffffffffffffffffffffff168152602001908152602001600020549250505090565b600f60159054906101000a900460ff16611b7a576040517f08c379a0000000000000000000000000000000000000000000000000000000008152600401611b71906130ca565b60405180910390fd5b611bab7fb19546dff01e856fb3f010c267a7b1c60363cf8a4664e21cc89c26224620214e611ba6611f07565b6112dc565b611bea576040517f08c379a0000000000000000000000000000000000000000000000000000000008152600401611be19061310a565b60405180910390fd5b6000600860008573ffffffffffffffffffffffffffffffffffffffff1673ffffffffffffffffffffffffffffffffffffffff168152602001908152602001600020905082816000018190555081816001018190555050505050565b611c4d611f07565b73ffffffffffffffffffffffffffffffffffffffff16600360009054906101000a900473ffffffffffffffffffffffffffffffffffffffff1673ffffffffffffffffffffffffffffffffffffffff1614611cdc576040517f08c379a0000000000000000000000000000000000000000000000000000000008152600401611cd39061310a565b60405180910390fd5b80600360006101000a81548173ffffffffffffffffffffffffffffffffffffffff021916908373ffffffffffffffffffffffffffffffffffffffff16021790555050565b611d286126fe565b600f60159054906101000a900460ff16611d77576040517f08c379a0000000000000000000000000000000000000000000000000000000008152600401611d6e906130ca565b60405180910390fd5b600860008373ffffffffffffffffffffffffffffffffffffffff1673ffffffffffffffffffffffffffffffffffffffff168152602001908152602001600020604051806040016040529081600082015481526020016001820154815250509050919050565b6000600154905090565b600f60159054906101000a900460ff16611e35576040517f08c379a0000000000000000000000000000000000000000000000000000000008152600401611e2c906130ca565b60405180910390fd5b611e667fb19546dff01e856fb3f010c267a7b1c60363cf8a4664e21cc89c26224620214e611e61611f07565b6112dc565b611ea5576040517f08c379a0000000000000000000000000000000000000000000000000000000008152600401611e9c9061310a565b60405180910390fd5b82600760008873ffffffffffffffffffffffffffffffffffffffff1673ffffffffffffffffffffffffffffffffffffffff16815260200190815260200160002081905550611ef4868383611b2b565b611eff868686610c10565b505050505050565b600033905090565b60007f01ffc9a7000000000000000000000000000000000000000000000000000000007bffffffffffffffffffffffffffffffffffffffffffffffffffffffff1916827bffffffffffffffffffffffffffffffffffffffffffffffffffffffff1916149050919050565b6000611fa1836000018373ffffffffffffffffffffffffffffffffffffffff1660001b61220d565b905092915050565b60606000611fb983600001612230565b905060608190508092505050919050565b611fdb81611fd6611f07565b61228c565b50565b611fe882826112dc565b6120ba57600160008084815260200190815260200160002060000160008373ffffffffffffffffffffffffffffffffffffffff1673ffffffffffffffffffffffffffffffffffffffff16815260200190815260200160002060006101000a81548160ff02191690831515021790555061205f611f07565b73ffffffffffffffffffffffffffffffffffffffff168173ffffffffffffffffffffffffffffffffffffffff16837f2f8788117e7eff1d82e926ec794901d17c78024a50270940304540a733656f0d60405160405180910390a45b5050565b60006120e6836000018373ffffffffffffffffffffffffffffffffffffffff1660001b612311565b905092915050565b6120f882826112dc565b156121cb57600080600084815260200190815260200160002060000160008373ffffffffffffffffffffffffffffffffffffffff1673ffffffffffffffffffffffffffffffffffffffff16815260200190815260200160002060006101000a81548160ff021916908315150217905550612170611f07565b73ffffffffffffffffffffffffffffffffffffffff168173ffffffffffffffffffffffffffffffffffffffff16837ff6391f5c32d9c69d2a47ea670b442974b53935d1edc7fd64eb21e047a839171b60405160405180910390a45b5050565b60006121f7836000018373ffffffffffffffffffffffffffffffffffffffff1660001b612381565b905092915050565b6122098282611fde565b5050565b600080836001016000848152602001908152602001600020541415905092915050565b60608160000180548060200260200160405190810160405280929190818152602001828054801561228057602002820191906000526020600020905b81548152602001906001019080831161226c575b50505050509050919050565b61229682826112dc565b61230d576122a381612495565b6122b18360001c60206124c2565b6040516020016122c2929190612f24565b6040516020818303038152906040526040517f08c379a00000000000000000000000000000000000000000000000000000000081526004016123049190613008565b60405180910390fd5b5050565b600061231d838361220d565b61237657826000018290806001815401808255809150506001900390600052602060002001600090919091909150558260000180549050836001016000848152602001908152602001600020819055506001905061237b565b600090505b92915050565b600080836001016000848152602001908152602001600020549050600081146124895760006001826123b391906132d9565b90506000600186600001805490506123cb91906132d9565b905081811461243a5760008660000182815481106123ec576123eb613487565b5b90600052602060002001549050808760000184815481106124105761240f613487565b5b90600052602060002001819055508387600101600083815260200190815260200160002081905550505b8560000180548061244e5761244d613458565b5b60019003818190600052602060002001600090559055856001016000868152602001908152602001600020600090556001935050505061248f565b60009150505b92915050565b60606124bb8273ffffffffffffffffffffffffffffffffffffffff16601460ff166124c2565b9050919050565b6060600060028360026124d5919061327f565b6124df9190613229565b67ffffffffffffffff8111156124f8576124f76134b6565b5b6040519080825280601f01601f19166020018201604052801561252a5781602001600182028036833780820191505090505b5090507f30000000000000000000000000000000000000000000000000000000000000008160008151811061256257612561613487565b5b60200101907effffffffffffffffffffffffffffffffffffffffffffffffffffffffffffff1916908160001a9053507f7800000000000000000000000000000000000000000000000000000000000000816001815181106125c6576125c5613487565b5b60200101907effffffffffffffffffffffffffffffffffffffffffffffffffffffffffffff1916908160001a90535060006001846002612606919061327f565b6126109190613229565b90505b60018111156126b0577f3031323334353637383961626364656600000000000000000000000000000000600f86166010811061265257612651613487565b5b1a60f81b82828151811061266957612668613487565b5b60200101907effffffffffffffffffffffffffffffffffffffffffffffffffffffffffffff1916908160001a905350600485901c9450806126a9906133d0565b9050612613565b50600084146126f4576040517f08c379a00000000000000000000000000000000000000000000000000000000081526004016126eb9061302a565b60405180910390fd5b8091505092915050565b604051806040016040528060008019168152602001600080191681525090565b60008135905061272d81613733565b92915050565b6000813590506127428161374a565b92915050565b6000815190506127578161374a565b92915050565b60008135905061276c81613761565b92915050565b60008135905061278181613778565b92915050565b6000813590506127968161378f565b92915050565b6000813590506127ab8161379f565b92915050565b6000602082840312156127c7576127c66134e5565b5b60006127d58482850161271e565b91505092915050565b60008060008060008060c087890312156127fb576127fa6134e5565b5b600061280989828a0161271e565b965050602061281a89828a0161271e565b955050604061282b89828a0161271e565b945050606061283c89828a0161271e565b935050608061284d89828a0161271e565b92505060a061285e89828a0161279c565b9150509295509295509295565b600080600060608486031215612884576128836134e5565b5b60006128928682870161271e565b93505060206128a38682870161271e565b92505060406128b48682870161279c565b9150509250925092565b600080604083850312156128d5576128d46134e5565b5b60006128e38582860161271e565b92505060206128f48582860161275d565b9150509250929050565b600080600060608486031215612917576129166134e5565b5b60006129258682870161271e565b93505060206129368682870161275d565b92505060406129478682870161275d565b9150509250925092565b60008060408385031215612968576129676134e5565b5b60006129768582860161271e565b925050602061298785828601612787565b9150509250929050565b6000806000606084860312156129aa576129a96134e5565b5b60006129b88682870161271e565b93505060206129c98682870161279c565b92505060406129da86828701612787565b9150509250925092565b600080600080608085870312156129fe576129fd6134e5565b5b6000612a0c8782880161271e565b9450506020612a1d8782880161279c565b9350506040612a2e87828801612787565b9250506060612a3f8782880161275d565b91505092959194509250565b60008060008060008060c08789031215612a6857612a676134e5565b5b6000612a7689828a0161271e565b9650506020612a8789828a0161279c565b9550506040612a9889828a01612787565b9450506060612aa989828a0161275d565b9350506080612aba89828a0161275d565b92505060a0612acb89828a0161275d565b9150509295509295509295565b600060208284031215612aee57612aed6134e5565b5b6000612afc84828501612733565b91505092915050565b600060208284031215612b1b57612b1a6134e5565b5b6000612b2984828501612748565b91505092915050565b600060208284031215612b4857612b476134e5565b5b6000612b568482850161275d565b91505092915050565b60008060408385031215612b7657612b756134e5565b5b6000612b848582860161275d565b9250506020612b958582860161271e565b9150509250929050565b600060208284031215612bb557612bb46134e5565b5b6000612bc384828501612772565b91505092915050565b600060208284031215612be257612be16134e5565b5b6000612bf084828501612787565b91505092915050565b6000612c058383612c11565b60208301905092915050565b612c1a8161330d565b82525050565b612c298161330d565b82525050565b6000612c3a826131d9565b612c4481856131fc565b9350612c4f836131c9565b8060005b83811015612c80578151612c678882612bf9565b9750612c72836131ef565b925050600181019050612c53565b5085935050505092915050565b612c968161331f565b82525050565b612ca58161332b565b82525050565b612cb48161332b565b82525050565b612cc38161338b565b82525050565b6000612cd4826131e4565b612cde818561320d565b9350612cee81856020860161339d565b612cf7816134ea565b840191505092915050565b6000612d0d826131e4565b612d17818561321e565b9350612d2781856020860161339d565b80840191505092915050565b6000612d4060208361320d565b9150612d4b826134fb565b602082019050919050565b6000612d6360068361320d565b9150612d6e82613524565b602082019050919050565b6000612d8660058361320d565b9150612d918261354d565b602082019050919050565b6000612da960058361320d565b9150612db482613576565b602082019050919050565b6000612dcc60068361320d565b9150612dd78261359f565b602082019050919050565b6000612def60068361320d565b9150612dfa826135c8565b602082019050919050565b6000612e12602e8361320d565b9150612e1d826135f1565b604082019050919050565b6000612e3560068361320d565b9150612e4082613640565b602082019050919050565b6000612e5860178361321e565b9150612e6382613669565b601782019050919050565b6000612e7b60068361320d565b9150612e8682613692565b602082019050919050565b6000612e9e60118361321e565b9150612ea9826136bb565b601182019050919050565b6000612ec1602f8361320d565b9150612ecc826136e4565b604082019050919050565b604082016000820151612eed6000850182612c9c565b506020820151612f006020850182612c9c565b50505050565b612f0f81613381565b82525050565b612f1e81613381565b82525050565b6000612f2f82612e4b565b9150612f3b8285612d02565b9150612f4682612e91565b9150612f528284612d02565b91508190509392505050565b6000604082019050612f736000830185612c20565b612f806020830184612cba565b9392505050565b6000604082019050612f9c6000830185612c20565b612fa96020830184612f06565b9392505050565b60006020820190508181036000830152612fca8184612c2f565b905092915050565b6000602082019050612fe76000830184612c8d565b92915050565b60006020820190506130026000830184612cab565b92915050565b600060208201905081810360008301526130228184612cc9565b905092915050565b6000602082019050818103600083015261304381612d33565b9050919050565b6000602082019050818103600083015261306381612d56565b9050919050565b6000602082019050818103600083015261308381612d79565b9050919050565b600060208201905081810360008301526130a381612d9c565b9050919050565b600060208201905081810360008301526130c381612dbf565b9050919050565b600060208201905081810360008301526130e381612de2565b9050919050565b6000602082019050818103600083015261310381612e05565b9050919050565b6000602082019050818103600083015261312381612e28565b9050919050565b6000602082019050818103600083015261314381612e6e565b9050919050565b6000602082019050818103600083015261316381612eb4565b9050919050565b600060408201905061317f6000830184612ed7565b92915050565b600060208201905061319a6000830184612f06565b92915050565b60006040820190506131b56000830185612f15565b6131c26020830184612f15565b9392505050565b6000819050602082019050919050565b600081519050919050565b600081519050919050565b6000602082019050919050565b600082825260208201905092915050565b600082825260208201905092915050565b600081905092915050565b600061323482613381565b915061323f83613381565b9250827fffffffffffffffffffffffffffffffffffffffffffffffffffffffffffffffff03821115613274576132736133fa565b5b828201905092915050565b600061328a82613381565b915061329583613381565b9250817fffffffffffffffffffffffffffffffffffffffffffffffffffffffffffffffff04831182151516156132ce576132cd6133fa565b5b828202905092915050565b60006132e482613381565b91506132ef83613381565b925082821015613302576133016133fa565b5b828203905092915050565b600061331882613361565b9050919050565b60008115159050919050565b6000819050919050565b60007fffffffff0000000000000000000000000000000000000000000000000000000082169050919050565b600073ffffffffffffffffffffffffffffffffffffffff82169050919050565b6000819050919050565b600061339682613381565b9050919050565b60005b838110156133bb5780820151818401526020810190506133a0565b838111156133ca576000848401525b50505050565b60006133db82613381565b915060008214156133ef576133ee6133fa565b5b600182039050919050565b7f4e487b7100000000000000000000000000000000000000000000000000000000600052601160045260246000fd5b7f4e487b7100000000000000000000000000000000000000000000000000000000600052602160045260246000fd5b7f4e487b7100000000000000000000000000000000000000000000000000000000600052603160045260246000fd5b7f4e487b7100000000000000000000000000000000000000000000000000000000600052603260045260246000fd5b7f4e487b7100000000000000000000000000000000000000000000000000000000600052604160045260246000fd5b600080fd5b6000601f19601f8301169050919050565b7f537472696e67733a20686578206c656e67746820696e73756666696369656e74600082015250565b7f4552525045520000000000000000000000000000000000000000000000000000600082015250565b7f4241445251000000000000000000000000000000000000000000000000000000600082015250565b7f4e44504552000000000000000000000000000000000000000000000000000000600082015250565b7f4e4f544657520000000000000000000000000000000000000000000000000000600082015250565b7f494e414354560000000000000000000000000000000000000000000000000000600082015250565b7f436f6e747261637420696e7374616e63652068617320616c726561647920626560008201527f656e20696e697469616c697a6564000000000000000000000000000000000000602082015250565b7f554e415554480000000000000000000000000000000000000000000000000000600082015250565b7f416363657373436f6e74726f6c3a206163636f756e7420000000000000000000600082015250565b7f4e4f544657470000000000000000000000000000000000000000000000000000600082015250565b7f206973206d697373696e6720726f6c6520000000000000000000000000000000600082015250565b7f416363657373436f6e74726f6c3a2063616e206f6e6c792072656e6f756e636560008201527f20726f6c657320666f722073656c660000000000000000000000000000000000602082015250565b61373c8161330d565b811461374757600080fd5b50565b6137538161331f565b811461375e57600080fd5b50565b61376a8161332b565b811461377557600080fd5b50565b61378181613335565b811461378c57600080fd5b50565b6002811061379c57600080fd5b50565b6137a881613381565b81146137b357600080fd5b5056fea2646970667358221220001c229b4283d4676b7d687b56e6b51e51f5e2e421b3afe4a4f051bfe50a866864736f6c63430008070033",
  "immutableReferences": {},
  "source": "// SPDX-License-Identifier: GPL-3.0\r\npragma solidity >=0.4.25 <0.9.0;\r\nimport \"@openzeppelin/contracts/access/AccessControl.sol\";\r\nimport \"@openzeppelin/contracts/utils/structs/EnumerableSet.sol\";\r\n\r\nimport \"./VerifySignature.sol\";\r\nimport \"./LicenseTools.sol\";\r\nimport \"./LicenseToken.sol\";\r\nimport \"./ServiceManager.sol\";\r\nimport \"./UserMonitoringCenter.sol\";\r\n\r\n\r\nstruct AddressInfo {\r\n    bytes32 info1;\r\n    bytes32 info2;\r\n}\r\n\r\ncontract BlockchainUserCenter is AccessControl {\r\n    using EnumerableSet for EnumerableSet.AddressSet;\r\n\r\n    /******************************\r\n        EVENTS\r\n    ******************************/\r\n\r\n    event FollowinUserPermissionSettled(address user, uint256 permissions);\r\n    event FollowerUserPermissionSettled(address user, uint256 permissions);\r\n\r\n    /******************************\r\n        VARIABLES\r\n    ******************************/\r\n\r\n    uint private _blockchainId;\r\n\r\n    bytes32 constant OWNER_ROLE = keccak256(\"OWNER_ROLE\");\r\n    bytes32 constant MANAGER_ROLE = keccak256(\"MANAGER_ROLE\");\r\n\r\n    // manager of the contract\r\n    address private _owner;\r\n\r\n    // manager owner address\r\n    address private _managerOwner;\r\n\r\n    // user manager address\r\n    address private _userManager;\r\n\r\n    // Declare a set state variable of address following\r\n    mapping(address => uint256) _followingUsersPermissions;\r\n\r\n    // Declare a set state variable of address followers\r\n    mapping(address => uint256) _followersUsersPermissions;\r\n\r\n    // Declare a set state variable of address followers\r\n    mapping(address => bytes32) _nicknames;\r\n\r\n    // Declare a set address information for savinf\r\n    mapping(address => AddressInfo) _addressInfo;\r\n\r\n    // Declare a set state variable of address of followin gUsers\r\n    EnumerableSet.AddressSet _followingUsers;\r\n\r\n    // Declare a set state variable of address of followers users\r\n    EnumerableSet.AddressSet _followersUsers;\r\n    //User Manager\r\n    UserMonitoringCenter userMonitoringCenterInstance;\r\n    //Service Manager\r\n    ServiceManager serviceManagerInstance;\r\n    //License Manager\r\n    LicenseToken licenseTokenInstance;\r\n\r\n\r\n    bool private initialized;\r\n    bool _isActive = true;\r\n    enum UserType {\r\n        FOLLOWING,\r\n        FOLLOWER\r\n    }\r\n\r\n    //Modifiers\r\n    //  * @param userType true(FOLLOWING), false(FOLLOWERS)\r\n    modifier onlyFollowingOrFollowerUsers(address user, UserType userType) {\r\n        if (userType == UserType.FOLLOWING) {\r\n            require(_followingUsers.contains(user), \"NOTFWG\");\r\n        } else {\r\n            require(_followersUsers.contains(user), \"NOTFWR\");\r\n        }\r\n        _;\r\n    }\r\n\r\n    modifier checkActive() {\r\n        require(_isActive, \"INACTV\");\r\n        _;\r\n    }\r\n\r\n    // GETTERS\r\n\r\n    /**\r\n     * @notice Get the License Token Address\r\n     */\r\n    function getBlockchainId() public view returns (uint) {\r\n        return _blockchainId;\r\n    }    \r\n\r\n    /**\r\n     * @notice initialize function\r\n     * @param userMonitoringCenterAddress  user manager center address\r\n     * @param userAddress user address\r\n     * @param managerOwnerAddress  manager address\r\n     * @param serviceManagerAddress  service Manager Address\r\n     * @param licenseTokenAddress license Token Address\r\n     * @param blockchainId blockchain Id\r\n     */\r\n    function initialize(\r\n        address userMonitoringCenterAddress,\r\n        address managerOwnerAddress,\r\n        address userAddress,\r\n        address serviceManagerAddress,\r\n        address licenseTokenAddress,\r\n        uint blockchainId\r\n    ) public {\r\n        require(!initialized, \"Contract instance has already been initialized\");\r\n        _userManager = userMonitoringCenterAddress;\r\n        _managerOwner = managerOwnerAddress;\r\n        _owner = userAddress;\r\n        _setupRole(OWNER_ROLE, _owner);\r\n        _setupRole(MANAGER_ROLE, _managerOwner);\r\n        serviceManagerInstance = ServiceManager(serviceManagerAddress);\r\n        licenseTokenInstance = LicenseToken(licenseTokenAddress);\r\n        userMonitoringCenterInstance = UserMonitoringCenter(userMonitoringCenterAddress);\r\n        _blockchainId = blockchainId;\r\n        initialized = true;\r\n        _isActive = true;\r\n    }\r\n\r\n    /**\r\n     * @notice change manager\r\n     * @dev function is created in case of management center replacement\r\n     * @param newManagementCenterAddress manager Transaction Feed\r\n     */\r\n    function transferManagement(address newManagementCenterAddress) public {\r\n        require(\r\n            // Only manager's owner can change manager\r\n            _managerOwner == _msgSender(),\r\n            \"UNAUTH\"\r\n        );\r\n        _managerOwner = newManagementCenterAddress;\r\n    }       \r\n\r\n    /**\r\n     * @notice change manager\r\n     * @dev function is created in case of management center replacement\r\n     * @param isActive isActive variable\r\n     */\r\n    function setActivity(bool isActive) public {\r\n        require(hasRole(MANAGER_ROLE, _msgSender()),\r\n            \"UNAUTH\"\r\n        );\r\n        _isActive = isActive;\r\n    }\r\n\r\n    /**\r\n     * @notice Set user permissions for an address\r\n     * @param recipient added address\r\n     * @param userType FOLLOWING, FOLLOWERS\r\n     * @param permissions permissions added with\r\n     * @param nickname nickname\r\n     */\r\n    function setUserPermissionsNicknameAndInfo(\r\n        address recipient,\r\n        uint256 permissions,\r\n        UserType userType,\r\n        bytes32 nickname,\r\n        bytes32 info1,\r\n        bytes32 info2\r\n    ) public checkActive {\r\n        require(hasRole(OWNER_ROLE, _msgSender()), \"UNAUTH\");\r\n        _nicknames[recipient] = nickname;\r\n        setAddressInfo(recipient, info1, info2);\r\n        return\r\n            setUserPermissions(\r\n                recipient,\r\n                permissions,\r\n                userType\r\n            );\r\n    }\r\n\r\n    /**\r\n     * @notice Set user permissions for an address\r\n     * @param recipient added address\r\n     * @param userType FOLLOWING, FOLLOWERS\r\n     * @param permissions permissions added with\r\n     * @param nickname nickname\r\n     */\r\n    function setUserPermissionsAndNickname(\r\n        address recipient,\r\n        uint256 permissions,\r\n        UserType userType,\r\n        bytes32 nickname\r\n    ) public checkActive {\r\n        require(hasRole(OWNER_ROLE, _msgSender()), \"UNAUTH\");\r\n        _nicknames[recipient] = nickname;\r\n        return\r\n            setUserPermissions(\r\n                recipient,\r\n                permissions,\r\n                userType\r\n            );\r\n    }\r\n\r\n    /**\r\n     * @notice Set user permissions for an address\r\n     * @param recipient added address\r\n     * @param userType FOLLOWING, FOLLOWERS\r\n     * @param permissions permissions added with\r\n     */\r\n    function setUserPermissions(\r\n        address recipient,\r\n        uint256 permissions,\r\n        UserType userType\r\n    ) public checkActive {\r\n        require(hasRole(OWNER_ROLE, _msgSender()), \"UNAUTH\");\r\n        require(permissions != 0, \"NDPER\");\r\n        if (userType == UserType.FOLLOWING) {\r\n            require(\r\n                _followingUsersPermissions[recipient] != permissions,\r\n                \"ERRPER\"\r\n            );\r\n            _followingUsers.add(recipient);\r\n            _followingUsersPermissions[recipient] = permissions;\r\n            emit FollowinUserPermissionSettled(recipient, permissions);\r\n        } else {\r\n            require(\r\n                _followersUsersPermissions[recipient] != permissions,\r\n                \"ERRPER\"\r\n            );\r\n            _followersUsers.add(recipient);\r\n            _followersUsersPermissions[recipient] = permissions;\r\n            emit FollowerUserPermissionSettled(recipient, permissions);\r\n        }\r\n    }\r\n\r\n    /**\r\n    * @notice get all users FOLLOWING or FOLLOWERS for the address.\r\n    * @param userType true(FOLLOWING), false(FOLLOWERS)\r\n    * Return the entire set in an array\r\n    //\r\n    // WARNING\tThis operation will copy the entire storage to memory,\r\n    // which can be quite expensive. This is designed to mostly be used by view\r\n    // accessors that are queried without any gas fees.\r\n    // Developers should keep in mind that this function\r\n    // has an unbounded cost, and using it as part of a state-changing\r\n    // function may render the function uncallable if the set grows to a\r\n    // point where copying to memory consumes too much gas to fit in a block.\r\n    */\r\n    function getAllUsers(UserType userType)\r\n        public\r\n        view\r\n        checkActive\r\n        returns (address[] memory)\r\n    {\r\n        require(hasRole(OWNER_ROLE, _msgSender()), \"UNAUTH\");\r\n        return\r\n            userType == UserType.FOLLOWING\r\n                ? _followingUsers.values()\r\n                : _followersUsers.values();\r\n    }\r\n\r\n    /**\r\n     * @notice Remove follower.\r\n     * @param user foolowe user to be removed\r\n     * @param userType FOLLOWING), FOLLOWERS)\r\n     * the user can remove itself\r\n     */\r\n    function removeUsers(address user, UserType userType)\r\n        public\r\n        checkActive\r\n        onlyFollowingOrFollowerUsers(user, userType)\r\n    {\r\n        require(hasRole(OWNER_ROLE, _msgSender()), \"UNAUTH\");\r\n        if (userType == UserType.FOLLOWING) {\r\n            _followingUsers.remove(user);\r\n            _followingUsersPermissions[user] = 0;\r\n            emit FollowinUserPermissionSettled(user, 0);\r\n        } else {\r\n            _followersUsers.remove(user);\r\n            _followersUsersPermissions[user] = 0;\r\n            emit FollowerUserPermissionSettled(user, 0);\r\n        }                                                                           \r\n    }\r\n\r\n    /**\r\n     * @notice get open reading services pool\r\n     */\r\n    function getUserPermissions(address user, UserType userType)\r\n        public\r\n        view\r\n        checkActive\r\n        returns (uint256)\r\n    {\r\n        if (userType == UserType.FOLLOWING)\r\n            return _followingUsersPermissions[user];\r\n        else return _followersUsersPermissions[user];\r\n    }\r\n\r\n    /**\r\n     * @notice self Remove viewer. If user dont want to follow the current user,\r\n     * the user can remove itself\r\n     */\r\n    function followerUserSelfRemove()\r\n        public\r\n        checkActive\r\n        onlyFollowingOrFollowerUsers(_msgSender(), UserType.FOLLOWER)\r\n    {\r\n        _followersUsers.remove(_msgSender());\r\n        _followersUsersPermissions[_msgSender()] = 0;\r\n        emit FollowerUserPermissionSettled(_msgSender(), 0);\r\n    }\r\n\r\n    /**\r\n     * @notice follower User Get Own Permissions\r\n     */\r\n    function followerUserGetOwnPermissions()\r\n        public\r\n        view\r\n        checkActive\r\n        onlyFollowingOrFollowerUsers(_msgSender(), UserType.FOLLOWER)\r\n        returns (uint256)\r\n    {\r\n        return _followersUsersPermissions[_msgSender()];\r\n    }\r\n    /**\r\n     * @dev get data function from viewres\r\n     * @param user the function follower\r\n     * @param follower the function follower\r\n     * @param serviceId the service id of the wanted hash\r\n     */\r\n    function isFollowerAllowed(\r\n        address user,\r\n        address follower,\r\n        uint256 serviceId\r\n    ) public view checkActive returns (bool) {\r\n        require(_owner == user, \"BADRQ\");\r\n        if (userMonitoringCenterInstance.isOpenReadingService(serviceId)) {\r\n            return true;\r\n        } else {\r\n            if (!_followersUsers.contains(follower)) return false;\r\n            // require the viewer are allowed to get data for the required service\r\n            return\r\n                LicenseTools.getBoolean(\r\n                    _followersUsersPermissions[follower],\r\n                    serviceId\r\n                );\r\n        }\r\n    }\r\n\r\n    /**\r\n     * @notice set user nickname\r\n     * @param user user\r\n     * @param nickname nickname\r\n     */\r\n    function setUserNickname(address user, bytes32 nickname)\r\n        public\r\n        checkActive\r\n    {\r\n        require(hasRole(OWNER_ROLE, _msgSender()), \"UNAUTH\");\r\n        _nicknames[user] = nickname;\r\n    }\r\n\r\n    /**\r\n     * @notice get user nickname\r\n     * @param user user\r\n     */\r\n    function getUserNickname(address user)\r\n        public\r\n        view\r\n        checkActive\r\n        returns (bytes32)\r\n    {\r\n        require(hasRole(OWNER_ROLE, _msgSender()), \"UNAUTH\");\r\n        return _nicknames[user];\r\n    }\r\n\r\n    /**\r\n     * @notice set user nickname\r\n     * @param user user\r\n     * @param info1 info1\r\n     * @param info2 info1\r\n     */\r\n    function setAddressInfo(address user, bytes32 info1, bytes32 info2)\r\n        public\r\n        checkActive\r\n    {\r\n        require(hasRole(OWNER_ROLE, _msgSender()), \"UNAUTH\");\r\n        AddressInfo storage addInfo = _addressInfo[user];\r\n        addInfo.info1 = info1;\r\n        addInfo.info2 = info2;\r\n    } \r\n\r\n    /**\r\n     * @notice get service by id.\r\n     * Return the entire set in an array\r\n     * @param user service id\r\n     */\r\n    function getAddressInfo(address user)\r\n        public\r\n        view\r\n        checkActive\r\n        returns (AddressInfo memory)\r\n    {\r\n        return _addressInfo[user];\r\n    }       \r\n}\r\n",
  "sourcePath": "C:\\Users\\israel\\Documents\\codes\\dev\\cryptween\\smart-contract-3\\contracts\\BlockchainUserCenter.sol",
  "compiler": {
    "name": "solc",
    "version": "0.8.7+commit.e28d00a7.Emscripten.clang"
  },
  "schemaVersion": "3.4.13",
  "updatedAt": "2023-06-09T14:57:24.589Z",
  "networkType": "ethereum",
  "devdoc": {
    "kind": "dev",
    "methods": {
      "getAddressInfo(address)": {
        "params": {
          "user": "service id"
        }
      },
      "getAllUsers(uint8)": {
        "params": {
          "userType": "true(FOLLOWING), false(FOLLOWERS) Return the entire set in an array // // WARNING\tThis operation will copy the entire storage to memory, // which can be quite expensive. This is designed to mostly be used by view // accessors that are queried without any gas fees. // Developers should keep in mind that this function // has an unbounded cost, and using it as part of a state-changing // function may render the function uncallable if the set grows to a // point where copying to memory consumes too much gas to fit in a block."
        }
      },
      "getRoleAdmin(bytes32)": {
        "details": "Returns the admin role that controls `role`. See {grantRole} and {revokeRole}. To change a role's admin, use {_setRoleAdmin}."
      },
      "getUserNickname(address)": {
        "params": {
          "user": "user"
        }
      },
      "grantRole(bytes32,address)": {
        "details": "Grants `role` to `account`. If `account` had not been already granted `role`, emits a {RoleGranted} event. Requirements: - the caller must have ``role``'s admin role. May emit a {RoleGranted} event."
      },
      "hasRole(bytes32,address)": {
        "details": "Returns `true` if `account` has been granted `role`."
      },
      "initialize(address,address,address,address,address,uint256)": {
        "params": {
          "blockchainId": "blockchain Id",
          "licenseTokenAddress": "license Token Address",
          "managerOwnerAddress": "manager address",
          "serviceManagerAddress": "service Manager Address",
          "userAddress": "user address",
          "userMonitoringCenterAddress": "user manager center address"
        }
      },
      "isFollowerAllowed(address,address,uint256)": {
        "details": "get data function from viewres",
        "params": {
          "follower": "the function follower",
          "serviceId": "the service id of the wanted hash",
          "user": "the function follower"
        }
      },
      "removeUsers(address,uint8)": {
        "params": {
          "user": "foolowe user to be removed",
          "userType": "FOLLOWING), FOLLOWERS) the user can remove itself"
        }
      },
      "renounceRole(bytes32,address)": {
        "details": "Revokes `role` from the calling account. Roles are often managed via {grantRole} and {revokeRole}: this function's purpose is to provide a mechanism for accounts to lose their privileges if they are compromised (such as when a trusted device is misplaced). If the calling account had been revoked `role`, emits a {RoleRevoked} event. Requirements: - the caller must be `account`. May emit a {RoleRevoked} event."
      },
      "revokeRole(bytes32,address)": {
        "details": "Revokes `role` from `account`. If `account` had been granted `role`, emits a {RoleRevoked} event. Requirements: - the caller must have ``role``'s admin role. May emit a {RoleRevoked} event."
      },
      "setActivity(bool)": {
        "details": "function is created in case of management center replacement",
        "params": {
          "isActive": "isActive variable"
        }
      },
      "setAddressInfo(address,bytes32,bytes32)": {
        "params": {
          "info1": "info1",
          "info2": "info1",
          "user": "user"
        }
      },
      "setUserNickname(address,bytes32)": {
        "params": {
          "nickname": "nickname",
          "user": "user"
        }
      },
      "setUserPermissions(address,uint256,uint8)": {
        "params": {
          "permissions": "permissions added with",
          "recipient": "added address",
          "userType": "FOLLOWING, FOLLOWERS"
        }
      },
      "setUserPermissionsAndNickname(address,uint256,uint8,bytes32)": {
        "params": {
          "nickname": "nickname",
          "permissions": "permissions added with",
          "recipient": "added address",
          "userType": "FOLLOWING, FOLLOWERS"
        }
      },
      "setUserPermissionsNicknameAndInfo(address,uint256,uint8,bytes32,bytes32,bytes32)": {
        "params": {
          "nickname": "nickname",
          "permissions": "permissions added with",
          "recipient": "added address",
          "userType": "FOLLOWING, FOLLOWERS"
        }
      },
      "supportsInterface(bytes4)": {
        "details": "See {IERC165-supportsInterface}."
      },
      "transferManagement(address)": {
        "details": "function is created in case of management center replacement",
        "params": {
          "newManagementCenterAddress": "manager Transaction Feed"
        }
      }
    },
    "version": 1
  },
  "userdoc": {
    "kind": "user",
    "methods": {
      "followerUserGetOwnPermissions()": {
        "notice": "follower User Get Own Permissions"
      },
      "followerUserSelfRemove()": {
        "notice": "self Remove viewer. If user dont want to follow the current user, the user can remove itself"
      },
      "getAddressInfo(address)": {
        "notice": "get service by id. Return the entire set in an array"
      },
      "getAllUsers(uint8)": {
        "notice": "get all users FOLLOWING or FOLLOWERS for the address."
      },
      "getBlockchainId()": {
        "notice": "Get the License Token Address"
      },
      "getUserNickname(address)": {
        "notice": "get user nickname"
      },
      "getUserPermissions(address,uint8)": {
        "notice": "get open reading services pool"
      },
      "initialize(address,address,address,address,address,uint256)": {
        "notice": "initialize function"
      },
      "removeUsers(address,uint8)": {
        "notice": "Remove follower."
      },
      "setActivity(bool)": {
        "notice": "change manager"
      },
      "setAddressInfo(address,bytes32,bytes32)": {
        "notice": "set user nickname"
      },
      "setUserNickname(address,bytes32)": {
        "notice": "set user nickname"
      },
      "setUserPermissions(address,uint256,uint8)": {
        "notice": "Set user permissions for an address"
      },
      "setUserPermissionsAndNickname(address,uint256,uint8,bytes32)": {
        "notice": "Set user permissions for an address"
      },
      "setUserPermissionsNicknameAndInfo(address,uint256,uint8,bytes32,bytes32,bytes32)": {
        "notice": "Set user permissions for an address"
      },
      "transferManagement(address)": {
        "notice": "change manager"
      }
    },
    "version": 1
  }
}