{
  "contractName": "BlockchainManager",
  "abi": [
    {
      "inputs": [],
      "stateMutability": "nonpayable",
      "type": "constructor"
    },
    {
      "anonymous": false,
      "inputs": [
        {
          "indexed": true,
          "internalType": "address",
          "name": "previousOwner",
          "type": "address"
        },
        {
          "indexed": true,
          "internalType": "address",
          "name": "newOwner",
          "type": "address"
        }
      ],
      "name": "OwnershipTransferred",
      "type": "event"
    },
    {
      "anonymous": false,
      "inputs": [
        {
          "indexed": true,
          "internalType": "bytes32",
          "name": "role",
          "type": "bytes32"
        },
        {
          "indexed": true,
          "internalType": "bytes32",
          "name": "previousAdminRole",
          "type": "bytes32"
        },
        {
          "indexed": true,
          "internalType": "bytes32",
          "name": "newAdminRole",
          "type": "bytes32"
        }
      ],
      "name": "RoleAdminChanged",
      "type": "event"
    },
    {
      "anonymous": false,
      "inputs": [
        {
          "indexed": true,
          "internalType": "bytes32",
          "name": "role",
          "type": "bytes32"
        },
        {
          "indexed": true,
          "internalType": "address",
          "name": "account",
          "type": "address"
        },
        {
          "indexed": true,
          "internalType": "address",
          "name": "sender",
          "type": "address"
        }
      ],
      "name": "RoleGranted",
      "type": "event"
    },
    {
      "anonymous": false,
      "inputs": [
        {
          "indexed": true,
          "internalType": "bytes32",
          "name": "role",
          "type": "bytes32"
        },
        {
          "indexed": true,
          "internalType": "address",
          "name": "account",
          "type": "address"
        },
        {
          "indexed": true,
          "internalType": "address",
          "name": "sender",
          "type": "address"
        }
      ],
      "name": "RoleRevoked",
      "type": "event"
    },
    {
      "anonymous": false,
      "inputs": [
        {
          "indexed": false,
          "internalType": "uint256",
          "name": "id",
          "type": "uint256"
        }
      ],
      "name": "blockchainAdded",
      "type": "event"
    },
    {
      "anonymous": false,
      "inputs": [
        {
          "indexed": false,
          "internalType": "uint256",
          "name": "id",
          "type": "uint256"
        }
      ],
      "name": "blockchainRemoved",
      "type": "event"
    },
    {
      "inputs": [],
      "name": "BLOCKCHAIN_MANAGER_ROLE",
      "outputs": [
        {
          "internalType": "bytes32",
          "name": "",
          "type": "bytes32"
        }
      ],
      "stateMutability": "view",
      "type": "function",
      "constant": true
    },
    {
      "inputs": [],
      "name": "DEFAULT_ADMIN_ROLE",
      "outputs": [
        {
          "internalType": "bytes32",
          "name": "",
          "type": "bytes32"
        }
      ],
      "stateMutability": "view",
      "type": "function",
      "constant": true
    },
    {
      "inputs": [
        {
          "internalType": "bytes32",
          "name": "role",
          "type": "bytes32"
        }
      ],
      "name": "getRoleAdmin",
      "outputs": [
        {
          "internalType": "bytes32",
          "name": "",
          "type": "bytes32"
        }
      ],
      "stateMutability": "view",
      "type": "function",
      "constant": true
    },
    {
      "inputs": [
        {
          "internalType": "bytes32",
          "name": "role",
          "type": "bytes32"
        },
        {
          "internalType": "uint256",
          "name": "index",
          "type": "uint256"
        }
      ],
      "name": "getRoleMember",
      "outputs": [
        {
          "internalType": "address",
          "name": "",
          "type": "address"
        }
      ],
      "stateMutability": "view",
      "type": "function",
      "constant": true
    },
    {
      "inputs": [
        {
          "internalType": "bytes32",
          "name": "role",
          "type": "bytes32"
        }
      ],
      "name": "getRoleMemberCount",
      "outputs": [
        {
          "internalType": "uint256",
          "name": "",
          "type": "uint256"
        }
      ],
      "stateMutability": "view",
      "type": "function",
      "constant": true
    },
    {
      "inputs": [
        {
          "internalType": "bytes32",
          "name": "role",
          "type": "bytes32"
        },
        {
          "internalType": "address",
          "name": "account",
          "type": "address"
        }
      ],
      "name": "grantRole",
      "outputs": [],
      "stateMutability": "nonpayable",
      "type": "function"
    },
    {
      "inputs": [
        {
          "internalType": "bytes32",
          "name": "role",
          "type": "bytes32"
        },
        {
          "internalType": "address",
          "name": "account",
          "type": "address"
        }
      ],
      "name": "hasRole",
      "outputs": [
        {
          "internalType": "bool",
          "name": "",
          "type": "bool"
        }
      ],
      "stateMutability": "view",
      "type": "function",
      "constant": true
    },
    {
      "inputs": [],
      "name": "owner",
      "outputs": [
        {
          "internalType": "address",
          "name": "",
          "type": "address"
        }
      ],
      "stateMutability": "view",
      "type": "function",
      "constant": true
    },
    {
      "inputs": [],
      "name": "renounceOwnership",
      "outputs": [],
      "stateMutability": "nonpayable",
      "type": "function"
    },
    {
      "inputs": [
        {
          "internalType": "bytes32",
          "name": "role",
          "type": "bytes32"
        },
        {
          "internalType": "address",
          "name": "account",
          "type": "address"
        }
      ],
      "name": "renounceRole",
      "outputs": [],
      "stateMutability": "nonpayable",
      "type": "function"
    },
    {
      "inputs": [
        {
          "internalType": "bytes32",
          "name": "role",
          "type": "bytes32"
        },
        {
          "internalType": "address",
          "name": "account",
          "type": "address"
        }
      ],
      "name": "revokeRole",
      "outputs": [],
      "stateMutability": "nonpayable",
      "type": "function"
    },
    {
      "inputs": [
        {
          "internalType": "bytes4",
          "name": "interfaceId",
          "type": "bytes4"
        }
      ],
      "name": "supportsInterface",
      "outputs": [
        {
          "internalType": "bool",
          "name": "",
          "type": "bool"
        }
      ],
      "stateMutability": "view",
      "type": "function",
      "constant": true
    },
    {
      "inputs": [
        {
          "internalType": "address",
          "name": "newOwner",
          "type": "address"
        }
      ],
      "name": "transferOwnership",
      "outputs": [],
      "stateMutability": "nonpayable",
      "type": "function"
    },
    {
      "inputs": [
        {
          "internalType": "uint256",
          "name": "blockchainId",
          "type": "uint256"
        },
        {
          "internalType": "bytes32",
          "name": "name",
          "type": "bytes32"
        }
      ],
      "name": "registerBlockchain",
      "outputs": [],
      "stateMutability": "nonpayable",
      "type": "function"
    },
    {
      "inputs": [
        {
          "internalType": "uint256",
          "name": "blockchainId",
          "type": "uint256"
        }
      ],
      "name": "removeBlockchain",
      "outputs": [],
      "stateMutability": "nonpayable",
      "type": "function"
    },
    {
      "inputs": [],
      "name": "getAllBlockchainIds",
      "outputs": [
        {
          "internalType": "uint256[]",
          "name": "",
          "type": "uint256[]"
        }
      ],
      "stateMutability": "view",
      "type": "function",
      "constant": true
    },
    {
      "inputs": [
        {
          "internalType": "uint256",
          "name": "id",
          "type": "uint256"
        }
      ],
      "name": "getBlockchain",
      "outputs": [
        {
          "components": [
            {
              "internalType": "uint256",
              "name": "blockchainId",
              "type": "uint256"
            },
            {
              "internalType": "bytes32",
              "name": "name",
              "type": "bytes32"
            }
          ],
          "internalType": "struct BlockchainInfo",
          "name": "",
          "type": "tuple"
        }
      ],
      "stateMutability": "view",
      "type": "function",
      "constant": true
    },
    {
      "inputs": [
        {
          "internalType": "bytes32",
          "name": "name",
          "type": "bytes32"
        }
      ],
      "name": "getBlockchainByName",
      "outputs": [
        {
          "components": [
            {
              "internalType": "uint256",
              "name": "blockchainId",
              "type": "uint256"
            },
            {
              "internalType": "bytes32",
              "name": "name",
              "type": "bytes32"
            }
          ],
          "internalType": "struct BlockchainInfo",
          "name": "",
          "type": "tuple"
        }
      ],
      "stateMutability": "view",
      "type": "function",
      "constant": true
    },
    {
      "inputs": [
        {
          "internalType": "bytes32",
          "name": "name",
          "type": "bytes32"
        }
      ],
      "name": "getBlockchainId",
      "outputs": [
        {
          "internalType": "uint256",
          "name": "blockchainId",
          "type": "uint256"
        }
      ],
      "stateMutability": "view",
      "type": "function",
      "constant": true
    },
    {
      "inputs": [
        {
          "internalType": "uint256",
          "name": "id",
          "type": "uint256"
        }
      ],
      "name": "existBlockchain",
      "outputs": [
        {
          "internalType": "bool",
          "name": "",
          "type": "bool"
        }
      ],
      "stateMutability": "view",
      "type": "function",
      "constant": true
    }
  ],
  "bytecode": "0x60806040523480156200001157600080fd5b5062000032620000266200009d60201b60201c565b620000a560201b60201c565b620000566000801b6200004a6200009d60201b60201c565b6200016960201b60201c565b620000977fe6942e54af0b80aaf367c0a79cb00c2be22d30a043b443743d05dde2d69b7bbf6200008b6200009d60201b60201c565b6200016960201b60201c565b620003f8565b600033905090565b60008060009054906101000a900473ffffffffffffffffffffffffffffffffffffffff169050816000806101000a81548173ffffffffffffffffffffffffffffffffffffffff021916908373ffffffffffffffffffffffffffffffffffffffff1602179055508173ffffffffffffffffffffffffffffffffffffffff168173ffffffffffffffffffffffffffffffffffffffff167f8be0079c531659141344cd1fd0a4f28419497f9722a3daafe3b4186f6b6457e060405160405180910390a35050565b6200017b82826200017f60201b60201c565b5050565b620001968282620001c760201b62000d2c1760201c565b620001c28160026000858152602001908152602001600020620002b860201b62000e0c1790919060201c565b505050565b620001d98282620002f060201b60201c565b620002b457600180600084815260200190815260200160002060000160008373ffffffffffffffffffffffffffffffffffffffff1673ffffffffffffffffffffffffffffffffffffffff16815260200190815260200160002060006101000a81548160ff021916908315150217905550620002596200009d60201b60201c565b73ffffffffffffffffffffffffffffffffffffffff168173ffffffffffffffffffffffffffffffffffffffff16837f2f8788117e7eff1d82e926ec794901d17c78024a50270940304540a733656f0d60405160405180910390a45b5050565b6000620002e8836000018373ffffffffffffffffffffffffffffffffffffffff1660001b6200035b60201b60201c565b905092915050565b60006001600084815260200190815260200160002060000160008373ffffffffffffffffffffffffffffffffffffffff1673ffffffffffffffffffffffffffffffffffffffff16815260200190815260200160002060009054906101000a900460ff16905092915050565b60006200036f8383620003d560201b60201c565b620003ca578260000182908060018154018082558091505060019003906000526020600020016000909190919091505582600001805490508360010160008481526020019081526020016000208190555060019050620003cf565b600090505b92915050565b600080836001016000848152602001908152602001600020541415905092915050565b61252080620004086000396000f3fe608060405234801561001057600080fd5b506004361061012c5760003560e01c80638da5cb5b116100ad578063bf5393b711610071578063bf5393b714610343578063ca15c87314610373578063d547741f146103a3578063f0187fd0146103bf578063f2fde38b146103ef5761012c565b80638da5cb5b146102895780639010d07c146102a757806391d14854146102d7578063a10a72a014610307578063a217fddf146103255761012c565b806336568abe116100f457806336568abe146101f95780634535a754146102155780634af8a20414610231578063715018a61461024f578063880e6517146102595761012c565b806301ffc9a71461013157806322c5957f14610161578063248a9ca3146101915780632889d2c1146101c15780632f2ff15d146101dd575b600080fd5b61014b60048036038101906101469190611953565b61040b565b6040516101589190611d71565b60405180910390f35b61017b60048036038101906101769190611980565b610485565b6040516101889190611f09565b60405180910390f35b6101ab60048036038101906101a691906118a6565b61051b565b6040516101b89190611d8c565b60405180910390f35b6101db60048036038101906101d691906119ad565b61053b565b005b6101f760048036038101906101f291906118d3565b61073e565b005b610213600480360381019061020e91906118d3565b61075f565b005b61022f600480360381019061022a9190611980565b6107e2565b005b610239610966565b6040516102469190611d8c565b60405180910390f35b61025761098a565b005b610273600480360381019061026e9190611980565b61099e565b6040516102809190611d71565b60405180910390f35b6102916109bb565b60405161029e9190611d34565b60405180910390f35b6102c160048036038101906102bc9190611913565b6109e4565b6040516102ce9190611d34565b60405180910390f35b6102f160048036038101906102ec91906118d3565b610a13565b6040516102fe9190611d71565b60405180910390f35b61030f610a7e565b60405161031c9190611d4f565b60405180910390f35b61032d610a8f565b60405161033a9190611d8c565b60405180910390f35b61035d600480360381019061035891906118a6565b610a96565b60405161036a9190611f09565b60405180910390f35b61038d600480360381019061038891906118a6565b610b9b565b60405161039a9190611f24565b60405180910390f35b6103bd60048036038101906103b891906118d3565b610bbf565b005b6103d960048036038101906103d491906118a6565b610be0565b6040516103e69190611f24565b60405180910390f35b61040960048036038101906104049190611879565b610ca8565b005b60007f5a05180f000000000000000000000000000000000000000000000000000000007bffffffffffffffffffffffffffffffffffffffffffffffffffffffff1916827bffffffffffffffffffffffffffffffffffffffffffffffffffffffff1916148061047e575061047d82610e3c565b5b9050919050565b61048d611808565b816104a2816005610eb690919063ffffffff16565b6104e1576040517f08c379a00000000000000000000000000000000000000000000000000000000081526004016104d890611e69565b60405180910390fd5b6003600084815260200190815260200160002060405180604001604052908160008201548152602001600182015481525050915050919050565b600060016000838152602001908152602001600020600101549050919050565b61056c7fe6942e54af0b80aaf367c0a79cb00c2be22d30a043b443743d05dde2d69b7bbf610567610ed0565b610a13565b6105ab576040517f08c379a00000000000000000000000000000000000000000000000000000000081526004016105a290611de9565b60405180910390fd5b60ff8211156105ef576040517f08c379a00000000000000000000000000000000000000000000000000000000081526004016105e690611ec9565b60405180910390fd5b610603826005610eb690919063ffffffff16565b15610643576040517f08c379a000000000000000000000000000000000000000000000000000000000815260040161063a90611ea9565b60405180910390fd5b610657816007610ed890919063ffffffff16565b15610697576040517f08c379a000000000000000000000000000000000000000000000000000000000815260040161068e90611e29565b60405180910390fd5b6106ab826005610eef90919063ffffffff16565b506106c0816007610f0990919063ffffffff16565b5060006003600084815260200190815260200160002090508281600001819055508181600101819055508260046000848152602001908152602001600020819055507f9482bc32be4facdbb5d39923fab85e87dfb115c82b70bd3b4bad0479ba57b09f836040516107319190611f24565b60405180910390a1505050565b6107478261051b565b61075081610f20565b61075a8383610f34565b505050565b610767610ed0565b73ffffffffffffffffffffffffffffffffffffffff168173ffffffffffffffffffffffffffffffffffffffff16146107d4576040517f08c379a00000000000000000000000000000000000000000000000000000000081526004016107cb90611ee9565b60405180910390fd5b6107de8282610f68565b5050565b6108137fe6942e54af0b80aaf367c0a79cb00c2be22d30a043b443743d05dde2d69b7bbf61080e610ed0565b610a13565b610852576040517f08c379a000000000000000000000000000000000000000000000000000000000815260040161084990611de9565b60405180910390fd5b80610867816005610eb690919063ffffffff16565b6108a6576040517f08c379a000000000000000000000000000000000000000000000000000000000815260040161089d90611e69565b60405180910390fd5b6000600360008481526020019081526020016000206001015490506108d5836005610f9c90919063ffffffff16565b506108ea816007610fb690919063ffffffff16565b506003600084815260200190815260200160002060008082016000905560018201600090555050600060046000838152602001908152602001600020819055507fb9737dac0ebc0b0a21a5af404813f412380127d653847e262224ef792b4098fe836040516109599190611f24565b60405180910390a1505050565b7fe6942e54af0b80aaf367c0a79cb00c2be22d30a043b443743d05dde2d69b7bbf81565b610992610fcd565b61099c600061104b565b565b60006109b4826005610eb690919063ffffffff16565b9050919050565b60008060009054906101000a900473ffffffffffffffffffffffffffffffffffffffff16905090565b6000610a0b826002600086815260200190815260200160002061110f90919063ffffffff16565b905092915050565b60006001600084815260200190815260200160002060000160008373ffffffffffffffffffffffffffffffffffffffff1673ffffffffffffffffffffffffffffffffffffffff16815260200190815260200160002060009054906101000a900460ff16905092915050565b6060610a8a6005611129565b905090565b6000801b81565b610a9e611808565b600060046000848152602001908152602001600020549050610aca816005610eb690919063ffffffff16565b610b09576040517f08c379a0000000000000000000000000000000000000000000000000000000008152600401610b0090611e69565b60405180910390fd5b82600360008381526020019081526020016000206001015414610b61576040517f08c379a0000000000000000000000000000000000000000000000000000000008152600401610b5890611e49565b60405180910390fd5b6003600082815260200190815260200160002060405180604001604052908160008201548152602001600182015481525050915050919050565b6000610bb86002600084815260200190815260200160002061114a565b9050919050565b610bc88261051b565b610bd181610f20565b610bdb8383610f68565b505050565b600060046000838152602001908152602001600020549050610c0c816005610eb690919063ffffffff16565b610c4b576040517f08c379a0000000000000000000000000000000000000000000000000000000008152600401610c4290611e69565b60405180910390fd5b81600360008381526020019081526020016000206001015414610ca3576040517f08c379a0000000000000000000000000000000000000000000000000000000008152600401610c9a90611e49565b60405180910390fd5b919050565b610cb0610fcd565b600073ffffffffffffffffffffffffffffffffffffffff168173ffffffffffffffffffffffffffffffffffffffff161415610d20576040517f08c379a0000000000000000000000000000000000000000000000000000000008152600401610d1790611e09565b60405180910390fd5b610d298161104b565b50565b610d368282610a13565b610e0857600180600084815260200190815260200160002060000160008373ffffffffffffffffffffffffffffffffffffffff1673ffffffffffffffffffffffffffffffffffffffff16815260200190815260200160002060006101000a81548160ff021916908315150217905550610dad610ed0565b73ffffffffffffffffffffffffffffffffffffffff168173ffffffffffffffffffffffffffffffffffffffff16837f2f8788117e7eff1d82e926ec794901d17c78024a50270940304540a733656f0d60405160405180910390a45b5050565b6000610e34836000018373ffffffffffffffffffffffffffffffffffffffff1660001b61115f565b905092915050565b60007f7965db0b000000000000000000000000000000000000000000000000000000007bffffffffffffffffffffffffffffffffffffffffffffffffffffffff1916827bffffffffffffffffffffffffffffffffffffffffffffffffffffffff19161480610eaf5750610eae826111cf565b5b9050919050565b6000610ec8836000018360001b611239565b905092915050565b600033905090565b6000610ee78360000183611239565b905092915050565b6000610f01836000018360001b61115f565b905092915050565b6000610f18836000018361115f565b905092915050565b610f3181610f2c610ed0565b61125c565b50565b610f3e8282610d2c565b610f638160026000858152602001908152602001600020610e0c90919063ffffffff16565b505050565b610f7282826112e1565b610f9781600260008581526020019081526020016000206113c390919063ffffffff16565b505050565b6000610fae836000018360001b6113f3565b905092915050565b6000610fc583600001836113f3565b905092915050565b610fd5610ed0565b73ffffffffffffffffffffffffffffffffffffffff16610ff36109bb565b73ffffffffffffffffffffffffffffffffffffffff1614611049576040517f08c379a000000000000000000000000000000000000000000000000000000000815260040161104090611e89565b60405180910390fd5b565b60008060009054906101000a900473ffffffffffffffffffffffffffffffffffffffff169050816000806101000a81548173ffffffffffffffffffffffffffffffffffffffff021916908373ffffffffffffffffffffffffffffffffffffffff1602179055508173ffffffffffffffffffffffffffffffffffffffff168173ffffffffffffffffffffffffffffffffffffffff167f8be0079c531659141344cd1fd0a4f28419497f9722a3daafe3b4186f6b6457e060405160405180910390a35050565b600061111e8360000183611507565b60001c905092915050565b6060600061113983600001611532565b905060608190508092505050919050565b60006111588260000161158e565b9050919050565b600061116b8383611239565b6111c45782600001829080600181540180825580915050600190039060005260206000200160009091909190915055826000018054905083600101600084815260200190815260200160002081905550600190506111c9565b600090505b92915050565b60007f01ffc9a7000000000000000000000000000000000000000000000000000000007bffffffffffffffffffffffffffffffffffffffffffffffffffffffff1916827bffffffffffffffffffffffffffffffffffffffffffffffffffffffff1916149050919050565b600080836001016000848152602001908152602001600020541415905092915050565b6112668282610a13565b6112dd576112738161159f565b6112818360001c60206115cc565b604051602001611292929190611cfa565b6040516020818303038152906040526040517f08c379a00000000000000000000000000000000000000000000000000000000081526004016112d49190611da7565b60405180910390fd5b5050565b6112eb8282610a13565b156113bf5760006001600084815260200190815260200160002060000160008373ffffffffffffffffffffffffffffffffffffffff1673ffffffffffffffffffffffffffffffffffffffff16815260200190815260200160002060006101000a81548160ff021916908315150217905550611364610ed0565b73ffffffffffffffffffffffffffffffffffffffff168173ffffffffffffffffffffffffffffffffffffffff16837ff6391f5c32d9c69d2a47ea670b442974b53935d1edc7fd64eb21e047a839171b60405160405180910390a45b5050565b60006113eb836000018373ffffffffffffffffffffffffffffffffffffffff1660001b6113f3565b905092915050565b600080836001016000848152602001908152602001600020549050600081146114fb576000600182611425919061204f565b905060006001866000018054905061143d919061204f565b90508181146114ac57600086600001828154811061145e5761145d6121bc565b5b9060005260206000200154905080876000018481548110611482576114816121bc565b5b90600052602060002001819055508387600101600083815260200190815260200160002081905550505b856000018054806114c0576114bf61218d565b5b600190038181906000526020600020016000905590558560010160008681526020019081526020016000206000905560019350505050611501565b60009150505b92915050565b600082600001828154811061151f5761151e6121bc565b5b9060005260206000200154905092915050565b60608160000180548060200260200160405190810160405280929190818152602001828054801561158257602002820191906000526020600020905b81548152602001906001019080831161156e575b50505050509050919050565b600081600001805490509050919050565b60606115c58273ffffffffffffffffffffffffffffffffffffffff16601460ff166115cc565b9050919050565b6060600060028360026115df9190611ff5565b6115e99190611f9f565b67ffffffffffffffff811115611602576116016121eb565b5b6040519080825280601f01601f1916602001820160405280156116345781602001600182028036833780820191505090505b5090507f30000000000000000000000000000000000000000000000000000000000000008160008151811061166c5761166b6121bc565b5b60200101907effffffffffffffffffffffffffffffffffffffffffffffffffffffffffffff1916908160001a9053507f7800000000000000000000000000000000000000000000000000000000000000816001815181106116d0576116cf6121bc565b5b60200101907effffffffffffffffffffffffffffffffffffffffffffffffffffffffffffff1916908160001a905350600060018460026117109190611ff5565b61171a9190611f9f565b90505b60018111156117ba577f3031323334353637383961626364656600000000000000000000000000000000600f86166010811061175c5761175b6121bc565b5b1a60f81b828281518110611773576117726121bc565b5b60200101907effffffffffffffffffffffffffffffffffffffffffffffffffffffffffffff1916908160001a905350600485901c9450806117b390612134565b905061171d565b50600084146117fe576040517f08c379a00000000000000000000000000000000000000000000000000000000081526004016117f590611dc9565b60405180910390fd5b8091505092915050565b604051806040016040528060008152602001600080191681525090565b6000813590506118348161248e565b92915050565b600081359050611849816124a5565b92915050565b60008135905061185e816124bc565b92915050565b600081359050611873816124d3565b92915050565b60006020828403121561188f5761188e61221a565b5b600061189d84828501611825565b91505092915050565b6000602082840312156118bc576118bb61221a565b5b60006118ca8482850161183a565b91505092915050565b600080604083850312156118ea576118e961221a565b5b60006118f88582860161183a565b925050602061190985828601611825565b9150509250929050565b6000806040838503121561192a5761192961221a565b5b60006119388582860161183a565b925050602061194985828601611864565b9150509250929050565b6000602082840312156119695761196861221a565b5b60006119778482850161184f565b91505092915050565b6000602082840312156119965761199561221a565b5b60006119a484828501611864565b91505092915050565b600080604083850312156119c4576119c361221a565b5b60006119d285828601611864565b92505060206119e38582860161183a565b9150509250929050565b60006119f98383611cdc565b60208301905092915050565b611a0e81612083565b82525050565b6000611a1f82611f4f565b611a298185611f72565b9350611a3483611f3f565b8060005b83811015611a65578151611a4c88826119ed565b9750611a5783611f65565b925050600181019050611a38565b5085935050505092915050565b611a7b81612095565b82525050565b611a8a816120a1565b82525050565b611a99816120a1565b82525050565b6000611aaa82611f5a565b611ab48185611f83565b9350611ac4818560208601612101565b611acd8161221f565b840191505092915050565b6000611ae382611f5a565b611aed8185611f94565b9350611afd818560208601612101565b80840191505092915050565b6000611b16602083611f83565b9150611b2182612230565b602082019050919050565b6000611b39602d83611f83565b9150611b4482612259565b604082019050919050565b6000611b5c602683611f83565b9150611b67826122a8565b604082019050919050565b6000611b7f600483611f83565b9150611b8a826122f7565b602082019050919050565b6000611ba2600783611f83565b9150611bad82612320565b602082019050919050565b6000611bc5600783611f83565b9150611bd082612349565b602082019050919050565b6000611be8602083611f83565b9150611bf382612372565b602082019050919050565b6000611c0b600483611f83565b9150611c168261239b565b602082019050919050565b6000611c2e600583611f83565b9150611c39826123c4565b602082019050919050565b6000611c51601783611f94565b9150611c5c826123ed565b601782019050919050565b6000611c74601183611f94565b9150611c7f82612416565b601182019050919050565b6000611c97602f83611f83565b9150611ca28261243f565b604082019050919050565b604082016000820151611cc36000850182611cdc565b506020820151611cd66020850182611a81565b50505050565b611ce5816120f7565b82525050565b611cf4816120f7565b82525050565b6000611d0582611c44565b9150611d118285611ad8565b9150611d1c82611c67565b9150611d288284611ad8565b91508190509392505050565b6000602082019050611d496000830184611a05565b92915050565b60006020820190508181036000830152611d698184611a14565b905092915050565b6000602082019050611d866000830184611a72565b92915050565b6000602082019050611da16000830184611a90565b92915050565b60006020820190508181036000830152611dc18184611a9f565b905092915050565b60006020820190508181036000830152611de281611b09565b9050919050565b60006020820190508181036000830152611e0281611b2c565b9050919050565b60006020820190508181036000830152611e2281611b4f565b9050919050565b60006020820190508181036000830152611e4281611b72565b9050919050565b60006020820190508181036000830152611e6281611b95565b9050919050565b60006020820190508181036000830152611e8281611bb8565b9050919050565b60006020820190508181036000830152611ea281611bdb565b9050919050565b60006020820190508181036000830152611ec281611bfe565b9050919050565b60006020820190508181036000830152611ee281611c21565b9050919050565b60006020820190508181036000830152611f0281611c8a565b9050919050565b6000604082019050611f1e6000830184611cad565b92915050565b6000602082019050611f396000830184611ceb565b92915050565b6000819050602082019050919050565b600081519050919050565b600081519050919050565b6000602082019050919050565b600082825260208201905092915050565b600082825260208201905092915050565b600081905092915050565b6000611faa826120f7565b9150611fb5836120f7565b9250827fffffffffffffffffffffffffffffffffffffffffffffffffffffffffffffffff03821115611fea57611fe961215e565b5b828201905092915050565b6000612000826120f7565b915061200b836120f7565b9250817fffffffffffffffffffffffffffffffffffffffffffffffffffffffffffffffff04831182151516156120445761204361215e565b5b828202905092915050565b600061205a826120f7565b9150612065836120f7565b9250828210156120785761207761215e565b5b828203905092915050565b600061208e826120d7565b9050919050565b60008115159050919050565b6000819050919050565b60007fffffffff0000000000000000000000000000000000000000000000000000000082169050919050565b600073ffffffffffffffffffffffffffffffffffffffff82169050919050565b6000819050919050565b60005b8381101561211f578082015181840152602081019050612104565b8381111561212e576000848401525b50505050565b600061213f826120f7565b915060008214156121535761215261215e565b5b600182039050919050565b7f4e487b7100000000000000000000000000000000000000000000000000000000600052601160045260246000fd5b7f4e487b7100000000000000000000000000000000000000000000000000000000600052603160045260246000fd5b7f4e487b7100000000000000000000000000000000000000000000000000000000600052603260045260246000fd5b7f4e487b7100000000000000000000000000000000000000000000000000000000600052604160045260246000fd5b600080fd5b6000601f19601f8301169050919050565b7f537472696e67733a20686578206c656e67746820696e73756666696369656e74600082015250565b7f556e617574686f72697a652e204d7573742068617320626c6f636b636861696e60008201527f204d616e6167657220726f6c6500000000000000000000000000000000000000602082015250565b7f4f776e61626c653a206e6577206f776e657220697320746865207a65726f206160008201527f6464726573730000000000000000000000000000000000000000000000000000602082015250565b7f464e444e00000000000000000000000000000000000000000000000000000000600082015250565b7f4e4f54464e444e00000000000000000000000000000000000000000000000000600082015250565b7f4e4f54464e444900000000000000000000000000000000000000000000000000600082015250565b7f4f776e61626c653a2063616c6c6572206973206e6f7420746865206f776e6572600082015250565b7f464e444900000000000000000000000000000000000000000000000000000000600082015250565b7f4f55545247000000000000000000000000000000000000000000000000000000600082015250565b7f416363657373436f6e74726f6c3a206163636f756e7420000000000000000000600082015250565b7f206973206d697373696e6720726f6c6520000000000000000000000000000000600082015250565b7f416363657373436f6e74726f6c3a2063616e206f6e6c792072656e6f756e636560008201527f20726f6c657320666f722073656c660000000000000000000000000000000000602082015250565b61249781612083565b81146124a257600080fd5b50565b6124ae816120a1565b81146124b957600080fd5b50565b6124c5816120ab565b81146124d057600080fd5b50565b6124dc816120f7565b81146124e757600080fd5b5056fea2646970667358221220b14e11095065c8389159b3301bc3616f2a25ea220b0b23966c04d55243a6d36064736f6c63430008070033",
  "immutableReferences": {},
  "source": "// SPDX-License-Identifier: MIT\r\npragma solidity ^0.8.7;\r\nimport \"@openzeppelin/contracts/utils/structs/EnumerableSet.sol\";\r\nimport \"@openzeppelin/contracts/access/Ownable.sol\";\r\nimport \"@openzeppelin/contracts/access/AccessControlEnumerable.sol\";\r\n\r\n\r\nstruct BlockchainInfo {\r\n    uint256 blockchainId;\r\n    bytes32 name;\r\n}\r\n\r\nuint256 constant MAX_NUMBER_OF_BLOCKCHAINS = 255;\r\n\r\ncontract BlockchainManager is Ownable, AccessControlEnumerable {\r\n    /**\r\n    CONSTANTS\r\n    */\r\n    bytes32 public constant BLOCKCHAIN_MANAGER_ROLE =\r\n        keccak256(\"BLOCKCHAIN_MANAGER_ROLE\");\r\n\r\n    using EnumerableSet for EnumerableSet.UintSet;\r\n    using EnumerableSet for EnumerableSet.Bytes32Set;\r\n\r\n    /******************************\r\n        EVENTS\r\n    ******************************/\r\n\r\n    event blockchainAdded(uint256 id);\r\n    event blockchainRemoved(uint256 id);\r\n\r\n    //Modifiers\r\n    modifier onlyRegisteredBlockchains(uint256 blockchainId) {\r\n        require(registeredIds.contains(blockchainId), \"NOTFNDI\");\r\n        _;\r\n    }\r\n\r\n    modifier onlyBlockchainManager() {\r\n        require(\r\n            hasRole(BLOCKCHAIN_MANAGER_ROLE, _msgSender()),\r\n            \"Unauthorize. Must has blockchain Manager role\"\r\n        );\r\n        _;\r\n    }\r\n\r\n    // Blockchains\r\n    mapping(uint256 => BlockchainInfo) registeredBlockchains;\r\n    mapping(bytes32 => uint256) blockchainNames;\r\n    // List of Id for quick\r\n    EnumerableSet.UintSet registeredIds;\r\n    EnumerableSet.Bytes32Set registeredNames;\r\n    constructor() {\r\n        _setupRole(DEFAULT_ADMIN_ROLE, _msgSender());\r\n        _setupRole(BLOCKCHAIN_MANAGER_ROLE, _msgSender());\r\n    }\r\n\r\n    /**\r\n     * @notice register blockchain\r\n     * @param blockchainId blockchain Id\r\n     * @param name blockchain short name\r\n     */\r\n    function registerBlockchain(\r\n        uint256 blockchainId,\r\n        bytes32 name\r\n    )\r\n        public\r\n        onlyBlockchainManager\r\n    {\r\n        require(blockchainId <= MAX_NUMBER_OF_BLOCKCHAINS, \"OUTRG\");\r\n        require(\r\n            !registeredIds.contains(blockchainId),\r\n            \"FNDI\"\r\n        );\r\n        require(\r\n            !registeredNames.contains(name),\r\n            \"FNDN\"\r\n        );        \r\n        registeredIds.add(blockchainId);\r\n        registeredNames.add(name);\r\n        BlockchainInfo storage blockchainInfo = registeredBlockchains[blockchainId];\r\n        blockchainInfo.blockchainId = blockchainId;\r\n        blockchainInfo.name = name;\r\n        blockchainNames[name] = blockchainId;\r\n        emit blockchainAdded(blockchainId);\r\n    }\r\n\r\n     /**\r\n     * @notice remove blockchain\r\n     * @param blockchainId blockchain Id\r\n     */\r\n    function removeBlockchain(uint256 blockchainId)\r\n        public\r\n        onlyBlockchainManager\r\n        onlyRegisteredBlockchains(blockchainId)\r\n    {\r\n        bytes32 name = registeredBlockchains[blockchainId].name;\r\n        registeredIds.remove(blockchainId);\r\n        registeredNames.remove(name);\r\n        delete registeredBlockchains[blockchainId];\r\n        blockchainNames[name] = 0;\r\n        emit blockchainRemoved(blockchainId);\r\n    }\r\n\r\n    /**\r\n    * @notice get all blockchains Ids.\r\n    * Return the entire set in an array\r\n    //\r\n    // WARNING\tThis operation will copy the entire storage to memory,\r\n    // which can be quite expensive. This is designed to mostly be used by view\r\n    // accessors that are queried without any gas fees.\r\n    // Developers should keep in mind that this function\r\n    // has an unbounded cost, and using it as part of a state-changing\r\n    // function may render the function uncallable if the set grows to a\r\n    // point where copying to memory consumes too much gas to fit in a block.\r\n    */\r\n    function getAllBlockchainIds() public view returns (uint256[] memory) {\r\n        return registeredIds.values();\r\n    }\r\n\r\n    /**\r\n     * @notice get blockchain by id.\r\n     * Return the entire set in an array\r\n     * @param id blockchain id\r\n     */\r\n    function getBlockchain(uint256 id)\r\n        public\r\n        view\r\n        onlyRegisteredBlockchains(id)\r\n        returns (BlockchainInfo memory)\r\n    {\r\n        return registeredBlockchains[id];\r\n    }\r\n\r\n    /**\r\n     * @notice get blockchain by name.\r\n     * Return the entire set in an array\r\n     * @param name blockchain name\r\n     */\r\n    function getBlockchainByName(bytes32 name)\r\n        public\r\n        view\r\n        returns (BlockchainInfo memory)\r\n    {\r\n        uint256 blockchainId = blockchainNames[name];\r\n        require(registeredIds.contains(blockchainId), \"NOTFNDI\");\r\n        require(registeredBlockchains[blockchainId].name == name, \"NOTFNDN\");\r\n        return registeredBlockchains[blockchainId];\r\n    }\r\n\r\n    /**\r\n     * @notice get blockchain Id by name.\r\n     * Return the entire set in an array\r\n     * @param name blockchain name\r\n     */\r\n    function getBlockchainId(bytes32 name)\r\n        public\r\n        view\r\n        returns (uint256 blockchainId)\r\n    {\r\n        blockchainId = blockchainNames[name];\r\n        require(registeredIds.contains(blockchainId), \"NOTFNDI\");\r\n        require(registeredBlockchains[blockchainId].name == name, \"NOTFNDN\");\r\n    }\r\n\r\n    /**\r\n     * @notice verify id.\r\n     * if the blockchain exist\r\n     * @param id blockchain id\r\n     */\r\n    function existBlockchain(uint id)\r\n        public\r\n        view\r\n        returns (bool)\r\n    {\r\n        return registeredIds.contains(id);\r\n    }    \r\n }\r\n",
  "sourcePath": "/home/israel/Documents/cashtween/code/smart-contract-3/contracts/BlockchainManager.sol",
  "compiler": {
    "name": "solc",
    "version": "0.8.7+commit.e28d00a7.Emscripten.clang"
  },
  "schemaVersion": "3.4.13",
  "updatedAt": "2023-06-16T12:48:35.853Z",
  "networkType": "ethereum",
  "devdoc": {
    "kind": "dev",
    "methods": {
      "existBlockchain(uint256)": {
        "params": {
          "id": "blockchain id"
        }
      },
      "getBlockchain(uint256)": {
        "params": {
          "id": "blockchain id"
        }
      },
      "getBlockchainByName(bytes32)": {
        "params": {
          "name": "blockchain name"
        }
      },
      "getBlockchainId(bytes32)": {
        "params": {
          "name": "blockchain name"
        }
      },
      "getRoleAdmin(bytes32)": {
        "details": "Returns the admin role that controls `role`. See {grantRole} and {revokeRole}. To change a role's admin, use {_setRoleAdmin}."
      },
      "getRoleMember(bytes32,uint256)": {
        "details": "Returns one of the accounts that have `role`. `index` must be a value between 0 and {getRoleMemberCount}, non-inclusive. Role bearers are not sorted in any particular way, and their ordering may change at any point. WARNING: When using {getRoleMember} and {getRoleMemberCount}, make sure you perform all queries on the same block. See the following https://forum.openzeppelin.com/t/iterating-over-elements-on-enumerableset-in-openzeppelin-contracts/2296[forum post] for more information."
      },
      "getRoleMemberCount(bytes32)": {
        "details": "Returns the number of accounts that have `role`. Can be used together with {getRoleMember} to enumerate all bearers of a role."
      },
      "grantRole(bytes32,address)": {
        "details": "Grants `role` to `account`. If `account` had not been already granted `role`, emits a {RoleGranted} event. Requirements: - the caller must have ``role``'s admin role. May emit a {RoleGranted} event."
      },
      "hasRole(bytes32,address)": {
        "details": "Returns `true` if `account` has been granted `role`."
      },
      "owner()": {
        "details": "Returns the address of the current owner."
      },
      "registerBlockchain(uint256,bytes32)": {
        "params": {
          "blockchainId": "blockchain Id",
          "name": "blockchain short name"
        }
      },
      "removeBlockchain(uint256)": {
        "params": {
          "blockchainId": "blockchain Id"
        }
      },
      "renounceOwnership()": {
        "details": "Leaves the contract without owner. It will not be possible to call `onlyOwner` functions anymore. Can only be called by the current owner. NOTE: Renouncing ownership will leave the contract without an owner, thereby removing any functionality that is only available to the owner."
      },
      "renounceRole(bytes32,address)": {
        "details": "Revokes `role` from the calling account. Roles are often managed via {grantRole} and {revokeRole}: this function's purpose is to provide a mechanism for accounts to lose their privileges if they are compromised (such as when a trusted device is misplaced). If the calling account had been revoked `role`, emits a {RoleRevoked} event. Requirements: - the caller must be `account`. May emit a {RoleRevoked} event."
      },
      "revokeRole(bytes32,address)": {
        "details": "Revokes `role` from `account`. If `account` had been granted `role`, emits a {RoleRevoked} event. Requirements: - the caller must have ``role``'s admin role. May emit a {RoleRevoked} event."
      },
      "supportsInterface(bytes4)": {
        "details": "See {IERC165-supportsInterface}."
      },
      "transferOwnership(address)": {
        "details": "Transfers ownership of the contract to a new account (`newOwner`). Can only be called by the current owner."
      }
    },
    "version": 1
  },
  "userdoc": {
    "kind": "user",
    "methods": {
      "BLOCKCHAIN_MANAGER_ROLE()": {
        "notice": "CONSTANTS"
      },
      "existBlockchain(uint256)": {
        "notice": "verify id. if the blockchain exist"
      },
      "getAllBlockchainIds()": {
        "notice": "get all blockchains Ids. Return the entire set in an array // // WARNING\tThis operation will copy the entire storage to memory, // which can be quite expensive. This is designed to mostly be used by view // accessors that are queried without any gas fees. // Developers should keep in mind that this function // has an unbounded cost, and using it as part of a state-changing // function may render the function uncallable if the set grows to a // point where copying to memory consumes too much gas to fit in a block."
      },
      "getBlockchain(uint256)": {
        "notice": "get blockchain by id. Return the entire set in an array"
      },
      "getBlockchainByName(bytes32)": {
        "notice": "get blockchain by name. Return the entire set in an array"
      },
      "getBlockchainId(bytes32)": {
        "notice": "get blockchain Id by name. Return the entire set in an array"
      },
      "registerBlockchain(uint256,bytes32)": {
        "notice": "register blockchain"
      },
      "removeBlockchain(uint256)": {
        "notice": "remove blockchain"
      }
    },
    "version": 1
  }
}