{
  "contractName": "LicenseToken",
  "abi": [
    {
      "inputs": [],
      "stateMutability": "nonpayable",
      "type": "constructor"
    },
    {
      "anonymous": false,
      "inputs": [
        {
          "indexed": true,
          "internalType": "address",
          "name": "owner",
          "type": "address"
        },
        {
          "indexed": true,
          "internalType": "address",
          "name": "approved",
          "type": "address"
        },
        {
          "indexed": true,
          "internalType": "uint256",
          "name": "tokenId",
          "type": "uint256"
        }
      ],
      "name": "Approval",
      "type": "event"
    },
    {
      "anonymous": false,
      "inputs": [
        {
          "indexed": true,
          "internalType": "address",
          "name": "owner",
          "type": "address"
        },
        {
          "indexed": true,
          "internalType": "address",
          "name": "operator",
          "type": "address"
        },
        {
          "indexed": false,
          "internalType": "bool",
          "name": "approved",
          "type": "bool"
        }
      ],
      "name": "ApprovalForAll",
      "type": "event"
    },
    {
      "anonymous": false,
      "inputs": [
        {
          "indexed": false,
          "internalType": "uint256",
          "name": "licenseId",
          "type": "uint256"
        }
      ],
      "name": "LicenseActive",
      "type": "event"
    },
    {
      "anonymous": false,
      "inputs": [
        {
          "indexed": false,
          "internalType": "uint256",
          "name": "licenseId",
          "type": "uint256"
        }
      ],
      "name": "LicenseUpdated",
      "type": "event"
    },
    {
      "anonymous": false,
      "inputs": [
        {
          "indexed": true,
          "internalType": "bytes32",
          "name": "role",
          "type": "bytes32"
        },
        {
          "indexed": true,
          "internalType": "bytes32",
          "name": "previousAdminRole",
          "type": "bytes32"
        },
        {
          "indexed": true,
          "internalType": "bytes32",
          "name": "newAdminRole",
          "type": "bytes32"
        }
      ],
      "name": "RoleAdminChanged",
      "type": "event"
    },
    {
      "anonymous": false,
      "inputs": [
        {
          "indexed": true,
          "internalType": "bytes32",
          "name": "role",
          "type": "bytes32"
        },
        {
          "indexed": true,
          "internalType": "address",
          "name": "account",
          "type": "address"
        },
        {
          "indexed": true,
          "internalType": "address",
          "name": "sender",
          "type": "address"
        }
      ],
      "name": "RoleGranted",
      "type": "event"
    },
    {
      "anonymous": false,
      "inputs": [
        {
          "indexed": true,
          "internalType": "bytes32",
          "name": "role",
          "type": "bytes32"
        },
        {
          "indexed": true,
          "internalType": "address",
          "name": "account",
          "type": "address"
        },
        {
          "indexed": true,
          "internalType": "address",
          "name": "sender",
          "type": "address"
        }
      ],
      "name": "RoleRevoked",
      "type": "event"
    },
    {
      "anonymous": false,
      "inputs": [
        {
          "indexed": true,
          "internalType": "address",
          "name": "from",
          "type": "address"
        },
        {
          "indexed": true,
          "internalType": "address",
          "name": "to",
          "type": "address"
        },
        {
          "indexed": true,
          "internalType": "uint256",
          "name": "tokenId",
          "type": "uint256"
        }
      ],
      "name": "Transfer",
      "type": "event"
    },
    {
      "inputs": [],
      "name": "DEFAULT_ADMIN_ROLE",
      "outputs": [
        {
          "internalType": "bytes32",
          "name": "",
          "type": "bytes32"
        }
      ],
      "stateMutability": "view",
      "type": "function",
      "constant": true
    },
    {
      "inputs": [],
      "name": "LICENSE_MANAGER_ROLE",
      "outputs": [
        {
          "internalType": "bytes32",
          "name": "",
          "type": "bytes32"
        }
      ],
      "stateMutability": "view",
      "type": "function",
      "constant": true
    },
    {
      "inputs": [
        {
          "internalType": "address",
          "name": "to",
          "type": "address"
        },
        {
          "internalType": "uint256",
          "name": "tokenId",
          "type": "uint256"
        }
      ],
      "name": "approve",
      "outputs": [],
      "stateMutability": "nonpayable",
      "type": "function"
    },
    {
      "inputs": [
        {
          "internalType": "address",
          "name": "owner",
          "type": "address"
        }
      ],
      "name": "balanceOf",
      "outputs": [
        {
          "internalType": "uint256",
          "name": "",
          "type": "uint256"
        }
      ],
      "stateMutability": "view",
      "type": "function",
      "constant": true
    },
    {
      "inputs": [
        {
          "internalType": "uint256",
          "name": "tokenId",
          "type": "uint256"
        }
      ],
      "name": "getApproved",
      "outputs": [
        {
          "internalType": "address",
          "name": "",
          "type": "address"
        }
      ],
      "stateMutability": "view",
      "type": "function",
      "constant": true
    },
    {
      "inputs": [
        {
          "internalType": "bytes32",
          "name": "role",
          "type": "bytes32"
        }
      ],
      "name": "getRoleAdmin",
      "outputs": [
        {
          "internalType": "bytes32",
          "name": "",
          "type": "bytes32"
        }
      ],
      "stateMutability": "view",
      "type": "function",
      "constant": true
    },
    {
      "inputs": [
        {
          "internalType": "bytes32",
          "name": "role",
          "type": "bytes32"
        },
        {
          "internalType": "address",
          "name": "account",
          "type": "address"
        }
      ],
      "name": "grantRole",
      "outputs": [],
      "stateMutability": "nonpayable",
      "type": "function"
    },
    {
      "inputs": [
        {
          "internalType": "bytes32",
          "name": "role",
          "type": "bytes32"
        },
        {
          "internalType": "address",
          "name": "account",
          "type": "address"
        }
      ],
      "name": "hasRole",
      "outputs": [
        {
          "internalType": "bool",
          "name": "",
          "type": "bool"
        }
      ],
      "stateMutability": "view",
      "type": "function",
      "constant": true
    },
    {
      "inputs": [
        {
          "internalType": "address",
          "name": "owner",
          "type": "address"
        },
        {
          "internalType": "address",
          "name": "operator",
          "type": "address"
        }
      ],
      "name": "isApprovedForAll",
      "outputs": [
        {
          "internalType": "bool",
          "name": "",
          "type": "bool"
        }
      ],
      "stateMutability": "view",
      "type": "function",
      "constant": true
    },
    {
      "inputs": [],
      "name": "name",
      "outputs": [
        {
          "internalType": "string",
          "name": "",
          "type": "string"
        }
      ],
      "stateMutability": "view",
      "type": "function",
      "constant": true
    },
    {
      "inputs": [
        {
          "internalType": "uint256",
          "name": "tokenId",
          "type": "uint256"
        }
      ],
      "name": "ownerOf",
      "outputs": [
        {
          "internalType": "address",
          "name": "",
          "type": "address"
        }
      ],
      "stateMutability": "view",
      "type": "function",
      "constant": true
    },
    {
      "inputs": [
        {
          "internalType": "bytes32",
          "name": "role",
          "type": "bytes32"
        },
        {
          "internalType": "address",
          "name": "account",
          "type": "address"
        }
      ],
      "name": "renounceRole",
      "outputs": [],
      "stateMutability": "nonpayable",
      "type": "function"
    },
    {
      "inputs": [
        {
          "internalType": "bytes32",
          "name": "role",
          "type": "bytes32"
        },
        {
          "internalType": "address",
          "name": "account",
          "type": "address"
        }
      ],
      "name": "revokeRole",
      "outputs": [],
      "stateMutability": "nonpayable",
      "type": "function"
    },
    {
      "inputs": [
        {
          "internalType": "address",
          "name": "from",
          "type": "address"
        },
        {
          "internalType": "address",
          "name": "to",
          "type": "address"
        },
        {
          "internalType": "uint256",
          "name": "tokenId",
          "type": "uint256"
        }
      ],
      "name": "safeTransferFrom",
      "outputs": [],
      "stateMutability": "nonpayable",
      "type": "function"
    },
    {
      "inputs": [
        {
          "internalType": "address",
          "name": "from",
          "type": "address"
        },
        {
          "internalType": "address",
          "name": "to",
          "type": "address"
        },
        {
          "internalType": "uint256",
          "name": "tokenId",
          "type": "uint256"
        },
        {
          "internalType": "bytes",
          "name": "data",
          "type": "bytes"
        }
      ],
      "name": "safeTransferFrom",
      "outputs": [],
      "stateMutability": "nonpayable",
      "type": "function"
    },
    {
      "inputs": [
        {
          "internalType": "address",
          "name": "operator",
          "type": "address"
        },
        {
          "internalType": "bool",
          "name": "approved",
          "type": "bool"
        }
      ],
      "name": "setApprovalForAll",
      "outputs": [],
      "stateMutability": "nonpayable",
      "type": "function"
    },
    {
      "inputs": [],
      "name": "symbol",
      "outputs": [
        {
          "internalType": "string",
          "name": "",
          "type": "string"
        }
      ],
      "stateMutability": "view",
      "type": "function",
      "constant": true
    },
    {
      "inputs": [
        {
          "internalType": "uint256",
          "name": "index",
          "type": "uint256"
        }
      ],
      "name": "tokenByIndex",
      "outputs": [
        {
          "internalType": "uint256",
          "name": "",
          "type": "uint256"
        }
      ],
      "stateMutability": "view",
      "type": "function",
      "constant": true
    },
    {
      "inputs": [
        {
          "internalType": "address",
          "name": "owner",
          "type": "address"
        },
        {
          "internalType": "uint256",
          "name": "index",
          "type": "uint256"
        }
      ],
      "name": "tokenOfOwnerByIndex",
      "outputs": [
        {
          "internalType": "uint256",
          "name": "",
          "type": "uint256"
        }
      ],
      "stateMutability": "view",
      "type": "function",
      "constant": true
    },
    {
      "inputs": [
        {
          "internalType": "uint256",
          "name": "tokenId",
          "type": "uint256"
        }
      ],
      "name": "tokenURI",
      "outputs": [
        {
          "internalType": "string",
          "name": "",
          "type": "string"
        }
      ],
      "stateMutability": "view",
      "type": "function",
      "constant": true
    },
    {
      "inputs": [],
      "name": "totalSupply",
      "outputs": [
        {
          "internalType": "uint256",
          "name": "",
          "type": "uint256"
        }
      ],
      "stateMutability": "view",
      "type": "function",
      "constant": true
    },
    {
      "inputs": [
        {
          "internalType": "address",
          "name": "from",
          "type": "address"
        },
        {
          "internalType": "address",
          "name": "to",
          "type": "address"
        },
        {
          "internalType": "uint256",
          "name": "tokenId",
          "type": "uint256"
        }
      ],
      "name": "transferFrom",
      "outputs": [],
      "stateMutability": "nonpayable",
      "type": "function"
    },
    {
      "inputs": [
        {
          "internalType": "bytes4",
          "name": "interfaceId",
          "type": "bytes4"
        }
      ],
      "name": "supportsInterface",
      "outputs": [
        {
          "internalType": "bool",
          "name": "",
          "type": "bool"
        }
      ],
      "stateMutability": "view",
      "type": "function",
      "constant": true
    },
    {
      "inputs": [
        {
          "internalType": "address",
          "name": "licenseOwner",
          "type": "address"
        },
        {
          "internalType": "uint256",
          "name": "servicesIdsPool",
          "type": "uint256"
        },
        {
          "internalType": "enum LicenseType",
          "name": "licenseType",
          "type": "uint8"
        },
        {
          "internalType": "uint256",
          "name": "numberOfMonths",
          "type": "uint256"
        }
      ],
      "name": "createLicense",
      "outputs": [
        {
          "internalType": "uint256",
          "name": "",
          "type": "uint256"
        }
      ],
      "stateMutability": "nonpayable",
      "type": "function"
    },
    {
      "inputs": [
        {
          "internalType": "address",
          "name": "licenseOwner",
          "type": "address"
        },
        {
          "internalType": "uint256",
          "name": "licenseId",
          "type": "uint256"
        },
        {
          "internalType": "uint256",
          "name": "servicesIdsPool",
          "type": "uint256"
        },
        {
          "internalType": "enum LicenseType",
          "name": "licenseType",
          "type": "uint8"
        },
        {
          "internalType": "uint256",
          "name": "numberOfMonths",
          "type": "uint256"
        }
      ],
      "name": "resetLicense",
      "outputs": [],
      "stateMutability": "nonpayable",
      "type": "function"
    },
    {
      "inputs": [
        {
          "internalType": "address",
          "name": "licenseOwner",
          "type": "address"
        },
        {
          "internalType": "uint256",
          "name": "licenseId",
          "type": "uint256"
        },
        {
          "internalType": "uint256",
          "name": "servicesIdsPool",
          "type": "uint256"
        },
        {
          "internalType": "uint256",
          "name": "addedMonths",
          "type": "uint256"
        }
      ],
      "name": "updateLicense",
      "outputs": [],
      "stateMutability": "nonpayable",
      "type": "function"
    },
    {
      "inputs": [
        {
          "internalType": "uint256",
          "name": "licenseId",
          "type": "uint256"
        }
      ],
      "name": "burn",
      "outputs": [],
      "stateMutability": "nonpayable",
      "type": "function"
    },
    {
      "inputs": [
        {
          "internalType": "uint256",
          "name": "licenseId",
          "type": "uint256"
        }
      ],
      "name": "activate",
      "outputs": [],
      "stateMutability": "nonpayable",
      "type": "function"
    },
    {
      "inputs": [
        {
          "internalType": "uint256",
          "name": "licenseId",
          "type": "uint256"
        }
      ],
      "name": "isLicenseActive",
      "outputs": [
        {
          "internalType": "bool",
          "name": "",
          "type": "bool"
        }
      ],
      "stateMutability": "view",
      "type": "function",
      "constant": true
    },
    {
      "inputs": [
        {
          "internalType": "uint256",
          "name": "licenseId",
          "type": "uint256"
        }
      ],
      "name": "getLicense",
      "outputs": [
        {
          "components": [
            {
              "internalType": "uint256",
              "name": "registeredOn",
              "type": "uint256"
            },
            {
              "internalType": "uint256",
              "name": "expiresOn",
              "type": "uint256"
            },
            {
              "internalType": "uint256",
              "name": "activeSince",
              "type": "uint256"
            },
            {
              "internalType": "uint256",
              "name": "servicesIdsPool",
              "type": "uint256"
            },
            {
              "internalType": "uint256",
              "name": "numberOfMonths",
              "type": "uint256"
            },
            {
              "internalType": "enum LicenseState",
              "name": "state",
              "type": "uint8"
            },
            {
              "internalType": "enum LicenseType",
              "name": "licenseType",
              "type": "uint8"
            }
          ],
          "internalType": "struct LicenseInfo",
          "name": "",
          "type": "tuple"
        }
      ],
      "stateMutability": "view",
      "type": "function",
      "constant": true
    },
    {
      "inputs": [
        {
          "internalType": "address",
          "name": "user",
          "type": "address"
        },
        {
          "internalType": "uint256",
          "name": "licenseId",
          "type": "uint256"
        },
        {
          "internalType": "uint256",
          "name": "serviceId",
          "type": "uint256"
        }
      ],
      "name": "isUserAllowToUseService",
      "outputs": [
        {
          "internalType": "bool",
          "name": "",
          "type": "bool"
        }
      ],
      "stateMutability": "view",
      "type": "function",
      "constant": true
    }
  ],
  "bytecode": "0x60806040523480156200001157600080fd5b506040518060400160405280600781526020017f4c6963656e7365000000000000000000000000000000000000000000000000008152506040518060400160405280600381526020017f4c5643000000000000000000000000000000000000000000000000000000000081525081600090805190602001906200009692919062000298565b508060019080519060200190620000af92919062000298565b505050620000d66000801b620000ca6200011d60201b60201c565b6200012560201b60201c565b620001177f6906f436fc390f9133ad373774cc38c4aa0356c26e6e60fa181881215f6b80e36200010b6200011d60201b60201c565b6200012560201b60201c565b620003ad565b600033905090565b6200013782826200013b60201b60201c565b5050565b6200014d82826200022d60201b60201c565b62000229576001600a600084815260200190815260200160002060000160008373ffffffffffffffffffffffffffffffffffffffff1673ffffffffffffffffffffffffffffffffffffffff16815260200190815260200160002060006101000a81548160ff021916908315150217905550620001ce6200011d60201b60201c565b73ffffffffffffffffffffffffffffffffffffffff168173ffffffffffffffffffffffffffffffffffffffff16837f2f8788117e7eff1d82e926ec794901d17c78024a50270940304540a733656f0d60405160405180910390a45b5050565b6000600a600084815260200190815260200160002060000160008373ffffffffffffffffffffffffffffffffffffffff1673ffffffffffffffffffffffffffffffffffffffff16815260200190815260200160002060009054906101000a900460ff16905092915050565b828054620002a69062000348565b90600052602060002090601f016020900481019282620002ca576000855562000316565b82601f10620002e557805160ff191683800117855562000316565b8280016001018555821562000316579182015b8281111562000315578251825591602001919060010190620002f8565b5b50905062000325919062000329565b5090565b5b80821115620003445760008160009055506001016200032a565b5090565b600060028204905060018216806200036157607f821691505b602082108114156200037857620003776200037e565b5b50919050565b7f4e487b7100000000000000000000000000000000000000000000000000000000600052602260045260246000fd5b61518f80620003bd6000396000f3fe608060405234801561001057600080fd5b50600436106101e55760003560e01c80636352211e1161010f578063b260c42a116100a2578063c87b56dd11610071578063c87b56dd146105c4578063d547741f146105f4578063e705c2b814610610578063e985e9c514610640576101e5565b8063b260c42a14610540578063b2dd12121461055c578063b88d4fde1461058c578063b99a6085146105a8576101e5565b806395d89b41116100de57806395d89b41146104b8578063a217fddf146104d6578063a22cb465146104f4578063a35e3ba914610510576101e5565b80636352211e146103f857806370a08231146104285780638f032d6e1461045857806391d1485414610488576101e5565b806323efa8221161018757806336568abe1161015657806336568abe1461037457806342842e0e1461039057806342966c68146103ac5780634f6ccce7146103c8576101e5565b806323efa822146102da578063248a9ca3146102f85780632f2ff15d146103285780632f745c5914610344576101e5565b8063095ea7b3116101c3578063095ea7b31461026857806318160ddd1461028457806320d966ca146102a257806323b872dd146102be576101e5565b806301ffc9a7146101ea57806306fdde031461021a578063081812fc14610238575b600080fd5b61020460048036038101906101ff9190613b16565b610670565b60405161021191906141be565b60405180910390f35b610222610682565b60405161022f91906141f4565b60405180910390f35b610252600480360381019061024d9190613b70565b610714565b60405161025f9190614157565b60405180910390f35b610282600480360381019061027d91906138a0565b61075a565b005b61028c610872565b6040516102999190614645565b60405180910390f35b6102bc60048036038101906102b7919061399a565b61087f565b005b6102d860048036038101906102d3919061378a565b610a80565b005b6102e2610ae0565b6040516102ef91906141d9565b60405180910390f35b610312600480360381019061030d9190613aa9565b610b04565b60405161031f91906141d9565b60405180910390f35b610342600480360381019061033d9190613ad6565b610b24565b005b61035e600480360381019061035991906138a0565b610b45565b60405161036b9190614645565b60405180910390f35b61038e60048036038101906103899190613ad6565b610bea565b005b6103aa60048036038101906103a5919061378a565b610c6d565b005b6103c660048036038101906103c19190613b70565b610c8d565b005b6103e260048036038101906103dd9190613b70565b610dc9565b6040516103ef9190614645565b60405180910390f35b610412600480360381019061040d9190613b70565b610e3a565b60405161041f9190614157565b60405180910390f35b610442600480360381019061043d919061371d565b610ec1565b60405161044f9190614645565b60405180910390f35b610472600480360381019061046d9190613947565b610f79565b60405161047f91906141be565b60405180910390f35b6104a2600480360381019061049d9190613ad6565b611133565b6040516104af91906141be565b60405180910390f35b6104c061119e565b6040516104cd91906141f4565b60405180910390f35b6104de611230565b6040516104eb91906141d9565b60405180910390f35b61050e60048036038101906105099190613860565b611237565b005b61052a600480360381019061052591906138e0565b61124d565b6040516105379190614645565b60405180910390f35b61055a60048036038101906105559190613b70565b6113be565b005b61057660048036038101906105719190613b70565b61158a565b6040516105839190614516565b60405180910390f35b6105a660048036038101906105a191906137dd565b6116ac565b005b6105c260048036038101906105bd9190613a15565b61170e565b005b6105de60048036038101906105d99190613b70565b61194a565b6040516105eb91906141f4565b60405180910390f35b61060e60048036038101906106099190613ad6565b6119b2565b005b61062a60048036038101906106259190613b70565b6119d3565b60405161063791906141be565b60405180910390f35b61065a6004803603810190610655919061374a565b611ab2565b60405161066791906141be565b60405180910390f35b600061067b82611b46565b9050919050565b60606000805461069190614911565b80601f01602080910402602001604051908101604052809291908181526020018280546106bd90614911565b801561070a5780601f106106df5761010080835404028352916020019161070a565b820191906000526020600020905b8154815290600101906020018083116106ed57829003601f168201915b5050505050905090565b600061071f82611bc0565b6004600083815260200190815260200160002060009054906101000a900473ffffffffffffffffffffffffffffffffffffffff169050919050565b600061076582610e3a565b90508073ffffffffffffffffffffffffffffffffffffffff168373ffffffffffffffffffffffffffffffffffffffff1614156107d6576040517f08c379a00000000000000000000000000000000000000000000000000000000081526004016107cd90614436565b60405180910390fd5b8073ffffffffffffffffffffffffffffffffffffffff166107f5611c0b565b73ffffffffffffffffffffffffffffffffffffffff16148061082457506108238161081e611c0b565b611ab2565b5b610863576040517f08c379a000000000000000000000000000000000000000000000000000000000815260040161085a90614456565b60405180910390fd5b61086d8383611c13565b505050565b6000600880549050905090565b6108b07f6906f436fc390f9133ad373774cc38c4aa0356c26e6e60fa181881215f6b80e36108ab611c0b565b611133565b6108ef576040517f08c379a00000000000000000000000000000000000000000000000000000000081526004016108e690614476565b60405180910390fd5b836108f981611ccc565b610938576040517f08c379a000000000000000000000000000000000000000000000000000000000815260040161092f906143b6565b60405180910390fd5b8573ffffffffffffffffffffffffffffffffffffffff1661095886610e3a565b73ffffffffffffffffffffffffffffffffffffffff16146109ae576040517f08c379a00000000000000000000000000000000000000000000000000000000081526004016109a590614256565b60405180910390fd5b600c73__LicenseTools__________________________632e28346f9091878787876040518663ffffffff1660e01b81526004016109f09594939291906145ad565b60206040518083038186803b158015610a0857600080fd5b505af4158015610a1c573d6000803e3d6000fd5b505050506040513d601f19601f82011682018060405250810190610a409190613a7c565b507f5fc9d65c833c9a6adf234ab047cdfa02ccf1912b857e3ebab6a5dee69e31437185604051610a709190614645565b60405180910390a1505050505050565b610a91610a8b611c0b565b82611d0d565b610ad0576040517f08c379a0000000000000000000000000000000000000000000000000000000008152600401610ac790614236565b60405180910390fd5b610adb838383611da2565b505050565b7f6906f436fc390f9133ad373774cc38c4aa0356c26e6e60fa181881215f6b80e381565b6000600a6000838152602001908152602001600020600101549050919050565b610b2d82610b04565b610b368161209c565b610b4083836120b0565b505050565b6000610b5083610ec1565b8210610b91576040517f08c379a0000000000000000000000000000000000000000000000000000000008152600401610b8890614276565b60405180910390fd5b600660008473ffffffffffffffffffffffffffffffffffffffff1673ffffffffffffffffffffffffffffffffffffffff168152602001908152602001600020600083815260200190815260200160002054905092915050565b610bf2611c0b565b73ffffffffffffffffffffffffffffffffffffffff168173ffffffffffffffffffffffffffffffffffffffff1614610c5f576040517f08c379a0000000000000000000000000000000000000000000000000000000008152600401610c56906144f6565b60405180910390fd5b610c698282612191565b5050565b610c88838383604051806020016040528060008152506116ac565b505050565b80610c9781611ccc565b610cd6576040517f08c379a0000000000000000000000000000000000000000000000000000000008152600401610ccd906143b6565b60405180910390fd5b610cde611c0b565b73ffffffffffffffffffffffffffffffffffffffff16610cfd83610e3a565b73ffffffffffffffffffffffffffffffffffffffff1614610d53576040517f08c379a0000000000000000000000000000000000000000000000000000000008152600401610d4a90614256565b60405180910390fd5b610d5c82612273565b600c600001600083815260200190815260200160002060008082016000905560018201600090556002820160009055600382016000905560048201600090556005820160006101000a81549060ff02191690556005820160016101000a81549060ff021916905550505050565b6000610dd3610872565b8210610e14576040517f08c379a0000000000000000000000000000000000000000000000000000000008152600401610e0b90614496565b60405180910390fd5b60088281548110610e2857610e27614a5f565b5b90600052602060002001549050919050565b600080610e46836123c1565b9050600073ffffffffffffffffffffffffffffffffffffffff168173ffffffffffffffffffffffffffffffffffffffff161415610eb8576040517f08c379a0000000000000000000000000000000000000000000000000000000008152600401610eaf90614416565b60405180910390fd5b80915050919050565b60008073ffffffffffffffffffffffffffffffffffffffff168273ffffffffffffffffffffffffffffffffffffffff161415610f32576040517f08c379a0000000000000000000000000000000000000000000000000000000008152600401610f2990614396565b60405180910390fd5b600360008373ffffffffffffffffffffffffffffffffffffffff1673ffffffffffffffffffffffffffffffffffffffff168152602001908152602001600020549050919050565b600082610f8581611ccc565b610fc4576040517f08c379a0000000000000000000000000000000000000000000000000000000008152600401610fbb906143b6565b60405180910390fd5b600c73__LicenseTools__________________________63e6713dc19091866040518363ffffffff1660e01b8152600401611000929190614584565b60206040518083038186803b15801561101857600080fd5b505af415801561102c573d6000803e3d6000fd5b505050506040513d601f19601f820116820180604052508101906110509190613a7c565b61108f576040517f08c379a000000000000000000000000000000000000000000000000000000000815260040161108690614316565b60405180910390fd5b600c73__LicenseTools__________________________6346e6bde39091876110b788610e3a565b88886040518663ffffffff1660e01b81526004016110d9959493929190614531565b60206040518083038186803b1580156110f157600080fd5b505af4158015611105573d6000803e3d6000fd5b505050506040513d601f19601f820116820180604052508101906111299190613a7c565b9150509392505050565b6000600a600084815260200190815260200160002060000160008373ffffffffffffffffffffffffffffffffffffffff1673ffffffffffffffffffffffffffffffffffffffff16815260200190815260200160002060009054906101000a900460ff16905092915050565b6060600180546111ad90614911565b80601f01602080910402602001604051908101604052809291908181526020018280546111d990614911565b80156112265780601f106111fb57610100808354040283529160200191611226565b820191906000526020600020905b81548152906001019060200180831161120957829003601f168201915b5050505050905090565b6000801b81565b611249611242611c0b565b83836123fe565b5050565b60006112807f6906f436fc390f9133ad373774cc38c4aa0356c26e6e60fa181881215f6b80e361127b611c0b565b611133565b6112bf576040517f08c379a00000000000000000000000000000000000000000000000000000000081526004016112b690614476565b60405180910390fd5b6112c9600b61256b565b60006112d5600b612581565b90506112e1868261258f565b600c73__LicenseTools__________________________632e28346f9091838888886040518663ffffffff1660e01b81526004016113239594939291906145ad565b60206040518083038186803b15801561133b57600080fd5b505af415801561134f573d6000803e3d6000fd5b505050506040513d601f19601f820116820180604052508101906113739190613a7c565b6113b2576040517f08c379a00000000000000000000000000000000000000000000000000000000081526004016113a9906142f6565b60405180910390fd5b80915050949350505050565b806113c881611ccc565b611407576040517f08c379a00000000000000000000000000000000000000000000000000000000081526004016113fe906143b6565b60405180910390fd5b61140f611c0b565b73ffffffffffffffffffffffffffffffffffffffff1661142e83610e3a565b73ffffffffffffffffffffffffffffffffffffffff1614611484576040517f08c379a000000000000000000000000000000000000000000000000000000000815260040161147b906143d6565b60405180910390fd5b600c73__LicenseTools__________________________6352932dea9091846040518363ffffffff1660e01b81526004016114c0929190614584565b60206040518083038186803b1580156114d857600080fd5b505af41580156114ec573d6000803e3d6000fd5b505050506040513d601f19601f820116820180604052508101906115109190613a7c565b61154f576040517f08c379a0000000000000000000000000000000000000000000000000000000008152600401611546906144d6565b60405180910390fd5b7f229aa096fe921d68e2997f81c575e47900571efc1f51545e0f871bb3d447ebae8260405161157e9190614645565b60405180910390a15050565b6115926135a4565b8161159c81611ccc565b6115db576040517f08c379a00000000000000000000000000000000000000000000000000000000081526004016115d2906143b6565b60405180910390fd5b600c60000160008481526020019081526020016000206040518060e001604052908160008201548152602001600182015481526020016002820154815260200160038201548152602001600482015481526020016005820160009054906101000a900460ff166001811115611653576116526149d2565b5b6001811115611665576116646149d2565b5b81526020016005820160019054906101000a900460ff16600181111561168e5761168d6149d2565b5b60018111156116a05761169f6149d2565b5b81525050915050919050565b6116bd6116b7611c0b565b83611d0d565b6116fc576040517f08c379a00000000000000000000000000000000000000000000000000000000081526004016116f390614236565b60405180910390fd5b611708848484846125ad565b50505050565b61173f7f6906f436fc390f9133ad373774cc38c4aa0356c26e6e60fa181881215f6b80e361173a611c0b565b611133565b61177e576040517f08c379a000000000000000000000000000000000000000000000000000000000815260040161177590614476565b60405180910390fd5b8261178881611ccc565b6117c7576040517f08c379a00000000000000000000000000000000000000000000000000000000081526004016117be906143b6565b60405180910390fd5b8473ffffffffffffffffffffffffffffffffffffffff166117e785610e3a565b73ffffffffffffffffffffffffffffffffffffffff161461183d576040517f08c379a000000000000000000000000000000000000000000000000000000000815260040161183490614256565b60405180910390fd5b600c73__LicenseTools__________________________6365b8740b90918686866040518563ffffffff1660e01b815260040161187d9493929190614600565b60206040518083038186803b15801561189557600080fd5b505af41580156118a9573d6000803e3d6000fd5b505050506040513d601f19601f820116820180604052508101906118cd9190613a7c565b61190c576040517f08c379a000000000000000000000000000000000000000000000000000000000815260040161190390614376565b60405180910390fd5b7f5fc9d65c833c9a6adf234ab047cdfa02ccf1912b857e3ebab6a5dee69e3143718460405161193b9190614645565b60405180910390a15050505050565b606061195582611bc0565b600061195f612609565b9050600081511161197f57604051806020016040528060008152506119aa565b8061198984612620565b60405160200161199a9291906140f9565b6040516020818303038152906040525b915050919050565b6119bb82610b04565b6119c48161209c565b6119ce8383612191565b505050565b6000816119df81611ccc565b611a1e576040517f08c379a0000000000000000000000000000000000000000000000000000000008152600401611a15906143b6565b60405180910390fd5b600c73__LicenseTools__________________________63e6713dc19091856040518363ffffffff1660e01b8152600401611a5a929190614584565b60206040518083038186803b158015611a7257600080fd5b505af4158015611a86573d6000803e3d6000fd5b505050506040513d601f19601f82011682018060405250810190611aaa9190613a7c565b915050919050565b6000600560008473ffffffffffffffffffffffffffffffffffffffff1673ffffffffffffffffffffffffffffffffffffffff16815260200190815260200160002060008373ffffffffffffffffffffffffffffffffffffffff1673ffffffffffffffffffffffffffffffffffffffff16815260200190815260200160002060009054906101000a900460ff16905092915050565b60007f7965db0b000000000000000000000000000000000000000000000000000000007bffffffffffffffffffffffffffffffffffffffffffffffffffffffff1916827bffffffffffffffffffffffffffffffffffffffffffffffffffffffff19161480611bb95750611bb8826126f8565b5b9050919050565b611bc981611ccc565b611c08576040517f08c379a0000000000000000000000000000000000000000000000000000000008152600401611bff90614416565b60405180910390fd5b50565b600033905090565b816004600083815260200190815260200160002060006101000a81548173ffffffffffffffffffffffffffffffffffffffff021916908373ffffffffffffffffffffffffffffffffffffffff160217905550808273ffffffffffffffffffffffffffffffffffffffff16611c8683610e3a565b73ffffffffffffffffffffffffffffffffffffffff167f8c5be1e5ebec7d5bd14f71427d1e84f3dd0314c0f7b2291e5b200ac8c7c3b92560405160405180910390a45050565b60008073ffffffffffffffffffffffffffffffffffffffff16611cee836123c1565b73ffffffffffffffffffffffffffffffffffffffff1614159050919050565b600080611d1983610e3a565b90508073ffffffffffffffffffffffffffffffffffffffff168473ffffffffffffffffffffffffffffffffffffffff161480611d5b5750611d5a8185611ab2565b5b80611d9957508373ffffffffffffffffffffffffffffffffffffffff16611d8184610714565b73ffffffffffffffffffffffffffffffffffffffff16145b91505092915050565b8273ffffffffffffffffffffffffffffffffffffffff16611dc282610e3a565b73ffffffffffffffffffffffffffffffffffffffff1614611e18576040517f08c379a0000000000000000000000000000000000000000000000000000000008152600401611e0f906142b6565b60405180910390fd5b600073ffffffffffffffffffffffffffffffffffffffff168273ffffffffffffffffffffffffffffffffffffffff161415611e88576040517f08c379a0000000000000000000000000000000000000000000000000000000008152600401611e7f90614336565b60405180910390fd5b611e958383836001612772565b8273ffffffffffffffffffffffffffffffffffffffff16611eb582610e3a565b73ffffffffffffffffffffffffffffffffffffffff1614611f0b576040517f08c379a0000000000000000000000000000000000000000000000000000000008152600401611f02906142b6565b60405180910390fd5b6004600082815260200190815260200160002060006101000a81549073ffffffffffffffffffffffffffffffffffffffff02191690556001600360008573ffffffffffffffffffffffffffffffffffffffff1673ffffffffffffffffffffffffffffffffffffffff168152602001908152602001600020600082825403925050819055506001600360008473ffffffffffffffffffffffffffffffffffffffff1673ffffffffffffffffffffffffffffffffffffffff16815260200190815260200160002060008282540192505081905550816002600083815260200190815260200160002060006101000a81548173ffffffffffffffffffffffffffffffffffffffff021916908373ffffffffffffffffffffffffffffffffffffffff160217905550808273ffffffffffffffffffffffffffffffffffffffff168473ffffffffffffffffffffffffffffffffffffffff167fddf252ad1be2c89b69c2b068fc378daa952ba7f163c4a11628f55a4df523b3ef60405160405180910390a461209783838360016128d2565b505050565b6120ad816120a8611c0b565b6128d8565b50565b6120ba8282611133565b61218d576001600a600084815260200190815260200160002060000160008373ffffffffffffffffffffffffffffffffffffffff1673ffffffffffffffffffffffffffffffffffffffff16815260200190815260200160002060006101000a81548160ff021916908315150217905550612132611c0b565b73ffffffffffffffffffffffffffffffffffffffff168173ffffffffffffffffffffffffffffffffffffffff16837f2f8788117e7eff1d82e926ec794901d17c78024a50270940304540a733656f0d60405160405180910390a45b5050565b61219b8282611133565b1561226f576000600a600084815260200190815260200160002060000160008373ffffffffffffffffffffffffffffffffffffffff1673ffffffffffffffffffffffffffffffffffffffff16815260200190815260200160002060006101000a81548160ff021916908315150217905550612214611c0b565b73ffffffffffffffffffffffffffffffffffffffff168173ffffffffffffffffffffffffffffffffffffffff16837ff6391f5c32d9c69d2a47ea670b442974b53935d1edc7fd64eb21e047a839171b60405160405180910390a45b5050565b600061227e82610e3a565b905061228e816000846001612772565b61229782610e3a565b90506004600083815260200190815260200160002060006101000a81549073ffffffffffffffffffffffffffffffffffffffff02191690556001600360008373ffffffffffffffffffffffffffffffffffffffff1673ffffffffffffffffffffffffffffffffffffffff168152602001908152602001600020600082825403925050819055506002600083815260200190815260200160002060006101000a81549073ffffffffffffffffffffffffffffffffffffffff021916905581600073ffffffffffffffffffffffffffffffffffffffff168273ffffffffffffffffffffffffffffffffffffffff167fddf252ad1be2c89b69c2b068fc378daa952ba7f163c4a11628f55a4df523b3ef60405160405180910390a46123bd8160008460016128d2565b5050565b60006002600083815260200190815260200160002060009054906101000a900473ffffffffffffffffffffffffffffffffffffffff169050919050565b8173ffffffffffffffffffffffffffffffffffffffff168373ffffffffffffffffffffffffffffffffffffffff16141561246d576040517f08c379a000000000000000000000000000000000000000000000000000000000815260040161246490614356565b60405180910390fd5b80600560008573ffffffffffffffffffffffffffffffffffffffff1673ffffffffffffffffffffffffffffffffffffffff16815260200190815260200160002060008473ffffffffffffffffffffffffffffffffffffffff1673ffffffffffffffffffffffffffffffffffffffff16815260200190815260200160002060006101000a81548160ff0219169083151502179055508173ffffffffffffffffffffffffffffffffffffffff168373ffffffffffffffffffffffffffffffffffffffff167f17307eab39ab6107e8899845ad3d59bd9653f200f220920489ca2b5937696c318360405161255e91906141be565b60405180910390a3505050565b6001816000016000828254019250508190555050565b600081600001549050919050565b6125a982826040518060200160405280600081525061295d565b5050565b6125b8848484611da2565b6125c4848484846129b8565b612603576040517f08c379a00000000000000000000000000000000000000000000000000000000081526004016125fa90614296565b60405180910390fd5b50505050565b606060405180602001604052806000815250905090565b60606000600161262f84612b4f565b01905060008167ffffffffffffffff81111561264e5761264d614a8e565b5b6040519080825280601f01601f1916602001820160405280156126805781602001600182028036833780820191505090505b509050600082602001820190505b6001156126ed578080600190039150507f3031323334353637383961626364656600000000000000000000000000000000600a86061a8153600a85816126d7576126d66149a3565b5b04945060008514156126e8576126ed565b61268e565b819350505050919050565b60007f780e9d63000000000000000000000000000000000000000000000000000000007bffffffffffffffffffffffffffffffffffffffffffffffffffffffff1916827bffffffffffffffffffffffffffffffffffffffffffffffffffffffff1916148061276b575061276a82612ca2565b5b9050919050565b61277e84848484612d84565b60018111156127c2576040517f08c379a00000000000000000000000000000000000000000000000000000000081526004016127b9906144b6565b60405180910390fd5b6000829050600073ffffffffffffffffffffffffffffffffffffffff168573ffffffffffffffffffffffffffffffffffffffff16141561280a5761280581612d8a565b612849565b8373ffffffffffffffffffffffffffffffffffffffff168573ffffffffffffffffffffffffffffffffffffffff1614612848576128478582612dd3565b5b5b600073ffffffffffffffffffffffffffffffffffffffff168473ffffffffffffffffffffffffffffffffffffffff16141561288c5761288781612f40565b6128cb565b8473ffffffffffffffffffffffffffffffffffffffff168473ffffffffffffffffffffffffffffffffffffffff16146128ca576128c98482613011565b5b5b5050505050565b50505050565b6128e28282611133565b612959576128ef81613090565b6128fd8360001c60206130bd565b60405160200161290e92919061411d565b6040516020818303038152906040526040517f08c379a000000000000000000000000000000000000000000000000000000000815260040161295091906141f4565b60405180910390fd5b5050565b61296783836132f9565b61297460008484846129b8565b6129b3576040517f08c379a00000000000000000000000000000000000000000000000000000000081526004016129aa90614296565b60405180910390fd5b505050565b60006129d98473ffffffffffffffffffffffffffffffffffffffff16613517565b15612b42578373ffffffffffffffffffffffffffffffffffffffff1663150b7a02612a02611c0b565b8786866040518563ffffffff1660e01b8152600401612a249493929190614172565b602060405180830381600087803b158015612a3e57600080fd5b505af1925050508015612a6f57506040513d601f19601f82011682018060405250810190612a6c9190613b43565b60015b612af2573d8060008114612a9f576040519150601f19603f3d011682016040523d82523d6000602084013e612aa4565b606091505b50600081511415612aea576040517f08c379a0000000000000000000000000000000000000000000000000000000008152600401612ae190614296565b60405180910390fd5b805181602001fd5b63150b7a0260e01b7bffffffffffffffffffffffffffffffffffffffffffffffffffffffff1916817bffffffffffffffffffffffffffffffffffffffffffffffffffffffff191614915050612b47565b600190505b949350505050565b600080600090507a184f03e93ff9f4daa797ed6e38ed64bf6a1f0100000000000000008310612bad577a184f03e93ff9f4daa797ed6e38ed64bf6a1f0100000000000000008381612ba357612ba26149a3565b5b0492506040810190505b6d04ee2d6d415b85acef81000000008310612bea576d04ee2d6d415b85acef81000000008381612be057612bdf6149a3565b5b0492506020810190505b662386f26fc100008310612c1957662386f26fc100008381612c0f57612c0e6149a3565b5b0492506010810190505b6305f5e1008310612c42576305f5e1008381612c3857612c376149a3565b5b0492506008810190505b6127108310612c67576127108381612c5d57612c5c6149a3565b5b0492506004810190505b60648310612c8a5760648381612c8057612c7f6149a3565b5b0492506002810190505b600a8310612c99576001810190505b80915050919050565b60007f80ac58cd000000000000000000000000000000000000000000000000000000007bffffffffffffffffffffffffffffffffffffffffffffffffffffffff1916827bffffffffffffffffffffffffffffffffffffffffffffffffffffffff19161480612d6d57507f5b5e139f000000000000000000000000000000000000000000000000000000007bffffffffffffffffffffffffffffffffffffffffffffffffffffffff1916827bffffffffffffffffffffffffffffffffffffffffffffffffffffffff1916145b80612d7d5750612d7c8261353a565b5b9050919050565b50505050565b6008805490506009600083815260200190815260200160002081905550600881908060018154018082558091505060019003906000526020600020016000909190919091505550565b60006001612de084610ec1565b612dea91906147a9565b9050600060076000848152602001908152602001600020549050818114612ecf576000600660008673ffffffffffffffffffffffffffffffffffffffff1673ffffffffffffffffffffffffffffffffffffffff168152602001908152602001600020600084815260200190815260200160002054905080600660008773ffffffffffffffffffffffffffffffffffffffff1673ffffffffffffffffffffffffffffffffffffffff168152602001908152602001600020600084815260200190815260200160002081905550816007600083815260200190815260200160002081905550505b6007600084815260200190815260200160002060009055600660008573ffffffffffffffffffffffffffffffffffffffff1673ffffffffffffffffffffffffffffffffffffffff16815260200190815260200160002060008381526020019081526020016000206000905550505050565b60006001600880549050612f5491906147a9565b9050600060096000848152602001908152602001600020549050600060088381548110612f8457612f83614a5f565b5b906000526020600020015490508060088381548110612fa657612fa5614a5f565b5b906000526020600020018190555081600960008381526020019081526020016000208190555060096000858152602001908152602001600020600090556008805480612ff557612ff4614a30565b5b6001900381819060005260206000200160009055905550505050565b600061301c83610ec1565b905081600660008573ffffffffffffffffffffffffffffffffffffffff1673ffffffffffffffffffffffffffffffffffffffff168152602001908152602001600020600083815260200190815260200160002081905550806007600084815260200190815260200160002081905550505050565b60606130b68273ffffffffffffffffffffffffffffffffffffffff16601460ff166130bd565b9050919050565b6060600060028360026130d0919061474f565b6130da91906146f9565b67ffffffffffffffff8111156130f3576130f2614a8e565b5b6040519080825280601f01601f1916602001820160405280156131255781602001600182028036833780820191505090505b5090507f30000000000000000000000000000000000000000000000000000000000000008160008151811061315d5761315c614a5f565b5b60200101907effffffffffffffffffffffffffffffffffffffffffffffffffffffffffffff1916908160001a9053507f7800000000000000000000000000000000000000000000000000000000000000816001815181106131c1576131c0614a5f565b5b60200101907effffffffffffffffffffffffffffffffffffffffffffffffffffffffffffff1916908160001a90535060006001846002613201919061474f565b61320b91906146f9565b90505b60018111156132ab577f3031323334353637383961626364656600000000000000000000000000000000600f86166010811061324d5761324c614a5f565b5b1a60f81b82828151811061326457613263614a5f565b5b60200101907effffffffffffffffffffffffffffffffffffffffffffffffffffffffffffff1916908160001a905350600485901c9450806132a4906148e7565b905061320e565b50600084146132ef576040517f08c379a00000000000000000000000000000000000000000000000000000000081526004016132e690614216565b60405180910390fd5b8091505092915050565b600073ffffffffffffffffffffffffffffffffffffffff168273ffffffffffffffffffffffffffffffffffffffff161415613369576040517f08c379a0000000000000000000000000000000000000000000000000000000008152600401613360906143f6565b60405180910390fd5b61337281611ccc565b156133b2576040517f08c379a00000000000000000000000000000000000000000000000000000000081526004016133a9906142d6565b60405180910390fd5b6133c0600083836001612772565b6133c981611ccc565b15613409576040517f08c379a0000000000000000000000000000000000000000000000000000000008152600401613400906142d6565b60405180910390fd5b6001600360008473ffffffffffffffffffffffffffffffffffffffff1673ffffffffffffffffffffffffffffffffffffffff16815260200190815260200160002060008282540192505081905550816002600083815260200190815260200160002060006101000a81548173ffffffffffffffffffffffffffffffffffffffff021916908373ffffffffffffffffffffffffffffffffffffffff160217905550808273ffffffffffffffffffffffffffffffffffffffff16600073ffffffffffffffffffffffffffffffffffffffff167fddf252ad1be2c89b69c2b068fc378daa952ba7f163c4a11628f55a4df523b3ef60405160405180910390a46135136000838360016128d2565b5050565b6000808273ffffffffffffffffffffffffffffffffffffffff163b119050919050565b60007f01ffc9a7000000000000000000000000000000000000000000000000000000007bffffffffffffffffffffffffffffffffffffffffffffffffffffffff1916827bffffffffffffffffffffffffffffffffffffffffffffffffffffffff1916149050919050565b6040518060e001604052806000815260200160008152602001600081526020016000815260200160008152602001600060018111156135e6576135e56149d2565b5b8152602001600060018111156135ff576135fe6149d2565b5b81525090565b600061361861361384614685565b614660565b90508281526020810184848401111561363457613633614ac2565b5b61363f8482856148a5565b509392505050565b600081359050613656816150d6565b92915050565b60008135905061366b816150ed565b92915050565b600081519050613680816150ed565b92915050565b60008135905061369581615104565b92915050565b6000813590506136aa8161511b565b92915050565b6000815190506136bf8161511b565b92915050565b600082601f8301126136da576136d9614abd565b5b81356136ea848260208601613605565b91505092915050565b60008135905061370281615132565b92915050565b60008135905061371781615142565b92915050565b60006020828403121561373357613732614acc565b5b600061374184828501613647565b91505092915050565b6000806040838503121561376157613760614acc565b5b600061376f85828601613647565b925050602061378085828601613647565b9150509250929050565b6000806000606084860312156137a3576137a2614acc565b5b60006137b186828701613647565b93505060206137c286828701613647565b92505060406137d386828701613708565b9150509250925092565b600080600080608085870312156137f7576137f6614acc565b5b600061380587828801613647565b945050602061381687828801613647565b935050604061382787828801613708565b925050606085013567ffffffffffffffff81111561384857613847614ac7565b5b613854878288016136c5565b91505092959194509250565b6000806040838503121561387757613876614acc565b5b600061388585828601613647565b92505060206138968582860161365c565b9150509250929050565b600080604083850312156138b7576138b6614acc565b5b60006138c585828601613647565b92505060206138d685828601613708565b9150509250929050565b600080600080608085870312156138fa576138f9614acc565b5b600061390887828801613647565b945050602061391987828801613708565b935050604061392a878288016136f3565b925050606061393b87828801613708565b91505092959194509250565b6000806000606084860312156139605761395f614acc565b5b600061396e86828701613647565b935050602061397f86828701613708565b925050604061399086828701613708565b9150509250925092565b600080600080600060a086880312156139b6576139b5614acc565b5b60006139c488828901613647565b95505060206139d588828901613708565b94505060406139e688828901613708565b93505060606139f7888289016136f3565b9250506080613a0888828901613708565b9150509295509295909350565b60008060008060808587031215613a2f57613a2e614acc565b5b6000613a3d87828801613647565b9450506020613a4e87828801613708565b9350506040613a5f87828801613708565b9250506060613a7087828801613708565b91505092959194509250565b600060208284031215613a9257613a91614acc565b5b6000613aa084828501613671565b91505092915050565b600060208284031215613abf57613abe614acc565b5b6000613acd84828501613686565b91505092915050565b60008060408385031215613aed57613aec614acc565b5b6000613afb85828601613686565b9250506020613b0c85828601613647565b9150509250929050565b600060208284031215613b2c57613b2b614acc565b5b6000613b3a8482850161369b565b91505092915050565b600060208284031215613b5957613b58614acc565b5b6000613b67848285016136b0565b91505092915050565b600060208284031215613b8657613b85614acc565b5b6000613b9484828501613708565b91505092915050565b613ba6816147dd565b82525050565b613bb5816147dd565b82525050565b613bc4816147ef565b82525050565b613bd3816147fb565b82525050565b6000613be4826146b6565b613bee81856146cc565b9350613bfe8185602086016148b4565b613c0781614ad1565b840191505092915050565b613c1b81614881565b82525050565b613c2a81614893565b82525050565b613c3981614893565b82525050565b6000613c4a826146c1565b613c5481856146dd565b9350613c648185602086016148b4565b613c6d81614ad1565b840191505092915050565b6000613c83826146c1565b613c8d81856146ee565b9350613c9d8185602086016148b4565b80840191505092915050565b6000613cb66020836146dd565b9150613cc182614ae2565b602082019050919050565b6000613cd9602d836146dd565b9150613ce482614b0b565b604082019050919050565b6000613cfc6004836146dd565b9150613d0782614b5a565b602082019050919050565b6000613d1f602b836146dd565b9150613d2a82614b83565b604082019050919050565b6000613d426032836146dd565b9150613d4d82614bd2565b604082019050919050565b6000613d656025836146dd565b9150613d7082614c21565b604082019050919050565b6000613d88601c836146dd565b9150613d9382614c70565b602082019050919050565b6000613dab6006836146dd565b9150613db682614c99565b602082019050919050565b6000613dce6005836146dd565b9150613dd982614cc2565b602082019050919050565b6000613df16024836146dd565b9150613dfc82614ceb565b604082019050919050565b6000613e146019836146dd565b9150613e1f82614d3a565b602082019050919050565b6000613e376006836146dd565b9150613e4282614d63565b602082019050919050565b6000613e5a6029836146dd565b9150613e6582614d8c565b604082019050919050565b6000613e7d6007836146dd565b9150613e8882614ddb565b602082019050919050565b6000613ea06004836146dd565b9150613eab82614e04565b602082019050919050565b6000613ec36020836146dd565b9150613ece82614e2d565b602082019050919050565b6000613ee66018836146dd565b9150613ef182614e56565b602082019050919050565b6000613f096021836146dd565b9150613f1482614e7f565b604082019050919050565b6000613f2c603d836146dd565b9150613f3782614ece565b604082019050919050565b6000613f4f6006836146dd565b9150613f5a82614f1d565b602082019050919050565b6000613f72602c836146dd565b9150613f7d82614f46565b604082019050919050565b6000613f956017836146ee565b9150613fa082614f95565b601782019050919050565b6000613fb86035836146dd565b9150613fc382614fbe565b604082019050919050565b6000613fdb6003836146dd565b9150613fe68261500d565b602082019050919050565b6000613ffe6011836146ee565b915061400982615036565b601182019050919050565b6000614021602f836146dd565b915061402c8261505f565b604082019050919050565b60e08201600082015161404d60008501826140cc565b50602082015161406060208501826140cc565b50604082015161407360408501826140cc565b50606082015161408660608501826140cc565b50608082015161409960808501826140cc565b5060a08201516140ac60a0850182613c12565b5060c08201516140bf60c0850182613c21565b50505050565b8082525050565b6140d581614877565b82525050565b6140e481614877565b82525050565b6140f381614877565b82525050565b60006141058285613c78565b91506141118284613c78565b91508190509392505050565b600061412882613f88565b91506141348285613c78565b915061413f82613ff1565b915061414b8284613c78565b91508190509392505050565b600060208201905061416c6000830184613b9d565b92915050565b60006080820190506141876000830187613b9d565b6141946020830186613b9d565b6141a160408301856140db565b81810360608301526141b38184613bd9565b905095945050505050565b60006020820190506141d36000830184613bbb565b92915050565b60006020820190506141ee6000830184613bca565b92915050565b6000602082019050818103600083015261420e8184613c3f565b905092915050565b6000602082019050818103600083015261422f81613ca9565b9050919050565b6000602082019050818103600083015261424f81613ccc565b9050919050565b6000602082019050818103600083015261426f81613cef565b9050919050565b6000602082019050818103600083015261428f81613d12565b9050919050565b600060208201905081810360008301526142af81613d35565b9050919050565b600060208201905081810360008301526142cf81613d58565b9050919050565b600060208201905081810360008301526142ef81613d7b565b9050919050565b6000602082019050818103600083015261430f81613d9e565b9050919050565b6000602082019050818103600083015261432f81613dc1565b9050919050565b6000602082019050818103600083015261434f81613de4565b9050919050565b6000602082019050818103600083015261436f81613e07565b9050919050565b6000602082019050818103600083015261438f81613e2a565b9050919050565b600060208201905081810360008301526143af81613e4d565b9050919050565b600060208201905081810360008301526143cf81613e70565b9050919050565b600060208201905081810360008301526143ef81613e93565b9050919050565b6000602082019050818103600083015261440f81613eb6565b9050919050565b6000602082019050818103600083015261442f81613ed9565b9050919050565b6000602082019050818103600083015261444f81613efc565b9050919050565b6000602082019050818103600083015261446f81613f1f565b9050919050565b6000602082019050818103600083015261448f81613f42565b9050919050565b600060208201905081810360008301526144af81613f65565b9050919050565b600060208201905081810360008301526144cf81613fab565b9050919050565b600060208201905081810360008301526144ef81613fce565b9050919050565b6000602082019050818103600083015261450f81614014565b9050919050565b600060e08201905061452b6000830184614037565b92915050565b600060a08201905061454660008301886140c5565b6145536020830187613bac565b6145606040830186613bac565b61456d60608301856140ea565b61457a60808301846140ea565b9695505050505050565b600060408201905061459960008301856140c5565b6145a660208301846140ea565b9392505050565b600060a0820190506145c260008301886140c5565b6145cf60208301876140ea565b6145dc60408301866140ea565b6145e96060830185613c30565b6145f660808301846140ea565b9695505050505050565b600060808201905061461560008301876140c5565b61462260208301866140ea565b61462f60408301856140ea565b61463c60608301846140ea565b95945050505050565b600060208201905061465a60008301846140db565b92915050565b600061466a61467b565b90506146768282614943565b919050565b6000604051905090565b600067ffffffffffffffff8211156146a05761469f614a8e565b5b6146a982614ad1565b9050602081019050919050565b600081519050919050565b600081519050919050565b600082825260208201905092915050565b600082825260208201905092915050565b600081905092915050565b600061470482614877565b915061470f83614877565b9250827fffffffffffffffffffffffffffffffffffffffffffffffffffffffffffffffff0382111561474457614743614974565b5b828201905092915050565b600061475a82614877565b915061476583614877565b9250817fffffffffffffffffffffffffffffffffffffffffffffffffffffffffffffffff048311821515161561479e5761479d614974565b5b828202905092915050565b60006147b482614877565b91506147bf83614877565b9250828210156147d2576147d1614974565b5b828203905092915050565b60006147e882614857565b9050919050565b60008115159050919050565b6000819050919050565b60007fffffffff0000000000000000000000000000000000000000000000000000000082169050919050565b600081905061483f826150ae565b919050565b6000819050614852826150c2565b919050565b600073ffffffffffffffffffffffffffffffffffffffff82169050919050565b6000819050919050565b600061488c82614831565b9050919050565b600061489e82614844565b9050919050565b82818337600083830152505050565b60005b838110156148d25780820151818401526020810190506148b7565b838111156148e1576000848401525b50505050565b60006148f282614877565b9150600082141561490657614905614974565b5b600182039050919050565b6000600282049050600182168061492957607f821691505b6020821081141561493d5761493c614a01565b5b50919050565b61494c82614ad1565b810181811067ffffffffffffffff8211171561496b5761496a614a8e565b5b80604052505050565b7f4e487b7100000000000000000000000000000000000000000000000000000000600052601160045260246000fd5b7f4e487b7100000000000000000000000000000000000000000000000000000000600052601260045260246000fd5b7f4e487b7100000000000000000000000000000000000000000000000000000000600052602160045260246000fd5b7f4e487b7100000000000000000000000000000000000000000000000000000000600052602260045260246000fd5b7f4e487b7100000000000000000000000000000000000000000000000000000000600052603160045260246000fd5b7f4e487b7100000000000000000000000000000000000000000000000000000000600052603260045260246000fd5b7f4e487b7100000000000000000000000000000000000000000000000000000000600052604160045260246000fd5b600080fd5b600080fd5b600080fd5b600080fd5b6000601f19601f8301169050919050565b7f537472696e67733a20686578206c656e67746820696e73756666696369656e74600082015250565b7f4552433732313a2063616c6c6572206973206e6f7420746f6b656e206f776e6560008201527f72206f7220617070726f76656400000000000000000000000000000000000000602082015250565b7f4f574e4200000000000000000000000000000000000000000000000000000000600082015250565b7f455243373231456e756d657261626c653a206f776e657220696e646578206f7560008201527f74206f6620626f756e6473000000000000000000000000000000000000000000602082015250565b7f4552433732313a207472616e7366657220746f206e6f6e20455243373231526560008201527f63656976657220696d706c656d656e7465720000000000000000000000000000602082015250565b7f4552433732313a207472616e736665722066726f6d20696e636f72726563742060008201527f6f776e6572000000000000000000000000000000000000000000000000000000602082015250565b7f4552433732313a20746f6b656e20616c7265616479206d696e74656400000000600082015250565b7f4558494c49430000000000000000000000000000000000000000000000000000600082015250565b7f494e56414c000000000000000000000000000000000000000000000000000000600082015250565b7f4552433732313a207472616e7366657220746f20746865207a65726f2061646460008201527f7265737300000000000000000000000000000000000000000000000000000000602082015250565b7f4552433732313a20617070726f766520746f2063616c6c657200000000000000600082015250565b7f4c49434558500000000000000000000000000000000000000000000000000000600082015250565b7f4552433732313a2061646472657373207a65726f206973206e6f74206120766160008201527f6c6964206f776e65720000000000000000000000000000000000000000000000602082015250565b7f4e4f54464e444c00000000000000000000000000000000000000000000000000600082015250565b7f4f574e4100000000000000000000000000000000000000000000000000000000600082015250565b7f4552433732313a206d696e7420746f20746865207a65726f2061646472657373600082015250565b7f4552433732313a20696e76616c696420746f6b656e2049440000000000000000600082015250565b7f4552433732313a20617070726f76616c20746f2063757272656e74206f776e6560008201527f7200000000000000000000000000000000000000000000000000000000000000602082015250565b7f4552433732313a20617070726f76652063616c6c6572206973206e6f7420746f60008201527f6b656e206f776e6572206f7220617070726f76656420666f7220616c6c000000602082015250565b7f554e415554480000000000000000000000000000000000000000000000000000600082015250565b7f455243373231456e756d657261626c653a20676c6f62616c20696e646578206f60008201527f7574206f6620626f756e64730000000000000000000000000000000000000000602082015250565b7f416363657373436f6e74726f6c3a206163636f756e7420000000000000000000600082015250565b7f455243373231456e756d657261626c653a20636f6e736563757469766520747260008201527f616e7366657273206e6f7420737570706f727465640000000000000000000000602082015250565b7f4143540000000000000000000000000000000000000000000000000000000000600082015250565b7f206973206d697373696e6720726f6c6520000000000000000000000000000000600082015250565b7f416363657373436f6e74726f6c3a2063616e206f6e6c792072656e6f756e636560008201527f20726f6c657320666f722073656c660000000000000000000000000000000000602082015250565b600281106150bf576150be6149d2565b5b50565b600281106150d3576150d26149d2565b5b50565b6150df816147dd565b81146150ea57600080fd5b50565b6150f6816147ef565b811461510157600080fd5b50565b61510d816147fb565b811461511857600080fd5b50565b61512481614805565b811461512f57600080fd5b50565b6002811061513f57600080fd5b50565b61514b81614877565b811461515657600080fd5b5056fea2646970667358221220920751e180c5be2c1d23c11ef5199e14cdae546ac43175deed7b32a2bb23202664736f6c63430008070033",
  "immutableReferences": {},
  "source": "// contracts/GameItem.sol\r\n// SPDX-License-Identifier: MIT\r\npragma solidity ^0.8.0;\r\n\r\nimport \"@openzeppelin/contracts/token/ERC721/extensions/ERC721Enumerable.sol\";\r\nimport \"@openzeppelin/contracts/utils/Counters.sol\";\r\nimport \"@openzeppelin/contracts/access/AccessControl.sol\";\r\n\r\nimport \"./LicenseTools.sol\";\r\n\r\ncontract LicenseToken is ERC721Enumerable, AccessControl {\r\n    /**\r\n    CONSTANTS\r\n    */\r\n    bytes32 public constant LICENSE_MANAGER_ROLE =\r\n        keccak256(\"LICENSE_MANAGER_ROLE\");\r\n\r\n    using Counters for Counters.Counter;\r\n\r\n    using LicenseTools for LicensesData;\r\n\r\n    /**\r\n    EVENTS\r\n    */\r\n\r\n    /**\r\n     * @notice event for license activation\r\n     * @dev Explain to a developer any extra details\r\n     * @param licenseId license id\r\n     */\r\n    event LicenseActive(uint256 licenseId);\r\n\r\n    /**\r\n     * @notice event for license update\r\n     * @dev Explain to a developer any extra details\r\n     * @param licenseId license id\r\n     */\r\n    event LicenseUpdated(uint256 licenseId);\r\n\r\n    //Modifiers\r\n\r\n    /**\r\n     * @notice Modifier\r\n     * @dev Modifier for License Manager only\r\n     */\r\n    modifier onlyLicenseManager() {\r\n        require(hasRole(LICENSE_MANAGER_ROLE, _msgSender()), \"UNAUTH\");\r\n        _;\r\n    }\r\n\r\n    /**\r\n     * @notice Modifier\r\n     * @dev Modifier for only existing token id\r\n     */\r\n    modifier onlyExistedToken(uint256 tokenId) {\r\n        require(_exists(tokenId), \"NOTFNDL\");\r\n        _;\r\n    }\r\n\r\n    Counters.Counter private _tokenIds;\r\n\r\n    LicensesData licensesData;\r\n\r\n    // mapping(uint256 => LicenseInfo) registeredLicenses;\r\n\r\n    constructor() ERC721(\"License\", \"LVC\") {\r\n        _setupRole(DEFAULT_ADMIN_ROLE, _msgSender());\r\n        _setupRole(LICENSE_MANAGER_ROLE, _msgSender());\r\n    }\r\n\r\n    /**\r\n     * @notice supportsInterface function\r\n     * @dev Needed for inherit ECR721 token\r\n     * @param interfaceId nonce\r\n     * @return supportsInterface execution\r\n     */\r\n    function supportsInterface(bytes4 interfaceId)\r\n        public\r\n        view\r\n        virtual\r\n        override(ERC721Enumerable, AccessControl)\r\n        returns (bool)\r\n    {\r\n        return super.supportsInterface(interfaceId);\r\n    }\r\n\r\n    /**\r\n     * @notice Create license\r\n     * @dev Create new ECR721 token\r\n     * Requirements:\r\n     * - the caller must have the `MANAGER_ROLE`.\r\n     * @param licenseOwner owner address\r\n     * @param servicesIdsPool license servicesIdsPool\r\n     * @param licenseOwner owner address\r\n     * @param numberOfMonths number Of Months\r\n     * @return the hash of the license\r\n     */\r\n    function createLicense(\r\n        address licenseOwner,\r\n        uint256 servicesIdsPool,\r\n        LicenseType licenseType,\r\n        uint256 numberOfMonths\r\n    ) public onlyLicenseManager returns (uint256) {\r\n        _tokenIds.increment();\r\n\r\n        uint256 newLicenseId = _tokenIds.current();\r\n        _safeMint(licenseOwner, newLicenseId);\r\n        require(\r\n            licensesData.insert(\r\n                newLicenseId,\r\n                servicesIdsPool,\r\n                licenseType,\r\n                numberOfMonths\r\n            ),\r\n            \"EXILIC\"\r\n        );\r\n        return newLicenseId;\r\n    }\r\n\r\n    /**\r\n     * @notice Reset license\r\n     * @dev Reset ECR721 token\r\n     * Requirements:\r\n     * - the caller must have the `MANAGER_ROLE`.\r\n     * @param licenseId licenseId\r\n     * @param servicesIdsPool license servicesIdsPool\r\n     * @param licenseType owner address\r\n     * @param numberOfMonths number Of Months\r\n     */\r\n    function resetLicense(\r\n        address licenseOwner,\r\n        uint256 licenseId,\r\n        uint256 servicesIdsPool,\r\n        LicenseType licenseType,\r\n        uint256 numberOfMonths\r\n    ) public onlyLicenseManager onlyExistedToken(licenseId) {\r\n        require(ownerOf(licenseId) == licenseOwner, \"OWNB\");\r\n        licensesData.insert(\r\n            licenseId,\r\n            servicesIdsPool,\r\n            licenseType,\r\n            numberOfMonths\r\n        );\r\n        emit LicenseUpdated(licenseId);\r\n    }\r\n\r\n    /**\r\n     * @notice Update license\r\n     * @dev Update existing ECR721 token\r\n     * Requirements:\r\n     * - the caller must have the `MANAGER_ROLE`.\r\n     * - the token Id must exist.\r\n     * @param licenseId license Id\r\n     * @param servicesIdsPool license servicesIdsPool\r\n     * @param addedMonths number Of Months\r\n     */\r\n    function updateLicense(\r\n        address licenseOwner,\r\n        uint256 licenseId,\r\n        uint256 servicesIdsPool,\r\n        uint256 addedMonths\r\n    ) public onlyLicenseManager onlyExistedToken(licenseId) {\r\n        require(ownerOf(licenseId) == licenseOwner, \"OWNB\");\r\n        require(\r\n            licensesData.update(licenseId, servicesIdsPool, addedMonths),\r\n            \"LICEXP\"\r\n        );\r\n        emit LicenseUpdated(licenseId);\r\n    }\r\n\r\n    /**\r\n     * @notice burn license owner can burn licence\r\n     * @dev Explain to a developer any extra details\r\n     * @param licenseId license id\r\n     */\r\n    function burn(uint256 licenseId) public onlyExistedToken(licenseId) {\r\n        require(ownerOf(licenseId) == _msgSender(), \"OWNB\");\r\n        _burn(licenseId);\r\n        delete licensesData.registeredLicenses[licenseId];\r\n    }\r\n\r\n    /**\r\n     * @notice Activate license\r\n     * @dev Explain to a developer any extra details\r\n     * @param licenseId license id\r\n     */\r\n    function activate(uint256 licenseId) public onlyExistedToken(licenseId) {\r\n        require(ownerOf(licenseId) == _msgSender(), \"OWNA\");\r\n        require(licensesData.activate(licenseId), \"ACT\");\r\n        emit LicenseActive(licenseId);\r\n    }\r\n\r\n    /**\r\n     * @notice check if license is activated\r\n     * @dev Explain to a developer any extra details\r\n     * @param licenseId license id\r\n     * @return true if license is active and not expired\r\n     */\r\n    function isLicenseActive(uint256 licenseId)\r\n        public\r\n        view\r\n        onlyExistedToken(licenseId)\r\n        returns (bool)\r\n    {\r\n        return licensesData.isLicenseActive(licenseId);\r\n    }\r\n\r\n    /**\r\n     * @notice get license\r\n     * @dev Explain to a developer any extra details\r\n     * @param licenseId license id\r\n     * @return LicenseInfo struct\r\n     */\r\n    function getLicense(uint256 licenseId)\r\n        public\r\n        view\r\n        onlyExistedToken(licenseId)\r\n        returns (LicenseInfo memory)\r\n    {\r\n        return licensesData.registeredLicenses[licenseId];\r\n    }\r\n\r\n    /**\r\n     * @notice check if user can user a service form the license id\r\n     * @dev Explain to a developer any extra details\r\n     * @param user user address\r\n     * @param licenseId license id\r\n     * @param serviceId service id to check\r\n     * @return LicenseInfo struct\r\n     */\r\n    function isUserAllowToUseService(\r\n        address user,\r\n        uint256 licenseId,\r\n        uint256 serviceId\r\n    ) public view onlyExistedToken(licenseId) returns (bool) {\r\n        require(licensesData.isLicenseActive(licenseId), \"INVAL\");\r\n        return\r\n            licensesData.isUserAllowToUseService(\r\n                user,\r\n                ownerOf(licenseId),\r\n                licenseId,\r\n                serviceId\r\n            );\r\n    }\r\n}\r\n",
  "sourcePath": "C:\\Users\\israel\\Documents\\codes\\dev\\cryptween\\smart-contract-3\\contracts\\LicenseToken.sol",
  "compiler": {
    "name": "solc",
    "version": "0.8.7+commit.e28d00a7.Emscripten.clang"
  },
  "schemaVersion": "3.4.13",
  "updatedAt": "2023-06-09T14:57:24.512Z",
  "networkType": "ethereum",
  "devdoc": {
    "events": {
      "LicenseActive(uint256)": {
        "details": "Explain to a developer any extra details",
        "params": {
          "licenseId": "license id"
        }
      },
      "LicenseUpdated(uint256)": {
        "details": "Explain to a developer any extra details",
        "params": {
          "licenseId": "license id"
        }
      }
    },
    "kind": "dev",
    "methods": {
      "activate(uint256)": {
        "details": "Explain to a developer any extra details",
        "params": {
          "licenseId": "license id"
        }
      },
      "approve(address,uint256)": {
        "details": "See {IERC721-approve}."
      },
      "balanceOf(address)": {
        "details": "See {IERC721-balanceOf}."
      },
      "burn(uint256)": {
        "details": "Explain to a developer any extra details",
        "params": {
          "licenseId": "license id"
        }
      },
      "createLicense(address,uint256,uint8,uint256)": {
        "details": "Create new ECR721 token Requirements: - the caller must have the `MANAGER_ROLE`.",
        "params": {
          "licenseOwner": "owner address",
          "numberOfMonths": "number Of Months",
          "servicesIdsPool": "license servicesIdsPool"
        },
        "returns": {
          "_0": "the hash of the license"
        }
      },
      "getApproved(uint256)": {
        "details": "See {IERC721-getApproved}."
      },
      "getLicense(uint256)": {
        "details": "Explain to a developer any extra details",
        "params": {
          "licenseId": "license id"
        },
        "returns": {
          "_0": "LicenseInfo struct"
        }
      },
      "getRoleAdmin(bytes32)": {
        "details": "Returns the admin role that controls `role`. See {grantRole} and {revokeRole}. To change a role's admin, use {_setRoleAdmin}."
      },
      "grantRole(bytes32,address)": {
        "details": "Grants `role` to `account`. If `account` had not been already granted `role`, emits a {RoleGranted} event. Requirements: - the caller must have ``role``'s admin role. May emit a {RoleGranted} event."
      },
      "hasRole(bytes32,address)": {
        "details": "Returns `true` if `account` has been granted `role`."
      },
      "isApprovedForAll(address,address)": {
        "details": "See {IERC721-isApprovedForAll}."
      },
      "isLicenseActive(uint256)": {
        "details": "Explain to a developer any extra details",
        "params": {
          "licenseId": "license id"
        },
        "returns": {
          "_0": "true if license is active and not expired"
        }
      },
      "isUserAllowToUseService(address,uint256,uint256)": {
        "details": "Explain to a developer any extra details",
        "params": {
          "licenseId": "license id",
          "serviceId": "service id to check",
          "user": "user address"
        },
        "returns": {
          "_0": "LicenseInfo struct"
        }
      },
      "name()": {
        "details": "See {IERC721Metadata-name}."
      },
      "ownerOf(uint256)": {
        "details": "See {IERC721-ownerOf}."
      },
      "renounceRole(bytes32,address)": {
        "details": "Revokes `role` from the calling account. Roles are often managed via {grantRole} and {revokeRole}: this function's purpose is to provide a mechanism for accounts to lose their privileges if they are compromised (such as when a trusted device is misplaced). If the calling account had been revoked `role`, emits a {RoleRevoked} event. Requirements: - the caller must be `account`. May emit a {RoleRevoked} event."
      },
      "resetLicense(address,uint256,uint256,uint8,uint256)": {
        "details": "Reset ECR721 token Requirements: - the caller must have the `MANAGER_ROLE`.",
        "params": {
          "licenseId": "licenseId",
          "licenseType": "owner address",
          "numberOfMonths": "number Of Months",
          "servicesIdsPool": "license servicesIdsPool"
        }
      },
      "revokeRole(bytes32,address)": {
        "details": "Revokes `role` from `account`. If `account` had been granted `role`, emits a {RoleRevoked} event. Requirements: - the caller must have ``role``'s admin role. May emit a {RoleRevoked} event."
      },
      "safeTransferFrom(address,address,uint256)": {
        "details": "See {IERC721-safeTransferFrom}."
      },
      "safeTransferFrom(address,address,uint256,bytes)": {
        "details": "See {IERC721-safeTransferFrom}."
      },
      "setApprovalForAll(address,bool)": {
        "details": "See {IERC721-setApprovalForAll}."
      },
      "supportsInterface(bytes4)": {
        "details": "Needed for inherit ECR721 token",
        "params": {
          "interfaceId": "nonce"
        },
        "returns": {
          "_0": "supportsInterface execution"
        }
      },
      "symbol()": {
        "details": "See {IERC721Metadata-symbol}."
      },
      "tokenByIndex(uint256)": {
        "details": "See {IERC721Enumerable-tokenByIndex}."
      },
      "tokenOfOwnerByIndex(address,uint256)": {
        "details": "See {IERC721Enumerable-tokenOfOwnerByIndex}."
      },
      "tokenURI(uint256)": {
        "details": "See {IERC721Metadata-tokenURI}."
      },
      "totalSupply()": {
        "details": "See {IERC721Enumerable-totalSupply}."
      },
      "transferFrom(address,address,uint256)": {
        "details": "See {IERC721-transferFrom}."
      },
      "updateLicense(address,uint256,uint256,uint256)": {
        "details": "Update existing ECR721 token Requirements: - the caller must have the `MANAGER_ROLE`. - the token Id must exist.",
        "params": {
          "addedMonths": "number Of Months",
          "licenseId": "license Id",
          "servicesIdsPool": "license servicesIdsPool"
        }
      }
    },
    "version": 1
  },
  "userdoc": {
    "events": {
      "LicenseActive(uint256)": {
        "notice": "event for license activation"
      },
      "LicenseUpdated(uint256)": {
        "notice": "event for license update"
      }
    },
    "kind": "user",
    "methods": {
      "LICENSE_MANAGER_ROLE()": {
        "notice": "CONSTANTS"
      },
      "activate(uint256)": {
        "notice": "Activate license"
      },
      "burn(uint256)": {
        "notice": "burn license owner can burn licence"
      },
      "createLicense(address,uint256,uint8,uint256)": {
        "notice": "Create license"
      },
      "getLicense(uint256)": {
        "notice": "get license"
      },
      "isLicenseActive(uint256)": {
        "notice": "check if license is activated"
      },
      "isUserAllowToUseService(address,uint256,uint256)": {
        "notice": "check if user can user a service form the license id"
      },
      "resetLicense(address,uint256,uint256,uint8,uint256)": {
        "notice": "Reset license"
      },
      "supportsInterface(bytes4)": {
        "notice": "supportsInterface function"
      },
      "updateLicense(address,uint256,uint256,uint256)": {
        "notice": "Update license"
      }
    },
    "version": 1
  }
}