{
  "contractName": "ManagementCenter",
  "abi": [
    {
      "inputs": [
        {
          "internalType": "address",
          "name": "LicenseLVCAddress",
          "type": "address"
        },
        {
          "internalType": "address",
          "name": "ServiceManagerAddress",
          "type": "address"
        },
        {
          "internalType": "address",
          "name": "BlockchainManagerAddress",
          "type": "address"
        }
      ],
      "stateMutability": "nonpayable",
      "type": "constructor"
    },
    {
      "anonymous": false,
      "inputs": [
        {
          "indexed": false,
          "internalType": "uint256",
          "name": "value",
          "type": "uint256"
        }
      ],
      "name": "ChangeEtherBalance",
      "type": "event"
    },
    {
      "anonymous": false,
      "inputs": [
        {
          "indexed": false,
          "internalType": "address",
          "name": "managerAddress",
          "type": "address"
        }
      ],
      "name": "ManagerOwnerUpdated",
      "type": "event"
    },
    {
      "anonymous": false,
      "inputs": [
        {
          "indexed": false,
          "internalType": "uint256",
          "name": "licenseId",
          "type": "uint256"
        }
      ],
      "name": "NewPrivateLicenseEmitted",
      "type": "event"
    },
    {
      "anonymous": false,
      "inputs": [
        {
          "indexed": true,
          "internalType": "address",
          "name": "previousOwner",
          "type": "address"
        },
        {
          "indexed": true,
          "internalType": "address",
          "name": "newOwner",
          "type": "address"
        }
      ],
      "name": "OwnershipTransferred",
      "type": "event"
    },
    {
      "anonymous": false,
      "inputs": [
        {
          "indexed": false,
          "internalType": "uint256",
          "name": "licenseId",
          "type": "uint256"
        }
      ],
      "name": "PrivateLicenseUpdated",
      "type": "event"
    },
    {
      "anonymous": false,
      "inputs": [
        {
          "indexed": false,
          "internalType": "address",
          "name": "contractAddress",
          "type": "address"
        }
      ],
      "name": "UsersContractCreated",
      "type": "event"
    },
    {
      "inputs": [],
      "name": "owner",
      "outputs": [
        {
          "internalType": "address",
          "name": "",
          "type": "address"
        }
      ],
      "stateMutability": "view",
      "type": "function",
      "constant": true
    },
    {
      "inputs": [],
      "name": "renounceOwnership",
      "outputs": [],
      "stateMutability": "nonpayable",
      "type": "function"
    },
    {
      "inputs": [
        {
          "internalType": "address",
          "name": "newOwner",
          "type": "address"
        }
      ],
      "name": "transferOwnership",
      "outputs": [],
      "stateMutability": "nonpayable",
      "type": "function"
    },
    {
      "inputs": [],
      "name": "getLicenseTokenAddress",
      "outputs": [
        {
          "internalType": "address",
          "name": "",
          "type": "address"
        }
      ],
      "stateMutability": "view",
      "type": "function",
      "constant": true
    },
    {
      "inputs": [],
      "name": "getServiceManagerAddress",
      "outputs": [
        {
          "internalType": "address",
          "name": "",
          "type": "address"
        }
      ],
      "stateMutability": "view",
      "type": "function",
      "constant": true
    },
    {
      "inputs": [
        {
          "internalType": "address",
          "name": "newManagerAddress",
          "type": "address"
        }
      ],
      "name": "transferManagement",
      "outputs": [],
      "stateMutability": "nonpayable",
      "type": "function"
    },
    {
      "inputs": [
        {
          "internalType": "address",
          "name": "userAddress",
          "type": "address"
        },
        {
          "internalType": "uint256",
          "name": "nonce",
          "type": "uint256"
        },
        {
          "internalType": "bytes",
          "name": "signature",
          "type": "bytes"
        }
      ],
      "name": "checkUser",
      "outputs": [
        {
          "internalType": "bool",
          "name": "",
          "type": "bool"
        }
      ],
      "stateMutability": "view",
      "type": "function",
      "constant": true
    },
    {
      "inputs": [
        {
          "internalType": "uint256",
          "name": "nonce",
          "type": "uint256"
        },
        {
          "internalType": "bytes",
          "name": "signature",
          "type": "bytes"
        }
      ],
      "name": "register",
      "outputs": [
        {
          "internalType": "address",
          "name": "",
          "type": "address"
        }
      ],
      "stateMutability": "nonpayable",
      "type": "function"
    },
    {
      "inputs": [
        {
          "internalType": "address",
          "name": "userAddress",
          "type": "address"
        }
      ],
      "name": "getUserContractAddress",
      "outputs": [
        {
          "internalType": "address",
          "name": "",
          "type": "address"
        }
      ],
      "stateMutability": "view",
      "type": "function",
      "constant": true
    },
    {
      "inputs": [],
      "name": "withdraw",
      "outputs": [],
      "stateMutability": "nonpayable",
      "type": "function"
    },
    {
      "inputs": [
        {
          "internalType": "uint256",
          "name": "numberOfMonths",
          "type": "uint256"
        },
        {
          "internalType": "uint256[]",
          "name": "serviceIds",
          "type": "uint256[]"
        }
      ],
      "name": "buyLicence",
      "outputs": [],
      "stateMutability": "payable",
      "type": "function",
      "payable": true
    },
    {
      "inputs": [
        {
          "internalType": "uint256",
          "name": "licenseId",
          "type": "uint256"
        },
        {
          "internalType": "uint256",
          "name": "numberOfMonths",
          "type": "uint256"
        },
        {
          "internalType": "uint256[]",
          "name": "serviceIds",
          "type": "uint256[]"
        }
      ],
      "name": "resetLicence",
      "outputs": [],
      "stateMutability": "payable",
      "type": "function",
      "payable": true
    },
    {
      "inputs": [
        {
          "internalType": "uint256",
          "name": "licenseId",
          "type": "uint256"
        },
        {
          "internalType": "uint256",
          "name": "extraNumberOfMonths",
          "type": "uint256"
        },
        {
          "internalType": "uint256[]",
          "name": "extraServiceIds",
          "type": "uint256[]"
        }
      ],
      "name": "updateLicence",
      "outputs": [],
      "stateMutability": "payable",
      "type": "function",
      "payable": true
    }
  ],
  "bytecode": "0x60a06040523480156200001157600080fd5b5060405162009253380380620092538339818101604052810190620000379190620002c6565b620000576200004b620001d560201b60201c565b620001dd60201b60201c565b6040516200006590620002a1565b604051809103906000f08015801562000082573d6000803e3d6000fd5b5073ffffffffffffffffffffffffffffffffffffffff1660808173ffffffffffffffffffffffffffffffffffffffff1660601b8152505082600360006101000a81548173ffffffffffffffffffffffffffffffffffffffff021916908373ffffffffffffffffffffffffffffffffffffffff16021790555081600460006101000a81548173ffffffffffffffffffffffffffffffffffffffff021916908373ffffffffffffffffffffffffffffffffffffffff16021790555080600560006101000a81548173ffffffffffffffffffffffffffffffffffffffff021916908373ffffffffffffffffffffffffffffffffffffffff1602179055506200018c620001d560201b60201c565b600260006101000a81548173ffffffffffffffffffffffffffffffffffffffff021916908373ffffffffffffffffffffffffffffffffffffffff16021790555050505062000375565b600033905090565b60008060009054906101000a900473ffffffffffffffffffffffffffffffffffffffff169050816000806101000a81548173ffffffffffffffffffffffffffffffffffffffff021916908373ffffffffffffffffffffffffffffffffffffffff1602179055508173ffffffffffffffffffffffffffffffffffffffff168173ffffffffffffffffffffffffffffffffffffffff167f8be0079c531659141344cd1fd0a4f28419497f9722a3daafe3b4186f6b6457e060405160405180910390a35050565b615cb080620035a383390190565b600081519050620002c0816200035b565b92915050565b600080600060608486031215620002e257620002e162000356565b5b6000620002f286828701620002af565b93505060206200030586828701620002af565b92505060406200031886828701620002af565b9150509250925092565b60006200032f8262000336565b9050919050565b600073ffffffffffffffffffffffffffffffffffffffff82169050919050565b600080fd5b620003668162000322565b81146200037257600080fd5b50565b60805160601c61320f620003946000396000610890015261320f6000f3fe6080604052600436106100c25760003560e01c8063a6e497b61161007f578063c60598a411610059578063c60598a41461023a578063d106402714610256578063e4edf85214610281578063f2fde38b146102aa576100c2565b8063a6e497b6146101b6578063b738fa26146101f3578063be340cbb1461021e576100c2565b80632e528a63146100c75780633ccfd60b14610104578063715018a61461011b578063765718d7146101325780637ec6f9721461016f5780638da5cb5b1461018b575b600080fd5b3480156100d357600080fd5b506100ee60048036038101906100e99190612027565b6102d3565b6040516100fb919061283f565b60405180910390f35b34801561011057600080fd5b5061011961056f565b005b34801561012757600080fd5b50610130610647565b005b34801561013e57600080fd5b5061015960048036038101906101549190612179565b61065b565b6040516101669190612644565b60405180910390f35b610189600480360381019061018491906121d5565b610ae4565b005b34801561019757600080fd5b506101a0610efb565b6040516101ad9190612644565b60405180910390f35b3480156101c257600080fd5b506101dd60048036038101906101d89190611ffa565b610f24565b6040516101ea9190612644565b60405180910390f35b3480156101ff57600080fd5b50610208610f8d565b6040516102159190612644565b60405180910390f35b610238600480360381019061023391906121d5565b610fb7565b005b610254600480360381019061024f919061211d565b61164b565b005b34801561026257600080fd5b5061026b611a84565b6040516102789190612644565b60405180910390f35b34801561028d57600080fd5b506102a860048036038101906102a39190611ffa565b611aae565b005b3480156102b657600080fd5b506102d160048036038101906102cc9190611ffa565b611b31565b005b6000600260009054906101000a900473ffffffffffffffffffffffffffffffffffffffff1673ffffffffffffffffffffffffffffffffffffffff16610316611bb5565b73ffffffffffffffffffffffffffffffffffffffff1614806103cb5750600073ffffffffffffffffffffffffffffffffffffffff1660016000610357611bb5565b73ffffffffffffffffffffffffffffffffffffffff1673ffffffffffffffffffffffffffffffffffffffff16815260200190815260200160002060009054906101000a900473ffffffffffffffffffffffffffffffffffffffff1673ffffffffffffffffffffffffffffffffffffffff1614155b61040a576040517f08c379a000000000000000000000000000000000000000000000000000000000815260040161040190612a48565b60405180910390fd5b600073ffffffffffffffffffffffffffffffffffffffff16600160008673ffffffffffffffffffffffffffffffffffffffff1673ffffffffffffffffffffffffffffffffffffffff16815260200190815260200160002060009054906101000a900473ffffffffffffffffffffffffffffffffffffffff1673ffffffffffffffffffffffffffffffffffffffff1614156104d9576040517f08c379a00000000000000000000000000000000000000000000000000000000081526004016104d090612a68565b60405180910390fd5b73__VerifySignature_______________________633017533f853086866040518563ffffffff1660e01b815260040161051694939291906126b2565b60206040518083038186803b15801561052e57600080fd5b505af4158015610542573d6000803e3d6000fd5b505050506040513d601f19601f820116820180604052508101906105669190612096565b90509392505050565b610577611bbd565b6000479050600081116105bf576040517f08c379a00000000000000000000000000000000000000000000000000000000081526004016105b6906129e8565b60405180910390fd5b6105c7610efb565b73ffffffffffffffffffffffffffffffffffffffff166108fc829081150290604051600060405180830381858888f1935050505015801561060c573d6000803e3d6000fd5b507fc18de0b20be63ae63af9d6976f6922250e9c8326892ac350f3be1f7b6e8654f18160405161063c9190612a88565b60405180910390a150565b61064f611bbd565b6106596000611c3b565b565b6000610665610efb565b73ffffffffffffffffffffffffffffffffffffffff16610683611bb5565b73ffffffffffffffffffffffffffffffffffffffff1614156106da576040517f08c379a00000000000000000000000000000000000000000000000000000000081526004016106d190612a48565b60405180910390fd5b600073ffffffffffffffffffffffffffffffffffffffff16600160006106fe611bb5565b73ffffffffffffffffffffffffffffffffffffffff1673ffffffffffffffffffffffffffffffffffffffff16815260200190815260200160002060009054906101000a900473ffffffffffffffffffffffffffffffffffffffff1673ffffffffffffffffffffffffffffffffffffffff16146107af576040517f08c379a00000000000000000000000000000000000000000000000000000000081526004016107a6906129c8565b60405180910390fd5b6001151573__VerifySignature_______________________633017533f6107d5611bb5565b3087876040518563ffffffff1660e01b81526004016107f7949392919061270a565b60206040518083038186803b15801561080f57600080fd5b505af4158015610823573d6000803e3d6000fd5b505050506040513d601f19601f820116820180604052508101906108479190612096565b151514610889576040517f08c379a0000000000000000000000000000000000000000000000000000000008152600401610880906128c8565b60405180910390fd5b60006108b47f0000000000000000000000000000000000000000000000000000000000000000611cff565b90508073ffffffffffffffffffffffffffffffffffffffff16631459457a600260009054906101000a900473ffffffffffffffffffffffffffffffffffffffff166108fd611bb5565b600460009054906101000a900473ffffffffffffffffffffffffffffffffffffffff16600360009054906101000a900473ffffffffffffffffffffffffffffffffffffffff16600560009054906101000a900473ffffffffffffffffffffffffffffffffffffffff166040518663ffffffff1660e01b815260040161098695949392919061265f565b600060405180830381600087803b1580156109a057600080fd5b505af11580156109b4573d6000803e3d6000fd5b5050505080600160006109c5611bb5565b73ffffffffffffffffffffffffffffffffffffffff1673ffffffffffffffffffffffffffffffffffffffff16815260200190815260200160002060006101000a81548173ffffffffffffffffffffffffffffffffffffffff021916908373ffffffffffffffffffffffffffffffffffffffff1602179055507f54196f28fffc9d8a5c4442b3e5e33c92dd63d3213a2805229cad9f4f4ad85a1060016000610a6a611bb5565b73ffffffffffffffffffffffffffffffffffffffff1673ffffffffffffffffffffffffffffffffffffffff16815260200190815260200160002060009054906101000a900473ffffffffffffffffffffffffffffffffffffffff16604051610ad29190612644565b60405180910390a18091505092915050565b600073ffffffffffffffffffffffffffffffffffffffff1660016000610b08611bb5565b73ffffffffffffffffffffffffffffffffffffffff1673ffffffffffffffffffffffffffffffffffffffff16815260200190815260200160002060009054906101000a900473ffffffffffffffffffffffffffffffffffffffff1673ffffffffffffffffffffffffffffffffffffffff161415610bba576040517f08c379a0000000000000000000000000000000000000000000000000000000008152600401610bb190612968565b60405180910390fd5b600082118015610bcb575060008151115b610c0a576040517f08c379a0000000000000000000000000000000000000000000000000000000008152600401610c0190612a28565b60405180910390fd5b60003411610c4d576040517f08c379a0000000000000000000000000000000000000000000000000000000008152600401610c44906129a8565b60405180910390fd5b6000600460009054906101000a900473ffffffffffffffffffffffffffffffffffffffff1673ffffffffffffffffffffffffffffffffffffffff16634141a1276000846040518363ffffffff1660e01b8152600401610cad92919061285a565b60206040518083038186803b158015610cc557600080fd5b505afa158015610cd9573d6000803e3d6000fd5b505050506040513d601f19601f82011682018060405250810190610cfd91906120f0565b83610d089190612c91565b905060008111610d4d576040517f08c379a0000000000000000000000000000000000000000000000000000000008152600401610d4490612a28565b60405180910390fd5b600073__LicenseTools__________________________6395a5148260006001866040518463ffffffff1660e01b8152600401610d8c9392919061288a565b60206040518083038186803b158015610da457600080fd5b505af4158015610db8573d6000803e3d6000fd5b505050506040513d601f19601f82011682018060405250810190610ddc91906120f0565b9050813414610e20576040517f08c379a0000000000000000000000000000000000000000000000000000000008152600401610e17906128e8565b60405180910390fd5b600360009054906101000a900473ffffffffffffffffffffffffffffffffffffffff1673ffffffffffffffffffffffffffffffffffffffff166320d966ca610e66611bb5565b87846001896040518663ffffffff1660e01b8152600401610e8b9594939291906127a7565b600060405180830381600087803b158015610ea557600080fd5b505af1158015610eb9573d6000803e3d6000fd5b505050507faba64501a2b303b80e2e844af96c89be94891208d1f683030c532fa613db883a85604051610eec9190612a88565b60405180910390a15050505050565b60008060009054906101000a900473ffffffffffffffffffffffffffffffffffffffff16905090565b6000600160008373ffffffffffffffffffffffffffffffffffffffff1673ffffffffffffffffffffffffffffffffffffffff16815260200190815260200160002060009054906101000a900473ffffffffffffffffffffffffffffffffffffffff169050919050565b6000600360009054906101000a900473ffffffffffffffffffffffffffffffffffffffff16905090565b600073ffffffffffffffffffffffffffffffffffffffff1660016000610fdb611bb5565b73ffffffffffffffffffffffffffffffffffffffff1673ffffffffffffffffffffffffffffffffffffffff16815260200190815260200160002060009054906101000a900473ffffffffffffffffffffffffffffffffffffffff1673ffffffffffffffffffffffffffffffffffffffff16141561108d576040517f08c379a000000000000000000000000000000000000000000000000000000000815260040161108490612968565b60405180910390fd5b600082118061109d575060008151115b6110dc576040517f08c379a00000000000000000000000000000000000000000000000000000000081526004016110d390612a28565b60405180910390fd5b6000600360009054906101000a900473ffffffffffffffffffffffffffffffffffffffff1673ffffffffffffffffffffffffffffffffffffffff1663b2dd1212856040518263ffffffff1660e01b81526004016111399190612a88565b60e06040518083038186803b15801561115157600080fd5b505afa158015611165573d6000803e3d6000fd5b505050506040513d601f19601f8201168201806040525081019061118991906120c3565b90506000600181111561119f5761119e612e6f565b5b8160a0015160018111156111b6576111b5612e6f565b5b14806111f857504281602001511180156111f757506001808111156111de576111dd612e6f565b5b8160a0015160018111156111f5576111f4612e6f565b5b145b5b611237576040517f08c379a000000000000000000000000000000000000000000000000000000000815260040161122e90612948565b60405180910390fd5b6000600460009054906101000a900473ffffffffffffffffffffffffffffffffffffffff1673ffffffffffffffffffffffffffffffffffffffff16634141a1278360600151856040518363ffffffff1660e01b815260040161129a929190612aa3565b60206040518083038186803b1580156112b257600080fd5b505afa1580156112c6573d6000803e3d6000fd5b505050506040513d601f19601f820116820180604052508101906112ea91906120f0565b9050600060018081111561130157611300612e6f565b5b8360a00151600181111561131857611317612e6f565b5b146113325782608001518261132d9190612c91565b61135c565b62278d004284602001516113469190612ceb565b836113519190612c91565b61135b9190612c60565b5b9050600073__LicenseTools__________________________6395a5148285606001516001886040518463ffffffff1660e01b81526004016113a093929190612ad3565b60206040518083038186803b1580156113b857600080fd5b505af41580156113cc573d6000803e3d6000fd5b505050506040513d601f19601f820116820180604052508101906113f091906120f0565b9050600086600460009054906101000a900473ffffffffffffffffffffffffffffffffffffffff1673ffffffffffffffffffffffffffffffffffffffff166359fdf051846040518263ffffffff1660e01b81526004016114509190612a88565b60206040518083038186803b15801561146857600080fd5b505afa15801561147c573d6000803e3d6000fd5b505050506040513d601f19601f820116820180604052508101906114a091906120f0565b6114aa9190612c91565b9050600081846114ba9190612c0a565b9050600081111561156f5780341015611508576040517f08c379a00000000000000000000000000000000000000000000000000000000081526004016114ff90612928565b60405180910390fd5b600160643483346115199190612ceb565b6115239190612c60565b61152d9190612c91565b111561156e576040517f08c379a0000000000000000000000000000000000000000000000000000000008152600401611565906129a8565b60405180910390fd5b5b600360009054906101000a900473ffffffffffffffffffffffffffffffffffffffff1673ffffffffffffffffffffffffffffffffffffffff1663b99a60856115b5611bb5565b8b868c6040518563ffffffff1660e01b81526004016115d794939291906127fa565b600060405180830381600087803b1580156115f157600080fd5b505af1158015611605573d6000803e3d6000fd5b505050507faba64501a2b303b80e2e844af96c89be94891208d1f683030c532fa613db883a896040516116389190612a88565b60405180910390a1505050505050505050565b600073ffffffffffffffffffffffffffffffffffffffff166001600061166f611bb5565b73ffffffffffffffffffffffffffffffffffffffff1673ffffffffffffffffffffffffffffffffffffffff16815260200190815260200160002060009054906101000a900473ffffffffffffffffffffffffffffffffffffffff1673ffffffffffffffffffffffffffffffffffffffff161415611721576040517f08c379a000000000000000000000000000000000000000000000000000000000815260040161171890612968565b60405180910390fd5b600082118015611732575060008151115b611771576040517f08c379a000000000000000000000000000000000000000000000000000000000815260040161176890612a28565b60405180910390fd5b600034116117b4576040517f08c379a00000000000000000000000000000000000000000000000000000000081526004016117ab906129a8565b60405180910390fd5b6000600460009054906101000a900473ffffffffffffffffffffffffffffffffffffffff1673ffffffffffffffffffffffffffffffffffffffff16634141a1276000846040518363ffffffff1660e01b815260040161181492919061285a565b60206040518083038186803b15801561182c57600080fd5b505afa158015611840573d6000803e3d6000fd5b505050506040513d601f19601f8201168201806040525081019061186491906120f0565b8361186f9190612c91565b9050600081116118b4576040517f08c379a00000000000000000000000000000000000000000000000000000000081526004016118ab90612a28565b60405180910390fd5b600073__LicenseTools__________________________6395a5148260006001866040518463ffffffff1660e01b81526004016118f39392919061288a565b60206040518083038186803b15801561190b57600080fd5b505af415801561191f573d6000803e3d6000fd5b505050506040513d601f19601f8201168201806040525081019061194391906120f0565b9050813414611987576040517f08c379a000000000000000000000000000000000000000000000000000000000815260040161197e906128e8565b60405180910390fd5b6000600360009054906101000a900473ffffffffffffffffffffffffffffffffffffffff1673ffffffffffffffffffffffffffffffffffffffff1663a35e3ba96119cf611bb5565b846001896040518563ffffffff1660e01b81526004016119f29493929190612762565b602060405180830381600087803b158015611a0c57600080fd5b505af1158015611a20573d6000803e3d6000fd5b505050506040513d601f19601f82011682018060405250810190611a4491906120f0565b90507f3f17690aaa8e64a55f09b9045321ebce04e0ebe24999ca21ba145448422689b081604051611a759190612a88565b60405180910390a15050505050565b6000600460009054906101000a900473ffffffffffffffffffffffffffffffffffffffff16905090565b611ab6611bbd565b80600260006101000a81548173ffffffffffffffffffffffffffffffffffffffff021916908373ffffffffffffffffffffffffffffffffffffffff1602179055507febf1e8ca4db969f5d5b40f27389a97a723368c3b40be2d341a9112229226a61f81604051611b269190612644565b60405180910390a150565b611b39611bbd565b600073ffffffffffffffffffffffffffffffffffffffff168173ffffffffffffffffffffffffffffffffffffffff161415611ba9576040517f08c379a0000000000000000000000000000000000000000000000000000000008152600401611ba090612908565b60405180910390fd5b611bb281611c3b565b50565b600033905090565b611bc5611bb5565b73ffffffffffffffffffffffffffffffffffffffff16611be3610efb565b73ffffffffffffffffffffffffffffffffffffffff1614611c39576040517f08c379a0000000000000000000000000000000000000000000000000000000008152600401611c3090612a08565b60405180910390fd5b565b60008060009054906101000a900473ffffffffffffffffffffffffffffffffffffffff169050816000806101000a81548173ffffffffffffffffffffffffffffffffffffffff021916908373ffffffffffffffffffffffffffffffffffffffff1602179055508173ffffffffffffffffffffffffffffffffffffffff168173ffffffffffffffffffffffffffffffffffffffff167f8be0079c531659141344cd1fd0a4f28419497f9722a3daafe3b4186f6b6457e060405160405180910390a35050565b6000763d602d80600a3d3981f3363d3d373d3d3d363d730000008260601b60e81c176000526e5af43d82803e903d91602b57fd5bf38260781b17602052603760096000f09050600073ffffffffffffffffffffffffffffffffffffffff168173ffffffffffffffffffffffffffffffffffffffff161415611db5576040517f08c379a0000000000000000000000000000000000000000000000000000000008152600401611dac90612988565b60405180910390fd5b919050565b6000611dcd611dc884612b36565b612b11565b90508083825260208201905082856020860282011115611df057611def612ed7565b5b60005b85811015611e205781611e068882611fd0565b845260208401935060208301925050600181019050611df3565b5050509392505050565b6000611e3d611e3884612b62565b612b11565b905082815260208101848484011115611e5957611e58612edc565b5b611e64848285612d9e565b509392505050565b600081359050611e7b81613174565b92915050565b600082601f830112611e9657611e95612ecd565b5b8135611ea6848260208601611dba565b91505092915050565b600081519050611ebe8161318b565b92915050565b600082601f830112611ed957611ed8612ecd565b5b8135611ee9848260208601611e2a565b91505092915050565b600081519050611f01816131a2565b92915050565b600081519050611f16816131b2565b92915050565b600060e08284031215611f3257611f31612ed2565b5b611f3c60e0612b11565b90506000611f4c84828501611fe5565b6000830152506020611f6084828501611fe5565b6020830152506040611f7484828501611fe5565b6040830152506060611f8884828501611fe5565b6060830152506080611f9c84828501611fe5565b60808301525060a0611fb084828501611ef2565b60a08301525060c0611fc484828501611f07565b60c08301525092915050565b600081359050611fdf816131c2565b92915050565b600081519050611ff4816131c2565b92915050565b6000602082840312156120105761200f612ee6565b5b600061201e84828501611e6c565b91505092915050565b6000806000606084860312156120405761203f612ee6565b5b600061204e86828701611e6c565b935050602061205f86828701611fd0565b925050604084013567ffffffffffffffff8111156120805761207f612ee1565b5b61208c86828701611ec4565b9150509250925092565b6000602082840312156120ac576120ab612ee6565b5b60006120ba84828501611eaf565b91505092915050565b600060e082840312156120d9576120d8612ee6565b5b60006120e784828501611f1c565b91505092915050565b60006020828403121561210657612105612ee6565b5b600061211484828501611fe5565b91505092915050565b6000806040838503121561213457612133612ee6565b5b600061214285828601611fd0565b925050602083013567ffffffffffffffff81111561216357612162612ee1565b5b61216f85828601611e81565b9150509250929050565b600080604083850312156121905761218f612ee6565b5b600061219e85828601611fd0565b925050602083013567ffffffffffffffff8111156121bf576121be612ee1565b5b6121cb85828601611ec4565b9150509250929050565b6000806000606084860312156121ee576121ed612ee6565b5b60006121fc86828701611fd0565b935050602061220d86828701611fd0565b925050604084013567ffffffffffffffff81111561222e5761222d612ee1565b5b61223a86828701611e81565b9150509250925092565b60006122508383612608565b60208301905092915050565b60006122688383612635565b60208301905092915050565b61227d81612d1f565b82525050565b61228c81612d1f565b82525050565b600061229d82612ba3565b6122a78185612bc6565b93506122b283612b93565b8060005b838110156122e35781516122ca8882612244565b97506122d583612bb9565b9250506001810190506122b6565b5085935050505092915050565b60006122fb82612ba3565b6123058185612bd7565b935061231083612b93565b8060005b83811015612341578151612328888261225c565b975061233383612bb9565b925050600181019050612314565b5085935050505092915050565b61235781612d31565b82525050565b61236681612d31565b82525050565b600061237782612bae565b6123818185612be8565b9350612391818560208601612dad565b61239a81612eeb565b840191505092915050565b6123ae81612d7a565b82525050565b6123bd81612d8c565b82525050565b6123cc81612d8c565b82525050565b60006123df600683612bf9565b91506123ea82612efc565b602082019050919050565b6000612402600683612bf9565b915061240d82612f25565b602082019050919050565b6000612425602683612bf9565b915061243082612f4e565b604082019050919050565b6000612448600683612bf9565b915061245382612f9d565b602082019050919050565b600061246b600683612bf9565b915061247682612fc6565b602082019050919050565b600061248e600783612bf9565b915061249982612fef565b602082019050919050565b60006124b1601683612bf9565b91506124bc82613018565b602082019050919050565b60006124d4600683612bf9565b91506124df82613041565b602082019050919050565b60006124f7600383612bf9565b91506125028261306a565b602082019050919050565b600061251a600683612bf9565b915061252582613093565b602082019050919050565b600061253d602083612bf9565b9150612548826130bc565b602082019050919050565b7f766572696669636174696f6e0000000000000000000000000000000000000000815250565b6000612586600583612bf9565b9150612591826130e5565b602082019050919050565b60006125a9600683612bf9565b91506125b48261310e565b602082019050919050565b7f7265676973746572000000000000000000000000000000000000000000000000815250565b60006125f2600583612bf9565b91506125fd82613137565b602082019050919050565b61261181612d70565b82525050565b61262081612d70565b82525050565b61262f81612d70565b82525050565b61263e81612d70565b82525050565b60006020820190506126596000830184612274565b92915050565b600060a0820190506126746000830188612274565b6126816020830187612274565b61268e6040830186612274565b61269b6060830185612274565b6126a86080830184612274565b9695505050505050565b600060a0820190506126c76000830187612283565b6126d46020830186612283565b6126e16040830185612626565b6126ed60608301612553565b81810360808301526126ff818461236c565b905095945050505050565b600060a08201905061271f6000830187612283565b61272c6020830186612283565b6127396040830185612626565b612745606083016125bf565b8181036080830152612757818461236c565b905095945050505050565b60006080820190506127776000830187612274565b6127846020830186612617565b61279160408301856123a5565b61279e6060830184612617565b95945050505050565b600060a0820190506127bc6000830188612274565b6127c96020830187612617565b6127d66040830186612617565b6127e360608301856123a5565b6127f06080830184612617565b9695505050505050565b600060808201905061280f6000830187612274565b61281c6020830186612617565b6128296040830185612617565b6128366060830184612617565b95945050505050565b6000602082019050612854600083018461234e565b92915050565b600060408201905061286f60008301856123b4565b81810360208301526128818184612292565b90509392505050565b600060608201905061289f60008301866123c3565b6128ac602083018561235d565b81810360408301526128be81846122f0565b9050949350505050565b600060208201905081810360008301526128e1816123d2565b9050919050565b60006020820190508181036000830152612901816123f5565b9050919050565b6000602082019050818103600083015261292181612418565b9050919050565b600060208201905081810360008301526129418161243b565b9050919050565b600060208201905081810360008301526129618161245e565b9050919050565b6000602082019050818103600083015261298181612481565b9050919050565b600060208201905081810360008301526129a1816124a4565b9050919050565b600060208201905081810360008301526129c1816124c7565b9050919050565b600060208201905081810360008301526129e1816124ea565b9050919050565b60006020820190508181036000830152612a018161250d565b9050919050565b60006020820190508181036000830152612a2181612530565b9050919050565b60006020820190508181036000830152612a4181612579565b9050919050565b60006020820190508181036000830152612a618161259c565b9050919050565b60006020820190508181036000830152612a81816125e5565b9050919050565b6000602082019050612a9d6000830184612617565b92915050565b6000604082019050612ab86000830185612617565b8181036020830152612aca8184612292565b90509392505050565b6000606082019050612ae86000830186612626565b612af5602083018561235d565b8181036040830152612b0781846122f0565b9050949350505050565b6000612b1b612b2c565b9050612b278282612de0565b919050565b6000604051905090565b600067ffffffffffffffff821115612b5157612b50612e9e565b5b602082029050602081019050919050565b600067ffffffffffffffff821115612b7d57612b7c612e9e565b5b612b8682612eeb565b9050602081019050919050565b6000819050602082019050919050565b600081519050919050565b600081519050919050565b6000602082019050919050565b600082825260208201905092915050565b600082825260208201905092915050565b600082825260208201905092915050565b600082825260208201905092915050565b6000612c1582612d70565b9150612c2083612d70565b9250827fffffffffffffffffffffffffffffffffffffffffffffffffffffffffffffffff03821115612c5557612c54612e11565b5b828201905092915050565b6000612c6b82612d70565b9150612c7683612d70565b925082612c8657612c85612e40565b5b828204905092915050565b6000612c9c82612d70565b9150612ca783612d70565b9250817fffffffffffffffffffffffffffffffffffffffffffffffffffffffffffffffff0483118215151615612ce057612cdf612e11565b5b828202905092915050565b6000612cf682612d70565b9150612d0183612d70565b925082821015612d1457612d13612e11565b5b828203905092915050565b6000612d2a82612d50565b9050919050565b60008115159050919050565b6000819050612d4b82613160565b919050565b600073ffffffffffffffffffffffffffffffffffffffff82169050919050565b6000819050919050565b6000612d8582612d3d565b9050919050565b6000612d9782612d70565b9050919050565b82818337600083830152505050565b60005b83811015612dcb578082015181840152602081019050612db0565b83811115612dda576000848401525b50505050565b612de982612eeb565b810181811067ffffffffffffffff82111715612e0857612e07612e9e565b5b80604052505050565b7f4e487b7100000000000000000000000000000000000000000000000000000000600052601160045260246000fd5b7f4e487b7100000000000000000000000000000000000000000000000000000000600052601260045260246000fd5b7f4e487b7100000000000000000000000000000000000000000000000000000000600052602160045260246000fd5b7f4e487b7100000000000000000000000000000000000000000000000000000000600052604160045260246000fd5b600080fd5b600080fd5b600080fd5b600080fd5b600080fd5b600080fd5b6000601f19601f8301169050919050565b7f4552525349470000000000000000000000000000000000000000000000000000600082015250565b7f455252494e560000000000000000000000000000000000000000000000000000600082015250565b7f4f776e61626c653a206e6577206f776e657220697320746865207a65726f206160008201527f6464726573730000000000000000000000000000000000000000000000000000602082015250565b7f45525256414c0000000000000000000000000000000000000000000000000000600082015250565b7f4c49434558500000000000000000000000000000000000000000000000000000600082015250565b7f4e4f54464e445500000000000000000000000000000000000000000000000000600082015250565b7f455243313136373a20637265617465206661696c656400000000000000000000600082015250565b7f45525242414c0000000000000000000000000000000000000000000000000000600082015250565b7f464e440000000000000000000000000000000000000000000000000000000000600082015250565b7f45525246554e0000000000000000000000000000000000000000000000000000600082015250565b7f4f776e61626c653a2063616c6c6572206973206e6f7420746865206f776e6572600082015250565b7f455252494e000000000000000000000000000000000000000000000000000000600082015250565b7f554e415554480000000000000000000000000000000000000000000000000000600082015250565b7f554e464e44000000000000000000000000000000000000000000000000000000600082015250565b6002811061317157613170612e6f565b5b50565b61317d81612d1f565b811461318857600080fd5b50565b61319481612d31565b811461319f57600080fd5b50565b600281106131af57600080fd5b50565b600281106131bf57600080fd5b50565b6131cb81612d70565b81146131d657600080fd5b5056fea264697066735822122061aa6550669b4c1733b446fb9455c7c715f002749e8be8ea693a65a914396ded64736f6c6343000807003360806040526001600d60016101000a81548160ff02191690831515021790555034801561002b57600080fd5b50615c758061003b6000396000f3fe608060405234801561001057600080fd5b50600436106101005760003560e01c806391d1485411610097578063d547741f11610066578063d547741f146102ab578063e4edf852146102c7578063ea1a83b6146102e3578063fb95f29b1461031357610100565b806391d1485414610223578063938cab56146102535780639dd0725414610271578063a217fddf1461028d57610100565b806336568abe116100d357806336568abe1461019d578063524236ce146101b957806359d531c4146101e957806387c255e31461020557610100565b806301ffc9a7146101055780631459457a14610135578063248a9ca3146101515780632f2ff15d14610181575b600080fd5b61011f600480360381019061011a91906119cb565b610343565b60405161012c9190611d95565b60405180910390f35b61014f600480360381019061014a9190611889565b6103bd565b005b61016b6004803603810190610166919061195e565b610712565b6040516101789190611db0565b60405180910390f35b61019b6004803603810190610196919061198b565b610731565b005b6101b760048036038101906101b2919061198b565b610752565b005b6101d360048036038101906101ce91906119f8565b6107d5565b6040516101e09190611d95565b60405180910390f35b61020360048036038101906101fe91906119f8565b6108b8565b005b61020d610981565b60405161021a9190611eed565b60405180910390f35b61023d6004803603810190610238919061198b565b6109da565b60405161024a9190611d95565b60405180910390f35b61025b610a44565b6040516102689190611d73565b60405180910390f35b61028b60048036038101906102869190611904565b610aa4565b005b610295610b31565b6040516102a29190611db0565b60405180910390f35b6102c560048036038101906102c0919061198b565b610b38565b005b6102e160048036038101906102dc919061185c565b610b59565b005b6102fd60048036038101906102f891906119f8565b610c34565b60405161030a9190611cf7565b60405180910390f35b61032d600480360381019061032891906119f8565b61106c565b60405161033a9190611cf7565b60405180910390f35b60007f7965db0b000000000000000000000000000000000000000000000000000000007bffffffffffffffffffffffffffffffffffffffffffffffffffffffff1916827bffffffffffffffffffffffffffffffffffffffffffffffffffffffff191614806103b657506103b5826110a9565b5b9050919050565b600d60009054906101000a900460ff161561040d576040517f08c379a000000000000000000000000000000000000000000000000000000000815260040161040490611e8d565b60405180910390fd5b84600260006101000a81548173ffffffffffffffffffffffffffffffffffffffff021916908373ffffffffffffffffffffffffffffffffffffffff16021790555083600160006101000a81548173ffffffffffffffffffffffffffffffffffffffff021916908373ffffffffffffffffffffffffffffffffffffffff1602179055506104db7fb19546dff01e856fb3f010c267a7b1c60363cf8a4664e21cc89c26224620214e600160009054906101000a900473ffffffffffffffffffffffffffffffffffffffff16611113565b6105277f241ecf16d79d0f8dbfb92cbc07fe17840425976cf0667f022fe9877caa831b08600260009054906101000a900473ffffffffffffffffffffffffffffffffffffffff16611113565b82600760006101000a81548173ffffffffffffffffffffffffffffffffffffffff021916908373ffffffffffffffffffffffffffffffffffffffff16021790555081600860006101000a81548173ffffffffffffffffffffffffffffffffffffffff021916908373ffffffffffffffffffffffffffffffffffffffff16021790555080600960006101000a81548173ffffffffffffffffffffffffffffffffffffffff021916908373ffffffffffffffffffffffffffffffffffffffff16021790555081600a60006101000a81548173ffffffffffffffffffffffffffffffffffffffff021916908373ffffffffffffffffffffffffffffffffffffffff16021790555080600b60006101000a81548173ffffffffffffffffffffffffffffffffffffffff021916908373ffffffffffffffffffffffffffffffffffffffff160217905550604051610678906117d1565b604051809103906000f080158015610694573d6000803e3d6000fd5b50600660006101000a81548173ffffffffffffffffffffffffffffffffffffffff021916908373ffffffffffffffffffffffffffffffffffffffff1602179055506001600d60006101000a81548160ff0219169083151502179055506001600d60016101000a81548160ff0219169083151502179055505050505050565b6000806000838152602001908152602001600020600101549050919050565b61073a82610712565b61074381611121565b61074d8383611135565b505050565b61075a611215565b73ffffffffffffffffffffffffffffffffffffffff168173ffffffffffffffffffffffffffffffffffffffff16146107c7576040517f08c379a00000000000000000000000000000000000000000000000000000000081526004016107be90611ecd565b60405180910390fd5b6107d1828261121d565b5050565b6000600d60019054906101000a900460ff16610826576040517f08c379a000000000000000000000000000000000000000000000000000000000815260040161081d90611e6d565b60405180910390fd5b73__LicenseTools__________________________63995e9228600c54846040518363ffffffff1660e01b8152600401610861929190611f08565b60206040518083038186803b15801561087957600080fd5b505af415801561088d573d6000803e3d6000fd5b505050506040513d601f19601f820116820180604052508101906108b19190611931565b9050919050565b600d60019054906101000a900460ff16610907576040517f08c379a00000000000000000000000000000000000000000000000000000000081526004016108fe90611e6d565b60405180910390fd5b6109387fb19546dff01e856fb3f010c267a7b1c60363cf8a4664e21cc89c26224620214e610933611215565b6109da565b610977576040517f08c379a000000000000000000000000000000000000000000000000000000000815260040161096e90611ead565b60405180910390fd5b80600c8190555050565b6000600d60019054906101000a900460ff166109d2576040517f08c379a00000000000000000000000000000000000000000000000000000000081526004016109c990611e6d565b60405180910390fd5b600c54905090565b600080600084815260200190815260200160002060000160008373ffffffffffffffffffffffffffffffffffffffff1673ffffffffffffffffffffffffffffffffffffffff16815260200190815260200160002060009054906101000a900460ff16905092915050565b6060600d60019054906101000a900460ff16610a95576040517f08c379a0000000000000000000000000000000000000000000000000000000008152600401610a8c90611e6d565b60405180910390fd5b610a9f60046112fe565b905090565b610ad57f241ecf16d79d0f8dbfb92cbc07fe17840425976cf0667f022fe9877caa831b08610ad0611215565b6109da565b610b14576040517f08c379a0000000000000000000000000000000000000000000000000000000008152600401610b0b90611ead565b60405180910390fd5b80600d60016101000a81548160ff02191690831515021790555050565b6000801b81565b610b4182610712565b610b4a81611121565b610b54838361121d565b505050565b610b61611215565b73ffffffffffffffffffffffffffffffffffffffff16600260009054906101000a900473ffffffffffffffffffffffffffffffffffffffff1673ffffffffffffffffffffffffffffffffffffffff1614610bf0576040517f08c379a0000000000000000000000000000000000000000000000000000000008152600401610be790611ead565b60405180910390fd5b80600260006101000a81548173ffffffffffffffffffffffffffffffffffffffff021916908373ffffffffffffffffffffffffffffffffffffffff16021790555050565b6000600d60019054906101000a900460ff16610c85576040517f08c379a0000000000000000000000000000000000000000000000000000000008152600401610c7c90611e6d565b60405180910390fd5b610cb67fb19546dff01e856fb3f010c267a7b1c60363cf8a4664e21cc89c26224620214e610cb1611215565b6109da565b610cf5576040517f08c379a0000000000000000000000000000000000000000000000000000000008152600401610cec90611ead565b60405180910390fd5b600b60009054906101000a900473ffffffffffffffffffffffffffffffffffffffff1673ffffffffffffffffffffffffffffffffffffffff1663880e6517836040518263ffffffff1660e01b8152600401610d509190611eed565b60206040518083038186803b158015610d6857600080fd5b505afa158015610d7c573d6000803e3d6000fd5b505050506040513d601f19601f82011682018060405250810190610da09190611931565b610ddf576040517f08c379a0000000000000000000000000000000000000000000000000000000008152600401610dd690611e0d565b60405180910390fd5b600073ffffffffffffffffffffffffffffffffffffffff166003600084815260200190815260200160002060009054906101000a900473ffffffffffffffffffffffffffffffffffffffff1673ffffffffffffffffffffffffffffffffffffffff1614610e81576040517f08c379a0000000000000000000000000000000000000000000000000000000008152600401610e7890611e4d565b60405180910390fd5b6000610eae600660009054906101000a900473ffffffffffffffffffffffffffffffffffffffff1661131f565b90508073ffffffffffffffffffffffffffffffffffffffff166395b6ef0c30600260009054906101000a900473ffffffffffffffffffffffffffffffffffffffff16610ef8611215565b600760009054906101000a900473ffffffffffffffffffffffffffffffffffffffff16600860009054906101000a900473ffffffffffffffffffffffffffffffffffffffff16896040518763ffffffff1660e01b8152600401610f6096959493929190611d12565b600060405180830381600087803b158015610f7a57600080fd5b505af1158015610f8e573d6000803e3d6000fd5b50505050806003600085815260200190815260200160002060006101000a81548173ffffffffffffffffffffffffffffffffffffffff021916908373ffffffffffffffffffffffffffffffffffffffff160217905550610ff88360046113da90919063ffffffff16565b507fb64e1cafe0dc1585a2368725516d63a879161435fdca44c704a5d975a8b34fb16003600085815260200190815260200160002060009054906101000a900473ffffffffffffffffffffffffffffffffffffffff1660405161105b9190611cf7565b60405180910390a180915050919050565b60006003600083815260200190815260200160002060009054906101000a900473ffffffffffffffffffffffffffffffffffffffff169050919050565b60007f01ffc9a7000000000000000000000000000000000000000000000000000000007bffffffffffffffffffffffffffffffffffffffffffffffffffffffff1916827bffffffffffffffffffffffffffffffffffffffffffffffffffffffff1916149050919050565b61111d8282611135565b5050565b6111328161112d611215565b6113f4565b50565b61113f82826109da565b61121157600160008084815260200190815260200160002060000160008373ffffffffffffffffffffffffffffffffffffffff1673ffffffffffffffffffffffffffffffffffffffff16815260200190815260200160002060006101000a81548160ff0219169083151502179055506111b6611215565b73ffffffffffffffffffffffffffffffffffffffff168173ffffffffffffffffffffffffffffffffffffffff16837f2f8788117e7eff1d82e926ec794901d17c78024a50270940304540a733656f0d60405160405180910390a45b5050565b600033905090565b61122782826109da565b156112fa57600080600084815260200190815260200160002060000160008373ffffffffffffffffffffffffffffffffffffffff1673ffffffffffffffffffffffffffffffffffffffff16815260200190815260200160002060006101000a81548160ff02191690831515021790555061129f611215565b73ffffffffffffffffffffffffffffffffffffffff168173ffffffffffffffffffffffffffffffffffffffff16837ff6391f5c32d9c69d2a47ea670b442974b53935d1edc7fd64eb21e047a839171b60405160405180910390a45b5050565b6060600061130e83600001611479565b905060608190508092505050919050565b6000763d602d80600a3d3981f3363d3d373d3d3d363d730000008260601b60e81c176000526e5af43d82803e903d91602b57fd5bf38260781b17602052603760096000f09050600073ffffffffffffffffffffffffffffffffffffffff168173ffffffffffffffffffffffffffffffffffffffff1614156113d5576040517f08c379a00000000000000000000000000000000000000000000000000000000081526004016113cc90611e2d565b60405180910390fd5b919050565b60006113ec836000018360001b6114d5565b905092915050565b6113fe82826109da565b6114755761140b81611545565b6114198360001c6020611572565b60405160200161142a929190611cbd565b6040516020818303038152906040526040517f08c379a000000000000000000000000000000000000000000000000000000000815260040161146c9190611dcb565b60405180910390fd5b5050565b6060816000018054806020026020016040519081016040528092919081815260200182805480156114c957602002820191906000526020600020905b8154815260200190600101908083116114b5575b50505050509050919050565b60006114e183836117ae565b61153a57826000018290806001815401808255809150506001900390600052602060002001600090919091909150558260000180549050836001016000848152602001908152602001600020819055506001905061153f565b600090505b92915050565b606061156b8273ffffffffffffffffffffffffffffffffffffffff16601460ff16611572565b9050919050565b6060600060028360026115859190611fe7565b61158f9190611f91565b67ffffffffffffffff8111156115a8576115a761217a565b5b6040519080825280601f01601f1916602001820160405280156115da5781602001600182028036833780820191505090505b5090507f3000000000000000000000000000000000000000000000000000000000000000816000815181106116125761161161214b565b5b60200101907effffffffffffffffffffffffffffffffffffffffffffffffffffffffffffff1916908160001a9053507f7800000000000000000000000000000000000000000000000000000000000000816001815181106116765761167561214b565b5b60200101907effffffffffffffffffffffffffffffffffffffffffffffffffffffffffffff1916908160001a905350600060018460026116b69190611fe7565b6116c09190611f91565b90505b6001811115611760577f3031323334353637383961626364656600000000000000000000000000000000600f8616601081106117025761170161214b565b5b1a60f81b8282815181106117195761171861214b565b5b60200101907effffffffffffffffffffffffffffffffffffffffffffffffffffffffffffff1916908160001a905350600485901c945080611759906120f2565b90506116c3565b50600084146117a4576040517f08c379a000000000000000000000000000000000000000000000000000000000815260040161179b90611ded565b60405180910390fd5b8091505092915050565b600080836001016000848152602001908152602001600020541415905092915050565b6138278061241983390190565b6000813590506117ed816123a5565b92915050565b600081359050611802816123bc565b92915050565b600081519050611817816123bc565b92915050565b60008135905061182c816123d3565b92915050565b600081359050611841816123ea565b92915050565b60008135905061185681612401565b92915050565b600060208284031215611872576118716121a9565b5b6000611880848285016117de565b91505092915050565b600080600080600060a086880312156118a5576118a46121a9565b5b60006118b3888289016117de565b95505060206118c4888289016117de565b94505060406118d5888289016117de565b93505060606118e6888289016117de565b92505060806118f7888289016117de565b9150509295509295909350565b60006020828403121561191a576119196121a9565b5b6000611928848285016117f3565b91505092915050565b600060208284031215611947576119466121a9565b5b600061195584828501611808565b91505092915050565b600060208284031215611974576119736121a9565b5b60006119828482850161181d565b91505092915050565b600080604083850312156119a2576119a16121a9565b5b60006119b08582860161181d565b92505060206119c1858286016117de565b9150509250929050565b6000602082840312156119e1576119e06121a9565b5b60006119ef84828501611832565b91505092915050565b600060208284031215611a0e57611a0d6121a9565b5b6000611a1c84828501611847565b91505092915050565b6000611a318383611c90565b60208301905092915050565b611a4681612041565b82525050565b6000611a5782611f41565b611a618185611f64565b9350611a6c83611f31565b8060005b83811015611a9d578151611a848882611a25565b9750611a8f83611f57565b925050600181019050611a70565b5085935050505092915050565b611ab381612053565b82525050565b611ac28161205f565b82525050565b6000611ad382611f4c565b611add8185611f75565b9350611aed8185602086016120bf565b611af6816121ae565b840191505092915050565b6000611b0c82611f4c565b611b168185611f86565b9350611b268185602086016120bf565b80840191505092915050565b6000611b3f602083611f75565b9150611b4a826121bf565b602082019050919050565b6000611b62600683611f75565b9150611b6d826121e8565b602082019050919050565b6000611b85601683611f75565b9150611b9082612211565b602082019050919050565b6000611ba8600383611f75565b9150611bb38261223a565b602082019050919050565b6000611bcb600683611f75565b9150611bd682612263565b602082019050919050565b6000611bee602e83611f75565b9150611bf98261228c565b604082019050919050565b6000611c11600683611f75565b9150611c1c826122db565b602082019050919050565b6000611c34601783611f86565b9150611c3f82612304565b601782019050919050565b6000611c57601183611f86565b9150611c628261232d565b601182019050919050565b6000611c7a602f83611f75565b9150611c8582612356565b604082019050919050565b611c99816120b5565b82525050565b611ca8816120b5565b82525050565b611cb7816120b5565b82525050565b6000611cc882611c27565b9150611cd48285611b01565b9150611cdf82611c4a565b9150611ceb8284611b01565b91508190509392505050565b6000602082019050611d0c6000830184611a3d565b92915050565b600060c082019050611d276000830189611a3d565b611d346020830188611a3d565b611d416040830187611a3d565b611d4e6060830186611a3d565b611d5b6080830185611a3d565b611d6860a0830184611c9f565b979650505050505050565b60006020820190508181036000830152611d8d8184611a4c565b905092915050565b6000602082019050611daa6000830184611aaa565b92915050565b6000602082019050611dc56000830184611ab9565b92915050565b60006020820190508181036000830152611de58184611ac8565b905092915050565b60006020820190508181036000830152611e0681611b32565b9050919050565b60006020820190508181036000830152611e2681611b55565b9050919050565b60006020820190508181036000830152611e4681611b78565b9050919050565b60006020820190508181036000830152611e6681611b9b565b9050919050565b60006020820190508181036000830152611e8681611bbe565b9050919050565b60006020820190508181036000830152611ea681611be1565b9050919050565b60006020820190508181036000830152611ec681611c04565b9050919050565b60006020820190508181036000830152611ee681611c6d565b9050919050565b6000602082019050611f026000830184611c9f565b92915050565b6000604082019050611f1d6000830185611cae565b611f2a6020830184611cae565b9392505050565b6000819050602082019050919050565b600081519050919050565b600081519050919050565b6000602082019050919050565b600082825260208201905092915050565b600082825260208201905092915050565b600081905092915050565b6000611f9c826120b5565b9150611fa7836120b5565b9250827fffffffffffffffffffffffffffffffffffffffffffffffffffffffffffffffff03821115611fdc57611fdb61211c565b5b828201905092915050565b6000611ff2826120b5565b9150611ffd836120b5565b9250817fffffffffffffffffffffffffffffffffffffffffffffffffffffffffffffffff04831182151516156120365761203561211c565b5b828202905092915050565b600061204c82612095565b9050919050565b60008115159050919050565b6000819050919050565b60007fffffffff0000000000000000000000000000000000000000000000000000000082169050919050565b600073ffffffffffffffffffffffffffffffffffffffff82169050919050565b6000819050919050565b60005b838110156120dd5780820151818401526020810190506120c2565b838111156120ec576000848401525b50505050565b60006120fd826120b5565b915060008214156121115761211061211c565b5b600182039050919050565b7f4e487b7100000000000000000000000000000000000000000000000000000000600052601160045260246000fd5b7f4e487b7100000000000000000000000000000000000000000000000000000000600052603260045260246000fd5b7f4e487b7100000000000000000000000000000000000000000000000000000000600052604160045260246000fd5b600080fd5b6000601f19601f8301169050919050565b7f537472696e67733a20686578206c656e67746820696e73756666696369656e74600082015250565b7f55464e44424b0000000000000000000000000000000000000000000000000000600082015250565b7f455243313136373a20637265617465206661696c656400000000000000000000600082015250565b7f464e440000000000000000000000000000000000000000000000000000000000600082015250565b7f494e414354560000000000000000000000000000000000000000000000000000600082015250565b7f436f6e747261637420696e7374616e63652068617320616c726561647920626560008201527f656e20696e697469616c697a6564000000000000000000000000000000000000602082015250565b7f554e415554480000000000000000000000000000000000000000000000000000600082015250565b7f416363657373436f6e74726f6c3a206163636f756e7420000000000000000000600082015250565b7f206973206d697373696e6720726f6c6520000000000000000000000000000000600082015250565b7f416363657373436f6e74726f6c3a2063616e206f6e6c792072656e6f756e636560008201527f20726f6c657320666f722073656c660000000000000000000000000000000000602082015250565b6123ae81612041565b81146123b957600080fd5b50565b6123c581612053565b81146123d057600080fd5b50565b6123dc8161205f565b81146123e757600080fd5b50565b6123f381612069565b81146123fe57600080fd5b50565b61240a816120b5565b811461241557600080fd5b5056fe60806040526001600f60156101000a81548160ff02191690831515021790555034801561002b57600080fd5b506137ec8061003b6000396000f3fe608060405234801561001057600080fd5b50600436106101585760003560e01c806391d14854116100c3578063dc6541251161007c578063dc654125146103d1578063e417c870146103ef578063e4edf8521461040b578063ebb0079614610427578063fc4bfce714610457578063fd0b1f1a1461047557610158565b806391d148541461031357806395b6ef0c146103435780639dd072541461035f578063a217fddf1461037b578063be08fd0814610399578063d547741f146103b557610158565b8063248a9ca311610115578063248a9ca3146102695780632f2ff15d1461029957806335f60daa146102b557806336568abe146102d157806340ad307f146102ed578063809852821461030957610158565b806301a3e29d1461015d57806301ffc9a71461017957806304766a7a146101a95780631101ed0a146101d957806314a24952146102095780631c6f8e6514610239575b600080fd5b610177600480360381019061017291906129e4565b610491565b005b610193600480360381019061018e9190612b9f565b6105a5565b6040516101a09190612fd2565b60405180910390f35b6101c360048036038101906101be91906127b1565b61061f565b6040516101d09190612fed565b60405180910390f35b6101f360048036038101906101ee919061286b565b610727565b6040516102009190612fd2565b60405180910390f35b610223600480360381019061021e9190612bcc565b6109b4565b6040516102309190612fb0565b60405180910390f35b610253600480360381019061024e9190612951565b610ac2565b6040516102609190613185565b60405180910390f35b610283600480360381019061027e9190612b32565b610bd0565b6040516102909190612fed565b60405180910390f35b6102b360048036038101906102ae9190612b5f565b610bef565b005b6102cf60048036038101906102ca9190612991565b610c10565b005b6102eb60048036038101906102e69190612b5f565b610f73565b005b610307600480360381019061030291906128be565b610ff6565b005b6103116110fd565b005b61032d60048036038101906103289190612b5f565b6112dc565b60405161033a9190612fd2565b60405180910390f35b61035d600480360381019061035891906127de565b611346565b005b61037960048036038101906103749190612ad8565b6115f9565b005b610383611686565b6040516103909190612fed565b60405180910390f35b6103b360048036038101906103ae9190612951565b61168d565b005b6103cf60048036038101906103ca9190612b5f565b611988565b005b6103d96119a9565b6040516103e69190613185565b60405180910390f35b610409600480360381019061040491906128fe565b611b2b565b005b610425600480360381019061042091906127b1565b611c45565b005b610441600480360381019061043c91906127b1565b611d20565b60405161044e919061316a565b60405180910390f35b61045f611ddc565b60405161046c9190613185565b60405180910390f35b61048f600480360381019061048a9190612a4b565b611de6565b005b600f60159054906101000a900460ff166104e0576040517f08c379a00000000000000000000000000000000000000000000000000000000081526004016104d7906130ca565b60405180910390fd5b6105117fb19546dff01e856fb3f010c267a7b1c60363cf8a4664e21cc89c26224620214e61050c611f07565b6112dc565b610550576040517f08c379a00000000000000000000000000000000000000000000000000000000081526004016105479061310a565b60405180910390fd5b80600760008673ffffffffffffffffffffffffffffffffffffffff1673ffffffffffffffffffffffffffffffffffffffff1681526020019081526020016000208190555061059f848484610c10565b50505050565b60007f7965db0b000000000000000000000000000000000000000000000000000000007bffffffffffffffffffffffffffffffffffffffffffffffffffffffff1916827bffffffffffffffffffffffffffffffffffffffffffffffffffffffff19161480610618575061061782611f0f565b5b9050919050565b6000600f60159054906101000a900460ff16610670576040517f08c379a0000000000000000000000000000000000000000000000000000000008152600401610667906130ca565b60405180910390fd5b6106a17fb19546dff01e856fb3f010c267a7b1c60363cf8a4664e21cc89c26224620214e61069c611f07565b6112dc565b6106e0576040517f08c379a00000000000000000000000000000000000000000000000000000000081526004016106d79061310a565b60405180910390fd5b600760008373ffffffffffffffffffffffffffffffffffffffff1673ffffffffffffffffffffffffffffffffffffffff168152602001908152602001600020549050919050565b6000600f60159054906101000a900460ff16610778576040517f08c379a000000000000000000000000000000000000000000000000000000000815260040161076f906130ca565b60405180910390fd5b8373ffffffffffffffffffffffffffffffffffffffff16600260009054906101000a900473ffffffffffffffffffffffffffffffffffffffff1673ffffffffffffffffffffffffffffffffffffffff1614610808576040517f08c379a00000000000000000000000000000000000000000000000000000000081526004016107ff9061306a565b60405180910390fd5b600d60009054906101000a900473ffffffffffffffffffffffffffffffffffffffff1673ffffffffffffffffffffffffffffffffffffffff1663524236ce836040518263ffffffff1660e01b81526004016108639190613185565b60206040518083038186803b15801561087b57600080fd5b505afa15801561088f573d6000803e3d6000fd5b505050506040513d601f19601f820116820180604052508101906108b39190612b05565b156108c157600190506109ad565b6108d583600b611f7990919063ffffffff16565b6108e257600090506109ad565b73__LicenseTools__________________________63995e9228600660008673ffffffffffffffffffffffffffffffffffffffff1673ffffffffffffffffffffffffffffffffffffffff16815260200190815260200160002054846040518363ffffffff1660e01b815260040161095a9291906131a0565b60206040518083038186803b15801561097257600080fd5b505af4158015610986573d6000803e3d6000fd5b505050506040513d601f19601f820116820180604052508101906109aa9190612b05565b90505b9392505050565b6060600f60159054906101000a900460ff16610a05576040517f08c379a00000000000000000000000000000000000000000000000000000000081526004016109fc906130ca565b60405180910390fd5b610a367fb19546dff01e856fb3f010c267a7b1c60363cf8a4664e21cc89c26224620214e610a31611f07565b6112dc565b610a75576040517f08c379a0000000000000000000000000000000000000000000000000000000008152600401610a6c9061310a565b60405180910390fd5b60006001811115610a8957610a88613429565b5b826001811115610a9c57610a9b613429565b5b14610ab057610aab600b611fa9565b610abb565b610aba6009611fa9565b5b9050919050565b6000600f60159054906101000a900460ff16610b13576040517f08c379a0000000000000000000000000000000000000000000000000000000008152600401610b0a906130ca565b60405180910390fd5b60006001811115610b2757610b26613429565b5b826001811115610b3a57610b39613429565b5b1415610b8757600560008473ffffffffffffffffffffffffffffffffffffffff1673ffffffffffffffffffffffffffffffffffffffff168152602001908152602001600020549050610bca565b600660008473ffffffffffffffffffffffffffffffffffffffff1673ffffffffffffffffffffffffffffffffffffffff1681526020019081526020016000205490505b92915050565b6000806000838152602001908152602001600020600101549050919050565b610bf882610bd0565b610c0181611fca565b610c0b8383611fde565b505050565b600f60159054906101000a900460ff16610c5f576040517f08c379a0000000000000000000000000000000000000000000000000000000008152600401610c56906130ca565b60405180910390fd5b610c907fb19546dff01e856fb3f010c267a7b1c60363cf8a4664e21cc89c26224620214e610c8b611f07565b6112dc565b610ccf576040517f08c379a0000000000000000000000000000000000000000000000000000000008152600401610cc69061310a565b60405180910390fd5b6000821415610d13576040517f08c379a0000000000000000000000000000000000000000000000000000000008152600401610d0a9061308a565b60405180910390fd5b60006001811115610d2757610d26613429565b5b816001811115610d3a57610d39613429565b5b1415610e595781600560008573ffffffffffffffffffffffffffffffffffffffff1673ffffffffffffffffffffffffffffffffffffffff168152602001908152602001600020541415610dc2576040517f08c379a0000000000000000000000000000000000000000000000000000000008152600401610db99061304a565b60405180910390fd5b610dd68360096120be90919063ffffffff16565b5081600560008573ffffffffffffffffffffffffffffffffffffffff1673ffffffffffffffffffffffffffffffffffffffff168152602001908152602001600020819055507fcd54d7e6dbadcd67bf2dc5740d6441fea3d13493ee22d7beeae303625a89d4268383604051610e4c929190612f87565b60405180910390a1610f6e565b81600660008573ffffffffffffffffffffffffffffffffffffffff1673ffffffffffffffffffffffffffffffffffffffff168152602001908152602001600020541415610edb576040517f08c379a0000000000000000000000000000000000000000000000000000000008152600401610ed29061304a565b60405180910390fd5b610eef83600b6120be90919063ffffffff16565b5081600660008573ffffffffffffffffffffffffffffffffffffffff1673ffffffffffffffffffffffffffffffffffffffff168152602001908152602001600020819055507f529ecbc3c68c3d2c7bb008ee044e1a240723013a8c3456abaed0d80bcab7eb818383604051610f65929190612f87565b60405180910390a15b505050565b610f7b611f07565b73ffffffffffffffffffffffffffffffffffffffff168173ffffffffffffffffffffffffffffffffffffffff1614610fe8576040517f08c379a0000000000000000000000000000000000000000000000000000000008152600401610fdf9061314a565b60405180910390fd5b610ff282826120ee565b5050565b600f60159054906101000a900460ff16611045576040517f08c379a000000000000000000000000000000000000000000000000000000000815260040161103c906130ca565b60405180910390fd5b6110767fb19546dff01e856fb3f010c267a7b1c60363cf8a4664e21cc89c26224620214e611071611f07565b6112dc565b6110b5576040517f08c379a00000000000000000000000000000000000000000000000000000000081526004016110ac9061310a565b60405180910390fd5b80600760008473ffffffffffffffffffffffffffffffffffffffff1673ffffffffffffffffffffffffffffffffffffffff168152602001908152602001600020819055505050565b600f60159054906101000a900460ff1661114c576040517f08c379a0000000000000000000000000000000000000000000000000000000008152600401611143906130ca565b60405180910390fd5b611154611f07565b60016000600181111561116a57611169613429565b5b81600181111561117d5761117c613429565b5b14156111db57611197826009611f7990919063ffffffff16565b6111d6576040517f08c379a00000000000000000000000000000000000000000000000000000000081526004016111cd9061312a565b60405180910390fd5b61122f565b6111ef82600b611f7990919063ffffffff16565b61122e576040517f08c379a0000000000000000000000000000000000000000000000000000000008152600401611225906130aa565b60405180910390fd5b5b61124a61123a611f07565b600b6121cf90919063ffffffff16565b50600060066000611259611f07565b73ffffffffffffffffffffffffffffffffffffffff1673ffffffffffffffffffffffffffffffffffffffff168152602001908152602001600020819055507f529ecbc3c68c3d2c7bb008ee044e1a240723013a8c3456abaed0d80bcab7eb816112c0611f07565b60006040516112d0929190612f5e565b60405180910390a15050565b600080600084815260200190815260200160002060000160008373ffffffffffffffffffffffffffffffffffffffff1673ffffffffffffffffffffffffffffffffffffffff16815260200190815260200160002060009054906101000a900460ff16905092915050565b600f60149054906101000a900460ff1615611396576040517f08c379a000000000000000000000000000000000000000000000000000000000815260040161138d906130ea565b60405180910390fd5b85600460006101000a81548173ffffffffffffffffffffffffffffffffffffffff021916908373ffffffffffffffffffffffffffffffffffffffff16021790555084600360006101000a81548173ffffffffffffffffffffffffffffffffffffffff021916908373ffffffffffffffffffffffffffffffffffffffff16021790555083600260006101000a81548173ffffffffffffffffffffffffffffffffffffffff021916908373ffffffffffffffffffffffffffffffffffffffff1602179055506114a57fb19546dff01e856fb3f010c267a7b1c60363cf8a4664e21cc89c26224620214e600260009054906101000a900473ffffffffffffffffffffffffffffffffffffffff166121ff565b6114f17f241ecf16d79d0f8dbfb92cbc07fe17840425976cf0667f022fe9877caa831b08600360009054906101000a900473ffffffffffffffffffffffffffffffffffffffff166121ff565b82600e60006101000a81548173ffffffffffffffffffffffffffffffffffffffff021916908373ffffffffffffffffffffffffffffffffffffffff16021790555081600f60006101000a81548173ffffffffffffffffffffffffffffffffffffffff021916908373ffffffffffffffffffffffffffffffffffffffff16021790555085600d60006101000a81548173ffffffffffffffffffffffffffffffffffffffff021916908373ffffffffffffffffffffffffffffffffffffffff160217905550806001819055506001600f60146101000a81548160ff0219169083151502179055506001600f60156101000a81548160ff021916908315150217905550505050505050565b61162a7f241ecf16d79d0f8dbfb92cbc07fe17840425976cf0667f022fe9877caa831b08611625611f07565b6112dc565b611669576040517f08c379a00000000000000000000000000000000000000000000000000000000081526004016116609061310a565b60405180910390fd5b80600f60156101000a81548160ff02191690831515021790555050565b6000801b81565b600f60159054906101000a900460ff166116dc576040517f08c379a00000000000000000000000000000000000000000000000000000000081526004016116d3906130ca565b60405180910390fd5b8181600060018111156116f2576116f1613429565b5b81600181111561170557611704613429565b5b14156117635761171f826009611f7990919063ffffffff16565b61175e576040517f08c379a00000000000000000000000000000000000000000000000000000000081526004016117559061312a565b60405180910390fd5b6117b7565b61177782600b611f7990919063ffffffff16565b6117b6576040517f08c379a00000000000000000000000000000000000000000000000000000000081526004016117ad906130aa565b60405180910390fd5b5b6117e87fb19546dff01e856fb3f010c267a7b1c60363cf8a4664e21cc89c26224620214e6117e3611f07565b6112dc565b611827576040517f08c379a000000000000000000000000000000000000000000000000000000000815260040161181e9061310a565b60405180910390fd5b6000600181111561183b5761183a613429565b5b83600181111561184e5761184d613429565b5b14156118ed576118688460096121cf90919063ffffffff16565b506000600560008673ffffffffffffffffffffffffffffffffffffffff1673ffffffffffffffffffffffffffffffffffffffff168152602001908152602001600020819055507fcd54d7e6dbadcd67bf2dc5740d6441fea3d13493ee22d7beeae303625a89d4268460006040516118e0929190612f5e565b60405180910390a1611982565b61190184600b6121cf90919063ffffffff16565b506000600660008673ffffffffffffffffffffffffffffffffffffffff1673ffffffffffffffffffffffffffffffffffffffff168152602001908152602001600020819055507f529ecbc3c68c3d2c7bb008ee044e1a240723013a8c3456abaed0d80bcab7eb81846000604051611979929190612f5e565b60405180910390a15b50505050565b61199182610bd0565b61199a81611fca565b6119a483836120ee565b505050565b6000600f60159054906101000a900460ff166119fa576040517f08c379a00000000000000000000000000000000000000000000000000000000081526004016119f1906130ca565b60405180910390fd5b611a02611f07565b600160006001811115611a1857611a17613429565b5b816001811115611a2b57611a2a613429565b5b1415611a8957611a45826009611f7990919063ffffffff16565b611a84576040517f08c379a0000000000000000000000000000000000000000000000000000000008152600401611a7b9061312a565b60405180910390fd5b611add565b611a9d82600b611f7990919063ffffffff16565b611adc576040517f08c379a0000000000000000000000000000000000000000000000000000000008152600401611ad3906130aa565b60405180910390fd5b5b60066000611ae9611f07565b73ffffffffffffffffffffffffffffffffffffffff1673ffffffffffffffffffffffffffffffffffffffff168152602001908152602001600020549250505090565b600f60159054906101000a900460ff16611b7a576040517f08c379a0000000000000000000000000000000000000000000000000000000008152600401611b71906130ca565b60405180910390fd5b611bab7fb19546dff01e856fb3f010c267a7b1c60363cf8a4664e21cc89c26224620214e611ba6611f07565b6112dc565b611bea576040517f08c379a0000000000000000000000000000000000000000000000000000000008152600401611be19061310a565b60405180910390fd5b6000600860008573ffffffffffffffffffffffffffffffffffffffff1673ffffffffffffffffffffffffffffffffffffffff168152602001908152602001600020905082816000018190555081816001018190555050505050565b611c4d611f07565b73ffffffffffffffffffffffffffffffffffffffff16600360009054906101000a900473ffffffffffffffffffffffffffffffffffffffff1673ffffffffffffffffffffffffffffffffffffffff1614611cdc576040517f08c379a0000000000000000000000000000000000000000000000000000000008152600401611cd39061310a565b60405180910390fd5b80600360006101000a81548173ffffffffffffffffffffffffffffffffffffffff021916908373ffffffffffffffffffffffffffffffffffffffff16021790555050565b611d286126fe565b600f60159054906101000a900460ff16611d77576040517f08c379a0000000000000000000000000000000000000000000000000000000008152600401611d6e906130ca565b60405180910390fd5b600860008373ffffffffffffffffffffffffffffffffffffffff1673ffffffffffffffffffffffffffffffffffffffff168152602001908152602001600020604051806040016040529081600082015481526020016001820154815250509050919050565b6000600154905090565b600f60159054906101000a900460ff16611e35576040517f08c379a0000000000000000000000000000000000000000000000000000000008152600401611e2c906130ca565b60405180910390fd5b611e667fb19546dff01e856fb3f010c267a7b1c60363cf8a4664e21cc89c26224620214e611e61611f07565b6112dc565b611ea5576040517f08c379a0000000000000000000000000000000000000000000000000000000008152600401611e9c9061310a565b60405180910390fd5b82600760008873ffffffffffffffffffffffffffffffffffffffff1673ffffffffffffffffffffffffffffffffffffffff16815260200190815260200160002081905550611ef4868383611b2b565b611eff868686610c10565b505050505050565b600033905090565b60007f01ffc9a7000000000000000000000000000000000000000000000000000000007bffffffffffffffffffffffffffffffffffffffffffffffffffffffff1916827bffffffffffffffffffffffffffffffffffffffffffffffffffffffff1916149050919050565b6000611fa1836000018373ffffffffffffffffffffffffffffffffffffffff1660001b61220d565b905092915050565b60606000611fb983600001612230565b905060608190508092505050919050565b611fdb81611fd6611f07565b61228c565b50565b611fe882826112dc565b6120ba57600160008084815260200190815260200160002060000160008373ffffffffffffffffffffffffffffffffffffffff1673ffffffffffffffffffffffffffffffffffffffff16815260200190815260200160002060006101000a81548160ff02191690831515021790555061205f611f07565b73ffffffffffffffffffffffffffffffffffffffff168173ffffffffffffffffffffffffffffffffffffffff16837f2f8788117e7eff1d82e926ec794901d17c78024a50270940304540a733656f0d60405160405180910390a45b5050565b60006120e6836000018373ffffffffffffffffffffffffffffffffffffffff1660001b612311565b905092915050565b6120f882826112dc565b156121cb57600080600084815260200190815260200160002060000160008373ffffffffffffffffffffffffffffffffffffffff1673ffffffffffffffffffffffffffffffffffffffff16815260200190815260200160002060006101000a81548160ff021916908315150217905550612170611f07565b73ffffffffffffffffffffffffffffffffffffffff168173ffffffffffffffffffffffffffffffffffffffff16837ff6391f5c32d9c69d2a47ea670b442974b53935d1edc7fd64eb21e047a839171b60405160405180910390a45b5050565b60006121f7836000018373ffffffffffffffffffffffffffffffffffffffff1660001b612381565b905092915050565b6122098282611fde565b5050565b600080836001016000848152602001908152602001600020541415905092915050565b60608160000180548060200260200160405190810160405280929190818152602001828054801561228057602002820191906000526020600020905b81548152602001906001019080831161226c575b50505050509050919050565b61229682826112dc565b61230d576122a381612495565b6122b18360001c60206124c2565b6040516020016122c2929190612f24565b6040516020818303038152906040526040517f08c379a00000000000000000000000000000000000000000000000000000000081526004016123049190613008565b60405180910390fd5b5050565b600061231d838361220d565b61237657826000018290806001815401808255809150506001900390600052602060002001600090919091909150558260000180549050836001016000848152602001908152602001600020819055506001905061237b565b600090505b92915050565b600080836001016000848152602001908152602001600020549050600081146124895760006001826123b391906132d9565b90506000600186600001805490506123cb91906132d9565b905081811461243a5760008660000182815481106123ec576123eb613487565b5b90600052602060002001549050808760000184815481106124105761240f613487565b5b90600052602060002001819055508387600101600083815260200190815260200160002081905550505b8560000180548061244e5761244d613458565b5b60019003818190600052602060002001600090559055856001016000868152602001908152602001600020600090556001935050505061248f565b60009150505b92915050565b60606124bb8273ffffffffffffffffffffffffffffffffffffffff16601460ff166124c2565b9050919050565b6060600060028360026124d5919061327f565b6124df9190613229565b67ffffffffffffffff8111156124f8576124f76134b6565b5b6040519080825280601f01601f19166020018201604052801561252a5781602001600182028036833780820191505090505b5090507f30000000000000000000000000000000000000000000000000000000000000008160008151811061256257612561613487565b5b60200101907effffffffffffffffffffffffffffffffffffffffffffffffffffffffffffff1916908160001a9053507f7800000000000000000000000000000000000000000000000000000000000000816001815181106125c6576125c5613487565b5b60200101907effffffffffffffffffffffffffffffffffffffffffffffffffffffffffffff1916908160001a90535060006001846002612606919061327f565b6126109190613229565b90505b60018111156126b0577f3031323334353637383961626364656600000000000000000000000000000000600f86166010811061265257612651613487565b5b1a60f81b82828151811061266957612668613487565b5b60200101907effffffffffffffffffffffffffffffffffffffffffffffffffffffffffffff1916908160001a905350600485901c9450806126a9906133d0565b9050612613565b50600084146126f4576040517f08c379a00000000000000000000000000000000000000000000000000000000081526004016126eb9061302a565b60405180910390fd5b8091505092915050565b604051806040016040528060008019168152602001600080191681525090565b60008135905061272d81613733565b92915050565b6000813590506127428161374a565b92915050565b6000815190506127578161374a565b92915050565b60008135905061276c81613761565b92915050565b60008135905061278181613778565b92915050565b6000813590506127968161378f565b92915050565b6000813590506127ab8161379f565b92915050565b6000602082840312156127c7576127c66134e5565b5b60006127d58482850161271e565b91505092915050565b60008060008060008060c087890312156127fb576127fa6134e5565b5b600061280989828a0161271e565b965050602061281a89828a0161271e565b955050604061282b89828a0161271e565b945050606061283c89828a0161271e565b935050608061284d89828a0161271e565b92505060a061285e89828a0161279c565b9150509295509295509295565b600080600060608486031215612884576128836134e5565b5b60006128928682870161271e565b93505060206128a38682870161271e565b92505060406128b48682870161279c565b9150509250925092565b600080604083850312156128d5576128d46134e5565b5b60006128e38582860161271e565b92505060206128f48582860161275d565b9150509250929050565b600080600060608486031215612917576129166134e5565b5b60006129258682870161271e565b93505060206129368682870161275d565b92505060406129478682870161275d565b9150509250925092565b60008060408385031215612968576129676134e5565b5b60006129768582860161271e565b925050602061298785828601612787565b9150509250929050565b6000806000606084860312156129aa576129a96134e5565b5b60006129b88682870161271e565b93505060206129c98682870161279c565b92505060406129da86828701612787565b9150509250925092565b600080600080608085870312156129fe576129fd6134e5565b5b6000612a0c8782880161271e565b9450506020612a1d8782880161279c565b9350506040612a2e87828801612787565b9250506060612a3f8782880161275d565b91505092959194509250565b60008060008060008060c08789031215612a6857612a676134e5565b5b6000612a7689828a0161271e565b9650506020612a8789828a0161279c565b9550506040612a9889828a01612787565b9450506060612aa989828a0161275d565b9350506080612aba89828a0161275d565b92505060a0612acb89828a0161275d565b9150509295509295509295565b600060208284031215612aee57612aed6134e5565b5b6000612afc84828501612733565b91505092915050565b600060208284031215612b1b57612b1a6134e5565b5b6000612b2984828501612748565b91505092915050565b600060208284031215612b4857612b476134e5565b5b6000612b568482850161275d565b91505092915050565b60008060408385031215612b7657612b756134e5565b5b6000612b848582860161275d565b9250506020612b958582860161271e565b9150509250929050565b600060208284031215612bb557612bb46134e5565b5b6000612bc384828501612772565b91505092915050565b600060208284031215612be257612be16134e5565b5b6000612bf084828501612787565b91505092915050565b6000612c058383612c11565b60208301905092915050565b612c1a8161330d565b82525050565b612c298161330d565b82525050565b6000612c3a826131d9565b612c4481856131fc565b9350612c4f836131c9565b8060005b83811015612c80578151612c678882612bf9565b9750612c72836131ef565b925050600181019050612c53565b5085935050505092915050565b612c968161331f565b82525050565b612ca58161332b565b82525050565b612cb48161332b565b82525050565b612cc38161338b565b82525050565b6000612cd4826131e4565b612cde818561320d565b9350612cee81856020860161339d565b612cf7816134ea565b840191505092915050565b6000612d0d826131e4565b612d17818561321e565b9350612d2781856020860161339d565b80840191505092915050565b6000612d4060208361320d565b9150612d4b826134fb565b602082019050919050565b6000612d6360068361320d565b9150612d6e82613524565b602082019050919050565b6000612d8660058361320d565b9150612d918261354d565b602082019050919050565b6000612da960058361320d565b9150612db482613576565b602082019050919050565b6000612dcc60068361320d565b9150612dd78261359f565b602082019050919050565b6000612def60068361320d565b9150612dfa826135c8565b602082019050919050565b6000612e12602e8361320d565b9150612e1d826135f1565b604082019050919050565b6000612e3560068361320d565b9150612e4082613640565b602082019050919050565b6000612e5860178361321e565b9150612e6382613669565b601782019050919050565b6000612e7b60068361320d565b9150612e8682613692565b602082019050919050565b6000612e9e60118361321e565b9150612ea9826136bb565b601182019050919050565b6000612ec1602f8361320d565b9150612ecc826136e4565b604082019050919050565b604082016000820151612eed6000850182612c9c565b506020820151612f006020850182612c9c565b50505050565b612f0f81613381565b82525050565b612f1e81613381565b82525050565b6000612f2f82612e4b565b9150612f3b8285612d02565b9150612f4682612e91565b9150612f528284612d02565b91508190509392505050565b6000604082019050612f736000830185612c20565b612f806020830184612cba565b9392505050565b6000604082019050612f9c6000830185612c20565b612fa96020830184612f06565b9392505050565b60006020820190508181036000830152612fca8184612c2f565b905092915050565b6000602082019050612fe76000830184612c8d565b92915050565b60006020820190506130026000830184612cab565b92915050565b600060208201905081810360008301526130228184612cc9565b905092915050565b6000602082019050818103600083015261304381612d33565b9050919050565b6000602082019050818103600083015261306381612d56565b9050919050565b6000602082019050818103600083015261308381612d79565b9050919050565b600060208201905081810360008301526130a381612d9c565b9050919050565b600060208201905081810360008301526130c381612dbf565b9050919050565b600060208201905081810360008301526130e381612de2565b9050919050565b6000602082019050818103600083015261310381612e05565b9050919050565b6000602082019050818103600083015261312381612e28565b9050919050565b6000602082019050818103600083015261314381612e6e565b9050919050565b6000602082019050818103600083015261316381612eb4565b9050919050565b600060408201905061317f6000830184612ed7565b92915050565b600060208201905061319a6000830184612f06565b92915050565b60006040820190506131b56000830185612f15565b6131c26020830184612f15565b9392505050565b6000819050602082019050919050565b600081519050919050565b600081519050919050565b6000602082019050919050565b600082825260208201905092915050565b600082825260208201905092915050565b600081905092915050565b600061323482613381565b915061323f83613381565b9250827fffffffffffffffffffffffffffffffffffffffffffffffffffffffffffffffff03821115613274576132736133fa565b5b828201905092915050565b600061328a82613381565b915061329583613381565b9250817fffffffffffffffffffffffffffffffffffffffffffffffffffffffffffffffff04831182151516156132ce576132cd6133fa565b5b828202905092915050565b60006132e482613381565b91506132ef83613381565b925082821015613302576133016133fa565b5b828203905092915050565b600061331882613361565b9050919050565b60008115159050919050565b6000819050919050565b60007fffffffff0000000000000000000000000000000000000000000000000000000082169050919050565b600073ffffffffffffffffffffffffffffffffffffffff82169050919050565b6000819050919050565b600061339682613381565b9050919050565b60005b838110156133bb5780820151818401526020810190506133a0565b838111156133ca576000848401525b50505050565b60006133db82613381565b915060008214156133ef576133ee6133fa565b5b600182039050919050565b7f4e487b7100000000000000000000000000000000000000000000000000000000600052601160045260246000fd5b7f4e487b7100000000000000000000000000000000000000000000000000000000600052602160045260246000fd5b7f4e487b7100000000000000000000000000000000000000000000000000000000600052603160045260246000fd5b7f4e487b7100000000000000000000000000000000000000000000000000000000600052603260045260246000fd5b7f4e487b7100000000000000000000000000000000000000000000000000000000600052604160045260246000fd5b600080fd5b6000601f19601f8301169050919050565b7f537472696e67733a20686578206c656e67746820696e73756666696369656e74600082015250565b7f4552525045520000000000000000000000000000000000000000000000000000600082015250565b7f4241445251000000000000000000000000000000000000000000000000000000600082015250565b7f4e44504552000000000000000000000000000000000000000000000000000000600082015250565b7f4e4f544657520000000000000000000000000000000000000000000000000000600082015250565b7f494e414354560000000000000000000000000000000000000000000000000000600082015250565b7f436f6e747261637420696e7374616e63652068617320616c726561647920626560008201527f656e20696e697469616c697a6564000000000000000000000000000000000000602082015250565b7f554e415554480000000000000000000000000000000000000000000000000000600082015250565b7f416363657373436f6e74726f6c3a206163636f756e7420000000000000000000600082015250565b7f4e4f544657470000000000000000000000000000000000000000000000000000600082015250565b7f206973206d697373696e6720726f6c6520000000000000000000000000000000600082015250565b7f416363657373436f6e74726f6c3a2063616e206f6e6c792072656e6f756e636560008201527f20726f6c657320666f722073656c660000000000000000000000000000000000602082015250565b61373c8161330d565b811461374757600080fd5b50565b6137538161331f565b811461375e57600080fd5b50565b61376a8161332b565b811461377557600080fd5b50565b61378181613335565b811461378c57600080fd5b50565b6002811061379c57600080fd5b50565b6137a881613381565b81146137b357600080fd5b5056fea2646970667358221220001c229b4283d4676b7d687b56e6b51e51f5e2e421b3afe4a4f051bfe50a866864736f6c63430008070033a2646970667358221220fb246dea20eebd445cc17414d394057c91bd64f5276dea9e53b85f2f9842452d64736f6c63430008070033",
  "immutableReferences": {
    "6177": [
      {
        "length": 32,
        "start": 2192
      }
    ]
  },
  "source": "// SPDX-License-Identifier: GPL-3.0\r\npragma solidity >=0.4.25 <0.9.0;\r\nimport \"@openzeppelin/contracts/access/Ownable.sol\";\r\nimport \"@openzeppelin/contracts/proxy/Clones.sol\";\r\nimport \"@openzeppelin/contracts/utils/structs/EnumerableSet.sol\";\r\n\r\nimport \"./LicenseToken.sol\";\r\nimport \"./VerifySignature.sol\";\r\nimport \"./UserMonitoringCenter.sol\";\r\nimport \"./ServiceManager.sol\";\r\nimport \"./BlockchainManager.sol\";\r\n\r\ncontract ManagementCenter is Ownable {\r\n    /******************************\r\n        STATEMENTS\r\n    ******************************/\r\n    using EnumerableSet for EnumerableSet.UintSet;\r\n    /******************************\r\n        EVENTS\r\n    ******************************/\r\n    event UsersContractCreated(address contractAddress);\r\n    event ChangeEtherBalance(uint256 value);\r\n    event NewPrivateLicenseEmitted(uint256 licenseId);\r\n    event PrivateLicenseUpdated(uint256 licenseId);\r\n    event ManagerOwnerUpdated(address managerAddress);\r\n\r\n    /***********************ChangeEtherBalance*******\r\n        VARIABLES\r\n    ******************************/\r\n\r\n    // _users Contract Address set\r\n    mapping(address => address) _usersContractAddresses;\r\n\r\n    address immutable userCenterImplementation;\r\n\r\n        // manager owner address\r\n    address private _managerOwner;\r\n\r\n    // ECR 721 Licence\r\n    LicenseToken LicenseTokenInstance;\r\n    // Service Manager\r\n    ServiceManager ServiceManagerInstance;\r\n    // Service Manager\r\n    BlockchainManager BlockchainManagerInstance;    \r\n\r\n    /**\r\n     * @notice constructor function\r\n     */\r\n    constructor(\r\n        address LicenseLVCAddress,\r\n        address ServiceManagerAddress,\r\n        address BlockchainManagerAddress\r\n    ) {\r\n        userCenterImplementation = address(new UserMonitoringCenter());\r\n        LicenseTokenInstance = LicenseToken(LicenseLVCAddress);\r\n        ServiceManagerInstance = ServiceManager(ServiceManagerAddress);\r\n        BlockchainManagerInstance = BlockchainManager(BlockchainManagerAddress);\r\n        _managerOwner = _msgSender();\r\n    }\r\n\r\n    //Modifiers\r\n    modifier onlyRegisteredUsers() {\r\n        require(_usersContractAddresses[_msgSender()] != address(0), \"NOTFNDU\");\r\n        _;\r\n    }\r\n\r\n    // GETTERS\r\n\r\n    /**\r\n     * @notice Get the License Token Address\r\n     */\r\n    function getLicenseTokenAddress() public view returns (address) {\r\n        return address(LicenseTokenInstance);\r\n    }\r\n\r\n    /**\r\n     * @notice Get Service Manager Address\r\n     */\r\n    function getServiceManagerAddress() public view returns (address) {\r\n        return address(ServiceManagerInstance);\r\n    }\r\n\r\n    /**\r\n     * @notice change manager\r\n     * @dev function is created in case of management center replacement\r\n     * @param newManagerAddress manager Transaction Feed\r\n     */\r\n    function transferManagement(address newManagerAddress) public onlyOwner{\r\n        _managerOwner = newManagerAddress;\r\n        emit ManagerOwnerUpdated(newManagerAddress);\r\n    }    \r\n\r\n    /**\r\n     * @notice Verify user by manager\r\n     * @param userAddress user Address\r\n     * @param signature signature\r\n     * @param nonce nonce\r\n     */\r\n    function checkUser(address userAddress, uint256 nonce, bytes memory signature)\r\n        public\r\n        view\r\n        returns (bool)\r\n    {\r\n        require(_msgSender() == _managerOwner || _usersContractAddresses[_msgSender()] != address(0), \"UNAUTH\");\r\n        require(_usersContractAddresses[userAddress] != address(0), \"UNFND\");\r\n        return\r\n            VerifySignature.verifyRegistration(\r\n                userAddress,\r\n                address(this),\r\n                nonce,\r\n                \"verification\",\r\n                signature\r\n            );\r\n    }        \r\n\r\n    /**\r\n     * @notice Verify an address\r\n     * @param signature signature\r\n     * @param nonce nonce\r\n     */\r\n    function register(uint256 nonce, bytes memory signature)\r\n        public\r\n        returns (address)\r\n    {\r\n        require(_msgSender() != owner(), \"UNAUTH\");\r\n        require(_usersContractAddresses[_msgSender()] == address(0), \"FND\");\r\n        require(\r\n            VerifySignature.verifyRegistration(\r\n                _msgSender(),\r\n                address(this),\r\n                nonce,\r\n                \"register\",\r\n                signature\r\n            ) == true,\r\n            \"ERRSIG\"\r\n        );\r\n        address clone = Clones.clone(userCenterImplementation);\r\n        UserMonitoringCenter(clone).initialize(\r\n            _managerOwner,\r\n            _msgSender(),\r\n            address(ServiceManagerInstance),\r\n            address(LicenseTokenInstance),\r\n            address(BlockchainManagerInstance)\r\n        );\r\n        _usersContractAddresses[_msgSender()] = clone;\r\n        emit UsersContractCreated(_usersContractAddresses[_msgSender()]);\r\n        return clone;\r\n    }\r\n\r\n    /**\r\n     * @notice get User Contract Address\r\n     */\r\n    function getUserContractAddress(address userAddress) public view returns (address) {\r\n        return _usersContractAddresses[userAddress];\r\n    }\r\n\r\n    function withdraw() public onlyOwner {\r\n        uint256 ownerBalance = address(this).balance;\r\n        require(ownerBalance > 0, \"ERRFUN\");\r\n        payable(owner()).transfer(ownerBalance);\r\n        emit ChangeEtherBalance(ownerBalance);\r\n    }\r\n\r\n    /// @notice buy License for a list of services\r\n    /// @dev Explain to a developer any extra details\r\n    /// @param numberOfMonths number Of Months for the license\r\n    /// @param serviceIds list of service Ids\r\n    function buyLicence(uint256 numberOfMonths, uint256[] memory serviceIds)\r\n        public\r\n        payable\r\n        onlyRegisteredUsers\r\n    {\r\n        require(numberOfMonths > 0 && serviceIds.length > 0, \"ERRIN\");\r\n        require(msg.value > 0, \"ERRBAL\");\r\n        uint256 paymentValue = numberOfMonths *\r\n            ServiceManagerInstance.getAddedServicesPricePerMonth(0, serviceIds);\r\n        require(paymentValue > 0, \"ERRIN\");\r\n        uint256 permissions = LicenseTools.setIndexesBoolean(\r\n            0,\r\n            true,\r\n            serviceIds\r\n        );\r\n        require(msg.value == paymentValue, \"ERRINV\");\r\n        uint256 newLicenseId = LicenseTokenInstance.createLicense(\r\n            _msgSender(),\r\n            permissions,\r\n            LicenseType.PRIVATE,\r\n            numberOfMonths\r\n        );\r\n        emit NewPrivateLicenseEmitted(newLicenseId);\r\n    }\r\n\r\n    /// @notice buy License for a list of services\r\n    /// @dev Explain to a developer any extra details\r\n    /// @param licenseId license Id\r\n    /// @param numberOfMonths number Of Months for the license\r\n    /// @param serviceIds list of service Ids\r\n    function resetLicence(\r\n        uint256 licenseId,\r\n        uint256 numberOfMonths,\r\n        uint256[] memory serviceIds\r\n    ) public payable onlyRegisteredUsers {\r\n        require(numberOfMonths > 0 && serviceIds.length > 0, \"ERRIN\");\r\n        require(msg.value > 0, \"ERRBAL\");\r\n        uint256 paymentValue = numberOfMonths *\r\n            ServiceManagerInstance.getAddedServicesPricePerMonth(0, serviceIds);\r\n        require(paymentValue > 0, \"ERRIN\");\r\n        uint256 permissions = LicenseTools.setIndexesBoolean(\r\n            0,\r\n            true,\r\n            serviceIds\r\n        );\r\n        require(msg.value == paymentValue, \"ERRINV\");\r\n        LicenseTokenInstance.resetLicense(\r\n            _msgSender(),\r\n            licenseId,\r\n            permissions,\r\n            LicenseType.PRIVATE,\r\n            numberOfMonths\r\n        );\r\n        emit PrivateLicenseUpdated(licenseId);\r\n    }\r\n\r\n    /**\r\n     * @notice update Licence\r\n     * @dev Explain to a developer any extra details\r\n     * @param licenseId number Of Months for the license\r\n     * @param extraNumberOfMonths extra Number Of Months\r\n     * @param extraServiceIds list of service Ids\r\n     */\r\n    function updateLicence(\r\n        uint256 licenseId,\r\n        uint256 extraNumberOfMonths,\r\n        uint256[] memory extraServiceIds\r\n    ) public payable onlyRegisteredUsers {\r\n        require(extraNumberOfMonths > 0 || extraServiceIds.length > 0, \"ERRIN\");\r\n        LicenseInfo memory license = LicenseTokenInstance.getLicense(licenseId);\r\n        require(\r\n            license.state == LicenseState.INACTIVE ||\r\n                (license.expiresOn > block.timestamp &&\r\n                    license.state == LicenseState.ACTIVE),\r\n            \"LICEXP\"\r\n        );\r\n        //payment to add the service to the end of the license expired data\r\n        uint256 priceForExtraServices = ServiceManagerInstance\r\n            .getAddedServicesPricePerMonth(\r\n                license.servicesIdsPool,\r\n                extraServiceIds\r\n            );\r\n        uint256 paymentRemainingLicenseTime = (license.state ==\r\n            LicenseState.ACTIVE)\r\n            ? (priceForExtraServices * (license.expiresOn - block.timestamp)) /\r\n                30 days\r\n            : priceForExtraServices * license.numberOfMonths;\r\n        //payment to extend the license with the new services\r\n        uint256 newServicesIdsPool = LicenseTools.setIndexesBoolean(\r\n            license.servicesIdsPool,\r\n            true,\r\n            extraServiceIds\r\n        );\r\n        uint256 paymentValueExtraMonth = ServiceManagerInstance\r\n            .getServicesIdsPoolPricePerMonth(newServicesIdsPool) *\r\n            extraNumberOfMonths;\r\n        uint256 totalPayment = paymentRemainingLicenseTime +\r\n            paymentValueExtraMonth;\r\n            if (totalPayment>0)\r\n            {\r\n                require(\r\n                    msg.value >= totalPayment, \"ERRVAL\"\r\n                );            \r\n                require(\r\n                    ((msg.value - totalPayment)/msg.value)*100 <=1,\r\n                    \"ERRBAL\"\r\n                );\r\n            }\r\n        LicenseTokenInstance.updateLicense(\r\n            _msgSender(),\r\n            licenseId,\r\n            newServicesIdsPool,\r\n            extraNumberOfMonths\r\n        );\r\n        emit PrivateLicenseUpdated(licenseId);\r\n    }\r\n}\r\n",
  "sourcePath": "C:\\Users\\israel\\Documents\\codes\\dev\\cryptween\\smart-contract-3\\contracts\\ManagementCenter.sol",
  "compiler": {
    "name": "solc",
    "version": "0.8.7+commit.e28d00a7.Emscripten.clang"
  },
  "schemaVersion": "3.4.13",
  "updatedAt": "2023-06-09T14:57:24.414Z",
  "networkType": "ethereum",
  "devdoc": {
    "kind": "dev",
    "methods": {
      "buyLicence(uint256,uint256[])": {
        "details": "Explain to a developer any extra details",
        "params": {
          "numberOfMonths": "number Of Months for the license",
          "serviceIds": "list of service Ids"
        }
      },
      "checkUser(address,uint256,bytes)": {
        "params": {
          "nonce": "nonce",
          "signature": "signature",
          "userAddress": "user Address"
        }
      },
      "owner()": {
        "details": "Returns the address of the current owner."
      },
      "register(uint256,bytes)": {
        "params": {
          "nonce": "nonce",
          "signature": "signature"
        }
      },
      "renounceOwnership()": {
        "details": "Leaves the contract without owner. It will not be possible to call `onlyOwner` functions anymore. Can only be called by the current owner. NOTE: Renouncing ownership will leave the contract without an owner, thereby removing any functionality that is only available to the owner."
      },
      "resetLicence(uint256,uint256,uint256[])": {
        "details": "Explain to a developer any extra details",
        "params": {
          "licenseId": "license Id",
          "numberOfMonths": "number Of Months for the license",
          "serviceIds": "list of service Ids"
        }
      },
      "transferManagement(address)": {
        "details": "function is created in case of management center replacement",
        "params": {
          "newManagerAddress": "manager Transaction Feed"
        }
      },
      "transferOwnership(address)": {
        "details": "Transfers ownership of the contract to a new account (`newOwner`). Can only be called by the current owner."
      },
      "updateLicence(uint256,uint256,uint256[])": {
        "details": "Explain to a developer any extra details",
        "params": {
          "extraNumberOfMonths": "extra Number Of Months",
          "extraServiceIds": "list of service Ids",
          "licenseId": "number Of Months for the license"
        }
      }
    },
    "version": 1
  },
  "userdoc": {
    "kind": "user",
    "methods": {
      "buyLicence(uint256,uint256[])": {
        "notice": "buy License for a list of services"
      },
      "checkUser(address,uint256,bytes)": {
        "notice": "Verify user by manager"
      },
      "constructor": {
        "notice": "constructor function"
      },
      "getLicenseTokenAddress()": {
        "notice": "Get the License Token Address"
      },
      "getServiceManagerAddress()": {
        "notice": "Get Service Manager Address"
      },
      "getUserContractAddress(address)": {
        "notice": "get User Contract Address"
      },
      "register(uint256,bytes)": {
        "notice": "Verify an address"
      },
      "resetLicence(uint256,uint256,uint256[])": {
        "notice": "buy License for a list of services"
      },
      "transferManagement(address)": {
        "notice": "change manager"
      },
      "updateLicence(uint256,uint256,uint256[])": {
        "notice": "update Licence"
      }
    },
    "version": 1
  }
}